{
  "_format": "hh-sol-artifact-1",
  "contractName": "MerkleTree",
  "sourceName": "contracts/MerkleTree.sol",
  "abi": [
    {
      "inputs": [
        {
          "internalType": "uint32",
          "name": "_treeLevels",
          "type": "uint32"
        },
        {
          "internalType": "address",
          "name": "_hasher",
          "type": "address"
        }
      ],
      "stateMutability": "nonpayable",
      "type": "constructor"
    },
    {
      "inputs": [
        {
          "internalType": "string",
          "name": "message",
          "type": "string"
        }
      ],
      "name": "MerkleTree__TreeLevelsOutOfRange",
      "type": "error"
    },
    {
      "inputs": [],
      "name": "FIELD_SIZE",
      "outputs": [
        {
          "internalType": "uint256",
          "name": "",
          "type": "uint256"
        }
      ],
      "stateMutability": "view",
      "type": "function"
    },
    {
      "inputs": [],
      "name": "ROOT_HISTORY_SIZE",
      "outputs": [
        {
          "internalType": "uint32",
          "name": "",
          "type": "uint32"
        }
      ],
      "stateMutability": "view",
      "type": "function"
    },
    {
      "inputs": [],
      "name": "ZERO_VALUE",
      "outputs": [
        {
          "internalType": "uint256",
          "name": "",
          "type": "uint256"
        }
      ],
      "stateMutability": "view",
      "type": "function"
    },
    {
      "inputs": [],
      "name": "currentRootIndex",
      "outputs": [
        {
          "internalType": "uint32",
          "name": "",
          "type": "uint32"
        }
      ],
      "stateMutability": "view",
      "type": "function"
    },
    {
      "inputs": [
        {
          "internalType": "uint256",
          "name": "",
          "type": "uint256"
        }
      ],
      "name": "filledSubtrees",
      "outputs": [
        {
          "internalType": "bytes32",
          "name": "",
          "type": "bytes32"
        }
      ],
      "stateMutability": "view",
      "type": "function"
    },
    {
      "inputs": [],
      "name": "getLastRoot",
      "outputs": [
        {
          "internalType": "bytes32",
          "name": "",
          "type": "bytes32"
        }
      ],
      "stateMutability": "view",
      "type": "function"
    },
    {
      "inputs": [
        {
          "internalType": "bytes32",
          "name": "_left",
          "type": "bytes32"
        },
        {
          "internalType": "bytes32",
          "name": "_right",
          "type": "bytes32"
        }
      ],
      "name": "hashLeftRight",
      "outputs": [
        {
          "internalType": "bytes32",
          "name": "",
          "type": "bytes32"
        }
      ],
      "stateMutability": "view",
      "type": "function"
    },
    {
      "inputs": [],
      "name": "hasher",
      "outputs": [
        {
          "internalType": "contract IHasher",
          "name": "",
          "type": "address"
        }
      ],
      "stateMutability": "view",
      "type": "function"
    },
    {
      "inputs": [
        {
          "internalType": "bytes32",
          "name": "_root",
          "type": "bytes32"
        }
      ],
      "name": "isKnownRoot",
      "outputs": [
        {
          "internalType": "bool",
          "name": "",
          "type": "bool"
        }
      ],
      "stateMutability": "view",
      "type": "function"
    },
    {
      "inputs": [],
      "name": "isResetNeeded",
      "outputs": [
        {
          "internalType": "bool",
          "name": "",
          "type": "bool"
        }
      ],
      "stateMutability": "view",
      "type": "function"
    },
    {
      "inputs": [],
      "name": "levels",
      "outputs": [
        {
          "internalType": "uint32",
          "name": "",
          "type": "uint32"
        }
      ],
      "stateMutability": "view",
      "type": "function"
    },
    {
      "inputs": [],
      "name": "nextIndex",
      "outputs": [
        {
          "internalType": "uint32",
          "name": "",
          "type": "uint32"
        }
      ],
      "stateMutability": "view",
      "type": "function"
    },
    {
      "inputs": [],
      "name": "resetNeeded",
      "outputs": [
        {
          "internalType": "bool",
          "name": "",
          "type": "bool"
        }
      ],
      "stateMutability": "view",
      "type": "function"
    },
    {
      "inputs": [
        {
          "internalType": "uint256",
          "name": "",
          "type": "uint256"
        }
      ],
      "name": "roots",
      "outputs": [
        {
          "internalType": "bytes32",
          "name": "",
          "type": "bytes32"
        }
      ],
      "stateMutability": "view",
      "type": "function"
    },
    {
      "inputs": [
        {
          "internalType": "uint256",
          "name": "",
          "type": "uint256"
        }
      ],
      "name": "zeros",
      "outputs": [
        {
          "internalType": "bytes32",
          "name": "",
          "type": "bytes32"
        }
      ],
      "stateMutability": "view",
      "type": "function"
    }
  ],
  "bytecode": "0x60a0604052600380546001600160401b031916905534801561002057600080fd5b50604051610a64380380610a6483398101604081905261003f91610349565b60208263ffffffff1611156100ab57604051632d5d403760e01b815260206004820152602660248201527f54726565206c6576656c732073686f756c64206265206265747765656e20302060448201526530b73210199960d11b60648201526084015b60405180910390fd5b6068805460ff19169055600080546001600160a01b0319166001600160a01b03831617815563ffffffff83166080526002805460018181019092557f2fe54c60d3acabf3343a35b6eba15db4821b340f76e741e2249685ed4899af6c600080516020610a248339815191529091018190558154808301835592829052600080516020610a448339815191529092018290555b8363ffffffff168163ffffffff1610156101ae5761015b82806101c5565b600280546001818101909255600080516020610a248339815191520182905580548082018255600091909152600080516020610a44833981519152018190559150806101a681610398565b91505061013d565b506101b981806101c5565b60045550610414915050565b60007f30644e72e131a029b85045b68181585d2833e84879b9709143e1f593f000000183106102365760405162461bcd60e51b815260206004820181905260248201527f5f6c6566742073686f756c6420626520696e7369646520746865206669656c6460448201526064016100a2565b7f30644e72e131a029b85045b68181585d2833e84879b9709143e1f593f000000182106102af5760405162461bcd60e51b815260206004820152602160248201527f5f72696768742073686f756c6420626520696e7369646520746865206669656c6044820152601960fa1b60648201526084016100a2565b60408051808201825284815260208101849052600054915163014cf2b360e51b815290916001600160a01b03169063299e5660906102f19084906004016103ca565b60206040518083038186803b15801561030957600080fd5b505afa15801561031d573d6000803e3d6000fd5b505050506040513d601f19601f8201168201806040525081019061034191906103fb565b949350505050565b6000806040838503121561035c57600080fd5b825163ffffffff8116811461037057600080fd5b60208401519092506001600160a01b038116811461038d57600080fd5b809150509250929050565b600063ffffffff808316818114156103c057634e487b7160e01b600052601160045260246000fd5b6001019392505050565b60408101818360005b60028110156103f25781518352602092830192909101906001016103d3565b50505092915050565b60006020828403121561040d57600080fd5b5051919050565b6080516105f561042f600039600061014c01526105f56000f3fe608060405234801561001057600080fd5b50600436106100f55760003560e01c8063c2b40ae411610097578063ec73295911610066578063ec73295914610204578063ed33639f1461022b578063f178e47c14610256578063fc7e9c6f1461026957600080fd5b8063c2b40ae4146101c9578063cd87a3b4146101dc578063e31349ce146101e4578063e8295588146101f157600080fd5b80636d9833e3116100d35780636d9833e31461018357806390eeb02b146101a6578063af49d2da146101b6578063ba70f757146101c157600080fd5b806338bf282e146100fa578063414a37ba146101205780634ecf518b14610147575b600080fd5b61010d6101083660046104f6565b610281565b6040519081526020015b60405180910390f35b61010d7f30644e72e131a029b85045b68181585d2833e84879b9709143e1f593f000000181565b61016e7f000000000000000000000000000000000000000000000000000000000000000081565b60405163ffffffff9091168152602001610117565b610196610191366004610518565b61040a565b6040519015158152602001610117565b60035461016e9063ffffffff1681565b60685460ff16610196565b61010d610488565b61010d6101d7366004610518565b6104ae565b61016e606481565b6068546101969060ff1681565b61010d6101ff366004610518565b6104c5565b61010d7f2fe54c60d3acabf3343a35b6eba15db4821b340f76e741e2249685ed4899af6c81565b60005461023e906001600160a01b031681565b6040516001600160a01b039091168152602001610117565b61010d610264366004610518565b6104e6565b60035461016e90640100000000900463ffffffff1681565b60007f30644e72e131a029b85045b68181585d2833e84879b9709143e1f593f000000183106102f75760405162461bcd60e51b815260206004820181905260248201527f5f6c6566742073686f756c6420626520696e7369646520746865206669656c6460448201526064015b60405180910390fd5b7f30644e72e131a029b85045b68181585d2833e84879b9709143e1f593f000000182106103705760405162461bcd60e51b815260206004820152602160248201527f5f72696768742073686f756c6420626520696e7369646520746865206669656c6044820152601960fa1b60648201526084016102ee565b60408051808201825284815260208101849052600054915163014cf2b360e51b815290916001600160a01b03169063299e5660906103b2908490600401610531565b60206040518083038186803b1580156103ca57600080fd5b505afa1580156103de573d6000803e3d6000fd5b505050506040513d601f19601f820116820180604052508101906104029190610562565b949350505050565b60008161041957506000919050565b60035463ffffffff165b60048163ffffffff166064811061043c5761043c61057b565b015483141561044e5750600192915050565b63ffffffff811661045d575060645b8061046781610591565b60035490925063ffffffff8084169116141590506104235750600092915050565b60035460009060049063ffffffff16606481106104a7576104a761057b565b0154905090565b600481606481106104be57600080fd5b0154905081565b600281815481106104d557600080fd5b600091825260209091200154905081565b600181815481106104d557600080fd5b6000806040838503121561050957600080fd5b50508035926020909101359150565b60006020828403121561052a57600080fd5b5035919050565b60408101818360005b600281101561055957815183526020928301929091019060010161053a565b50505092915050565b60006020828403121561057457600080fd5b5051919050565b634e487b7160e01b600052603260045260246000fd5b600063ffffffff8216806105b557634e487b7160e01b600052601160045260246000fd5b600019019291505056fea26469706673582212203e049fddd94582e031bff85d4ec30eb227a46b2ef1c597ab228a20dca5f2d9c564736f6c63430008090033405787fa12a823e0f2b7631cc41b3ba8828b3321ca811111fa75cd3aa3bb5aceb10e2d527612073b26eecdfd717e6a320cf44b4afac2b0732d9fcbe2b7fa0cf6",
  "linkReferences": {},
  "deployedLinkReferences": {}
}