{
  "_format": "hh-sol-artifact-1",
  "contractName": "MerkleTree",
  "sourceName": "contracts/MerkleTree.sol",
  "abi": [
    {
      "inputs": [
        {
          "internalType": "uint32",
          "name": "_treeLevels",
          "type": "uint32"
        },
        {
          "internalType": "address",
          "name": "_hasher",
          "type": "address"
        }
      ],
      "stateMutability": "nonpayable",
      "type": "constructor"
    },
    {
      "inputs": [
        {
          "internalType": "string",
          "name": "message",
          "type": "string"
        }
      ],
      "name": "MerkleTree__TreeLevelsOutOfRange",
      "type": "error"
    },
    {
      "inputs": [],
      "name": "FIELD_SIZE",
      "outputs": [
        {
          "internalType": "uint256",
          "name": "",
          "type": "uint256"
        }
      ],
      "stateMutability": "view",
      "type": "function"
    },
    {
      "inputs": [],
      "name": "ROOT_HISTORY_SIZE",
      "outputs": [
        {
          "internalType": "uint32",
          "name": "",
          "type": "uint32"
        }
      ],
      "stateMutability": "view",
      "type": "function"
    },
    {
      "inputs": [],
      "name": "ZERO_VALUE",
      "outputs": [
        {
          "internalType": "uint256",
          "name": "",
          "type": "uint256"
        }
      ],
      "stateMutability": "view",
      "type": "function"
    },
    {
      "inputs": [],
      "name": "currentRootIndex",
      "outputs": [
        {
          "internalType": "uint32",
          "name": "",
          "type": "uint32"
        }
      ],
      "stateMutability": "view",
      "type": "function"
    },
    {
      "inputs": [
        {
          "internalType": "uint256",
          "name": "",
          "type": "uint256"
        }
      ],
      "name": "filledSubtrees",
      "outputs": [
        {
          "internalType": "bytes32",
          "name": "",
          "type": "bytes32"
        }
      ],
      "stateMutability": "view",
      "type": "function"
    },
    {
      "inputs": [],
      "name": "getLastRoot",
      "outputs": [
        {
          "internalType": "bytes32",
          "name": "",
          "type": "bytes32"
        }
      ],
      "stateMutability": "view",
      "type": "function"
    },
    {
      "inputs": [
        {
          "internalType": "bytes32",
          "name": "_left",
          "type": "bytes32"
        },
        {
          "internalType": "bytes32",
          "name": "_right",
          "type": "bytes32"
        }
      ],
      "name": "hashLeftRight",
      "outputs": [
        {
          "internalType": "bytes32",
          "name": "",
          "type": "bytes32"
        }
      ],
      "stateMutability": "view",
      "type": "function"
    },
    {
      "inputs": [],
      "name": "hasher",
      "outputs": [
        {
          "internalType": "contract IHasher",
          "name": "",
          "type": "address"
        }
      ],
      "stateMutability": "view",
      "type": "function"
    },
    {
      "inputs": [
        {
          "internalType": "bytes32",
          "name": "_root",
          "type": "bytes32"
        }
      ],
      "name": "isKnownRoot",
      "outputs": [
        {
          "internalType": "bool",
          "name": "",
          "type": "bool"
        }
      ],
      "stateMutability": "view",
      "type": "function"
    },
    {
      "inputs": [],
      "name": "levels",
      "outputs": [
        {
          "internalType": "uint32",
          "name": "",
          "type": "uint32"
        }
      ],
      "stateMutability": "view",
      "type": "function"
    },
    {
      "inputs": [],
      "name": "nextIndex",
      "outputs": [
        {
          "internalType": "uint32",
          "name": "",
          "type": "uint32"
        }
      ],
      "stateMutability": "view",
      "type": "function"
    },
    {
      "inputs": [
        {
          "internalType": "uint256",
          "name": "",
          "type": "uint256"
        }
      ],
      "name": "roots",
      "outputs": [
        {
          "internalType": "bytes32",
          "name": "",
          "type": "bytes32"
        }
      ],
      "stateMutability": "view",
      "type": "function"
    },
    {
      "inputs": [
        {
          "internalType": "uint256",
          "name": "",
          "type": "uint256"
        }
      ],
      "name": "zeros",
      "outputs": [
        {
          "internalType": "bytes32",
          "name": "",
          "type": "bytes32"
        }
      ],
      "stateMutability": "view",
      "type": "function"
    }
  ],
  "bytecode": "0x60a0604052600380546001600160401b031916905534801561002057600080fd5b50604051610a1c380380610a1c83398101604081905261003f9161033f565b60208263ffffffff1611156100ab57604051632d5d403760e01b815260206004820152602660248201527f54726565206c6576656c732073686f756c64206265206265747765656e20302060448201526530b73210199960d11b60648201526084015b60405180910390fd5b600080546001600160a01b0319166001600160a01b03831617815563ffffffff83166080526002805460018181019092557f2fe54c60d3acabf3343a35b6eba15db4821b340f76e741e2249685ed4899af6c6000805160206109dc83398151915290910181905581548083018355928290526000805160206109fc8339815191529092018290555b8363ffffffff168163ffffffff1610156101a45761015182806101bb565b6002805460018181019092556000805160206109dc83398151915201829055805480820182556000919091526000805160206109fc8339815191520181905591508061019c8161038e565b915050610133565b506101af81806101bb565b6004555061040a915050565b60007f30644e72e131a029b85045b68181585d2833e84879b9709143e1f593f0000001831061022c5760405162461bcd60e51b815260206004820181905260248201527f5f6c6566742073686f756c6420626520696e7369646520746865206669656c6460448201526064016100a2565b7f30644e72e131a029b85045b68181585d2833e84879b9709143e1f593f000000182106102a55760405162461bcd60e51b815260206004820152602160248201527f5f72696768742073686f756c6420626520696e7369646520746865206669656c6044820152601960fa1b60648201526084016100a2565b60408051808201825284815260208101849052600054915163014cf2b360e51b815290916001600160a01b03169063299e5660906102e79084906004016103c0565b60206040518083038186803b1580156102ff57600080fd5b505afa158015610313573d6000803e3d6000fd5b505050506040513d601f19601f8201168201806040525081019061033791906103f1565b949350505050565b6000806040838503121561035257600080fd5b825163ffffffff8116811461036657600080fd5b60208401519092506001600160a01b038116811461038357600080fd5b809150509250929050565b600063ffffffff808316818114156103b657634e487b7160e01b600052601160045260246000fd5b6001019392505050565b60408101818360005b60028110156103e85781518352602092830192909101906001016103c9565b50505092915050565b60006020828403121561040357600080fd5b5051919050565b6080516105b7610425600039600061012601526105b76000f3fe608060405234801561001057600080fd5b50600436106100cf5760003560e01c8063c2b40ae41161008c578063ec73295911610066578063ec732959146101c6578063ed33639f146101ed578063f178e47c14610218578063fc7e9c6f1461022b57600080fd5b8063c2b40ae414610198578063cd87a3b4146101ab578063e8295588146101b357600080fd5b806338bf282e146100d4578063414a37ba146100fa5780634ecf518b146101215780636d9833e31461015d57806390eeb02b14610180578063ba70f75714610190575b600080fd5b6100e76100e23660046104b8565b610243565b6040519081526020015b60405180910390f35b6100e77f30644e72e131a029b85045b68181585d2833e84879b9709143e1f593f000000181565b6101487f000000000000000000000000000000000000000000000000000000000000000081565b60405163ffffffff90911681526020016100f1565b61017061016b3660046104da565b6103cc565b60405190151581526020016100f1565b6003546101489063ffffffff1681565b6100e761044a565b6100e76101a63660046104da565b610470565b610148606481565b6100e76101c13660046104da565b610487565b6100e77f2fe54c60d3acabf3343a35b6eba15db4821b340f76e741e2249685ed4899af6c81565b600054610200906001600160a01b031681565b6040516001600160a01b0390911681526020016100f1565b6100e76102263660046104da565b6104a8565b60035461014890640100000000900463ffffffff1681565b60007f30644e72e131a029b85045b68181585d2833e84879b9709143e1f593f000000183106102b95760405162461bcd60e51b815260206004820181905260248201527f5f6c6566742073686f756c6420626520696e7369646520746865206669656c6460448201526064015b60405180910390fd5b7f30644e72e131a029b85045b68181585d2833e84879b9709143e1f593f000000182106103325760405162461bcd60e51b815260206004820152602160248201527f5f72696768742073686f756c6420626520696e7369646520746865206669656c6044820152601960fa1b60648201526084016102b0565b60408051808201825284815260208101849052600054915163014cf2b360e51b815290916001600160a01b03169063299e5660906103749084906004016104f3565b60206040518083038186803b15801561038c57600080fd5b505afa1580156103a0573d6000803e3d6000fd5b505050506040513d601f19601f820116820180604052508101906103c49190610524565b949350505050565b6000816103db57506000919050565b60035463ffffffff165b60048163ffffffff16606481106103fe576103fe61053d565b01548314156104105750600192915050565b63ffffffff811661041f575060645b8061042981610553565b60035490925063ffffffff8084169116141590506103e55750600092915050565b60035460009060049063ffffffff16606481106104695761046961053d565b0154905090565b6004816064811061048057600080fd5b0154905081565b6002818154811061049757600080fd5b600091825260209091200154905081565b6001818154811061049757600080fd5b600080604083850312156104cb57600080fd5b50508035926020909101359150565b6000602082840312156104ec57600080fd5b5035919050565b60408101818360005b600281101561051b5781518352602092830192909101906001016104fc565b50505092915050565b60006020828403121561053657600080fd5b5051919050565b634e487b7160e01b600052603260045260246000fd5b600063ffffffff82168061057757634e487b7160e01b600052601160045260246000fd5b600019019291505056fea2646970667358221220f2c0d98d59e89f394854854789ddb5ff7884778decfa0dc941e5b473b994cd3e64736f6c63430008090033405787fa12a823e0f2b7631cc41b3ba8828b3321ca811111fa75cd3aa3bb5aceb10e2d527612073b26eecdfd717e6a320cf44b4afac2b0732d9fcbe2b7fa0cf6",
  "linkReferences": {},
  "deployedLinkReferences": {}
}