{
  "_format": "hh-sol-artifact-1",
  "contractName": "SnapshotV2",
  "sourceName": "contracts/SnapshotV2.sol",
  "abi": [
    {
      "inputs": [
        {
          "internalType": "address",
          "name": "oracle",
          "type": "address"
        },
        {
          "internalType": "contract IVerifier",
          "name": "_verifier",
          "type": "address"
        },
        {
          "internalType": "uint32",
          "name": "_merkleTreeHeight",
          "type": "uint32"
        },
        {
          "internalType": "address",
          "name": "_hasher",
          "type": "address"
        },
        {
          "internalType": "uint64",
          "name": "_subscriptionId",
          "type": "uint64"
        },
        {
          "internalType": "uint32",
          "name": "_fulfillGasLimit",
          "type": "uint32"
        }
      ],
      "stateMutability": "nonpayable",
      "type": "constructor"
    },
    {
      "inputs": [],
      "name": "EmptyArgs",
      "type": "error"
    },
    {
      "inputs": [],
      "name": "EmptySecrets",
      "type": "error"
    },
    {
      "inputs": [],
      "name": "EmptySource",
      "type": "error"
    },
    {
      "inputs": [
        {
          "internalType": "string",
          "name": "message",
          "type": "string"
        }
      ],
      "name": "MerkleTree__IsFull",
      "type": "error"
    },
    {
      "inputs": [
        {
          "internalType": "string",
          "name": "message",
          "type": "string"
        }
      ],
      "name": "MerkleTree__TreeLevelsOutOfRange",
      "type": "error"
    },
    {
      "inputs": [],
      "name": "RequestIsAlreadyPending",
      "type": "error"
    },
    {
      "inputs": [],
      "name": "RequestIsNotPending",
      "type": "error"
    },
    {
      "inputs": [],
      "name": "SenderIsNotRegistry",
      "type": "error"
    },
    {
      "inputs": [
        {
          "internalType": "string",
          "name": "message",
          "type": "string"
        }
      ],
      "name": "SnapshotV2__CommitmentAlreadyUsed",
      "type": "error"
    },
    {
      "inputs": [
        {
          "internalType": "string",
          "name": "message",
          "type": "string"
        }
      ],
      "name": "SnapshotV2__InvalidProof",
      "type": "error"
    },
    {
      "inputs": [
        {
          "internalType": "string",
          "name": "message",
          "type": "string"
        }
      ],
      "name": "SnapshotV2__NullifierAlreadyUsed",
      "type": "error"
    },
    {
      "inputs": [
        {
          "internalType": "string",
          "name": "message",
          "type": "string"
        }
      ],
      "name": "SnapshotV2__RootNotKnown",
      "type": "error"
    },
    {
      "inputs": [
        {
          "internalType": "string",
          "name": "message",
          "type": "string"
        }
      ],
      "name": "SnapshotV2__TimeInterval",
      "type": "error"
    },
    {
      "anonymous": false,
      "inputs": [
        {
          "indexed": false,
          "internalType": "bytes32",
          "name": "commitment",
          "type": "bytes32"
        },
        {
          "indexed": false,
          "internalType": "uint32",
          "name": "insertedIndex",
          "type": "uint32"
        }
      ],
      "name": "Inserted",
      "type": "event"
    },
    {
      "anonymous": false,
      "inputs": [
        {
          "indexed": true,
          "internalType": "bytes32",
          "name": "requestId",
          "type": "bytes32"
        },
        {
          "indexed": false,
          "internalType": "bytes",
          "name": "result",
          "type": "bytes"
        },
        {
          "indexed": false,
          "internalType": "bytes",
          "name": "err",
          "type": "bytes"
        }
      ],
      "name": "OCRResponse",
      "type": "event"
    },
    {
      "anonymous": false,
      "inputs": [
        {
          "indexed": true,
          "internalType": "address",
          "name": "from",
          "type": "address"
        },
        {
          "indexed": true,
          "internalType": "address",
          "name": "to",
          "type": "address"
        }
      ],
      "name": "OwnershipTransferRequested",
      "type": "event"
    },
    {
      "anonymous": false,
      "inputs": [
        {
          "indexed": true,
          "internalType": "address",
          "name": "from",
          "type": "address"
        },
        {
          "indexed": true,
          "internalType": "address",
          "name": "to",
          "type": "address"
        }
      ],
      "name": "OwnershipTransferred",
      "type": "event"
    },
    {
      "anonymous": false,
      "inputs": [
        {
          "indexed": true,
          "internalType": "bytes32",
          "name": "id",
          "type": "bytes32"
        }
      ],
      "name": "RequestFulfilled",
      "type": "event"
    },
    {
      "anonymous": false,
      "inputs": [
        {
          "indexed": true,
          "internalType": "bytes32",
          "name": "id",
          "type": "bytes32"
        }
      ],
      "name": "RequestSent",
      "type": "event"
    },
    {
      "anonymous": false,
      "inputs": [
        {
          "indexed": false,
          "internalType": "string",
          "name": "message",
          "type": "string"
        },
        {
          "indexed": false,
          "internalType": "bytes32",
          "name": "nullifierHash",
          "type": "bytes32"
        }
      ],
      "name": "messagePosted",
      "type": "event"
    },
    {
      "anonymous": false,
      "inputs": [],
      "name": "messagesCleared",
      "type": "event"
    },
    {
      "inputs": [],
      "name": "FIELD_SIZE",
      "outputs": [
        {
          "internalType": "uint256",
          "name": "",
          "type": "uint256"
        }
      ],
      "stateMutability": "view",
      "type": "function"
    },
    {
      "inputs": [],
      "name": "ROOT_HISTORY_SIZE",
      "outputs": [
        {
          "internalType": "uint32",
          "name": "",
          "type": "uint32"
        }
      ],
      "stateMutability": "view",
      "type": "function"
    },
    {
      "inputs": [],
      "name": "ZERO_VALUE",
      "outputs": [
        {
          "internalType": "uint256",
          "name": "",
          "type": "uint256"
        }
      ],
      "stateMutability": "view",
      "type": "function"
    },
    {
      "inputs": [],
      "name": "acceptOwnership",
      "outputs": [],
      "stateMutability": "nonpayable",
      "type": "function"
    },
    {
      "inputs": [
        {
          "internalType": "string",
          "name": "_name",
          "type": "string"
        }
      ],
      "name": "addName",
      "outputs": [],
      "stateMutability": "nonpayable",
      "type": "function"
    },
    {
      "inputs": [
        {
          "internalType": "bytes",
          "name": "",
          "type": "bytes"
        }
      ],
      "name": "checkUpkeep",
      "outputs": [
        {
          "internalType": "bool",
          "name": "upkeepNeeded",
          "type": "bool"
        },
        {
          "internalType": "bytes",
          "name": "",
          "type": "bytes"
        }
      ],
      "stateMutability": "view",
      "type": "function"
    },
    {
      "inputs": [],
      "name": "clearMessages",
      "outputs": [],
      "stateMutability": "nonpayable",
      "type": "function"
    },
    {
      "inputs": [
        {
          "internalType": "bytes32",
          "name": "",
          "type": "bytes32"
        }
      ],
      "name": "commitments",
      "outputs": [
        {
          "internalType": "bool",
          "name": "",
          "type": "bool"
        }
      ],
      "stateMutability": "view",
      "type": "function"
    },
    {
      "inputs": [],
      "name": "currentRootIndex",
      "outputs": [
        {
          "internalType": "uint32",
          "name": "",
          "type": "uint32"
        }
      ],
      "stateMutability": "view",
      "type": "function"
    },
    {
      "inputs": [
        {
          "components": [
            {
              "internalType": "enum Functions.Location",
              "name": "codeLocation",
              "type": "uint8"
            },
            {
              "internalType": "enum Functions.Location",
              "name": "secretsLocation",
              "type": "uint8"
            },
            {
              "internalType": "enum Functions.CodeLanguage",
              "name": "language",
              "type": "uint8"
            },
            {
              "internalType": "string",
              "name": "source",
              "type": "string"
            },
            {
              "internalType": "bytes",
              "name": "secrets",
              "type": "bytes"
            },
            {
              "internalType": "string[]",
              "name": "args",
              "type": "string[]"
            }
          ],
          "internalType": "struct Functions.Request",
          "name": "req",
          "type": "tuple"
        },
        {
          "internalType": "uint64",
          "name": "subscriptionId",
          "type": "uint64"
        },
        {
          "internalType": "uint32",
          "name": "gasLimit",
          "type": "uint32"
        },
        {
          "internalType": "uint256",
          "name": "gasPrice",
          "type": "uint256"
        }
      ],
      "name": "estimateCost",
      "outputs": [
        {
          "internalType": "uint96",
          "name": "",
          "type": "uint96"
        }
      ],
      "stateMutability": "view",
      "type": "function"
    },
    {
      "inputs": [
        {
          "internalType": "uint256",
          "name": "",
          "type": "uint256"
        }
      ],
      "name": "filledSubtrees",
      "outputs": [
        {
          "internalType": "bytes32",
          "name": "",
          "type": "bytes32"
        }
      ],
      "stateMutability": "view",
      "type": "function"
    },
    {
      "inputs": [],
      "name": "fulfillGasLimit",
      "outputs": [
        {
          "internalType": "uint32",
          "name": "",
          "type": "uint32"
        }
      ],
      "stateMutability": "view",
      "type": "function"
    },
    {
      "inputs": [
        {
          "internalType": "string",
          "name": "source",
          "type": "string"
        },
        {
          "internalType": "bytes",
          "name": "secrets",
          "type": "bytes"
        },
        {
          "internalType": "string[]",
          "name": "args",
          "type": "string[]"
        }
      ],
      "name": "generateRequest",
      "outputs": [
        {
          "internalType": "bytes",
          "name": "",
          "type": "bytes"
        }
      ],
      "stateMutability": "pure",
      "type": "function"
    },
    {
      "inputs": [],
      "name": "getDONPublicKey",
      "outputs": [
        {
          "internalType": "bytes",
          "name": "",
          "type": "bytes"
        }
      ],
      "stateMutability": "view",
      "type": "function"
    },
    {
      "inputs": [],
      "name": "getLastRoot",
      "outputs": [
        {
          "internalType": "bytes32",
          "name": "",
          "type": "bytes32"
        }
      ],
      "stateMutability": "view",
      "type": "function"
    },
    {
      "inputs": [
        {
          "internalType": "string",
          "name": "name",
          "type": "string"
        }
      ],
      "name": "getMessages",
      "outputs": [
        {
          "internalType": "string[]",
          "name": "",
          "type": "string[]"
        }
      ],
      "stateMutability": "view",
      "type": "function"
    },
    {
      "inputs": [],
      "name": "getSelectedAddresses",
      "outputs": [
        {
          "internalType": "address[]",
          "name": "",
          "type": "address[]"
        }
      ],
      "stateMutability": "view",
      "type": "function"
    },
    {
      "inputs": [
        {
          "internalType": "bytes32",
          "name": "requestId",
          "type": "bytes32"
        },
        {
          "internalType": "bytes",
          "name": "response",
          "type": "bytes"
        },
        {
          "internalType": "bytes",
          "name": "err",
          "type": "bytes"
        }
      ],
      "name": "handleOracleFulfillment",
      "outputs": [],
      "stateMutability": "nonpayable",
      "type": "function"
    },
    {
      "inputs": [
        {
          "internalType": "bytes32",
          "name": "_left",
          "type": "bytes32"
        },
        {
          "internalType": "bytes32",
          "name": "_right",
          "type": "bytes32"
        }
      ],
      "name": "hashLeftRight",
      "outputs": [
        {
          "internalType": "bytes32",
          "name": "",
          "type": "bytes32"
        }
      ],
      "stateMutability": "view",
      "type": "function"
    },
    {
      "inputs": [],
      "name": "hasher",
      "outputs": [
        {
          "internalType": "contract IHasher",
          "name": "",
          "type": "address"
        }
      ],
      "stateMutability": "view",
      "type": "function"
    },
    {
      "inputs": [
        {
          "internalType": "bytes32",
          "name": "_commitment",
          "type": "bytes32"
        }
      ],
      "name": "insertIntoTree",
      "outputs": [],
      "stateMutability": "nonpayable",
      "type": "function"
    },
    {
      "inputs": [
        {
          "internalType": "bytes32",
          "name": "_root",
          "type": "bytes32"
        }
      ],
      "name": "isKnownRoot",
      "outputs": [
        {
          "internalType": "bool",
          "name": "",
          "type": "bool"
        }
      ],
      "stateMutability": "view",
      "type": "function"
    },
    {
      "inputs": [
        {
          "internalType": "bytes32",
          "name": "_nullifier",
          "type": "bytes32"
        }
      ],
      "name": "isNullifierUsed",
      "outputs": [
        {
          "internalType": "bool",
          "name": "",
          "type": "bool"
        }
      ],
      "stateMutability": "view",
      "type": "function"
    },
    {
      "inputs": [],
      "name": "lastUpkeepTimeStamp",
      "outputs": [
        {
          "internalType": "uint256",
          "name": "",
          "type": "uint256"
        }
      ],
      "stateMutability": "view",
      "type": "function"
    },
    {
      "inputs": [],
      "name": "latestError",
      "outputs": [
        {
          "internalType": "bytes",
          "name": "",
          "type": "bytes"
        }
      ],
      "stateMutability": "view",
      "type": "function"
    },
    {
      "inputs": [],
      "name": "latestRequestId",
      "outputs": [
        {
          "internalType": "bytes32",
          "name": "",
          "type": "bytes32"
        }
      ],
      "stateMutability": "view",
      "type": "function"
    },
    {
      "inputs": [],
      "name": "latestResponse",
      "outputs": [
        {
          "internalType": "bytes",
          "name": "",
          "type": "bytes"
        }
      ],
      "stateMutability": "view",
      "type": "function"
    },
    {
      "inputs": [],
      "name": "levels",
      "outputs": [
        {
          "internalType": "uint32",
          "name": "",
          "type": "uint32"
        }
      ],
      "stateMutability": "view",
      "type": "function"
    },
    {
      "inputs": [
        {
          "internalType": "string",
          "name": "",
          "type": "string"
        },
        {
          "internalType": "uint256",
          "name": "",
          "type": "uint256"
        }
      ],
      "name": "messages",
      "outputs": [
        {
          "internalType": "string",
          "name": "",
          "type": "string"
        }
      ],
      "stateMutability": "view",
      "type": "function"
    },
    {
      "inputs": [
        {
          "internalType": "uint256",
          "name": "",
          "type": "uint256"
        }
      ],
      "name": "names",
      "outputs": [
        {
          "internalType": "string",
          "name": "",
          "type": "string"
        }
      ],
      "stateMutability": "view",
      "type": "function"
    },
    {
      "inputs": [],
      "name": "nextIndex",
      "outputs": [
        {
          "internalType": "uint32",
          "name": "",
          "type": "uint32"
        }
      ],
      "stateMutability": "view",
      "type": "function"
    },
    {
      "inputs": [
        {
          "internalType": "bytes32",
          "name": "",
          "type": "bytes32"
        }
      ],
      "name": "nullifiers",
      "outputs": [
        {
          "internalType": "bool",
          "name": "",
          "type": "bool"
        }
      ],
      "stateMutability": "view",
      "type": "function"
    },
    {
      "inputs": [],
      "name": "owner",
      "outputs": [
        {
          "internalType": "address",
          "name": "",
          "type": "address"
        }
      ],
      "stateMutability": "view",
      "type": "function"
    },
    {
      "inputs": [
        {
          "internalType": "bytes",
          "name": "",
          "type": "bytes"
        }
      ],
      "name": "performUpkeep",
      "outputs": [],
      "stateMutability": "nonpayable",
      "type": "function"
    },
    {
      "inputs": [
        {
          "internalType": "string",
          "name": "name",
          "type": "string"
        },
        {
          "internalType": "string",
          "name": "_message",
          "type": "string"
        },
        {
          "internalType": "bytes32",
          "name": "_nullifierHash",
          "type": "bytes32"
        },
        {
          "internalType": "bytes32",
          "name": "_root",
          "type": "bytes32"
        },
        {
          "components": [
            {
              "internalType": "uint256[2]",
              "name": "a",
              "type": "uint256[2]"
            },
            {
              "internalType": "uint256[2][2]",
              "name": "b",
              "type": "uint256[2][2]"
            },
            {
              "internalType": "uint256[2]",
              "name": "c",
              "type": "uint256[2]"
            }
          ],
          "internalType": "struct Proof",
          "name": "_proof",
          "type": "tuple"
        }
      ],
      "name": "postMessageWithProof",
      "outputs": [],
      "stateMutability": "nonpayable",
      "type": "function"
    },
    {
      "inputs": [],
      "name": "requestCBOR",
      "outputs": [
        {
          "internalType": "bytes",
          "name": "",
          "type": "bytes"
        }
      ],
      "stateMutability": "view",
      "type": "function"
    },
    {
      "inputs": [],
      "name": "responseCounter",
      "outputs": [
        {
          "internalType": "uint256",
          "name": "",
          "type": "uint256"
        }
      ],
      "stateMutability": "view",
      "type": "function"
    },
    {
      "inputs": [
        {
          "internalType": "uint256",
          "name": "",
          "type": "uint256"
        }
      ],
      "name": "roots",
      "outputs": [
        {
          "internalType": "bytes32",
          "name": "",
          "type": "bytes32"
        }
      ],
      "stateMutability": "view",
      "type": "function"
    },
    {
      "inputs": [
        {
          "internalType": "address",
          "name": "",
          "type": "address"
        }
      ],
      "name": "selectedAddresses",
      "outputs": [
        {
          "internalType": "bool",
          "name": "",
          "type": "bool"
        }
      ],
      "stateMutability": "view",
      "type": "function"
    },
    {
      "inputs": [
        {
          "internalType": "uint256",
          "name": "",
          "type": "uint256"
        }
      ],
      "name": "selectedAddressesArray",
      "outputs": [
        {
          "internalType": "address",
          "name": "",
          "type": "address"
        }
      ],
      "stateMutability": "view",
      "type": "function"
    },
    {
      "inputs": [],
      "name": "subscriptionId",
      "outputs": [
        {
          "internalType": "uint64",
          "name": "",
          "type": "uint64"
        }
      ],
      "stateMutability": "view",
      "type": "function"
    },
    {
      "inputs": [
        {
          "internalType": "address",
          "name": "to",
          "type": "address"
        }
      ],
      "name": "transferOwnership",
      "outputs": [],
      "stateMutability": "nonpayable",
      "type": "function"
    },
    {
      "inputs": [],
      "name": "updateInterval",
      "outputs": [
        {
          "internalType": "uint256",
          "name": "",
          "type": "uint256"
        }
      ],
      "stateMutability": "view",
      "type": "function"
    },
    {
      "inputs": [],
      "name": "upkeepCounter",
      "outputs": [
        {
          "internalType": "uint256",
          "name": "",
          "type": "uint256"
        }
      ],
      "stateMutability": "view",
      "type": "function"
    },
    {
      "inputs": [],
      "name": "verifier",
      "outputs": [
        {
          "internalType": "contract IVerifier",
          "name": "",
          "type": "address"
        }
      ],
      "stateMutability": "view",
      "type": "function"
    },
    {
      "inputs": [
        {
          "internalType": "uint256",
          "name": "",
          "type": "uint256"
        }
      ],
      "name": "zeros",
      "outputs": [
        {
          "internalType": "bytes32",
          "name": "",
          "type": "bytes32"
        }
      ],
      "stateMutability": "view",
      "type": "function"
    }
  ],
  "bytecode": "0x60a0604052600780546001600160401b03191690553480156200002157600080fd5b5060405162003cc438038062003cc48339810160408190526200004491620006ff565b600080546001600160a01b0319166001600160a01b03881617815584908490339081906001600160a01b038216620000c35760405162461bcd60e51b815260206004820152601860248201527f43616e6e6f7420736574206f776e657220746f207a65726f000000000000000060448201526064015b60405180910390fd5b600280546001600160a01b0319166001600160a01b0384811691909117909155811615620000f657620000f6816200032c565b505050602063ffffffff831611156200016257604051632d5d403760e01b815260206004820152602660248201527f54726565206c6576656c732073686f756c64206265206265747765656e20302060448201526530b73210199960d11b6064820152608401620000ba565b600480546001600160a01b0319166001600160a01b03831617905563ffffffff82166080526006805460018181019092557f2fe54c60d3acabf3343a35b6eba15db4821b340f76e741e2249685ed4899af6c60008051602062003ca483398151915290910181905560058054808401825560009190915260008051602062003c8483398151915201819055905b8363ffffffff168163ffffffff1610156200026757620002108280620003d9565b60068054600181810190925560008051602062003ca48339815191520182905560058054918201815560005260008051602062003c84833981519152018190559150806200025e8162000795565b915050620001ef565b50620002748180620003d9565b60085550506001606c55506040805160008082526020820190925290620002ac565b6060815260200190600190039081620002965790505b508051620002c391607a9160209091019062000566565b50607580546001600160a01b039096166001600160a01b031990961695909517909455606e805463ffffffff90951668010000000000000000026001600160601b03199095166001600160401b039092169190911793909317909255505042606f555062000852565b6001600160a01b038116331415620003875760405162461bcd60e51b815260206004820152601760248201527f43616e6e6f74207472616e7366657220746f2073656c660000000000000000006044820152606401620000ba565b600380546001600160a01b0319166001600160a01b03838116918217909255600254604051919216907fed8889f560326eb138920d842192f0eb3dd22b4f139c87a2c57538e05bae127890600090a350565b60007f30644e72e131a029b85045b68181585d2833e84879b9709143e1f593f000000183106200044c5760405162461bcd60e51b815260206004820181905260248201527f5f6c6566742073686f756c6420626520696e7369646520746865206669656c646044820152606401620000ba565b7f30644e72e131a029b85045b68181585d2833e84879b9709143e1f593f00000018210620004c75760405162461bcd60e51b815260206004820152602160248201527f5f72696768742073686f756c6420626520696e7369646520746865206669656c6044820152601960fa1b6064820152608401620000ba565b6040805180820182528481526020810184905260048054925163014cf2b360e51b815291926001600160a01b03169163299e5660916200050a91859101620007c8565b60206040518083038186803b1580156200052357600080fd5b505afa15801562000538573d6000803e3d6000fd5b505050506040513d601f19601f820116820180604052508101906200055e9190620007fb565b949350505050565b828054828255906000526020600020908101928215620005b8579160200282015b82811115620005b85782518051620005a7918491602090910190620005ca565b509160200191906001019062000587565b50620005c692915062000655565b5090565b828054620005d89062000815565b90600052602060002090601f016020900481019282620005fc576000855562000647565b82601f106200061757805160ff191683800117855562000647565b8280016001018555821562000647579182015b82811115620006475782518255916020019190600101906200062a565b50620005c692915062000676565b80821115620005c65760006200066c82826200068d565b5060010162000655565b5b80821115620005c6576000815560010162000677565b5080546200069b9062000815565b6000825580601f10620006ac575050565b601f016020900490600052602060002090810190620006cc919062000676565b50565b6001600160a01b0381168114620006cc57600080fd5b805163ffffffff81168114620006fa57600080fd5b919050565b60008060008060008060c087890312156200071957600080fd5b86516200072681620006cf565b60208801519096506200073981620006cf565b94506200074960408801620006e5565b935060608701516200075b81620006cf565b60808801519093506001600160401b03811681146200077957600080fd5b91506200078960a08801620006e5565b90509295509295509295565b600063ffffffff80831681811415620007be57634e487b7160e01b600052601160045260246000fd5b6001019392505050565b60408101818360005b6002811015620007f2578151835260209283019290910190600101620007d1565b50505092915050565b6000602082840312156200080e57600080fd5b5051919050565b600181811c908216806200082a57607f821691505b602082108114156200084c57634e487b7160e01b600052602260045260246000fd5b50919050565b60805161340162000883600039600081816104420152818161172e0152818161180e0152611c8401526134016000f3fe608060405234801561001057600080fd5b506004361061028a5760003560e01c80638da5cb5b1161015c578063df65850a116100ce578063f178e47c11610087578063f178e47c1461063e578063f2fde38b14610651578063fc7e9c6f14610664578063fd2c80ae1461067c578063fe08301214610686578063fffeb84e1461069957600080fd5b8063df65850a146105a6578063df9084eb146105ae578063e3cf998f146105ce578063e8295588146105f1578063ec73295914610604578063ed33639f1461062b57600080fd5b8063c2b40ae411610120578063c2b40ae41461052b578063c8c586ae1461053e578063cd87a3b414610551578063ce92c1b114610559578063d328a91e1461056e578063d4b391751461057657600080fd5b80638da5cb5b146104f157806390eeb02b14610502578063a3d3c0d214610512578063ba70f7571461051b578063bef3a2f01461052357600080fd5b8063414a37ba11610200578063688ecfd1116101b9578063688ecfd1146104775780636d9833e31461047f5780636e04ff0d1461049257806379ba5097146104b3578063839df945146104bb5780638d82496e146104de57600080fd5b8063414a37ba146103d057806344022c87146103f75780634585e33b1461040a5780634622ab031461041d5780634ecf518b1461043d57806359360b551461046457600080fd5b806322dc7b4c1161025257806322dc7b4c1461030757806324b93e3e1461033a5780632997e86b146103665780632b7ac3f314610389578063381fc4b5146103b457806338bf282e146103bd57600080fd5b8063089ea02e1461028f57806309c1ba2e146102ab5780630ca76175146102d657806311456b47146102eb5780631aa46f59146102fe575b600080fd5b610298606f5481565b6040519081526020015b60405180910390f35b606e546102be906001600160401b031681565b6040516001600160401b0390911681526020016102a2565b6102e96102e436600461262e565b6106a1565b005b6102e96102f936600461269a565b61072e565b61029860725481565b61032a6103153660046126ce565b60009081526076602052604090205460ff1690565b60405190151581526020016102a2565b606e5461035190600160401b900463ffffffff1681565b60405163ffffffff90911681526020016102a2565b61032a6103743660046126ce565b60766020526000908152604090205460ff1681565b60755461039c906001600160a01b031681565b6040516001600160a01b0390911681526020016102a2565b61029860715481565b6102986103cb3660046126e7565b610775565b6102987f30644e72e131a029b85045b68181585d2833e84879b9709143e1f593f000000181565b61039c6104053660046126ce565b6108ff565b6102e9610418366004612751565b610929565b61043061042b3660046126ce565b610b25565b6040516102a291906127ea565b6103517f000000000000000000000000000000000000000000000000000000000000000081565b6102e961047236600461284d565b610bd1565b610430610e05565b61032a61048d3660046126ce565b610e12565b6104a56104a036600461269a565b610e90565b6040516102a2929190612961565b6102e9610eae565b61032a6104c93660046126ce565b60776020526000908152604090205460ff1681565b6102e96104ec3660046126ce565b610f5c565b6002546001600160a01b031661039c565b6007546103519063ffffffff1681565b61029860705481565b61029861105d565b610430611083565b6102986105393660046126ce565b611090565b61043061054c36600461297c565b6110a7565b610351606481565b6105616110ee565b6040516102a291906129c0565b610430611150565b610589610584366004612aff565b6111d5565b6040516bffffffffffffffffffffffff90911681526020016102a2565b6102e961126d565b6105c16105bc366004612751565b611375565b6040516102a29190612c10565b61032a6105dc366004612c87565b60796020526000908152604090205460ff1681565b6102986105ff3660046126ce565b61146f565b6102987f2fe54c60d3acabf3343a35b6eba15db4821b340f76e741e2249685ed4899af6c81565b60045461039c906001600160a01b031681565b61029861064c3660046126ce565b611490565b6102e961065f366004612c87565b6114a0565b60075461035190640100000000900463ffffffff1681565b61029862093a8081565b610430610694366004612ca4565b6114b1565b6104306115ab565b60008381526001602052604090205483906001600160a01b031633146106da5760405163a0c5ec6360e01b815260040160405180910390fd5b60008181526001602052604080822080546001600160a01b03191690555182917f85e1543bf2f84fe80c6badbce3648c8539ad1df4d2b3d822938ca0538be727e691a26107288484846115b8565b50505050565b607a80546001810182556000919091528151610771917ff0440771a29e57e18c66727944770b82cc77924aef333c927ce6bdd2cdb3ae0301906020840190612399565b5050565b60007f30644e72e131a029b85045b68181585d2833e84879b9709143e1f593f000000183106107eb5760405162461bcd60e51b815260206004820181905260248201527f5f6c6566742073686f756c6420626520696e7369646520746865206669656c6460448201526064015b60405180910390fd5b7f30644e72e131a029b85045b68181585d2833e84879b9709143e1f593f000000182106108645760405162461bcd60e51b815260206004820152602160248201527f5f72696768742073686f756c6420626520696e7369646520746865206669656c6044820152601960fa1b60648201526084016107e2565b6040805180820182528481526020810184905260048054925163014cf2b360e51b815291926001600160a01b03169163299e5660916108a591859101612d6c565b60206040518083038186803b1580156108bd57600080fd5b505afa1580156108d1573d6000803e3d6000fd5b505050506040513d601f19601f820116820180604052508101906108f59190612d9d565b9150505b92915050565b607b818154811061090f57600080fd5b6000918252602090912001546001600160a01b0316905081565b600061094360405180602001604052806000815250610e90565b5090508061098c57604051632f0c8d4b60e21b8152602060048201526015602482015274151a5b59481a5b9d195c9d985b081b9bdd081b595d605a1b60448201526064016107e2565b42606f5560705461099e906001612dcc565b60705560008054606e54604051630a090ac160e21b81526001600160a01b03909216916328242b04916109f0916001600160401b03821691606d91600160401b90910463ffffffff1690600401612e19565b602060405180830381600087803b158015610a0a57600080fd5b505af1158015610a1e573d6000803e3d6000fd5b505050506040513d601f19601f82011682018060405250810190610a429190612d9d565b905060008054906101000a90046001600160a01b03166001600160a01b0316635ab1bd536040518163ffffffff1660e01b815260040160206040518083038186803b158015610a9057600080fd5b505afa158015610aa4573d6000803e3d6000fd5b505050506040513d601f19601f82011682018060405250810190610ac89190612eba565b60008281526001602052604080822080546001600160a01b0319166001600160a01b039490941693909317909255905182917f1131472297a800fee664d1d89cfa8f7676ff07189ecc53f80bbb5f4969099db891a2607255505050565b607a8181548110610b3557600080fd5b906000526020600020016000915090508054610b5090612de4565b80601f0160208091040260200160405190810160405280929190818152602001828054610b7c90612de4565b8015610bc95780601f10610b9e57610100808354040283529160200191610bc9565b820191906000526020600020905b815481529060010190602001808311610bac57829003601f168201915b505050505081565b610bd96116bb565b60008381526076602052604090205460ff1615610c32576040516337a51b3d60e21b8152602060048201526016602482015275139d5b1b1a599a595c88185b1c9958591e481d5cd95960521b60448201526064016107e2565b610c3b82610e12565b610c795760405163a4305b1360e01b815260206004820152600e60248201526d2937b7ba103737ba1035b737bbb760911b60448201526064016107e2565b6040805180820182528381526020808201869052607554845191850151858501519451637ae4eb4f60e11b815293946001600160a01b039092169363f5c9d69e93610ccb939092918790600401612efa565b602060405180830381600087803b158015610ce557600080fd5b505af1158015610cf9573d6000803e3d6000fd5b505050506040513d601f19601f82011682018060405250810190610d1d9190612f61565b610d5a576040516309daa30960e21b815260206004820152600d60248201526c24b73b30b634b210383937b7b360991b60448201526064016107e2565b60008481526076602052604090819020805460ff1916600117905551607890610d84908890612f83565b9081526040516020918190038201902080546001810182556000918252908290208751610db993919092019190880190612399565b507f06b6c80bb5c4b26d73a7cf3586c1b2f17bd79f8f7fd3c3e14f9cd709265741208585604051610deb929190612f9f565b60405180910390a150610dfe6001606c55565b5050505050565b606d8054610b5090612de4565b600081610e2157506000919050565b60075463ffffffff165b60088163ffffffff1660648110610e4457610e44612fc1565b0154831415610e565750600192915050565b63ffffffff8116610e65575060645b80610e6f81612fd7565b60075490925063ffffffff808416911614159050610e2b5750600092915050565b6000606062093a80606f5442610ea69190612ff7565b119150915091565b6003546001600160a01b03163314610f015760405162461bcd60e51b815260206004820152601660248201527526bab9ba10313290383937b837b9b2b21037bbb732b960511b60448201526064016107e2565b600280546001600160a01b0319808216339081179093556003805490911690556040516001600160a01b03909116919082907f8be0079c531659141344cd1fd0a4f28419497f9722a3daafe3b4186f6b6457e090600090a350565b610f646116bb565b336000818152607960205260409020805460ff1916600117905560008281526077602052604090205460ff1615610fde57604051632f40bf3560e01b815260206004820152601760248201527f436f6d6d69746d656e7420616c7265616479207573656400000000000000000060448201526064016107e2565b6000610fe983611715565b60008481526077602052604090819020805460ff19166001179055519091507fb78452bc487dc90d6a0a567cf87858dae69e144c5f299a43ed6964629c219e2a90611046908590849091825263ffffffff16602082015260400190565b60405180910390a1505061105a6001606c55565b50565b60075460009060089063ffffffff166064811061107c5761107c612fc1565b0154905090565b60738054610b5090612de4565b600881606481106110a057600080fd5b0154905081565b815160208184018101805160788252928201918501919091209190528054829081106110d257600080fd5b90600052602060002001600091509150508054610b5090612de4565b6060607b80548060200260200160405190810160405280929190818152602001828054801561114657602002820191906000526020600020905b81546001600160a01b03168152600190910190602001808311611128575b5050505050905090565b6000805460408051636994548f60e11b815290516060936001600160a01b039093169263d328a91e9260048082019391829003018186803b15801561119457600080fd5b505afa1580156111a8573d6000803e3d6000fd5b505050506040513d6000823e601f3d908101601f191682016040526111d0919081019061300e565b905090565b600080546001600160a01b031663d227d245856111f188611977565b86866040518563ffffffff1660e01b8152600401611212949392919061307b565b60206040518083038186803b15801561122a57600080fd5b505afa15801561123e573d6000803e3d6000fd5b505050506040513d601f19601f8201168201806040525081019061126291906130b6565b90505b949350505050565b607a5460005b818110156112d3576078607a828154811061129057611290612fc1565b906000526020600020016040516112a791906130e4565b908152602001604051809103902060006112c1919061241d565b806112cb81613156565b915050611273565b5060005b607b5481101561134057600060796000607b84815481106112fa576112fa612fc1565b6000918252602080832091909101546001600160a01b031683528201929092526040019020805460ff19169115159190911790558061133881613156565b9150506112d7565b50611349611b93565b6040517f84b7226822737d667aa57d064ceffa18dbf761c762c54d5b119bfbc3275bf18a90600090a150565b606060788383604051611389929190613171565b9081526020016040518091039020805480602002602001604051908101604052809291908181526020016000905b828210156114635783829060005260206000200180546113d690612de4565b80601f016020809104026020016040519081016040528092919081815260200182805461140290612de4565b801561144f5780601f106114245761010080835404028352916020019161144f565b820191906000526020600020905b81548152906001019060200180831161143257829003601f168201915b5050505050815260200190600101906113b7565b50505050905092915050565b6006818154811061147f57600080fd5b600091825260209091200154905081565b6005818154811061147f57600080fd5b6114a8611d47565b61105a81611d9c565b60606114ed6040805160c08101909152806000815260200160008152602001600081526020016060815260200160608152602001606081525090565b6115346000808a8a8080601f01602080910402602001604051908101604052809392919081815260200183838082843760009201919091525087959493925050611e479050565b841561157c5761157c86868080601f0160208091040260200160405190810160405280939291908181526020018383808284376000920191909152508593925050611ec29050565b82156115965761159661158f8486613181565b8290611ef0565b61159f81611977565b98975050505050505050565b60748054610b5090612de4565b81516115cb906073906020850190612399565b5080516115df906074906020840190612399565b50827f7bab0ec163b5c132c72b8146ac4d6e067e82ed58f8b131150aa71c9258911562838360405161161292919061318e565b60405180910390a261162261126d565b60005b8251811015610728576000838060200190518101906116449190612eba565b6001600160a01b03166000818152607960205260408120805460ff19166001908117909155607b805491820181559091527f5569044719a1ec3b04d0afa9e7a5310c7c0473331d13dc9fafe143b2c4e8148a0180546001600160a01b031916909117905550806116b381613156565b915050611625565b6002606c54141561170e5760405162461bcd60e51b815260206004820152601f60248201527f5265656e7472616e637947756172643a207265656e7472616e742063616c6c0060448201526064016107e2565b6002606c55565b600754600090640100000000900463ffffffff166117547f00000000000000000000000000000000000000000000000000000000000000006002613297565b8163ffffffff16106117c15760405163d7e8473f60e01b815260206004820152602f60248201527f4d65726b6c6520747265652069732066756c6c2e204e6f206d6f7265206c656160448201526e199cc818d85b881899481859191959608a1b60648201526084016107e2565b6001600760048282829054906101000a900463ffffffff166117e391906132a9565b92506101000a81548163ffffffff021916908363ffffffff160217905550600083905060008060005b7f000000000000000000000000000000000000000000000000000000000000000063ffffffff168163ffffffff1610156118fe5761184b6002866132e7565b63ffffffff166118a95783925060068163ffffffff168154811061187157611871612fc1565b906000526020600020015491508360058263ffffffff168154811061189857611898612fc1565b6000918252602090912001556118d3565b60058163ffffffff16815481106118c2576118c2612fc1565b906000526020600020015492508391505b6118dd8383610775565b93506118ea60028661330a565b9450806118f68161332d565b91505061180c565b506007546064906119169063ffffffff1660016132a9565b61192091906132e7565b6007805463ffffffff191663ffffffff92909216918217905583906008906064811061194e5761194e612fc1565b015560075461196d90600190640100000000900463ffffffff16613351565b9695505050505050565b6060611996604051806040016040528060608152602001600081525090565b6119a281610100611f17565b5060408051808201909152600c81526b31b7b232a637b1b0ba34b7b760a11b60208201526119d1908290611f7c565b82516119ef9060018111156119e8576119e8613376565b8290611f98565b6040805180820190915260088152676c616e677561676560c01b6020820152611a19908290611f7c565b6040830151611a309080156119e8576119e8613376565b604080518082019091526006815265736f7572636560d01b6020820152611a58908290611f7c565b6060830151611a68908290611f7c565b60a08301515115611afe576040805180820190915260048152636172677360e01b6020820152611a99908290611f7c565b611aa281611fbd565b60005b8360a0015151811015611af457611ae28460a001518281518110611acb57611acb612fc1565b602002602001015183611f7c90919063ffffffff16565b80611aec81613156565b915050611aa5565b50611afe81611fc8565b60808301515115611b8c5760408051808201909152600f81526e39b2b1b932ba39a637b1b0ba34b7b760891b6020820152611b3a908290611f7c565b611b53836020015160018111156119e8576119e8613376565b6040805180820190915260078152667365637265747360c81b6020820152611b7c908290611f7c565b6080830151611b8c908290611fd3565b5192915050565b611b9f6005600061243b565b611bab6006600061243b565b6040805160008152602081019182905251611bc891600591612459565b506040805160008152602081019182905251611be691600691612459565b506007805467ffffffffffffffff191690556006805460018181019092557f2fe54c60d3acabf3343a35b6eba15db4821b340f76e741e2249685ed4899af6c7ff652222313e28459528d920b65115c16c04f3efc82aaedc97be59f3f377c0d3f9091018190556005805480840182556000919091527f036b6384b5eca791c62761152d0c79bb0604c104a5fb6f4eb0703f3154bb3db001819055905b7f000000000000000000000000000000000000000000000000000000000000000063ffffffff168163ffffffff161015611d3657611cc08283610775565b6006805460018181019092557ff652222313e28459528d920b65115c16c04f3efc82aaedc97be59f3f377c0d3f018290556005805491820181556000527f036b6384b5eca791c62761152d0c79bb0604c104a5fb6f4eb0703f3154bb3db001819055915080611d2e8161332d565b915050611c82565b50611d418182610775565b60085550565b6002546001600160a01b03163314611d9a5760405162461bcd60e51b815260206004820152601660248201527527b7363c9031b0b63630b1363290313c9037bbb732b960511b60448201526064016107e2565b565b6001600160a01b038116331415611df55760405162461bcd60e51b815260206004820152601760248201527f43616e6e6f74207472616e7366657220746f2073656c6600000000000000000060448201526064016107e2565b600380546001600160a01b0319166001600160a01b03838116918217909255600254604051919216907fed8889f560326eb138920d842192f0eb3dd22b4f139c87a2c57538e05bae127890600090a350565b8051611e66576040516322ce3edd60e01b815260040160405180910390fd5b83836001811115611e7957611e79613376565b90816001811115611e8c57611e8c613376565b90525060408401828015611ea257611ea2613376565b90818015611eb257611eb2613376565b9052506060909301929092525050565b8051611ee15760405163e889636f60e01b815260040160405180910390fd5b60016020830152608090910152565b8051611f0f5760405163fe936cb760e01b815260040160405180910390fd5b60a090910152565b604080518082019091526060815260006020820152611f3760208361338c565b15611f5f57611f4760208361338c565b611f52906020612ff7565b611f5c9083612dcc565b91505b506020828101829052604080518085526000815290920101905290565b611f898260038351611fdc565b611f9382826120e3565b505050565b6001600160401b03811115611fb1576107718282612111565b61077182600083611fdc565b61105a816004612148565b61105a816007612148565b611f8982600283515b6017816001600160401b031611612000576107288360e0600585901b168317612159565b60ff816001600160401b03161161203c57612026836018611fe0600586901b1617612159565b50610728836001600160401b038316600161217e565b61ffff816001600160401b03161161207957612063836019611fe0600586901b1617612159565b50610728836001600160401b038316600261217e565b63ffffffff816001600160401b0316116120b8576120a283601a611fe0600586901b1617612159565b50610728836001600160401b038316600461217e565b6120cd83601b611fe0600586901b1617612159565b50610728836001600160401b038316600861217e565b60408051808201909152606081526000602082015261210a838460000151518485516121a4565b9392505050565b61211c8260c2612159565b50610771828260405160200161213491815260200190565b604051602081830303815290604052611fd3565b611f9382601f611fe0600585901b16175b60408051808201909152606081526000602082015261210a838460000151518461228e565b6040805180820190915260608152600060208201526112658485600001515185856122ea565b60408051808201909152606081526000602082015282518211156121c757600080fd5b60208501516121d68386612dcc565b111561220957612209856121f9876020015187866121f49190612dcc565b61236b565b6122049060026133a0565b612382565b6000808651805187602083010193508088870111156122285787860182525b505050602084015b602084106122685780518252612247602083612dcc565b9150612254602082612dcc565b9050612261602085612ff7565b9350612230565b51815160001960208690036101000a019081169019919091161790525083949350505050565b604080518082019091526060815260006020820152836020015183106122c3576122c3848560200151600261220491906133a0565b8351805160208583010184815350808514156122e0576001810182525b5093949350505050565b604080518082019091526060815260006020820152602085015161230e8584612dcc565b111561232257612322856121f98685612dcc565b60006001612332846101006133bf565b61233c9190612ff7565b90508551838682010185831982511617815250805184870111156123605783860181525b509495945050505050565b60008183111561237c5750816108f9565b50919050565b815161238e8383611f17565b5061072883826120e3565b8280546123a590612de4565b90600052602060002090601f0160209004810192826123c7576000855561240d565b82601f106123e057805160ff191683800117855561240d565b8280016001018555821561240d579182015b8281111561240d5782518255916020019190600101906123f2565b50612419929150612493565b5090565b508054600082559060005260206000209081019061105a91906124a8565b508054600082559060005260206000209081019061105a9190612493565b82805482825590600052602060002090810192821561240d579160200282018281111561240d5782518255916020019190600101906123f2565b5b808211156124195760008155600101612494565b808211156124195760006124bc82826124c5565b506001016124a8565b5080546124d190612de4565b6000825580601f106124e1575050565b601f01602090049060005260206000209081019061105a9190612493565b634e487b7160e01b600052604160045260246000fd5b604051606081016001600160401b0381118282101715612537576125376124ff565b60405290565b60405160c081016001600160401b0381118282101715612537576125376124ff565b604080519081016001600160401b0381118282101715612537576125376124ff565b604051601f8201601f191681016001600160401b03811182821017156125a9576125a96124ff565b604052919050565b60006001600160401b038211156125ca576125ca6124ff565b50601f01601f191660200190565b600082601f8301126125e957600080fd5b81356125fc6125f7826125b1565b612581565b81815284602083860101111561261157600080fd5b816020850160208301376000918101602001919091529392505050565b60008060006060848603121561264357600080fd5b8335925060208401356001600160401b038082111561266157600080fd5b61266d878388016125d8565b9350604086013591508082111561268357600080fd5b50612690868287016125d8565b9150509250925092565b6000602082840312156126ac57600080fd5b81356001600160401b038111156126c257600080fd5b6108f5848285016125d8565b6000602082840312156126e057600080fd5b5035919050565b600080604083850312156126fa57600080fd5b50508035926020909101359150565b60008083601f84011261271b57600080fd5b5081356001600160401b0381111561273257600080fd5b60208301915083602082850101111561274a57600080fd5b9250929050565b6000806020838503121561276457600080fd5b82356001600160401b0381111561277a57600080fd5b61278685828601612709565b90969095509350505050565b60005b838110156127ad578181015183820152602001612795565b838111156107285750506000910152565b600081518084526127d6816020860160208601612792565b601f01601f19169290920160200192915050565b60208152600061210a60208301846127be565b600082601f83011261280e57600080fd5b61281661255f565b80604084018581111561282857600080fd5b845b8181101561284257803584526020938401930161282a565b509095945050505050565b600080600080600085870361018081121561286757600080fd5b86356001600160401b038082111561287e57600080fd5b61288a8a838b016125d8565b97506020915081890135818111156128a157600080fd5b6128ad8b828c016125d8565b97505050604088810135955060608901359450610100607f19840112156128d357600080fd5b6128db612515565b92506128ea8a60808b016127fd565b83528960df8a01126128fb57600080fd5b61290361255f565b806101408b018c81111561291657600080fd5b60c08c015b8181101561293a5761292d8e826127fd565b845292850192840161291b565b50818587015261294a8d826127fd565b848701525050505050809150509295509295909350565b821515815260406020820152600061126560408301846127be565b6000806040838503121561298f57600080fd5b82356001600160401b038111156129a557600080fd5b6129b1858286016125d8565b95602094909401359450505050565b6020808252825182820181905260009190848201906040850190845b81811015612a015783516001600160a01b0316835292840192918401916001016129dc565b50909695505050505050565b803560028110612a1c57600080fd5b919050565b803560018110612a1c57600080fd5b60006001600160401b0380841115612a4a57612a4a6124ff565b8360051b6020612a5b818301612581565b86815293509084019080840187831115612a7457600080fd5b855b83811015612aa857803585811115612a8e5760008081fd5b612a9a8a828a016125d8565b835250908201908201612a76565b50505050509392505050565b600082601f830112612ac557600080fd5b61210a83833560208501612a30565b80356001600160401b0381168114612a1c57600080fd5b803563ffffffff81168114612a1c57600080fd5b60008060008060808587031215612b1557600080fd5b84356001600160401b0380821115612b2c57600080fd5b9086019060c08289031215612b4057600080fd5b612b4861253d565b612b5183612a0d565b8152612b5f60208401612a0d565b6020820152612b7060408401612a21565b6040820152606083013582811115612b8757600080fd5b612b938a8286016125d8565b606083015250608083013582811115612bab57600080fd5b612bb78a8286016125d8565b60808301525060a083013582811115612bcf57600080fd5b612bdb8a828601612ab4565b60a0830152509550612bf291505060208601612ad4565b9250612c0060408601612aeb565b9396929550929360600135925050565b6000602080830181845280855180835260408601915060408160051b870101925083870160005b82811015612c6557603f19888603018452612c538583516127be565b94509285019290850190600101612c37565b5092979650505050505050565b6001600160a01b038116811461105a57600080fd5b600060208284031215612c9957600080fd5b813561210a81612c72565b60008060008060008060608789031215612cbd57600080fd5b86356001600160401b0380821115612cd457600080fd5b612ce08a838b01612709565b90985096506020890135915080821115612cf957600080fd5b612d058a838b01612709565b90965094506040890135915080821115612d1e57600080fd5b818901915089601f830112612d3257600080fd5b813581811115612d4157600080fd5b8a60208260051b8501011115612d5657600080fd5b6020830194508093505050509295509295509295565b60408101818360005b6002811015612d94578151835260209283019290910190600101612d75565b50505092915050565b600060208284031215612daf57600080fd5b5051919050565b634e487b7160e01b600052601160045260246000fd5b60008219821115612ddf57612ddf612db6565b500190565b600181811c90821680612df857607f821691505b6020821081141561237c57634e487b7160e01b600052602260045260246000fd5b6001600160401b03841681526000602060608184015260008554612e3c81612de4565b8060608701526080600180841660008114612e5e5760018114612e7257612ea0565b60ff1985168984015260a089019550612ea0565b8a6000528660002060005b85811015612e985781548b8201860152908301908801612e7d565b8a0184019650505b5050505063ffffffff861660408601525091506112659050565b600060208284031215612ecc57600080fd5b815161210a81612c72565b8060005b6002811015610728578151845260209384019390910190600101612edb565b6101408101612f098287612ed7565b60408083018660005b6002811015612f3957612f26838351612ed7565b9183019160209190910190600101612f12565b50505050612f4a60c0830185612ed7565b612f58610100830184612ed7565b95945050505050565b600060208284031215612f7357600080fd5b8151801515811461210a57600080fd5b60008251612f95818460208701612792565b9190910192915050565b604081526000612fb260408301856127be565b90508260208301529392505050565b634e487b7160e01b600052603260045260246000fd5b600063ffffffff821680612fed57612fed612db6565b6000190192915050565b60008282101561300957613009612db6565b500390565b60006020828403121561302057600080fd5b81516001600160401b0381111561303657600080fd5b8201601f8101841361304757600080fd5b80516130556125f7826125b1565b81815285602083850101111561306a57600080fd5b612f58826020830160208601612792565b6001600160401b038516815260806020820152600061309d60808301866127be565b63ffffffff949094166040830152506060015292915050565b6000602082840312156130c857600080fd5b81516bffffffffffffffffffffffff8116811461210a57600080fd5b60008083546130f281612de4565b6001828116801561310a576001811461311b5761314a565b60ff1984168752828701945061314a565b8760005260208060002060005b858110156131415781548a820152908401908201613128565b50505082870194505b50929695505050505050565b600060001982141561316a5761316a612db6565b5060010190565b8183823760009101908152919050565b600061210a368484612a30565b6040815260006131a160408301856127be565b8281036020840152612f5881856127be565b600181815b808511156131ee5781600019048211156131d4576131d4612db6565b808516156131e157918102915b93841c93908002906131b8565b509250929050565b600082613205575060016108f9565b81613212575060006108f9565b816001811461322857600281146132325761324e565b60019150506108f9565b60ff84111561324357613243612db6565b50506001821b6108f9565b5060208310610133831016604e8410600b8410161715613271575081810a6108f9565b61327b83836131b3565b806000190482111561328f5761328f612db6565b029392505050565b600061210a63ffffffff8416836131f6565b600063ffffffff8083168185168083038211156132c8576132c8612db6565b01949350505050565b634e487b7160e01b600052601260045260246000fd5b600063ffffffff808416806132fe576132fe6132d1565b92169190910692915050565b600063ffffffff80841680613321576133216132d1565b92169190910492915050565b600063ffffffff8083168181141561334757613347612db6565b6001019392505050565b600063ffffffff8381169083168181101561336e5761336e612db6565b039392505050565b634e487b7160e01b600052602160045260246000fd5b60008261339b5761339b6132d1565b500690565b60008160001904831182151516156133ba576133ba612db6565b500290565b600061210a83836131f656fea2646970667358221220bb2d307dd7a24ee27bf05409b78540023a216d30d92b213ebf6747817551c0e864736f6c63430008090033036b6384b5eca791c62761152d0c79bb0604c104a5fb6f4eb0703f3154bb3db0f652222313e28459528d920b65115c16c04f3efc82aaedc97be59f3f377c0d3f",
  "linkReferences": {},
  "deployedLinkReferences": {}
}