{"contracts/Verifier.sol":{"Verifier":{"abi":[{"inputs":[{"internalType":"uint256[2]","name":"a","type":"uint256[2]"},{"internalType":"uint256[2][2]","name":"b","type":"uint256[2][2]"},{"internalType":"uint256[2]","name":"c","type":"uint256[2]"},{"internalType":"uint256[2]","name":"input","type":"uint256[2]"}],"name":"verifyProof","outputs":[{"internalType":"bool","name":"r","type":"bool"}],"stateMutability":"view","type":"function"}],"evm":{"bytecode":{"linkReferences":{},"object":"608060405234801561001057600080fd5b50611191806100206000396000f3fe608060405234801561001057600080fd5b506004361061002b5760003560e01c8063f5c9d69e14610030575b600080fd5b61004361003e366004611004565b610057565b604051901515815260200160405180910390f35b6000610061610e2d565b60408051808201825287518152602080890151818301529083528151608081018352875151818401908152885183015160608084019190915290825283518085018552898401805151825251840151818501528284015284830191909152825180840184528751815287830151818401528484015282516002808252918101845260009390928301908036833701905050905060005b600281101561014657848160028110610112576101126110a4565b6020020151828281518110610129576101296110a4565b60209081029190910101528061013e816110d0565b9150506100f7565b50610151818361016f565b61016057600192505050610167565b6000925050505b949350505050565b60007f30644e72e131a029b85045b68181585d2833e84879b9709143e1f593f00000018161019b610366565b9050806080015151855160016101b191906110eb565b146101f85760405162461bcd60e51b81526020600482015260126024820152711d995c9a599a595c8b5898590b5a5b9c1d5d60721b60448201526064015b60405180910390fd5b604080518082019091526000808252602082018190525b86518110156102e9578387828151811061022b5761022b6110a4565b6020026020010151106102805760405162461bcd60e51b815260206004820152601f60248201527f76657269666965722d6774652d736e61726b2d7363616c61722d6669656c640060448201526064016101ef565b6102d5826102d0856080015184600161029991906110eb565b815181106102a9576102a96110a4565b60200260200101518a85815181106102c3576102c36110a4565b6020026020010151610778565b610814565b9150806102e1816110d0565b91505061020f565b50610312818360800151600081518110610305576103056110a4565b6020026020010151610814565b905061034861032486600001516108ac565b8660200151846000015185602001518587604001518b60400151896060015161094b565b6103585760019350505050610360565b600093505050505b92915050565b61036e610e7e565b6040805180820182527f08dd4b1d0ef1a6b3d9958b0df4a60a36d7b62c4ec050686ed3b0130a07cac2db81527f0aa732e29b4f34ac9ee4d3b4c1cf8a787ee5c489e95f7e44e3861bce8995c07c6020808301919091529083528151608080820184527f0a086123f21bf66dc09ca7bc784d6f6969969da2d045bce4e59016aa3f510fca8285019081527e491a7d8ee51dc1c807b1cca012f297b735954aa15ad15c29923f90e2481bb8606080850191909152908352845180860186527f1a404a15bd039ad42455ed063ee77365b03e5ef18828e62caefcd06301261e5d81527f252a9dcbbd0aeeb1c6c6d484ecfeca747ad76828d05b83aa8fcc16b44080acba818601528385015285840192909252835180820185527f198e9393920d483a7260bfb731fb5d25f1aa493335a9e71297e485b7aef312c28186019081527f1800deef121f1e76426a00665e5c4479674322d4f75edadd46debd5cd992f6ed828501528152845180860186527f090689d0585ff075ec9e99ad690c3395bc4b313370b38ef355acdadcd122975b81527f12c85ea5db8c6deb4aab71808dcb408fe3d1e7690c43d37b4ce6cc0166fa7daa818601528185015285850152835180820185527f0c1b217b1423c0139071ee4a4230fd44e748a4b8384f6dec6fe3a633abdcfe718186019081527f1124b538d401c0340e5467b450b6dda8cdc524b0119776b01982950f8bf5b0c1828501528152845180860186527f0825ab5c7105077d8943345eab662d697b6b829ff1a7fcd42a7ae10e9472417781527f0cb90fa049690389dcd8a63bf25632700647f36f297b6637f74b29d62d47e3ac818601528185015291850191909152825160038082529181019093529082015b60408051808201909152600080825260208201528152602001906001900390816105e957505060808201908152604080518082019091527f14a23c42d63b2db2bdf70a28bd3d8f07b7e33140b12a83cef97bb4cf90c41b0281527f030dc7c8854f9ff9d8a22dda599e9b250e2db177500b3d483114e4331733d9db60208201529051805160009061067c5761067c6110a4565b602002602001018190525060405180604001604052807f29f137f94c4f676eb6f07fa4e8c9fdbb3f13ded4ee358453ff8ffb6b5c78159d81526020017f227546533f851a40a82a9a010317694a0065fde1230db81f711a396d15aa65dc81525081608001516001815181106106f3576106f36110a4565b602002602001018190525060405180604001604052807f2f60d9cc7208ccca1ac30f190414c890128d487e0390355ddcadd77eba19703681526020017f177ded9ce610039b071abfc9314ec61956d17dd5397765122f45f21b204e3e4c815250816080015160028151811061076a5761076a6110a4565b602002602001018190525090565b6040805180820190915260008082526020820152610794610ecf565b835181526020808501519082015260408101839052600060608360808460076107d05a03fa90508080156107c7576107c9565bfe5b508061080c5760405162461bcd60e51b81526020600482015260126024820152711c185a5c9a5b99cb5b5d5b0b59985a5b195960721b60448201526064016101ef565b505092915050565b6040805180820190915260008082526020820152610830610eed565b8351815260208085015181830152835160408301528301516060808301919091526000908360c08460066107d05a03fa90508080156107c757508061080c5760405162461bcd60e51b81526020600482015260126024820152711c185a5c9a5b99cb5859190b59985a5b195960721b60448201526064016101ef565b604080518082019091526000808252602082015281517f30644e72e131a029b85045b68181585d97816a916871ca8d3c208c16d87cfd47901580156108f357506020830151155b156109135750506040805180820190915260008082526020820152919050565b6040518060400160405280846000015181526020018285602001516109389190611103565b6109429084611125565b90529392505050565b60408051600480825260a08201909252600091829190816020015b604080518082019091526000808252602082015281526020019060019003908161096657505060408051600480825260a0820190925291925060009190602082015b6109b0610f0b565b8152602001906001900390816109a85790505090508a826000815181106109d9576109d96110a4565b602002602001018190525088826001815181106109f8576109f86110a4565b60200260200101819052508682600281518110610a1757610a176110a4565b60200260200101819052508482600381518110610a3657610a366110a4565b60200260200101819052508981600081518110610a5557610a556110a4565b60200260200101819052508781600181518110610a7457610a746110a4565b60200260200101819052508581600281518110610a9357610a936110a4565b60200260200101819052508381600381518110610ab257610ab26110a4565b6020026020010181905250610ac78282610ad6565b9b9a5050505050505050505050565b60008151835114610b225760405162461bcd60e51b81526020600482015260166024820152751c185a5c9a5b99cb5b195b99dd1a1ccb59985a5b195960521b60448201526064016101ef565b82516000610b3182600661113c565b905060008167ffffffffffffffff811115610b4e57610b4e610f67565b604051908082528060200260200182016040528015610b77578160200160208202803683370190505b50905060005b83811015610db257868181518110610b9757610b976110a4565b60200260200101516000015182826006610bb1919061113c565b610bbc9060006110eb565b81518110610bcc57610bcc6110a4565b602002602001018181525050868181518110610bea57610bea6110a4565b60200260200101516020015182826006610c04919061113c565b610c0f9060016110eb565b81518110610c1f57610c1f6110a4565b602002602001018181525050858181518110610c3d57610c3d6110a4565b6020908102919091010151515182610c5683600661113c565b610c619060026110eb565b81518110610c7157610c716110a4565b602002602001018181525050858181518110610c8f57610c8f6110a4565b60209081029190910181015151015182610caa83600661113c565b610cb59060036110eb565b81518110610cc557610cc56110a4565b602002602001018181525050858181518110610ce357610ce36110a4565b602002602001015160200151600060028110610d0157610d016110a4565b602002015182610d1283600661113c565b610d1d9060046110eb565b81518110610d2d57610d2d6110a4565b602002602001018181525050858181518110610d4b57610d4b6110a4565b602002602001015160200151600160028110610d6957610d696110a4565b602002015182610d7a83600661113c565b610d859060056110eb565b81518110610d9557610d956110a4565b602090810291909101015280610daa816110d0565b915050610b7d565b50610dbb610f2b565b6000602082602086026020860160086107d05a03fa90508080156107c7575080610e1f5760405162461bcd60e51b81526020600482015260156024820152741c185a5c9a5b99cb5bdc18dbd9194b59985a5b1959605a1b60448201526064016101ef565b505115159695505050505050565b6040805160a081019091526000606082018181526080830191909152815260208101610e57610f0b565b8152602001610e79604051806040016040528060008152602001600081525090565b905290565b6040805160e08101909152600060a0820181815260c0830191909152815260208101610ea8610f0b565b8152602001610eb5610f0b565b8152602001610ec2610f0b565b8152602001606081525090565b60405180606001604052806003906020820280368337509192915050565b60405180608001604052806004906020820280368337509192915050565b6040518060400160405280610f1e610f49565b8152602001610e79610f49565b60405180602001604052806001906020820280368337509192915050565b60405180604001604052806002906020820280368337509192915050565b634e487b7160e01b600052604160045260246000fd5b6040805190810167ffffffffffffffff81118282101715610fae57634e487b7160e01b600052604160045260246000fd5b60405290565b600082601f830112610fc557600080fd5b610fcd610f7d565b806040840185811115610fdf57600080fd5b845b81811015610ff9578035845260209384019301610fe1565b509095945050505050565b600080600080610140858703121561101b57600080fd5b6110258686610fb4565b9350604086605f87011261103857600080fd5b611040610f7d565b8060c088018981111561105257600080fd5b8389015b81811015611077576110688b82610fb4565b84526020909301928401611056565b508196506110858a82610fb4565b955050505050611099866101008701610fb4565b905092959194509250565b634e487b7160e01b600052603260045260246000fd5b634e487b7160e01b600052601160045260246000fd5b60006000198214156110e4576110e46110ba565b5060010190565b600082198211156110fe576110fe6110ba565b500190565b60008261112057634e487b7160e01b600052601260045260246000fd5b500690565b600082821015611137576111376110ba565b500390565b6000816000190483118215151615611156576111566110ba565b50029056fea26469706673582212201f0801cd7cff74e81ac959ab05bedaa0671ce43ce3c6adec62a5375b5596398464736f6c63430008090033","opcodes":"PUSH1 0x80 PUSH1 0x40 MSTORE CALLVALUE DUP1 ISZERO PUSH2 0x10 JUMPI PUSH1 0x0 DUP1 REVERT JUMPDEST POP PUSH2 0x1191 DUP1 PUSH2 0x20 PUSH1 0x0 CODECOPY PUSH1 0x0 RETURN INVALID PUSH1 0x80 PUSH1 0x40 MSTORE CALLVALUE DUP1 ISZERO PUSH2 0x10 JUMPI PUSH1 0x0 DUP1 REVERT JUMPDEST POP PUSH1 0x4 CALLDATASIZE LT PUSH2 0x2B JUMPI PUSH1 0x0 CALLDATALOAD PUSH1 0xE0 SHR DUP1 PUSH4 0xF5C9D69E EQ PUSH2 0x30 JUMPI JUMPDEST PUSH1 0x0 DUP1 REVERT JUMPDEST PUSH2 0x43 PUSH2 0x3E CALLDATASIZE PUSH1 0x4 PUSH2 0x1004 JUMP JUMPDEST PUSH2 0x57 JUMP JUMPDEST PUSH1 0x40 MLOAD SWAP1 ISZERO ISZERO DUP2 MSTORE PUSH1 0x20 ADD PUSH1 0x40 MLOAD DUP1 SWAP2 SUB SWAP1 RETURN JUMPDEST PUSH1 0x0 PUSH2 0x61 PUSH2 0xE2D JUMP JUMPDEST PUSH1 0x40 DUP1 MLOAD DUP1 DUP3 ADD DUP3 MSTORE DUP8 MLOAD DUP2 MSTORE PUSH1 0x20 DUP1 DUP10 ADD MLOAD DUP2 DUP4 ADD MSTORE SWAP1 DUP4 MSTORE DUP2 MLOAD PUSH1 0x80 DUP2 ADD DUP4 MSTORE DUP8 MLOAD MLOAD DUP2 DUP5 ADD SWAP1 DUP2 MSTORE DUP9 MLOAD DUP4 ADD MLOAD PUSH1 0x60 DUP1 DUP5 ADD SWAP2 SWAP1 SWAP2 MSTORE SWAP1 DUP3 MSTORE DUP4 MLOAD DUP1 DUP6 ADD DUP6 MSTORE DUP10 DUP5 ADD DUP1 MLOAD MLOAD DUP3 MSTORE MLOAD DUP5 ADD MLOAD DUP2 DUP6 ADD MSTORE DUP3 DUP5 ADD MSTORE DUP5 DUP4 ADD SWAP2 SWAP1 SWAP2 MSTORE DUP3 MLOAD DUP1 DUP5 ADD DUP5 MSTORE DUP8 MLOAD DUP2 MSTORE DUP8 DUP4 ADD MLOAD DUP2 DUP5 ADD MSTORE DUP5 DUP5 ADD MSTORE DUP3 MLOAD PUSH1 0x2 DUP1 DUP3 MSTORE SWAP2 DUP2 ADD DUP5 MSTORE PUSH1 0x0 SWAP4 SWAP1 SWAP3 DUP4 ADD SWAP1 DUP1 CALLDATASIZE DUP4 CALLDATACOPY ADD SWAP1 POP POP SWAP1 POP PUSH1 0x0 JUMPDEST PUSH1 0x2 DUP2 LT ISZERO PUSH2 0x146 JUMPI DUP5 DUP2 PUSH1 0x2 DUP2 LT PUSH2 0x112 JUMPI PUSH2 0x112 PUSH2 0x10A4 JUMP JUMPDEST PUSH1 0x20 MUL ADD MLOAD DUP3 DUP3 DUP2 MLOAD DUP2 LT PUSH2 0x129 JUMPI PUSH2 0x129 PUSH2 0x10A4 JUMP JUMPDEST PUSH1 0x20 SWAP1 DUP2 MUL SWAP2 SWAP1 SWAP2 ADD ADD MSTORE DUP1 PUSH2 0x13E DUP2 PUSH2 0x10D0 JUMP JUMPDEST SWAP2 POP POP PUSH2 0xF7 JUMP JUMPDEST POP PUSH2 0x151 DUP2 DUP4 PUSH2 0x16F JUMP JUMPDEST PUSH2 0x160 JUMPI PUSH1 0x1 SWAP3 POP POP POP PUSH2 0x167 JUMP JUMPDEST PUSH1 0x0 SWAP3 POP POP POP JUMPDEST SWAP5 SWAP4 POP POP POP POP JUMP JUMPDEST PUSH1 0x0 PUSH32 0x30644E72E131A029B85045B68181585D2833E84879B9709143E1F593F0000001 DUP2 PUSH2 0x19B PUSH2 0x366 JUMP JUMPDEST SWAP1 POP DUP1 PUSH1 0x80 ADD MLOAD MLOAD DUP6 MLOAD PUSH1 0x1 PUSH2 0x1B1 SWAP2 SWAP1 PUSH2 0x10EB JUMP JUMPDEST EQ PUSH2 0x1F8 JUMPI PUSH1 0x40 MLOAD PUSH3 0x461BCD PUSH1 0xE5 SHL DUP2 MSTORE PUSH1 0x20 PUSH1 0x4 DUP3 ADD MSTORE PUSH1 0x12 PUSH1 0x24 DUP3 ADD MSTORE PUSH18 0x1D995C9A599A595C8B5898590B5A5B9C1D5D PUSH1 0x72 SHL PUSH1 0x44 DUP3 ADD MSTORE PUSH1 0x64 ADD JUMPDEST PUSH1 0x40 MLOAD DUP1 SWAP2 SUB SWAP1 REVERT JUMPDEST PUSH1 0x40 DUP1 MLOAD DUP1 DUP3 ADD SWAP1 SWAP2 MSTORE PUSH1 0x0 DUP1 DUP3 MSTORE PUSH1 0x20 DUP3 ADD DUP2 SWAP1 MSTORE JUMPDEST DUP7 MLOAD DUP2 LT ISZERO PUSH2 0x2E9 JUMPI DUP4 DUP8 DUP3 DUP2 MLOAD DUP2 LT PUSH2 0x22B JUMPI PUSH2 0x22B PUSH2 0x10A4 JUMP JUMPDEST PUSH1 0x20 MUL PUSH1 0x20 ADD ADD MLOAD LT PUSH2 0x280 JUMPI PUSH1 0x40 MLOAD PUSH3 0x461BCD PUSH1 0xE5 SHL DUP2 MSTORE PUSH1 0x20 PUSH1 0x4 DUP3 ADD MSTORE PUSH1 0x1F PUSH1 0x24 DUP3 ADD MSTORE PUSH32 0x76657269666965722D6774652D736E61726B2D7363616C61722D6669656C6400 PUSH1 0x44 DUP3 ADD MSTORE PUSH1 0x64 ADD PUSH2 0x1EF JUMP JUMPDEST PUSH2 0x2D5 DUP3 PUSH2 0x2D0 DUP6 PUSH1 0x80 ADD MLOAD DUP5 PUSH1 0x1 PUSH2 0x299 SWAP2 SWAP1 PUSH2 0x10EB JUMP JUMPDEST DUP2 MLOAD DUP2 LT PUSH2 0x2A9 JUMPI PUSH2 0x2A9 PUSH2 0x10A4 JUMP JUMPDEST PUSH1 0x20 MUL PUSH1 0x20 ADD ADD MLOAD DUP11 DUP6 DUP2 MLOAD DUP2 LT PUSH2 0x2C3 JUMPI PUSH2 0x2C3 PUSH2 0x10A4 JUMP JUMPDEST PUSH1 0x20 MUL PUSH1 0x20 ADD ADD MLOAD PUSH2 0x778 JUMP JUMPDEST PUSH2 0x814 JUMP JUMPDEST SWAP2 POP DUP1 PUSH2 0x2E1 DUP2 PUSH2 0x10D0 JUMP JUMPDEST SWAP2 POP POP PUSH2 0x20F JUMP JUMPDEST POP PUSH2 0x312 DUP2 DUP4 PUSH1 0x80 ADD MLOAD PUSH1 0x0 DUP2 MLOAD DUP2 LT PUSH2 0x305 JUMPI PUSH2 0x305 PUSH2 0x10A4 JUMP JUMPDEST PUSH1 0x20 MUL PUSH1 0x20 ADD ADD MLOAD PUSH2 0x814 JUMP JUMPDEST SWAP1 POP PUSH2 0x348 PUSH2 0x324 DUP7 PUSH1 0x0 ADD MLOAD PUSH2 0x8AC JUMP JUMPDEST DUP7 PUSH1 0x20 ADD MLOAD DUP5 PUSH1 0x0 ADD MLOAD DUP6 PUSH1 0x20 ADD MLOAD DUP6 DUP8 PUSH1 0x40 ADD MLOAD DUP12 PUSH1 0x40 ADD MLOAD DUP10 PUSH1 0x60 ADD MLOAD PUSH2 0x94B JUMP JUMPDEST PUSH2 0x358 JUMPI PUSH1 0x1 SWAP4 POP POP POP POP PUSH2 0x360 JUMP JUMPDEST PUSH1 0x0 SWAP4 POP POP POP POP JUMPDEST SWAP3 SWAP2 POP POP JUMP JUMPDEST PUSH2 0x36E PUSH2 0xE7E JUMP JUMPDEST PUSH1 0x40 DUP1 MLOAD DUP1 DUP3 ADD DUP3 MSTORE PUSH32 0x8DD4B1D0EF1A6B3D9958B0DF4A60A36D7B62C4EC050686ED3B0130A07CAC2DB DUP2 MSTORE PUSH32 0xAA732E29B4F34AC9EE4D3B4C1CF8A787EE5C489E95F7E44E3861BCE8995C07C PUSH1 0x20 DUP1 DUP4 ADD SWAP2 SWAP1 SWAP2 MSTORE SWAP1 DUP4 MSTORE DUP2 MLOAD PUSH1 0x80 DUP1 DUP3 ADD DUP5 MSTORE PUSH32 0xA086123F21BF66DC09CA7BC784D6F6969969DA2D045BCE4E59016AA3F510FCA DUP3 DUP6 ADD SWAP1 DUP2 MSTORE PUSH31 0x491A7D8EE51DC1C807B1CCA012F297B735954AA15AD15C29923F90E2481BB8 PUSH1 0x60 DUP1 DUP6 ADD SWAP2 SWAP1 SWAP2 MSTORE SWAP1 DUP4 MSTORE DUP5 MLOAD DUP1 DUP7 ADD DUP7 MSTORE PUSH32 0x1A404A15BD039AD42455ED063EE77365B03E5EF18828E62CAEFCD06301261E5D DUP2 MSTORE PUSH32 0x252A9DCBBD0AEEB1C6C6D484ECFECA747AD76828D05B83AA8FCC16B44080ACBA DUP2 DUP7 ADD MSTORE DUP4 DUP6 ADD MSTORE DUP6 DUP5 ADD SWAP3 SWAP1 SWAP3 MSTORE DUP4 MLOAD DUP1 DUP3 ADD DUP6 MSTORE PUSH32 0x198E9393920D483A7260BFB731FB5D25F1AA493335A9E71297E485B7AEF312C2 DUP2 DUP7 ADD SWAP1 DUP2 MSTORE PUSH32 0x1800DEEF121F1E76426A00665E5C4479674322D4F75EDADD46DEBD5CD992F6ED DUP3 DUP6 ADD MSTORE DUP2 MSTORE DUP5 MLOAD DUP1 DUP7 ADD DUP7 MSTORE PUSH32 0x90689D0585FF075EC9E99AD690C3395BC4B313370B38EF355ACDADCD122975B DUP2 MSTORE PUSH32 0x12C85EA5DB8C6DEB4AAB71808DCB408FE3D1E7690C43D37B4CE6CC0166FA7DAA DUP2 DUP7 ADD MSTORE DUP2 DUP6 ADD MSTORE DUP6 DUP6 ADD MSTORE DUP4 MLOAD DUP1 DUP3 ADD DUP6 MSTORE PUSH32 0xC1B217B1423C0139071EE4A4230FD44E748A4B8384F6DEC6FE3A633ABDCFE71 DUP2 DUP7 ADD SWAP1 DUP2 MSTORE PUSH32 0x1124B538D401C0340E5467B450B6DDA8CDC524B0119776B01982950F8BF5B0C1 DUP3 DUP6 ADD MSTORE DUP2 MSTORE DUP5 MLOAD DUP1 DUP7 ADD DUP7 MSTORE PUSH32 0x825AB5C7105077D8943345EAB662D697B6B829FF1A7FCD42A7AE10E94724177 DUP2 MSTORE PUSH32 0xCB90FA049690389DCD8A63BF25632700647F36F297B6637F74B29D62D47E3AC DUP2 DUP7 ADD MSTORE DUP2 DUP6 ADD MSTORE SWAP2 DUP6 ADD SWAP2 SWAP1 SWAP2 MSTORE DUP3 MLOAD PUSH1 0x3 DUP1 DUP3 MSTORE SWAP2 DUP2 ADD SWAP1 SWAP4 MSTORE SWAP1 DUP3 ADD JUMPDEST PUSH1 0x40 DUP1 MLOAD DUP1 DUP3 ADD SWAP1 SWAP2 MSTORE PUSH1 0x0 DUP1 DUP3 MSTORE PUSH1 0x20 DUP3 ADD MSTORE DUP2 MSTORE PUSH1 0x20 ADD SWAP1 PUSH1 0x1 SWAP1 SUB SWAP1 DUP2 PUSH2 0x5E9 JUMPI POP POP PUSH1 0x80 DUP3 ADD SWAP1 DUP2 MSTORE PUSH1 0x40 DUP1 MLOAD DUP1 DUP3 ADD SWAP1 SWAP2 MSTORE PUSH32 0x14A23C42D63B2DB2BDF70A28BD3D8F07B7E33140B12A83CEF97BB4CF90C41B02 DUP2 MSTORE PUSH32 0x30DC7C8854F9FF9D8A22DDA599E9B250E2DB177500B3D483114E4331733D9DB PUSH1 0x20 DUP3 ADD MSTORE SWAP1 MLOAD DUP1 MLOAD PUSH1 0x0 SWAP1 PUSH2 0x67C JUMPI PUSH2 0x67C PUSH2 0x10A4 JUMP JUMPDEST PUSH1 0x20 MUL PUSH1 0x20 ADD ADD DUP2 SWAP1 MSTORE POP PUSH1 0x40 MLOAD DUP1 PUSH1 0x40 ADD PUSH1 0x40 MSTORE DUP1 PUSH32 0x29F137F94C4F676EB6F07FA4E8C9FDBB3F13DED4EE358453FF8FFB6B5C78159D DUP2 MSTORE PUSH1 0x20 ADD PUSH32 0x227546533F851A40A82A9A010317694A0065FDE1230DB81F711A396D15AA65DC DUP2 MSTORE POP DUP2 PUSH1 0x80 ADD MLOAD PUSH1 0x1 DUP2 MLOAD DUP2 LT PUSH2 0x6F3 JUMPI PUSH2 0x6F3 PUSH2 0x10A4 JUMP JUMPDEST PUSH1 0x20 MUL PUSH1 0x20 ADD ADD DUP2 SWAP1 MSTORE POP PUSH1 0x40 MLOAD DUP1 PUSH1 0x40 ADD PUSH1 0x40 MSTORE DUP1 PUSH32 0x2F60D9CC7208CCCA1AC30F190414C890128D487E0390355DDCADD77EBA197036 DUP2 MSTORE PUSH1 0x20 ADD PUSH32 0x177DED9CE610039B071ABFC9314EC61956D17DD5397765122F45F21B204E3E4C DUP2 MSTORE POP DUP2 PUSH1 0x80 ADD MLOAD PUSH1 0x2 DUP2 MLOAD DUP2 LT PUSH2 0x76A JUMPI PUSH2 0x76A PUSH2 0x10A4 JUMP JUMPDEST PUSH1 0x20 MUL PUSH1 0x20 ADD ADD DUP2 SWAP1 MSTORE POP SWAP1 JUMP JUMPDEST PUSH1 0x40 DUP1 MLOAD DUP1 DUP3 ADD SWAP1 SWAP2 MSTORE PUSH1 0x0 DUP1 DUP3 MSTORE PUSH1 0x20 DUP3 ADD MSTORE PUSH2 0x794 PUSH2 0xECF JUMP JUMPDEST DUP4 MLOAD DUP2 MSTORE PUSH1 0x20 DUP1 DUP6 ADD MLOAD SWAP1 DUP3 ADD MSTORE PUSH1 0x40 DUP2 ADD DUP4 SWAP1 MSTORE PUSH1 0x0 PUSH1 0x60 DUP4 PUSH1 0x80 DUP5 PUSH1 0x7 PUSH2 0x7D0 GAS SUB STATICCALL SWAP1 POP DUP1 DUP1 ISZERO PUSH2 0x7C7 JUMPI PUSH2 0x7C9 JUMP JUMPDEST INVALID JUMPDEST POP DUP1 PUSH2 0x80C JUMPI PUSH1 0x40 MLOAD PUSH3 0x461BCD PUSH1 0xE5 SHL DUP2 MSTORE PUSH1 0x20 PUSH1 0x4 DUP3 ADD MSTORE PUSH1 0x12 PUSH1 0x24 DUP3 ADD MSTORE PUSH18 0x1C185A5C9A5B99CB5B5D5B0B59985A5B1959 PUSH1 0x72 SHL PUSH1 0x44 DUP3 ADD MSTORE PUSH1 0x64 ADD PUSH2 0x1EF JUMP JUMPDEST POP POP SWAP3 SWAP2 POP POP JUMP JUMPDEST PUSH1 0x40 DUP1 MLOAD DUP1 DUP3 ADD SWAP1 SWAP2 MSTORE PUSH1 0x0 DUP1 DUP3 MSTORE PUSH1 0x20 DUP3 ADD MSTORE PUSH2 0x830 PUSH2 0xEED JUMP JUMPDEST DUP4 MLOAD DUP2 MSTORE PUSH1 0x20 DUP1 DUP6 ADD MLOAD DUP2 DUP4 ADD MSTORE DUP4 MLOAD PUSH1 0x40 DUP4 ADD MSTORE DUP4 ADD MLOAD PUSH1 0x60 DUP1 DUP4 ADD SWAP2 SWAP1 SWAP2 MSTORE PUSH1 0x0 SWAP1 DUP4 PUSH1 0xC0 DUP5 PUSH1 0x6 PUSH2 0x7D0 GAS SUB STATICCALL SWAP1 POP DUP1 DUP1 ISZERO PUSH2 0x7C7 JUMPI POP DUP1 PUSH2 0x80C JUMPI PUSH1 0x40 MLOAD PUSH3 0x461BCD PUSH1 0xE5 SHL DUP2 MSTORE PUSH1 0x20 PUSH1 0x4 DUP3 ADD MSTORE PUSH1 0x12 PUSH1 0x24 DUP3 ADD MSTORE PUSH18 0x1C185A5C9A5B99CB5859190B59985A5B1959 PUSH1 0x72 SHL PUSH1 0x44 DUP3 ADD MSTORE PUSH1 0x64 ADD PUSH2 0x1EF JUMP JUMPDEST PUSH1 0x40 DUP1 MLOAD DUP1 DUP3 ADD SWAP1 SWAP2 MSTORE PUSH1 0x0 DUP1 DUP3 MSTORE PUSH1 0x20 DUP3 ADD MSTORE DUP2 MLOAD PUSH32 0x30644E72E131A029B85045B68181585D97816A916871CA8D3C208C16D87CFD47 SWAP1 ISZERO DUP1 ISZERO PUSH2 0x8F3 JUMPI POP PUSH1 0x20 DUP4 ADD MLOAD ISZERO JUMPDEST ISZERO PUSH2 0x913 JUMPI POP POP PUSH1 0x40 DUP1 MLOAD DUP1 DUP3 ADD SWAP1 SWAP2 MSTORE PUSH1 0x0 DUP1 DUP3 MSTORE PUSH1 0x20 DUP3 ADD MSTORE SWAP2 SWAP1 POP JUMP JUMPDEST PUSH1 0x40 MLOAD DUP1 PUSH1 0x40 ADD PUSH1 0x40 MSTORE DUP1 DUP5 PUSH1 0x0 ADD MLOAD DUP2 MSTORE PUSH1 0x20 ADD DUP3 DUP6 PUSH1 0x20 ADD MLOAD PUSH2 0x938 SWAP2 SWAP1 PUSH2 0x1103 JUMP JUMPDEST PUSH2 0x942 SWAP1 DUP5 PUSH2 0x1125 JUMP JUMPDEST SWAP1 MSTORE SWAP4 SWAP3 POP POP POP JUMP JUMPDEST PUSH1 0x40 DUP1 MLOAD PUSH1 0x4 DUP1 DUP3 MSTORE PUSH1 0xA0 DUP3 ADD SWAP1 SWAP3 MSTORE PUSH1 0x0 SWAP2 DUP3 SWAP2 SWAP1 DUP2 PUSH1 0x20 ADD JUMPDEST PUSH1 0x40 DUP1 MLOAD DUP1 DUP3 ADD SWAP1 SWAP2 MSTORE PUSH1 0x0 DUP1 DUP3 MSTORE PUSH1 0x20 DUP3 ADD MSTORE DUP2 MSTORE PUSH1 0x20 ADD SWAP1 PUSH1 0x1 SWAP1 SUB SWAP1 DUP2 PUSH2 0x966 JUMPI POP POP PUSH1 0x40 DUP1 MLOAD PUSH1 0x4 DUP1 DUP3 MSTORE PUSH1 0xA0 DUP3 ADD SWAP1 SWAP3 MSTORE SWAP2 SWAP3 POP PUSH1 0x0 SWAP2 SWAP1 PUSH1 0x20 DUP3 ADD JUMPDEST PUSH2 0x9B0 PUSH2 0xF0B JUMP JUMPDEST DUP2 MSTORE PUSH1 0x20 ADD SWAP1 PUSH1 0x1 SWAP1 SUB SWAP1 DUP2 PUSH2 0x9A8 JUMPI SWAP1 POP POP SWAP1 POP DUP11 DUP3 PUSH1 0x0 DUP2 MLOAD DUP2 LT PUSH2 0x9D9 JUMPI PUSH2 0x9D9 PUSH2 0x10A4 JUMP JUMPDEST PUSH1 0x20 MUL PUSH1 0x20 ADD ADD DUP2 SWAP1 MSTORE POP DUP9 DUP3 PUSH1 0x1 DUP2 MLOAD DUP2 LT PUSH2 0x9F8 JUMPI PUSH2 0x9F8 PUSH2 0x10A4 JUMP JUMPDEST PUSH1 0x20 MUL PUSH1 0x20 ADD ADD DUP2 SWAP1 MSTORE POP DUP7 DUP3 PUSH1 0x2 DUP2 MLOAD DUP2 LT PUSH2 0xA17 JUMPI PUSH2 0xA17 PUSH2 0x10A4 JUMP JUMPDEST PUSH1 0x20 MUL PUSH1 0x20 ADD ADD DUP2 SWAP1 MSTORE POP DUP5 DUP3 PUSH1 0x3 DUP2 MLOAD DUP2 LT PUSH2 0xA36 JUMPI PUSH2 0xA36 PUSH2 0x10A4 JUMP JUMPDEST PUSH1 0x20 MUL PUSH1 0x20 ADD ADD DUP2 SWAP1 MSTORE POP DUP10 DUP2 PUSH1 0x0 DUP2 MLOAD DUP2 LT PUSH2 0xA55 JUMPI PUSH2 0xA55 PUSH2 0x10A4 JUMP JUMPDEST PUSH1 0x20 MUL PUSH1 0x20 ADD ADD DUP2 SWAP1 MSTORE POP DUP8 DUP2 PUSH1 0x1 DUP2 MLOAD DUP2 LT PUSH2 0xA74 JUMPI PUSH2 0xA74 PUSH2 0x10A4 JUMP JUMPDEST PUSH1 0x20 MUL PUSH1 0x20 ADD ADD DUP2 SWAP1 MSTORE POP DUP6 DUP2 PUSH1 0x2 DUP2 MLOAD DUP2 LT PUSH2 0xA93 JUMPI PUSH2 0xA93 PUSH2 0x10A4 JUMP JUMPDEST PUSH1 0x20 MUL PUSH1 0x20 ADD ADD DUP2 SWAP1 MSTORE POP DUP4 DUP2 PUSH1 0x3 DUP2 MLOAD DUP2 LT PUSH2 0xAB2 JUMPI PUSH2 0xAB2 PUSH2 0x10A4 JUMP JUMPDEST PUSH1 0x20 MUL PUSH1 0x20 ADD ADD DUP2 SWAP1 MSTORE POP PUSH2 0xAC7 DUP3 DUP3 PUSH2 0xAD6 JUMP JUMPDEST SWAP12 SWAP11 POP POP POP POP POP POP POP POP POP POP POP JUMP JUMPDEST PUSH1 0x0 DUP2 MLOAD DUP4 MLOAD EQ PUSH2 0xB22 JUMPI PUSH1 0x40 MLOAD PUSH3 0x461BCD PUSH1 0xE5 SHL DUP2 MSTORE PUSH1 0x20 PUSH1 0x4 DUP3 ADD MSTORE PUSH1 0x16 PUSH1 0x24 DUP3 ADD MSTORE PUSH22 0x1C185A5C9A5B99CB5B195B99DD1A1CCB59985A5B1959 PUSH1 0x52 SHL PUSH1 0x44 DUP3 ADD MSTORE PUSH1 0x64 ADD PUSH2 0x1EF JUMP JUMPDEST DUP3 MLOAD PUSH1 0x0 PUSH2 0xB31 DUP3 PUSH1 0x6 PUSH2 0x113C JUMP JUMPDEST SWAP1 POP PUSH1 0x0 DUP2 PUSH8 0xFFFFFFFFFFFFFFFF DUP2 GT ISZERO PUSH2 0xB4E JUMPI PUSH2 0xB4E PUSH2 0xF67 JUMP JUMPDEST PUSH1 0x40 MLOAD SWAP1 DUP1 DUP3 MSTORE DUP1 PUSH1 0x20 MUL PUSH1 0x20 ADD DUP3 ADD PUSH1 0x40 MSTORE DUP1 ISZERO PUSH2 0xB77 JUMPI DUP2 PUSH1 0x20 ADD PUSH1 0x20 DUP3 MUL DUP1 CALLDATASIZE DUP4 CALLDATACOPY ADD SWAP1 POP JUMPDEST POP SWAP1 POP PUSH1 0x0 JUMPDEST DUP4 DUP2 LT ISZERO PUSH2 0xDB2 JUMPI DUP7 DUP2 DUP2 MLOAD DUP2 LT PUSH2 0xB97 JUMPI PUSH2 0xB97 PUSH2 0x10A4 JUMP JUMPDEST PUSH1 0x20 MUL PUSH1 0x20 ADD ADD MLOAD PUSH1 0x0 ADD MLOAD DUP3 DUP3 PUSH1 0x6 PUSH2 0xBB1 SWAP2 SWAP1 PUSH2 0x113C JUMP JUMPDEST PUSH2 0xBBC SWAP1 PUSH1 0x0 PUSH2 0x10EB JUMP JUMPDEST DUP2 MLOAD DUP2 LT PUSH2 0xBCC JUMPI PUSH2 0xBCC PUSH2 0x10A4 JUMP JUMPDEST PUSH1 0x20 MUL PUSH1 0x20 ADD ADD DUP2 DUP2 MSTORE POP POP DUP7 DUP2 DUP2 MLOAD DUP2 LT PUSH2 0xBEA JUMPI PUSH2 0xBEA PUSH2 0x10A4 JUMP JUMPDEST PUSH1 0x20 MUL PUSH1 0x20 ADD ADD MLOAD PUSH1 0x20 ADD MLOAD DUP3 DUP3 PUSH1 0x6 PUSH2 0xC04 SWAP2 SWAP1 PUSH2 0x113C JUMP JUMPDEST PUSH2 0xC0F SWAP1 PUSH1 0x1 PUSH2 0x10EB JUMP JUMPDEST DUP2 MLOAD DUP2 LT PUSH2 0xC1F JUMPI PUSH2 0xC1F PUSH2 0x10A4 JUMP JUMPDEST PUSH1 0x20 MUL PUSH1 0x20 ADD ADD DUP2 DUP2 MSTORE POP POP DUP6 DUP2 DUP2 MLOAD DUP2 LT PUSH2 0xC3D JUMPI PUSH2 0xC3D PUSH2 0x10A4 JUMP JUMPDEST PUSH1 0x20 SWAP1 DUP2 MUL SWAP2 SWAP1 SWAP2 ADD ADD MLOAD MLOAD MLOAD DUP3 PUSH2 0xC56 DUP4 PUSH1 0x6 PUSH2 0x113C JUMP JUMPDEST PUSH2 0xC61 SWAP1 PUSH1 0x2 PUSH2 0x10EB JUMP JUMPDEST DUP2 MLOAD DUP2 LT PUSH2 0xC71 JUMPI PUSH2 0xC71 PUSH2 0x10A4 JUMP JUMPDEST PUSH1 0x20 MUL PUSH1 0x20 ADD ADD DUP2 DUP2 MSTORE POP POP DUP6 DUP2 DUP2 MLOAD DUP2 LT PUSH2 0xC8F JUMPI PUSH2 0xC8F PUSH2 0x10A4 JUMP JUMPDEST PUSH1 0x20 SWAP1 DUP2 MUL SWAP2 SWAP1 SWAP2 ADD DUP2 ADD MLOAD MLOAD ADD MLOAD DUP3 PUSH2 0xCAA DUP4 PUSH1 0x6 PUSH2 0x113C JUMP JUMPDEST PUSH2 0xCB5 SWAP1 PUSH1 0x3 PUSH2 0x10EB JUMP JUMPDEST DUP2 MLOAD DUP2 LT PUSH2 0xCC5 JUMPI PUSH2 0xCC5 PUSH2 0x10A4 JUMP JUMPDEST PUSH1 0x20 MUL PUSH1 0x20 ADD ADD DUP2 DUP2 MSTORE POP POP DUP6 DUP2 DUP2 MLOAD DUP2 LT PUSH2 0xCE3 JUMPI PUSH2 0xCE3 PUSH2 0x10A4 JUMP JUMPDEST PUSH1 0x20 MUL PUSH1 0x20 ADD ADD MLOAD PUSH1 0x20 ADD MLOAD PUSH1 0x0 PUSH1 0x2 DUP2 LT PUSH2 0xD01 JUMPI PUSH2 0xD01 PUSH2 0x10A4 JUMP JUMPDEST PUSH1 0x20 MUL ADD MLOAD DUP3 PUSH2 0xD12 DUP4 PUSH1 0x6 PUSH2 0x113C JUMP JUMPDEST PUSH2 0xD1D SWAP1 PUSH1 0x4 PUSH2 0x10EB JUMP JUMPDEST DUP2 MLOAD DUP2 LT PUSH2 0xD2D JUMPI PUSH2 0xD2D PUSH2 0x10A4 JUMP JUMPDEST PUSH1 0x20 MUL PUSH1 0x20 ADD ADD DUP2 DUP2 MSTORE POP POP DUP6 DUP2 DUP2 MLOAD DUP2 LT PUSH2 0xD4B JUMPI PUSH2 0xD4B PUSH2 0x10A4 JUMP JUMPDEST PUSH1 0x20 MUL PUSH1 0x20 ADD ADD MLOAD PUSH1 0x20 ADD MLOAD PUSH1 0x1 PUSH1 0x2 DUP2 LT PUSH2 0xD69 JUMPI PUSH2 0xD69 PUSH2 0x10A4 JUMP JUMPDEST PUSH1 0x20 MUL ADD MLOAD DUP3 PUSH2 0xD7A DUP4 PUSH1 0x6 PUSH2 0x113C JUMP JUMPDEST PUSH2 0xD85 SWAP1 PUSH1 0x5 PUSH2 0x10EB JUMP JUMPDEST DUP2 MLOAD DUP2 LT PUSH2 0xD95 JUMPI PUSH2 0xD95 PUSH2 0x10A4 JUMP JUMPDEST PUSH1 0x20 SWAP1 DUP2 MUL SWAP2 SWAP1 SWAP2 ADD ADD MSTORE DUP1 PUSH2 0xDAA DUP2 PUSH2 0x10D0 JUMP JUMPDEST SWAP2 POP POP PUSH2 0xB7D JUMP JUMPDEST POP PUSH2 0xDBB PUSH2 0xF2B JUMP JUMPDEST PUSH1 0x0 PUSH1 0x20 DUP3 PUSH1 0x20 DUP7 MUL PUSH1 0x20 DUP7 ADD PUSH1 0x8 PUSH2 0x7D0 GAS SUB STATICCALL SWAP1 POP DUP1 DUP1 ISZERO PUSH2 0x7C7 JUMPI POP DUP1 PUSH2 0xE1F JUMPI PUSH1 0x40 MLOAD PUSH3 0x461BCD PUSH1 0xE5 SHL DUP2 MSTORE PUSH1 0x20 PUSH1 0x4 DUP3 ADD MSTORE PUSH1 0x15 PUSH1 0x24 DUP3 ADD MSTORE PUSH21 0x1C185A5C9A5B99CB5BDC18DBD9194B59985A5B1959 PUSH1 0x5A SHL PUSH1 0x44 DUP3 ADD MSTORE PUSH1 0x64 ADD PUSH2 0x1EF JUMP JUMPDEST POP MLOAD ISZERO ISZERO SWAP7 SWAP6 POP POP POP POP POP POP JUMP JUMPDEST PUSH1 0x40 DUP1 MLOAD PUSH1 0xA0 DUP2 ADD SWAP1 SWAP2 MSTORE PUSH1 0x0 PUSH1 0x60 DUP3 ADD DUP2 DUP2 MSTORE PUSH1 0x80 DUP4 ADD SWAP2 SWAP1 SWAP2 MSTORE DUP2 MSTORE PUSH1 0x20 DUP2 ADD PUSH2 0xE57 PUSH2 0xF0B JUMP JUMPDEST DUP2 MSTORE PUSH1 0x20 ADD PUSH2 0xE79 PUSH1 0x40 MLOAD DUP1 PUSH1 0x40 ADD PUSH1 0x40 MSTORE DUP1 PUSH1 0x0 DUP2 MSTORE PUSH1 0x20 ADD PUSH1 0x0 DUP2 MSTORE POP SWAP1 JUMP JUMPDEST SWAP1 MSTORE SWAP1 JUMP JUMPDEST PUSH1 0x40 DUP1 MLOAD PUSH1 0xE0 DUP2 ADD SWAP1 SWAP2 MSTORE PUSH1 0x0 PUSH1 0xA0 DUP3 ADD DUP2 DUP2 MSTORE PUSH1 0xC0 DUP4 ADD SWAP2 SWAP1 SWAP2 MSTORE DUP2 MSTORE PUSH1 0x20 DUP2 ADD PUSH2 0xEA8 PUSH2 0xF0B JUMP JUMPDEST DUP2 MSTORE PUSH1 0x20 ADD PUSH2 0xEB5 PUSH2 0xF0B JUMP JUMPDEST DUP2 MSTORE PUSH1 0x20 ADD PUSH2 0xEC2 PUSH2 0xF0B JUMP JUMPDEST DUP2 MSTORE PUSH1 0x20 ADD PUSH1 0x60 DUP2 MSTORE POP SWAP1 JUMP JUMPDEST PUSH1 0x40 MLOAD DUP1 PUSH1 0x60 ADD PUSH1 0x40 MSTORE DUP1 PUSH1 0x3 SWAP1 PUSH1 0x20 DUP3 MUL DUP1 CALLDATASIZE DUP4 CALLDATACOPY POP SWAP2 SWAP3 SWAP2 POP POP JUMP JUMPDEST PUSH1 0x40 MLOAD DUP1 PUSH1 0x80 ADD PUSH1 0x40 MSTORE DUP1 PUSH1 0x4 SWAP1 PUSH1 0x20 DUP3 MUL DUP1 CALLDATASIZE DUP4 CALLDATACOPY POP SWAP2 SWAP3 SWAP2 POP POP JUMP JUMPDEST PUSH1 0x40 MLOAD DUP1 PUSH1 0x40 ADD PUSH1 0x40 MSTORE DUP1 PUSH2 0xF1E PUSH2 0xF49 JUMP JUMPDEST DUP2 MSTORE PUSH1 0x20 ADD PUSH2 0xE79 PUSH2 0xF49 JUMP JUMPDEST PUSH1 0x40 MLOAD DUP1 PUSH1 0x20 ADD PUSH1 0x40 MSTORE DUP1 PUSH1 0x1 SWAP1 PUSH1 0x20 DUP3 MUL DUP1 CALLDATASIZE DUP4 CALLDATACOPY POP SWAP2 SWAP3 SWAP2 POP POP JUMP JUMPDEST PUSH1 0x40 MLOAD DUP1 PUSH1 0x40 ADD PUSH1 0x40 MSTORE DUP1 PUSH1 0x2 SWAP1 PUSH1 0x20 DUP3 MUL DUP1 CALLDATASIZE DUP4 CALLDATACOPY POP SWAP2 SWAP3 SWAP2 POP POP JUMP JUMPDEST PUSH4 0x4E487B71 PUSH1 0xE0 SHL PUSH1 0x0 MSTORE PUSH1 0x41 PUSH1 0x4 MSTORE PUSH1 0x24 PUSH1 0x0 REVERT JUMPDEST PUSH1 0x40 DUP1 MLOAD SWAP1 DUP2 ADD PUSH8 0xFFFFFFFFFFFFFFFF DUP2 GT DUP3 DUP3 LT OR ISZERO PUSH2 0xFAE JUMPI PUSH4 0x4E487B71 PUSH1 0xE0 SHL PUSH1 0x0 MSTORE PUSH1 0x41 PUSH1 0x4 MSTORE PUSH1 0x24 PUSH1 0x0 REVERT JUMPDEST PUSH1 0x40 MSTORE SWAP1 JUMP JUMPDEST PUSH1 0x0 DUP3 PUSH1 0x1F DUP4 ADD SLT PUSH2 0xFC5 JUMPI PUSH1 0x0 DUP1 REVERT JUMPDEST PUSH2 0xFCD PUSH2 0xF7D JUMP JUMPDEST DUP1 PUSH1 0x40 DUP5 ADD DUP6 DUP2 GT ISZERO PUSH2 0xFDF JUMPI PUSH1 0x0 DUP1 REVERT JUMPDEST DUP5 JUMPDEST DUP2 DUP2 LT ISZERO PUSH2 0xFF9 JUMPI DUP1 CALLDATALOAD DUP5 MSTORE PUSH1 0x20 SWAP4 DUP5 ADD SWAP4 ADD PUSH2 0xFE1 JUMP JUMPDEST POP SWAP1 SWAP6 SWAP5 POP POP POP POP POP JUMP JUMPDEST PUSH1 0x0 DUP1 PUSH1 0x0 DUP1 PUSH2 0x140 DUP6 DUP8 SUB SLT ISZERO PUSH2 0x101B JUMPI PUSH1 0x0 DUP1 REVERT JUMPDEST PUSH2 0x1025 DUP7 DUP7 PUSH2 0xFB4 JUMP JUMPDEST SWAP4 POP PUSH1 0x40 DUP7 PUSH1 0x5F DUP8 ADD SLT PUSH2 0x1038 JUMPI PUSH1 0x0 DUP1 REVERT JUMPDEST PUSH2 0x1040 PUSH2 0xF7D JUMP JUMPDEST DUP1 PUSH1 0xC0 DUP9 ADD DUP10 DUP2 GT ISZERO PUSH2 0x1052 JUMPI PUSH1 0x0 DUP1 REVERT JUMPDEST DUP4 DUP10 ADD JUMPDEST DUP2 DUP2 LT ISZERO PUSH2 0x1077 JUMPI PUSH2 0x1068 DUP12 DUP3 PUSH2 0xFB4 JUMP JUMPDEST DUP5 MSTORE PUSH1 0x20 SWAP1 SWAP4 ADD SWAP3 DUP5 ADD PUSH2 0x1056 JUMP JUMPDEST POP DUP2 SWAP7 POP PUSH2 0x1085 DUP11 DUP3 PUSH2 0xFB4 JUMP JUMPDEST SWAP6 POP POP POP POP POP PUSH2 0x1099 DUP7 PUSH2 0x100 DUP8 ADD PUSH2 0xFB4 JUMP JUMPDEST SWAP1 POP SWAP3 SWAP6 SWAP2 SWAP5 POP SWAP3 POP JUMP JUMPDEST PUSH4 0x4E487B71 PUSH1 0xE0 SHL PUSH1 0x0 MSTORE PUSH1 0x32 PUSH1 0x4 MSTORE PUSH1 0x24 PUSH1 0x0 REVERT JUMPDEST PUSH4 0x4E487B71 PUSH1 0xE0 SHL PUSH1 0x0 MSTORE PUSH1 0x11 PUSH1 0x4 MSTORE PUSH1 0x24 PUSH1 0x0 REVERT JUMPDEST PUSH1 0x0 PUSH1 0x0 NOT DUP3 EQ ISZERO PUSH2 0x10E4 JUMPI PUSH2 0x10E4 PUSH2 0x10BA JUMP JUMPDEST POP PUSH1 0x1 ADD SWAP1 JUMP JUMPDEST PUSH1 0x0 DUP3 NOT DUP3 GT ISZERO PUSH2 0x10FE JUMPI PUSH2 0x10FE PUSH2 0x10BA JUMP JUMPDEST POP ADD SWAP1 JUMP JUMPDEST PUSH1 0x0 DUP3 PUSH2 0x1120 JUMPI PUSH4 0x4E487B71 PUSH1 0xE0 SHL PUSH1 0x0 MSTORE PUSH1 0x12 PUSH1 0x4 MSTORE PUSH1 0x24 PUSH1 0x0 REVERT JUMPDEST POP MOD SWAP1 JUMP JUMPDEST PUSH1 0x0 DUP3 DUP3 LT ISZERO PUSH2 0x1137 JUMPI PUSH2 0x1137 PUSH2 0x10BA JUMP JUMPDEST POP SUB SWAP1 JUMP JUMPDEST PUSH1 0x0 DUP2 PUSH1 0x0 NOT DIV DUP4 GT DUP3 ISZERO ISZERO AND ISZERO PUSH2 0x1156 JUMPI PUSH2 0x1156 PUSH2 0x10BA JUMP JUMPDEST POP MUL SWAP1 JUMP INVALID LOG2 PUSH5 0x6970667358 0x22 SLT KECCAK256 0x1F ADDMOD ADD 0xCD PUSH29 0xFF74E81AC959AB05BEDAA0671CE43CE3C6ADEC62A5375B559639846473 PUSH16 0x6C634300080900330000000000000000 "},"methodIdentifiers":{"verifyProof(uint256[2],uint256[2][2],uint256[2],uint256[2])":"f5c9d69e"}}}}}