{"contracts/MerkleTree.sol":{"MerkleTree":{"abi":[{"inputs":[{"internalType":"uint32","name":"_treeLevels","type":"uint32"},{"internalType":"address","name":"_hasher","type":"address"}],"stateMutability":"nonpayable","type":"constructor"},{"inputs":[{"internalType":"string","name":"message","type":"string"}],"name":"MerkleTree__TreeLevelsOutOfRange","type":"error"},{"inputs":[],"name":"FIELD_SIZE","outputs":[{"internalType":"uint256","name":"","type":"uint256"}],"stateMutability":"view","type":"function"},{"inputs":[],"name":"ROOT_HISTORY_SIZE","outputs":[{"internalType":"uint32","name":"","type":"uint32"}],"stateMutability":"view","type":"function"},{"inputs":[],"name":"ZERO_VALUE","outputs":[{"internalType":"uint256","name":"","type":"uint256"}],"stateMutability":"view","type":"function"},{"inputs":[],"name":"currentRootIndex","outputs":[{"internalType":"uint32","name":"","type":"uint32"}],"stateMutability":"view","type":"function"},{"inputs":[{"internalType":"uint256","name":"","type":"uint256"}],"name":"filledSubtrees","outputs":[{"internalType":"bytes32","name":"","type":"bytes32"}],"stateMutability":"view","type":"function"},{"inputs":[],"name":"getLastRoot","outputs":[{"internalType":"bytes32","name":"","type":"bytes32"}],"stateMutability":"view","type":"function"},{"inputs":[{"internalType":"bytes32","name":"_left","type":"bytes32"},{"internalType":"bytes32","name":"_right","type":"bytes32"}],"name":"hashLeftRight","outputs":[{"internalType":"bytes32","name":"","type":"bytes32"}],"stateMutability":"view","type":"function"},{"inputs":[],"name":"hasher","outputs":[{"internalType":"contract IHasher","name":"","type":"address"}],"stateMutability":"view","type":"function"},{"inputs":[{"internalType":"bytes32","name":"_root","type":"bytes32"}],"name":"isKnownRoot","outputs":[{"internalType":"bool","name":"","type":"bool"}],"stateMutability":"view","type":"function"},{"inputs":[],"name":"levels","outputs":[{"internalType":"uint32","name":"","type":"uint32"}],"stateMutability":"view","type":"function"},{"inputs":[],"name":"nextIndex","outputs":[{"internalType":"uint32","name":"","type":"uint32"}],"stateMutability":"view","type":"function"},{"inputs":[{"internalType":"uint256","name":"","type":"uint256"}],"name":"roots","outputs":[{"internalType":"bytes32","name":"","type":"bytes32"}],"stateMutability":"view","type":"function"},{"inputs":[{"internalType":"uint256","name":"","type":"uint256"}],"name":"zeros","outputs":[{"internalType":"bytes32","name":"","type":"bytes32"}],"stateMutability":"view","type":"function"}],"evm":{"bytecode":{"linkReferences":{},"object":"60a0604052600380546001600160401b031916905534801561002057600080fd5b50604051610a1c380380610a1c83398101604081905261003f9161033f565b60208263ffffffff1611156100ab57604051632d5d403760e01b815260206004820152602660248201527f54726565206c6576656c732073686f756c64206265206265747765656e20302060448201526530b73210199960d11b60648201526084015b60405180910390fd5b600080546001600160a01b0319166001600160a01b03831617815563ffffffff83166080526002805460018181019092557f2fe54c60d3acabf3343a35b6eba15db4821b340f76e741e2249685ed4899af6c6000805160206109dc83398151915290910181905581548083018355928290526000805160206109fc8339815191529092018290555b8363ffffffff168163ffffffff1610156101a45761015182806101bb565b6002805460018181019092556000805160206109dc83398151915201829055805480820182556000919091526000805160206109fc8339815191520181905591508061019c8161038e565b915050610133565b506101af81806101bb565b6004555061040a915050565b60007f30644e72e131a029b85045b68181585d2833e84879b9709143e1f593f0000001831061022c5760405162461bcd60e51b815260206004820181905260248201527f5f6c6566742073686f756c6420626520696e7369646520746865206669656c6460448201526064016100a2565b7f30644e72e131a029b85045b68181585d2833e84879b9709143e1f593f000000182106102a55760405162461bcd60e51b815260206004820152602160248201527f5f72696768742073686f756c6420626520696e7369646520746865206669656c6044820152601960fa1b60648201526084016100a2565b60408051808201825284815260208101849052600054915163014cf2b360e51b815290916001600160a01b03169063299e5660906102e79084906004016103c0565b60206040518083038186803b1580156102ff57600080fd5b505afa158015610313573d6000803e3d6000fd5b505050506040513d601f19601f8201168201806040525081019061033791906103f1565b949350505050565b6000806040838503121561035257600080fd5b825163ffffffff8116811461036657600080fd5b60208401519092506001600160a01b038116811461038357600080fd5b809150509250929050565b600063ffffffff808316818114156103b657634e487b7160e01b600052601160045260246000fd5b6001019392505050565b60408101818360005b60028110156103e85781518352602092830192909101906001016103c9565b50505092915050565b60006020828403121561040357600080fd5b5051919050565b6080516105b7610425600039600061012601526105b76000f3fe608060405234801561001057600080fd5b50600436106100cf5760003560e01c8063c2b40ae41161008c578063ec73295911610066578063ec732959146101c6578063ed33639f146101ed578063f178e47c14610218578063fc7e9c6f1461022b57600080fd5b8063c2b40ae414610198578063cd87a3b4146101ab578063e8295588146101b357600080fd5b806338bf282e146100d4578063414a37ba146100fa5780634ecf518b146101215780636d9833e31461015d57806390eeb02b14610180578063ba70f75714610190575b600080fd5b6100e76100e23660046104b8565b610243565b6040519081526020015b60405180910390f35b6100e77f30644e72e131a029b85045b68181585d2833e84879b9709143e1f593f000000181565b6101487f000000000000000000000000000000000000000000000000000000000000000081565b60405163ffffffff90911681526020016100f1565b61017061016b3660046104da565b6103cc565b60405190151581526020016100f1565b6003546101489063ffffffff1681565b6100e761044a565b6100e76101a63660046104da565b610470565b610148606481565b6100e76101c13660046104da565b610487565b6100e77f2fe54c60d3acabf3343a35b6eba15db4821b340f76e741e2249685ed4899af6c81565b600054610200906001600160a01b031681565b6040516001600160a01b0390911681526020016100f1565b6100e76102263660046104da565b6104a8565b60035461014890640100000000900463ffffffff1681565b60007f30644e72e131a029b85045b68181585d2833e84879b9709143e1f593f000000183106102b95760405162461bcd60e51b815260206004820181905260248201527f5f6c6566742073686f756c6420626520696e7369646520746865206669656c6460448201526064015b60405180910390fd5b7f30644e72e131a029b85045b68181585d2833e84879b9709143e1f593f000000182106103325760405162461bcd60e51b815260206004820152602160248201527f5f72696768742073686f756c6420626520696e7369646520746865206669656c6044820152601960fa1b60648201526084016102b0565b60408051808201825284815260208101849052600054915163014cf2b360e51b815290916001600160a01b03169063299e5660906103749084906004016104f3565b60206040518083038186803b15801561038c57600080fd5b505afa1580156103a0573d6000803e3d6000fd5b505050506040513d601f19601f820116820180604052508101906103c49190610524565b949350505050565b6000816103db57506000919050565b60035463ffffffff165b60048163ffffffff16606481106103fe576103fe61053d565b01548314156104105750600192915050565b63ffffffff811661041f575060645b8061042981610553565b60035490925063ffffffff8084169116141590506103e55750600092915050565b60035460009060049063ffffffff16606481106104695761046961053d565b0154905090565b6004816064811061048057600080fd5b0154905081565b6002818154811061049757600080fd5b600091825260209091200154905081565b6001818154811061049757600080fd5b600080604083850312156104cb57600080fd5b50508035926020909101359150565b6000602082840312156104ec57600080fd5b5035919050565b60408101818360005b600281101561051b5781518352602092830192909101906001016104fc565b50505092915050565b60006020828403121561053657600080fd5b5051919050565b634e487b7160e01b600052603260045260246000fd5b600063ffffffff82168061057757634e487b7160e01b600052601160045260246000fd5b600019019291505056fea26469706673582212201dccb2bf4eb4ce6a762e0b36071dfbe6de06c7f28305cb28041a78e8158fdf8a64736f6c63430008090033405787fa12a823e0f2b7631cc41b3ba8828b3321ca811111fa75cd3aa3bb5aceb10e2d527612073b26eecdfd717e6a320cf44b4afac2b0732d9fcbe2b7fa0cf6","opcodes":"PUSH1 0xA0 PUSH1 0x40 MSTORE PUSH1 0x3 DUP1 SLOAD PUSH1 0x1 PUSH1 0x1 PUSH1 0x40 SHL SUB NOT AND SWAP1 SSTORE CALLVALUE DUP1 ISZERO PUSH2 0x20 JUMPI PUSH1 0x0 DUP1 REVERT JUMPDEST POP PUSH1 0x40 MLOAD PUSH2 0xA1C CODESIZE SUB DUP1 PUSH2 0xA1C DUP4 CODECOPY DUP2 ADD PUSH1 0x40 DUP2 SWAP1 MSTORE PUSH2 0x3F SWAP2 PUSH2 0x33F JUMP JUMPDEST PUSH1 0x20 DUP3 PUSH4 0xFFFFFFFF AND GT ISZERO PUSH2 0xAB JUMPI PUSH1 0x40 MLOAD PUSH4 0x2D5D4037 PUSH1 0xE0 SHL DUP2 MSTORE PUSH1 0x20 PUSH1 0x4 DUP3 ADD MSTORE PUSH1 0x26 PUSH1 0x24 DUP3 ADD MSTORE PUSH32 0x54726565206C6576656C732073686F756C64206265206265747765656E203020 PUSH1 0x44 DUP3 ADD MSTORE PUSH6 0x30B732101999 PUSH1 0xD1 SHL PUSH1 0x64 DUP3 ADD MSTORE PUSH1 0x84 ADD JUMPDEST PUSH1 0x40 MLOAD DUP1 SWAP2 SUB SWAP1 REVERT JUMPDEST PUSH1 0x0 DUP1 SLOAD PUSH1 0x1 PUSH1 0x1 PUSH1 0xA0 SHL SUB NOT AND PUSH1 0x1 PUSH1 0x1 PUSH1 0xA0 SHL SUB DUP4 AND OR DUP2 SSTORE PUSH4 0xFFFFFFFF DUP4 AND PUSH1 0x80 MSTORE PUSH1 0x2 DUP1 SLOAD PUSH1 0x1 DUP2 DUP2 ADD SWAP1 SWAP3 SSTORE PUSH32 0x2FE54C60D3ACABF3343A35B6EBA15DB4821B340F76E741E2249685ED4899AF6C PUSH1 0x0 DUP1 MLOAD PUSH1 0x20 PUSH2 0x9DC DUP4 CODECOPY DUP2 MLOAD SWAP2 MSTORE SWAP1 SWAP2 ADD DUP2 SWAP1 SSTORE DUP2 SLOAD DUP1 DUP4 ADD DUP4 SSTORE SWAP3 DUP3 SWAP1 MSTORE PUSH1 0x0 DUP1 MLOAD PUSH1 0x20 PUSH2 0x9FC DUP4 CODECOPY DUP2 MLOAD SWAP2 MSTORE SWAP1 SWAP3 ADD DUP3 SWAP1 SSTORE JUMPDEST DUP4 PUSH4 0xFFFFFFFF AND DUP2 PUSH4 0xFFFFFFFF AND LT ISZERO PUSH2 0x1A4 JUMPI PUSH2 0x151 DUP3 DUP1 PUSH2 0x1BB JUMP JUMPDEST PUSH1 0x2 DUP1 SLOAD PUSH1 0x1 DUP2 DUP2 ADD SWAP1 SWAP3 SSTORE PUSH1 0x0 DUP1 MLOAD PUSH1 0x20 PUSH2 0x9DC DUP4 CODECOPY DUP2 MLOAD SWAP2 MSTORE ADD DUP3 SWAP1 SSTORE DUP1 SLOAD DUP1 DUP3 ADD DUP3 SSTORE PUSH1 0x0 SWAP2 SWAP1 SWAP2 MSTORE PUSH1 0x0 DUP1 MLOAD PUSH1 0x20 PUSH2 0x9FC DUP4 CODECOPY DUP2 MLOAD SWAP2 MSTORE ADD DUP2 SWAP1 SSTORE SWAP2 POP DUP1 PUSH2 0x19C DUP2 PUSH2 0x38E JUMP JUMPDEST SWAP2 POP POP PUSH2 0x133 JUMP JUMPDEST POP PUSH2 0x1AF DUP2 DUP1 PUSH2 0x1BB JUMP JUMPDEST PUSH1 0x4 SSTORE POP PUSH2 0x40A SWAP2 POP POP JUMP JUMPDEST PUSH1 0x0 PUSH32 0x30644E72E131A029B85045B68181585D2833E84879B9709143E1F593F0000001 DUP4 LT PUSH2 0x22C JUMPI PUSH1 0x40 MLOAD PUSH3 0x461BCD PUSH1 0xE5 SHL DUP2 MSTORE PUSH1 0x20 PUSH1 0x4 DUP3 ADD DUP2 SWAP1 MSTORE PUSH1 0x24 DUP3 ADD MSTORE PUSH32 0x5F6C6566742073686F756C6420626520696E7369646520746865206669656C64 PUSH1 0x44 DUP3 ADD MSTORE PUSH1 0x64 ADD PUSH2 0xA2 JUMP JUMPDEST PUSH32 0x30644E72E131A029B85045B68181585D2833E84879B9709143E1F593F0000001 DUP3 LT PUSH2 0x2A5 JUMPI PUSH1 0x40 MLOAD PUSH3 0x461BCD PUSH1 0xE5 SHL DUP2 MSTORE PUSH1 0x20 PUSH1 0x4 DUP3 ADD MSTORE PUSH1 0x21 PUSH1 0x24 DUP3 ADD MSTORE PUSH32 0x5F72696768742073686F756C6420626520696E7369646520746865206669656C PUSH1 0x44 DUP3 ADD MSTORE PUSH1 0x19 PUSH1 0xFA SHL PUSH1 0x64 DUP3 ADD MSTORE PUSH1 0x84 ADD PUSH2 0xA2 JUMP JUMPDEST PUSH1 0x40 DUP1 MLOAD DUP1 DUP3 ADD DUP3 MSTORE DUP5 DUP2 MSTORE PUSH1 0x20 DUP2 ADD DUP5 SWAP1 MSTORE PUSH1 0x0 SLOAD SWAP2 MLOAD PUSH4 0x14CF2B3 PUSH1 0xE5 SHL DUP2 MSTORE SWAP1 SWAP2 PUSH1 0x1 PUSH1 0x1 PUSH1 0xA0 SHL SUB AND SWAP1 PUSH4 0x299E5660 SWAP1 PUSH2 0x2E7 SWAP1 DUP5 SWAP1 PUSH1 0x4 ADD PUSH2 0x3C0 JUMP JUMPDEST PUSH1 0x20 PUSH1 0x40 MLOAD DUP1 DUP4 SUB DUP2 DUP7 DUP1 EXTCODESIZE ISZERO DUP1 ISZERO PUSH2 0x2FF JUMPI PUSH1 0x0 DUP1 REVERT JUMPDEST POP GAS STATICCALL ISZERO DUP1 ISZERO PUSH2 0x313 JUMPI RETURNDATASIZE PUSH1 0x0 DUP1 RETURNDATACOPY RETURNDATASIZE PUSH1 0x0 REVERT JUMPDEST POP POP POP POP PUSH1 0x40 MLOAD RETURNDATASIZE PUSH1 0x1F NOT PUSH1 0x1F DUP3 ADD AND DUP3 ADD DUP1 PUSH1 0x40 MSTORE POP DUP2 ADD SWAP1 PUSH2 0x337 SWAP2 SWAP1 PUSH2 0x3F1 JUMP JUMPDEST SWAP5 SWAP4 POP POP POP POP JUMP JUMPDEST PUSH1 0x0 DUP1 PUSH1 0x40 DUP4 DUP6 SUB SLT ISZERO PUSH2 0x352 JUMPI PUSH1 0x0 DUP1 REVERT JUMPDEST DUP3 MLOAD PUSH4 0xFFFFFFFF DUP2 AND DUP2 EQ PUSH2 0x366 JUMPI PUSH1 0x0 DUP1 REVERT JUMPDEST PUSH1 0x20 DUP5 ADD MLOAD SWAP1 SWAP3 POP PUSH1 0x1 PUSH1 0x1 PUSH1 0xA0 SHL SUB DUP2 AND DUP2 EQ PUSH2 0x383 JUMPI PUSH1 0x0 DUP1 REVERT JUMPDEST DUP1 SWAP2 POP POP SWAP3 POP SWAP3 SWAP1 POP JUMP JUMPDEST PUSH1 0x0 PUSH4 0xFFFFFFFF DUP1 DUP4 AND DUP2 DUP2 EQ ISZERO PUSH2 0x3B6 JUMPI PUSH4 0x4E487B71 PUSH1 0xE0 SHL PUSH1 0x0 MSTORE PUSH1 0x11 PUSH1 0x4 MSTORE PUSH1 0x24 PUSH1 0x0 REVERT JUMPDEST PUSH1 0x1 ADD SWAP4 SWAP3 POP POP POP JUMP JUMPDEST PUSH1 0x40 DUP2 ADD DUP2 DUP4 PUSH1 0x0 JUMPDEST PUSH1 0x2 DUP2 LT ISZERO PUSH2 0x3E8 JUMPI DUP2 MLOAD DUP4 MSTORE PUSH1 0x20 SWAP3 DUP4 ADD SWAP3 SWAP1 SWAP2 ADD SWAP1 PUSH1 0x1 ADD PUSH2 0x3C9 JUMP JUMPDEST POP POP POP SWAP3 SWAP2 POP POP JUMP JUMPDEST PUSH1 0x0 PUSH1 0x20 DUP3 DUP5 SUB SLT ISZERO PUSH2 0x403 JUMPI PUSH1 0x0 DUP1 REVERT JUMPDEST POP MLOAD SWAP2 SWAP1 POP JUMP JUMPDEST PUSH1 0x80 MLOAD PUSH2 0x5B7 PUSH2 0x425 PUSH1 0x0 CODECOPY PUSH1 0x0 PUSH2 0x126 ADD MSTORE PUSH2 0x5B7 PUSH1 0x0 RETURN INVALID PUSH1 0x80 PUSH1 0x40 MSTORE CALLVALUE DUP1 ISZERO PUSH2 0x10 JUMPI PUSH1 0x0 DUP1 REVERT JUMPDEST POP PUSH1 0x4 CALLDATASIZE LT PUSH2 0xCF JUMPI PUSH1 0x0 CALLDATALOAD PUSH1 0xE0 SHR DUP1 PUSH4 0xC2B40AE4 GT PUSH2 0x8C JUMPI DUP1 PUSH4 0xEC732959 GT PUSH2 0x66 JUMPI DUP1 PUSH4 0xEC732959 EQ PUSH2 0x1C6 JUMPI DUP1 PUSH4 0xED33639F EQ PUSH2 0x1ED JUMPI DUP1 PUSH4 0xF178E47C EQ PUSH2 0x218 JUMPI DUP1 PUSH4 0xFC7E9C6F EQ PUSH2 0x22B JUMPI PUSH1 0x0 DUP1 REVERT JUMPDEST DUP1 PUSH4 0xC2B40AE4 EQ PUSH2 0x198 JUMPI DUP1 PUSH4 0xCD87A3B4 EQ PUSH2 0x1AB JUMPI DUP1 PUSH4 0xE8295588 EQ PUSH2 0x1B3 JUMPI PUSH1 0x0 DUP1 REVERT JUMPDEST DUP1 PUSH4 0x38BF282E EQ PUSH2 0xD4 JUMPI DUP1 PUSH4 0x414A37BA EQ PUSH2 0xFA JUMPI DUP1 PUSH4 0x4ECF518B EQ PUSH2 0x121 JUMPI DUP1 PUSH4 0x6D9833E3 EQ PUSH2 0x15D JUMPI DUP1 PUSH4 0x90EEB02B EQ PUSH2 0x180 JUMPI DUP1 PUSH4 0xBA70F757 EQ PUSH2 0x190 JUMPI JUMPDEST PUSH1 0x0 DUP1 REVERT JUMPDEST PUSH2 0xE7 PUSH2 0xE2 CALLDATASIZE PUSH1 0x4 PUSH2 0x4B8 JUMP JUMPDEST PUSH2 0x243 JUMP JUMPDEST PUSH1 0x40 MLOAD SWAP1 DUP2 MSTORE PUSH1 0x20 ADD JUMPDEST PUSH1 0x40 MLOAD DUP1 SWAP2 SUB SWAP1 RETURN JUMPDEST PUSH2 0xE7 PUSH32 0x30644E72E131A029B85045B68181585D2833E84879B9709143E1F593F0000001 DUP2 JUMP JUMPDEST PUSH2 0x148 PUSH32 0x0 DUP2 JUMP JUMPDEST PUSH1 0x40 MLOAD PUSH4 0xFFFFFFFF SWAP1 SWAP2 AND DUP2 MSTORE PUSH1 0x20 ADD PUSH2 0xF1 JUMP JUMPDEST PUSH2 0x170 PUSH2 0x16B CALLDATASIZE PUSH1 0x4 PUSH2 0x4DA JUMP JUMPDEST PUSH2 0x3CC JUMP JUMPDEST PUSH1 0x40 MLOAD SWAP1 ISZERO ISZERO DUP2 MSTORE PUSH1 0x20 ADD PUSH2 0xF1 JUMP JUMPDEST PUSH1 0x3 SLOAD PUSH2 0x148 SWAP1 PUSH4 0xFFFFFFFF AND DUP2 JUMP JUMPDEST PUSH2 0xE7 PUSH2 0x44A JUMP JUMPDEST PUSH2 0xE7 PUSH2 0x1A6 CALLDATASIZE PUSH1 0x4 PUSH2 0x4DA JUMP JUMPDEST PUSH2 0x470 JUMP JUMPDEST PUSH2 0x148 PUSH1 0x64 DUP2 JUMP JUMPDEST PUSH2 0xE7 PUSH2 0x1C1 CALLDATASIZE PUSH1 0x4 PUSH2 0x4DA JUMP JUMPDEST PUSH2 0x487 JUMP JUMPDEST PUSH2 0xE7 PUSH32 0x2FE54C60D3ACABF3343A35B6EBA15DB4821B340F76E741E2249685ED4899AF6C DUP2 JUMP JUMPDEST PUSH1 0x0 SLOAD PUSH2 0x200 SWAP1 PUSH1 0x1 PUSH1 0x1 PUSH1 0xA0 SHL SUB AND DUP2 JUMP JUMPDEST PUSH1 0x40 MLOAD PUSH1 0x1 PUSH1 0x1 PUSH1 0xA0 SHL SUB SWAP1 SWAP2 AND DUP2 MSTORE PUSH1 0x20 ADD PUSH2 0xF1 JUMP JUMPDEST PUSH2 0xE7 PUSH2 0x226 CALLDATASIZE PUSH1 0x4 PUSH2 0x4DA JUMP JUMPDEST PUSH2 0x4A8 JUMP JUMPDEST PUSH1 0x3 SLOAD PUSH2 0x148 SWAP1 PUSH5 0x100000000 SWAP1 DIV PUSH4 0xFFFFFFFF AND DUP2 JUMP JUMPDEST PUSH1 0x0 PUSH32 0x30644E72E131A029B85045B68181585D2833E84879B9709143E1F593F0000001 DUP4 LT PUSH2 0x2B9 JUMPI PUSH1 0x40 MLOAD PUSH3 0x461BCD PUSH1 0xE5 SHL DUP2 MSTORE PUSH1 0x20 PUSH1 0x4 DUP3 ADD DUP2 SWAP1 MSTORE PUSH1 0x24 DUP3 ADD MSTORE PUSH32 0x5F6C6566742073686F756C6420626520696E7369646520746865206669656C64 PUSH1 0x44 DUP3 ADD MSTORE PUSH1 0x64 ADD JUMPDEST PUSH1 0x40 MLOAD DUP1 SWAP2 SUB SWAP1 REVERT JUMPDEST PUSH32 0x30644E72E131A029B85045B68181585D2833E84879B9709143E1F593F0000001 DUP3 LT PUSH2 0x332 JUMPI PUSH1 0x40 MLOAD PUSH3 0x461BCD PUSH1 0xE5 SHL DUP2 MSTORE PUSH1 0x20 PUSH1 0x4 DUP3 ADD MSTORE PUSH1 0x21 PUSH1 0x24 DUP3 ADD MSTORE PUSH32 0x5F72696768742073686F756C6420626520696E7369646520746865206669656C PUSH1 0x44 DUP3 ADD MSTORE PUSH1 0x19 PUSH1 0xFA SHL PUSH1 0x64 DUP3 ADD MSTORE PUSH1 0x84 ADD PUSH2 0x2B0 JUMP JUMPDEST PUSH1 0x40 DUP1 MLOAD DUP1 DUP3 ADD DUP3 MSTORE DUP5 DUP2 MSTORE PUSH1 0x20 DUP2 ADD DUP5 SWAP1 MSTORE PUSH1 0x0 SLOAD SWAP2 MLOAD PUSH4 0x14CF2B3 PUSH1 0xE5 SHL DUP2 MSTORE SWAP1 SWAP2 PUSH1 0x1 PUSH1 0x1 PUSH1 0xA0 SHL SUB AND SWAP1 PUSH4 0x299E5660 SWAP1 PUSH2 0x374 SWAP1 DUP5 SWAP1 PUSH1 0x4 ADD PUSH2 0x4F3 JUMP JUMPDEST PUSH1 0x20 PUSH1 0x40 MLOAD DUP1 DUP4 SUB DUP2 DUP7 DUP1 EXTCODESIZE ISZERO DUP1 ISZERO PUSH2 0x38C JUMPI PUSH1 0x0 DUP1 REVERT JUMPDEST POP GAS STATICCALL ISZERO DUP1 ISZERO PUSH2 0x3A0 JUMPI RETURNDATASIZE PUSH1 0x0 DUP1 RETURNDATACOPY RETURNDATASIZE PUSH1 0x0 REVERT JUMPDEST POP POP POP POP PUSH1 0x40 MLOAD RETURNDATASIZE PUSH1 0x1F NOT PUSH1 0x1F DUP3 ADD AND DUP3 ADD DUP1 PUSH1 0x40 MSTORE POP DUP2 ADD SWAP1 PUSH2 0x3C4 SWAP2 SWAP1 PUSH2 0x524 JUMP JUMPDEST SWAP5 SWAP4 POP POP POP POP JUMP JUMPDEST PUSH1 0x0 DUP2 PUSH2 0x3DB JUMPI POP PUSH1 0x0 SWAP2 SWAP1 POP JUMP JUMPDEST PUSH1 0x3 SLOAD PUSH4 0xFFFFFFFF AND JUMPDEST PUSH1 0x4 DUP2 PUSH4 0xFFFFFFFF AND PUSH1 0x64 DUP2 LT PUSH2 0x3FE JUMPI PUSH2 0x3FE PUSH2 0x53D JUMP JUMPDEST ADD SLOAD DUP4 EQ ISZERO PUSH2 0x410 JUMPI POP PUSH1 0x1 SWAP3 SWAP2 POP POP JUMP JUMPDEST PUSH4 0xFFFFFFFF DUP2 AND PUSH2 0x41F JUMPI POP PUSH1 0x64 JUMPDEST DUP1 PUSH2 0x429 DUP2 PUSH2 0x553 JUMP JUMPDEST PUSH1 0x3 SLOAD SWAP1 SWAP3 POP PUSH4 0xFFFFFFFF DUP1 DUP5 AND SWAP2 AND EQ ISZERO SWAP1 POP PUSH2 0x3E5 JUMPI POP PUSH1 0x0 SWAP3 SWAP2 POP POP JUMP JUMPDEST PUSH1 0x3 SLOAD PUSH1 0x0 SWAP1 PUSH1 0x4 SWAP1 PUSH4 0xFFFFFFFF AND PUSH1 0x64 DUP2 LT PUSH2 0x469 JUMPI PUSH2 0x469 PUSH2 0x53D JUMP JUMPDEST ADD SLOAD SWAP1 POP SWAP1 JUMP JUMPDEST PUSH1 0x4 DUP2 PUSH1 0x64 DUP2 LT PUSH2 0x480 JUMPI PUSH1 0x0 DUP1 REVERT JUMPDEST ADD SLOAD SWAP1 POP DUP2 JUMP JUMPDEST PUSH1 0x2 DUP2 DUP2 SLOAD DUP2 LT PUSH2 0x497 JUMPI PUSH1 0x0 DUP1 REVERT JUMPDEST PUSH1 0x0 SWAP2 DUP3 MSTORE PUSH1 0x20 SWAP1 SWAP2 KECCAK256 ADD SLOAD SWAP1 POP DUP2 JUMP JUMPDEST PUSH1 0x1 DUP2 DUP2 SLOAD DUP2 LT PUSH2 0x497 JUMPI PUSH1 0x0 DUP1 REVERT JUMPDEST PUSH1 0x0 DUP1 PUSH1 0x40 DUP4 DUP6 SUB SLT ISZERO PUSH2 0x4CB JUMPI PUSH1 0x0 DUP1 REVERT JUMPDEST POP POP DUP1 CALLDATALOAD SWAP3 PUSH1 0x20 SWAP1 SWAP2 ADD CALLDATALOAD SWAP2 POP JUMP JUMPDEST PUSH1 0x0 PUSH1 0x20 DUP3 DUP5 SUB SLT ISZERO PUSH2 0x4EC JUMPI PUSH1 0x0 DUP1 REVERT JUMPDEST POP CALLDATALOAD SWAP2 SWAP1 POP JUMP JUMPDEST PUSH1 0x40 DUP2 ADD DUP2 DUP4 PUSH1 0x0 JUMPDEST PUSH1 0x2 DUP2 LT ISZERO PUSH2 0x51B JUMPI DUP2 MLOAD DUP4 MSTORE PUSH1 0x20 SWAP3 DUP4 ADD SWAP3 SWAP1 SWAP2 ADD SWAP1 PUSH1 0x1 ADD PUSH2 0x4FC JUMP JUMPDEST POP POP POP SWAP3 SWAP2 POP POP JUMP JUMPDEST PUSH1 0x0 PUSH1 0x20 DUP3 DUP5 SUB SLT ISZERO PUSH2 0x536 JUMPI PUSH1 0x0 DUP1 REVERT JUMPDEST POP MLOAD SWAP2 SWAP1 POP JUMP JUMPDEST PUSH4 0x4E487B71 PUSH1 0xE0 SHL PUSH1 0x0 MSTORE PUSH1 0x32 PUSH1 0x4 MSTORE PUSH1 0x24 PUSH1 0x0 REVERT JUMPDEST PUSH1 0x0 PUSH4 0xFFFFFFFF DUP3 AND DUP1 PUSH2 0x577 JUMPI PUSH4 0x4E487B71 PUSH1 0xE0 SHL PUSH1 0x0 MSTORE PUSH1 0x11 PUSH1 0x4 MSTORE PUSH1 0x24 PUSH1 0x0 REVERT JUMPDEST PUSH1 0x0 NOT ADD SWAP3 SWAP2 POP POP JUMP INVALID LOG2 PUSH5 0x6970667358 0x22 SLT KECCAK256 SAR 0xCC 0xB2 0xBF 0x4E 0xB4 0xCE PUSH11 0x762E0B36071DFBE6DE06C7 CALLCODE DUP4 SDIV 0xCB 0x28 DIV BYTE PUSH25 0xE8158FDF8A64736F6C63430008090033405787FA12A823E0F2 0xB7 PUSH4 0x1CC41B3B 0xA8 DUP3 DUP12 CALLER 0x21 0xCA DUP2 GT GT STATICCALL PUSH22 0xCD3AA3BB5ACEB10E2D527612073B26EECDFD717E6A32 0xC DELEGATECALL 0x4B 0x4A STATICCALL 0xC2 0xB0 PUSH20 0x2D9FCBE2B7FA0CF6000000000000000000000000 "},"methodIdentifiers":{"FIELD_SIZE()":"414a37ba","ROOT_HISTORY_SIZE()":"cd87a3b4","ZERO_VALUE()":"ec732959","currentRootIndex()":"90eeb02b","filledSubtrees(uint256)":"f178e47c","getLastRoot()":"ba70f757","hashLeftRight(bytes32,bytes32)":"38bf282e","hasher()":"ed33639f","isKnownRoot(bytes32)":"6d9833e3","levels()":"4ecf518b","nextIndex()":"fc7e9c6f","roots(uint256)":"c2b40ae4","zeros(uint256)":"e8295588"}}}}}