{"contracts/Sentiment.sol":{"Sentiment":{"abi":[{"inputs":[{"internalType":"address","name":"oracle","type":"address"},{"internalType":"contract IVerifier","name":"_verifier","type":"address"},{"internalType":"uint32","name":"_merkleTreeHeight","type":"uint32"},{"internalType":"address","name":"_hasher","type":"address"},{"internalType":"uint64","name":"_subscriptionId","type":"uint64"},{"internalType":"uint32","name":"_fulfillGasLimit","type":"uint32"},{"internalType":"address","name":"_emojiAddress","type":"address"},{"internalType":"uint256","name":"_totalEmojis","type":"uint256"}],"stateMutability":"nonpayable","type":"constructor"},{"inputs":[],"name":"EmptyArgs","type":"error"},{"inputs":[],"name":"EmptySecrets","type":"error"},{"inputs":[],"name":"EmptySource","type":"error"},{"inputs":[{"internalType":"string","name":"message","type":"string"}],"name":"MerkleTree__IsFull","type":"error"},{"inputs":[{"internalType":"string","name":"message","type":"string"}],"name":"MerkleTree__TreeLevelsOutOfRange","type":"error"},{"inputs":[],"name":"RequestIsAlreadyPending","type":"error"},{"inputs":[],"name":"RequestIsNotPending","type":"error"},{"inputs":[],"name":"SenderIsNotRegistry","type":"error"},{"inputs":[{"internalType":"string","name":"message","type":"string"}],"name":"Sentiment__CommitmentAlreadyUsed","type":"error"},{"inputs":[{"internalType":"string","name":"message","type":"string"}],"name":"Sentiment__InvalidProof","type":"error"},{"inputs":[{"internalType":"string","name":"message","type":"string"}],"name":"Sentiment__NullifierAlreadyUsed","type":"error"},{"inputs":[{"internalType":"string","name":"message","type":"string"}],"name":"Sentiment__RootNotKnown","type":"error"},{"anonymous":false,"inputs":[{"indexed":false,"internalType":"bytes32","name":"commitment","type":"bytes32"},{"indexed":false,"internalType":"uint32","name":"insertedIndex","type":"uint32"}],"name":"Inserted","type":"event"},{"anonymous":false,"inputs":[{"indexed":false,"internalType":"string","name":"message","type":"string"},{"indexed":false,"internalType":"bytes32","name":"nullifierHash","type":"bytes32"}],"name":"MessagePosted","type":"event"},{"anonymous":false,"inputs":[{"indexed":false,"internalType":"string","name":"name","type":"string"}],"name":"NameAdded","type":"event"},{"anonymous":false,"inputs":[{"indexed":true,"internalType":"bytes32","name":"requestId","type":"bytes32"},{"indexed":false,"internalType":"bytes","name":"result","type":"bytes"},{"indexed":false,"internalType":"bytes","name":"err","type":"bytes"}],"name":"OCRResponse","type":"event"},{"anonymous":false,"inputs":[{"indexed":true,"internalType":"address","name":"from","type":"address"},{"indexed":true,"internalType":"address","name":"to","type":"address"}],"name":"OwnershipTransferRequested","type":"event"},{"anonymous":false,"inputs":[{"indexed":true,"internalType":"address","name":"from","type":"address"},{"indexed":true,"internalType":"address","name":"to","type":"address"}],"name":"OwnershipTransferred","type":"event"},{"anonymous":false,"inputs":[{"indexed":true,"internalType":"bytes32","name":"id","type":"bytes32"}],"name":"RequestFulfilled","type":"event"},{"anonymous":false,"inputs":[{"indexed":true,"internalType":"bytes32","name":"id","type":"bytes32"}],"name":"RequestSent","type":"event"},{"anonymous":false,"inputs":[{"indexed":false,"internalType":"uint256","name":"time","type":"uint256"}],"name":"TreeCleared","type":"event"},{"inputs":[],"name":"FIELD_SIZE","outputs":[{"internalType":"uint256","name":"","type":"uint256"}],"stateMutability":"view","type":"function"},{"inputs":[],"name":"ROOT_HISTORY_SIZE","outputs":[{"internalType":"uint32","name":"","type":"uint32"}],"stateMutability":"view","type":"function"},{"inputs":[],"name":"ZERO_VALUE","outputs":[{"internalType":"uint256","name":"","type":"uint256"}],"stateMutability":"view","type":"function"},{"inputs":[],"name":"acceptOwnership","outputs":[],"stateMutability":"nonpayable","type":"function"},{"inputs":[],"name":"addEmoji","outputs":[],"stateMutability":"nonpayable","type":"function"},{"inputs":[{"internalType":"string","name":"_name","type":"string"}],"name":"addName","outputs":[],"stateMutability":"nonpayable","type":"function"},{"inputs":[{"internalType":"bytes32","name":"","type":"bytes32"}],"name":"commitments","outputs":[{"internalType":"bool","name":"","type":"bool"}],"stateMutability":"view","type":"function"},{"inputs":[],"name":"counter","outputs":[{"internalType":"uint256","name":"","type":"uint256"}],"stateMutability":"view","type":"function"},{"inputs":[],"name":"currentRootIndex","outputs":[{"internalType":"uint32","name":"","type":"uint32"}],"stateMutability":"view","type":"function"},{"inputs":[],"name":"emojiAddress","outputs":[{"internalType":"address","name":"","type":"address"}],"stateMutability":"view","type":"function"},{"inputs":[{"internalType":"string","name":"","type":"string"}],"name":"emojiStringToTokenId","outputs":[{"internalType":"uint256","name":"","type":"uint256"}],"stateMutability":"view","type":"function"},{"inputs":[{"components":[{"internalType":"enum Functions.Location","name":"codeLocation","type":"uint8"},{"internalType":"enum Functions.Location","name":"secretsLocation","type":"uint8"},{"internalType":"enum Functions.CodeLanguage","name":"language","type":"uint8"},{"internalType":"string","name":"source","type":"string"},{"internalType":"bytes","name":"secrets","type":"bytes"},{"internalType":"string[]","name":"args","type":"string[]"}],"internalType":"struct Functions.Request","name":"req","type":"tuple"},{"internalType":"uint64","name":"subscriptionId","type":"uint64"},{"internalType":"uint32","name":"gasLimit","type":"uint32"},{"internalType":"uint256","name":"gasPrice","type":"uint256"}],"name":"estimateCost","outputs":[{"internalType":"uint96","name":"","type":"uint96"}],"stateMutability":"view","type":"function"},{"inputs":[{"internalType":"string","name":"source","type":"string"},{"internalType":"bytes","name":"secrets","type":"bytes"},{"internalType":"string[]","name":"args","type":"string[]"},{"internalType":"uint64","name":"subscriptionId","type":"uint64"},{"internalType":"uint32","name":"gasLimit","type":"uint32"}],"name":"executeRequest","outputs":[{"internalType":"bytes32","name":"","type":"bytes32"}],"stateMutability":"nonpayable","type":"function"},{"inputs":[{"internalType":"uint256","name":"","type":"uint256"}],"name":"filledSubtrees","outputs":[{"internalType":"bytes32","name":"","type":"bytes32"}],"stateMutability":"view","type":"function"},{"inputs":[],"name":"getDONPublicKey","outputs":[{"internalType":"bytes","name":"","type":"bytes"}],"stateMutability":"view","type":"function"},{"inputs":[{"internalType":"string","name":"name","type":"string"}],"name":"getEmojiURI","outputs":[{"internalType":"string","name":"","type":"string"}],"stateMutability":"view","type":"function"},{"inputs":[],"name":"getLastRoot","outputs":[{"internalType":"bytes32","name":"","type":"bytes32"}],"stateMutability":"view","type":"function"},{"inputs":[{"internalType":"bytes32","name":"requestId","type":"bytes32"},{"internalType":"bytes","name":"response","type":"bytes"},{"internalType":"bytes","name":"err","type":"bytes"}],"name":"handleOracleFulfillment","outputs":[],"stateMutability":"nonpayable","type":"function"},{"inputs":[{"internalType":"bytes32","name":"_left","type":"bytes32"},{"internalType":"bytes32","name":"_right","type":"bytes32"}],"name":"hashLeftRight","outputs":[{"internalType":"bytes32","name":"","type":"bytes32"}],"stateMutability":"view","type":"function"},{"inputs":[],"name":"hasher","outputs":[{"internalType":"contract IHasher","name":"","type":"address"}],"stateMutability":"view","type":"function"},{"inputs":[{"internalType":"bytes32","name":"_commitment","type":"bytes32"},{"internalType":"string","name":"_name","type":"string"}],"name":"insertIntoTree","outputs":[],"stateMutability":"nonpayable","type":"function"},{"inputs":[{"internalType":"bytes32","name":"_root","type":"bytes32"}],"name":"isKnownRoot","outputs":[{"internalType":"bool","name":"","type":"bool"}],"stateMutability":"view","type":"function"},{"inputs":[{"internalType":"bytes32","name":"_nullifier","type":"bytes32"}],"name":"isNullifierUsed","outputs":[{"internalType":"bool","name":"","type":"bool"}],"stateMutability":"view","type":"function"},{"inputs":[],"name":"latestError","outputs":[{"internalType":"bytes","name":"","type":"bytes"}],"stateMutability":"view","type":"function"},{"inputs":[],"name":"latestRequestId","outputs":[{"internalType":"bytes32","name":"","type":"bytes32"}],"stateMutability":"view","type":"function"},{"inputs":[],"name":"latestResponse","outputs":[{"internalType":"bytes","name":"","type":"bytes"}],"stateMutability":"view","type":"function"},{"inputs":[],"name":"levels","outputs":[{"internalType":"uint32","name":"","type":"uint32"}],"stateMutability":"view","type":"function"},{"inputs":[{"internalType":"string","name":"","type":"string"}],"name":"nameExists","outputs":[{"internalType":"bool","name":"","type":"bool"}],"stateMutability":"view","type":"function"},{"inputs":[{"internalType":"string","name":"","type":"string"}],"name":"nameToEmojiString","outputs":[{"internalType":"string","name":"","type":"string"}],"stateMutability":"view","type":"function"},{"inputs":[{"internalType":"string","name":"","type":"string"}],"name":"nameToSentimentText","outputs":[{"internalType":"string","name":"","type":"string"}],"stateMutability":"view","type":"function"},{"inputs":[],"name":"nextIndex","outputs":[{"internalType":"uint32","name":"","type":"uint32"}],"stateMutability":"view","type":"function"},{"inputs":[{"internalType":"bytes32","name":"","type":"bytes32"}],"name":"nullifiers","outputs":[{"internalType":"bool","name":"","type":"bool"}],"stateMutability":"view","type":"function"},{"inputs":[],"name":"owner","outputs":[{"internalType":"address","name":"","type":"address"}],"stateMutability":"view","type":"function"},{"inputs":[{"internalType":"string","name":"name","type":"string"},{"internalType":"string","name":"_message","type":"string"},{"internalType":"bytes32","name":"_nullifierHash","type":"bytes32"},{"internalType":"bytes32","name":"_root","type":"bytes32"},{"components":[{"internalType":"uint256[2]","name":"a","type":"uint256[2]"},{"internalType":"uint256[2][2]","name":"b","type":"uint256[2][2]"},{"internalType":"uint256[2]","name":"c","type":"uint256[2]"}],"internalType":"struct Proof","name":"_proof","type":"tuple"}],"name":"postMessageWithProof","outputs":[],"stateMutability":"nonpayable","type":"function"},{"inputs":[],"name":"resetTree","outputs":[],"stateMutability":"nonpayable","type":"function"},{"inputs":[{"internalType":"uint256","name":"","type":"uint256"}],"name":"roots","outputs":[{"internalType":"bytes32","name":"","type":"bytes32"}],"stateMutability":"view","type":"function"},{"inputs":[{"internalType":"address","name":"to","type":"address"}],"name":"transferOwnership","outputs":[],"stateMutability":"nonpayable","type":"function"},{"inputs":[],"name":"verifier","outputs":[{"internalType":"contract IVerifier","name":"","type":"address"}],"stateMutability":"view","type":"function"},{"inputs":[{"internalType":"uint256","name":"","type":"uint256"}],"name":"zeros","outputs":[{"internalType":"bytes32","name":"","type":"bytes32"}],"stateMutability":"view","type":"function"}],"evm":{"bytecode":{"linkReferences":{},"object":"60c0604052600780546001600160401b03191690553480156200002157600080fd5b5060405162003d7f38038062003d7f8339810160408190526200004491620006ba565b600080546001600160a01b0319166001600160a01b038a1617815586908690339081906001600160a01b038216620000c35760405162461bcd60e51b815260206004820152601860248201527f43616e6e6f7420736574206f776e657220746f207a65726f000000000000000060448201526064015b60405180910390fd5b600280546001600160a01b0319166001600160a01b0384811691909117909155811615620000f657620000f681620002e7565b505050602063ffffffff831611156200016257604051632d5d403760e01b815260206004820152602660248201527f54726565206c6576656c732073686f756c64206265206265747765656e20302060448201526530b73210199960d11b6064820152608401620000ba565b600480546001600160a01b0319166001600160a01b03831617905563ffffffff82166080526006805460018181019092557f2fe54c60d3acabf3343a35b6eba15db4821b340f76e741e2249685ed4899af6c60008051602062003d5f83398151915290910181905560058054808401825560009190915260008051602062003d3f83398151915201819055905b8363ffffffff168163ffffffff161015620002675762000210828062000394565b60068054600181810190925560008051602062003d5f8339815191520182905560058054918201815560005260008051602062003d3f833981519152018190559150806200025e8162000788565b915050620001ef565b5062000274818062000394565b60086000015550506001606c5550607080546001600160a01b0319166001600160a01b03898116919091179091556000607781905590831660a0525b81811015620002d857620002c362000521565b80620002cf81620007af565b915050620002b0565b5050505050505050506200095b565b6001600160a01b038116331415620003425760405162461bcd60e51b815260206004820152601760248201527f43616e6e6f74207472616e7366657220746f2073656c660000000000000000006044820152606401620000ba565b600380546001600160a01b0319166001600160a01b03838116918217909255600254604051919216907fed8889f560326eb138920d842192f0eb3dd22b4f139c87a2c57538e05bae127890600090a350565b60007f30644e72e131a029b85045b68181585d2833e84879b9709143e1f593f00000018310620004075760405162461bcd60e51b815260206004820181905260248201527f5f6c6566742073686f756c6420626520696e7369646520746865206669656c646044820152606401620000ba565b7f30644e72e131a029b85045b68181585d2833e84879b9709143e1f593f00000018210620004825760405162461bcd60e51b815260206004820152602160248201527f5f72696768742073686f756c6420626520696e7369646520746865206669656c6044820152601960fa1b6064820152608401620000ba565b6040805180820182528481526020810184905260048054925163014cf2b360e51b815291926001600160a01b03169163299e566091620004c591859101620007cd565b60206040518083038186803b158015620004de57600080fd5b505afa158015620004f3573d6000803e3d6000fd5b505050506040513d601f19601f8201168201806040525081019062000519919062000800565b949350505050565b60a0516001600160a01b031663d0def5213060a0516001600160a01b031663c87b56dd60a0516001600160a01b031663dbfd4b986040518163ffffffff1660e01b815260040160206040518083038186803b1580156200058057600080fd5b505afa15801562000595573d6000803e3d6000fd5b505050506040513d601f19601f82011682018060405250810190620005bb919062000800565b6040518263ffffffff1660e01b8152600401620005da91815260200190565b60006040518083038186803b158015620005f357600080fd5b505afa15801562000608573d6000803e3d6000fd5b505050506040513d6000823e601f3d908101601f191682016040526200063291908101906200085f565b6040518363ffffffff1660e01b81526004016200065192919062000917565b600060405180830381600087803b1580156200066c57600080fd5b505af115801562000681573d6000803e3d6000fd5b50505050565b6001600160a01b03811681146200069d57600080fd5b50565b805163ffffffff81168114620006b557600080fd5b919050565b600080600080600080600080610100898b031215620006d857600080fd5b8851620006e58162000687565b60208a0151909850620006f88162000687565b96506200070860408a01620006a0565b955060608901516200071a8162000687565b60808a01519095506001600160401b03811681146200073857600080fd5b93506200074860a08a01620006a0565b925060c08901516200075a8162000687565b8092505060e089015190509295985092959890939650565b634e487b7160e01b600052601160045260246000fd5b600063ffffffff80831681811415620007a557620007a562000772565b6001019392505050565b6000600019821415620007c657620007c662000772565b5060010190565b60408101818360005b6002811015620007f7578151835260209283019290910190600101620007d6565b50505092915050565b6000602082840312156200081357600080fd5b5051919050565b634e487b7160e01b600052604160045260246000fd5b60005b838110156200084d57818101518382015260200162000833565b83811115620006815750506000910152565b6000602082840312156200087257600080fd5b81516001600160401b03808211156200088a57600080fd5b818401915084601f8301126200089f57600080fd5b815181811115620008b457620008b46200081a565b604051601f8201601f19908116603f01168101908382118183101715620008df57620008df6200081a565b81604052828152876020848701011115620008f957600080fd5b6200090c83602083016020880162000830565b979650505050505050565b60018060a01b038316815260406020820152600082518060408401526200094681606085016020870162000830565b601f01601f1916919091016060019392505050565b60805160a051613386620009b96000396000818161026f015281816107f40152818161118d015281816111bd015281816111ec015261145f0152600081816103f90152818161183e0152818161191e0152611b7801526133866000f3fe608060405234801561001057600080fd5b506004361061023d5760003560e01c806379ba50971161013b578063d4b39175116100b8578063ed33639f1161007c578063ed33639f14610591578063f178e47c146105a4578063f2fde38b146105b7578063fc7e9c6f146105ca578063fffeb84e146105e257600080fd5b8063d4b391751461050c578063d7b6edec1461053c578063e82955881461054f578063eadbe6fe14610562578063ec7329591461056a57600080fd5b8063bef3a2f0116100ff578063bef3a2f0146104b3578063c2b40ae4146104bb578063cc637afe146104ce578063cd87a3b4146104fc578063d328a91e1461050457600080fd5b806379ba50971461045f578063839df945146104675780638da5cb5b1461048a57806390eeb02b1461049b578063ba70f757146104ab57600080fd5b806332b2820c116101c9578063497032371161018d57806349703237146103ec5780634ecf518b146103f457806359360b551461043057806361bc221a146104435780636d9833e31461044c57600080fd5b806332b2820c1461036c57806338bf282e1461038c5780633a20b4e91461039f5780633eee99ad146103b2578063414a37ba146103c557600080fd5b806322dc7b4c1161021057806322dc7b4c146102c557806327714589146102f85780632997e86b1461030b5780632b7ac3f31461032e5780632fc62eaf1461034157600080fd5b80630ca761751461024257806311456b4714610257578063129116ef1461026a5780631aa46f59146102ae575b600080fd5b61025561025036600461259c565b6105ea565b005b610255610265366004612608565b610677565b6102917f000000000000000000000000000000000000000000000000000000000000000081565b6040516001600160a01b0390911681526020015b60405180910390f35b6102b7606d5481565b6040519081526020016102a5565b6102e86102d336600461263c565b60009081526071602052604090205460ff1690565b60405190151581526020016102a5565b6102b76103063660046126cd565b6106e2565b6102e861031936600461263c565b60716020526000908152604090205460ff1681565b607054610291906001600160a01b031681565b6102b761034f366004612608565b805160208183018101805160768252928201919093012091525481565b61037f61037a3660046127b7565b6107f0565b6040516102a59190612850565b6102b761039a366004612863565b6108db565b61037f6103ad366004612608565b610a63565b6102556103c0366004612885565b610b08565b6102b77f30644e72e131a029b85045b68181585d2833e84879b9709143e1f593f000000181565b610255610c58565b61041b7f000000000000000000000000000000000000000000000000000000000000000081565b60405163ffffffff90911681526020016102a5565b61025561043e366004612920565b610c95565b6102b760775481565b6102e861045a36600461263c565b610eb5565b610255610f33565b6102e861047536600461263c565b60726020526000908152604090205460ff1681565b6002546001600160a01b0316610291565b60075461041b9063ffffffff1681565b6102b7610fe1565b61037f611007565b6102b76104c936600461263c565b611014565b6102e86104dc366004612608565b805160208183018101805160738252928201919093012091525460ff1681565b61041b606481565b61037f61102b565b61051f61051a366004612af6565b6110b0565b6040516bffffffffffffffffffffffff90911681526020016102a5565b61037f61054a366004612608565b611146565b6102b761055d36600461263c565b61116a565b61025561118b565b6102b77f2fe54c60d3acabf3343a35b6eba15db4821b340f76e741e2249685ed4899af6c81565b600454610291906001600160a01b031681565b6102b76105b236600461263c565b611338565b6102556105c5366004612c1c565b611348565b60075461041b90640100000000900463ffffffff1681565b61037f61135c565b60008381526001602052604090205483906001600160a01b031633146106235760405163a0c5ec6360e01b815260040160405180910390fd5b60008181526001602052604080822080546001600160a01b03191690555182917f85e1543bf2f84fe80c6badbce3648c8539ad1df4d2b3d822938ca0538be727e691a2610671848484611369565b50505050565b60016073826040516106899190612c39565b908152604051908190036020018120805492151560ff19909316929092179091557f2578d3cc27afea711c20a10a0f61285911c3e03afcd6f2fa7f871ab9affa3512906106d7908390612850565b60405180910390a150565b60006106ec611532565b6107266040805160c08101909152806000815260200160008152602001600081526020016060815260200160608152602001606081525090565b61076d6000808c8c8080601f016020809104026020016040519081016040528093929190818152602001838380828437600092019190915250879594939250506115879050565b86156107b5576107b588888080601f01602080910402602001604051908101604052809392919081815260200183838082843760009201919091525085939250506116029050565b84156107cf576107cf6107c88688612c55565b8290611630565b60006107dc828686611657565b606d8190559b9a5050505050505050505050565b60607f00000000000000000000000000000000000000000000000000000000000000006001600160a01b031663c87b56dd607660758686604051610835929190612c62565b90815260405190819003602001812061084d91612ca7565b908152604051908190036020018120546001600160e01b031960e084901b16825261087e9160040190815260200190565b60006040518083038186803b15801561089657600080fd5b505afa1580156108aa573d6000803e3d6000fd5b505050506040513d6000823e601f3d908101601f191682016040526108d29190810190612d93565b90505b92915050565b60007f30644e72e131a029b85045b68181585d2833e84879b9709143e1f593f000000183106109515760405162461bcd60e51b815260206004820181905260248201527f5f6c6566742073686f756c6420626520696e7369646520746865206669656c6460448201526064015b60405180910390fd5b7f30644e72e131a029b85045b68181585d2833e84879b9709143e1f593f000000182106109ca5760405162461bcd60e51b815260206004820152602160248201527f5f72696768742073686f756c6420626520696e7369646520746865206669656c6044820152601960fa1b6064820152608401610948565b6040805180820182528481526020810184905260048054925163014cf2b360e51b815291926001600160a01b03169163299e566091610a0b91859101612dc7565b60206040518083038186803b158015610a2357600080fd5b505afa158015610a37573d6000803e3d6000fd5b505050506040513d601f19601f82011682018060405250810190610a5b9190612df8565b949350505050565b805160208183018101805160748252928201919093012091528054610a8790612c72565b80601f0160208091040260200160405190810160405280929190818152602001828054610ab390612c72565b8015610b005780601f10610ad557610100808354040283529160200191610b00565b820191906000526020600020905b815481529060010190602001808311610ae357829003601f168201915b505050505081565b610b106117cb565b81818080601f0160208091040260200160405190810160405280939291908181526020018383808284376000920191909152505060405160739250610b5791508390612c39565b9081526040519081900360200190205460ff16610b7757610b7781610677565b60008481526072602052604090205460ff1615610bd75760405163323377d160e01b815260206004820152601760248201527f436f6d6d69746d656e7420616c726561647920757365640000000000000000006044820152606401610948565b6000610be285611825565b60008681526072602052604090819020805460ff19166001179055519091507fb78452bc487dc90d6a0a567cf87858dae69e144c5f299a43ed6964629c219e2a90610c3f908790849091825263ffffffff16602082015260400190565b60405180910390a15050610c536001606c55565b505050565b610c60611a87565b6040514281527f638d0998b62dddc203db633372b87ac8b5cb5404842cc56fbbec87a4280085159060200160405180910390a1565b610c9d6117cb565b84607381604051610cae9190612c39565b9081526040519081900360200190205460ff16610cce57610cce81610677565b60008481526071602052604090205460ff1615610d2757604051633c564aa760e01b8152602060048201526016602482015275139d5b1b1a599a595c88185b1c9958591e481d5cd95960521b6044820152606401610948565b610d3083610eb5565b610d6e57604051632d3b008160e21b815260206004820152600e60248201526d2937b7ba103737ba1035b737bbb760911b6044820152606401610948565b6040805180820182528481526020808201879052607054855191860151868501519451637ae4eb4f60e11b815293946001600160a01b039092169363f5c9d69e93610dc0939092918790600401612e34565b602060405180830381600087803b158015610dda57600080fd5b505af1158015610dee573d6000803e3d6000fd5b505050506040513d601f19601f82011682018060405250810190610e129190612e92565b610e4f5760405163179f55d760e01b815260206004820152600d60248201526c24b73b30b634b210383937b7b360991b6044820152606401610948565b60008581526071602052604090819020805460ff19166001179055517f8e2c684c78bee254585736b8c67696a4c4ca8b7bd1f2b3b51f283e649937c72a90610e9a9088908890612eb4565b60405180910390a15050610eae6001606c55565b5050505050565b600081610ec457506000919050565b60075463ffffffff165b60088163ffffffff1660648110610ee757610ee7612ed6565b0154831415610ef95750600192915050565b63ffffffff8116610f08575060645b80610f1281612f02565b60075490925063ffffffff808416911614159050610ece5750600092915050565b6003546001600160a01b03163314610f865760405162461bcd60e51b815260206004820152601660248201527526bab9ba10313290383937b837b9b2b21037bbb732b960511b6044820152606401610948565b600280546001600160a01b0319808216339081179093556003805490911690556040516001600160a01b03909116919082907f8be0079c531659141344cd1fd0a4f28419497f9722a3daafe3b4186f6b6457e090600090a350565b60075460009060089063ffffffff166064811061100057611000612ed6565b0154905090565b606e8054610a8790612c72565b6008816064811061102457600080fd5b0154905081565b6000805460408051636994548f60e11b815290516060936001600160a01b039093169263d328a91e9260048082019391829003018186803b15801561106f57600080fd5b505afa158015611083573d6000803e3d6000fd5b505050506040513d6000823e601f3d908101601f191682016040526110ab9190810190612f22565b905090565b600080546001600160a01b031663d227d245856110cc88611c3b565b86866040518563ffffffff1660e01b81526004016110ed9493929190612f6a565b60206040518083038186803b15801561110557600080fd5b505afa158015611119573d6000803e3d6000fd5b505050506040513d601f19601f8201168201806040525081019061113d9190612fa5565b95945050505050565b805160208183018101805160758252928201919093012091528054610a8790612c72565b6006818154811061117a57600080fd5b600091825260209091200154905081565b7f00000000000000000000000000000000000000000000000000000000000000006001600160a01b031663d0def521307f00000000000000000000000000000000000000000000000000000000000000006001600160a01b031663c87b56dd7f00000000000000000000000000000000000000000000000000000000000000006001600160a01b031663dbfd4b986040518163ffffffff1660e01b815260040160206040518083038186803b15801561124357600080fd5b505afa158015611257573d6000803e3d6000fd5b505050506040513d601f19601f8201168201806040525081019061127b9190612df8565b6040518263ffffffff1660e01b815260040161129991815260200190565b60006040518083038186803b1580156112b157600080fd5b505afa1580156112c5573d6000803e3d6000fd5b505050506040513d6000823e601f3d908101601f191682016040526112ed9190810190612d93565b6040518363ffffffff1660e01b815260040161130a929190612fd3565b600060405180830381600087803b15801561132457600080fd5b505af1158015610671573d6000803e3d6000fd5b6005818154811061117a57600080fd5b611350611532565b61135981611e57565b50565b606f8054610a8790612c72565b815161137c90606e90602085019061237c565b50805161139090606f90602084019061237c565b50827f7bab0ec163b5c132c72b8146ac4d6e067e82ed58f8b131150aa71c925891156283836040516113c3929190612ff7565b60405180910390a28051610c53576000806000848060200190518101906113ea919061301c565b925092509250826074826040516114019190612c39565b9081526020016040518091039020908051906020019061142292919061237c565b50816075826040516114349190612c39565b9081526020016040518091039020908051906020019061145592919061237c565b50600060775490507f00000000000000000000000000000000000000000000000000000000000000006001600160a01b031663dbfd4b986040518163ffffffff1660e01b815260040160206040518083038186803b1580156114b657600080fd5b505afa1580156114ca573d6000803e3d6000fd5b505050506040513d601f19601f820116820180604052508101906114ee9190612df8565b81101561152957806076846040516115069190612c39565b908152604051908190036020019020558061152081613099565b60778190559150505b50505050505050565b6002546001600160a01b031633146115855760405162461bcd60e51b815260206004820152601660248201527527b7363c9031b0b63630b1363290313c9037bbb732b960511b6044820152606401610948565b565b80516115a6576040516322ce3edd60e01b815260040160405180910390fd5b838360018111156115b9576115b96130b4565b908160018111156115cc576115cc6130b4565b905250604084018280156115e2576115e26130b4565b908180156115f2576115f26130b4565b9052506060909301929092525050565b80516116215760405163e889636f60e01b815260040160405180910390fd5b60016020830152608090910152565b805161164f5760405163fe936cb760e01b815260040160405180910390fd5b60a090910152565b6000805481906001600160a01b03166328242b048561167588611c3b565b866040518463ffffffff1660e01b8152600401611694939291906130ca565b602060405180830381600087803b1580156116ae57600080fd5b505af11580156116c2573d6000803e3d6000fd5b505050506040513d601f19601f820116820180604052508101906116e69190612df8565b905060008054906101000a90046001600160a01b03166001600160a01b0316635ab1bd536040518163ffffffff1660e01b815260040160206040518083038186803b15801561173457600080fd5b505afa158015611748573d6000803e3d6000fd5b505050506040513d601f19601f8201168201806040525081019061176c9190613102565b60008281526001602052604080822080546001600160a01b0319166001600160a01b039490941693909317909255905182917f1131472297a800fee664d1d89cfa8f7676ff07189ecc53f80bbb5f4969099db891a290505b9392505050565b6002606c54141561181e5760405162461bcd60e51b815260206004820152601f60248201527f5265656e7472616e637947756172643a207265656e7472616e742063616c6c006044820152606401610948565b6002606c55565b600754600090640100000000900463ffffffff166118647f00000000000000000000000000000000000000000000000000000000000000006002613203565b8163ffffffff16106118d15760405163d7e8473f60e01b815260206004820152602f60248201527f4d65726b6c6520747265652069732066756c6c2e204e6f206d6f7265206c656160448201526e199cc818d85b881899481859191959608a1b6064820152608401610948565b6001600760048282829054906101000a900463ffffffff166118f39190613215565b92506101000a81548163ffffffff021916908363ffffffff160217905550600083905060008060005b7f000000000000000000000000000000000000000000000000000000000000000063ffffffff168163ffffffff161015611a0e5761195b600286613253565b63ffffffff166119b95783925060068163ffffffff168154811061198157611981612ed6565b906000526020600020015491508360058263ffffffff16815481106119a8576119a8612ed6565b6000918252602090912001556119e3565b60058163ffffffff16815481106119d2576119d2612ed6565b906000526020600020015492508391505b6119ed83836108db565b93506119fa600286613276565b945080611a0681613299565b91505061191c565b50600754606490611a269063ffffffff166001613215565b611a309190613253565b6007805463ffffffff191663ffffffff929092169182179055839060089060648110611a5e57611a5e612ed6565b0155600754611a7d90600190640100000000900463ffffffff166132bd565b9695505050505050565b611a9360056000612400565b611a9f60066000612400565b6040805160008152602081019182905251611abc9160059161241e565b506040805160008152602081019182905251611ada9160069161241e565b506007805467ffffffffffffffff191690556006805460018181019092557f2fe54c60d3acabf3343a35b6eba15db4821b340f76e741e2249685ed4899af6c7ff652222313e28459528d920b65115c16c04f3efc82aaedc97be59f3f377c0d3f9091018190556005805480840182556000919091527f036b6384b5eca791c62761152d0c79bb0604c104a5fb6f4eb0703f3154bb3db001819055905b7f000000000000000000000000000000000000000000000000000000000000000063ffffffff168163ffffffff161015611c2a57611bb482836108db565b6006805460018181019092557ff652222313e28459528d920b65115c16c04f3efc82aaedc97be59f3f377c0d3f018290556005805491820181556000527f036b6384b5eca791c62761152d0c79bb0604c104a5fb6f4eb0703f3154bb3db001819055915080611c2281613299565b915050611b76565b50611c3581826108db565b60085550565b6060611c5a604051806040016040528060608152602001600081525090565b611c6681610100611f02565b5060408051808201909152600c81526b31b7b232a637b1b0ba34b7b760a11b6020820152611c95908290611f67565b8251611cb3906001811115611cac57611cac6130b4565b8290611f7e565b6040805180820190915260088152676c616e677561676560c01b6020820152611cdd908290611f67565b6040830151611cf4908015611cac57611cac6130b4565b604080518082019091526006815265736f7572636560d01b6020820152611d1c908290611f67565b6060830151611d2c908290611f67565b60a08301515115611dc2576040805180820190915260048152636172677360e01b6020820152611d5d908290611f67565b611d6681611fa7565b60005b8360a0015151811015611db857611da68460a001518281518110611d8f57611d8f612ed6565b602002602001015183611f6790919063ffffffff16565b80611db081613099565b915050611d69565b50611dc281611fb2565b60808301515115611e505760408051808201909152600f81526e39b2b1b932ba39a637b1b0ba34b7b760891b6020820152611dfe908290611f67565b611e1783602001516001811115611cac57611cac6130b4565b6040805180820190915260078152667365637265747360c81b6020820152611e40908290611f67565b6080830151611e50908290611fbd565b5192915050565b6001600160a01b038116331415611eb05760405162461bcd60e51b815260206004820152601760248201527f43616e6e6f74207472616e7366657220746f2073656c660000000000000000006044820152606401610948565b600380546001600160a01b0319166001600160a01b03838116918217909255600254604051919216907fed8889f560326eb138920d842192f0eb3dd22b4f139c87a2c57538e05bae127890600090a350565b604080518082019091526060815260006020820152611f226020836132e2565b15611f4a57611f326020836132e2565b611f3d9060206132f6565b611f47908361330d565b91505b506020828101829052604080518085526000815290920101905290565b611f748260038351611fc6565b610c5382826120cd565b6001600160401b03811115611f9b57611f9782826120f4565b5050565b611f9782600083611fc6565b61135981600461212b565b61135981600761212b565b611f7482600283515b6017816001600160401b031611611fea576106718360e0600585901b16831761213c565b60ff816001600160401b03161161202657612010836018611fe0600586901b161761213c565b50610671836001600160401b0383166001612161565b61ffff816001600160401b0316116120635761204d836019611fe0600586901b161761213c565b50610671836001600160401b0383166002612161565b63ffffffff816001600160401b0316116120a25761208c83601a611fe0600586901b161761213c565b50610671836001600160401b0383166004612161565b6120b783601b611fe0600586901b161761213c565b50610671836001600160401b0383166008612161565b6040805180820190915260608152600060208201526108d283846000015151848551612187565b6120ff8260c261213c565b50611f97828260405160200161211791815260200190565b604051602081830303815290604052611fbd565b610c5382601f611fe0600585901b16175b6040805180820190915260608152600060208201526108d28384600001515184612271565b604080518082019091526060815260006020820152610a5b8485600001515185856122cd565b60408051808201909152606081526000602082015282518211156121aa57600080fd5b60208501516121b9838661330d565b11156121ec576121ec856121dc876020015187866121d7919061330d565b61234e565b6121e7906002613325565b612365565b60008086518051876020830101935080888701111561220b5787860182525b505050602084015b6020841061224b578051825261222a60208361330d565b915061223760208261330d565b90506122446020856132f6565b9350612213565b51815160001960208690036101000a019081169019919091161790525083949350505050565b604080518082019091526060815260006020820152836020015183106122a6576122a684856020015160026121e79190613325565b8351805160208583010184815350808514156122c3576001810182525b5093949350505050565b60408051808201909152606081526000602082015260208501516122f1858461330d565b111561230557612305856121dc868561330d565b6000600161231584610100613344565b61231f91906132f6565b90508551838682010185831982511617815250805184870111156123435783860181525b509495945050505050565b60008183111561235f5750816108d5565b50919050565b81516123718383611f02565b5061067183826120cd565b82805461238890612c72565b90600052602060002090601f0160209004810192826123aa57600085556123f0565b82601f106123c357805160ff19168380011785556123f0565b828001600101855582156123f0579182015b828111156123f05782518255916020019190600101906123d5565b506123fc929150612458565b5090565b50805460008255906000526020600020908101906113599190612458565b8280548282559060005260206000209081019282156123f057916020028201828111156123f05782518255916020019190600101906123d5565b5b808211156123fc5760008155600101612459565b634e487b7160e01b600052604160045260246000fd5b604051606081016001600160401b03811182821017156124a5576124a561246d565b60405290565b60405160c081016001600160401b03811182821017156124a5576124a561246d565b604080519081016001600160401b03811182821017156124a5576124a561246d565b604051601f8201601f191681016001600160401b03811182821017156125175761251761246d565b604052919050565b60006001600160401b038211156125385761253861246d565b50601f01601f191660200190565b600082601f83011261255757600080fd5b813561256a6125658261251f565b6124ef565b81815284602083860101111561257f57600080fd5b816020850160208301376000918101602001919091529392505050565b6000806000606084860312156125b157600080fd5b8335925060208401356001600160401b03808211156125cf57600080fd5b6125db87838801612546565b935060408601359150808211156125f157600080fd5b506125fe86828701612546565b9150509250925092565b60006020828403121561261a57600080fd5b81356001600160401b0381111561263057600080fd5b610a5b84828501612546565b60006020828403121561264e57600080fd5b5035919050565b60008083601f84011261266757600080fd5b5081356001600160401b0381111561267e57600080fd5b60208301915083602082850101111561269657600080fd5b9250929050565b80356001600160401b03811681146126b457600080fd5b919050565b803563ffffffff811681146126b457600080fd5b60008060008060008060008060a0898b0312156126e957600080fd5b88356001600160401b038082111561270057600080fd5b61270c8c838d01612655565b909a50985060208b013591508082111561272557600080fd5b6127318c838d01612655565b909850965060408b013591508082111561274a57600080fd5b818b0191508b601f83011261275e57600080fd5b81358181111561276d57600080fd5b8c60208260051b850101111561278257600080fd5b60208301965080955050505061279a60608a0161269d565b91506127a860808a016126b9565b90509295985092959890939650565b600080602083850312156127ca57600080fd5b82356001600160401b038111156127e057600080fd5b6127ec85828601612655565b90969095509350505050565b60005b838110156128135781810151838201526020016127fb565b838111156106715750506000910152565b6000815180845261283c8160208601602086016127f8565b601f01601f19169290920160200192915050565b6020815260006108d26020830184612824565b6000806040838503121561287657600080fd5b50508035926020909101359150565b60008060006040848603121561289a57600080fd5b8335925060208401356001600160401b038111156128b757600080fd5b6128c386828701612655565b9497909650939450505050565b600082601f8301126128e157600080fd5b6128e96124cd565b8060408401858111156128fb57600080fd5b845b818110156129155780358452602093840193016128fd565b509095945050505050565b600080600080600085870361018081121561293a57600080fd5b86356001600160401b038082111561295157600080fd5b61295d8a838b01612546565b975060209150818901358181111561297457600080fd5b6129808b828c01612546565b97505050604088810135955060608901359450610100607f19840112156129a657600080fd5b6129ae612483565b92506129bd8a60808b016128d0565b83528960df8a01126129ce57600080fd5b6129d66124cd565b806101408b018c8111156129e957600080fd5b60c08c015b81811015612a0d57612a008e826128d0565b84529285019284016129ee565b508185870152612a1d8d826128d0565b848701525050505050809150509295509295909350565b8035600281106126b457600080fd5b8035600181106126b457600080fd5b60006001600160401b0380841115612a6c57612a6c61246d565b8360051b6020612a7d8183016124ef565b86815293509084019080840187831115612a9657600080fd5b855b83811015612aca57803585811115612ab05760008081fd5b612abc8a828a01612546565b835250908201908201612a98565b50505050509392505050565b600082601f830112612ae757600080fd5b6108d283833560208501612a52565b60008060008060808587031215612b0c57600080fd5b84356001600160401b0380821115612b2357600080fd5b9086019060c08289031215612b3757600080fd5b612b3f6124ab565b612b4883612a34565b8152612b5660208401612a34565b6020820152612b6760408401612a43565b6040820152606083013582811115612b7e57600080fd5b612b8a8a828601612546565b606083015250608083013582811115612ba257600080fd5b612bae8a828601612546565b60808301525060a083013582811115612bc657600080fd5b612bd28a828601612ad6565b60a0830152509550612be99150506020860161269d565b9250612bf7604086016126b9565b9396929550929360600135925050565b6001600160a01b038116811461135957600080fd5b600060208284031215612c2e57600080fd5b81356117c481612c07565b60008251612c4b8184602087016127f8565b9190910192915050565b60006108d2368484612a52565b8183823760009101908152919050565b600181811c90821680612c8657607f821691505b6020821081141561235f57634e487b7160e01b600052602260045260246000fd5b600080835481600182811c915080831680612cc357607f831692505b6020808410821415612ce357634e487b7160e01b86526022600452602486fd5b818015612cf75760018114612d0857612d35565b60ff19861689528489019650612d35565b60008a81526020902060005b86811015612d2d5781548b820152908501908301612d14565b505084890196505b509498975050505050505050565b6000612d516125658461251f565b9050828152838383011115612d6557600080fd5b6117c48360208301846127f8565b600082601f830112612d8457600080fd5b6108d283835160208501612d43565b600060208284031215612da557600080fd5b81516001600160401b03811115612dbb57600080fd5b610a5b84828501612d73565b60408101818360005b6002811015612def578151835260209283019290910190600101612dd0565b50505092915050565b600060208284031215612e0a57600080fd5b5051919050565b8060005b6002811015610671578151845260209384019390910190600101612e15565b6101408101612e438287612e11565b60408083018660005b6002811015612e7357612e60838351612e11565b9183019160209190910190600101612e4c565b50505050612e8460c0830185612e11565b61113d610100830184612e11565b600060208284031215612ea457600080fd5b815180151581146117c457600080fd5b604081526000612ec76040830185612824565b90508260208301529392505050565b634e487b7160e01b600052603260045260246000fd5b634e487b7160e01b600052601160045260246000fd5b600063ffffffff821680612f1857612f18612eec565b6000190192915050565b600060208284031215612f3457600080fd5b81516001600160401b03811115612f4a57600080fd5b8201601f81018413612f5b57600080fd5b610a5b84825160208401612d43565b6001600160401b0385168152608060208201526000612f8c6080830186612824565b63ffffffff949094166040830152506060015292915050565b600060208284031215612fb757600080fd5b81516bffffffffffffffffffffffff811681146117c457600080fd5b6001600160a01b0383168152604060208201819052600090610a5b90830184612824565b60408152600061300a6040830185612824565b828103602084015261113d8185612824565b60008060006060848603121561303157600080fd5b83516001600160401b038082111561304857600080fd5b61305487838801612d73565b9450602086015191508082111561306a57600080fd5b61307687838801612d73565b9350604086015191508082111561308c57600080fd5b506125fe86828701612d73565b60006000198214156130ad576130ad612eec565b5060010190565b634e487b7160e01b600052602160045260246000fd5b6001600160401b03841681526060602082015260006130ec6060830185612824565b905063ffffffff83166040830152949350505050565b60006020828403121561311457600080fd5b81516117c481612c07565b600181815b8085111561315a57816000190482111561314057613140612eec565b8085161561314d57918102915b93841c9390800290613124565b509250929050565b600082613171575060016108d5565b8161317e575060006108d5565b8160018114613194576002811461319e576131ba565b60019150506108d5565b60ff8411156131af576131af612eec565b50506001821b6108d5565b5060208310610133831016604e8410600b84101617156131dd575081810a6108d5565b6131e7838361311f565b80600019048211156131fb576131fb612eec565b029392505050565b60006108d263ffffffff841683613162565b600063ffffffff80831681851680830382111561323457613234612eec565b01949350505050565b634e487b7160e01b600052601260045260246000fd5b600063ffffffff8084168061326a5761326a61323d565b92169190910692915050565b600063ffffffff8084168061328d5761328d61323d565b92169190910492915050565b600063ffffffff808316818114156132b3576132b3612eec565b6001019392505050565b600063ffffffff838116908316818110156132da576132da612eec565b039392505050565b6000826132f1576132f161323d565b500690565b60008282101561330857613308612eec565b500390565b6000821982111561332057613320612eec565b500190565b600081600019048311821515161561333f5761333f612eec565b500290565b60006108d2838361316256fea2646970667358221220488a818800311226e4144bed6b0a06bdafdf710911479cb2375ee4cf89b1f54e64736f6c63430008090033036b6384b5eca791c62761152d0c79bb0604c104a5fb6f4eb0703f3154bb3db0f652222313e28459528d920b65115c16c04f3efc82aaedc97be59f3f377c0d3f","opcodes":"PUSH1 0xC0 PUSH1 0x40 MSTORE PUSH1 0x7 DUP1 SLOAD PUSH1 0x1 PUSH1 0x1 PUSH1 0x40 SHL SUB NOT AND SWAP1 SSTORE CALLVALUE DUP1 ISZERO PUSH3 0x21 JUMPI PUSH1 0x0 DUP1 REVERT JUMPDEST POP PUSH1 0x40 MLOAD PUSH3 0x3D7F CODESIZE SUB DUP1 PUSH3 0x3D7F DUP4 CODECOPY DUP2 ADD PUSH1 0x40 DUP2 SWAP1 MSTORE PUSH3 0x44 SWAP2 PUSH3 0x6BA JUMP JUMPDEST PUSH1 0x0 DUP1 SLOAD PUSH1 0x1 PUSH1 0x1 PUSH1 0xA0 SHL SUB NOT AND PUSH1 0x1 PUSH1 0x1 PUSH1 0xA0 SHL SUB DUP11 AND OR DUP2 SSTORE DUP7 SWAP1 DUP7 SWAP1 CALLER SWAP1 DUP2 SWAP1 PUSH1 0x1 PUSH1 0x1 PUSH1 0xA0 SHL SUB DUP3 AND PUSH3 0xC3 JUMPI PUSH1 0x40 MLOAD PUSH3 0x461BCD PUSH1 0xE5 SHL DUP2 MSTORE PUSH1 0x20 PUSH1 0x4 DUP3 ADD MSTORE PUSH1 0x18 PUSH1 0x24 DUP3 ADD MSTORE PUSH32 0x43616E6E6F7420736574206F776E657220746F207A65726F0000000000000000 PUSH1 0x44 DUP3 ADD MSTORE PUSH1 0x64 ADD JUMPDEST PUSH1 0x40 MLOAD DUP1 SWAP2 SUB SWAP1 REVERT JUMPDEST PUSH1 0x2 DUP1 SLOAD PUSH1 0x1 PUSH1 0x1 PUSH1 0xA0 SHL SUB NOT AND PUSH1 0x1 PUSH1 0x1 PUSH1 0xA0 SHL SUB DUP5 DUP2 AND SWAP2 SWAP1 SWAP2 OR SWAP1 SWAP2 SSTORE DUP2 AND ISZERO PUSH3 0xF6 JUMPI PUSH3 0xF6 DUP2 PUSH3 0x2E7 JUMP JUMPDEST POP POP POP PUSH1 0x20 PUSH4 0xFFFFFFFF DUP4 AND GT ISZERO PUSH3 0x162 JUMPI PUSH1 0x40 MLOAD PUSH4 0x2D5D4037 PUSH1 0xE0 SHL DUP2 MSTORE PUSH1 0x20 PUSH1 0x4 DUP3 ADD MSTORE PUSH1 0x26 PUSH1 0x24 DUP3 ADD MSTORE PUSH32 0x54726565206C6576656C732073686F756C64206265206265747765656E203020 PUSH1 0x44 DUP3 ADD MSTORE PUSH6 0x30B732101999 PUSH1 0xD1 SHL PUSH1 0x64 DUP3 ADD MSTORE PUSH1 0x84 ADD PUSH3 0xBA JUMP JUMPDEST PUSH1 0x4 DUP1 SLOAD PUSH1 0x1 PUSH1 0x1 PUSH1 0xA0 SHL SUB NOT AND PUSH1 0x1 PUSH1 0x1 PUSH1 0xA0 SHL SUB DUP4 AND OR SWAP1 SSTORE PUSH4 0xFFFFFFFF DUP3 AND PUSH1 0x80 MSTORE PUSH1 0x6 DUP1 SLOAD PUSH1 0x1 DUP2 DUP2 ADD SWAP1 SWAP3 SSTORE PUSH32 0x2FE54C60D3ACABF3343A35B6EBA15DB4821B340F76E741E2249685ED4899AF6C PUSH1 0x0 DUP1 MLOAD PUSH1 0x20 PUSH3 0x3D5F DUP4 CODECOPY DUP2 MLOAD SWAP2 MSTORE SWAP1 SWAP2 ADD DUP2 SWAP1 SSTORE PUSH1 0x5 DUP1 SLOAD DUP1 DUP5 ADD DUP3 SSTORE PUSH1 0x0 SWAP2 SWAP1 SWAP2 MSTORE PUSH1 0x0 DUP1 MLOAD PUSH1 0x20 PUSH3 0x3D3F DUP4 CODECOPY DUP2 MLOAD SWAP2 MSTORE ADD DUP2 SWAP1 SSTORE SWAP1 JUMPDEST DUP4 PUSH4 0xFFFFFFFF AND DUP2 PUSH4 0xFFFFFFFF AND LT ISZERO PUSH3 0x267 JUMPI PUSH3 0x210 DUP3 DUP1 PUSH3 0x394 JUMP JUMPDEST PUSH1 0x6 DUP1 SLOAD PUSH1 0x1 DUP2 DUP2 ADD SWAP1 SWAP3 SSTORE PUSH1 0x0 DUP1 MLOAD PUSH1 0x20 PUSH3 0x3D5F DUP4 CODECOPY DUP2 MLOAD SWAP2 MSTORE ADD DUP3 SWAP1 SSTORE PUSH1 0x5 DUP1 SLOAD SWAP2 DUP3 ADD DUP2 SSTORE PUSH1 0x0 MSTORE PUSH1 0x0 DUP1 MLOAD PUSH1 0x20 PUSH3 0x3D3F DUP4 CODECOPY DUP2 MLOAD SWAP2 MSTORE ADD DUP2 SWAP1 SSTORE SWAP2 POP DUP1 PUSH3 0x25E DUP2 PUSH3 0x788 JUMP JUMPDEST SWAP2 POP POP PUSH3 0x1EF JUMP JUMPDEST POP PUSH3 0x274 DUP2 DUP1 PUSH3 0x394 JUMP JUMPDEST PUSH1 0x8 PUSH1 0x0 ADD SSTORE POP POP PUSH1 0x1 PUSH1 0x6C SSTORE POP PUSH1 0x70 DUP1 SLOAD PUSH1 0x1 PUSH1 0x1 PUSH1 0xA0 SHL SUB NOT AND PUSH1 0x1 PUSH1 0x1 PUSH1 0xA0 SHL SUB DUP10 DUP2 AND SWAP2 SWAP1 SWAP2 OR SWAP1 SWAP2 SSTORE PUSH1 0x0 PUSH1 0x77 DUP2 SWAP1 SSTORE SWAP1 DUP4 AND PUSH1 0xA0 MSTORE JUMPDEST DUP2 DUP2 LT ISZERO PUSH3 0x2D8 JUMPI PUSH3 0x2C3 PUSH3 0x521 JUMP JUMPDEST DUP1 PUSH3 0x2CF DUP2 PUSH3 0x7AF JUMP JUMPDEST SWAP2 POP POP PUSH3 0x2B0 JUMP JUMPDEST POP POP POP POP POP POP POP POP POP PUSH3 0x95B JUMP JUMPDEST PUSH1 0x1 PUSH1 0x1 PUSH1 0xA0 SHL SUB DUP2 AND CALLER EQ ISZERO PUSH3 0x342 JUMPI PUSH1 0x40 MLOAD PUSH3 0x461BCD PUSH1 0xE5 SHL DUP2 MSTORE PUSH1 0x20 PUSH1 0x4 DUP3 ADD MSTORE PUSH1 0x17 PUSH1 0x24 DUP3 ADD MSTORE PUSH32 0x43616E6E6F74207472616E7366657220746F2073656C66000000000000000000 PUSH1 0x44 DUP3 ADD MSTORE PUSH1 0x64 ADD PUSH3 0xBA JUMP JUMPDEST PUSH1 0x3 DUP1 SLOAD PUSH1 0x1 PUSH1 0x1 PUSH1 0xA0 SHL SUB NOT AND PUSH1 0x1 PUSH1 0x1 PUSH1 0xA0 SHL SUB DUP4 DUP2 AND SWAP2 DUP3 OR SWAP1 SWAP3 SSTORE PUSH1 0x2 SLOAD PUSH1 0x40 MLOAD SWAP2 SWAP3 AND SWAP1 PUSH32 0xED8889F560326EB138920D842192F0EB3DD22B4F139C87A2C57538E05BAE1278 SWAP1 PUSH1 0x0 SWAP1 LOG3 POP JUMP JUMPDEST PUSH1 0x0 PUSH32 0x30644E72E131A029B85045B68181585D2833E84879B9709143E1F593F0000001 DUP4 LT PUSH3 0x407 JUMPI PUSH1 0x40 MLOAD PUSH3 0x461BCD PUSH1 0xE5 SHL DUP2 MSTORE PUSH1 0x20 PUSH1 0x4 DUP3 ADD DUP2 SWAP1 MSTORE PUSH1 0x24 DUP3 ADD MSTORE PUSH32 0x5F6C6566742073686F756C6420626520696E7369646520746865206669656C64 PUSH1 0x44 DUP3 ADD MSTORE PUSH1 0x64 ADD PUSH3 0xBA JUMP JUMPDEST PUSH32 0x30644E72E131A029B85045B68181585D2833E84879B9709143E1F593F0000001 DUP3 LT PUSH3 0x482 JUMPI PUSH1 0x40 MLOAD PUSH3 0x461BCD PUSH1 0xE5 SHL DUP2 MSTORE PUSH1 0x20 PUSH1 0x4 DUP3 ADD MSTORE PUSH1 0x21 PUSH1 0x24 DUP3 ADD MSTORE PUSH32 0x5F72696768742073686F756C6420626520696E7369646520746865206669656C PUSH1 0x44 DUP3 ADD MSTORE PUSH1 0x19 PUSH1 0xFA SHL PUSH1 0x64 DUP3 ADD MSTORE PUSH1 0x84 ADD PUSH3 0xBA JUMP JUMPDEST PUSH1 0x40 DUP1 MLOAD DUP1 DUP3 ADD DUP3 MSTORE DUP5 DUP2 MSTORE PUSH1 0x20 DUP2 ADD DUP5 SWAP1 MSTORE PUSH1 0x4 DUP1 SLOAD SWAP3 MLOAD PUSH4 0x14CF2B3 PUSH1 0xE5 SHL DUP2 MSTORE SWAP2 SWAP3 PUSH1 0x1 PUSH1 0x1 PUSH1 0xA0 SHL SUB AND SWAP2 PUSH4 0x299E5660 SWAP2 PUSH3 0x4C5 SWAP2 DUP6 SWAP2 ADD PUSH3 0x7CD JUMP JUMPDEST PUSH1 0x20 PUSH1 0x40 MLOAD DUP1 DUP4 SUB DUP2 DUP7 DUP1 EXTCODESIZE ISZERO DUP1 ISZERO PUSH3 0x4DE JUMPI PUSH1 0x0 DUP1 REVERT JUMPDEST POP GAS STATICCALL ISZERO DUP1 ISZERO PUSH3 0x4F3 JUMPI RETURNDATASIZE PUSH1 0x0 DUP1 RETURNDATACOPY RETURNDATASIZE PUSH1 0x0 REVERT JUMPDEST POP POP POP POP PUSH1 0x40 MLOAD RETURNDATASIZE PUSH1 0x1F NOT PUSH1 0x1F DUP3 ADD AND DUP3 ADD DUP1 PUSH1 0x40 MSTORE POP DUP2 ADD SWAP1 PUSH3 0x519 SWAP2 SWAP1 PUSH3 0x800 JUMP JUMPDEST SWAP5 SWAP4 POP POP POP POP JUMP JUMPDEST PUSH1 0xA0 MLOAD PUSH1 0x1 PUSH1 0x1 PUSH1 0xA0 SHL SUB AND PUSH4 0xD0DEF521 ADDRESS PUSH1 0xA0 MLOAD PUSH1 0x1 PUSH1 0x1 PUSH1 0xA0 SHL SUB AND PUSH4 0xC87B56DD PUSH1 0xA0 MLOAD PUSH1 0x1 PUSH1 0x1 PUSH1 0xA0 SHL SUB AND PUSH4 0xDBFD4B98 PUSH1 0x40 MLOAD DUP2 PUSH4 0xFFFFFFFF AND PUSH1 0xE0 SHL DUP2 MSTORE PUSH1 0x4 ADD PUSH1 0x20 PUSH1 0x40 MLOAD DUP1 DUP4 SUB DUP2 DUP7 DUP1 EXTCODESIZE ISZERO DUP1 ISZERO PUSH3 0x580 JUMPI PUSH1 0x0 DUP1 REVERT JUMPDEST POP GAS STATICCALL ISZERO DUP1 ISZERO PUSH3 0x595 JUMPI RETURNDATASIZE PUSH1 0x0 DUP1 RETURNDATACOPY RETURNDATASIZE PUSH1 0x0 REVERT JUMPDEST POP POP POP POP PUSH1 0x40 MLOAD RETURNDATASIZE PUSH1 0x1F NOT PUSH1 0x1F DUP3 ADD AND DUP3 ADD DUP1 PUSH1 0x40 MSTORE POP DUP2 ADD SWAP1 PUSH3 0x5BB SWAP2 SWAP1 PUSH3 0x800 JUMP JUMPDEST PUSH1 0x40 MLOAD DUP3 PUSH4 0xFFFFFFFF AND PUSH1 0xE0 SHL DUP2 MSTORE PUSH1 0x4 ADD PUSH3 0x5DA SWAP2 DUP2 MSTORE PUSH1 0x20 ADD SWAP1 JUMP JUMPDEST PUSH1 0x0 PUSH1 0x40 MLOAD DUP1 DUP4 SUB DUP2 DUP7 DUP1 EXTCODESIZE ISZERO DUP1 ISZERO PUSH3 0x5F3 JUMPI PUSH1 0x0 DUP1 REVERT JUMPDEST POP GAS STATICCALL ISZERO DUP1 ISZERO PUSH3 0x608 JUMPI RETURNDATASIZE PUSH1 0x0 DUP1 RETURNDATACOPY RETURNDATASIZE PUSH1 0x0 REVERT JUMPDEST POP POP POP POP PUSH1 0x40 MLOAD RETURNDATASIZE PUSH1 0x0 DUP3 RETURNDATACOPY PUSH1 0x1F RETURNDATASIZE SWAP1 DUP2 ADD PUSH1 0x1F NOT AND DUP3 ADD PUSH1 0x40 MSTORE PUSH3 0x632 SWAP2 SWAP1 DUP2 ADD SWAP1 PUSH3 0x85F JUMP JUMPDEST PUSH1 0x40 MLOAD DUP4 PUSH4 0xFFFFFFFF AND PUSH1 0xE0 SHL DUP2 MSTORE PUSH1 0x4 ADD PUSH3 0x651 SWAP3 SWAP2 SWAP1 PUSH3 0x917 JUMP JUMPDEST PUSH1 0x0 PUSH1 0x40 MLOAD DUP1 DUP4 SUB DUP2 PUSH1 0x0 DUP8 DUP1 EXTCODESIZE ISZERO DUP1 ISZERO PUSH3 0x66C JUMPI PUSH1 0x0 DUP1 REVERT JUMPDEST POP GAS CALL ISZERO DUP1 ISZERO PUSH3 0x681 JUMPI RETURNDATASIZE PUSH1 0x0 DUP1 RETURNDATACOPY RETURNDATASIZE PUSH1 0x0 REVERT JUMPDEST POP POP POP POP JUMP JUMPDEST PUSH1 0x1 PUSH1 0x1 PUSH1 0xA0 SHL SUB DUP2 AND DUP2 EQ PUSH3 0x69D JUMPI PUSH1 0x0 DUP1 REVERT JUMPDEST POP JUMP JUMPDEST DUP1 MLOAD PUSH4 0xFFFFFFFF DUP2 AND DUP2 EQ PUSH3 0x6B5 JUMPI PUSH1 0x0 DUP1 REVERT JUMPDEST SWAP2 SWAP1 POP JUMP JUMPDEST PUSH1 0x0 DUP1 PUSH1 0x0 DUP1 PUSH1 0x0 DUP1 PUSH1 0x0 DUP1 PUSH2 0x100 DUP10 DUP12 SUB SLT ISZERO PUSH3 0x6D8 JUMPI PUSH1 0x0 DUP1 REVERT JUMPDEST DUP9 MLOAD PUSH3 0x6E5 DUP2 PUSH3 0x687 JUMP JUMPDEST PUSH1 0x20 DUP11 ADD MLOAD SWAP1 SWAP9 POP PUSH3 0x6F8 DUP2 PUSH3 0x687 JUMP JUMPDEST SWAP7 POP PUSH3 0x708 PUSH1 0x40 DUP11 ADD PUSH3 0x6A0 JUMP JUMPDEST SWAP6 POP PUSH1 0x60 DUP10 ADD MLOAD PUSH3 0x71A DUP2 PUSH3 0x687 JUMP JUMPDEST PUSH1 0x80 DUP11 ADD MLOAD SWAP1 SWAP6 POP PUSH1 0x1 PUSH1 0x1 PUSH1 0x40 SHL SUB DUP2 AND DUP2 EQ PUSH3 0x738 JUMPI PUSH1 0x0 DUP1 REVERT JUMPDEST SWAP4 POP PUSH3 0x748 PUSH1 0xA0 DUP11 ADD PUSH3 0x6A0 JUMP JUMPDEST SWAP3 POP PUSH1 0xC0 DUP10 ADD MLOAD PUSH3 0x75A DUP2 PUSH3 0x687 JUMP JUMPDEST DUP1 SWAP3 POP POP PUSH1 0xE0 DUP10 ADD MLOAD SWAP1 POP SWAP3 SWAP6 SWAP9 POP SWAP3 SWAP6 SWAP9 SWAP1 SWAP4 SWAP7 POP JUMP JUMPDEST PUSH4 0x4E487B71 PUSH1 0xE0 SHL PUSH1 0x0 MSTORE PUSH1 0x11 PUSH1 0x4 MSTORE PUSH1 0x24 PUSH1 0x0 REVERT JUMPDEST PUSH1 0x0 PUSH4 0xFFFFFFFF DUP1 DUP4 AND DUP2 DUP2 EQ ISZERO PUSH3 0x7A5 JUMPI PUSH3 0x7A5 PUSH3 0x772 JUMP JUMPDEST PUSH1 0x1 ADD SWAP4 SWAP3 POP POP POP JUMP JUMPDEST PUSH1 0x0 PUSH1 0x0 NOT DUP3 EQ ISZERO PUSH3 0x7C6 JUMPI PUSH3 0x7C6 PUSH3 0x772 JUMP JUMPDEST POP PUSH1 0x1 ADD SWAP1 JUMP JUMPDEST PUSH1 0x40 DUP2 ADD DUP2 DUP4 PUSH1 0x0 JUMPDEST PUSH1 0x2 DUP2 LT ISZERO PUSH3 0x7F7 JUMPI DUP2 MLOAD DUP4 MSTORE PUSH1 0x20 SWAP3 DUP4 ADD SWAP3 SWAP1 SWAP2 ADD SWAP1 PUSH1 0x1 ADD PUSH3 0x7D6 JUMP JUMPDEST POP POP POP SWAP3 SWAP2 POP POP JUMP JUMPDEST PUSH1 0x0 PUSH1 0x20 DUP3 DUP5 SUB SLT ISZERO PUSH3 0x813 JUMPI PUSH1 0x0 DUP1 REVERT JUMPDEST POP MLOAD SWAP2 SWAP1 POP JUMP JUMPDEST PUSH4 0x4E487B71 PUSH1 0xE0 SHL PUSH1 0x0 MSTORE PUSH1 0x41 PUSH1 0x4 MSTORE PUSH1 0x24 PUSH1 0x0 REVERT JUMPDEST PUSH1 0x0 JUMPDEST DUP4 DUP2 LT ISZERO PUSH3 0x84D JUMPI DUP2 DUP2 ADD MLOAD DUP4 DUP3 ADD MSTORE PUSH1 0x20 ADD PUSH3 0x833 JUMP JUMPDEST DUP4 DUP2 GT ISZERO PUSH3 0x681 JUMPI POP POP PUSH1 0x0 SWAP2 ADD MSTORE JUMP JUMPDEST PUSH1 0x0 PUSH1 0x20 DUP3 DUP5 SUB SLT ISZERO PUSH3 0x872 JUMPI PUSH1 0x0 DUP1 REVERT JUMPDEST DUP2 MLOAD PUSH1 0x1 PUSH1 0x1 PUSH1 0x40 SHL SUB DUP1 DUP3 GT ISZERO PUSH3 0x88A JUMPI PUSH1 0x0 DUP1 REVERT JUMPDEST DUP2 DUP5 ADD SWAP2 POP DUP5 PUSH1 0x1F DUP4 ADD SLT PUSH3 0x89F JUMPI PUSH1 0x0 DUP1 REVERT JUMPDEST DUP2 MLOAD DUP2 DUP2 GT ISZERO PUSH3 0x8B4 JUMPI PUSH3 0x8B4 PUSH3 0x81A JUMP JUMPDEST PUSH1 0x40 MLOAD PUSH1 0x1F DUP3 ADD PUSH1 0x1F NOT SWAP1 DUP2 AND PUSH1 0x3F ADD AND DUP2 ADD SWAP1 DUP4 DUP3 GT DUP2 DUP4 LT OR ISZERO PUSH3 0x8DF JUMPI PUSH3 0x8DF PUSH3 0x81A JUMP JUMPDEST DUP2 PUSH1 0x40 MSTORE DUP3 DUP2 MSTORE DUP8 PUSH1 0x20 DUP5 DUP8 ADD ADD GT ISZERO PUSH3 0x8F9 JUMPI PUSH1 0x0 DUP1 REVERT JUMPDEST PUSH3 0x90C DUP4 PUSH1 0x20 DUP4 ADD PUSH1 0x20 DUP9 ADD PUSH3 0x830 JUMP JUMPDEST SWAP8 SWAP7 POP POP POP POP POP POP POP JUMP JUMPDEST PUSH1 0x1 DUP1 PUSH1 0xA0 SHL SUB DUP4 AND DUP2 MSTORE PUSH1 0x40 PUSH1 0x20 DUP3 ADD MSTORE PUSH1 0x0 DUP3 MLOAD DUP1 PUSH1 0x40 DUP5 ADD MSTORE PUSH3 0x946 DUP2 PUSH1 0x60 DUP6 ADD PUSH1 0x20 DUP8 ADD PUSH3 0x830 JUMP JUMPDEST PUSH1 0x1F ADD PUSH1 0x1F NOT AND SWAP2 SWAP1 SWAP2 ADD PUSH1 0x60 ADD SWAP4 SWAP3 POP POP POP JUMP JUMPDEST PUSH1 0x80 MLOAD PUSH1 0xA0 MLOAD PUSH2 0x3386 PUSH3 0x9B9 PUSH1 0x0 CODECOPY PUSH1 0x0 DUP2 DUP2 PUSH2 0x26F ADD MSTORE DUP2 DUP2 PUSH2 0x7F4 ADD MSTORE DUP2 DUP2 PUSH2 0x118D ADD MSTORE DUP2 DUP2 PUSH2 0x11BD ADD MSTORE DUP2 DUP2 PUSH2 0x11EC ADD MSTORE PUSH2 0x145F ADD MSTORE PUSH1 0x0 DUP2 DUP2 PUSH2 0x3F9 ADD MSTORE DUP2 DUP2 PUSH2 0x183E ADD MSTORE DUP2 DUP2 PUSH2 0x191E ADD MSTORE PUSH2 0x1B78 ADD MSTORE PUSH2 0x3386 PUSH1 0x0 RETURN INVALID PUSH1 0x80 PUSH1 0x40 MSTORE CALLVALUE DUP1 ISZERO PUSH2 0x10 JUMPI PUSH1 0x0 DUP1 REVERT JUMPDEST POP PUSH1 0x4 CALLDATASIZE LT PUSH2 0x23D JUMPI PUSH1 0x0 CALLDATALOAD PUSH1 0xE0 SHR DUP1 PUSH4 0x79BA5097 GT PUSH2 0x13B JUMPI DUP1 PUSH4 0xD4B39175 GT PUSH2 0xB8 JUMPI DUP1 PUSH4 0xED33639F GT PUSH2 0x7C JUMPI DUP1 PUSH4 0xED33639F EQ PUSH2 0x591 JUMPI DUP1 PUSH4 0xF178E47C EQ PUSH2 0x5A4 JUMPI DUP1 PUSH4 0xF2FDE38B EQ PUSH2 0x5B7 JUMPI DUP1 PUSH4 0xFC7E9C6F EQ PUSH2 0x5CA JUMPI DUP1 PUSH4 0xFFFEB84E EQ PUSH2 0x5E2 JUMPI PUSH1 0x0 DUP1 REVERT JUMPDEST DUP1 PUSH4 0xD4B39175 EQ PUSH2 0x50C JUMPI DUP1 PUSH4 0xD7B6EDEC EQ PUSH2 0x53C JUMPI DUP1 PUSH4 0xE8295588 EQ PUSH2 0x54F JUMPI DUP1 PUSH4 0xEADBE6FE EQ PUSH2 0x562 JUMPI DUP1 PUSH4 0xEC732959 EQ PUSH2 0x56A JUMPI PUSH1 0x0 DUP1 REVERT JUMPDEST DUP1 PUSH4 0xBEF3A2F0 GT PUSH2 0xFF JUMPI DUP1 PUSH4 0xBEF3A2F0 EQ PUSH2 0x4B3 JUMPI DUP1 PUSH4 0xC2B40AE4 EQ PUSH2 0x4BB JUMPI DUP1 PUSH4 0xCC637AFE EQ PUSH2 0x4CE JUMPI DUP1 PUSH4 0xCD87A3B4 EQ PUSH2 0x4FC JUMPI DUP1 PUSH4 0xD328A91E EQ PUSH2 0x504 JUMPI PUSH1 0x0 DUP1 REVERT JUMPDEST DUP1 PUSH4 0x79BA5097 EQ PUSH2 0x45F JUMPI DUP1 PUSH4 0x839DF945 EQ PUSH2 0x467 JUMPI DUP1 PUSH4 0x8DA5CB5B EQ PUSH2 0x48A JUMPI DUP1 PUSH4 0x90EEB02B EQ PUSH2 0x49B JUMPI DUP1 PUSH4 0xBA70F757 EQ PUSH2 0x4AB JUMPI PUSH1 0x0 DUP1 REVERT JUMPDEST DUP1 PUSH4 0x32B2820C GT PUSH2 0x1C9 JUMPI DUP1 PUSH4 0x49703237 GT PUSH2 0x18D JUMPI DUP1 PUSH4 0x49703237 EQ PUSH2 0x3EC JUMPI DUP1 PUSH4 0x4ECF518B EQ PUSH2 0x3F4 JUMPI DUP1 PUSH4 0x59360B55 EQ PUSH2 0x430 JUMPI DUP1 PUSH4 0x61BC221A EQ PUSH2 0x443 JUMPI DUP1 PUSH4 0x6D9833E3 EQ PUSH2 0x44C JUMPI PUSH1 0x0 DUP1 REVERT JUMPDEST DUP1 PUSH4 0x32B2820C EQ PUSH2 0x36C JUMPI DUP1 PUSH4 0x38BF282E EQ PUSH2 0x38C JUMPI DUP1 PUSH4 0x3A20B4E9 EQ PUSH2 0x39F JUMPI DUP1 PUSH4 0x3EEE99AD EQ PUSH2 0x3B2 JUMPI DUP1 PUSH4 0x414A37BA EQ PUSH2 0x3C5 JUMPI PUSH1 0x0 DUP1 REVERT JUMPDEST DUP1 PUSH4 0x22DC7B4C GT PUSH2 0x210 JUMPI DUP1 PUSH4 0x22DC7B4C EQ PUSH2 0x2C5 JUMPI DUP1 PUSH4 0x27714589 EQ PUSH2 0x2F8 JUMPI DUP1 PUSH4 0x2997E86B EQ PUSH2 0x30B JUMPI DUP1 PUSH4 0x2B7AC3F3 EQ PUSH2 0x32E JUMPI DUP1 PUSH4 0x2FC62EAF EQ PUSH2 0x341 JUMPI PUSH1 0x0 DUP1 REVERT JUMPDEST DUP1 PUSH4 0xCA76175 EQ PUSH2 0x242 JUMPI DUP1 PUSH4 0x11456B47 EQ PUSH2 0x257 JUMPI DUP1 PUSH4 0x129116EF EQ PUSH2 0x26A JUMPI DUP1 PUSH4 0x1AA46F59 EQ PUSH2 0x2AE JUMPI JUMPDEST PUSH1 0x0 DUP1 REVERT JUMPDEST PUSH2 0x255 PUSH2 0x250 CALLDATASIZE PUSH1 0x4 PUSH2 0x259C JUMP JUMPDEST PUSH2 0x5EA JUMP JUMPDEST STOP JUMPDEST PUSH2 0x255 PUSH2 0x265 CALLDATASIZE PUSH1 0x4 PUSH2 0x2608 JUMP JUMPDEST PUSH2 0x677 JUMP JUMPDEST PUSH2 0x291 PUSH32 0x0 DUP2 JUMP JUMPDEST PUSH1 0x40 MLOAD PUSH1 0x1 PUSH1 0x1 PUSH1 0xA0 SHL SUB SWAP1 SWAP2 AND DUP2 MSTORE PUSH1 0x20 ADD JUMPDEST PUSH1 0x40 MLOAD DUP1 SWAP2 SUB SWAP1 RETURN JUMPDEST PUSH2 0x2B7 PUSH1 0x6D SLOAD DUP2 JUMP JUMPDEST PUSH1 0x40 MLOAD SWAP1 DUP2 MSTORE PUSH1 0x20 ADD PUSH2 0x2A5 JUMP JUMPDEST PUSH2 0x2E8 PUSH2 0x2D3 CALLDATASIZE PUSH1 0x4 PUSH2 0x263C JUMP JUMPDEST PUSH1 0x0 SWAP1 DUP2 MSTORE PUSH1 0x71 PUSH1 0x20 MSTORE PUSH1 0x40 SWAP1 KECCAK256 SLOAD PUSH1 0xFF AND SWAP1 JUMP JUMPDEST PUSH1 0x40 MLOAD SWAP1 ISZERO ISZERO DUP2 MSTORE PUSH1 0x20 ADD PUSH2 0x2A5 JUMP JUMPDEST PUSH2 0x2B7 PUSH2 0x306 CALLDATASIZE PUSH1 0x4 PUSH2 0x26CD JUMP JUMPDEST PUSH2 0x6E2 JUMP JUMPDEST PUSH2 0x2E8 PUSH2 0x319 CALLDATASIZE PUSH1 0x4 PUSH2 0x263C JUMP JUMPDEST PUSH1 0x71 PUSH1 0x20 MSTORE PUSH1 0x0 SWAP1 DUP2 MSTORE PUSH1 0x40 SWAP1 KECCAK256 SLOAD PUSH1 0xFF AND DUP2 JUMP JUMPDEST PUSH1 0x70 SLOAD PUSH2 0x291 SWAP1 PUSH1 0x1 PUSH1 0x1 PUSH1 0xA0 SHL SUB AND DUP2 JUMP JUMPDEST PUSH2 0x2B7 PUSH2 0x34F CALLDATASIZE PUSH1 0x4 PUSH2 0x2608 JUMP JUMPDEST DUP1 MLOAD PUSH1 0x20 DUP2 DUP4 ADD DUP2 ADD DUP1 MLOAD PUSH1 0x76 DUP3 MSTORE SWAP3 DUP3 ADD SWAP2 SWAP1 SWAP4 ADD KECCAK256 SWAP2 MSTORE SLOAD DUP2 JUMP JUMPDEST PUSH2 0x37F PUSH2 0x37A CALLDATASIZE PUSH1 0x4 PUSH2 0x27B7 JUMP JUMPDEST PUSH2 0x7F0 JUMP JUMPDEST PUSH1 0x40 MLOAD PUSH2 0x2A5 SWAP2 SWAP1 PUSH2 0x2850 JUMP JUMPDEST PUSH2 0x2B7 PUSH2 0x39A CALLDATASIZE PUSH1 0x4 PUSH2 0x2863 JUMP JUMPDEST PUSH2 0x8DB JUMP JUMPDEST PUSH2 0x37F PUSH2 0x3AD CALLDATASIZE PUSH1 0x4 PUSH2 0x2608 JUMP JUMPDEST PUSH2 0xA63 JUMP JUMPDEST PUSH2 0x255 PUSH2 0x3C0 CALLDATASIZE PUSH1 0x4 PUSH2 0x2885 JUMP JUMPDEST PUSH2 0xB08 JUMP JUMPDEST PUSH2 0x2B7 PUSH32 0x30644E72E131A029B85045B68181585D2833E84879B9709143E1F593F0000001 DUP2 JUMP JUMPDEST PUSH2 0x255 PUSH2 0xC58 JUMP JUMPDEST PUSH2 0x41B PUSH32 0x0 DUP2 JUMP JUMPDEST PUSH1 0x40 MLOAD PUSH4 0xFFFFFFFF SWAP1 SWAP2 AND DUP2 MSTORE PUSH1 0x20 ADD PUSH2 0x2A5 JUMP JUMPDEST PUSH2 0x255 PUSH2 0x43E CALLDATASIZE PUSH1 0x4 PUSH2 0x2920 JUMP JUMPDEST PUSH2 0xC95 JUMP JUMPDEST PUSH2 0x2B7 PUSH1 0x77 SLOAD DUP2 JUMP JUMPDEST PUSH2 0x2E8 PUSH2 0x45A CALLDATASIZE PUSH1 0x4 PUSH2 0x263C JUMP JUMPDEST PUSH2 0xEB5 JUMP JUMPDEST PUSH2 0x255 PUSH2 0xF33 JUMP JUMPDEST PUSH2 0x2E8 PUSH2 0x475 CALLDATASIZE PUSH1 0x4 PUSH2 0x263C JUMP JUMPDEST PUSH1 0x72 PUSH1 0x20 MSTORE PUSH1 0x0 SWAP1 DUP2 MSTORE PUSH1 0x40 SWAP1 KECCAK256 SLOAD PUSH1 0xFF AND DUP2 JUMP JUMPDEST PUSH1 0x2 SLOAD PUSH1 0x1 PUSH1 0x1 PUSH1 0xA0 SHL SUB AND PUSH2 0x291 JUMP JUMPDEST PUSH1 0x7 SLOAD PUSH2 0x41B SWAP1 PUSH4 0xFFFFFFFF AND DUP2 JUMP JUMPDEST PUSH2 0x2B7 PUSH2 0xFE1 JUMP JUMPDEST PUSH2 0x37F PUSH2 0x1007 JUMP JUMPDEST PUSH2 0x2B7 PUSH2 0x4C9 CALLDATASIZE PUSH1 0x4 PUSH2 0x263C JUMP JUMPDEST PUSH2 0x1014 JUMP JUMPDEST PUSH2 0x2E8 PUSH2 0x4DC CALLDATASIZE PUSH1 0x4 PUSH2 0x2608 JUMP JUMPDEST DUP1 MLOAD PUSH1 0x20 DUP2 DUP4 ADD DUP2 ADD DUP1 MLOAD PUSH1 0x73 DUP3 MSTORE SWAP3 DUP3 ADD SWAP2 SWAP1 SWAP4 ADD KECCAK256 SWAP2 MSTORE SLOAD PUSH1 0xFF AND DUP2 JUMP JUMPDEST PUSH2 0x41B PUSH1 0x64 DUP2 JUMP JUMPDEST PUSH2 0x37F PUSH2 0x102B JUMP JUMPDEST PUSH2 0x51F PUSH2 0x51A CALLDATASIZE PUSH1 0x4 PUSH2 0x2AF6 JUMP JUMPDEST PUSH2 0x10B0 JUMP JUMPDEST PUSH1 0x40 MLOAD PUSH12 0xFFFFFFFFFFFFFFFFFFFFFFFF SWAP1 SWAP2 AND DUP2 MSTORE PUSH1 0x20 ADD PUSH2 0x2A5 JUMP JUMPDEST PUSH2 0x37F PUSH2 0x54A CALLDATASIZE PUSH1 0x4 PUSH2 0x2608 JUMP JUMPDEST PUSH2 0x1146 JUMP JUMPDEST PUSH2 0x2B7 PUSH2 0x55D CALLDATASIZE PUSH1 0x4 PUSH2 0x263C JUMP JUMPDEST PUSH2 0x116A JUMP JUMPDEST PUSH2 0x255 PUSH2 0x118B JUMP JUMPDEST PUSH2 0x2B7 PUSH32 0x2FE54C60D3ACABF3343A35B6EBA15DB4821B340F76E741E2249685ED4899AF6C DUP2 JUMP JUMPDEST PUSH1 0x4 SLOAD PUSH2 0x291 SWAP1 PUSH1 0x1 PUSH1 0x1 PUSH1 0xA0 SHL SUB AND DUP2 JUMP JUMPDEST PUSH2 0x2B7 PUSH2 0x5B2 CALLDATASIZE PUSH1 0x4 PUSH2 0x263C JUMP JUMPDEST PUSH2 0x1338 JUMP JUMPDEST PUSH2 0x255 PUSH2 0x5C5 CALLDATASIZE PUSH1 0x4 PUSH2 0x2C1C JUMP JUMPDEST PUSH2 0x1348 JUMP JUMPDEST PUSH1 0x7 SLOAD PUSH2 0x41B SWAP1 PUSH5 0x100000000 SWAP1 DIV PUSH4 0xFFFFFFFF AND DUP2 JUMP JUMPDEST PUSH2 0x37F PUSH2 0x135C JUMP JUMPDEST PUSH1 0x0 DUP4 DUP2 MSTORE PUSH1 0x1 PUSH1 0x20 MSTORE PUSH1 0x40 SWAP1 KECCAK256 SLOAD DUP4 SWAP1 PUSH1 0x1 PUSH1 0x1 PUSH1 0xA0 SHL SUB AND CALLER EQ PUSH2 0x623 JUMPI PUSH1 0x40 MLOAD PUSH4 0xA0C5EC63 PUSH1 0xE0 SHL DUP2 MSTORE PUSH1 0x4 ADD PUSH1 0x40 MLOAD DUP1 SWAP2 SUB SWAP1 REVERT JUMPDEST PUSH1 0x0 DUP2 DUP2 MSTORE PUSH1 0x1 PUSH1 0x20 MSTORE PUSH1 0x40 DUP1 DUP3 KECCAK256 DUP1 SLOAD PUSH1 0x1 PUSH1 0x1 PUSH1 0xA0 SHL SUB NOT AND SWAP1 SSTORE MLOAD DUP3 SWAP2 PUSH32 0x85E1543BF2F84FE80C6BADBCE3648C8539AD1DF4D2B3D822938CA0538BE727E6 SWAP2 LOG2 PUSH2 0x671 DUP5 DUP5 DUP5 PUSH2 0x1369 JUMP JUMPDEST POP POP POP POP JUMP JUMPDEST PUSH1 0x1 PUSH1 0x73 DUP3 PUSH1 0x40 MLOAD PUSH2 0x689 SWAP2 SWAP1 PUSH2 0x2C39 JUMP JUMPDEST SWAP1 DUP2 MSTORE PUSH1 0x40 MLOAD SWAP1 DUP2 SWAP1 SUB PUSH1 0x20 ADD DUP2 KECCAK256 DUP1 SLOAD SWAP3 ISZERO ISZERO PUSH1 0xFF NOT SWAP1 SWAP4 AND SWAP3 SWAP1 SWAP3 OR SWAP1 SWAP2 SSTORE PUSH32 0x2578D3CC27AFEA711C20A10A0F61285911C3E03AFCD6F2FA7F871AB9AFFA3512 SWAP1 PUSH2 0x6D7 SWAP1 DUP4 SWAP1 PUSH2 0x2850 JUMP JUMPDEST PUSH1 0x40 MLOAD DUP1 SWAP2 SUB SWAP1 LOG1 POP JUMP JUMPDEST PUSH1 0x0 PUSH2 0x6EC PUSH2 0x1532 JUMP JUMPDEST PUSH2 0x726 PUSH1 0x40 DUP1 MLOAD PUSH1 0xC0 DUP2 ADD SWAP1 SWAP2 MSTORE DUP1 PUSH1 0x0 DUP2 MSTORE PUSH1 0x20 ADD PUSH1 0x0 DUP2 MSTORE PUSH1 0x20 ADD PUSH1 0x0 DUP2 MSTORE PUSH1 0x20 ADD PUSH1 0x60 DUP2 MSTORE PUSH1 0x20 ADD PUSH1 0x60 DUP2 MSTORE PUSH1 0x20 ADD PUSH1 0x60 DUP2 MSTORE POP SWAP1 JUMP JUMPDEST PUSH2 0x76D PUSH1 0x0 DUP1 DUP13 DUP13 DUP1 DUP1 PUSH1 0x1F ADD PUSH1 0x20 DUP1 SWAP2 DIV MUL PUSH1 0x20 ADD PUSH1 0x40 MLOAD SWAP1 DUP2 ADD PUSH1 0x40 MSTORE DUP1 SWAP4 SWAP3 SWAP2 SWAP1 DUP2 DUP2 MSTORE PUSH1 0x20 ADD DUP4 DUP4 DUP1 DUP3 DUP5 CALLDATACOPY PUSH1 0x0 SWAP3 ADD SWAP2 SWAP1 SWAP2 MSTORE POP DUP8 SWAP6 SWAP5 SWAP4 SWAP3 POP POP PUSH2 0x1587 SWAP1 POP JUMP JUMPDEST DUP7 ISZERO PUSH2 0x7B5 JUMPI PUSH2 0x7B5 DUP9 DUP9 DUP1 DUP1 PUSH1 0x1F ADD PUSH1 0x20 DUP1 SWAP2 DIV MUL PUSH1 0x20 ADD PUSH1 0x40 MLOAD SWAP1 DUP2 ADD PUSH1 0x40 MSTORE DUP1 SWAP4 SWAP3 SWAP2 SWAP1 DUP2 DUP2 MSTORE PUSH1 0x20 ADD DUP4 DUP4 DUP1 DUP3 DUP5 CALLDATACOPY PUSH1 0x0 SWAP3 ADD SWAP2 SWAP1 SWAP2 MSTORE POP DUP6 SWAP4 SWAP3 POP POP PUSH2 0x1602 SWAP1 POP JUMP JUMPDEST DUP5 ISZERO PUSH2 0x7CF JUMPI PUSH2 0x7CF PUSH2 0x7C8 DUP7 DUP9 PUSH2 0x2C55 JUMP JUMPDEST DUP3 SWAP1 PUSH2 0x1630 JUMP JUMPDEST PUSH1 0x0 PUSH2 0x7DC DUP3 DUP7 DUP7 PUSH2 0x1657 JUMP JUMPDEST PUSH1 0x6D DUP2 SWAP1 SSTORE SWAP12 SWAP11 POP POP POP POP POP POP POP POP POP POP POP JUMP JUMPDEST PUSH1 0x60 PUSH32 0x0 PUSH1 0x1 PUSH1 0x1 PUSH1 0xA0 SHL SUB AND PUSH4 0xC87B56DD PUSH1 0x76 PUSH1 0x75 DUP7 DUP7 PUSH1 0x40 MLOAD PUSH2 0x835 SWAP3 SWAP2 SWAP1 PUSH2 0x2C62 JUMP JUMPDEST SWAP1 DUP2 MSTORE PUSH1 0x40 MLOAD SWAP1 DUP2 SWAP1 SUB PUSH1 0x20 ADD DUP2 KECCAK256 PUSH2 0x84D SWAP2 PUSH2 0x2CA7 JUMP JUMPDEST SWAP1 DUP2 MSTORE PUSH1 0x40 MLOAD SWAP1 DUP2 SWAP1 SUB PUSH1 0x20 ADD DUP2 KECCAK256 SLOAD PUSH1 0x1 PUSH1 0x1 PUSH1 0xE0 SHL SUB NOT PUSH1 0xE0 DUP5 SWAP1 SHL AND DUP3 MSTORE PUSH2 0x87E SWAP2 PUSH1 0x4 ADD SWAP1 DUP2 MSTORE PUSH1 0x20 ADD SWAP1 JUMP JUMPDEST PUSH1 0x0 PUSH1 0x40 MLOAD DUP1 DUP4 SUB DUP2 DUP7 DUP1 EXTCODESIZE ISZERO DUP1 ISZERO PUSH2 0x896 JUMPI PUSH1 0x0 DUP1 REVERT JUMPDEST POP GAS STATICCALL ISZERO DUP1 ISZERO PUSH2 0x8AA JUMPI RETURNDATASIZE PUSH1 0x0 DUP1 RETURNDATACOPY RETURNDATASIZE PUSH1 0x0 REVERT JUMPDEST POP POP POP POP PUSH1 0x40 MLOAD RETURNDATASIZE PUSH1 0x0 DUP3 RETURNDATACOPY PUSH1 0x1F RETURNDATASIZE SWAP1 DUP2 ADD PUSH1 0x1F NOT AND DUP3 ADD PUSH1 0x40 MSTORE PUSH2 0x8D2 SWAP2 SWAP1 DUP2 ADD SWAP1 PUSH2 0x2D93 JUMP JUMPDEST SWAP1 POP JUMPDEST SWAP3 SWAP2 POP POP JUMP JUMPDEST PUSH1 0x0 PUSH32 0x30644E72E131A029B85045B68181585D2833E84879B9709143E1F593F0000001 DUP4 LT PUSH2 0x951 JUMPI PUSH1 0x40 MLOAD PUSH3 0x461BCD PUSH1 0xE5 SHL DUP2 MSTORE PUSH1 0x20 PUSH1 0x4 DUP3 ADD DUP2 SWAP1 MSTORE PUSH1 0x24 DUP3 ADD MSTORE PUSH32 0x5F6C6566742073686F756C6420626520696E7369646520746865206669656C64 PUSH1 0x44 DUP3 ADD MSTORE PUSH1 0x64 ADD JUMPDEST PUSH1 0x40 MLOAD DUP1 SWAP2 SUB SWAP1 REVERT JUMPDEST PUSH32 0x30644E72E131A029B85045B68181585D2833E84879B9709143E1F593F0000001 DUP3 LT PUSH2 0x9CA JUMPI PUSH1 0x40 MLOAD PUSH3 0x461BCD PUSH1 0xE5 SHL DUP2 MSTORE PUSH1 0x20 PUSH1 0x4 DUP3 ADD MSTORE PUSH1 0x21 PUSH1 0x24 DUP3 ADD MSTORE PUSH32 0x5F72696768742073686F756C6420626520696E7369646520746865206669656C PUSH1 0x44 DUP3 ADD MSTORE PUSH1 0x19 PUSH1 0xFA SHL PUSH1 0x64 DUP3 ADD MSTORE PUSH1 0x84 ADD PUSH2 0x948 JUMP JUMPDEST PUSH1 0x40 DUP1 MLOAD DUP1 DUP3 ADD DUP3 MSTORE DUP5 DUP2 MSTORE PUSH1 0x20 DUP2 ADD DUP5 SWAP1 MSTORE PUSH1 0x4 DUP1 SLOAD SWAP3 MLOAD PUSH4 0x14CF2B3 PUSH1 0xE5 SHL DUP2 MSTORE SWAP2 SWAP3 PUSH1 0x1 PUSH1 0x1 PUSH1 0xA0 SHL SUB AND SWAP2 PUSH4 0x299E5660 SWAP2 PUSH2 0xA0B SWAP2 DUP6 SWAP2 ADD PUSH2 0x2DC7 JUMP JUMPDEST PUSH1 0x20 PUSH1 0x40 MLOAD DUP1 DUP4 SUB DUP2 DUP7 DUP1 EXTCODESIZE ISZERO DUP1 ISZERO PUSH2 0xA23 JUMPI PUSH1 0x0 DUP1 REVERT JUMPDEST POP GAS STATICCALL ISZERO DUP1 ISZERO PUSH2 0xA37 JUMPI RETURNDATASIZE PUSH1 0x0 DUP1 RETURNDATACOPY RETURNDATASIZE PUSH1 0x0 REVERT JUMPDEST POP POP POP POP PUSH1 0x40 MLOAD RETURNDATASIZE PUSH1 0x1F NOT PUSH1 0x1F DUP3 ADD AND DUP3 ADD DUP1 PUSH1 0x40 MSTORE POP DUP2 ADD SWAP1 PUSH2 0xA5B SWAP2 SWAP1 PUSH2 0x2DF8 JUMP JUMPDEST SWAP5 SWAP4 POP POP POP POP JUMP JUMPDEST DUP1 MLOAD PUSH1 0x20 DUP2 DUP4 ADD DUP2 ADD DUP1 MLOAD PUSH1 0x74 DUP3 MSTORE SWAP3 DUP3 ADD SWAP2 SWAP1 SWAP4 ADD KECCAK256 SWAP2 MSTORE DUP1 SLOAD PUSH2 0xA87 SWAP1 PUSH2 0x2C72 JUMP JUMPDEST DUP1 PUSH1 0x1F ADD PUSH1 0x20 DUP1 SWAP2 DIV MUL PUSH1 0x20 ADD PUSH1 0x40 MLOAD SWAP1 DUP2 ADD PUSH1 0x40 MSTORE DUP1 SWAP3 SWAP2 SWAP1 DUP2 DUP2 MSTORE PUSH1 0x20 ADD DUP3 DUP1 SLOAD PUSH2 0xAB3 SWAP1 PUSH2 0x2C72 JUMP JUMPDEST DUP1 ISZERO PUSH2 0xB00 JUMPI DUP1 PUSH1 0x1F LT PUSH2 0xAD5 JUMPI PUSH2 0x100 DUP1 DUP4 SLOAD DIV MUL DUP4 MSTORE SWAP2 PUSH1 0x20 ADD SWAP2 PUSH2 0xB00 JUMP JUMPDEST DUP3 ADD SWAP2 SWAP1 PUSH1 0x0 MSTORE PUSH1 0x20 PUSH1 0x0 KECCAK256 SWAP1 JUMPDEST DUP2 SLOAD DUP2 MSTORE SWAP1 PUSH1 0x1 ADD SWAP1 PUSH1 0x20 ADD DUP1 DUP4 GT PUSH2 0xAE3 JUMPI DUP3 SWAP1 SUB PUSH1 0x1F AND DUP3 ADD SWAP2 JUMPDEST POP POP POP POP POP DUP2 JUMP JUMPDEST PUSH2 0xB10 PUSH2 0x17CB JUMP JUMPDEST DUP2 DUP2 DUP1 DUP1 PUSH1 0x1F ADD PUSH1 0x20 DUP1 SWAP2 DIV MUL PUSH1 0x20 ADD PUSH1 0x40 MLOAD SWAP1 DUP2 ADD PUSH1 0x40 MSTORE DUP1 SWAP4 SWAP3 SWAP2 SWAP1 DUP2 DUP2 MSTORE PUSH1 0x20 ADD DUP4 DUP4 DUP1 DUP3 DUP5 CALLDATACOPY PUSH1 0x0 SWAP3 ADD SWAP2 SWAP1 SWAP2 MSTORE POP POP PUSH1 0x40 MLOAD PUSH1 0x73 SWAP3 POP PUSH2 0xB57 SWAP2 POP DUP4 SWAP1 PUSH2 0x2C39 JUMP JUMPDEST SWAP1 DUP2 MSTORE PUSH1 0x40 MLOAD SWAP1 DUP2 SWAP1 SUB PUSH1 0x20 ADD SWAP1 KECCAK256 SLOAD PUSH1 0xFF AND PUSH2 0xB77 JUMPI PUSH2 0xB77 DUP2 PUSH2 0x677 JUMP JUMPDEST PUSH1 0x0 DUP5 DUP2 MSTORE PUSH1 0x72 PUSH1 0x20 MSTORE PUSH1 0x40 SWAP1 KECCAK256 SLOAD PUSH1 0xFF AND ISZERO PUSH2 0xBD7 JUMPI PUSH1 0x40 MLOAD PUSH4 0x323377D1 PUSH1 0xE0 SHL DUP2 MSTORE PUSH1 0x20 PUSH1 0x4 DUP3 ADD MSTORE PUSH1 0x17 PUSH1 0x24 DUP3 ADD MSTORE PUSH32 0x436F6D6D69746D656E7420616C72656164792075736564000000000000000000 PUSH1 0x44 DUP3 ADD MSTORE PUSH1 0x64 ADD PUSH2 0x948 JUMP JUMPDEST PUSH1 0x0 PUSH2 0xBE2 DUP6 PUSH2 0x1825 JUMP JUMPDEST PUSH1 0x0 DUP7 DUP2 MSTORE PUSH1 0x72 PUSH1 0x20 MSTORE PUSH1 0x40 SWAP1 DUP2 SWAP1 KECCAK256 DUP1 SLOAD PUSH1 0xFF NOT AND PUSH1 0x1 OR SWAP1 SSTORE MLOAD SWAP1 SWAP2 POP PUSH32 0xB78452BC487DC90D6A0A567CF87858DAE69E144C5F299A43ED6964629C219E2A SWAP1 PUSH2 0xC3F SWAP1 DUP8 SWAP1 DUP5 SWAP1 SWAP2 DUP3 MSTORE PUSH4 0xFFFFFFFF AND PUSH1 0x20 DUP3 ADD MSTORE PUSH1 0x40 ADD SWAP1 JUMP JUMPDEST PUSH1 0x40 MLOAD DUP1 SWAP2 SUB SWAP1 LOG1 POP POP PUSH2 0xC53 PUSH1 0x1 PUSH1 0x6C SSTORE JUMP JUMPDEST POP POP POP JUMP JUMPDEST PUSH2 0xC60 PUSH2 0x1A87 JUMP JUMPDEST PUSH1 0x40 MLOAD TIMESTAMP DUP2 MSTORE PUSH32 0x638D0998B62DDDC203DB633372B87AC8B5CB5404842CC56FBBEC87A428008515 SWAP1 PUSH1 0x20 ADD PUSH1 0x40 MLOAD DUP1 SWAP2 SUB SWAP1 LOG1 JUMP JUMPDEST PUSH2 0xC9D PUSH2 0x17CB JUMP JUMPDEST DUP5 PUSH1 0x73 DUP2 PUSH1 0x40 MLOAD PUSH2 0xCAE SWAP2 SWAP1 PUSH2 0x2C39 JUMP JUMPDEST SWAP1 DUP2 MSTORE PUSH1 0x40 MLOAD SWAP1 DUP2 SWAP1 SUB PUSH1 0x20 ADD SWAP1 KECCAK256 SLOAD PUSH1 0xFF AND PUSH2 0xCCE JUMPI PUSH2 0xCCE DUP2 PUSH2 0x677 JUMP JUMPDEST PUSH1 0x0 DUP5 DUP2 MSTORE PUSH1 0x71 PUSH1 0x20 MSTORE PUSH1 0x40 SWAP1 KECCAK256 SLOAD PUSH1 0xFF AND ISZERO PUSH2 0xD27 JUMPI PUSH1 0x40 MLOAD PUSH4 0x3C564AA7 PUSH1 0xE0 SHL DUP2 MSTORE PUSH1 0x20 PUSH1 0x4 DUP3 ADD MSTORE PUSH1 0x16 PUSH1 0x24 DUP3 ADD MSTORE PUSH22 0x139D5B1B1A599A595C88185B1C9958591E481D5CD959 PUSH1 0x52 SHL PUSH1 0x44 DUP3 ADD MSTORE PUSH1 0x64 ADD PUSH2 0x948 JUMP JUMPDEST PUSH2 0xD30 DUP4 PUSH2 0xEB5 JUMP JUMPDEST PUSH2 0xD6E JUMPI PUSH1 0x40 MLOAD PUSH4 0x2D3B0081 PUSH1 0xE2 SHL DUP2 MSTORE PUSH1 0x20 PUSH1 0x4 DUP3 ADD MSTORE PUSH1 0xE PUSH1 0x24 DUP3 ADD MSTORE PUSH14 0x2937B7BA103737BA1035B737BBB7 PUSH1 0x91 SHL PUSH1 0x44 DUP3 ADD MSTORE PUSH1 0x64 ADD PUSH2 0x948 JUMP JUMPDEST PUSH1 0x40 DUP1 MLOAD DUP1 DUP3 ADD DUP3 MSTORE DUP5 DUP2 MSTORE PUSH1 0x20 DUP1 DUP3 ADD DUP8 SWAP1 MSTORE PUSH1 0x70 SLOAD DUP6 MLOAD SWAP2 DUP7 ADD MLOAD DUP7 DUP6 ADD MLOAD SWAP5 MLOAD PUSH4 0x7AE4EB4F PUSH1 0xE1 SHL DUP2 MSTORE SWAP4 SWAP5 PUSH1 0x1 PUSH1 0x1 PUSH1 0xA0 SHL SUB SWAP1 SWAP3 AND SWAP4 PUSH4 0xF5C9D69E SWAP4 PUSH2 0xDC0 SWAP4 SWAP1 SWAP3 SWAP2 DUP8 SWAP1 PUSH1 0x4 ADD PUSH2 0x2E34 JUMP JUMPDEST PUSH1 0x20 PUSH1 0x40 MLOAD DUP1 DUP4 SUB DUP2 PUSH1 0x0 DUP8 DUP1 EXTCODESIZE ISZERO DUP1 ISZERO PUSH2 0xDDA JUMPI PUSH1 0x0 DUP1 REVERT JUMPDEST POP GAS CALL ISZERO DUP1 ISZERO PUSH2 0xDEE JUMPI RETURNDATASIZE PUSH1 0x0 DUP1 RETURNDATACOPY RETURNDATASIZE PUSH1 0x0 REVERT JUMPDEST POP POP POP POP PUSH1 0x40 MLOAD RETURNDATASIZE PUSH1 0x1F NOT PUSH1 0x1F DUP3 ADD AND DUP3 ADD DUP1 PUSH1 0x40 MSTORE POP DUP2 ADD SWAP1 PUSH2 0xE12 SWAP2 SWAP1 PUSH2 0x2E92 JUMP JUMPDEST PUSH2 0xE4F JUMPI PUSH1 0x40 MLOAD PUSH4 0x179F55D7 PUSH1 0xE0 SHL DUP2 MSTORE PUSH1 0x20 PUSH1 0x4 DUP3 ADD MSTORE PUSH1 0xD PUSH1 0x24 DUP3 ADD MSTORE PUSH13 0x24B73B30B634B210383937B7B3 PUSH1 0x99 SHL PUSH1 0x44 DUP3 ADD MSTORE PUSH1 0x64 ADD PUSH2 0x948 JUMP JUMPDEST PUSH1 0x0 DUP6 DUP2 MSTORE PUSH1 0x71 PUSH1 0x20 MSTORE PUSH1 0x40 SWAP1 DUP2 SWAP1 KECCAK256 DUP1 SLOAD PUSH1 0xFF NOT AND PUSH1 0x1 OR SWAP1 SSTORE MLOAD PUSH32 0x8E2C684C78BEE254585736B8C67696A4C4CA8B7BD1F2B3B51F283E649937C72A SWAP1 PUSH2 0xE9A SWAP1 DUP9 SWAP1 DUP9 SWAP1 PUSH2 0x2EB4 JUMP JUMPDEST PUSH1 0x40 MLOAD DUP1 SWAP2 SUB SWAP1 LOG1 POP POP PUSH2 0xEAE PUSH1 0x1 PUSH1 0x6C SSTORE JUMP JUMPDEST POP POP POP POP POP JUMP JUMPDEST PUSH1 0x0 DUP2 PUSH2 0xEC4 JUMPI POP PUSH1 0x0 SWAP2 SWAP1 POP JUMP JUMPDEST PUSH1 0x7 SLOAD PUSH4 0xFFFFFFFF AND JUMPDEST PUSH1 0x8 DUP2 PUSH4 0xFFFFFFFF AND PUSH1 0x64 DUP2 LT PUSH2 0xEE7 JUMPI PUSH2 0xEE7 PUSH2 0x2ED6 JUMP JUMPDEST ADD SLOAD DUP4 EQ ISZERO PUSH2 0xEF9 JUMPI POP PUSH1 0x1 SWAP3 SWAP2 POP POP JUMP JUMPDEST PUSH4 0xFFFFFFFF DUP2 AND PUSH2 0xF08 JUMPI POP PUSH1 0x64 JUMPDEST DUP1 PUSH2 0xF12 DUP2 PUSH2 0x2F02 JUMP JUMPDEST PUSH1 0x7 SLOAD SWAP1 SWAP3 POP PUSH4 0xFFFFFFFF DUP1 DUP5 AND SWAP2 AND EQ ISZERO SWAP1 POP PUSH2 0xECE JUMPI POP PUSH1 0x0 SWAP3 SWAP2 POP POP JUMP JUMPDEST PUSH1 0x3 SLOAD PUSH1 0x1 PUSH1 0x1 PUSH1 0xA0 SHL SUB AND CALLER EQ PUSH2 0xF86 JUMPI PUSH1 0x40 MLOAD PUSH3 0x461BCD PUSH1 0xE5 SHL DUP2 MSTORE PUSH1 0x20 PUSH1 0x4 DUP3 ADD MSTORE PUSH1 0x16 PUSH1 0x24 DUP3 ADD MSTORE PUSH22 0x26BAB9BA10313290383937B837B9B2B21037BBB732B9 PUSH1 0x51 SHL PUSH1 0x44 DUP3 ADD MSTORE PUSH1 0x64 ADD PUSH2 0x948 JUMP JUMPDEST PUSH1 0x2 DUP1 SLOAD PUSH1 0x1 PUSH1 0x1 PUSH1 0xA0 SHL SUB NOT DUP1 DUP3 AND CALLER SWAP1 DUP2 OR SWAP1 SWAP4 SSTORE PUSH1 0x3 DUP1 SLOAD SWAP1 SWAP2 AND SWAP1 SSTORE PUSH1 0x40 MLOAD PUSH1 0x1 PUSH1 0x1 PUSH1 0xA0 SHL SUB SWAP1 SWAP2 AND SWAP2 SWAP1 DUP3 SWAP1 PUSH32 0x8BE0079C531659141344CD1FD0A4F28419497F9722A3DAAFE3B4186F6B6457E0 SWAP1 PUSH1 0x0 SWAP1 LOG3 POP JUMP JUMPDEST PUSH1 0x7 SLOAD PUSH1 0x0 SWAP1 PUSH1 0x8 SWAP1 PUSH4 0xFFFFFFFF AND PUSH1 0x64 DUP2 LT PUSH2 0x1000 JUMPI PUSH2 0x1000 PUSH2 0x2ED6 JUMP JUMPDEST ADD SLOAD SWAP1 POP SWAP1 JUMP JUMPDEST PUSH1 0x6E DUP1 SLOAD PUSH2 0xA87 SWAP1 PUSH2 0x2C72 JUMP JUMPDEST PUSH1 0x8 DUP2 PUSH1 0x64 DUP2 LT PUSH2 0x1024 JUMPI PUSH1 0x0 DUP1 REVERT JUMPDEST ADD SLOAD SWAP1 POP DUP2 JUMP JUMPDEST PUSH1 0x0 DUP1 SLOAD PUSH1 0x40 DUP1 MLOAD PUSH4 0x6994548F PUSH1 0xE1 SHL DUP2 MSTORE SWAP1 MLOAD PUSH1 0x60 SWAP4 PUSH1 0x1 PUSH1 0x1 PUSH1 0xA0 SHL SUB SWAP1 SWAP4 AND SWAP3 PUSH4 0xD328A91E SWAP3 PUSH1 0x4 DUP1 DUP3 ADD SWAP4 SWAP2 DUP3 SWAP1 SUB ADD DUP2 DUP7 DUP1 EXTCODESIZE ISZERO DUP1 ISZERO PUSH2 0x106F JUMPI PUSH1 0x0 DUP1 REVERT JUMPDEST POP GAS STATICCALL ISZERO DUP1 ISZERO PUSH2 0x1083 JUMPI RETURNDATASIZE PUSH1 0x0 DUP1 RETURNDATACOPY RETURNDATASIZE PUSH1 0x0 REVERT JUMPDEST POP POP POP POP PUSH1 0x40 MLOAD RETURNDATASIZE PUSH1 0x0 DUP3 RETURNDATACOPY PUSH1 0x1F RETURNDATASIZE SWAP1 DUP2 ADD PUSH1 0x1F NOT AND DUP3 ADD PUSH1 0x40 MSTORE PUSH2 0x10AB SWAP2 SWAP1 DUP2 ADD SWAP1 PUSH2 0x2F22 JUMP JUMPDEST SWAP1 POP SWAP1 JUMP JUMPDEST PUSH1 0x0 DUP1 SLOAD PUSH1 0x1 PUSH1 0x1 PUSH1 0xA0 SHL SUB AND PUSH4 0xD227D245 DUP6 PUSH2 0x10CC DUP9 PUSH2 0x1C3B JUMP JUMPDEST DUP7 DUP7 PUSH1 0x40 MLOAD DUP6 PUSH4 0xFFFFFFFF AND PUSH1 0xE0 SHL DUP2 MSTORE PUSH1 0x4 ADD PUSH2 0x10ED SWAP5 SWAP4 SWAP3 SWAP2 SWAP1 PUSH2 0x2F6A JUMP JUMPDEST PUSH1 0x20 PUSH1 0x40 MLOAD DUP1 DUP4 SUB DUP2 DUP7 DUP1 EXTCODESIZE ISZERO DUP1 ISZERO PUSH2 0x1105 JUMPI PUSH1 0x0 DUP1 REVERT JUMPDEST POP GAS STATICCALL ISZERO DUP1 ISZERO PUSH2 0x1119 JUMPI RETURNDATASIZE PUSH1 0x0 DUP1 RETURNDATACOPY RETURNDATASIZE PUSH1 0x0 REVERT JUMPDEST POP POP POP POP PUSH1 0x40 MLOAD RETURNDATASIZE PUSH1 0x1F NOT PUSH1 0x1F DUP3 ADD AND DUP3 ADD DUP1 PUSH1 0x40 MSTORE POP DUP2 ADD SWAP1 PUSH2 0x113D SWAP2 SWAP1 PUSH2 0x2FA5 JUMP JUMPDEST SWAP6 SWAP5 POP POP POP POP POP JUMP JUMPDEST DUP1 MLOAD PUSH1 0x20 DUP2 DUP4 ADD DUP2 ADD DUP1 MLOAD PUSH1 0x75 DUP3 MSTORE SWAP3 DUP3 ADD SWAP2 SWAP1 SWAP4 ADD KECCAK256 SWAP2 MSTORE DUP1 SLOAD PUSH2 0xA87 SWAP1 PUSH2 0x2C72 JUMP JUMPDEST PUSH1 0x6 DUP2 DUP2 SLOAD DUP2 LT PUSH2 0x117A JUMPI PUSH1 0x0 DUP1 REVERT JUMPDEST PUSH1 0x0 SWAP2 DUP3 MSTORE PUSH1 0x20 SWAP1 SWAP2 KECCAK256 ADD SLOAD SWAP1 POP DUP2 JUMP JUMPDEST PUSH32 0x0 PUSH1 0x1 PUSH1 0x1 PUSH1 0xA0 SHL SUB AND PUSH4 0xD0DEF521 ADDRESS PUSH32 0x0 PUSH1 0x1 PUSH1 0x1 PUSH1 0xA0 SHL SUB AND PUSH4 0xC87B56DD PUSH32 0x0 PUSH1 0x1 PUSH1 0x1 PUSH1 0xA0 SHL SUB AND PUSH4 0xDBFD4B98 PUSH1 0x40 MLOAD DUP2 PUSH4 0xFFFFFFFF AND PUSH1 0xE0 SHL DUP2 MSTORE PUSH1 0x4 ADD PUSH1 0x20 PUSH1 0x40 MLOAD DUP1 DUP4 SUB DUP2 DUP7 DUP1 EXTCODESIZE ISZERO DUP1 ISZERO PUSH2 0x1243 JUMPI PUSH1 0x0 DUP1 REVERT JUMPDEST POP GAS STATICCALL ISZERO DUP1 ISZERO PUSH2 0x1257 JUMPI RETURNDATASIZE PUSH1 0x0 DUP1 RETURNDATACOPY RETURNDATASIZE PUSH1 0x0 REVERT JUMPDEST POP POP POP POP PUSH1 0x40 MLOAD RETURNDATASIZE PUSH1 0x1F NOT PUSH1 0x1F DUP3 ADD AND DUP3 ADD DUP1 PUSH1 0x40 MSTORE POP DUP2 ADD SWAP1 PUSH2 0x127B SWAP2 SWAP1 PUSH2 0x2DF8 JUMP JUMPDEST PUSH1 0x40 MLOAD DUP3 PUSH4 0xFFFFFFFF AND PUSH1 0xE0 SHL DUP2 MSTORE PUSH1 0x4 ADD PUSH2 0x1299 SWAP2 DUP2 MSTORE PUSH1 0x20 ADD SWAP1 JUMP JUMPDEST PUSH1 0x0 PUSH1 0x40 MLOAD DUP1 DUP4 SUB DUP2 DUP7 DUP1 EXTCODESIZE ISZERO DUP1 ISZERO PUSH2 0x12B1 JUMPI PUSH1 0x0 DUP1 REVERT JUMPDEST POP GAS STATICCALL ISZERO DUP1 ISZERO PUSH2 0x12C5 JUMPI RETURNDATASIZE PUSH1 0x0 DUP1 RETURNDATACOPY RETURNDATASIZE PUSH1 0x0 REVERT JUMPDEST POP POP POP POP PUSH1 0x40 MLOAD RETURNDATASIZE PUSH1 0x0 DUP3 RETURNDATACOPY PUSH1 0x1F RETURNDATASIZE SWAP1 DUP2 ADD PUSH1 0x1F NOT AND DUP3 ADD PUSH1 0x40 MSTORE PUSH2 0x12ED SWAP2 SWAP1 DUP2 ADD SWAP1 PUSH2 0x2D93 JUMP JUMPDEST PUSH1 0x40 MLOAD DUP4 PUSH4 0xFFFFFFFF AND PUSH1 0xE0 SHL DUP2 MSTORE PUSH1 0x4 ADD PUSH2 0x130A SWAP3 SWAP2 SWAP1 PUSH2 0x2FD3 JUMP JUMPDEST PUSH1 0x0 PUSH1 0x40 MLOAD DUP1 DUP4 SUB DUP2 PUSH1 0x0 DUP8 DUP1 EXTCODESIZE ISZERO DUP1 ISZERO PUSH2 0x1324 JUMPI PUSH1 0x0 DUP1 REVERT JUMPDEST POP GAS CALL ISZERO DUP1 ISZERO PUSH2 0x671 JUMPI RETURNDATASIZE PUSH1 0x0 DUP1 RETURNDATACOPY RETURNDATASIZE PUSH1 0x0 REVERT JUMPDEST PUSH1 0x5 DUP2 DUP2 SLOAD DUP2 LT PUSH2 0x117A JUMPI PUSH1 0x0 DUP1 REVERT JUMPDEST PUSH2 0x1350 PUSH2 0x1532 JUMP JUMPDEST PUSH2 0x1359 DUP2 PUSH2 0x1E57 JUMP JUMPDEST POP JUMP JUMPDEST PUSH1 0x6F DUP1 SLOAD PUSH2 0xA87 SWAP1 PUSH2 0x2C72 JUMP JUMPDEST DUP2 MLOAD PUSH2 0x137C SWAP1 PUSH1 0x6E SWAP1 PUSH1 0x20 DUP6 ADD SWAP1 PUSH2 0x237C JUMP JUMPDEST POP DUP1 MLOAD PUSH2 0x1390 SWAP1 PUSH1 0x6F SWAP1 PUSH1 0x20 DUP5 ADD SWAP1 PUSH2 0x237C JUMP JUMPDEST POP DUP3 PUSH32 0x7BAB0EC163B5C132C72B8146AC4D6E067E82ED58F8B131150AA71C9258911562 DUP4 DUP4 PUSH1 0x40 MLOAD PUSH2 0x13C3 SWAP3 SWAP2 SWAP1 PUSH2 0x2FF7 JUMP JUMPDEST PUSH1 0x40 MLOAD DUP1 SWAP2 SUB SWAP1 LOG2 DUP1 MLOAD PUSH2 0xC53 JUMPI PUSH1 0x0 DUP1 PUSH1 0x0 DUP5 DUP1 PUSH1 0x20 ADD SWAP1 MLOAD DUP2 ADD SWAP1 PUSH2 0x13EA SWAP2 SWAP1 PUSH2 0x301C JUMP JUMPDEST SWAP3 POP SWAP3 POP SWAP3 POP DUP3 PUSH1 0x74 DUP3 PUSH1 0x40 MLOAD PUSH2 0x1401 SWAP2 SWAP1 PUSH2 0x2C39 JUMP JUMPDEST SWAP1 DUP2 MSTORE PUSH1 0x20 ADD PUSH1 0x40 MLOAD DUP1 SWAP2 SUB SWAP1 KECCAK256 SWAP1 DUP1 MLOAD SWAP1 PUSH1 0x20 ADD SWAP1 PUSH2 0x1422 SWAP3 SWAP2 SWAP1 PUSH2 0x237C JUMP JUMPDEST POP DUP2 PUSH1 0x75 DUP3 PUSH1 0x40 MLOAD PUSH2 0x1434 SWAP2 SWAP1 PUSH2 0x2C39 JUMP JUMPDEST SWAP1 DUP2 MSTORE PUSH1 0x20 ADD PUSH1 0x40 MLOAD DUP1 SWAP2 SUB SWAP1 KECCAK256 SWAP1 DUP1 MLOAD SWAP1 PUSH1 0x20 ADD SWAP1 PUSH2 0x1455 SWAP3 SWAP2 SWAP1 PUSH2 0x237C JUMP JUMPDEST POP PUSH1 0x0 PUSH1 0x77 SLOAD SWAP1 POP PUSH32 0x0 PUSH1 0x1 PUSH1 0x1 PUSH1 0xA0 SHL SUB AND PUSH4 0xDBFD4B98 PUSH1 0x40 MLOAD DUP2 PUSH4 0xFFFFFFFF AND PUSH1 0xE0 SHL DUP2 MSTORE PUSH1 0x4 ADD PUSH1 0x20 PUSH1 0x40 MLOAD DUP1 DUP4 SUB DUP2 DUP7 DUP1 EXTCODESIZE ISZERO DUP1 ISZERO PUSH2 0x14B6 JUMPI PUSH1 0x0 DUP1 REVERT JUMPDEST POP GAS STATICCALL ISZERO DUP1 ISZERO PUSH2 0x14CA JUMPI RETURNDATASIZE PUSH1 0x0 DUP1 RETURNDATACOPY RETURNDATASIZE PUSH1 0x0 REVERT JUMPDEST POP POP POP POP PUSH1 0x40 MLOAD RETURNDATASIZE PUSH1 0x1F NOT PUSH1 0x1F DUP3 ADD AND DUP3 ADD DUP1 PUSH1 0x40 MSTORE POP DUP2 ADD SWAP1 PUSH2 0x14EE SWAP2 SWAP1 PUSH2 0x2DF8 JUMP JUMPDEST DUP2 LT ISZERO PUSH2 0x1529 JUMPI DUP1 PUSH1 0x76 DUP5 PUSH1 0x40 MLOAD PUSH2 0x1506 SWAP2 SWAP1 PUSH2 0x2C39 JUMP JUMPDEST SWAP1 DUP2 MSTORE PUSH1 0x40 MLOAD SWAP1 DUP2 SWAP1 SUB PUSH1 0x20 ADD SWAP1 KECCAK256 SSTORE DUP1 PUSH2 0x1520 DUP2 PUSH2 0x3099 JUMP JUMPDEST PUSH1 0x77 DUP2 SWAP1 SSTORE SWAP2 POP POP JUMPDEST POP POP POP POP POP POP POP JUMP JUMPDEST PUSH1 0x2 SLOAD PUSH1 0x1 PUSH1 0x1 PUSH1 0xA0 SHL SUB AND CALLER EQ PUSH2 0x1585 JUMPI PUSH1 0x40 MLOAD PUSH3 0x461BCD PUSH1 0xE5 SHL DUP2 MSTORE PUSH1 0x20 PUSH1 0x4 DUP3 ADD MSTORE PUSH1 0x16 PUSH1 0x24 DUP3 ADD MSTORE PUSH22 0x27B7363C9031B0B63630B1363290313C9037BBB732B9 PUSH1 0x51 SHL PUSH1 0x44 DUP3 ADD MSTORE PUSH1 0x64 ADD PUSH2 0x948 JUMP JUMPDEST JUMP JUMPDEST DUP1 MLOAD PUSH2 0x15A6 JUMPI PUSH1 0x40 MLOAD PUSH4 0x22CE3EDD PUSH1 0xE0 SHL DUP2 MSTORE PUSH1 0x4 ADD PUSH1 0x40 MLOAD DUP1 SWAP2 SUB SWAP1 REVERT JUMPDEST DUP4 DUP4 PUSH1 0x1 DUP2 GT ISZERO PUSH2 0x15B9 JUMPI PUSH2 0x15B9 PUSH2 0x30B4 JUMP JUMPDEST SWAP1 DUP2 PUSH1 0x1 DUP2 GT ISZERO PUSH2 0x15CC JUMPI PUSH2 0x15CC PUSH2 0x30B4 JUMP JUMPDEST SWAP1 MSTORE POP PUSH1 0x40 DUP5 ADD DUP3 DUP1 ISZERO PUSH2 0x15E2 JUMPI PUSH2 0x15E2 PUSH2 0x30B4 JUMP JUMPDEST SWAP1 DUP2 DUP1 ISZERO PUSH2 0x15F2 JUMPI PUSH2 0x15F2 PUSH2 0x30B4 JUMP JUMPDEST SWAP1 MSTORE POP PUSH1 0x60 SWAP1 SWAP4 ADD SWAP3 SWAP1 SWAP3 MSTORE POP POP JUMP JUMPDEST DUP1 MLOAD PUSH2 0x1621 JUMPI PUSH1 0x40 MLOAD PUSH4 0xE889636F PUSH1 0xE0 SHL DUP2 MSTORE PUSH1 0x4 ADD PUSH1 0x40 MLOAD DUP1 SWAP2 SUB SWAP1 REVERT JUMPDEST PUSH1 0x1 PUSH1 0x20 DUP4 ADD MSTORE PUSH1 0x80 SWAP1 SWAP2 ADD MSTORE JUMP JUMPDEST DUP1 MLOAD PUSH2 0x164F JUMPI PUSH1 0x40 MLOAD PUSH4 0xFE936CB7 PUSH1 0xE0 SHL DUP2 MSTORE PUSH1 0x4 ADD PUSH1 0x40 MLOAD DUP1 SWAP2 SUB SWAP1 REVERT JUMPDEST PUSH1 0xA0 SWAP1 SWAP2 ADD MSTORE JUMP JUMPDEST PUSH1 0x0 DUP1 SLOAD DUP2 SWAP1 PUSH1 0x1 PUSH1 0x1 PUSH1 0xA0 SHL SUB AND PUSH4 0x28242B04 DUP6 PUSH2 0x1675 DUP9 PUSH2 0x1C3B JUMP JUMPDEST DUP7 PUSH1 0x40 MLOAD DUP5 PUSH4 0xFFFFFFFF AND PUSH1 0xE0 SHL DUP2 MSTORE PUSH1 0x4 ADD PUSH2 0x1694 SWAP4 SWAP3 SWAP2 SWAP1 PUSH2 0x30CA JUMP JUMPDEST PUSH1 0x20 PUSH1 0x40 MLOAD DUP1 DUP4 SUB DUP2 PUSH1 0x0 DUP8 DUP1 EXTCODESIZE ISZERO DUP1 ISZERO PUSH2 0x16AE JUMPI PUSH1 0x0 DUP1 REVERT JUMPDEST POP GAS CALL ISZERO DUP1 ISZERO PUSH2 0x16C2 JUMPI RETURNDATASIZE PUSH1 0x0 DUP1 RETURNDATACOPY RETURNDATASIZE PUSH1 0x0 REVERT JUMPDEST POP POP POP POP PUSH1 0x40 MLOAD RETURNDATASIZE PUSH1 0x1F NOT PUSH1 0x1F DUP3 ADD AND DUP3 ADD DUP1 PUSH1 0x40 MSTORE POP DUP2 ADD SWAP1 PUSH2 0x16E6 SWAP2 SWAP1 PUSH2 0x2DF8 JUMP JUMPDEST SWAP1 POP PUSH1 0x0 DUP1 SLOAD SWAP1 PUSH2 0x100 EXP SWAP1 DIV PUSH1 0x1 PUSH1 0x1 PUSH1 0xA0 SHL SUB AND PUSH1 0x1 PUSH1 0x1 PUSH1 0xA0 SHL SUB AND PUSH4 0x5AB1BD53 PUSH1 0x40 MLOAD DUP2 PUSH4 0xFFFFFFFF AND PUSH1 0xE0 SHL DUP2 MSTORE PUSH1 0x4 ADD PUSH1 0x20 PUSH1 0x40 MLOAD DUP1 DUP4 SUB DUP2 DUP7 DUP1 EXTCODESIZE ISZERO DUP1 ISZERO PUSH2 0x1734 JUMPI PUSH1 0x0 DUP1 REVERT JUMPDEST POP GAS STATICCALL ISZERO DUP1 ISZERO PUSH2 0x1748 JUMPI RETURNDATASIZE PUSH1 0x0 DUP1 RETURNDATACOPY RETURNDATASIZE PUSH1 0x0 REVERT JUMPDEST POP POP POP POP PUSH1 0x40 MLOAD RETURNDATASIZE PUSH1 0x1F NOT PUSH1 0x1F DUP3 ADD AND DUP3 ADD DUP1 PUSH1 0x40 MSTORE POP DUP2 ADD SWAP1 PUSH2 0x176C SWAP2 SWAP1 PUSH2 0x3102 JUMP JUMPDEST PUSH1 0x0 DUP3 DUP2 MSTORE PUSH1 0x1 PUSH1 0x20 MSTORE PUSH1 0x40 DUP1 DUP3 KECCAK256 DUP1 SLOAD PUSH1 0x1 PUSH1 0x1 PUSH1 0xA0 SHL SUB NOT AND PUSH1 0x1 PUSH1 0x1 PUSH1 0xA0 SHL SUB SWAP5 SWAP1 SWAP5 AND SWAP4 SWAP1 SWAP4 OR SWAP1 SWAP3 SSTORE SWAP1 MLOAD DUP3 SWAP2 PUSH32 0x1131472297A800FEE664D1D89CFA8F7676FF07189ECC53F80BBB5F4969099DB8 SWAP2 LOG2 SWAP1 POP JUMPDEST SWAP4 SWAP3 POP POP POP JUMP JUMPDEST PUSH1 0x2 PUSH1 0x6C SLOAD EQ ISZERO PUSH2 0x181E JUMPI PUSH1 0x40 MLOAD PUSH3 0x461BCD PUSH1 0xE5 SHL DUP2 MSTORE PUSH1 0x20 PUSH1 0x4 DUP3 ADD MSTORE PUSH1 0x1F PUSH1 0x24 DUP3 ADD MSTORE PUSH32 0x5265656E7472616E637947756172643A207265656E7472616E742063616C6C00 PUSH1 0x44 DUP3 ADD MSTORE PUSH1 0x64 ADD PUSH2 0x948 JUMP JUMPDEST PUSH1 0x2 PUSH1 0x6C SSTORE JUMP JUMPDEST PUSH1 0x7 SLOAD PUSH1 0x0 SWAP1 PUSH5 0x100000000 SWAP1 DIV PUSH4 0xFFFFFFFF AND PUSH2 0x1864 PUSH32 0x0 PUSH1 0x2 PUSH2 0x3203 JUMP JUMPDEST DUP2 PUSH4 0xFFFFFFFF AND LT PUSH2 0x18D1 JUMPI PUSH1 0x40 MLOAD PUSH4 0xD7E8473F PUSH1 0xE0 SHL DUP2 MSTORE PUSH1 0x20 PUSH1 0x4 DUP3 ADD MSTORE PUSH1 0x2F PUSH1 0x24 DUP3 ADD MSTORE PUSH32 0x4D65726B6C6520747265652069732066756C6C2E204E6F206D6F7265206C6561 PUSH1 0x44 DUP3 ADD MSTORE PUSH15 0x199CC818D85B881899481859191959 PUSH1 0x8A SHL PUSH1 0x64 DUP3 ADD MSTORE PUSH1 0x84 ADD PUSH2 0x948 JUMP JUMPDEST PUSH1 0x1 PUSH1 0x7 PUSH1 0x4 DUP3 DUP3 DUP3 SWAP1 SLOAD SWAP1 PUSH2 0x100 EXP SWAP1 DIV PUSH4 0xFFFFFFFF AND PUSH2 0x18F3 SWAP2 SWAP1 PUSH2 0x3215 JUMP JUMPDEST SWAP3 POP PUSH2 0x100 EXP DUP2 SLOAD DUP2 PUSH4 0xFFFFFFFF MUL NOT AND SWAP1 DUP4 PUSH4 0xFFFFFFFF AND MUL OR SWAP1 SSTORE POP PUSH1 0x0 DUP4 SWAP1 POP PUSH1 0x0 DUP1 PUSH1 0x0 JUMPDEST PUSH32 0x0 PUSH4 0xFFFFFFFF AND DUP2 PUSH4 0xFFFFFFFF AND LT ISZERO PUSH2 0x1A0E JUMPI PUSH2 0x195B PUSH1 0x2 DUP7 PUSH2 0x3253 JUMP JUMPDEST PUSH4 0xFFFFFFFF AND PUSH2 0x19B9 JUMPI DUP4 SWAP3 POP PUSH1 0x6 DUP2 PUSH4 0xFFFFFFFF AND DUP2 SLOAD DUP2 LT PUSH2 0x1981 JUMPI PUSH2 0x1981 PUSH2 0x2ED6 JUMP JUMPDEST SWAP1 PUSH1 0x0 MSTORE PUSH1 0x20 PUSH1 0x0 KECCAK256 ADD SLOAD SWAP2 POP DUP4 PUSH1 0x5 DUP3 PUSH4 0xFFFFFFFF AND DUP2 SLOAD DUP2 LT PUSH2 0x19A8 JUMPI PUSH2 0x19A8 PUSH2 0x2ED6 JUMP JUMPDEST PUSH1 0x0 SWAP2 DUP3 MSTORE PUSH1 0x20 SWAP1 SWAP2 KECCAK256 ADD SSTORE PUSH2 0x19E3 JUMP JUMPDEST PUSH1 0x5 DUP2 PUSH4 0xFFFFFFFF AND DUP2 SLOAD DUP2 LT PUSH2 0x19D2 JUMPI PUSH2 0x19D2 PUSH2 0x2ED6 JUMP JUMPDEST SWAP1 PUSH1 0x0 MSTORE PUSH1 0x20 PUSH1 0x0 KECCAK256 ADD SLOAD SWAP3 POP DUP4 SWAP2 POP JUMPDEST PUSH2 0x19ED DUP4 DUP4 PUSH2 0x8DB JUMP JUMPDEST SWAP4 POP PUSH2 0x19FA PUSH1 0x2 DUP7 PUSH2 0x3276 JUMP JUMPDEST SWAP5 POP DUP1 PUSH2 0x1A06 DUP2 PUSH2 0x3299 JUMP JUMPDEST SWAP2 POP POP PUSH2 0x191C JUMP JUMPDEST POP PUSH1 0x7 SLOAD PUSH1 0x64 SWAP1 PUSH2 0x1A26 SWAP1 PUSH4 0xFFFFFFFF AND PUSH1 0x1 PUSH2 0x3215 JUMP JUMPDEST PUSH2 0x1A30 SWAP2 SWAP1 PUSH2 0x3253 JUMP JUMPDEST PUSH1 0x7 DUP1 SLOAD PUSH4 0xFFFFFFFF NOT AND PUSH4 0xFFFFFFFF SWAP3 SWAP1 SWAP3 AND SWAP2 DUP3 OR SWAP1 SSTORE DUP4 SWAP1 PUSH1 0x8 SWAP1 PUSH1 0x64 DUP2 LT PUSH2 0x1A5E JUMPI PUSH2 0x1A5E PUSH2 0x2ED6 JUMP JUMPDEST ADD SSTORE PUSH1 0x7 SLOAD PUSH2 0x1A7D SWAP1 PUSH1 0x1 SWAP1 PUSH5 0x100000000 SWAP1 DIV PUSH4 0xFFFFFFFF AND PUSH2 0x32BD JUMP JUMPDEST SWAP7 SWAP6 POP POP POP POP POP POP JUMP JUMPDEST PUSH2 0x1A93 PUSH1 0x5 PUSH1 0x0 PUSH2 0x2400 JUMP JUMPDEST PUSH2 0x1A9F PUSH1 0x6 PUSH1 0x0 PUSH2 0x2400 JUMP JUMPDEST PUSH1 0x40 DUP1 MLOAD PUSH1 0x0 DUP2 MSTORE PUSH1 0x20 DUP2 ADD SWAP2 DUP3 SWAP1 MSTORE MLOAD PUSH2 0x1ABC SWAP2 PUSH1 0x5 SWAP2 PUSH2 0x241E JUMP JUMPDEST POP PUSH1 0x40 DUP1 MLOAD PUSH1 0x0 DUP2 MSTORE PUSH1 0x20 DUP2 ADD SWAP2 DUP3 SWAP1 MSTORE MLOAD PUSH2 0x1ADA SWAP2 PUSH1 0x6 SWAP2 PUSH2 0x241E JUMP JUMPDEST POP PUSH1 0x7 DUP1 SLOAD PUSH8 0xFFFFFFFFFFFFFFFF NOT AND SWAP1 SSTORE PUSH1 0x6 DUP1 SLOAD PUSH1 0x1 DUP2 DUP2 ADD SWAP1 SWAP3 SSTORE PUSH32 0x2FE54C60D3ACABF3343A35B6EBA15DB4821B340F76E741E2249685ED4899AF6C PUSH32 0xF652222313E28459528D920B65115C16C04F3EFC82AAEDC97BE59F3F377C0D3F SWAP1 SWAP2 ADD DUP2 SWAP1 SSTORE PUSH1 0x5 DUP1 SLOAD DUP1 DUP5 ADD DUP3 SSTORE PUSH1 0x0 SWAP2 SWAP1 SWAP2 MSTORE PUSH32 0x36B6384B5ECA791C62761152D0C79BB0604C104A5FB6F4EB0703F3154BB3DB0 ADD DUP2 SWAP1 SSTORE SWAP1 JUMPDEST PUSH32 0x0 PUSH4 0xFFFFFFFF AND DUP2 PUSH4 0xFFFFFFFF AND LT ISZERO PUSH2 0x1C2A JUMPI PUSH2 0x1BB4 DUP3 DUP4 PUSH2 0x8DB JUMP JUMPDEST PUSH1 0x6 DUP1 SLOAD PUSH1 0x1 DUP2 DUP2 ADD SWAP1 SWAP3 SSTORE PUSH32 0xF652222313E28459528D920B65115C16C04F3EFC82AAEDC97BE59F3F377C0D3F ADD DUP3 SWAP1 SSTORE PUSH1 0x5 DUP1 SLOAD SWAP2 DUP3 ADD DUP2 SSTORE PUSH1 0x0 MSTORE PUSH32 0x36B6384B5ECA791C62761152D0C79BB0604C104A5FB6F4EB0703F3154BB3DB0 ADD DUP2 SWAP1 SSTORE SWAP2 POP DUP1 PUSH2 0x1C22 DUP2 PUSH2 0x3299 JUMP JUMPDEST SWAP2 POP POP PUSH2 0x1B76 JUMP JUMPDEST POP PUSH2 0x1C35 DUP2 DUP3 PUSH2 0x8DB JUMP JUMPDEST PUSH1 0x8 SSTORE POP JUMP JUMPDEST PUSH1 0x60 PUSH2 0x1C5A PUSH1 0x40 MLOAD DUP1 PUSH1 0x40 ADD PUSH1 0x40 MSTORE DUP1 PUSH1 0x60 DUP2 MSTORE PUSH1 0x20 ADD PUSH1 0x0 DUP2 MSTORE POP SWAP1 JUMP JUMPDEST PUSH2 0x1C66 DUP2 PUSH2 0x100 PUSH2 0x1F02 JUMP JUMPDEST POP PUSH1 0x40 DUP1 MLOAD DUP1 DUP3 ADD SWAP1 SWAP2 MSTORE PUSH1 0xC DUP2 MSTORE PUSH12 0x31B7B232A637B1B0BA34B7B7 PUSH1 0xA1 SHL PUSH1 0x20 DUP3 ADD MSTORE PUSH2 0x1C95 SWAP1 DUP3 SWAP1 PUSH2 0x1F67 JUMP JUMPDEST DUP3 MLOAD PUSH2 0x1CB3 SWAP1 PUSH1 0x1 DUP2 GT ISZERO PUSH2 0x1CAC JUMPI PUSH2 0x1CAC PUSH2 0x30B4 JUMP JUMPDEST DUP3 SWAP1 PUSH2 0x1F7E JUMP JUMPDEST PUSH1 0x40 DUP1 MLOAD DUP1 DUP3 ADD SWAP1 SWAP2 MSTORE PUSH1 0x8 DUP2 MSTORE PUSH8 0x6C616E6775616765 PUSH1 0xC0 SHL PUSH1 0x20 DUP3 ADD MSTORE PUSH2 0x1CDD SWAP1 DUP3 SWAP1 PUSH2 0x1F67 JUMP JUMPDEST PUSH1 0x40 DUP4 ADD MLOAD PUSH2 0x1CF4 SWAP1 DUP1 ISZERO PUSH2 0x1CAC JUMPI PUSH2 0x1CAC PUSH2 0x30B4 JUMP JUMPDEST PUSH1 0x40 DUP1 MLOAD DUP1 DUP3 ADD SWAP1 SWAP2 MSTORE PUSH1 0x6 DUP2 MSTORE PUSH6 0x736F75726365 PUSH1 0xD0 SHL PUSH1 0x20 DUP3 ADD MSTORE PUSH2 0x1D1C SWAP1 DUP3 SWAP1 PUSH2 0x1F67 JUMP JUMPDEST PUSH1 0x60 DUP4 ADD MLOAD PUSH2 0x1D2C SWAP1 DUP3 SWAP1 PUSH2 0x1F67 JUMP JUMPDEST PUSH1 0xA0 DUP4 ADD MLOAD MLOAD ISZERO PUSH2 0x1DC2 JUMPI PUSH1 0x40 DUP1 MLOAD DUP1 DUP3 ADD SWAP1 SWAP2 MSTORE PUSH1 0x4 DUP2 MSTORE PUSH4 0x61726773 PUSH1 0xE0 SHL PUSH1 0x20 DUP3 ADD MSTORE PUSH2 0x1D5D SWAP1 DUP3 SWAP1 PUSH2 0x1F67 JUMP JUMPDEST PUSH2 0x1D66 DUP2 PUSH2 0x1FA7 JUMP JUMPDEST PUSH1 0x0 JUMPDEST DUP4 PUSH1 0xA0 ADD MLOAD MLOAD DUP2 LT ISZERO PUSH2 0x1DB8 JUMPI PUSH2 0x1DA6 DUP5 PUSH1 0xA0 ADD MLOAD DUP3 DUP2 MLOAD DUP2 LT PUSH2 0x1D8F JUMPI PUSH2 0x1D8F PUSH2 0x2ED6 JUMP JUMPDEST PUSH1 0x20 MUL PUSH1 0x20 ADD ADD MLOAD DUP4 PUSH2 0x1F67 SWAP1 SWAP2 SWAP1 PUSH4 0xFFFFFFFF AND JUMP JUMPDEST DUP1 PUSH2 0x1DB0 DUP2 PUSH2 0x3099 JUMP JUMPDEST SWAP2 POP POP PUSH2 0x1D69 JUMP JUMPDEST POP PUSH2 0x1DC2 DUP2 PUSH2 0x1FB2 JUMP JUMPDEST PUSH1 0x80 DUP4 ADD MLOAD MLOAD ISZERO PUSH2 0x1E50 JUMPI PUSH1 0x40 DUP1 MLOAD DUP1 DUP3 ADD SWAP1 SWAP2 MSTORE PUSH1 0xF DUP2 MSTORE PUSH15 0x39B2B1B932BA39A637B1B0BA34B7B7 PUSH1 0x89 SHL PUSH1 0x20 DUP3 ADD MSTORE PUSH2 0x1DFE SWAP1 DUP3 SWAP1 PUSH2 0x1F67 JUMP JUMPDEST PUSH2 0x1E17 DUP4 PUSH1 0x20 ADD MLOAD PUSH1 0x1 DUP2 GT ISZERO PUSH2 0x1CAC JUMPI PUSH2 0x1CAC PUSH2 0x30B4 JUMP JUMPDEST PUSH1 0x40 DUP1 MLOAD DUP1 DUP3 ADD SWAP1 SWAP2 MSTORE PUSH1 0x7 DUP2 MSTORE PUSH7 0x73656372657473 PUSH1 0xC8 SHL PUSH1 0x20 DUP3 ADD MSTORE PUSH2 0x1E40 SWAP1 DUP3 SWAP1 PUSH2 0x1F67 JUMP JUMPDEST PUSH1 0x80 DUP4 ADD MLOAD PUSH2 0x1E50 SWAP1 DUP3 SWAP1 PUSH2 0x1FBD JUMP JUMPDEST MLOAD SWAP3 SWAP2 POP POP JUMP JUMPDEST PUSH1 0x1 PUSH1 0x1 PUSH1 0xA0 SHL SUB DUP2 AND CALLER EQ ISZERO PUSH2 0x1EB0 JUMPI PUSH1 0x40 MLOAD PUSH3 0x461BCD PUSH1 0xE5 SHL DUP2 MSTORE PUSH1 0x20 PUSH1 0x4 DUP3 ADD MSTORE PUSH1 0x17 PUSH1 0x24 DUP3 ADD MSTORE PUSH32 0x43616E6E6F74207472616E7366657220746F2073656C66000000000000000000 PUSH1 0x44 DUP3 ADD MSTORE PUSH1 0x64 ADD PUSH2 0x948 JUMP JUMPDEST PUSH1 0x3 DUP1 SLOAD PUSH1 0x1 PUSH1 0x1 PUSH1 0xA0 SHL SUB NOT AND PUSH1 0x1 PUSH1 0x1 PUSH1 0xA0 SHL SUB DUP4 DUP2 AND SWAP2 DUP3 OR SWAP1 SWAP3 SSTORE PUSH1 0x2 SLOAD PUSH1 0x40 MLOAD SWAP2 SWAP3 AND SWAP1 PUSH32 0xED8889F560326EB138920D842192F0EB3DD22B4F139C87A2C57538E05BAE1278 SWAP1 PUSH1 0x0 SWAP1 LOG3 POP JUMP JUMPDEST PUSH1 0x40 DUP1 MLOAD DUP1 DUP3 ADD SWAP1 SWAP2 MSTORE PUSH1 0x60 DUP2 MSTORE PUSH1 0x0 PUSH1 0x20 DUP3 ADD MSTORE PUSH2 0x1F22 PUSH1 0x20 DUP4 PUSH2 0x32E2 JUMP JUMPDEST ISZERO PUSH2 0x1F4A JUMPI PUSH2 0x1F32 PUSH1 0x20 DUP4 PUSH2 0x32E2 JUMP JUMPDEST PUSH2 0x1F3D SWAP1 PUSH1 0x20 PUSH2 0x32F6 JUMP JUMPDEST PUSH2 0x1F47 SWAP1 DUP4 PUSH2 0x330D JUMP JUMPDEST SWAP2 POP JUMPDEST POP PUSH1 0x20 DUP3 DUP2 ADD DUP3 SWAP1 MSTORE PUSH1 0x40 DUP1 MLOAD DUP1 DUP6 MSTORE PUSH1 0x0 DUP2 MSTORE SWAP1 SWAP3 ADD ADD SWAP1 MSTORE SWAP1 JUMP JUMPDEST PUSH2 0x1F74 DUP3 PUSH1 0x3 DUP4 MLOAD PUSH2 0x1FC6 JUMP JUMPDEST PUSH2 0xC53 DUP3 DUP3 PUSH2 0x20CD JUMP JUMPDEST PUSH1 0x1 PUSH1 0x1 PUSH1 0x40 SHL SUB DUP2 GT ISZERO PUSH2 0x1F9B JUMPI PUSH2 0x1F97 DUP3 DUP3 PUSH2 0x20F4 JUMP JUMPDEST POP POP JUMP JUMPDEST PUSH2 0x1F97 DUP3 PUSH1 0x0 DUP4 PUSH2 0x1FC6 JUMP JUMPDEST PUSH2 0x1359 DUP2 PUSH1 0x4 PUSH2 0x212B JUMP JUMPDEST PUSH2 0x1359 DUP2 PUSH1 0x7 PUSH2 0x212B JUMP JUMPDEST PUSH2 0x1F74 DUP3 PUSH1 0x2 DUP4 MLOAD JUMPDEST PUSH1 0x17 DUP2 PUSH1 0x1 PUSH1 0x1 PUSH1 0x40 SHL SUB AND GT PUSH2 0x1FEA JUMPI PUSH2 0x671 DUP4 PUSH1 0xE0 PUSH1 0x5 DUP6 SWAP1 SHL AND DUP4 OR PUSH2 0x213C JUMP JUMPDEST PUSH1 0xFF DUP2 PUSH1 0x1 PUSH1 0x1 PUSH1 0x40 SHL SUB AND GT PUSH2 0x2026 JUMPI PUSH2 0x2010 DUP4 PUSH1 0x18 PUSH2 0x1FE0 PUSH1 0x5 DUP7 SWAP1 SHL AND OR PUSH2 0x213C JUMP JUMPDEST POP PUSH2 0x671 DUP4 PUSH1 0x1 PUSH1 0x1 PUSH1 0x40 SHL SUB DUP4 AND PUSH1 0x1 PUSH2 0x2161 JUMP JUMPDEST PUSH2 0xFFFF DUP2 PUSH1 0x1 PUSH1 0x1 PUSH1 0x40 SHL SUB AND GT PUSH2 0x2063 JUMPI PUSH2 0x204D DUP4 PUSH1 0x19 PUSH2 0x1FE0 PUSH1 0x5 DUP7 SWAP1 SHL AND OR PUSH2 0x213C JUMP JUMPDEST POP PUSH2 0x671 DUP4 PUSH1 0x1 PUSH1 0x1 PUSH1 0x40 SHL SUB DUP4 AND PUSH1 0x2 PUSH2 0x2161 JUMP JUMPDEST PUSH4 0xFFFFFFFF DUP2 PUSH1 0x1 PUSH1 0x1 PUSH1 0x40 SHL SUB AND GT PUSH2 0x20A2 JUMPI PUSH2 0x208C DUP4 PUSH1 0x1A PUSH2 0x1FE0 PUSH1 0x5 DUP7 SWAP1 SHL AND OR PUSH2 0x213C JUMP JUMPDEST POP PUSH2 0x671 DUP4 PUSH1 0x1 PUSH1 0x1 PUSH1 0x40 SHL SUB DUP4 AND PUSH1 0x4 PUSH2 0x2161 JUMP JUMPDEST PUSH2 0x20B7 DUP4 PUSH1 0x1B PUSH2 0x1FE0 PUSH1 0x5 DUP7 SWAP1 SHL AND OR PUSH2 0x213C JUMP JUMPDEST POP PUSH2 0x671 DUP4 PUSH1 0x1 PUSH1 0x1 PUSH1 0x40 SHL SUB DUP4 AND PUSH1 0x8 PUSH2 0x2161 JUMP JUMPDEST PUSH1 0x40 DUP1 MLOAD DUP1 DUP3 ADD SWAP1 SWAP2 MSTORE PUSH1 0x60 DUP2 MSTORE PUSH1 0x0 PUSH1 0x20 DUP3 ADD MSTORE PUSH2 0x8D2 DUP4 DUP5 PUSH1 0x0 ADD MLOAD MLOAD DUP5 DUP6 MLOAD PUSH2 0x2187 JUMP JUMPDEST PUSH2 0x20FF DUP3 PUSH1 0xC2 PUSH2 0x213C JUMP JUMPDEST POP PUSH2 0x1F97 DUP3 DUP3 PUSH1 0x40 MLOAD PUSH1 0x20 ADD PUSH2 0x2117 SWAP2 DUP2 MSTORE PUSH1 0x20 ADD SWAP1 JUMP JUMPDEST PUSH1 0x40 MLOAD PUSH1 0x20 DUP2 DUP4 SUB SUB DUP2 MSTORE SWAP1 PUSH1 0x40 MSTORE PUSH2 0x1FBD JUMP JUMPDEST PUSH2 0xC53 DUP3 PUSH1 0x1F PUSH2 0x1FE0 PUSH1 0x5 DUP6 SWAP1 SHL AND OR JUMPDEST PUSH1 0x40 DUP1 MLOAD DUP1 DUP3 ADD SWAP1 SWAP2 MSTORE PUSH1 0x60 DUP2 MSTORE PUSH1 0x0 PUSH1 0x20 DUP3 ADD MSTORE PUSH2 0x8D2 DUP4 DUP5 PUSH1 0x0 ADD MLOAD MLOAD DUP5 PUSH2 0x2271 JUMP JUMPDEST PUSH1 0x40 DUP1 MLOAD DUP1 DUP3 ADD SWAP1 SWAP2 MSTORE PUSH1 0x60 DUP2 MSTORE PUSH1 0x0 PUSH1 0x20 DUP3 ADD MSTORE PUSH2 0xA5B DUP5 DUP6 PUSH1 0x0 ADD MLOAD MLOAD DUP6 DUP6 PUSH2 0x22CD JUMP JUMPDEST PUSH1 0x40 DUP1 MLOAD DUP1 DUP3 ADD SWAP1 SWAP2 MSTORE PUSH1 0x60 DUP2 MSTORE PUSH1 0x0 PUSH1 0x20 DUP3 ADD MSTORE DUP3 MLOAD DUP3 GT ISZERO PUSH2 0x21AA JUMPI PUSH1 0x0 DUP1 REVERT JUMPDEST PUSH1 0x20 DUP6 ADD MLOAD PUSH2 0x21B9 DUP4 DUP7 PUSH2 0x330D JUMP JUMPDEST GT ISZERO PUSH2 0x21EC JUMPI PUSH2 0x21EC DUP6 PUSH2 0x21DC DUP8 PUSH1 0x20 ADD MLOAD DUP8 DUP7 PUSH2 0x21D7 SWAP2 SWAP1 PUSH2 0x330D JUMP JUMPDEST PUSH2 0x234E JUMP JUMPDEST PUSH2 0x21E7 SWAP1 PUSH1 0x2 PUSH2 0x3325 JUMP JUMPDEST PUSH2 0x2365 JUMP JUMPDEST PUSH1 0x0 DUP1 DUP7 MLOAD DUP1 MLOAD DUP8 PUSH1 0x20 DUP4 ADD ADD SWAP4 POP DUP1 DUP9 DUP8 ADD GT ISZERO PUSH2 0x220B JUMPI DUP8 DUP7 ADD DUP3 MSTORE JUMPDEST POP POP POP PUSH1 0x20 DUP5 ADD JUMPDEST PUSH1 0x20 DUP5 LT PUSH2 0x224B JUMPI DUP1 MLOAD DUP3 MSTORE PUSH2 0x222A PUSH1 0x20 DUP4 PUSH2 0x330D JUMP JUMPDEST SWAP2 POP PUSH2 0x2237 PUSH1 0x20 DUP3 PUSH2 0x330D JUMP JUMPDEST SWAP1 POP PUSH2 0x2244 PUSH1 0x20 DUP6 PUSH2 0x32F6 JUMP JUMPDEST SWAP4 POP PUSH2 0x2213 JUMP JUMPDEST MLOAD DUP2 MLOAD PUSH1 0x0 NOT PUSH1 0x20 DUP7 SWAP1 SUB PUSH2 0x100 EXP ADD SWAP1 DUP2 AND SWAP1 NOT SWAP2 SWAP1 SWAP2 AND OR SWAP1 MSTORE POP DUP4 SWAP5 SWAP4 POP POP POP POP JUMP JUMPDEST PUSH1 0x40 DUP1 MLOAD DUP1 DUP3 ADD SWAP1 SWAP2 MSTORE PUSH1 0x60 DUP2 MSTORE PUSH1 0x0 PUSH1 0x20 DUP3 ADD MSTORE DUP4 PUSH1 0x20 ADD MLOAD DUP4 LT PUSH2 0x22A6 JUMPI PUSH2 0x22A6 DUP5 DUP6 PUSH1 0x20 ADD MLOAD PUSH1 0x2 PUSH2 0x21E7 SWAP2 SWAP1 PUSH2 0x3325 JUMP JUMPDEST DUP4 MLOAD DUP1 MLOAD PUSH1 0x20 DUP6 DUP4 ADD ADD DUP5 DUP2 MSTORE8 POP DUP1 DUP6 EQ ISZERO PUSH2 0x22C3 JUMPI PUSH1 0x1 DUP2 ADD DUP3 MSTORE JUMPDEST POP SWAP4 SWAP5 SWAP4 POP POP POP POP JUMP JUMPDEST PUSH1 0x40 DUP1 MLOAD DUP1 DUP3 ADD SWAP1 SWAP2 MSTORE PUSH1 0x60 DUP2 MSTORE PUSH1 0x0 PUSH1 0x20 DUP3 ADD MSTORE PUSH1 0x20 DUP6 ADD MLOAD PUSH2 0x22F1 DUP6 DUP5 PUSH2 0x330D JUMP JUMPDEST GT ISZERO PUSH2 0x2305 JUMPI PUSH2 0x2305 DUP6 PUSH2 0x21DC DUP7 DUP6 PUSH2 0x330D JUMP JUMPDEST PUSH1 0x0 PUSH1 0x1 PUSH2 0x2315 DUP5 PUSH2 0x100 PUSH2 0x3344 JUMP JUMPDEST PUSH2 0x231F SWAP2 SWAP1 PUSH2 0x32F6 JUMP JUMPDEST SWAP1 POP DUP6 MLOAD DUP4 DUP7 DUP3 ADD ADD DUP6 DUP4 NOT DUP3 MLOAD AND OR DUP2 MSTORE POP DUP1 MLOAD DUP5 DUP8 ADD GT ISZERO PUSH2 0x2343 JUMPI DUP4 DUP7 ADD DUP2 MSTORE JUMPDEST POP SWAP5 SWAP6 SWAP5 POP POP POP POP POP JUMP JUMPDEST PUSH1 0x0 DUP2 DUP4 GT ISZERO PUSH2 0x235F JUMPI POP DUP2 PUSH2 0x8D5 JUMP JUMPDEST POP SWAP2 SWAP1 POP JUMP JUMPDEST DUP2 MLOAD PUSH2 0x2371 DUP4 DUP4 PUSH2 0x1F02 JUMP JUMPDEST POP PUSH2 0x671 DUP4 DUP3 PUSH2 0x20CD JUMP JUMPDEST DUP3 DUP1 SLOAD PUSH2 0x2388 SWAP1 PUSH2 0x2C72 JUMP JUMPDEST SWAP1 PUSH1 0x0 MSTORE PUSH1 0x20 PUSH1 0x0 KECCAK256 SWAP1 PUSH1 0x1F ADD PUSH1 0x20 SWAP1 DIV DUP2 ADD SWAP3 DUP3 PUSH2 0x23AA JUMPI PUSH1 0x0 DUP6 SSTORE PUSH2 0x23F0 JUMP JUMPDEST DUP3 PUSH1 0x1F LT PUSH2 0x23C3 JUMPI DUP1 MLOAD PUSH1 0xFF NOT AND DUP4 DUP1 ADD OR DUP6 SSTORE PUSH2 0x23F0 JUMP JUMPDEST DUP3 DUP1 ADD PUSH1 0x1 ADD DUP6 SSTORE DUP3 ISZERO PUSH2 0x23F0 JUMPI SWAP2 DUP3 ADD JUMPDEST DUP3 DUP2 GT ISZERO PUSH2 0x23F0 JUMPI DUP3 MLOAD DUP3 SSTORE SWAP2 PUSH1 0x20 ADD SWAP2 SWAP1 PUSH1 0x1 ADD SWAP1 PUSH2 0x23D5 JUMP JUMPDEST POP PUSH2 0x23FC SWAP3 SWAP2 POP PUSH2 0x2458 JUMP JUMPDEST POP SWAP1 JUMP JUMPDEST POP DUP1 SLOAD PUSH1 0x0 DUP3 SSTORE SWAP1 PUSH1 0x0 MSTORE PUSH1 0x20 PUSH1 0x0 KECCAK256 SWAP1 DUP2 ADD SWAP1 PUSH2 0x1359 SWAP2 SWAP1 PUSH2 0x2458 JUMP JUMPDEST DUP3 DUP1 SLOAD DUP3 DUP3 SSTORE SWAP1 PUSH1 0x0 MSTORE PUSH1 0x20 PUSH1 0x0 KECCAK256 SWAP1 DUP2 ADD SWAP3 DUP3 ISZERO PUSH2 0x23F0 JUMPI SWAP2 PUSH1 0x20 MUL DUP3 ADD DUP3 DUP2 GT ISZERO PUSH2 0x23F0 JUMPI DUP3 MLOAD DUP3 SSTORE SWAP2 PUSH1 0x20 ADD SWAP2 SWAP1 PUSH1 0x1 ADD SWAP1 PUSH2 0x23D5 JUMP JUMPDEST JUMPDEST DUP1 DUP3 GT ISZERO PUSH2 0x23FC JUMPI PUSH1 0x0 DUP2 SSTORE PUSH1 0x1 ADD PUSH2 0x2459 JUMP JUMPDEST PUSH4 0x4E487B71 PUSH1 0xE0 SHL PUSH1 0x0 MSTORE PUSH1 0x41 PUSH1 0x4 MSTORE PUSH1 0x24 PUSH1 0x0 REVERT JUMPDEST PUSH1 0x40 MLOAD PUSH1 0x60 DUP2 ADD PUSH1 0x1 PUSH1 0x1 PUSH1 0x40 SHL SUB DUP2 GT DUP3 DUP3 LT OR ISZERO PUSH2 0x24A5 JUMPI PUSH2 0x24A5 PUSH2 0x246D JUMP JUMPDEST PUSH1 0x40 MSTORE SWAP1 JUMP JUMPDEST PUSH1 0x40 MLOAD PUSH1 0xC0 DUP2 ADD PUSH1 0x1 PUSH1 0x1 PUSH1 0x40 SHL SUB DUP2 GT DUP3 DUP3 LT OR ISZERO PUSH2 0x24A5 JUMPI PUSH2 0x24A5 PUSH2 0x246D JUMP JUMPDEST PUSH1 0x40 DUP1 MLOAD SWAP1 DUP2 ADD PUSH1 0x1 PUSH1 0x1 PUSH1 0x40 SHL SUB DUP2 GT DUP3 DUP3 LT OR ISZERO PUSH2 0x24A5 JUMPI PUSH2 0x24A5 PUSH2 0x246D JUMP JUMPDEST PUSH1 0x40 MLOAD PUSH1 0x1F DUP3 ADD PUSH1 0x1F NOT AND DUP2 ADD PUSH1 0x1 PUSH1 0x1 PUSH1 0x40 SHL SUB DUP2 GT DUP3 DUP3 LT OR ISZERO PUSH2 0x2517 JUMPI PUSH2 0x2517 PUSH2 0x246D JUMP JUMPDEST PUSH1 0x40 MSTORE SWAP2 SWAP1 POP JUMP JUMPDEST PUSH1 0x0 PUSH1 0x1 PUSH1 0x1 PUSH1 0x40 SHL SUB DUP3 GT ISZERO PUSH2 0x2538 JUMPI PUSH2 0x2538 PUSH2 0x246D JUMP JUMPDEST POP PUSH1 0x1F ADD PUSH1 0x1F NOT AND PUSH1 0x20 ADD SWAP1 JUMP JUMPDEST PUSH1 0x0 DUP3 PUSH1 0x1F DUP4 ADD SLT PUSH2 0x2557 JUMPI PUSH1 0x0 DUP1 REVERT JUMPDEST DUP2 CALLDATALOAD PUSH2 0x256A PUSH2 0x2565 DUP3 PUSH2 0x251F JUMP JUMPDEST PUSH2 0x24EF JUMP JUMPDEST DUP2 DUP2 MSTORE DUP5 PUSH1 0x20 DUP4 DUP7 ADD ADD GT ISZERO PUSH2 0x257F JUMPI PUSH1 0x0 DUP1 REVERT JUMPDEST DUP2 PUSH1 0x20 DUP6 ADD PUSH1 0x20 DUP4 ADD CALLDATACOPY PUSH1 0x0 SWAP2 DUP2 ADD PUSH1 0x20 ADD SWAP2 SWAP1 SWAP2 MSTORE SWAP4 SWAP3 POP POP POP JUMP JUMPDEST PUSH1 0x0 DUP1 PUSH1 0x0 PUSH1 0x60 DUP5 DUP7 SUB SLT ISZERO PUSH2 0x25B1 JUMPI PUSH1 0x0 DUP1 REVERT JUMPDEST DUP4 CALLDATALOAD SWAP3 POP PUSH1 0x20 DUP5 ADD CALLDATALOAD PUSH1 0x1 PUSH1 0x1 PUSH1 0x40 SHL SUB DUP1 DUP3 GT ISZERO PUSH2 0x25CF JUMPI PUSH1 0x0 DUP1 REVERT JUMPDEST PUSH2 0x25DB DUP8 DUP4 DUP9 ADD PUSH2 0x2546 JUMP JUMPDEST SWAP4 POP PUSH1 0x40 DUP7 ADD CALLDATALOAD SWAP2 POP DUP1 DUP3 GT ISZERO PUSH2 0x25F1 JUMPI PUSH1 0x0 DUP1 REVERT JUMPDEST POP PUSH2 0x25FE DUP7 DUP3 DUP8 ADD PUSH2 0x2546 JUMP JUMPDEST SWAP2 POP POP SWAP3 POP SWAP3 POP SWAP3 JUMP JUMPDEST PUSH1 0x0 PUSH1 0x20 DUP3 DUP5 SUB SLT ISZERO PUSH2 0x261A JUMPI PUSH1 0x0 DUP1 REVERT JUMPDEST DUP2 CALLDATALOAD PUSH1 0x1 PUSH1 0x1 PUSH1 0x40 SHL SUB DUP2 GT ISZERO PUSH2 0x2630 JUMPI PUSH1 0x0 DUP1 REVERT JUMPDEST PUSH2 0xA5B DUP5 DUP3 DUP6 ADD PUSH2 0x2546 JUMP JUMPDEST PUSH1 0x0 PUSH1 0x20 DUP3 DUP5 SUB SLT ISZERO PUSH2 0x264E JUMPI PUSH1 0x0 DUP1 REVERT JUMPDEST POP CALLDATALOAD SWAP2 SWAP1 POP JUMP JUMPDEST PUSH1 0x0 DUP1 DUP4 PUSH1 0x1F DUP5 ADD SLT PUSH2 0x2667 JUMPI PUSH1 0x0 DUP1 REVERT JUMPDEST POP DUP2 CALLDATALOAD PUSH1 0x1 PUSH1 0x1 PUSH1 0x40 SHL SUB DUP2 GT ISZERO PUSH2 0x267E JUMPI PUSH1 0x0 DUP1 REVERT JUMPDEST PUSH1 0x20 DUP4 ADD SWAP2 POP DUP4 PUSH1 0x20 DUP3 DUP6 ADD ADD GT ISZERO PUSH2 0x2696 JUMPI PUSH1 0x0 DUP1 REVERT JUMPDEST SWAP3 POP SWAP3 SWAP1 POP JUMP JUMPDEST DUP1 CALLDATALOAD PUSH1 0x1 PUSH1 0x1 PUSH1 0x40 SHL SUB DUP2 AND DUP2 EQ PUSH2 0x26B4 JUMPI PUSH1 0x0 DUP1 REVERT JUMPDEST SWAP2 SWAP1 POP JUMP JUMPDEST DUP1 CALLDATALOAD PUSH4 0xFFFFFFFF DUP2 AND DUP2 EQ PUSH2 0x26B4 JUMPI PUSH1 0x0 DUP1 REVERT JUMPDEST PUSH1 0x0 DUP1 PUSH1 0x0 DUP1 PUSH1 0x0 DUP1 PUSH1 0x0 DUP1 PUSH1 0xA0 DUP10 DUP12 SUB SLT ISZERO PUSH2 0x26E9 JUMPI PUSH1 0x0 DUP1 REVERT JUMPDEST DUP9 CALLDATALOAD PUSH1 0x1 PUSH1 0x1 PUSH1 0x40 SHL SUB DUP1 DUP3 GT ISZERO PUSH2 0x2700 JUMPI PUSH1 0x0 DUP1 REVERT JUMPDEST PUSH2 0x270C DUP13 DUP4 DUP14 ADD PUSH2 0x2655 JUMP JUMPDEST SWAP1 SWAP11 POP SWAP9 POP PUSH1 0x20 DUP12 ADD CALLDATALOAD SWAP2 POP DUP1 DUP3 GT ISZERO PUSH2 0x2725 JUMPI PUSH1 0x0 DUP1 REVERT JUMPDEST PUSH2 0x2731 DUP13 DUP4 DUP14 ADD PUSH2 0x2655 JUMP JUMPDEST SWAP1 SWAP9 POP SWAP7 POP PUSH1 0x40 DUP12 ADD CALLDATALOAD SWAP2 POP DUP1 DUP3 GT ISZERO PUSH2 0x274A JUMPI PUSH1 0x0 DUP1 REVERT JUMPDEST DUP2 DUP12 ADD SWAP2 POP DUP12 PUSH1 0x1F DUP4 ADD SLT PUSH2 0x275E JUMPI PUSH1 0x0 DUP1 REVERT JUMPDEST DUP2 CALLDATALOAD DUP2 DUP2 GT ISZERO PUSH2 0x276D JUMPI PUSH1 0x0 DUP1 REVERT JUMPDEST DUP13 PUSH1 0x20 DUP3 PUSH1 0x5 SHL DUP6 ADD ADD GT ISZERO PUSH2 0x2782 JUMPI PUSH1 0x0 DUP1 REVERT JUMPDEST PUSH1 0x20 DUP4 ADD SWAP7 POP DUP1 SWAP6 POP POP POP POP PUSH2 0x279A PUSH1 0x60 DUP11 ADD PUSH2 0x269D JUMP JUMPDEST SWAP2 POP PUSH2 0x27A8 PUSH1 0x80 DUP11 ADD PUSH2 0x26B9 JUMP JUMPDEST SWAP1 POP SWAP3 SWAP6 SWAP9 POP SWAP3 SWAP6 SWAP9 SWAP1 SWAP4 SWAP7 POP JUMP JUMPDEST PUSH1 0x0 DUP1 PUSH1 0x20 DUP4 DUP6 SUB SLT ISZERO PUSH2 0x27CA JUMPI PUSH1 0x0 DUP1 REVERT JUMPDEST DUP3 CALLDATALOAD PUSH1 0x1 PUSH1 0x1 PUSH1 0x40 SHL SUB DUP2 GT ISZERO PUSH2 0x27E0 JUMPI PUSH1 0x0 DUP1 REVERT JUMPDEST PUSH2 0x27EC DUP6 DUP3 DUP7 ADD PUSH2 0x2655 JUMP JUMPDEST SWAP1 SWAP7 SWAP1 SWAP6 POP SWAP4 POP POP POP POP JUMP JUMPDEST PUSH1 0x0 JUMPDEST DUP4 DUP2 LT ISZERO PUSH2 0x2813 JUMPI DUP2 DUP2 ADD MLOAD DUP4 DUP3 ADD MSTORE PUSH1 0x20 ADD PUSH2 0x27FB JUMP JUMPDEST DUP4 DUP2 GT ISZERO PUSH2 0x671 JUMPI POP POP PUSH1 0x0 SWAP2 ADD MSTORE JUMP JUMPDEST PUSH1 0x0 DUP2 MLOAD DUP1 DUP5 MSTORE PUSH2 0x283C DUP2 PUSH1 0x20 DUP7 ADD PUSH1 0x20 DUP7 ADD PUSH2 0x27F8 JUMP JUMPDEST PUSH1 0x1F ADD PUSH1 0x1F NOT AND SWAP3 SWAP1 SWAP3 ADD PUSH1 0x20 ADD SWAP3 SWAP2 POP POP JUMP JUMPDEST PUSH1 0x20 DUP2 MSTORE PUSH1 0x0 PUSH2 0x8D2 PUSH1 0x20 DUP4 ADD DUP5 PUSH2 0x2824 JUMP JUMPDEST PUSH1 0x0 DUP1 PUSH1 0x40 DUP4 DUP6 SUB SLT ISZERO PUSH2 0x2876 JUMPI PUSH1 0x0 DUP1 REVERT JUMPDEST POP POP DUP1 CALLDATALOAD SWAP3 PUSH1 0x20 SWAP1 SWAP2 ADD CALLDATALOAD SWAP2 POP JUMP JUMPDEST PUSH1 0x0 DUP1 PUSH1 0x0 PUSH1 0x40 DUP5 DUP7 SUB SLT ISZERO PUSH2 0x289A JUMPI PUSH1 0x0 DUP1 REVERT JUMPDEST DUP4 CALLDATALOAD SWAP3 POP PUSH1 0x20 DUP5 ADD CALLDATALOAD PUSH1 0x1 PUSH1 0x1 PUSH1 0x40 SHL SUB DUP2 GT ISZERO PUSH2 0x28B7 JUMPI PUSH1 0x0 DUP1 REVERT JUMPDEST PUSH2 0x28C3 DUP7 DUP3 DUP8 ADD PUSH2 0x2655 JUMP JUMPDEST SWAP5 SWAP8 SWAP1 SWAP7 POP SWAP4 SWAP5 POP POP POP POP JUMP JUMPDEST PUSH1 0x0 DUP3 PUSH1 0x1F DUP4 ADD SLT PUSH2 0x28E1 JUMPI PUSH1 0x0 DUP1 REVERT JUMPDEST PUSH2 0x28E9 PUSH2 0x24CD JUMP JUMPDEST DUP1 PUSH1 0x40 DUP5 ADD DUP6 DUP2 GT ISZERO PUSH2 0x28FB JUMPI PUSH1 0x0 DUP1 REVERT JUMPDEST DUP5 JUMPDEST DUP2 DUP2 LT ISZERO PUSH2 0x2915 JUMPI DUP1 CALLDATALOAD DUP5 MSTORE PUSH1 0x20 SWAP4 DUP5 ADD SWAP4 ADD PUSH2 0x28FD JUMP JUMPDEST POP SWAP1 SWAP6 SWAP5 POP POP POP POP POP JUMP JUMPDEST PUSH1 0x0 DUP1 PUSH1 0x0 DUP1 PUSH1 0x0 DUP6 DUP8 SUB PUSH2 0x180 DUP2 SLT ISZERO PUSH2 0x293A JUMPI PUSH1 0x0 DUP1 REVERT JUMPDEST DUP7 CALLDATALOAD PUSH1 0x1 PUSH1 0x1 PUSH1 0x40 SHL SUB DUP1 DUP3 GT ISZERO PUSH2 0x2951 JUMPI PUSH1 0x0 DUP1 REVERT JUMPDEST PUSH2 0x295D DUP11 DUP4 DUP12 ADD PUSH2 0x2546 JUMP JUMPDEST SWAP8 POP PUSH1 0x20 SWAP2 POP DUP2 DUP10 ADD CALLDATALOAD DUP2 DUP2 GT ISZERO PUSH2 0x2974 JUMPI PUSH1 0x0 DUP1 REVERT JUMPDEST PUSH2 0x2980 DUP12 DUP3 DUP13 ADD PUSH2 0x2546 JUMP JUMPDEST SWAP8 POP POP POP PUSH1 0x40 DUP9 DUP2 ADD CALLDATALOAD SWAP6 POP PUSH1 0x60 DUP10 ADD CALLDATALOAD SWAP5 POP PUSH2 0x100 PUSH1 0x7F NOT DUP5 ADD SLT ISZERO PUSH2 0x29A6 JUMPI PUSH1 0x0 DUP1 REVERT JUMPDEST PUSH2 0x29AE PUSH2 0x2483 JUMP JUMPDEST SWAP3 POP PUSH2 0x29BD DUP11 PUSH1 0x80 DUP12 ADD PUSH2 0x28D0 JUMP JUMPDEST DUP4 MSTORE DUP10 PUSH1 0xDF DUP11 ADD SLT PUSH2 0x29CE JUMPI PUSH1 0x0 DUP1 REVERT JUMPDEST PUSH2 0x29D6 PUSH2 0x24CD JUMP JUMPDEST DUP1 PUSH2 0x140 DUP12 ADD DUP13 DUP2 GT ISZERO PUSH2 0x29E9 JUMPI PUSH1 0x0 DUP1 REVERT JUMPDEST PUSH1 0xC0 DUP13 ADD JUMPDEST DUP2 DUP2 LT ISZERO PUSH2 0x2A0D JUMPI PUSH2 0x2A00 DUP15 DUP3 PUSH2 0x28D0 JUMP JUMPDEST DUP5 MSTORE SWAP3 DUP6 ADD SWAP3 DUP5 ADD PUSH2 0x29EE JUMP JUMPDEST POP DUP2 DUP6 DUP8 ADD MSTORE PUSH2 0x2A1D DUP14 DUP3 PUSH2 0x28D0 JUMP JUMPDEST DUP5 DUP8 ADD MSTORE POP POP POP POP POP DUP1 SWAP2 POP POP SWAP3 SWAP6 POP SWAP3 SWAP6 SWAP1 SWAP4 POP JUMP JUMPDEST DUP1 CALLDATALOAD PUSH1 0x2 DUP2 LT PUSH2 0x26B4 JUMPI PUSH1 0x0 DUP1 REVERT JUMPDEST DUP1 CALLDATALOAD PUSH1 0x1 DUP2 LT PUSH2 0x26B4 JUMPI PUSH1 0x0 DUP1 REVERT JUMPDEST PUSH1 0x0 PUSH1 0x1 PUSH1 0x1 PUSH1 0x40 SHL SUB DUP1 DUP5 GT ISZERO PUSH2 0x2A6C JUMPI PUSH2 0x2A6C PUSH2 0x246D JUMP JUMPDEST DUP4 PUSH1 0x5 SHL PUSH1 0x20 PUSH2 0x2A7D DUP2 DUP4 ADD PUSH2 0x24EF JUMP JUMPDEST DUP7 DUP2 MSTORE SWAP4 POP SWAP1 DUP5 ADD SWAP1 DUP1 DUP5 ADD DUP8 DUP4 GT ISZERO PUSH2 0x2A96 JUMPI PUSH1 0x0 DUP1 REVERT JUMPDEST DUP6 JUMPDEST DUP4 DUP2 LT ISZERO PUSH2 0x2ACA JUMPI DUP1 CALLDATALOAD DUP6 DUP2 GT ISZERO PUSH2 0x2AB0 JUMPI PUSH1 0x0 DUP1 DUP2 REVERT JUMPDEST PUSH2 0x2ABC DUP11 DUP3 DUP11 ADD PUSH2 0x2546 JUMP JUMPDEST DUP4 MSTORE POP SWAP1 DUP3 ADD SWAP1 DUP3 ADD PUSH2 0x2A98 JUMP JUMPDEST POP POP POP POP POP SWAP4 SWAP3 POP POP POP JUMP JUMPDEST PUSH1 0x0 DUP3 PUSH1 0x1F DUP4 ADD SLT PUSH2 0x2AE7 JUMPI PUSH1 0x0 DUP1 REVERT JUMPDEST PUSH2 0x8D2 DUP4 DUP4 CALLDATALOAD PUSH1 0x20 DUP6 ADD PUSH2 0x2A52 JUMP JUMPDEST PUSH1 0x0 DUP1 PUSH1 0x0 DUP1 PUSH1 0x80 DUP6 DUP8 SUB SLT ISZERO PUSH2 0x2B0C JUMPI PUSH1 0x0 DUP1 REVERT JUMPDEST DUP5 CALLDATALOAD PUSH1 0x1 PUSH1 0x1 PUSH1 0x40 SHL SUB DUP1 DUP3 GT ISZERO PUSH2 0x2B23 JUMPI PUSH1 0x0 DUP1 REVERT JUMPDEST SWAP1 DUP7 ADD SWAP1 PUSH1 0xC0 DUP3 DUP10 SUB SLT ISZERO PUSH2 0x2B37 JUMPI PUSH1 0x0 DUP1 REVERT JUMPDEST PUSH2 0x2B3F PUSH2 0x24AB JUMP JUMPDEST PUSH2 0x2B48 DUP4 PUSH2 0x2A34 JUMP JUMPDEST DUP2 MSTORE PUSH2 0x2B56 PUSH1 0x20 DUP5 ADD PUSH2 0x2A34 JUMP JUMPDEST PUSH1 0x20 DUP3 ADD MSTORE PUSH2 0x2B67 PUSH1 0x40 DUP5 ADD PUSH2 0x2A43 JUMP JUMPDEST PUSH1 0x40 DUP3 ADD MSTORE PUSH1 0x60 DUP4 ADD CALLDATALOAD DUP3 DUP2 GT ISZERO PUSH2 0x2B7E JUMPI PUSH1 0x0 DUP1 REVERT JUMPDEST PUSH2 0x2B8A DUP11 DUP3 DUP7 ADD PUSH2 0x2546 JUMP JUMPDEST PUSH1 0x60 DUP4 ADD MSTORE POP PUSH1 0x80 DUP4 ADD CALLDATALOAD DUP3 DUP2 GT ISZERO PUSH2 0x2BA2 JUMPI PUSH1 0x0 DUP1 REVERT JUMPDEST PUSH2 0x2BAE DUP11 DUP3 DUP7 ADD PUSH2 0x2546 JUMP JUMPDEST PUSH1 0x80 DUP4 ADD MSTORE POP PUSH1 0xA0 DUP4 ADD CALLDATALOAD DUP3 DUP2 GT ISZERO PUSH2 0x2BC6 JUMPI PUSH1 0x0 DUP1 REVERT JUMPDEST PUSH2 0x2BD2 DUP11 DUP3 DUP7 ADD PUSH2 0x2AD6 JUMP JUMPDEST PUSH1 0xA0 DUP4 ADD MSTORE POP SWAP6 POP PUSH2 0x2BE9 SWAP2 POP POP PUSH1 0x20 DUP7 ADD PUSH2 0x269D JUMP JUMPDEST SWAP3 POP PUSH2 0x2BF7 PUSH1 0x40 DUP7 ADD PUSH2 0x26B9 JUMP JUMPDEST SWAP4 SWAP7 SWAP3 SWAP6 POP SWAP3 SWAP4 PUSH1 0x60 ADD CALLDATALOAD SWAP3 POP POP JUMP JUMPDEST PUSH1 0x1 PUSH1 0x1 PUSH1 0xA0 SHL SUB DUP2 AND DUP2 EQ PUSH2 0x1359 JUMPI PUSH1 0x0 DUP1 REVERT JUMPDEST PUSH1 0x0 PUSH1 0x20 DUP3 DUP5 SUB SLT ISZERO PUSH2 0x2C2E JUMPI PUSH1 0x0 DUP1 REVERT JUMPDEST DUP2 CALLDATALOAD PUSH2 0x17C4 DUP2 PUSH2 0x2C07 JUMP JUMPDEST PUSH1 0x0 DUP3 MLOAD PUSH2 0x2C4B DUP2 DUP5 PUSH1 0x20 DUP8 ADD PUSH2 0x27F8 JUMP JUMPDEST SWAP2 SWAP1 SWAP2 ADD SWAP3 SWAP2 POP POP JUMP JUMPDEST PUSH1 0x0 PUSH2 0x8D2 CALLDATASIZE DUP5 DUP5 PUSH2 0x2A52 JUMP JUMPDEST DUP2 DUP4 DUP3 CALLDATACOPY PUSH1 0x0 SWAP2 ADD SWAP1 DUP2 MSTORE SWAP2 SWAP1 POP JUMP JUMPDEST PUSH1 0x1 DUP2 DUP2 SHR SWAP1 DUP3 AND DUP1 PUSH2 0x2C86 JUMPI PUSH1 0x7F DUP3 AND SWAP2 POP JUMPDEST PUSH1 0x20 DUP3 LT DUP2 EQ ISZERO PUSH2 0x235F JUMPI PUSH4 0x4E487B71 PUSH1 0xE0 SHL PUSH1 0x0 MSTORE PUSH1 0x22 PUSH1 0x4 MSTORE PUSH1 0x24 PUSH1 0x0 REVERT JUMPDEST PUSH1 0x0 DUP1 DUP4 SLOAD DUP2 PUSH1 0x1 DUP3 DUP2 SHR SWAP2 POP DUP1 DUP4 AND DUP1 PUSH2 0x2CC3 JUMPI PUSH1 0x7F DUP4 AND SWAP3 POP JUMPDEST PUSH1 0x20 DUP1 DUP5 LT DUP3 EQ ISZERO PUSH2 0x2CE3 JUMPI PUSH4 0x4E487B71 PUSH1 0xE0 SHL DUP7 MSTORE PUSH1 0x22 PUSH1 0x4 MSTORE PUSH1 0x24 DUP7 REVERT JUMPDEST DUP2 DUP1 ISZERO PUSH2 0x2CF7 JUMPI PUSH1 0x1 DUP2 EQ PUSH2 0x2D08 JUMPI PUSH2 0x2D35 JUMP JUMPDEST PUSH1 0xFF NOT DUP7 AND DUP10 MSTORE DUP5 DUP10 ADD SWAP7 POP PUSH2 0x2D35 JUMP JUMPDEST PUSH1 0x0 DUP11 DUP2 MSTORE PUSH1 0x20 SWAP1 KECCAK256 PUSH1 0x0 JUMPDEST DUP7 DUP2 LT ISZERO PUSH2 0x2D2D JUMPI DUP2 SLOAD DUP12 DUP3 ADD MSTORE SWAP1 DUP6 ADD SWAP1 DUP4 ADD PUSH2 0x2D14 JUMP JUMPDEST POP POP DUP5 DUP10 ADD SWAP7 POP JUMPDEST POP SWAP5 SWAP9 SWAP8 POP POP POP POP POP POP POP POP JUMP JUMPDEST PUSH1 0x0 PUSH2 0x2D51 PUSH2 0x2565 DUP5 PUSH2 0x251F JUMP JUMPDEST SWAP1 POP DUP3 DUP2 MSTORE DUP4 DUP4 DUP4 ADD GT ISZERO PUSH2 0x2D65 JUMPI PUSH1 0x0 DUP1 REVERT JUMPDEST PUSH2 0x17C4 DUP4 PUSH1 0x20 DUP4 ADD DUP5 PUSH2 0x27F8 JUMP JUMPDEST PUSH1 0x0 DUP3 PUSH1 0x1F DUP4 ADD SLT PUSH2 0x2D84 JUMPI PUSH1 0x0 DUP1 REVERT JUMPDEST PUSH2 0x8D2 DUP4 DUP4 MLOAD PUSH1 0x20 DUP6 ADD PUSH2 0x2D43 JUMP JUMPDEST PUSH1 0x0 PUSH1 0x20 DUP3 DUP5 SUB SLT ISZERO PUSH2 0x2DA5 JUMPI PUSH1 0x0 DUP1 REVERT JUMPDEST DUP2 MLOAD PUSH1 0x1 PUSH1 0x1 PUSH1 0x40 SHL SUB DUP2 GT ISZERO PUSH2 0x2DBB JUMPI PUSH1 0x0 DUP1 REVERT JUMPDEST PUSH2 0xA5B DUP5 DUP3 DUP6 ADD PUSH2 0x2D73 JUMP JUMPDEST PUSH1 0x40 DUP2 ADD DUP2 DUP4 PUSH1 0x0 JUMPDEST PUSH1 0x2 DUP2 LT ISZERO PUSH2 0x2DEF JUMPI DUP2 MLOAD DUP4 MSTORE PUSH1 0x20 SWAP3 DUP4 ADD SWAP3 SWAP1 SWAP2 ADD SWAP1 PUSH1 0x1 ADD PUSH2 0x2DD0 JUMP JUMPDEST POP POP POP SWAP3 SWAP2 POP POP JUMP JUMPDEST PUSH1 0x0 PUSH1 0x20 DUP3 DUP5 SUB SLT ISZERO PUSH2 0x2E0A JUMPI PUSH1 0x0 DUP1 REVERT JUMPDEST POP MLOAD SWAP2 SWAP1 POP JUMP JUMPDEST DUP1 PUSH1 0x0 JUMPDEST PUSH1 0x2 DUP2 LT ISZERO PUSH2 0x671 JUMPI DUP2 MLOAD DUP5 MSTORE PUSH1 0x20 SWAP4 DUP5 ADD SWAP4 SWAP1 SWAP2 ADD SWAP1 PUSH1 0x1 ADD PUSH2 0x2E15 JUMP JUMPDEST PUSH2 0x140 DUP2 ADD PUSH2 0x2E43 DUP3 DUP8 PUSH2 0x2E11 JUMP JUMPDEST PUSH1 0x40 DUP1 DUP4 ADD DUP7 PUSH1 0x0 JUMPDEST PUSH1 0x2 DUP2 LT ISZERO PUSH2 0x2E73 JUMPI PUSH2 0x2E60 DUP4 DUP4 MLOAD PUSH2 0x2E11 JUMP JUMPDEST SWAP2 DUP4 ADD SWAP2 PUSH1 0x20 SWAP2 SWAP1 SWAP2 ADD SWAP1 PUSH1 0x1 ADD PUSH2 0x2E4C JUMP JUMPDEST POP POP POP POP PUSH2 0x2E84 PUSH1 0xC0 DUP4 ADD DUP6 PUSH2 0x2E11 JUMP JUMPDEST PUSH2 0x113D PUSH2 0x100 DUP4 ADD DUP5 PUSH2 0x2E11 JUMP JUMPDEST PUSH1 0x0 PUSH1 0x20 DUP3 DUP5 SUB SLT ISZERO PUSH2 0x2EA4 JUMPI PUSH1 0x0 DUP1 REVERT JUMPDEST DUP2 MLOAD DUP1 ISZERO ISZERO DUP2 EQ PUSH2 0x17C4 JUMPI PUSH1 0x0 DUP1 REVERT JUMPDEST PUSH1 0x40 DUP2 MSTORE PUSH1 0x0 PUSH2 0x2EC7 PUSH1 0x40 DUP4 ADD DUP6 PUSH2 0x2824 JUMP JUMPDEST SWAP1 POP DUP3 PUSH1 0x20 DUP4 ADD MSTORE SWAP4 SWAP3 POP POP POP JUMP JUMPDEST PUSH4 0x4E487B71 PUSH1 0xE0 SHL PUSH1 0x0 MSTORE PUSH1 0x32 PUSH1 0x4 MSTORE PUSH1 0x24 PUSH1 0x0 REVERT JUMPDEST PUSH4 0x4E487B71 PUSH1 0xE0 SHL PUSH1 0x0 MSTORE PUSH1 0x11 PUSH1 0x4 MSTORE PUSH1 0x24 PUSH1 0x0 REVERT JUMPDEST PUSH1 0x0 PUSH4 0xFFFFFFFF DUP3 AND DUP1 PUSH2 0x2F18 JUMPI PUSH2 0x2F18 PUSH2 0x2EEC JUMP JUMPDEST PUSH1 0x0 NOT ADD SWAP3 SWAP2 POP POP JUMP JUMPDEST PUSH1 0x0 PUSH1 0x20 DUP3 DUP5 SUB SLT ISZERO PUSH2 0x2F34 JUMPI PUSH1 0x0 DUP1 REVERT JUMPDEST DUP2 MLOAD PUSH1 0x1 PUSH1 0x1 PUSH1 0x40 SHL SUB DUP2 GT ISZERO PUSH2 0x2F4A JUMPI PUSH1 0x0 DUP1 REVERT JUMPDEST DUP3 ADD PUSH1 0x1F DUP2 ADD DUP5 SGT PUSH2 0x2F5B JUMPI PUSH1 0x0 DUP1 REVERT JUMPDEST PUSH2 0xA5B DUP5 DUP3 MLOAD PUSH1 0x20 DUP5 ADD PUSH2 0x2D43 JUMP JUMPDEST PUSH1 0x1 PUSH1 0x1 PUSH1 0x40 SHL SUB DUP6 AND DUP2 MSTORE PUSH1 0x80 PUSH1 0x20 DUP3 ADD MSTORE PUSH1 0x0 PUSH2 0x2F8C PUSH1 0x80 DUP4 ADD DUP7 PUSH2 0x2824 JUMP JUMPDEST PUSH4 0xFFFFFFFF SWAP5 SWAP1 SWAP5 AND PUSH1 0x40 DUP4 ADD MSTORE POP PUSH1 0x60 ADD MSTORE SWAP3 SWAP2 POP POP JUMP JUMPDEST PUSH1 0x0 PUSH1 0x20 DUP3 DUP5 SUB SLT ISZERO PUSH2 0x2FB7 JUMPI PUSH1 0x0 DUP1 REVERT JUMPDEST DUP2 MLOAD PUSH12 0xFFFFFFFFFFFFFFFFFFFFFFFF DUP2 AND DUP2 EQ PUSH2 0x17C4 JUMPI PUSH1 0x0 DUP1 REVERT JUMPDEST PUSH1 0x1 PUSH1 0x1 PUSH1 0xA0 SHL SUB DUP4 AND DUP2 MSTORE PUSH1 0x40 PUSH1 0x20 DUP3 ADD DUP2 SWAP1 MSTORE PUSH1 0x0 SWAP1 PUSH2 0xA5B SWAP1 DUP4 ADD DUP5 PUSH2 0x2824 JUMP JUMPDEST PUSH1 0x40 DUP2 MSTORE PUSH1 0x0 PUSH2 0x300A PUSH1 0x40 DUP4 ADD DUP6 PUSH2 0x2824 JUMP JUMPDEST DUP3 DUP2 SUB PUSH1 0x20 DUP5 ADD MSTORE PUSH2 0x113D DUP2 DUP6 PUSH2 0x2824 JUMP JUMPDEST PUSH1 0x0 DUP1 PUSH1 0x0 PUSH1 0x60 DUP5 DUP7 SUB SLT ISZERO PUSH2 0x3031 JUMPI PUSH1 0x0 DUP1 REVERT JUMPDEST DUP4 MLOAD PUSH1 0x1 PUSH1 0x1 PUSH1 0x40 SHL SUB DUP1 DUP3 GT ISZERO PUSH2 0x3048 JUMPI PUSH1 0x0 DUP1 REVERT JUMPDEST PUSH2 0x3054 DUP8 DUP4 DUP9 ADD PUSH2 0x2D73 JUMP JUMPDEST SWAP5 POP PUSH1 0x20 DUP7 ADD MLOAD SWAP2 POP DUP1 DUP3 GT ISZERO PUSH2 0x306A JUMPI PUSH1 0x0 DUP1 REVERT JUMPDEST PUSH2 0x3076 DUP8 DUP4 DUP9 ADD PUSH2 0x2D73 JUMP JUMPDEST SWAP4 POP PUSH1 0x40 DUP7 ADD MLOAD SWAP2 POP DUP1 DUP3 GT ISZERO PUSH2 0x308C JUMPI PUSH1 0x0 DUP1 REVERT JUMPDEST POP PUSH2 0x25FE DUP7 DUP3 DUP8 ADD PUSH2 0x2D73 JUMP JUMPDEST PUSH1 0x0 PUSH1 0x0 NOT DUP3 EQ ISZERO PUSH2 0x30AD JUMPI PUSH2 0x30AD PUSH2 0x2EEC JUMP JUMPDEST POP PUSH1 0x1 ADD SWAP1 JUMP JUMPDEST PUSH4 0x4E487B71 PUSH1 0xE0 SHL PUSH1 0x0 MSTORE PUSH1 0x21 PUSH1 0x4 MSTORE PUSH1 0x24 PUSH1 0x0 REVERT JUMPDEST PUSH1 0x1 PUSH1 0x1 PUSH1 0x40 SHL SUB DUP5 AND DUP2 MSTORE PUSH1 0x60 PUSH1 0x20 DUP3 ADD MSTORE PUSH1 0x0 PUSH2 0x30EC PUSH1 0x60 DUP4 ADD DUP6 PUSH2 0x2824 JUMP JUMPDEST SWAP1 POP PUSH4 0xFFFFFFFF DUP4 AND PUSH1 0x40 DUP4 ADD MSTORE SWAP5 SWAP4 POP POP POP POP JUMP JUMPDEST PUSH1 0x0 PUSH1 0x20 DUP3 DUP5 SUB SLT ISZERO PUSH2 0x3114 JUMPI PUSH1 0x0 DUP1 REVERT JUMPDEST DUP2 MLOAD PUSH2 0x17C4 DUP2 PUSH2 0x2C07 JUMP JUMPDEST PUSH1 0x1 DUP2 DUP2 JUMPDEST DUP1 DUP6 GT ISZERO PUSH2 0x315A JUMPI DUP2 PUSH1 0x0 NOT DIV DUP3 GT ISZERO PUSH2 0x3140 JUMPI PUSH2 0x3140 PUSH2 0x2EEC JUMP JUMPDEST DUP1 DUP6 AND ISZERO PUSH2 0x314D JUMPI SWAP2 DUP2 MUL SWAP2 JUMPDEST SWAP4 DUP5 SHR SWAP4 SWAP1 DUP1 MUL SWAP1 PUSH2 0x3124 JUMP JUMPDEST POP SWAP3 POP SWAP3 SWAP1 POP JUMP JUMPDEST PUSH1 0x0 DUP3 PUSH2 0x3171 JUMPI POP PUSH1 0x1 PUSH2 0x8D5 JUMP JUMPDEST DUP2 PUSH2 0x317E JUMPI POP PUSH1 0x0 PUSH2 0x8D5 JUMP JUMPDEST DUP2 PUSH1 0x1 DUP2 EQ PUSH2 0x3194 JUMPI PUSH1 0x2 DUP2 EQ PUSH2 0x319E JUMPI PUSH2 0x31BA JUMP JUMPDEST PUSH1 0x1 SWAP2 POP POP PUSH2 0x8D5 JUMP JUMPDEST PUSH1 0xFF DUP5 GT ISZERO PUSH2 0x31AF JUMPI PUSH2 0x31AF PUSH2 0x2EEC JUMP JUMPDEST POP POP PUSH1 0x1 DUP3 SHL PUSH2 0x8D5 JUMP JUMPDEST POP PUSH1 0x20 DUP4 LT PUSH2 0x133 DUP4 LT AND PUSH1 0x4E DUP5 LT PUSH1 0xB DUP5 LT AND OR ISZERO PUSH2 0x31DD JUMPI POP DUP2 DUP2 EXP PUSH2 0x8D5 JUMP JUMPDEST PUSH2 0x31E7 DUP4 DUP4 PUSH2 0x311F JUMP JUMPDEST DUP1 PUSH1 0x0 NOT DIV DUP3 GT ISZERO PUSH2 0x31FB JUMPI PUSH2 0x31FB PUSH2 0x2EEC JUMP JUMPDEST MUL SWAP4 SWAP3 POP POP POP JUMP JUMPDEST PUSH1 0x0 PUSH2 0x8D2 PUSH4 0xFFFFFFFF DUP5 AND DUP4 PUSH2 0x3162 JUMP JUMPDEST PUSH1 0x0 PUSH4 0xFFFFFFFF DUP1 DUP4 AND DUP2 DUP6 AND DUP1 DUP4 SUB DUP3 GT ISZERO PUSH2 0x3234 JUMPI PUSH2 0x3234 PUSH2 0x2EEC JUMP JUMPDEST ADD SWAP5 SWAP4 POP POP POP POP JUMP JUMPDEST PUSH4 0x4E487B71 PUSH1 0xE0 SHL PUSH1 0x0 MSTORE PUSH1 0x12 PUSH1 0x4 MSTORE PUSH1 0x24 PUSH1 0x0 REVERT JUMPDEST PUSH1 0x0 PUSH4 0xFFFFFFFF DUP1 DUP5 AND DUP1 PUSH2 0x326A JUMPI PUSH2 0x326A PUSH2 0x323D JUMP JUMPDEST SWAP3 AND SWAP2 SWAP1 SWAP2 MOD SWAP3 SWAP2 POP POP JUMP JUMPDEST PUSH1 0x0 PUSH4 0xFFFFFFFF DUP1 DUP5 AND DUP1 PUSH2 0x328D JUMPI PUSH2 0x328D PUSH2 0x323D JUMP JUMPDEST SWAP3 AND SWAP2 SWAP1 SWAP2 DIV SWAP3 SWAP2 POP POP JUMP JUMPDEST PUSH1 0x0 PUSH4 0xFFFFFFFF DUP1 DUP4 AND DUP2 DUP2 EQ ISZERO PUSH2 0x32B3 JUMPI PUSH2 0x32B3 PUSH2 0x2EEC JUMP JUMPDEST PUSH1 0x1 ADD SWAP4 SWAP3 POP POP POP JUMP JUMPDEST PUSH1 0x0 PUSH4 0xFFFFFFFF DUP4 DUP2 AND SWAP1 DUP4 AND DUP2 DUP2 LT ISZERO PUSH2 0x32DA JUMPI PUSH2 0x32DA PUSH2 0x2EEC JUMP JUMPDEST SUB SWAP4 SWAP3 POP POP POP JUMP JUMPDEST PUSH1 0x0 DUP3 PUSH2 0x32F1 JUMPI PUSH2 0x32F1 PUSH2 0x323D JUMP JUMPDEST POP MOD SWAP1 JUMP JUMPDEST PUSH1 0x0 DUP3 DUP3 LT ISZERO PUSH2 0x3308 JUMPI PUSH2 0x3308 PUSH2 0x2EEC JUMP JUMPDEST POP SUB SWAP1 JUMP JUMPDEST PUSH1 0x0 DUP3 NOT DUP3 GT ISZERO PUSH2 0x3320 JUMPI PUSH2 0x3320 PUSH2 0x2EEC JUMP JUMPDEST POP ADD SWAP1 JUMP JUMPDEST PUSH1 0x0 DUP2 PUSH1 0x0 NOT DIV DUP4 GT DUP3 ISZERO ISZERO AND ISZERO PUSH2 0x333F JUMPI PUSH2 0x333F PUSH2 0x2EEC JUMP JUMPDEST POP MUL SWAP1 JUMP JUMPDEST PUSH1 0x0 PUSH2 0x8D2 DUP4 DUP4 PUSH2 0x3162 JUMP INVALID LOG2 PUSH5 0x6970667358 0x22 SLT KECCAK256 BASEFEE DUP11 DUP2 DUP9 STOP BALANCE SLT 0x26 0xE4 EQ 0x4B 0xED PUSH12 0xA06BDAFDF710911479CB237 0x5E 0xE4 0xCF DUP10 0xB1 CREATE2 0x4E PUSH5 0x736F6C6343 STOP ADDMOD MULMOD STOP CALLER SUB PUSH12 0x6384B5ECA791C62761152D0C PUSH26 0xBB0604C104A5FB6F4EB0703F3154BB3DB0F652222313E2845952 DUP14 SWAP3 SIGNEXTEND PUSH6 0x115C16C04F3E 0xFC DUP3 0xAA 0xED 0xC9 PUSH28 0xE59F3F377C0D3F000000000000000000000000000000000000000000 "},"methodIdentifiers":{"FIELD_SIZE()":"414a37ba","ROOT_HISTORY_SIZE()":"cd87a3b4","ZERO_VALUE()":"ec732959","acceptOwnership()":"79ba5097","addEmoji()":"eadbe6fe","addName(string)":"11456b47","commitments(bytes32)":"839df945","counter()":"61bc221a","currentRootIndex()":"90eeb02b","emojiAddress()":"129116ef","emojiStringToTokenId(string)":"2fc62eaf","estimateCost((uint8,uint8,uint8,string,bytes,string[]),uint64,uint32,uint256)":"d4b39175","executeRequest(string,bytes,string[],uint64,uint32)":"27714589","filledSubtrees(uint256)":"f178e47c","getDONPublicKey()":"d328a91e","getEmojiURI(string)":"32b2820c","getLastRoot()":"ba70f757","handleOracleFulfillment(bytes32,bytes,bytes)":"0ca76175","hashLeftRight(bytes32,bytes32)":"38bf282e","hasher()":"ed33639f","insertIntoTree(bytes32,string)":"3eee99ad","isKnownRoot(bytes32)":"6d9833e3","isNullifierUsed(bytes32)":"22dc7b4c","latestError()":"fffeb84e","latestRequestId()":"1aa46f59","latestResponse()":"bef3a2f0","levels()":"4ecf518b","nameExists(string)":"cc637afe","nameToEmojiString(string)":"d7b6edec","nameToSentimentText(string)":"3a20b4e9","nextIndex()":"fc7e9c6f","nullifiers(bytes32)":"2997e86b","owner()":"8da5cb5b","postMessageWithProof(string,string,bytes32,bytes32,(uint256[2],uint256[2][2],uint256[2]))":"59360b55","resetTree()":"49703237","roots(uint256)":"c2b40ae4","transferOwnership(address)":"f2fde38b","verifier()":"2b7ac3f3","zeros(uint256)":"e8295588"}}}}}