{"contracts/SnapshotV2.sol":{"SnapshotV2":{"abi":[{"inputs":[{"internalType":"address","name":"oracle","type":"address"},{"internalType":"contract IVerifier","name":"_verifier","type":"address"},{"internalType":"uint32","name":"_merkleTreeHeight","type":"uint32"},{"internalType":"address","name":"_hasher","type":"address"},{"internalType":"address","name":"_subscriptionManager","type":"address"},{"internalType":"uint64","name":"_subscriptionId","type":"uint64"},{"internalType":"uint32","name":"_fulfillGasLimit","type":"uint32"}],"stateMutability":"nonpayable","type":"constructor"},{"inputs":[],"name":"EmptyArgs","type":"error"},{"inputs":[],"name":"EmptySecrets","type":"error"},{"inputs":[],"name":"EmptySource","type":"error"},{"inputs":[{"internalType":"string","name":"message","type":"string"}],"name":"MerkleTree__IsFull","type":"error"},{"inputs":[{"internalType":"string","name":"message","type":"string"}],"name":"MerkleTree__TreeLevelsOutOfRange","type":"error"},{"inputs":[],"name":"RequestIsAlreadyPending","type":"error"},{"inputs":[],"name":"RequestIsNotPending","type":"error"},{"inputs":[],"name":"SenderIsNotRegistry","type":"error"},{"inputs":[{"internalType":"string","name":"message","type":"string"}],"name":"SnapshotV2__CommitmentAlreadyUsed","type":"error"},{"inputs":[{"internalType":"string","name":"message","type":"string"}],"name":"SnapshotV2__InvalidProof","type":"error"},{"inputs":[{"internalType":"string","name":"message","type":"string"}],"name":"SnapshotV2__NullifierAlreadyUsed","type":"error"},{"inputs":[{"internalType":"string","name":"message","type":"string"}],"name":"SnapshotV2__RootNotKnown","type":"error"},{"inputs":[{"internalType":"string","name":"message","type":"string"}],"name":"SnapshotV2__TimeInterval","type":"error"},{"anonymous":false,"inputs":[{"indexed":false,"internalType":"bytes32","name":"commitment","type":"bytes32"},{"indexed":false,"internalType":"uint32","name":"insertedIndex","type":"uint32"}],"name":"Inserted","type":"event"},{"anonymous":false,"inputs":[{"indexed":true,"internalType":"bytes32","name":"requestId","type":"bytes32"},{"indexed":false,"internalType":"bytes","name":"result","type":"bytes"},{"indexed":false,"internalType":"bytes","name":"err","type":"bytes"}],"name":"OCRResponse","type":"event"},{"anonymous":false,"inputs":[{"indexed":true,"internalType":"address","name":"from","type":"address"},{"indexed":true,"internalType":"address","name":"to","type":"address"}],"name":"OwnershipTransferRequested","type":"event"},{"anonymous":false,"inputs":[{"indexed":true,"internalType":"address","name":"from","type":"address"},{"indexed":true,"internalType":"address","name":"to","type":"address"}],"name":"OwnershipTransferred","type":"event"},{"anonymous":false,"inputs":[{"indexed":true,"internalType":"bytes32","name":"id","type":"bytes32"}],"name":"RequestFulfilled","type":"event"},{"anonymous":false,"inputs":[{"indexed":true,"internalType":"bytes32","name":"id","type":"bytes32"}],"name":"RequestSent","type":"event"},{"anonymous":false,"inputs":[{"indexed":false,"internalType":"string","name":"message","type":"string"},{"indexed":false,"internalType":"bytes32","name":"nullifier","type":"bytes32"}],"name":"messagePosted","type":"event"},{"anonymous":false,"inputs":[],"name":"messagesCleared","type":"event"},{"inputs":[],"name":"FIELD_SIZE","outputs":[{"internalType":"uint256","name":"","type":"uint256"}],"stateMutability":"view","type":"function"},{"inputs":[],"name":"ROOT_HISTORY_SIZE","outputs":[{"internalType":"uint32","name":"","type":"uint32"}],"stateMutability":"view","type":"function"},{"inputs":[],"name":"ZERO_VALUE","outputs":[{"internalType":"uint256","name":"","type":"uint256"}],"stateMutability":"view","type":"function"},{"inputs":[],"name":"acceptOwnership","outputs":[],"stateMutability":"nonpayable","type":"function"},{"inputs":[{"internalType":"bytes","name":"","type":"bytes"}],"name":"checkUpkeep","outputs":[{"internalType":"bool","name":"upkeepNeeded","type":"bool"},{"internalType":"bytes","name":"","type":"bytes"}],"stateMutability":"view","type":"function"},{"inputs":[],"name":"clearMessages","outputs":[],"stateMutability":"nonpayable","type":"function"},{"inputs":[{"internalType":"bytes32","name":"","type":"bytes32"}],"name":"commitments","outputs":[{"internalType":"bool","name":"","type":"bool"}],"stateMutability":"view","type":"function"},{"inputs":[],"name":"currentRootIndex","outputs":[{"internalType":"uint32","name":"","type":"uint32"}],"stateMutability":"view","type":"function"},{"inputs":[{"components":[{"internalType":"enum Functions.Location","name":"codeLocation","type":"uint8"},{"internalType":"enum Functions.Location","name":"secretsLocation","type":"uint8"},{"internalType":"enum Functions.CodeLanguage","name":"language","type":"uint8"},{"internalType":"string","name":"source","type":"string"},{"internalType":"bytes","name":"secrets","type":"bytes"},{"internalType":"string[]","name":"args","type":"string[]"}],"internalType":"struct Functions.Request","name":"req","type":"tuple"},{"internalType":"uint64","name":"subscriptionId","type":"uint64"},{"internalType":"uint32","name":"gasLimit","type":"uint32"},{"internalType":"uint256","name":"gasPrice","type":"uint256"}],"name":"estimateCost","outputs":[{"internalType":"uint96","name":"","type":"uint96"}],"stateMutability":"view","type":"function"},{"inputs":[{"internalType":"uint256","name":"","type":"uint256"}],"name":"filledSubtrees","outputs":[{"internalType":"bytes32","name":"","type":"bytes32"}],"stateMutability":"view","type":"function"},{"inputs":[],"name":"fulfillGasLimit","outputs":[{"internalType":"uint32","name":"","type":"uint32"}],"stateMutability":"view","type":"function"},{"inputs":[{"internalType":"string","name":"source","type":"string"},{"internalType":"bytes","name":"secrets","type":"bytes"},{"internalType":"string[]","name":"args","type":"string[]"}],"name":"generateRequest","outputs":[{"internalType":"bytes","name":"","type":"bytes"}],"stateMutability":"pure","type":"function"},{"inputs":[],"name":"getDONPublicKey","outputs":[{"internalType":"bytes","name":"","type":"bytes"}],"stateMutability":"view","type":"function"},{"inputs":[],"name":"getLastRoot","outputs":[{"internalType":"bytes32","name":"","type":"bytes32"}],"stateMutability":"view","type":"function"},{"inputs":[],"name":"getMessages","outputs":[{"internalType":"string[]","name":"","type":"string[]"}],"stateMutability":"view","type":"function"},{"inputs":[{"internalType":"bytes32","name":"requestId","type":"bytes32"},{"internalType":"bytes","name":"response","type":"bytes"},{"internalType":"bytes","name":"err","type":"bytes"}],"name":"handleOracleFulfillment","outputs":[],"stateMutability":"nonpayable","type":"function"},{"inputs":[{"internalType":"bytes32","name":"_left","type":"bytes32"},{"internalType":"bytes32","name":"_right","type":"bytes32"}],"name":"hashLeftRight","outputs":[{"internalType":"bytes32","name":"","type":"bytes32"}],"stateMutability":"view","type":"function"},{"inputs":[],"name":"hasher","outputs":[{"internalType":"contract IHasher","name":"","type":"address"}],"stateMutability":"view","type":"function"},{"inputs":[{"internalType":"bytes32","name":"_commitment","type":"bytes32"}],"name":"insertIntoTree","outputs":[],"stateMutability":"nonpayable","type":"function"},{"inputs":[{"internalType":"bytes32","name":"_root","type":"bytes32"}],"name":"isKnownRoot","outputs":[{"internalType":"bool","name":"","type":"bool"}],"stateMutability":"view","type":"function"},{"inputs":[{"internalType":"bytes32","name":"_nullifier","type":"bytes32"}],"name":"isNullifierUsed","outputs":[{"internalType":"bool","name":"","type":"bool"}],"stateMutability":"view","type":"function"},{"inputs":[],"name":"lastUpkeepTimeStamp","outputs":[{"internalType":"uint256","name":"","type":"uint256"}],"stateMutability":"view","type":"function"},{"inputs":[],"name":"latestError","outputs":[{"internalType":"bytes","name":"","type":"bytes"}],"stateMutability":"view","type":"function"},{"inputs":[],"name":"latestRequestId","outputs":[{"internalType":"bytes32","name":"","type":"bytes32"}],"stateMutability":"view","type":"function"},{"inputs":[],"name":"latestResponse","outputs":[{"internalType":"bytes","name":"","type":"bytes"}],"stateMutability":"view","type":"function"},{"inputs":[],"name":"levels","outputs":[{"internalType":"uint32","name":"","type":"uint32"}],"stateMutability":"view","type":"function"},{"inputs":[],"name":"nextIndex","outputs":[{"internalType":"uint32","name":"","type":"uint32"}],"stateMutability":"view","type":"function"},{"inputs":[{"internalType":"bytes32","name":"","type":"bytes32"}],"name":"nullifiers","outputs":[{"internalType":"bool","name":"","type":"bool"}],"stateMutability":"view","type":"function"},{"inputs":[],"name":"owner","outputs":[{"internalType":"address","name":"","type":"address"}],"stateMutability":"view","type":"function"},{"inputs":[{"internalType":"bytes","name":"","type":"bytes"}],"name":"performUpkeep","outputs":[],"stateMutability":"nonpayable","type":"function"},{"inputs":[{"internalType":"string","name":"_message","type":"string"},{"internalType":"bytes32","name":"_nullifierHash","type":"bytes32"},{"internalType":"bytes32","name":"_root","type":"bytes32"},{"components":[{"internalType":"uint256[2]","name":"a","type":"uint256[2]"},{"internalType":"uint256[2][2]","name":"b","type":"uint256[2][2]"},{"internalType":"uint256[2]","name":"c","type":"uint256[2]"}],"internalType":"struct Proof","name":"_proof","type":"tuple"}],"name":"postMessageWithProof","outputs":[],"stateMutability":"nonpayable","type":"function"},{"inputs":[],"name":"requestCBOR","outputs":[{"internalType":"bytes","name":"","type":"bytes"}],"stateMutability":"view","type":"function"},{"inputs":[],"name":"responseCounter","outputs":[{"internalType":"uint256","name":"","type":"uint256"}],"stateMutability":"view","type":"function"},{"inputs":[{"internalType":"uint256","name":"","type":"uint256"}],"name":"roots","outputs":[{"internalType":"bytes32","name":"","type":"bytes32"}],"stateMutability":"view","type":"function"},{"inputs":[],"name":"subscriptionId","outputs":[{"internalType":"uint64","name":"","type":"uint64"}],"stateMutability":"view","type":"function"},{"inputs":[],"name":"subscriptionManager","outputs":[{"internalType":"contract IVRFv2SubscriptionManager","name":"","type":"address"}],"stateMutability":"view","type":"function"},{"inputs":[{"internalType":"address","name":"to","type":"address"}],"name":"transferOwnership","outputs":[],"stateMutability":"nonpayable","type":"function"},{"inputs":[],"name":"updateInterval","outputs":[{"internalType":"uint256","name":"","type":"uint256"}],"stateMutability":"view","type":"function"},{"inputs":[],"name":"upkeepCounter","outputs":[{"internalType":"uint256","name":"","type":"uint256"}],"stateMutability":"view","type":"function"},{"inputs":[],"name":"verifier","outputs":[{"internalType":"contract IVerifier","name":"","type":"address"}],"stateMutability":"view","type":"function"},{"inputs":[{"internalType":"uint256","name":"","type":"uint256"}],"name":"zeros","outputs":[{"internalType":"bytes32","name":"","type":"bytes32"}],"stateMutability":"view","type":"function"}],"evm":{"bytecode":{"linkReferences":{},"object":"60a0604052600780546001600160401b03191690553480156200002157600080fd5b50604051620038b2380380620038b283398101604081905262000044916200070a565b600080546001600160a01b0319166001600160a01b03891617815585908590339081906001600160a01b038216620000c35760405162461bcd60e51b815260206004820152601860248201527f43616e6e6f7420736574206f776e657220746f207a65726f000000000000000060448201526064015b60405180910390fd5b600280546001600160a01b0319166001600160a01b0384811691909117909155811615620000f657620000f68162000337565b505050602063ffffffff831611156200016257604051632d5d403760e01b815260206004820152602660248201527f54726565206c6576656c732073686f756c64206265206265747765656e20302060448201526530b73210199960d11b6064820152608401620000ba565b600480546001600160a01b0319166001600160a01b03831617905563ffffffff82166080526006805460018181019092557f2fe54c60d3acabf3343a35b6eba15db4821b340f76e741e2249685ed4899af6c600080516020620038928339815191529091018190556005805480840182556000919091526000805160206200387283398151915201819055905b8363ffffffff168163ffffffff1610156200026757620002108280620003e4565b600680546001818101909255600080516020620038928339815191520182905560058054918201815560005260008051602062003872833981519152018190559150806200025e81620007b7565b915050620001ef565b50620002748180620003e4565b60085550506001606c55506040805160008082526020820190925290620002ac565b6060815260200190600190039081620002965790505b508051620002c39160799160209091019062000571565b50607580546001600160a01b039788166001600160a01b0319918216179091556076805494909716931692909217909455606e805463ffffffff90921668010000000000000000026001600160601b03199092166001600160401b039095169490941717909255505042606f555062000874565b6001600160a01b038116331415620003925760405162461bcd60e51b815260206004820152601760248201527f43616e6e6f74207472616e7366657220746f2073656c660000000000000000006044820152606401620000ba565b600380546001600160a01b0319166001600160a01b03838116918217909255600254604051919216907fed8889f560326eb138920d842192f0eb3dd22b4f139c87a2c57538e05bae127890600090a350565b60007f30644e72e131a029b85045b68181585d2833e84879b9709143e1f593f00000018310620004575760405162461bcd60e51b815260206004820181905260248201527f5f6c6566742073686f756c6420626520696e7369646520746865206669656c646044820152606401620000ba565b7f30644e72e131a029b85045b68181585d2833e84879b9709143e1f593f00000018210620004d25760405162461bcd60e51b815260206004820152602160248201527f5f72696768742073686f756c6420626520696e7369646520746865206669656c6044820152601960fa1b6064820152608401620000ba565b6040805180820182528481526020810184905260048054925163014cf2b360e51b815291926001600160a01b03169163299e5660916200051591859101620007ea565b60206040518083038186803b1580156200052e57600080fd5b505afa15801562000543573d6000803e3d6000fd5b505050506040513d601f19601f820116820180604052508101906200056991906200081d565b949350505050565b828054828255906000526020600020908101928215620005c3579160200282015b82811115620005c35782518051620005b2918491602090910190620005d5565b509160200191906001019062000592565b50620005d192915062000660565b5090565b828054620005e39062000837565b90600052602060002090601f01602090048101928262000607576000855562000652565b82601f106200062257805160ff191683800117855562000652565b8280016001018555821562000652579182015b828111156200065257825182559160200191906001019062000635565b50620005d192915062000681565b80821115620005d157600062000677828262000698565b5060010162000660565b5b80821115620005d1576000815560010162000682565b508054620006a69062000837565b6000825580601f10620006b7575050565b601f016020900490600052602060002090810190620006d7919062000681565b50565b6001600160a01b0381168114620006d757600080fd5b805163ffffffff811681146200070557600080fd5b919050565b600080600080600080600060e0888a0312156200072657600080fd5b87516200073381620006da565b60208901519097506200074681620006da565b95506200075660408901620006f0565b945060608801516200076881620006da565b60808901519094506200077b81620006da565b60a08901519093506001600160401b03811681146200079957600080fd5b9150620007a960c08901620006f0565b905092959891949750929550565b600063ffffffff80831681811415620007e057634e487b7160e01b600052601160045260246000fd5b6001019392505050565b60408101818360005b600281101562000814578151835260209283019290910190600101620007f3565b50505092915050565b6000602082840312156200083057600080fd5b5051919050565b600181811c908216806200084c57607f821691505b602082108114156200086e57634e487b7160e01b600052602260045260246000fd5b50919050565b608051612fcd620008a5600039600081816103d8015281816113d3015281816114b301526119290152612fcd6000f3fe608060405234801561001057600080fd5b50600436106102535760003560e01c80638d82496e11610146578063d4b39175116100c3578063f178e47c11610087578063f178e47c1461058b578063f2fde38b1461059e578063fc7e9c6f146105b1578063fd2c80ae146105c9578063fe083012146105d3578063fffeb84e146105e657600080fd5b8063d4b3917514610506578063df65850a14610536578063e82955881461053e578063ec73295914610551578063ed33639f1461057857600080fd5b8063bef3a2f01161010a578063bef3a2f0146104c8578063bf158fd2146104d0578063c2b40ae4146104e3578063cd87a3b4146104f6578063d328a91e146104fe57600080fd5b80638d82496e146104835780638da5cb5b1461049657806390eeb02b146104a7578063a3d3c0d2146104b7578063ba70f757146104c057600080fd5b806338bf282e116101d4578063688ecfd111610198578063688ecfd11461040f5780636d9833e3146104245780636e04ff0d1461043757806379ba509714610458578063839df9451461046057600080fd5b806338bf282e14610386578063414a37ba146103995780634585e33b146103c05780634ecf518b146103d35780635ff6cbf3146103fa57600080fd5b806322dc7b4c1161021b57806322dc7b4c146102d057806324b93e3e146103035780632997e86b1461032f5780632b7ac3f314610352578063381fc4b51461037d57600080fd5b8063089ea02e1461025857806309c1ba2e146102745780630ca761751461029f5780631aa46f59146102b4578063218fc350146102bd575b600080fd5b610261606f5481565b6040519081526020015b60405180910390f35b606e54610287906001600160401b031681565b6040516001600160401b03909116815260200161026b565b6102b26102ad36600461232b565b6105ee565b005b61026160725481565b6102b26102cb3660046123e7565b61067b565b6102f36102de3660046124d4565b60009081526077602052604090205460ff1690565b604051901515815260200161026b565b606e5461031a90600160401b900463ffffffff1681565b60405163ffffffff909116815260200161026b565b6102f361033d3660046124d4565b60776020526000908152604090205460ff1681565b607554610365906001600160a01b031681565b6040516001600160a01b03909116815260200161026b565b61026160715481565b6102616103943660046124ed565b6108a9565b6102617f30644e72e131a029b85045b68181585d2833e84879b9709143e1f593f000000181565b6102b26103ce366004612557565b610a2e565b61031a7f000000000000000000000000000000000000000000000000000000000000000081565b610402610c2a565b60405161026b91906125f0565b610417610d03565b60405161026b9190612652565b6102f36104323660046124d4565b610d91565b61044a610445366004612665565b610e0f565b60405161026b929190612699565b6102b2610e2d565b6102f361046e3660046124d4565b60786020526000908152604090205460ff1681565b6102b26104913660046124d4565b610edb565b6002546001600160a01b0316610365565b60075461031a9063ffffffff1681565b61026160705481565b610261610fc1565b610417610fe7565b607654610365906001600160a01b031681565b6102616104f13660046124d4565b610ff4565b61031a606481565b61041761100b565b6105196105143660046127a6565b611090565b6040516bffffffffffffffffffffffff909116815260200161026b565b6102b2611128565b61026161054c3660046124d4565b6111a8565b6102617f2fe54c60d3acabf3343a35b6eba15db4821b340f76e741e2249685ed4899af6c81565b600454610365906001600160a01b031681565b6102616105993660046124d4565b6111c9565b6102b26105ac3660046128cc565b6111d9565b60075461031a90640100000000900463ffffffff1681565b6102616212750081565b6104176105e13660046128e9565b6111ea565b6104176112e4565b60008381526001602052604090205483906001600160a01b031633146106275760405163a0c5ec6360e01b815260040160405180910390fd5b60008181526001602052604080822080546001600160a01b03191690555182917f85e1543bf2f84fe80c6badbce3648c8539ad1df4d2b3d822938ca0538be727e691a26106758484846112f1565b50505050565b610683611360565b60008381526077602052604090205460ff16156106e1576040516337a51b3d60e21b8152602060048201526016602482015275139d5b1b1a599a595c88185b1c9958591e481d5cd95960521b60448201526064015b60405180910390fd5b6106ea82610d91565b6107285760405163a4305b1360e01b815260206004820152600e60248201526d2937b7ba103737ba1035b737bbb760911b60448201526064016106d8565b6040805180820182528381526020808201869052607554845191850151858501519451637ae4eb4f60e11b815293946001600160a01b039092169363f5c9d69e9361077a9390929187906004016129d4565b602060405180830381600087803b15801561079457600080fd5b505af11580156107a8573d6000803e3d6000fd5b505050506040513d601f19601f820116820180604052508101906107cc9190612a3b565b610809576040516309daa30960e21b815260206004820152600d60248201526c24b73b30b634b210383937b7b360991b60448201526064016106d8565b60008481526077602090815260408220805460ff191660019081179091556079805491820181559092528651610864927f957bbdc7fad0dec56e7c96af4a3ab63aa9daf934a52ffce891945b7fb622d791019188019061203d565b507f06b6c80bb5c4b26d73a7cf3586c1b2f17bd79f8f7fd3c3e14f9cd709265741208585604051610896929190612a5d565b60405180910390a1506106756001606c55565b60007f30644e72e131a029b85045b68181585d2833e84879b9709143e1f593f0000001831061091a5760405162461bcd60e51b815260206004820181905260248201527f5f6c6566742073686f756c6420626520696e7369646520746865206669656c6460448201526064016106d8565b7f30644e72e131a029b85045b68181585d2833e84879b9709143e1f593f000000182106109935760405162461bcd60e51b815260206004820152602160248201527f5f72696768742073686f756c6420626520696e7369646520746865206669656c6044820152601960fa1b60648201526084016106d8565b6040805180820182528481526020810184905260048054925163014cf2b360e51b815291926001600160a01b03169163299e5660916109d491859101612a7f565b60206040518083038186803b1580156109ec57600080fd5b505afa158015610a00573d6000803e3d6000fd5b505050506040513d601f19601f82011682018060405250810190610a249190612ab0565b9150505b92915050565b6000610a4860405180602001604052806000815250610e0f565b50905080610a9157604051632f0c8d4b60e21b8152602060048201526015602482015274151a5b59481a5b9d195c9d985b081b9bdd081b595d605a1b60448201526064016106d8565b42606f55607054610aa3906001612adf565b60705560008054606e54604051630a090ac160e21b81526001600160a01b03909216916328242b0491610af5916001600160401b03821691606d91600160401b90910463ffffffff1690600401612b2c565b602060405180830381600087803b158015610b0f57600080fd5b505af1158015610b23573d6000803e3d6000fd5b505050506040513d601f19601f82011682018060405250810190610b479190612ab0565b905060008054906101000a90046001600160a01b03166001600160a01b0316635ab1bd536040518163ffffffff1660e01b815260040160206040518083038186803b158015610b9557600080fd5b505afa158015610ba9573d6000803e3d6000fd5b505050506040513d601f19601f82011682018060405250810190610bcd9190612bf2565b60008281526001602052604080822080546001600160a01b0319166001600160a01b039490941693909317909255905182917f1131472297a800fee664d1d89cfa8f7676ff07189ecc53f80bbb5f4969099db891a2607255505050565b60606079805480602002602001604051908101604052809291908181526020016000905b82821015610cfa578382906000526020600020018054610c6d90612af7565b80601f0160208091040260200160405190810160405280929190818152602001828054610c9990612af7565b8015610ce65780601f10610cbb57610100808354040283529160200191610ce6565b820191906000526020600020905b815481529060010190602001808311610cc957829003601f168201915b505050505081526020019060010190610c4e565b50505050905090565b606d8054610d1090612af7565b80601f0160208091040260200160405190810160405280929190818152602001828054610d3c90612af7565b8015610d895780601f10610d5e57610100808354040283529160200191610d89565b820191906000526020600020905b815481529060010190602001808311610d6c57829003601f168201915b505050505081565b600081610da057506000919050565b60075463ffffffff165b60088163ffffffff1660648110610dc357610dc3612c0f565b0154831415610dd55750600192915050565b63ffffffff8116610de4575060645b80610dee81612c25565b60075490925063ffffffff808416911614159050610daa5750600092915050565b6000606062127500606f5442610e259190612c45565b119150915091565b6003546001600160a01b03163314610e805760405162461bcd60e51b815260206004820152601660248201527526bab9ba10313290383937b837b9b2b21037bbb732b960511b60448201526064016106d8565b600280546001600160a01b0319808216339081179093556003805490911690556040516001600160a01b03909116919082907f8be0079c531659141344cd1fd0a4f28419497f9722a3daafe3b4186f6b6457e090600090a350565b610ee3611360565b60008181526078602052604090205460ff1615610f4357604051632f40bf3560e01b815260206004820152601760248201527f436f6d6d69746d656e7420616c7265616479207573656400000000000000000060448201526064016106d8565b6000610f4e826113ba565b60008381526078602052604090819020805460ff19166001179055519091507fb78452bc487dc90d6a0a567cf87858dae69e144c5f299a43ed6964629c219e2a90610fab908490849091825263ffffffff16602082015260400190565b60405180910390a150610fbe6001606c55565b50565b60075460009060089063ffffffff1660648110610fe057610fe0612c0f565b0154905090565b60738054610d1090612af7565b6008816064811061100457600080fd5b0154905081565b6000805460408051636994548f60e11b815290516060936001600160a01b039093169263d328a91e9260048082019391829003018186803b15801561104f57600080fd5b505afa158015611063573d6000803e3d6000fd5b505050506040513d6000823e601f3d908101601f1916820160405261108b9190810190612c5c565b905090565b600080546001600160a01b031663d227d245856110ac8861161c565b86866040518563ffffffff1660e01b81526004016110cd9493929190612cc9565b60206040518083038186803b1580156110e557600080fd5b505afa1580156110f9573d6000803e3d6000fd5b505050506040513d601f19601f8201168201806040525081019061111d9190612d04565b90505b949350505050565b611134607960006120c1565b604080516000808252602082019092529061115f565b606081526020019060019003908161114a5790505b508051611174916079916020909101906120df565b5061117d611838565b6040517f84b7226822737d667aa57d064ceffa18dbf761c762c54d5b119bfbc3275bf18a90600090a1565b600681815481106111b857600080fd5b600091825260209091200154905081565b600581815481106111b857600080fd5b6111e16119ec565b610fbe81611a41565b60606112266040805160c08101909152806000815260200160008152602001600081526020016060815260200160608152602001606081525090565b61126d6000808a8a8080601f01602080910402602001604051908101604052809392919081815260200183838082843760009201919091525087959493925050611aec9050565b84156112b5576112b586868080601f0160208091040260200160405190810160405280939291908181526020018383808284376000920191909152508593925050611b679050565b82156112cf576112cf6112c88486612d32565b8290611b95565b6112d88161161c565b98975050505050505050565b60748054610d1090612af7565b815161130490607390602085019061203d565b50805161131890607490602084019061203d565b50827f7bab0ec163b5c132c72b8146ac4d6e067e82ed58f8b131150aa71c9258911562838360405161134b929190612d3f565b60405180910390a261135b611128565b505050565b6002606c5414156113b35760405162461bcd60e51b815260206004820152601f60248201527f5265656e7472616e637947756172643a207265656e7472616e742063616c6c0060448201526064016106d8565b6002606c55565b600754600090640100000000900463ffffffff166113f97f00000000000000000000000000000000000000000000000000000000000000006002612e48565b8163ffffffff16106114665760405163d7e8473f60e01b815260206004820152602f60248201527f4d65726b6c6520747265652069732066756c6c2e204e6f206d6f7265206c656160448201526e199cc818d85b881899481859191959608a1b60648201526084016106d8565b6001600760048282829054906101000a900463ffffffff166114889190612e5a565b92506101000a81548163ffffffff021916908363ffffffff160217905550600083905060008060005b7f000000000000000000000000000000000000000000000000000000000000000063ffffffff168163ffffffff1610156115a3576114f0600286612e98565b63ffffffff1661154e5783925060068163ffffffff168154811061151657611516612c0f565b906000526020600020015491508360058263ffffffff168154811061153d5761153d612c0f565b600091825260209091200155611578565b60058163ffffffff168154811061156757611567612c0f565b906000526020600020015492508391505b61158283836108a9565b935061158f600286612ebb565b94508061159b81612ede565b9150506114b1565b506007546064906115bb9063ffffffff166001612e5a565b6115c59190612e98565b6007805463ffffffff191663ffffffff9290921691821790558390600890606481106115f3576115f3612c0f565b015560075461161290600190640100000000900463ffffffff16612f02565b9695505050505050565b606061163b604051806040016040528060608152602001600081525090565b61164781610100611bbc565b5060408051808201909152600c81526b31b7b232a637b1b0ba34b7b760a11b6020820152611676908290611c21565b825161169490600181111561168d5761168d612f27565b8290611c38565b6040805180820190915260088152676c616e677561676560c01b60208201526116be908290611c21565b60408301516116d590801561168d5761168d612f27565b604080518082019091526006815265736f7572636560d01b60208201526116fd908290611c21565b606083015161170d908290611c21565b60a083015151156117a3576040805180820190915260048152636172677360e01b602082015261173e908290611c21565b61174781611c61565b60005b8360a0015151811015611799576117878460a00151828151811061177057611770612c0f565b602002602001015183611c2190919063ffffffff16565b8061179181612f3d565b91505061174a565b506117a381611c6c565b608083015151156118315760408051808201909152600f81526e39b2b1b932ba39a637b1b0ba34b7b760891b60208201526117df908290611c21565b6117f88360200151600181111561168d5761168d612f27565b6040805180820190915260078152667365637265747360c81b6020820152611821908290611c21565b6080830151611831908290611c77565b5192915050565b61184460056000612138565b61185060066000612138565b604080516000815260208101918290525161186d91600591612156565b50604080516000815260208101918290525161188b91600691612156565b506007805467ffffffffffffffff191690556006805460018181019092557f2fe54c60d3acabf3343a35b6eba15db4821b340f76e741e2249685ed4899af6c7ff652222313e28459528d920b65115c16c04f3efc82aaedc97be59f3f377c0d3f9091018190556005805480840182556000919091527f036b6384b5eca791c62761152d0c79bb0604c104a5fb6f4eb0703f3154bb3db001819055905b7f000000000000000000000000000000000000000000000000000000000000000063ffffffff168163ffffffff1610156119db5761196582836108a9565b6006805460018181019092557ff652222313e28459528d920b65115c16c04f3efc82aaedc97be59f3f377c0d3f018290556005805491820181556000527f036b6384b5eca791c62761152d0c79bb0604c104a5fb6f4eb0703f3154bb3db0018190559150806119d381612ede565b915050611927565b506119e681826108a9565b60085550565b6002546001600160a01b03163314611a3f5760405162461bcd60e51b815260206004820152601660248201527527b7363c9031b0b63630b1363290313c9037bbb732b960511b60448201526064016106d8565b565b6001600160a01b038116331415611a9a5760405162461bcd60e51b815260206004820152601760248201527f43616e6e6f74207472616e7366657220746f2073656c6600000000000000000060448201526064016106d8565b600380546001600160a01b0319166001600160a01b03838116918217909255600254604051919216907fed8889f560326eb138920d842192f0eb3dd22b4f139c87a2c57538e05bae127890600090a350565b8051611b0b576040516322ce3edd60e01b815260040160405180910390fd5b83836001811115611b1e57611b1e612f27565b90816001811115611b3157611b31612f27565b90525060408401828015611b4757611b47612f27565b90818015611b5757611b57612f27565b9052506060909301929092525050565b8051611b865760405163e889636f60e01b815260040160405180910390fd5b60016020830152608090910152565b8051611bb45760405163fe936cb760e01b815260040160405180910390fd5b60a090910152565b604080518082019091526060815260006020820152611bdc602083612f58565b15611c0457611bec602083612f58565b611bf7906020612c45565b611c019083612adf565b91505b506020828101829052604080518085526000815290920101905290565b611c2e8260038351611c80565b61135b8282611d87565b6001600160401b03811115611c5557611c518282611db5565b5050565b611c5182600083611c80565b610fbe816004611dec565b610fbe816007611dec565b611c2e82600283515b6017816001600160401b031611611ca4576106758360e0600585901b168317611dfd565b60ff816001600160401b031611611ce057611cca836018611fe0600586901b1617611dfd565b50610675836001600160401b0383166001611e22565b61ffff816001600160401b031611611d1d57611d07836019611fe0600586901b1617611dfd565b50610675836001600160401b0383166002611e22565b63ffffffff816001600160401b031611611d5c57611d4683601a611fe0600586901b1617611dfd565b50610675836001600160401b0383166004611e22565b611d7183601b611fe0600586901b1617611dfd565b50610675836001600160401b0383166008611e22565b604080518082019091526060815260006020820152611dae83846000015151848551611e48565b9392505050565b611dc08260c2611dfd565b50611c518282604051602001611dd891815260200190565b604051602081830303815290604052611c77565b61135b82601f611fe0600585901b16175b604080518082019091526060815260006020820152611dae8384600001515184611f32565b604080518082019091526060815260006020820152611120848560000151518585611f8e565b6040805180820190915260608152600060208201528251821115611e6b57600080fd5b6020850151611e7a8386612adf565b1115611ead57611ead85611e9d87602001518786611e989190612adf565b61200f565b611ea8906002612f6c565b612026565b600080865180518760208301019350808887011115611ecc5787860182525b505050602084015b60208410611f0c5780518252611eeb602083612adf565b9150611ef8602082612adf565b9050611f05602085612c45565b9350611ed4565b51815160001960208690036101000a019081169019919091161790525083949350505050565b60408051808201909152606081526000602082015283602001518310611f6757611f678485602001516002611ea89190612f6c565b835180516020858301018481535080851415611f84576001810182525b5093949350505050565b6040805180820190915260608152600060208201526020850151611fb28584612adf565b1115611fc657611fc685611e9d8685612adf565b60006001611fd684610100612f8b565b611fe09190612c45565b90508551838682010185831982511617815250805184870111156120045783860181525b509495945050505050565b600081831115612020575081610a28565b50919050565b81516120328383611bbc565b506106758382611d87565b82805461204990612af7565b90600052602060002090601f01602090048101928261206b57600085556120b1565b82601f1061208457805160ff19168380011785556120b1565b828001600101855582156120b1579182015b828111156120b1578251825591602001919060010190612096565b506120bd929150612190565b5090565b5080546000825590600052602060002090810190610fbe91906121a5565b82805482825590600052602060002090810192821561212c579160200282015b8281111561212c578251805161211c91849160209091019061203d565b50916020019190600101906120ff565b506120bd9291506121a5565b5080546000825590600052602060002090810190610fbe9190612190565b8280548282559060005260206000209081019282156120b157916020028201828111156120b1578251825591602001919060010190612096565b5b808211156120bd5760008155600101612191565b808211156120bd5760006121b982826121c2565b506001016121a5565b5080546121ce90612af7565b6000825580601f106121de575050565b601f016020900490600052602060002090810190610fbe9190612190565b634e487b7160e01b600052604160045260246000fd5b604051606081016001600160401b0381118282101715612234576122346121fc565b60405290565b60405160c081016001600160401b0381118282101715612234576122346121fc565b604080519081016001600160401b0381118282101715612234576122346121fc565b604051601f8201601f191681016001600160401b03811182821017156122a6576122a66121fc565b604052919050565b60006001600160401b038211156122c7576122c76121fc565b50601f01601f191660200190565b600082601f8301126122e657600080fd5b81356122f96122f4826122ae565b61227e565b81815284602083860101111561230e57600080fd5b816020850160208301376000918101602001919091529392505050565b60008060006060848603121561234057600080fd5b8335925060208401356001600160401b038082111561235e57600080fd5b61236a878388016122d5565b9350604086013591508082111561238057600080fd5b5061238d868287016122d5565b9150509250925092565b600082601f8301126123a857600080fd5b6123b061225c565b8060408401858111156123c257600080fd5b845b818110156123dc5780358452602093840193016123c4565b509095945050505050565b6000806000808486036101608112156123ff57600080fd5b85356001600160401b0381111561241557600080fd5b612421888289016122d5565b95505060208681013594506040808801359450610100605f198401121561244757600080fd5b61244f612212565b925061245e8960608a01612397565b83528860bf89011261246f57600080fd5b61247761225c565b806101208a018b81111561248a57600080fd5b60a08b015b818110156124ae576124a18d82612397565b845292850192840161248f565b5081858701526124be8c82612397565b8487015250505050508091505092959194509250565b6000602082840312156124e657600080fd5b5035919050565b6000806040838503121561250057600080fd5b50508035926020909101359150565b60008083601f84011261252157600080fd5b5081356001600160401b0381111561253857600080fd5b60208301915083602082850101111561255057600080fd5b9250929050565b6000806020838503121561256a57600080fd5b82356001600160401b0381111561258057600080fd5b61258c8582860161250f565b90969095509350505050565b60005b838110156125b357818101518382015260200161259b565b838111156106755750506000910152565b600081518084526125dc816020860160208601612598565b601f01601f19169290920160200192915050565b6000602080830181845280855180835260408601915060408160051b870101925083870160005b8281101561264557603f198886030184526126338583516125c4565b94509285019290850190600101612617565b5092979650505050505050565b602081526000611dae60208301846125c4565b60006020828403121561267757600080fd5b81356001600160401b0381111561268d57600080fd5b610a24848285016122d5565b821515815260406020820152600061112060408301846125c4565b8035600281106126c357600080fd5b919050565b8035600181106126c357600080fd5b60006001600160401b03808411156126f1576126f16121fc565b8360051b602061270281830161227e565b8681529350908401908084018783111561271b57600080fd5b855b8381101561274f578035858111156127355760008081fd5b6127418a828a016122d5565b83525090820190820161271d565b50505050509392505050565b600082601f83011261276c57600080fd5b611dae838335602085016126d7565b80356001600160401b03811681146126c357600080fd5b803563ffffffff811681146126c357600080fd5b600080600080608085870312156127bc57600080fd5b84356001600160401b03808211156127d357600080fd5b9086019060c082890312156127e757600080fd5b6127ef61223a565b6127f8836126b4565b8152612806602084016126b4565b6020820152612817604084016126c8565b604082015260608301358281111561282e57600080fd5b61283a8a8286016122d5565b60608301525060808301358281111561285257600080fd5b61285e8a8286016122d5565b60808301525060a08301358281111561287657600080fd5b6128828a82860161275b565b60a08301525095506128999150506020860161277b565b92506128a760408601612792565b9396929550929360600135925050565b6001600160a01b0381168114610fbe57600080fd5b6000602082840312156128de57600080fd5b8135611dae816128b7565b6000806000806000806060878903121561290257600080fd5b86356001600160401b038082111561291957600080fd5b6129258a838b0161250f565b9098509650602089013591508082111561293e57600080fd5b61294a8a838b0161250f565b9096509450604089013591508082111561296357600080fd5b818901915089601f83011261297757600080fd5b81358181111561298657600080fd5b8a60208260051b850101111561299b57600080fd5b6020830194508093505050509295509295509295565b8060005b60028110156106755781518452602093840193909101906001016129b5565b61014081016129e382876129b1565b60408083018660005b6002811015612a1357612a008383516129b1565b91830191602091909101906001016129ec565b50505050612a2460c08301856129b1565b612a326101008301846129b1565b95945050505050565b600060208284031215612a4d57600080fd5b81518015158114611dae57600080fd5b604081526000612a7060408301856125c4565b90508260208301529392505050565b60408101818360005b6002811015612aa7578151835260209283019290910190600101612a88565b50505092915050565b600060208284031215612ac257600080fd5b5051919050565b634e487b7160e01b600052601160045260246000fd5b60008219821115612af257612af2612ac9565b500190565b600181811c90821680612b0b57607f821691505b6020821081141561202057634e487b7160e01b600052602260045260246000fd5b6001600160401b0384168152600060206060818401526000855481600182811c915080831680612b5d57607f831692505b858310811415612b7b57634e487b7160e01b85526022600452602485fd5b6060880183905260808801818015612b9a5760018114612bab57612bd6565b60ff19861682528782019650612bd6565b60008c81526020902060005b86811015612bd057815484820152908501908901612bb7565b83019750505b50505063ffffffff881660408801525091935061112092505050565b600060208284031215612c0457600080fd5b8151611dae816128b7565b634e487b7160e01b600052603260045260246000fd5b600063ffffffff821680612c3b57612c3b612ac9565b6000190192915050565b600082821015612c5757612c57612ac9565b500390565b600060208284031215612c6e57600080fd5b81516001600160401b03811115612c8457600080fd5b8201601f81018413612c9557600080fd5b8051612ca36122f4826122ae565b818152856020838501011115612cb857600080fd5b612a32826020830160208601612598565b6001600160401b0385168152608060208201526000612ceb60808301866125c4565b63ffffffff949094166040830152506060015292915050565b600060208284031215612d1657600080fd5b81516bffffffffffffffffffffffff81168114611dae57600080fd5b6000611dae3684846126d7565b604081526000612d5260408301856125c4565b8281036020840152612a3281856125c4565b600181815b80851115612d9f578160001904821115612d8557612d85612ac9565b80851615612d9257918102915b93841c9390800290612d69565b509250929050565b600082612db657506001610a28565b81612dc357506000610a28565b8160018114612dd95760028114612de357612dff565b6001915050610a28565b60ff841115612df457612df4612ac9565b50506001821b610a28565b5060208310610133831016604e8410600b8410161715612e22575081810a610a28565b612e2c8383612d64565b8060001904821115612e4057612e40612ac9565b029392505050565b6000611dae63ffffffff841683612da7565b600063ffffffff808316818516808303821115612e7957612e79612ac9565b01949350505050565b634e487b7160e01b600052601260045260246000fd5b600063ffffffff80841680612eaf57612eaf612e82565b92169190910692915050565b600063ffffffff80841680612ed257612ed2612e82565b92169190910492915050565b600063ffffffff80831681811415612ef857612ef8612ac9565b6001019392505050565b600063ffffffff83811690831681811015612f1f57612f1f612ac9565b039392505050565b634e487b7160e01b600052602160045260246000fd5b6000600019821415612f5157612f51612ac9565b5060010190565b600082612f6757612f67612e82565b500690565b6000816000190483118215151615612f8657612f86612ac9565b500290565b6000611dae8383612da756fea26469706673582212205b5d2337907145e1c4e566b6a4bd53ac5b13f740c8288d4b3b719d730eb4bb0964736f6c63430008090033036b6384b5eca791c62761152d0c79bb0604c104a5fb6f4eb0703f3154bb3db0f652222313e28459528d920b65115c16c04f3efc82aaedc97be59f3f377c0d3f","opcodes":"PUSH1 0xA0 PUSH1 0x40 MSTORE PUSH1 0x7 DUP1 SLOAD PUSH1 0x1 PUSH1 0x1 PUSH1 0x40 SHL SUB NOT AND SWAP1 SSTORE CALLVALUE DUP1 ISZERO PUSH3 0x21 JUMPI PUSH1 0x0 DUP1 REVERT JUMPDEST POP PUSH1 0x40 MLOAD PUSH3 0x38B2 CODESIZE SUB DUP1 PUSH3 0x38B2 DUP4 CODECOPY DUP2 ADD PUSH1 0x40 DUP2 SWAP1 MSTORE PUSH3 0x44 SWAP2 PUSH3 0x70A JUMP JUMPDEST PUSH1 0x0 DUP1 SLOAD PUSH1 0x1 PUSH1 0x1 PUSH1 0xA0 SHL SUB NOT AND PUSH1 0x1 PUSH1 0x1 PUSH1 0xA0 SHL SUB DUP10 AND OR DUP2 SSTORE DUP6 SWAP1 DUP6 SWAP1 CALLER SWAP1 DUP2 SWAP1 PUSH1 0x1 PUSH1 0x1 PUSH1 0xA0 SHL SUB DUP3 AND PUSH3 0xC3 JUMPI PUSH1 0x40 MLOAD PUSH3 0x461BCD PUSH1 0xE5 SHL DUP2 MSTORE PUSH1 0x20 PUSH1 0x4 DUP3 ADD MSTORE PUSH1 0x18 PUSH1 0x24 DUP3 ADD MSTORE PUSH32 0x43616E6E6F7420736574206F776E657220746F207A65726F0000000000000000 PUSH1 0x44 DUP3 ADD MSTORE PUSH1 0x64 ADD JUMPDEST PUSH1 0x40 MLOAD DUP1 SWAP2 SUB SWAP1 REVERT JUMPDEST PUSH1 0x2 DUP1 SLOAD PUSH1 0x1 PUSH1 0x1 PUSH1 0xA0 SHL SUB NOT AND PUSH1 0x1 PUSH1 0x1 PUSH1 0xA0 SHL SUB DUP5 DUP2 AND SWAP2 SWAP1 SWAP2 OR SWAP1 SWAP2 SSTORE DUP2 AND ISZERO PUSH3 0xF6 JUMPI PUSH3 0xF6 DUP2 PUSH3 0x337 JUMP JUMPDEST POP POP POP PUSH1 0x20 PUSH4 0xFFFFFFFF DUP4 AND GT ISZERO PUSH3 0x162 JUMPI PUSH1 0x40 MLOAD PUSH4 0x2D5D4037 PUSH1 0xE0 SHL DUP2 MSTORE PUSH1 0x20 PUSH1 0x4 DUP3 ADD MSTORE PUSH1 0x26 PUSH1 0x24 DUP3 ADD MSTORE PUSH32 0x54726565206C6576656C732073686F756C64206265206265747765656E203020 PUSH1 0x44 DUP3 ADD MSTORE PUSH6 0x30B732101999 PUSH1 0xD1 SHL PUSH1 0x64 DUP3 ADD MSTORE PUSH1 0x84 ADD PUSH3 0xBA JUMP JUMPDEST PUSH1 0x4 DUP1 SLOAD PUSH1 0x1 PUSH1 0x1 PUSH1 0xA0 SHL SUB NOT AND PUSH1 0x1 PUSH1 0x1 PUSH1 0xA0 SHL SUB DUP4 AND OR SWAP1 SSTORE PUSH4 0xFFFFFFFF DUP3 AND PUSH1 0x80 MSTORE PUSH1 0x6 DUP1 SLOAD PUSH1 0x1 DUP2 DUP2 ADD SWAP1 SWAP3 SSTORE PUSH32 0x2FE54C60D3ACABF3343A35B6EBA15DB4821B340F76E741E2249685ED4899AF6C PUSH1 0x0 DUP1 MLOAD PUSH1 0x20 PUSH3 0x3892 DUP4 CODECOPY DUP2 MLOAD SWAP2 MSTORE SWAP1 SWAP2 ADD DUP2 SWAP1 SSTORE PUSH1 0x5 DUP1 SLOAD DUP1 DUP5 ADD DUP3 SSTORE PUSH1 0x0 SWAP2 SWAP1 SWAP2 MSTORE PUSH1 0x0 DUP1 MLOAD PUSH1 0x20 PUSH3 0x3872 DUP4 CODECOPY DUP2 MLOAD SWAP2 MSTORE ADD DUP2 SWAP1 SSTORE SWAP1 JUMPDEST DUP4 PUSH4 0xFFFFFFFF AND DUP2 PUSH4 0xFFFFFFFF AND LT ISZERO PUSH3 0x267 JUMPI PUSH3 0x210 DUP3 DUP1 PUSH3 0x3E4 JUMP JUMPDEST PUSH1 0x6 DUP1 SLOAD PUSH1 0x1 DUP2 DUP2 ADD SWAP1 SWAP3 SSTORE PUSH1 0x0 DUP1 MLOAD PUSH1 0x20 PUSH3 0x3892 DUP4 CODECOPY DUP2 MLOAD SWAP2 MSTORE ADD DUP3 SWAP1 SSTORE PUSH1 0x5 DUP1 SLOAD SWAP2 DUP3 ADD DUP2 SSTORE PUSH1 0x0 MSTORE PUSH1 0x0 DUP1 MLOAD PUSH1 0x20 PUSH3 0x3872 DUP4 CODECOPY DUP2 MLOAD SWAP2 MSTORE ADD DUP2 SWAP1 SSTORE SWAP2 POP DUP1 PUSH3 0x25E DUP2 PUSH3 0x7B7 JUMP JUMPDEST SWAP2 POP POP PUSH3 0x1EF JUMP JUMPDEST POP PUSH3 0x274 DUP2 DUP1 PUSH3 0x3E4 JUMP JUMPDEST PUSH1 0x8 SSTORE POP POP PUSH1 0x1 PUSH1 0x6C SSTORE POP PUSH1 0x40 DUP1 MLOAD PUSH1 0x0 DUP1 DUP3 MSTORE PUSH1 0x20 DUP3 ADD SWAP1 SWAP3 MSTORE SWAP1 PUSH3 0x2AC JUMP JUMPDEST PUSH1 0x60 DUP2 MSTORE PUSH1 0x20 ADD SWAP1 PUSH1 0x1 SWAP1 SUB SWAP1 DUP2 PUSH3 0x296 JUMPI SWAP1 POP JUMPDEST POP DUP1 MLOAD PUSH3 0x2C3 SWAP2 PUSH1 0x79 SWAP2 PUSH1 0x20 SWAP1 SWAP2 ADD SWAP1 PUSH3 0x571 JUMP JUMPDEST POP PUSH1 0x75 DUP1 SLOAD PUSH1 0x1 PUSH1 0x1 PUSH1 0xA0 SHL SUB SWAP8 DUP9 AND PUSH1 0x1 PUSH1 0x1 PUSH1 0xA0 SHL SUB NOT SWAP2 DUP3 AND OR SWAP1 SWAP2 SSTORE PUSH1 0x76 DUP1 SLOAD SWAP5 SWAP1 SWAP8 AND SWAP4 AND SWAP3 SWAP1 SWAP3 OR SWAP1 SWAP5 SSTORE PUSH1 0x6E DUP1 SLOAD PUSH4 0xFFFFFFFF SWAP1 SWAP3 AND PUSH9 0x10000000000000000 MUL PUSH1 0x1 PUSH1 0x1 PUSH1 0x60 SHL SUB NOT SWAP1 SWAP3 AND PUSH1 0x1 PUSH1 0x1 PUSH1 0x40 SHL SUB SWAP1 SWAP6 AND SWAP5 SWAP1 SWAP5 OR OR SWAP1 SWAP3 SSTORE POP POP TIMESTAMP PUSH1 0x6F SSTORE POP PUSH3 0x874 JUMP JUMPDEST PUSH1 0x1 PUSH1 0x1 PUSH1 0xA0 SHL SUB DUP2 AND CALLER EQ ISZERO PUSH3 0x392 JUMPI PUSH1 0x40 MLOAD PUSH3 0x461BCD PUSH1 0xE5 SHL DUP2 MSTORE PUSH1 0x20 PUSH1 0x4 DUP3 ADD MSTORE PUSH1 0x17 PUSH1 0x24 DUP3 ADD MSTORE PUSH32 0x43616E6E6F74207472616E7366657220746F2073656C66000000000000000000 PUSH1 0x44 DUP3 ADD MSTORE PUSH1 0x64 ADD PUSH3 0xBA JUMP JUMPDEST PUSH1 0x3 DUP1 SLOAD PUSH1 0x1 PUSH1 0x1 PUSH1 0xA0 SHL SUB NOT AND PUSH1 0x1 PUSH1 0x1 PUSH1 0xA0 SHL SUB DUP4 DUP2 AND SWAP2 DUP3 OR SWAP1 SWAP3 SSTORE PUSH1 0x2 SLOAD PUSH1 0x40 MLOAD SWAP2 SWAP3 AND SWAP1 PUSH32 0xED8889F560326EB138920D842192F0EB3DD22B4F139C87A2C57538E05BAE1278 SWAP1 PUSH1 0x0 SWAP1 LOG3 POP JUMP JUMPDEST PUSH1 0x0 PUSH32 0x30644E72E131A029B85045B68181585D2833E84879B9709143E1F593F0000001 DUP4 LT PUSH3 0x457 JUMPI PUSH1 0x40 MLOAD PUSH3 0x461BCD PUSH1 0xE5 SHL DUP2 MSTORE PUSH1 0x20 PUSH1 0x4 DUP3 ADD DUP2 SWAP1 MSTORE PUSH1 0x24 DUP3 ADD MSTORE PUSH32 0x5F6C6566742073686F756C6420626520696E7369646520746865206669656C64 PUSH1 0x44 DUP3 ADD MSTORE PUSH1 0x64 ADD PUSH3 0xBA JUMP JUMPDEST PUSH32 0x30644E72E131A029B85045B68181585D2833E84879B9709143E1F593F0000001 DUP3 LT PUSH3 0x4D2 JUMPI PUSH1 0x40 MLOAD PUSH3 0x461BCD PUSH1 0xE5 SHL DUP2 MSTORE PUSH1 0x20 PUSH1 0x4 DUP3 ADD MSTORE PUSH1 0x21 PUSH1 0x24 DUP3 ADD MSTORE PUSH32 0x5F72696768742073686F756C6420626520696E7369646520746865206669656C PUSH1 0x44 DUP3 ADD MSTORE PUSH1 0x19 PUSH1 0xFA SHL PUSH1 0x64 DUP3 ADD MSTORE PUSH1 0x84 ADD PUSH3 0xBA JUMP JUMPDEST PUSH1 0x40 DUP1 MLOAD DUP1 DUP3 ADD DUP3 MSTORE DUP5 DUP2 MSTORE PUSH1 0x20 DUP2 ADD DUP5 SWAP1 MSTORE PUSH1 0x4 DUP1 SLOAD SWAP3 MLOAD PUSH4 0x14CF2B3 PUSH1 0xE5 SHL DUP2 MSTORE SWAP2 SWAP3 PUSH1 0x1 PUSH1 0x1 PUSH1 0xA0 SHL SUB AND SWAP2 PUSH4 0x299E5660 SWAP2 PUSH3 0x515 SWAP2 DUP6 SWAP2 ADD PUSH3 0x7EA JUMP JUMPDEST PUSH1 0x20 PUSH1 0x40 MLOAD DUP1 DUP4 SUB DUP2 DUP7 DUP1 EXTCODESIZE ISZERO DUP1 ISZERO PUSH3 0x52E JUMPI PUSH1 0x0 DUP1 REVERT JUMPDEST POP GAS STATICCALL ISZERO DUP1 ISZERO PUSH3 0x543 JUMPI RETURNDATASIZE PUSH1 0x0 DUP1 RETURNDATACOPY RETURNDATASIZE PUSH1 0x0 REVERT JUMPDEST POP POP POP POP PUSH1 0x40 MLOAD RETURNDATASIZE PUSH1 0x1F NOT PUSH1 0x1F DUP3 ADD AND DUP3 ADD DUP1 PUSH1 0x40 MSTORE POP DUP2 ADD SWAP1 PUSH3 0x569 SWAP2 SWAP1 PUSH3 0x81D JUMP JUMPDEST SWAP5 SWAP4 POP POP POP POP JUMP JUMPDEST DUP3 DUP1 SLOAD DUP3 DUP3 SSTORE SWAP1 PUSH1 0x0 MSTORE PUSH1 0x20 PUSH1 0x0 KECCAK256 SWAP1 DUP2 ADD SWAP3 DUP3 ISZERO PUSH3 0x5C3 JUMPI SWAP2 PUSH1 0x20 MUL DUP3 ADD JUMPDEST DUP3 DUP2 GT ISZERO PUSH3 0x5C3 JUMPI DUP3 MLOAD DUP1 MLOAD PUSH3 0x5B2 SWAP2 DUP5 SWAP2 PUSH1 0x20 SWAP1 SWAP2 ADD SWAP1 PUSH3 0x5D5 JUMP JUMPDEST POP SWAP2 PUSH1 0x20 ADD SWAP2 SWAP1 PUSH1 0x1 ADD SWAP1 PUSH3 0x592 JUMP JUMPDEST POP PUSH3 0x5D1 SWAP3 SWAP2 POP PUSH3 0x660 JUMP JUMPDEST POP SWAP1 JUMP JUMPDEST DUP3 DUP1 SLOAD PUSH3 0x5E3 SWAP1 PUSH3 0x837 JUMP JUMPDEST SWAP1 PUSH1 0x0 MSTORE PUSH1 0x20 PUSH1 0x0 KECCAK256 SWAP1 PUSH1 0x1F ADD PUSH1 0x20 SWAP1 DIV DUP2 ADD SWAP3 DUP3 PUSH3 0x607 JUMPI PUSH1 0x0 DUP6 SSTORE PUSH3 0x652 JUMP JUMPDEST DUP3 PUSH1 0x1F LT PUSH3 0x622 JUMPI DUP1 MLOAD PUSH1 0xFF NOT AND DUP4 DUP1 ADD OR DUP6 SSTORE PUSH3 0x652 JUMP JUMPDEST DUP3 DUP1 ADD PUSH1 0x1 ADD DUP6 SSTORE DUP3 ISZERO PUSH3 0x652 JUMPI SWAP2 DUP3 ADD JUMPDEST DUP3 DUP2 GT ISZERO PUSH3 0x652 JUMPI DUP3 MLOAD DUP3 SSTORE SWAP2 PUSH1 0x20 ADD SWAP2 SWAP1 PUSH1 0x1 ADD SWAP1 PUSH3 0x635 JUMP JUMPDEST POP PUSH3 0x5D1 SWAP3 SWAP2 POP PUSH3 0x681 JUMP JUMPDEST DUP1 DUP3 GT ISZERO PUSH3 0x5D1 JUMPI PUSH1 0x0 PUSH3 0x677 DUP3 DUP3 PUSH3 0x698 JUMP JUMPDEST POP PUSH1 0x1 ADD PUSH3 0x660 JUMP JUMPDEST JUMPDEST DUP1 DUP3 GT ISZERO PUSH3 0x5D1 JUMPI PUSH1 0x0 DUP2 SSTORE PUSH1 0x1 ADD PUSH3 0x682 JUMP JUMPDEST POP DUP1 SLOAD PUSH3 0x6A6 SWAP1 PUSH3 0x837 JUMP JUMPDEST PUSH1 0x0 DUP3 SSTORE DUP1 PUSH1 0x1F LT PUSH3 0x6B7 JUMPI POP POP JUMP JUMPDEST PUSH1 0x1F ADD PUSH1 0x20 SWAP1 DIV SWAP1 PUSH1 0x0 MSTORE PUSH1 0x20 PUSH1 0x0 KECCAK256 SWAP1 DUP2 ADD SWAP1 PUSH3 0x6D7 SWAP2 SWAP1 PUSH3 0x681 JUMP JUMPDEST POP JUMP JUMPDEST PUSH1 0x1 PUSH1 0x1 PUSH1 0xA0 SHL SUB DUP2 AND DUP2 EQ PUSH3 0x6D7 JUMPI PUSH1 0x0 DUP1 REVERT JUMPDEST DUP1 MLOAD PUSH4 0xFFFFFFFF DUP2 AND DUP2 EQ PUSH3 0x705 JUMPI PUSH1 0x0 DUP1 REVERT JUMPDEST SWAP2 SWAP1 POP JUMP JUMPDEST PUSH1 0x0 DUP1 PUSH1 0x0 DUP1 PUSH1 0x0 DUP1 PUSH1 0x0 PUSH1 0xE0 DUP9 DUP11 SUB SLT ISZERO PUSH3 0x726 JUMPI PUSH1 0x0 DUP1 REVERT JUMPDEST DUP8 MLOAD PUSH3 0x733 DUP2 PUSH3 0x6DA JUMP JUMPDEST PUSH1 0x20 DUP10 ADD MLOAD SWAP1 SWAP8 POP PUSH3 0x746 DUP2 PUSH3 0x6DA JUMP JUMPDEST SWAP6 POP PUSH3 0x756 PUSH1 0x40 DUP10 ADD PUSH3 0x6F0 JUMP JUMPDEST SWAP5 POP PUSH1 0x60 DUP9 ADD MLOAD PUSH3 0x768 DUP2 PUSH3 0x6DA JUMP JUMPDEST PUSH1 0x80 DUP10 ADD MLOAD SWAP1 SWAP5 POP PUSH3 0x77B DUP2 PUSH3 0x6DA JUMP JUMPDEST PUSH1 0xA0 DUP10 ADD MLOAD SWAP1 SWAP4 POP PUSH1 0x1 PUSH1 0x1 PUSH1 0x40 SHL SUB DUP2 AND DUP2 EQ PUSH3 0x799 JUMPI PUSH1 0x0 DUP1 REVERT JUMPDEST SWAP2 POP PUSH3 0x7A9 PUSH1 0xC0 DUP10 ADD PUSH3 0x6F0 JUMP JUMPDEST SWAP1 POP SWAP3 SWAP6 SWAP9 SWAP2 SWAP5 SWAP8 POP SWAP3 SWAP6 POP JUMP JUMPDEST PUSH1 0x0 PUSH4 0xFFFFFFFF DUP1 DUP4 AND DUP2 DUP2 EQ ISZERO PUSH3 0x7E0 JUMPI PUSH4 0x4E487B71 PUSH1 0xE0 SHL PUSH1 0x0 MSTORE PUSH1 0x11 PUSH1 0x4 MSTORE PUSH1 0x24 PUSH1 0x0 REVERT JUMPDEST PUSH1 0x1 ADD SWAP4 SWAP3 POP POP POP JUMP JUMPDEST PUSH1 0x40 DUP2 ADD DUP2 DUP4 PUSH1 0x0 JUMPDEST PUSH1 0x2 DUP2 LT ISZERO PUSH3 0x814 JUMPI DUP2 MLOAD DUP4 MSTORE PUSH1 0x20 SWAP3 DUP4 ADD SWAP3 SWAP1 SWAP2 ADD SWAP1 PUSH1 0x1 ADD PUSH3 0x7F3 JUMP JUMPDEST POP POP POP SWAP3 SWAP2 POP POP JUMP JUMPDEST PUSH1 0x0 PUSH1 0x20 DUP3 DUP5 SUB SLT ISZERO PUSH3 0x830 JUMPI PUSH1 0x0 DUP1 REVERT JUMPDEST POP MLOAD SWAP2 SWAP1 POP JUMP JUMPDEST PUSH1 0x1 DUP2 DUP2 SHR SWAP1 DUP3 AND DUP1 PUSH3 0x84C JUMPI PUSH1 0x7F DUP3 AND SWAP2 POP JUMPDEST PUSH1 0x20 DUP3 LT DUP2 EQ ISZERO PUSH3 0x86E JUMPI PUSH4 0x4E487B71 PUSH1 0xE0 SHL PUSH1 0x0 MSTORE PUSH1 0x22 PUSH1 0x4 MSTORE PUSH1 0x24 PUSH1 0x0 REVERT JUMPDEST POP SWAP2 SWAP1 POP JUMP JUMPDEST PUSH1 0x80 MLOAD PUSH2 0x2FCD PUSH3 0x8A5 PUSH1 0x0 CODECOPY PUSH1 0x0 DUP2 DUP2 PUSH2 0x3D8 ADD MSTORE DUP2 DUP2 PUSH2 0x13D3 ADD MSTORE DUP2 DUP2 PUSH2 0x14B3 ADD MSTORE PUSH2 0x1929 ADD MSTORE PUSH2 0x2FCD PUSH1 0x0 RETURN INVALID PUSH1 0x80 PUSH1 0x40 MSTORE CALLVALUE DUP1 ISZERO PUSH2 0x10 JUMPI PUSH1 0x0 DUP1 REVERT JUMPDEST POP PUSH1 0x4 CALLDATASIZE LT PUSH2 0x253 JUMPI PUSH1 0x0 CALLDATALOAD PUSH1 0xE0 SHR DUP1 PUSH4 0x8D82496E GT PUSH2 0x146 JUMPI DUP1 PUSH4 0xD4B39175 GT PUSH2 0xC3 JUMPI DUP1 PUSH4 0xF178E47C GT PUSH2 0x87 JUMPI DUP1 PUSH4 0xF178E47C EQ PUSH2 0x58B JUMPI DUP1 PUSH4 0xF2FDE38B EQ PUSH2 0x59E JUMPI DUP1 PUSH4 0xFC7E9C6F EQ PUSH2 0x5B1 JUMPI DUP1 PUSH4 0xFD2C80AE EQ PUSH2 0x5C9 JUMPI DUP1 PUSH4 0xFE083012 EQ PUSH2 0x5D3 JUMPI DUP1 PUSH4 0xFFFEB84E EQ PUSH2 0x5E6 JUMPI PUSH1 0x0 DUP1 REVERT JUMPDEST DUP1 PUSH4 0xD4B39175 EQ PUSH2 0x506 JUMPI DUP1 PUSH4 0xDF65850A EQ PUSH2 0x536 JUMPI DUP1 PUSH4 0xE8295588 EQ PUSH2 0x53E JUMPI DUP1 PUSH4 0xEC732959 EQ PUSH2 0x551 JUMPI DUP1 PUSH4 0xED33639F EQ PUSH2 0x578 JUMPI PUSH1 0x0 DUP1 REVERT JUMPDEST DUP1 PUSH4 0xBEF3A2F0 GT PUSH2 0x10A JUMPI DUP1 PUSH4 0xBEF3A2F0 EQ PUSH2 0x4C8 JUMPI DUP1 PUSH4 0xBF158FD2 EQ PUSH2 0x4D0 JUMPI DUP1 PUSH4 0xC2B40AE4 EQ PUSH2 0x4E3 JUMPI DUP1 PUSH4 0xCD87A3B4 EQ PUSH2 0x4F6 JUMPI DUP1 PUSH4 0xD328A91E EQ PUSH2 0x4FE JUMPI PUSH1 0x0 DUP1 REVERT JUMPDEST DUP1 PUSH4 0x8D82496E EQ PUSH2 0x483 JUMPI DUP1 PUSH4 0x8DA5CB5B EQ PUSH2 0x496 JUMPI DUP1 PUSH4 0x90EEB02B EQ PUSH2 0x4A7 JUMPI DUP1 PUSH4 0xA3D3C0D2 EQ PUSH2 0x4B7 JUMPI DUP1 PUSH4 0xBA70F757 EQ PUSH2 0x4C0 JUMPI PUSH1 0x0 DUP1 REVERT JUMPDEST DUP1 PUSH4 0x38BF282E GT PUSH2 0x1D4 JUMPI DUP1 PUSH4 0x688ECFD1 GT PUSH2 0x198 JUMPI DUP1 PUSH4 0x688ECFD1 EQ PUSH2 0x40F JUMPI DUP1 PUSH4 0x6D9833E3 EQ PUSH2 0x424 JUMPI DUP1 PUSH4 0x6E04FF0D EQ PUSH2 0x437 JUMPI DUP1 PUSH4 0x79BA5097 EQ PUSH2 0x458 JUMPI DUP1 PUSH4 0x839DF945 EQ PUSH2 0x460 JUMPI PUSH1 0x0 DUP1 REVERT JUMPDEST DUP1 PUSH4 0x38BF282E EQ PUSH2 0x386 JUMPI DUP1 PUSH4 0x414A37BA EQ PUSH2 0x399 JUMPI DUP1 PUSH4 0x4585E33B EQ PUSH2 0x3C0 JUMPI DUP1 PUSH4 0x4ECF518B EQ PUSH2 0x3D3 JUMPI DUP1 PUSH4 0x5FF6CBF3 EQ PUSH2 0x3FA JUMPI PUSH1 0x0 DUP1 REVERT JUMPDEST DUP1 PUSH4 0x22DC7B4C GT PUSH2 0x21B JUMPI DUP1 PUSH4 0x22DC7B4C EQ PUSH2 0x2D0 JUMPI DUP1 PUSH4 0x24B93E3E EQ PUSH2 0x303 JUMPI DUP1 PUSH4 0x2997E86B EQ PUSH2 0x32F JUMPI DUP1 PUSH4 0x2B7AC3F3 EQ PUSH2 0x352 JUMPI DUP1 PUSH4 0x381FC4B5 EQ PUSH2 0x37D JUMPI PUSH1 0x0 DUP1 REVERT JUMPDEST DUP1 PUSH4 0x89EA02E EQ PUSH2 0x258 JUMPI DUP1 PUSH4 0x9C1BA2E EQ PUSH2 0x274 JUMPI DUP1 PUSH4 0xCA76175 EQ PUSH2 0x29F JUMPI DUP1 PUSH4 0x1AA46F59 EQ PUSH2 0x2B4 JUMPI DUP1 PUSH4 0x218FC350 EQ PUSH2 0x2BD JUMPI JUMPDEST PUSH1 0x0 DUP1 REVERT JUMPDEST PUSH2 0x261 PUSH1 0x6F SLOAD DUP2 JUMP JUMPDEST PUSH1 0x40 MLOAD SWAP1 DUP2 MSTORE PUSH1 0x20 ADD JUMPDEST PUSH1 0x40 MLOAD DUP1 SWAP2 SUB SWAP1 RETURN JUMPDEST PUSH1 0x6E SLOAD PUSH2 0x287 SWAP1 PUSH1 0x1 PUSH1 0x1 PUSH1 0x40 SHL SUB AND DUP2 JUMP JUMPDEST PUSH1 0x40 MLOAD PUSH1 0x1 PUSH1 0x1 PUSH1 0x40 SHL SUB SWAP1 SWAP2 AND DUP2 MSTORE PUSH1 0x20 ADD PUSH2 0x26B JUMP JUMPDEST PUSH2 0x2B2 PUSH2 0x2AD CALLDATASIZE PUSH1 0x4 PUSH2 0x232B JUMP JUMPDEST PUSH2 0x5EE JUMP JUMPDEST STOP JUMPDEST PUSH2 0x261 PUSH1 0x72 SLOAD DUP2 JUMP JUMPDEST PUSH2 0x2B2 PUSH2 0x2CB CALLDATASIZE PUSH1 0x4 PUSH2 0x23E7 JUMP JUMPDEST PUSH2 0x67B JUMP JUMPDEST PUSH2 0x2F3 PUSH2 0x2DE CALLDATASIZE PUSH1 0x4 PUSH2 0x24D4 JUMP JUMPDEST PUSH1 0x0 SWAP1 DUP2 MSTORE PUSH1 0x77 PUSH1 0x20 MSTORE PUSH1 0x40 SWAP1 KECCAK256 SLOAD PUSH1 0xFF AND SWAP1 JUMP JUMPDEST PUSH1 0x40 MLOAD SWAP1 ISZERO ISZERO DUP2 MSTORE PUSH1 0x20 ADD PUSH2 0x26B JUMP JUMPDEST PUSH1 0x6E SLOAD PUSH2 0x31A SWAP1 PUSH1 0x1 PUSH1 0x40 SHL SWAP1 DIV PUSH4 0xFFFFFFFF AND DUP2 JUMP JUMPDEST PUSH1 0x40 MLOAD PUSH4 0xFFFFFFFF SWAP1 SWAP2 AND DUP2 MSTORE PUSH1 0x20 ADD PUSH2 0x26B JUMP JUMPDEST PUSH2 0x2F3 PUSH2 0x33D CALLDATASIZE PUSH1 0x4 PUSH2 0x24D4 JUMP JUMPDEST PUSH1 0x77 PUSH1 0x20 MSTORE PUSH1 0x0 SWAP1 DUP2 MSTORE PUSH1 0x40 SWAP1 KECCAK256 SLOAD PUSH1 0xFF AND DUP2 JUMP JUMPDEST PUSH1 0x75 SLOAD PUSH2 0x365 SWAP1 PUSH1 0x1 PUSH1 0x1 PUSH1 0xA0 SHL SUB AND DUP2 JUMP JUMPDEST PUSH1 0x40 MLOAD PUSH1 0x1 PUSH1 0x1 PUSH1 0xA0 SHL SUB SWAP1 SWAP2 AND DUP2 MSTORE PUSH1 0x20 ADD PUSH2 0x26B JUMP JUMPDEST PUSH2 0x261 PUSH1 0x71 SLOAD DUP2 JUMP JUMPDEST PUSH2 0x261 PUSH2 0x394 CALLDATASIZE PUSH1 0x4 PUSH2 0x24ED JUMP JUMPDEST PUSH2 0x8A9 JUMP JUMPDEST PUSH2 0x261 PUSH32 0x30644E72E131A029B85045B68181585D2833E84879B9709143E1F593F0000001 DUP2 JUMP JUMPDEST PUSH2 0x2B2 PUSH2 0x3CE CALLDATASIZE PUSH1 0x4 PUSH2 0x2557 JUMP JUMPDEST PUSH2 0xA2E JUMP JUMPDEST PUSH2 0x31A PUSH32 0x0 DUP2 JUMP JUMPDEST PUSH2 0x402 PUSH2 0xC2A JUMP JUMPDEST PUSH1 0x40 MLOAD PUSH2 0x26B SWAP2 SWAP1 PUSH2 0x25F0 JUMP JUMPDEST PUSH2 0x417 PUSH2 0xD03 JUMP JUMPDEST PUSH1 0x40 MLOAD PUSH2 0x26B SWAP2 SWAP1 PUSH2 0x2652 JUMP JUMPDEST PUSH2 0x2F3 PUSH2 0x432 CALLDATASIZE PUSH1 0x4 PUSH2 0x24D4 JUMP JUMPDEST PUSH2 0xD91 JUMP JUMPDEST PUSH2 0x44A PUSH2 0x445 CALLDATASIZE PUSH1 0x4 PUSH2 0x2665 JUMP JUMPDEST PUSH2 0xE0F JUMP JUMPDEST PUSH1 0x40 MLOAD PUSH2 0x26B SWAP3 SWAP2 SWAP1 PUSH2 0x2699 JUMP JUMPDEST PUSH2 0x2B2 PUSH2 0xE2D JUMP JUMPDEST PUSH2 0x2F3 PUSH2 0x46E CALLDATASIZE PUSH1 0x4 PUSH2 0x24D4 JUMP JUMPDEST PUSH1 0x78 PUSH1 0x20 MSTORE PUSH1 0x0 SWAP1 DUP2 MSTORE PUSH1 0x40 SWAP1 KECCAK256 SLOAD PUSH1 0xFF AND DUP2 JUMP JUMPDEST PUSH2 0x2B2 PUSH2 0x491 CALLDATASIZE PUSH1 0x4 PUSH2 0x24D4 JUMP JUMPDEST PUSH2 0xEDB JUMP JUMPDEST PUSH1 0x2 SLOAD PUSH1 0x1 PUSH1 0x1 PUSH1 0xA0 SHL SUB AND PUSH2 0x365 JUMP JUMPDEST PUSH1 0x7 SLOAD PUSH2 0x31A SWAP1 PUSH4 0xFFFFFFFF AND DUP2 JUMP JUMPDEST PUSH2 0x261 PUSH1 0x70 SLOAD DUP2 JUMP JUMPDEST PUSH2 0x261 PUSH2 0xFC1 JUMP JUMPDEST PUSH2 0x417 PUSH2 0xFE7 JUMP JUMPDEST PUSH1 0x76 SLOAD PUSH2 0x365 SWAP1 PUSH1 0x1 PUSH1 0x1 PUSH1 0xA0 SHL SUB AND DUP2 JUMP JUMPDEST PUSH2 0x261 PUSH2 0x4F1 CALLDATASIZE PUSH1 0x4 PUSH2 0x24D4 JUMP JUMPDEST PUSH2 0xFF4 JUMP JUMPDEST PUSH2 0x31A PUSH1 0x64 DUP2 JUMP JUMPDEST PUSH2 0x417 PUSH2 0x100B JUMP JUMPDEST PUSH2 0x519 PUSH2 0x514 CALLDATASIZE PUSH1 0x4 PUSH2 0x27A6 JUMP JUMPDEST PUSH2 0x1090 JUMP JUMPDEST PUSH1 0x40 MLOAD PUSH12 0xFFFFFFFFFFFFFFFFFFFFFFFF SWAP1 SWAP2 AND DUP2 MSTORE PUSH1 0x20 ADD PUSH2 0x26B JUMP JUMPDEST PUSH2 0x2B2 PUSH2 0x1128 JUMP JUMPDEST PUSH2 0x261 PUSH2 0x54C CALLDATASIZE PUSH1 0x4 PUSH2 0x24D4 JUMP JUMPDEST PUSH2 0x11A8 JUMP JUMPDEST PUSH2 0x261 PUSH32 0x2FE54C60D3ACABF3343A35B6EBA15DB4821B340F76E741E2249685ED4899AF6C DUP2 JUMP JUMPDEST PUSH1 0x4 SLOAD PUSH2 0x365 SWAP1 PUSH1 0x1 PUSH1 0x1 PUSH1 0xA0 SHL SUB AND DUP2 JUMP JUMPDEST PUSH2 0x261 PUSH2 0x599 CALLDATASIZE PUSH1 0x4 PUSH2 0x24D4 JUMP JUMPDEST PUSH2 0x11C9 JUMP JUMPDEST PUSH2 0x2B2 PUSH2 0x5AC CALLDATASIZE PUSH1 0x4 PUSH2 0x28CC JUMP JUMPDEST PUSH2 0x11D9 JUMP JUMPDEST PUSH1 0x7 SLOAD PUSH2 0x31A SWAP1 PUSH5 0x100000000 SWAP1 DIV PUSH4 0xFFFFFFFF AND DUP2 JUMP JUMPDEST PUSH2 0x261 PUSH3 0x127500 DUP2 JUMP JUMPDEST PUSH2 0x417 PUSH2 0x5E1 CALLDATASIZE PUSH1 0x4 PUSH2 0x28E9 JUMP JUMPDEST PUSH2 0x11EA JUMP JUMPDEST PUSH2 0x417 PUSH2 0x12E4 JUMP JUMPDEST PUSH1 0x0 DUP4 DUP2 MSTORE PUSH1 0x1 PUSH1 0x20 MSTORE PUSH1 0x40 SWAP1 KECCAK256 SLOAD DUP4 SWAP1 PUSH1 0x1 PUSH1 0x1 PUSH1 0xA0 SHL SUB AND CALLER EQ PUSH2 0x627 JUMPI PUSH1 0x40 MLOAD PUSH4 0xA0C5EC63 PUSH1 0xE0 SHL DUP2 MSTORE PUSH1 0x4 ADD PUSH1 0x40 MLOAD DUP1 SWAP2 SUB SWAP1 REVERT JUMPDEST PUSH1 0x0 DUP2 DUP2 MSTORE PUSH1 0x1 PUSH1 0x20 MSTORE PUSH1 0x40 DUP1 DUP3 KECCAK256 DUP1 SLOAD PUSH1 0x1 PUSH1 0x1 PUSH1 0xA0 SHL SUB NOT AND SWAP1 SSTORE MLOAD DUP3 SWAP2 PUSH32 0x85E1543BF2F84FE80C6BADBCE3648C8539AD1DF4D2B3D822938CA0538BE727E6 SWAP2 LOG2 PUSH2 0x675 DUP5 DUP5 DUP5 PUSH2 0x12F1 JUMP JUMPDEST POP POP POP POP JUMP JUMPDEST PUSH2 0x683 PUSH2 0x1360 JUMP JUMPDEST PUSH1 0x0 DUP4 DUP2 MSTORE PUSH1 0x77 PUSH1 0x20 MSTORE PUSH1 0x40 SWAP1 KECCAK256 SLOAD PUSH1 0xFF AND ISZERO PUSH2 0x6E1 JUMPI PUSH1 0x40 MLOAD PUSH4 0x37A51B3D PUSH1 0xE2 SHL DUP2 MSTORE PUSH1 0x20 PUSH1 0x4 DUP3 ADD MSTORE PUSH1 0x16 PUSH1 0x24 DUP3 ADD MSTORE PUSH22 0x139D5B1B1A599A595C88185B1C9958591E481D5CD959 PUSH1 0x52 SHL PUSH1 0x44 DUP3 ADD MSTORE PUSH1 0x64 ADD JUMPDEST PUSH1 0x40 MLOAD DUP1 SWAP2 SUB SWAP1 REVERT JUMPDEST PUSH2 0x6EA DUP3 PUSH2 0xD91 JUMP JUMPDEST PUSH2 0x728 JUMPI PUSH1 0x40 MLOAD PUSH4 0xA4305B13 PUSH1 0xE0 SHL DUP2 MSTORE PUSH1 0x20 PUSH1 0x4 DUP3 ADD MSTORE PUSH1 0xE PUSH1 0x24 DUP3 ADD MSTORE PUSH14 0x2937B7BA103737BA1035B737BBB7 PUSH1 0x91 SHL PUSH1 0x44 DUP3 ADD MSTORE PUSH1 0x64 ADD PUSH2 0x6D8 JUMP JUMPDEST PUSH1 0x40 DUP1 MLOAD DUP1 DUP3 ADD DUP3 MSTORE DUP4 DUP2 MSTORE PUSH1 0x20 DUP1 DUP3 ADD DUP7 SWAP1 MSTORE PUSH1 0x75 SLOAD DUP5 MLOAD SWAP2 DUP6 ADD MLOAD DUP6 DUP6 ADD MLOAD SWAP5 MLOAD PUSH4 0x7AE4EB4F PUSH1 0xE1 SHL DUP2 MSTORE SWAP4 SWAP5 PUSH1 0x1 PUSH1 0x1 PUSH1 0xA0 SHL SUB SWAP1 SWAP3 AND SWAP4 PUSH4 0xF5C9D69E SWAP4 PUSH2 0x77A SWAP4 SWAP1 SWAP3 SWAP2 DUP8 SWAP1 PUSH1 0x4 ADD PUSH2 0x29D4 JUMP JUMPDEST PUSH1 0x20 PUSH1 0x40 MLOAD DUP1 DUP4 SUB DUP2 PUSH1 0x0 DUP8 DUP1 EXTCODESIZE ISZERO DUP1 ISZERO PUSH2 0x794 JUMPI PUSH1 0x0 DUP1 REVERT JUMPDEST POP GAS CALL ISZERO DUP1 ISZERO PUSH2 0x7A8 JUMPI RETURNDATASIZE PUSH1 0x0 DUP1 RETURNDATACOPY RETURNDATASIZE PUSH1 0x0 REVERT JUMPDEST POP POP POP POP PUSH1 0x40 MLOAD RETURNDATASIZE PUSH1 0x1F NOT PUSH1 0x1F DUP3 ADD AND DUP3 ADD DUP1 PUSH1 0x40 MSTORE POP DUP2 ADD SWAP1 PUSH2 0x7CC SWAP2 SWAP1 PUSH2 0x2A3B JUMP JUMPDEST PUSH2 0x809 JUMPI PUSH1 0x40 MLOAD PUSH4 0x9DAA309 PUSH1 0xE2 SHL DUP2 MSTORE PUSH1 0x20 PUSH1 0x4 DUP3 ADD MSTORE PUSH1 0xD PUSH1 0x24 DUP3 ADD MSTORE PUSH13 0x24B73B30B634B210383937B7B3 PUSH1 0x99 SHL PUSH1 0x44 DUP3 ADD MSTORE PUSH1 0x64 ADD PUSH2 0x6D8 JUMP JUMPDEST PUSH1 0x0 DUP5 DUP2 MSTORE PUSH1 0x77 PUSH1 0x20 SWAP1 DUP2 MSTORE PUSH1 0x40 DUP3 KECCAK256 DUP1 SLOAD PUSH1 0xFF NOT AND PUSH1 0x1 SWAP1 DUP2 OR SWAP1 SWAP2 SSTORE PUSH1 0x79 DUP1 SLOAD SWAP2 DUP3 ADD DUP2 SSTORE SWAP1 SWAP3 MSTORE DUP7 MLOAD PUSH2 0x864 SWAP3 PUSH32 0x957BBDC7FAD0DEC56E7C96AF4A3AB63AA9DAF934A52FFCE891945B7FB622D791 ADD SWAP2 DUP9 ADD SWAP1 PUSH2 0x203D JUMP JUMPDEST POP PUSH32 0x6B6C80BB5C4B26D73A7CF3586C1B2F17BD79F8F7FD3C3E14F9CD70926574120 DUP6 DUP6 PUSH1 0x40 MLOAD PUSH2 0x896 SWAP3 SWAP2 SWAP1 PUSH2 0x2A5D JUMP JUMPDEST PUSH1 0x40 MLOAD DUP1 SWAP2 SUB SWAP1 LOG1 POP PUSH2 0x675 PUSH1 0x1 PUSH1 0x6C SSTORE JUMP JUMPDEST PUSH1 0x0 PUSH32 0x30644E72E131A029B85045B68181585D2833E84879B9709143E1F593F0000001 DUP4 LT PUSH2 0x91A JUMPI PUSH1 0x40 MLOAD PUSH3 0x461BCD PUSH1 0xE5 SHL DUP2 MSTORE PUSH1 0x20 PUSH1 0x4 DUP3 ADD DUP2 SWAP1 MSTORE PUSH1 0x24 DUP3 ADD MSTORE PUSH32 0x5F6C6566742073686F756C6420626520696E7369646520746865206669656C64 PUSH1 0x44 DUP3 ADD MSTORE PUSH1 0x64 ADD PUSH2 0x6D8 JUMP JUMPDEST PUSH32 0x30644E72E131A029B85045B68181585D2833E84879B9709143E1F593F0000001 DUP3 LT PUSH2 0x993 JUMPI PUSH1 0x40 MLOAD PUSH3 0x461BCD PUSH1 0xE5 SHL DUP2 MSTORE PUSH1 0x20 PUSH1 0x4 DUP3 ADD MSTORE PUSH1 0x21 PUSH1 0x24 DUP3 ADD MSTORE PUSH32 0x5F72696768742073686F756C6420626520696E7369646520746865206669656C PUSH1 0x44 DUP3 ADD MSTORE PUSH1 0x19 PUSH1 0xFA SHL PUSH1 0x64 DUP3 ADD MSTORE PUSH1 0x84 ADD PUSH2 0x6D8 JUMP JUMPDEST PUSH1 0x40 DUP1 MLOAD DUP1 DUP3 ADD DUP3 MSTORE DUP5 DUP2 MSTORE PUSH1 0x20 DUP2 ADD DUP5 SWAP1 MSTORE PUSH1 0x4 DUP1 SLOAD SWAP3 MLOAD PUSH4 0x14CF2B3 PUSH1 0xE5 SHL DUP2 MSTORE SWAP2 SWAP3 PUSH1 0x1 PUSH1 0x1 PUSH1 0xA0 SHL SUB AND SWAP2 PUSH4 0x299E5660 SWAP2 PUSH2 0x9D4 SWAP2 DUP6 SWAP2 ADD PUSH2 0x2A7F JUMP JUMPDEST PUSH1 0x20 PUSH1 0x40 MLOAD DUP1 DUP4 SUB DUP2 DUP7 DUP1 EXTCODESIZE ISZERO DUP1 ISZERO PUSH2 0x9EC JUMPI PUSH1 0x0 DUP1 REVERT JUMPDEST POP GAS STATICCALL ISZERO DUP1 ISZERO PUSH2 0xA00 JUMPI RETURNDATASIZE PUSH1 0x0 DUP1 RETURNDATACOPY RETURNDATASIZE PUSH1 0x0 REVERT JUMPDEST POP POP POP POP PUSH1 0x40 MLOAD RETURNDATASIZE PUSH1 0x1F NOT PUSH1 0x1F DUP3 ADD AND DUP3 ADD DUP1 PUSH1 0x40 MSTORE POP DUP2 ADD SWAP1 PUSH2 0xA24 SWAP2 SWAP1 PUSH2 0x2AB0 JUMP JUMPDEST SWAP2 POP POP JUMPDEST SWAP3 SWAP2 POP POP JUMP JUMPDEST PUSH1 0x0 PUSH2 0xA48 PUSH1 0x40 MLOAD DUP1 PUSH1 0x20 ADD PUSH1 0x40 MSTORE DUP1 PUSH1 0x0 DUP2 MSTORE POP PUSH2 0xE0F JUMP JUMPDEST POP SWAP1 POP DUP1 PUSH2 0xA91 JUMPI PUSH1 0x40 MLOAD PUSH4 0x2F0C8D4B PUSH1 0xE2 SHL DUP2 MSTORE PUSH1 0x20 PUSH1 0x4 DUP3 ADD MSTORE PUSH1 0x15 PUSH1 0x24 DUP3 ADD MSTORE PUSH21 0x151A5B59481A5B9D195C9D985B081B9BDD081B595D PUSH1 0x5A SHL PUSH1 0x44 DUP3 ADD MSTORE PUSH1 0x64 ADD PUSH2 0x6D8 JUMP JUMPDEST TIMESTAMP PUSH1 0x6F SSTORE PUSH1 0x70 SLOAD PUSH2 0xAA3 SWAP1 PUSH1 0x1 PUSH2 0x2ADF JUMP JUMPDEST PUSH1 0x70 SSTORE PUSH1 0x0 DUP1 SLOAD PUSH1 0x6E SLOAD PUSH1 0x40 MLOAD PUSH4 0xA090AC1 PUSH1 0xE2 SHL DUP2 MSTORE PUSH1 0x1 PUSH1 0x1 PUSH1 0xA0 SHL SUB SWAP1 SWAP3 AND SWAP2 PUSH4 0x28242B04 SWAP2 PUSH2 0xAF5 SWAP2 PUSH1 0x1 PUSH1 0x1 PUSH1 0x40 SHL SUB DUP3 AND SWAP2 PUSH1 0x6D SWAP2 PUSH1 0x1 PUSH1 0x40 SHL SWAP1 SWAP2 DIV PUSH4 0xFFFFFFFF AND SWAP1 PUSH1 0x4 ADD PUSH2 0x2B2C JUMP JUMPDEST PUSH1 0x20 PUSH1 0x40 MLOAD DUP1 DUP4 SUB DUP2 PUSH1 0x0 DUP8 DUP1 EXTCODESIZE ISZERO DUP1 ISZERO PUSH2 0xB0F JUMPI PUSH1 0x0 DUP1 REVERT JUMPDEST POP GAS CALL ISZERO DUP1 ISZERO PUSH2 0xB23 JUMPI RETURNDATASIZE PUSH1 0x0 DUP1 RETURNDATACOPY RETURNDATASIZE PUSH1 0x0 REVERT JUMPDEST POP POP POP POP PUSH1 0x40 MLOAD RETURNDATASIZE PUSH1 0x1F NOT PUSH1 0x1F DUP3 ADD AND DUP3 ADD DUP1 PUSH1 0x40 MSTORE POP DUP2 ADD SWAP1 PUSH2 0xB47 SWAP2 SWAP1 PUSH2 0x2AB0 JUMP JUMPDEST SWAP1 POP PUSH1 0x0 DUP1 SLOAD SWAP1 PUSH2 0x100 EXP SWAP1 DIV PUSH1 0x1 PUSH1 0x1 PUSH1 0xA0 SHL SUB AND PUSH1 0x1 PUSH1 0x1 PUSH1 0xA0 SHL SUB AND PUSH4 0x5AB1BD53 PUSH1 0x40 MLOAD DUP2 PUSH4 0xFFFFFFFF AND PUSH1 0xE0 SHL DUP2 MSTORE PUSH1 0x4 ADD PUSH1 0x20 PUSH1 0x40 MLOAD DUP1 DUP4 SUB DUP2 DUP7 DUP1 EXTCODESIZE ISZERO DUP1 ISZERO PUSH2 0xB95 JUMPI PUSH1 0x0 DUP1 REVERT JUMPDEST POP GAS STATICCALL ISZERO DUP1 ISZERO PUSH2 0xBA9 JUMPI RETURNDATASIZE PUSH1 0x0 DUP1 RETURNDATACOPY RETURNDATASIZE PUSH1 0x0 REVERT JUMPDEST POP POP POP POP PUSH1 0x40 MLOAD RETURNDATASIZE PUSH1 0x1F NOT PUSH1 0x1F DUP3 ADD AND DUP3 ADD DUP1 PUSH1 0x40 MSTORE POP DUP2 ADD SWAP1 PUSH2 0xBCD SWAP2 SWAP1 PUSH2 0x2BF2 JUMP JUMPDEST PUSH1 0x0 DUP3 DUP2 MSTORE PUSH1 0x1 PUSH1 0x20 MSTORE PUSH1 0x40 DUP1 DUP3 KECCAK256 DUP1 SLOAD PUSH1 0x1 PUSH1 0x1 PUSH1 0xA0 SHL SUB NOT AND PUSH1 0x1 PUSH1 0x1 PUSH1 0xA0 SHL SUB SWAP5 SWAP1 SWAP5 AND SWAP4 SWAP1 SWAP4 OR SWAP1 SWAP3 SSTORE SWAP1 MLOAD DUP3 SWAP2 PUSH32 0x1131472297A800FEE664D1D89CFA8F7676FF07189ECC53F80BBB5F4969099DB8 SWAP2 LOG2 PUSH1 0x72 SSTORE POP POP POP JUMP JUMPDEST PUSH1 0x60 PUSH1 0x79 DUP1 SLOAD DUP1 PUSH1 0x20 MUL PUSH1 0x20 ADD PUSH1 0x40 MLOAD SWAP1 DUP2 ADD PUSH1 0x40 MSTORE DUP1 SWAP3 SWAP2 SWAP1 DUP2 DUP2 MSTORE PUSH1 0x20 ADD PUSH1 0x0 SWAP1 JUMPDEST DUP3 DUP3 LT ISZERO PUSH2 0xCFA JUMPI DUP4 DUP3 SWAP1 PUSH1 0x0 MSTORE PUSH1 0x20 PUSH1 0x0 KECCAK256 ADD DUP1 SLOAD PUSH2 0xC6D SWAP1 PUSH2 0x2AF7 JUMP JUMPDEST DUP1 PUSH1 0x1F ADD PUSH1 0x20 DUP1 SWAP2 DIV MUL PUSH1 0x20 ADD PUSH1 0x40 MLOAD SWAP1 DUP2 ADD PUSH1 0x40 MSTORE DUP1 SWAP3 SWAP2 SWAP1 DUP2 DUP2 MSTORE PUSH1 0x20 ADD DUP3 DUP1 SLOAD PUSH2 0xC99 SWAP1 PUSH2 0x2AF7 JUMP JUMPDEST DUP1 ISZERO PUSH2 0xCE6 JUMPI DUP1 PUSH1 0x1F LT PUSH2 0xCBB JUMPI PUSH2 0x100 DUP1 DUP4 SLOAD DIV MUL DUP4 MSTORE SWAP2 PUSH1 0x20 ADD SWAP2 PUSH2 0xCE6 JUMP JUMPDEST DUP3 ADD SWAP2 SWAP1 PUSH1 0x0 MSTORE PUSH1 0x20 PUSH1 0x0 KECCAK256 SWAP1 JUMPDEST DUP2 SLOAD DUP2 MSTORE SWAP1 PUSH1 0x1 ADD SWAP1 PUSH1 0x20 ADD DUP1 DUP4 GT PUSH2 0xCC9 JUMPI DUP3 SWAP1 SUB PUSH1 0x1F AND DUP3 ADD SWAP2 JUMPDEST POP POP POP POP POP DUP2 MSTORE PUSH1 0x20 ADD SWAP1 PUSH1 0x1 ADD SWAP1 PUSH2 0xC4E JUMP JUMPDEST POP POP POP POP SWAP1 POP SWAP1 JUMP JUMPDEST PUSH1 0x6D DUP1 SLOAD PUSH2 0xD10 SWAP1 PUSH2 0x2AF7 JUMP JUMPDEST DUP1 PUSH1 0x1F ADD PUSH1 0x20 DUP1 SWAP2 DIV MUL PUSH1 0x20 ADD PUSH1 0x40 MLOAD SWAP1 DUP2 ADD PUSH1 0x40 MSTORE DUP1 SWAP3 SWAP2 SWAP1 DUP2 DUP2 MSTORE PUSH1 0x20 ADD DUP3 DUP1 SLOAD PUSH2 0xD3C SWAP1 PUSH2 0x2AF7 JUMP JUMPDEST DUP1 ISZERO PUSH2 0xD89 JUMPI DUP1 PUSH1 0x1F LT PUSH2 0xD5E JUMPI PUSH2 0x100 DUP1 DUP4 SLOAD DIV MUL DUP4 MSTORE SWAP2 PUSH1 0x20 ADD SWAP2 PUSH2 0xD89 JUMP JUMPDEST DUP3 ADD SWAP2 SWAP1 PUSH1 0x0 MSTORE PUSH1 0x20 PUSH1 0x0 KECCAK256 SWAP1 JUMPDEST DUP2 SLOAD DUP2 MSTORE SWAP1 PUSH1 0x1 ADD SWAP1 PUSH1 0x20 ADD DUP1 DUP4 GT PUSH2 0xD6C JUMPI DUP3 SWAP1 SUB PUSH1 0x1F AND DUP3 ADD SWAP2 JUMPDEST POP POP POP POP POP DUP2 JUMP JUMPDEST PUSH1 0x0 DUP2 PUSH2 0xDA0 JUMPI POP PUSH1 0x0 SWAP2 SWAP1 POP JUMP JUMPDEST PUSH1 0x7 SLOAD PUSH4 0xFFFFFFFF AND JUMPDEST PUSH1 0x8 DUP2 PUSH4 0xFFFFFFFF AND PUSH1 0x64 DUP2 LT PUSH2 0xDC3 JUMPI PUSH2 0xDC3 PUSH2 0x2C0F JUMP JUMPDEST ADD SLOAD DUP4 EQ ISZERO PUSH2 0xDD5 JUMPI POP PUSH1 0x1 SWAP3 SWAP2 POP POP JUMP JUMPDEST PUSH4 0xFFFFFFFF DUP2 AND PUSH2 0xDE4 JUMPI POP PUSH1 0x64 JUMPDEST DUP1 PUSH2 0xDEE DUP2 PUSH2 0x2C25 JUMP JUMPDEST PUSH1 0x7 SLOAD SWAP1 SWAP3 POP PUSH4 0xFFFFFFFF DUP1 DUP5 AND SWAP2 AND EQ ISZERO SWAP1 POP PUSH2 0xDAA JUMPI POP PUSH1 0x0 SWAP3 SWAP2 POP POP JUMP JUMPDEST PUSH1 0x0 PUSH1 0x60 PUSH3 0x127500 PUSH1 0x6F SLOAD TIMESTAMP PUSH2 0xE25 SWAP2 SWAP1 PUSH2 0x2C45 JUMP JUMPDEST GT SWAP2 POP SWAP2 POP SWAP2 JUMP JUMPDEST PUSH1 0x3 SLOAD PUSH1 0x1 PUSH1 0x1 PUSH1 0xA0 SHL SUB AND CALLER EQ PUSH2 0xE80 JUMPI PUSH1 0x40 MLOAD PUSH3 0x461BCD PUSH1 0xE5 SHL DUP2 MSTORE PUSH1 0x20 PUSH1 0x4 DUP3 ADD MSTORE PUSH1 0x16 PUSH1 0x24 DUP3 ADD MSTORE PUSH22 0x26BAB9BA10313290383937B837B9B2B21037BBB732B9 PUSH1 0x51 SHL PUSH1 0x44 DUP3 ADD MSTORE PUSH1 0x64 ADD PUSH2 0x6D8 JUMP JUMPDEST PUSH1 0x2 DUP1 SLOAD PUSH1 0x1 PUSH1 0x1 PUSH1 0xA0 SHL SUB NOT DUP1 DUP3 AND CALLER SWAP1 DUP2 OR SWAP1 SWAP4 SSTORE PUSH1 0x3 DUP1 SLOAD SWAP1 SWAP2 AND SWAP1 SSTORE PUSH1 0x40 MLOAD PUSH1 0x1 PUSH1 0x1 PUSH1 0xA0 SHL SUB SWAP1 SWAP2 AND SWAP2 SWAP1 DUP3 SWAP1 PUSH32 0x8BE0079C531659141344CD1FD0A4F28419497F9722A3DAAFE3B4186F6B6457E0 SWAP1 PUSH1 0x0 SWAP1 LOG3 POP JUMP JUMPDEST PUSH2 0xEE3 PUSH2 0x1360 JUMP JUMPDEST PUSH1 0x0 DUP2 DUP2 MSTORE PUSH1 0x78 PUSH1 0x20 MSTORE PUSH1 0x40 SWAP1 KECCAK256 SLOAD PUSH1 0xFF AND ISZERO PUSH2 0xF43 JUMPI PUSH1 0x40 MLOAD PUSH4 0x2F40BF35 PUSH1 0xE0 SHL DUP2 MSTORE PUSH1 0x20 PUSH1 0x4 DUP3 ADD MSTORE PUSH1 0x17 PUSH1 0x24 DUP3 ADD MSTORE PUSH32 0x436F6D6D69746D656E7420616C72656164792075736564000000000000000000 PUSH1 0x44 DUP3 ADD MSTORE PUSH1 0x64 ADD PUSH2 0x6D8 JUMP JUMPDEST PUSH1 0x0 PUSH2 0xF4E DUP3 PUSH2 0x13BA JUMP JUMPDEST PUSH1 0x0 DUP4 DUP2 MSTORE PUSH1 0x78 PUSH1 0x20 MSTORE PUSH1 0x40 SWAP1 DUP2 SWAP1 KECCAK256 DUP1 SLOAD PUSH1 0xFF NOT AND PUSH1 0x1 OR SWAP1 SSTORE MLOAD SWAP1 SWAP2 POP PUSH32 0xB78452BC487DC90D6A0A567CF87858DAE69E144C5F299A43ED6964629C219E2A SWAP1 PUSH2 0xFAB SWAP1 DUP5 SWAP1 DUP5 SWAP1 SWAP2 DUP3 MSTORE PUSH4 0xFFFFFFFF AND PUSH1 0x20 DUP3 ADD MSTORE PUSH1 0x40 ADD SWAP1 JUMP JUMPDEST PUSH1 0x40 MLOAD DUP1 SWAP2 SUB SWAP1 LOG1 POP PUSH2 0xFBE PUSH1 0x1 PUSH1 0x6C SSTORE JUMP JUMPDEST POP JUMP JUMPDEST PUSH1 0x7 SLOAD PUSH1 0x0 SWAP1 PUSH1 0x8 SWAP1 PUSH4 0xFFFFFFFF AND PUSH1 0x64 DUP2 LT PUSH2 0xFE0 JUMPI PUSH2 0xFE0 PUSH2 0x2C0F JUMP JUMPDEST ADD SLOAD SWAP1 POP SWAP1 JUMP JUMPDEST PUSH1 0x73 DUP1 SLOAD PUSH2 0xD10 SWAP1 PUSH2 0x2AF7 JUMP JUMPDEST PUSH1 0x8 DUP2 PUSH1 0x64 DUP2 LT PUSH2 0x1004 JUMPI PUSH1 0x0 DUP1 REVERT JUMPDEST ADD SLOAD SWAP1 POP DUP2 JUMP JUMPDEST PUSH1 0x0 DUP1 SLOAD PUSH1 0x40 DUP1 MLOAD PUSH4 0x6994548F PUSH1 0xE1 SHL DUP2 MSTORE SWAP1 MLOAD PUSH1 0x60 SWAP4 PUSH1 0x1 PUSH1 0x1 PUSH1 0xA0 SHL SUB SWAP1 SWAP4 AND SWAP3 PUSH4 0xD328A91E SWAP3 PUSH1 0x4 DUP1 DUP3 ADD SWAP4 SWAP2 DUP3 SWAP1 SUB ADD DUP2 DUP7 DUP1 EXTCODESIZE ISZERO DUP1 ISZERO PUSH2 0x104F JUMPI PUSH1 0x0 DUP1 REVERT JUMPDEST POP GAS STATICCALL ISZERO DUP1 ISZERO PUSH2 0x1063 JUMPI RETURNDATASIZE PUSH1 0x0 DUP1 RETURNDATACOPY RETURNDATASIZE PUSH1 0x0 REVERT JUMPDEST POP POP POP POP PUSH1 0x40 MLOAD RETURNDATASIZE PUSH1 0x0 DUP3 RETURNDATACOPY PUSH1 0x1F RETURNDATASIZE SWAP1 DUP2 ADD PUSH1 0x1F NOT AND DUP3 ADD PUSH1 0x40 MSTORE PUSH2 0x108B SWAP2 SWAP1 DUP2 ADD SWAP1 PUSH2 0x2C5C JUMP JUMPDEST SWAP1 POP SWAP1 JUMP JUMPDEST PUSH1 0x0 DUP1 SLOAD PUSH1 0x1 PUSH1 0x1 PUSH1 0xA0 SHL SUB AND PUSH4 0xD227D245 DUP6 PUSH2 0x10AC DUP9 PUSH2 0x161C JUMP JUMPDEST DUP7 DUP7 PUSH1 0x40 MLOAD DUP6 PUSH4 0xFFFFFFFF AND PUSH1 0xE0 SHL DUP2 MSTORE PUSH1 0x4 ADD PUSH2 0x10CD SWAP5 SWAP4 SWAP3 SWAP2 SWAP1 PUSH2 0x2CC9 JUMP JUMPDEST PUSH1 0x20 PUSH1 0x40 MLOAD DUP1 DUP4 SUB DUP2 DUP7 DUP1 EXTCODESIZE ISZERO DUP1 ISZERO PUSH2 0x10E5 JUMPI PUSH1 0x0 DUP1 REVERT JUMPDEST POP GAS STATICCALL ISZERO DUP1 ISZERO PUSH2 0x10F9 JUMPI RETURNDATASIZE PUSH1 0x0 DUP1 RETURNDATACOPY RETURNDATASIZE PUSH1 0x0 REVERT JUMPDEST POP POP POP POP PUSH1 0x40 MLOAD RETURNDATASIZE PUSH1 0x1F NOT PUSH1 0x1F DUP3 ADD AND DUP3 ADD DUP1 PUSH1 0x40 MSTORE POP DUP2 ADD SWAP1 PUSH2 0x111D SWAP2 SWAP1 PUSH2 0x2D04 JUMP JUMPDEST SWAP1 POP JUMPDEST SWAP5 SWAP4 POP POP POP POP JUMP JUMPDEST PUSH2 0x1134 PUSH1 0x79 PUSH1 0x0 PUSH2 0x20C1 JUMP JUMPDEST PUSH1 0x40 DUP1 MLOAD PUSH1 0x0 DUP1 DUP3 MSTORE PUSH1 0x20 DUP3 ADD SWAP1 SWAP3 MSTORE SWAP1 PUSH2 0x115F JUMP JUMPDEST PUSH1 0x60 DUP2 MSTORE PUSH1 0x20 ADD SWAP1 PUSH1 0x1 SWAP1 SUB SWAP1 DUP2 PUSH2 0x114A JUMPI SWAP1 POP JUMPDEST POP DUP1 MLOAD PUSH2 0x1174 SWAP2 PUSH1 0x79 SWAP2 PUSH1 0x20 SWAP1 SWAP2 ADD SWAP1 PUSH2 0x20DF JUMP JUMPDEST POP PUSH2 0x117D PUSH2 0x1838 JUMP JUMPDEST PUSH1 0x40 MLOAD PUSH32 0x84B7226822737D667AA57D064CEFFA18DBF761C762C54D5B119BFBC3275BF18A SWAP1 PUSH1 0x0 SWAP1 LOG1 JUMP JUMPDEST PUSH1 0x6 DUP2 DUP2 SLOAD DUP2 LT PUSH2 0x11B8 JUMPI PUSH1 0x0 DUP1 REVERT JUMPDEST PUSH1 0x0 SWAP2 DUP3 MSTORE PUSH1 0x20 SWAP1 SWAP2 KECCAK256 ADD SLOAD SWAP1 POP DUP2 JUMP JUMPDEST PUSH1 0x5 DUP2 DUP2 SLOAD DUP2 LT PUSH2 0x11B8 JUMPI PUSH1 0x0 DUP1 REVERT JUMPDEST PUSH2 0x11E1 PUSH2 0x19EC JUMP JUMPDEST PUSH2 0xFBE DUP2 PUSH2 0x1A41 JUMP JUMPDEST PUSH1 0x60 PUSH2 0x1226 PUSH1 0x40 DUP1 MLOAD PUSH1 0xC0 DUP2 ADD SWAP1 SWAP2 MSTORE DUP1 PUSH1 0x0 DUP2 MSTORE PUSH1 0x20 ADD PUSH1 0x0 DUP2 MSTORE PUSH1 0x20 ADD PUSH1 0x0 DUP2 MSTORE PUSH1 0x20 ADD PUSH1 0x60 DUP2 MSTORE PUSH1 0x20 ADD PUSH1 0x60 DUP2 MSTORE PUSH1 0x20 ADD PUSH1 0x60 DUP2 MSTORE POP SWAP1 JUMP JUMPDEST PUSH2 0x126D PUSH1 0x0 DUP1 DUP11 DUP11 DUP1 DUP1 PUSH1 0x1F ADD PUSH1 0x20 DUP1 SWAP2 DIV MUL PUSH1 0x20 ADD PUSH1 0x40 MLOAD SWAP1 DUP2 ADD PUSH1 0x40 MSTORE DUP1 SWAP4 SWAP3 SWAP2 SWAP1 DUP2 DUP2 MSTORE PUSH1 0x20 ADD DUP4 DUP4 DUP1 DUP3 DUP5 CALLDATACOPY PUSH1 0x0 SWAP3 ADD SWAP2 SWAP1 SWAP2 MSTORE POP DUP8 SWAP6 SWAP5 SWAP4 SWAP3 POP POP PUSH2 0x1AEC SWAP1 POP JUMP JUMPDEST DUP5 ISZERO PUSH2 0x12B5 JUMPI PUSH2 0x12B5 DUP7 DUP7 DUP1 DUP1 PUSH1 0x1F ADD PUSH1 0x20 DUP1 SWAP2 DIV MUL PUSH1 0x20 ADD PUSH1 0x40 MLOAD SWAP1 DUP2 ADD PUSH1 0x40 MSTORE DUP1 SWAP4 SWAP3 SWAP2 SWAP1 DUP2 DUP2 MSTORE PUSH1 0x20 ADD DUP4 DUP4 DUP1 DUP3 DUP5 CALLDATACOPY PUSH1 0x0 SWAP3 ADD SWAP2 SWAP1 SWAP2 MSTORE POP DUP6 SWAP4 SWAP3 POP POP PUSH2 0x1B67 SWAP1 POP JUMP JUMPDEST DUP3 ISZERO PUSH2 0x12CF JUMPI PUSH2 0x12CF PUSH2 0x12C8 DUP5 DUP7 PUSH2 0x2D32 JUMP JUMPDEST DUP3 SWAP1 PUSH2 0x1B95 JUMP JUMPDEST PUSH2 0x12D8 DUP2 PUSH2 0x161C JUMP JUMPDEST SWAP9 SWAP8 POP POP POP POP POP POP POP POP JUMP JUMPDEST PUSH1 0x74 DUP1 SLOAD PUSH2 0xD10 SWAP1 PUSH2 0x2AF7 JUMP JUMPDEST DUP2 MLOAD PUSH2 0x1304 SWAP1 PUSH1 0x73 SWAP1 PUSH1 0x20 DUP6 ADD SWAP1 PUSH2 0x203D JUMP JUMPDEST POP DUP1 MLOAD PUSH2 0x1318 SWAP1 PUSH1 0x74 SWAP1 PUSH1 0x20 DUP5 ADD SWAP1 PUSH2 0x203D JUMP JUMPDEST POP DUP3 PUSH32 0x7BAB0EC163B5C132C72B8146AC4D6E067E82ED58F8B131150AA71C9258911562 DUP4 DUP4 PUSH1 0x40 MLOAD PUSH2 0x134B SWAP3 SWAP2 SWAP1 PUSH2 0x2D3F JUMP JUMPDEST PUSH1 0x40 MLOAD DUP1 SWAP2 SUB SWAP1 LOG2 PUSH2 0x135B PUSH2 0x1128 JUMP JUMPDEST POP POP POP JUMP JUMPDEST PUSH1 0x2 PUSH1 0x6C SLOAD EQ ISZERO PUSH2 0x13B3 JUMPI PUSH1 0x40 MLOAD PUSH3 0x461BCD PUSH1 0xE5 SHL DUP2 MSTORE PUSH1 0x20 PUSH1 0x4 DUP3 ADD MSTORE PUSH1 0x1F PUSH1 0x24 DUP3 ADD MSTORE PUSH32 0x5265656E7472616E637947756172643A207265656E7472616E742063616C6C00 PUSH1 0x44 DUP3 ADD MSTORE PUSH1 0x64 ADD PUSH2 0x6D8 JUMP JUMPDEST PUSH1 0x2 PUSH1 0x6C SSTORE JUMP JUMPDEST PUSH1 0x7 SLOAD PUSH1 0x0 SWAP1 PUSH5 0x100000000 SWAP1 DIV PUSH4 0xFFFFFFFF AND PUSH2 0x13F9 PUSH32 0x0 PUSH1 0x2 PUSH2 0x2E48 JUMP JUMPDEST DUP2 PUSH4 0xFFFFFFFF AND LT PUSH2 0x1466 JUMPI PUSH1 0x40 MLOAD PUSH4 0xD7E8473F PUSH1 0xE0 SHL DUP2 MSTORE PUSH1 0x20 PUSH1 0x4 DUP3 ADD MSTORE PUSH1 0x2F PUSH1 0x24 DUP3 ADD MSTORE PUSH32 0x4D65726B6C6520747265652069732066756C6C2E204E6F206D6F7265206C6561 PUSH1 0x44 DUP3 ADD MSTORE PUSH15 0x199CC818D85B881899481859191959 PUSH1 0x8A SHL PUSH1 0x64 DUP3 ADD MSTORE PUSH1 0x84 ADD PUSH2 0x6D8 JUMP JUMPDEST PUSH1 0x1 PUSH1 0x7 PUSH1 0x4 DUP3 DUP3 DUP3 SWAP1 SLOAD SWAP1 PUSH2 0x100 EXP SWAP1 DIV PUSH4 0xFFFFFFFF AND PUSH2 0x1488 SWAP2 SWAP1 PUSH2 0x2E5A JUMP JUMPDEST SWAP3 POP PUSH2 0x100 EXP DUP2 SLOAD DUP2 PUSH4 0xFFFFFFFF MUL NOT AND SWAP1 DUP4 PUSH4 0xFFFFFFFF AND MUL OR SWAP1 SSTORE POP PUSH1 0x0 DUP4 SWAP1 POP PUSH1 0x0 DUP1 PUSH1 0x0 JUMPDEST PUSH32 0x0 PUSH4 0xFFFFFFFF AND DUP2 PUSH4 0xFFFFFFFF AND LT ISZERO PUSH2 0x15A3 JUMPI PUSH2 0x14F0 PUSH1 0x2 DUP7 PUSH2 0x2E98 JUMP JUMPDEST PUSH4 0xFFFFFFFF AND PUSH2 0x154E JUMPI DUP4 SWAP3 POP PUSH1 0x6 DUP2 PUSH4 0xFFFFFFFF AND DUP2 SLOAD DUP2 LT PUSH2 0x1516 JUMPI PUSH2 0x1516 PUSH2 0x2C0F JUMP JUMPDEST SWAP1 PUSH1 0x0 MSTORE PUSH1 0x20 PUSH1 0x0 KECCAK256 ADD SLOAD SWAP2 POP DUP4 PUSH1 0x5 DUP3 PUSH4 0xFFFFFFFF AND DUP2 SLOAD DUP2 LT PUSH2 0x153D JUMPI PUSH2 0x153D PUSH2 0x2C0F JUMP JUMPDEST PUSH1 0x0 SWAP2 DUP3 MSTORE PUSH1 0x20 SWAP1 SWAP2 KECCAK256 ADD SSTORE PUSH2 0x1578 JUMP JUMPDEST PUSH1 0x5 DUP2 PUSH4 0xFFFFFFFF AND DUP2 SLOAD DUP2 LT PUSH2 0x1567 JUMPI PUSH2 0x1567 PUSH2 0x2C0F JUMP JUMPDEST SWAP1 PUSH1 0x0 MSTORE PUSH1 0x20 PUSH1 0x0 KECCAK256 ADD SLOAD SWAP3 POP DUP4 SWAP2 POP JUMPDEST PUSH2 0x1582 DUP4 DUP4 PUSH2 0x8A9 JUMP JUMPDEST SWAP4 POP PUSH2 0x158F PUSH1 0x2 DUP7 PUSH2 0x2EBB JUMP JUMPDEST SWAP5 POP DUP1 PUSH2 0x159B DUP2 PUSH2 0x2EDE JUMP JUMPDEST SWAP2 POP POP PUSH2 0x14B1 JUMP JUMPDEST POP PUSH1 0x7 SLOAD PUSH1 0x64 SWAP1 PUSH2 0x15BB SWAP1 PUSH4 0xFFFFFFFF AND PUSH1 0x1 PUSH2 0x2E5A JUMP JUMPDEST PUSH2 0x15C5 SWAP2 SWAP1 PUSH2 0x2E98 JUMP JUMPDEST PUSH1 0x7 DUP1 SLOAD PUSH4 0xFFFFFFFF NOT AND PUSH4 0xFFFFFFFF SWAP3 SWAP1 SWAP3 AND SWAP2 DUP3 OR SWAP1 SSTORE DUP4 SWAP1 PUSH1 0x8 SWAP1 PUSH1 0x64 DUP2 LT PUSH2 0x15F3 JUMPI PUSH2 0x15F3 PUSH2 0x2C0F JUMP JUMPDEST ADD SSTORE PUSH1 0x7 SLOAD PUSH2 0x1612 SWAP1 PUSH1 0x1 SWAP1 PUSH5 0x100000000 SWAP1 DIV PUSH4 0xFFFFFFFF AND PUSH2 0x2F02 JUMP JUMPDEST SWAP7 SWAP6 POP POP POP POP POP POP JUMP JUMPDEST PUSH1 0x60 PUSH2 0x163B PUSH1 0x40 MLOAD DUP1 PUSH1 0x40 ADD PUSH1 0x40 MSTORE DUP1 PUSH1 0x60 DUP2 MSTORE PUSH1 0x20 ADD PUSH1 0x0 DUP2 MSTORE POP SWAP1 JUMP JUMPDEST PUSH2 0x1647 DUP2 PUSH2 0x100 PUSH2 0x1BBC JUMP JUMPDEST POP PUSH1 0x40 DUP1 MLOAD DUP1 DUP3 ADD SWAP1 SWAP2 MSTORE PUSH1 0xC DUP2 MSTORE PUSH12 0x31B7B232A637B1B0BA34B7B7 PUSH1 0xA1 SHL PUSH1 0x20 DUP3 ADD MSTORE PUSH2 0x1676 SWAP1 DUP3 SWAP1 PUSH2 0x1C21 JUMP JUMPDEST DUP3 MLOAD PUSH2 0x1694 SWAP1 PUSH1 0x1 DUP2 GT ISZERO PUSH2 0x168D JUMPI PUSH2 0x168D PUSH2 0x2F27 JUMP JUMPDEST DUP3 SWAP1 PUSH2 0x1C38 JUMP JUMPDEST PUSH1 0x40 DUP1 MLOAD DUP1 DUP3 ADD SWAP1 SWAP2 MSTORE PUSH1 0x8 DUP2 MSTORE PUSH8 0x6C616E6775616765 PUSH1 0xC0 SHL PUSH1 0x20 DUP3 ADD MSTORE PUSH2 0x16BE SWAP1 DUP3 SWAP1 PUSH2 0x1C21 JUMP JUMPDEST PUSH1 0x40 DUP4 ADD MLOAD PUSH2 0x16D5 SWAP1 DUP1 ISZERO PUSH2 0x168D JUMPI PUSH2 0x168D PUSH2 0x2F27 JUMP JUMPDEST PUSH1 0x40 DUP1 MLOAD DUP1 DUP3 ADD SWAP1 SWAP2 MSTORE PUSH1 0x6 DUP2 MSTORE PUSH6 0x736F75726365 PUSH1 0xD0 SHL PUSH1 0x20 DUP3 ADD MSTORE PUSH2 0x16FD SWAP1 DUP3 SWAP1 PUSH2 0x1C21 JUMP JUMPDEST PUSH1 0x60 DUP4 ADD MLOAD PUSH2 0x170D SWAP1 DUP3 SWAP1 PUSH2 0x1C21 JUMP JUMPDEST PUSH1 0xA0 DUP4 ADD MLOAD MLOAD ISZERO PUSH2 0x17A3 JUMPI PUSH1 0x40 DUP1 MLOAD DUP1 DUP3 ADD SWAP1 SWAP2 MSTORE PUSH1 0x4 DUP2 MSTORE PUSH4 0x61726773 PUSH1 0xE0 SHL PUSH1 0x20 DUP3 ADD MSTORE PUSH2 0x173E SWAP1 DUP3 SWAP1 PUSH2 0x1C21 JUMP JUMPDEST PUSH2 0x1747 DUP2 PUSH2 0x1C61 JUMP JUMPDEST PUSH1 0x0 JUMPDEST DUP4 PUSH1 0xA0 ADD MLOAD MLOAD DUP2 LT ISZERO PUSH2 0x1799 JUMPI PUSH2 0x1787 DUP5 PUSH1 0xA0 ADD MLOAD DUP3 DUP2 MLOAD DUP2 LT PUSH2 0x1770 JUMPI PUSH2 0x1770 PUSH2 0x2C0F JUMP JUMPDEST PUSH1 0x20 MUL PUSH1 0x20 ADD ADD MLOAD DUP4 PUSH2 0x1C21 SWAP1 SWAP2 SWAP1 PUSH4 0xFFFFFFFF AND JUMP JUMPDEST DUP1 PUSH2 0x1791 DUP2 PUSH2 0x2F3D JUMP JUMPDEST SWAP2 POP POP PUSH2 0x174A JUMP JUMPDEST POP PUSH2 0x17A3 DUP2 PUSH2 0x1C6C JUMP JUMPDEST PUSH1 0x80 DUP4 ADD MLOAD MLOAD ISZERO PUSH2 0x1831 JUMPI PUSH1 0x40 DUP1 MLOAD DUP1 DUP3 ADD SWAP1 SWAP2 MSTORE PUSH1 0xF DUP2 MSTORE PUSH15 0x39B2B1B932BA39A637B1B0BA34B7B7 PUSH1 0x89 SHL PUSH1 0x20 DUP3 ADD MSTORE PUSH2 0x17DF SWAP1 DUP3 SWAP1 PUSH2 0x1C21 JUMP JUMPDEST PUSH2 0x17F8 DUP4 PUSH1 0x20 ADD MLOAD PUSH1 0x1 DUP2 GT ISZERO PUSH2 0x168D JUMPI PUSH2 0x168D PUSH2 0x2F27 JUMP JUMPDEST PUSH1 0x40 DUP1 MLOAD DUP1 DUP3 ADD SWAP1 SWAP2 MSTORE PUSH1 0x7 DUP2 MSTORE PUSH7 0x73656372657473 PUSH1 0xC8 SHL PUSH1 0x20 DUP3 ADD MSTORE PUSH2 0x1821 SWAP1 DUP3 SWAP1 PUSH2 0x1C21 JUMP JUMPDEST PUSH1 0x80 DUP4 ADD MLOAD PUSH2 0x1831 SWAP1 DUP3 SWAP1 PUSH2 0x1C77 JUMP JUMPDEST MLOAD SWAP3 SWAP2 POP POP JUMP JUMPDEST PUSH2 0x1844 PUSH1 0x5 PUSH1 0x0 PUSH2 0x2138 JUMP JUMPDEST PUSH2 0x1850 PUSH1 0x6 PUSH1 0x0 PUSH2 0x2138 JUMP JUMPDEST PUSH1 0x40 DUP1 MLOAD PUSH1 0x0 DUP2 MSTORE PUSH1 0x20 DUP2 ADD SWAP2 DUP3 SWAP1 MSTORE MLOAD PUSH2 0x186D SWAP2 PUSH1 0x5 SWAP2 PUSH2 0x2156 JUMP JUMPDEST POP PUSH1 0x40 DUP1 MLOAD PUSH1 0x0 DUP2 MSTORE PUSH1 0x20 DUP2 ADD SWAP2 DUP3 SWAP1 MSTORE MLOAD PUSH2 0x188B SWAP2 PUSH1 0x6 SWAP2 PUSH2 0x2156 JUMP JUMPDEST POP PUSH1 0x7 DUP1 SLOAD PUSH8 0xFFFFFFFFFFFFFFFF NOT AND SWAP1 SSTORE PUSH1 0x6 DUP1 SLOAD PUSH1 0x1 DUP2 DUP2 ADD SWAP1 SWAP3 SSTORE PUSH32 0x2FE54C60D3ACABF3343A35B6EBA15DB4821B340F76E741E2249685ED4899AF6C PUSH32 0xF652222313E28459528D920B65115C16C04F3EFC82AAEDC97BE59F3F377C0D3F SWAP1 SWAP2 ADD DUP2 SWAP1 SSTORE PUSH1 0x5 DUP1 SLOAD DUP1 DUP5 ADD DUP3 SSTORE PUSH1 0x0 SWAP2 SWAP1 SWAP2 MSTORE PUSH32 0x36B6384B5ECA791C62761152D0C79BB0604C104A5FB6F4EB0703F3154BB3DB0 ADD DUP2 SWAP1 SSTORE SWAP1 JUMPDEST PUSH32 0x0 PUSH4 0xFFFFFFFF AND DUP2 PUSH4 0xFFFFFFFF AND LT ISZERO PUSH2 0x19DB JUMPI PUSH2 0x1965 DUP3 DUP4 PUSH2 0x8A9 JUMP JUMPDEST PUSH1 0x6 DUP1 SLOAD PUSH1 0x1 DUP2 DUP2 ADD SWAP1 SWAP3 SSTORE PUSH32 0xF652222313E28459528D920B65115C16C04F3EFC82AAEDC97BE59F3F377C0D3F ADD DUP3 SWAP1 SSTORE PUSH1 0x5 DUP1 SLOAD SWAP2 DUP3 ADD DUP2 SSTORE PUSH1 0x0 MSTORE PUSH32 0x36B6384B5ECA791C62761152D0C79BB0604C104A5FB6F4EB0703F3154BB3DB0 ADD DUP2 SWAP1 SSTORE SWAP2 POP DUP1 PUSH2 0x19D3 DUP2 PUSH2 0x2EDE JUMP JUMPDEST SWAP2 POP POP PUSH2 0x1927 JUMP JUMPDEST POP PUSH2 0x19E6 DUP2 DUP3 PUSH2 0x8A9 JUMP JUMPDEST PUSH1 0x8 SSTORE POP JUMP JUMPDEST PUSH1 0x2 SLOAD PUSH1 0x1 PUSH1 0x1 PUSH1 0xA0 SHL SUB AND CALLER EQ PUSH2 0x1A3F JUMPI PUSH1 0x40 MLOAD PUSH3 0x461BCD PUSH1 0xE5 SHL DUP2 MSTORE PUSH1 0x20 PUSH1 0x4 DUP3 ADD MSTORE PUSH1 0x16 PUSH1 0x24 DUP3 ADD MSTORE PUSH22 0x27B7363C9031B0B63630B1363290313C9037BBB732B9 PUSH1 0x51 SHL PUSH1 0x44 DUP3 ADD MSTORE PUSH1 0x64 ADD PUSH2 0x6D8 JUMP JUMPDEST JUMP JUMPDEST PUSH1 0x1 PUSH1 0x1 PUSH1 0xA0 SHL SUB DUP2 AND CALLER EQ ISZERO PUSH2 0x1A9A JUMPI PUSH1 0x40 MLOAD PUSH3 0x461BCD PUSH1 0xE5 SHL DUP2 MSTORE PUSH1 0x20 PUSH1 0x4 DUP3 ADD MSTORE PUSH1 0x17 PUSH1 0x24 DUP3 ADD MSTORE PUSH32 0x43616E6E6F74207472616E7366657220746F2073656C66000000000000000000 PUSH1 0x44 DUP3 ADD MSTORE PUSH1 0x64 ADD PUSH2 0x6D8 JUMP JUMPDEST PUSH1 0x3 DUP1 SLOAD PUSH1 0x1 PUSH1 0x1 PUSH1 0xA0 SHL SUB NOT AND PUSH1 0x1 PUSH1 0x1 PUSH1 0xA0 SHL SUB DUP4 DUP2 AND SWAP2 DUP3 OR SWAP1 SWAP3 SSTORE PUSH1 0x2 SLOAD PUSH1 0x40 MLOAD SWAP2 SWAP3 AND SWAP1 PUSH32 0xED8889F560326EB138920D842192F0EB3DD22B4F139C87A2C57538E05BAE1278 SWAP1 PUSH1 0x0 SWAP1 LOG3 POP JUMP JUMPDEST DUP1 MLOAD PUSH2 0x1B0B JUMPI PUSH1 0x40 MLOAD PUSH4 0x22CE3EDD PUSH1 0xE0 SHL DUP2 MSTORE PUSH1 0x4 ADD PUSH1 0x40 MLOAD DUP1 SWAP2 SUB SWAP1 REVERT JUMPDEST DUP4 DUP4 PUSH1 0x1 DUP2 GT ISZERO PUSH2 0x1B1E JUMPI PUSH2 0x1B1E PUSH2 0x2F27 JUMP JUMPDEST SWAP1 DUP2 PUSH1 0x1 DUP2 GT ISZERO PUSH2 0x1B31 JUMPI PUSH2 0x1B31 PUSH2 0x2F27 JUMP JUMPDEST SWAP1 MSTORE POP PUSH1 0x40 DUP5 ADD DUP3 DUP1 ISZERO PUSH2 0x1B47 JUMPI PUSH2 0x1B47 PUSH2 0x2F27 JUMP JUMPDEST SWAP1 DUP2 DUP1 ISZERO PUSH2 0x1B57 JUMPI PUSH2 0x1B57 PUSH2 0x2F27 JUMP JUMPDEST SWAP1 MSTORE POP PUSH1 0x60 SWAP1 SWAP4 ADD SWAP3 SWAP1 SWAP3 MSTORE POP POP JUMP JUMPDEST DUP1 MLOAD PUSH2 0x1B86 JUMPI PUSH1 0x40 MLOAD PUSH4 0xE889636F PUSH1 0xE0 SHL DUP2 MSTORE PUSH1 0x4 ADD PUSH1 0x40 MLOAD DUP1 SWAP2 SUB SWAP1 REVERT JUMPDEST PUSH1 0x1 PUSH1 0x20 DUP4 ADD MSTORE PUSH1 0x80 SWAP1 SWAP2 ADD MSTORE JUMP JUMPDEST DUP1 MLOAD PUSH2 0x1BB4 JUMPI PUSH1 0x40 MLOAD PUSH4 0xFE936CB7 PUSH1 0xE0 SHL DUP2 MSTORE PUSH1 0x4 ADD PUSH1 0x40 MLOAD DUP1 SWAP2 SUB SWAP1 REVERT JUMPDEST PUSH1 0xA0 SWAP1 SWAP2 ADD MSTORE JUMP JUMPDEST PUSH1 0x40 DUP1 MLOAD DUP1 DUP3 ADD SWAP1 SWAP2 MSTORE PUSH1 0x60 DUP2 MSTORE PUSH1 0x0 PUSH1 0x20 DUP3 ADD MSTORE PUSH2 0x1BDC PUSH1 0x20 DUP4 PUSH2 0x2F58 JUMP JUMPDEST ISZERO PUSH2 0x1C04 JUMPI PUSH2 0x1BEC PUSH1 0x20 DUP4 PUSH2 0x2F58 JUMP JUMPDEST PUSH2 0x1BF7 SWAP1 PUSH1 0x20 PUSH2 0x2C45 JUMP JUMPDEST PUSH2 0x1C01 SWAP1 DUP4 PUSH2 0x2ADF JUMP JUMPDEST SWAP2 POP JUMPDEST POP PUSH1 0x20 DUP3 DUP2 ADD DUP3 SWAP1 MSTORE PUSH1 0x40 DUP1 MLOAD DUP1 DUP6 MSTORE PUSH1 0x0 DUP2 MSTORE SWAP1 SWAP3 ADD ADD SWAP1 MSTORE SWAP1 JUMP JUMPDEST PUSH2 0x1C2E DUP3 PUSH1 0x3 DUP4 MLOAD PUSH2 0x1C80 JUMP JUMPDEST PUSH2 0x135B DUP3 DUP3 PUSH2 0x1D87 JUMP JUMPDEST PUSH1 0x1 PUSH1 0x1 PUSH1 0x40 SHL SUB DUP2 GT ISZERO PUSH2 0x1C55 JUMPI PUSH2 0x1C51 DUP3 DUP3 PUSH2 0x1DB5 JUMP JUMPDEST POP POP JUMP JUMPDEST PUSH2 0x1C51 DUP3 PUSH1 0x0 DUP4 PUSH2 0x1C80 JUMP JUMPDEST PUSH2 0xFBE DUP2 PUSH1 0x4 PUSH2 0x1DEC JUMP JUMPDEST PUSH2 0xFBE DUP2 PUSH1 0x7 PUSH2 0x1DEC JUMP JUMPDEST PUSH2 0x1C2E DUP3 PUSH1 0x2 DUP4 MLOAD JUMPDEST PUSH1 0x17 DUP2 PUSH1 0x1 PUSH1 0x1 PUSH1 0x40 SHL SUB AND GT PUSH2 0x1CA4 JUMPI PUSH2 0x675 DUP4 PUSH1 0xE0 PUSH1 0x5 DUP6 SWAP1 SHL AND DUP4 OR PUSH2 0x1DFD JUMP JUMPDEST PUSH1 0xFF DUP2 PUSH1 0x1 PUSH1 0x1 PUSH1 0x40 SHL SUB AND GT PUSH2 0x1CE0 JUMPI PUSH2 0x1CCA DUP4 PUSH1 0x18 PUSH2 0x1FE0 PUSH1 0x5 DUP7 SWAP1 SHL AND OR PUSH2 0x1DFD JUMP JUMPDEST POP PUSH2 0x675 DUP4 PUSH1 0x1 PUSH1 0x1 PUSH1 0x40 SHL SUB DUP4 AND PUSH1 0x1 PUSH2 0x1E22 JUMP JUMPDEST PUSH2 0xFFFF DUP2 PUSH1 0x1 PUSH1 0x1 PUSH1 0x40 SHL SUB AND GT PUSH2 0x1D1D JUMPI PUSH2 0x1D07 DUP4 PUSH1 0x19 PUSH2 0x1FE0 PUSH1 0x5 DUP7 SWAP1 SHL AND OR PUSH2 0x1DFD JUMP JUMPDEST POP PUSH2 0x675 DUP4 PUSH1 0x1 PUSH1 0x1 PUSH1 0x40 SHL SUB DUP4 AND PUSH1 0x2 PUSH2 0x1E22 JUMP JUMPDEST PUSH4 0xFFFFFFFF DUP2 PUSH1 0x1 PUSH1 0x1 PUSH1 0x40 SHL SUB AND GT PUSH2 0x1D5C JUMPI PUSH2 0x1D46 DUP4 PUSH1 0x1A PUSH2 0x1FE0 PUSH1 0x5 DUP7 SWAP1 SHL AND OR PUSH2 0x1DFD JUMP JUMPDEST POP PUSH2 0x675 DUP4 PUSH1 0x1 PUSH1 0x1 PUSH1 0x40 SHL SUB DUP4 AND PUSH1 0x4 PUSH2 0x1E22 JUMP JUMPDEST PUSH2 0x1D71 DUP4 PUSH1 0x1B PUSH2 0x1FE0 PUSH1 0x5 DUP7 SWAP1 SHL AND OR PUSH2 0x1DFD JUMP JUMPDEST POP PUSH2 0x675 DUP4 PUSH1 0x1 PUSH1 0x1 PUSH1 0x40 SHL SUB DUP4 AND PUSH1 0x8 PUSH2 0x1E22 JUMP JUMPDEST PUSH1 0x40 DUP1 MLOAD DUP1 DUP3 ADD SWAP1 SWAP2 MSTORE PUSH1 0x60 DUP2 MSTORE PUSH1 0x0 PUSH1 0x20 DUP3 ADD MSTORE PUSH2 0x1DAE DUP4 DUP5 PUSH1 0x0 ADD MLOAD MLOAD DUP5 DUP6 MLOAD PUSH2 0x1E48 JUMP JUMPDEST SWAP4 SWAP3 POP POP POP JUMP JUMPDEST PUSH2 0x1DC0 DUP3 PUSH1 0xC2 PUSH2 0x1DFD JUMP JUMPDEST POP PUSH2 0x1C51 DUP3 DUP3 PUSH1 0x40 MLOAD PUSH1 0x20 ADD PUSH2 0x1DD8 SWAP2 DUP2 MSTORE PUSH1 0x20 ADD SWAP1 JUMP JUMPDEST PUSH1 0x40 MLOAD PUSH1 0x20 DUP2 DUP4 SUB SUB DUP2 MSTORE SWAP1 PUSH1 0x40 MSTORE PUSH2 0x1C77 JUMP JUMPDEST PUSH2 0x135B DUP3 PUSH1 0x1F PUSH2 0x1FE0 PUSH1 0x5 DUP6 SWAP1 SHL AND OR JUMPDEST PUSH1 0x40 DUP1 MLOAD DUP1 DUP3 ADD SWAP1 SWAP2 MSTORE PUSH1 0x60 DUP2 MSTORE PUSH1 0x0 PUSH1 0x20 DUP3 ADD MSTORE PUSH2 0x1DAE DUP4 DUP5 PUSH1 0x0 ADD MLOAD MLOAD DUP5 PUSH2 0x1F32 JUMP JUMPDEST PUSH1 0x40 DUP1 MLOAD DUP1 DUP3 ADD SWAP1 SWAP2 MSTORE PUSH1 0x60 DUP2 MSTORE PUSH1 0x0 PUSH1 0x20 DUP3 ADD MSTORE PUSH2 0x1120 DUP5 DUP6 PUSH1 0x0 ADD MLOAD MLOAD DUP6 DUP6 PUSH2 0x1F8E JUMP JUMPDEST PUSH1 0x40 DUP1 MLOAD DUP1 DUP3 ADD SWAP1 SWAP2 MSTORE PUSH1 0x60 DUP2 MSTORE PUSH1 0x0 PUSH1 0x20 DUP3 ADD MSTORE DUP3 MLOAD DUP3 GT ISZERO PUSH2 0x1E6B JUMPI PUSH1 0x0 DUP1 REVERT JUMPDEST PUSH1 0x20 DUP6 ADD MLOAD PUSH2 0x1E7A DUP4 DUP7 PUSH2 0x2ADF JUMP JUMPDEST GT ISZERO PUSH2 0x1EAD JUMPI PUSH2 0x1EAD DUP6 PUSH2 0x1E9D DUP8 PUSH1 0x20 ADD MLOAD DUP8 DUP7 PUSH2 0x1E98 SWAP2 SWAP1 PUSH2 0x2ADF JUMP JUMPDEST PUSH2 0x200F JUMP JUMPDEST PUSH2 0x1EA8 SWAP1 PUSH1 0x2 PUSH2 0x2F6C JUMP JUMPDEST PUSH2 0x2026 JUMP JUMPDEST PUSH1 0x0 DUP1 DUP7 MLOAD DUP1 MLOAD DUP8 PUSH1 0x20 DUP4 ADD ADD SWAP4 POP DUP1 DUP9 DUP8 ADD GT ISZERO PUSH2 0x1ECC JUMPI DUP8 DUP7 ADD DUP3 MSTORE JUMPDEST POP POP POP PUSH1 0x20 DUP5 ADD JUMPDEST PUSH1 0x20 DUP5 LT PUSH2 0x1F0C JUMPI DUP1 MLOAD DUP3 MSTORE PUSH2 0x1EEB PUSH1 0x20 DUP4 PUSH2 0x2ADF JUMP JUMPDEST SWAP2 POP PUSH2 0x1EF8 PUSH1 0x20 DUP3 PUSH2 0x2ADF JUMP JUMPDEST SWAP1 POP PUSH2 0x1F05 PUSH1 0x20 DUP6 PUSH2 0x2C45 JUMP JUMPDEST SWAP4 POP PUSH2 0x1ED4 JUMP JUMPDEST MLOAD DUP2 MLOAD PUSH1 0x0 NOT PUSH1 0x20 DUP7 SWAP1 SUB PUSH2 0x100 EXP ADD SWAP1 DUP2 AND SWAP1 NOT SWAP2 SWAP1 SWAP2 AND OR SWAP1 MSTORE POP DUP4 SWAP5 SWAP4 POP POP POP POP JUMP JUMPDEST PUSH1 0x40 DUP1 MLOAD DUP1 DUP3 ADD SWAP1 SWAP2 MSTORE PUSH1 0x60 DUP2 MSTORE PUSH1 0x0 PUSH1 0x20 DUP3 ADD MSTORE DUP4 PUSH1 0x20 ADD MLOAD DUP4 LT PUSH2 0x1F67 JUMPI PUSH2 0x1F67 DUP5 DUP6 PUSH1 0x20 ADD MLOAD PUSH1 0x2 PUSH2 0x1EA8 SWAP2 SWAP1 PUSH2 0x2F6C JUMP JUMPDEST DUP4 MLOAD DUP1 MLOAD PUSH1 0x20 DUP6 DUP4 ADD ADD DUP5 DUP2 MSTORE8 POP DUP1 DUP6 EQ ISZERO PUSH2 0x1F84 JUMPI PUSH1 0x1 DUP2 ADD DUP3 MSTORE JUMPDEST POP SWAP4 SWAP5 SWAP4 POP POP POP POP JUMP JUMPDEST PUSH1 0x40 DUP1 MLOAD DUP1 DUP3 ADD SWAP1 SWAP2 MSTORE PUSH1 0x60 DUP2 MSTORE PUSH1 0x0 PUSH1 0x20 DUP3 ADD MSTORE PUSH1 0x20 DUP6 ADD MLOAD PUSH2 0x1FB2 DUP6 DUP5 PUSH2 0x2ADF JUMP JUMPDEST GT ISZERO PUSH2 0x1FC6 JUMPI PUSH2 0x1FC6 DUP6 PUSH2 0x1E9D DUP7 DUP6 PUSH2 0x2ADF JUMP JUMPDEST PUSH1 0x0 PUSH1 0x1 PUSH2 0x1FD6 DUP5 PUSH2 0x100 PUSH2 0x2F8B JUMP JUMPDEST PUSH2 0x1FE0 SWAP2 SWAP1 PUSH2 0x2C45 JUMP JUMPDEST SWAP1 POP DUP6 MLOAD DUP4 DUP7 DUP3 ADD ADD DUP6 DUP4 NOT DUP3 MLOAD AND OR DUP2 MSTORE POP DUP1 MLOAD DUP5 DUP8 ADD GT ISZERO PUSH2 0x2004 JUMPI DUP4 DUP7 ADD DUP2 MSTORE JUMPDEST POP SWAP5 SWAP6 SWAP5 POP POP POP POP POP JUMP JUMPDEST PUSH1 0x0 DUP2 DUP4 GT ISZERO PUSH2 0x2020 JUMPI POP DUP2 PUSH2 0xA28 JUMP JUMPDEST POP SWAP2 SWAP1 POP JUMP JUMPDEST DUP2 MLOAD PUSH2 0x2032 DUP4 DUP4 PUSH2 0x1BBC JUMP JUMPDEST POP PUSH2 0x675 DUP4 DUP3 PUSH2 0x1D87 JUMP JUMPDEST DUP3 DUP1 SLOAD PUSH2 0x2049 SWAP1 PUSH2 0x2AF7 JUMP JUMPDEST SWAP1 PUSH1 0x0 MSTORE PUSH1 0x20 PUSH1 0x0 KECCAK256 SWAP1 PUSH1 0x1F ADD PUSH1 0x20 SWAP1 DIV DUP2 ADD SWAP3 DUP3 PUSH2 0x206B JUMPI PUSH1 0x0 DUP6 SSTORE PUSH2 0x20B1 JUMP JUMPDEST DUP3 PUSH1 0x1F LT PUSH2 0x2084 JUMPI DUP1 MLOAD PUSH1 0xFF NOT AND DUP4 DUP1 ADD OR DUP6 SSTORE PUSH2 0x20B1 JUMP JUMPDEST DUP3 DUP1 ADD PUSH1 0x1 ADD DUP6 SSTORE DUP3 ISZERO PUSH2 0x20B1 JUMPI SWAP2 DUP3 ADD JUMPDEST DUP3 DUP2 GT ISZERO PUSH2 0x20B1 JUMPI DUP3 MLOAD DUP3 SSTORE SWAP2 PUSH1 0x20 ADD SWAP2 SWAP1 PUSH1 0x1 ADD SWAP1 PUSH2 0x2096 JUMP JUMPDEST POP PUSH2 0x20BD SWAP3 SWAP2 POP PUSH2 0x2190 JUMP JUMPDEST POP SWAP1 JUMP JUMPDEST POP DUP1 SLOAD PUSH1 0x0 DUP3 SSTORE SWAP1 PUSH1 0x0 MSTORE PUSH1 0x20 PUSH1 0x0 KECCAK256 SWAP1 DUP2 ADD SWAP1 PUSH2 0xFBE SWAP2 SWAP1 PUSH2 0x21A5 JUMP JUMPDEST DUP3 DUP1 SLOAD DUP3 DUP3 SSTORE SWAP1 PUSH1 0x0 MSTORE PUSH1 0x20 PUSH1 0x0 KECCAK256 SWAP1 DUP2 ADD SWAP3 DUP3 ISZERO PUSH2 0x212C JUMPI SWAP2 PUSH1 0x20 MUL DUP3 ADD JUMPDEST DUP3 DUP2 GT ISZERO PUSH2 0x212C JUMPI DUP3 MLOAD DUP1 MLOAD PUSH2 0x211C SWAP2 DUP5 SWAP2 PUSH1 0x20 SWAP1 SWAP2 ADD SWAP1 PUSH2 0x203D JUMP JUMPDEST POP SWAP2 PUSH1 0x20 ADD SWAP2 SWAP1 PUSH1 0x1 ADD SWAP1 PUSH2 0x20FF JUMP JUMPDEST POP PUSH2 0x20BD SWAP3 SWAP2 POP PUSH2 0x21A5 JUMP JUMPDEST POP DUP1 SLOAD PUSH1 0x0 DUP3 SSTORE SWAP1 PUSH1 0x0 MSTORE PUSH1 0x20 PUSH1 0x0 KECCAK256 SWAP1 DUP2 ADD SWAP1 PUSH2 0xFBE SWAP2 SWAP1 PUSH2 0x2190 JUMP JUMPDEST DUP3 DUP1 SLOAD DUP3 DUP3 SSTORE SWAP1 PUSH1 0x0 MSTORE PUSH1 0x20 PUSH1 0x0 KECCAK256 SWAP1 DUP2 ADD SWAP3 DUP3 ISZERO PUSH2 0x20B1 JUMPI SWAP2 PUSH1 0x20 MUL DUP3 ADD DUP3 DUP2 GT ISZERO PUSH2 0x20B1 JUMPI DUP3 MLOAD DUP3 SSTORE SWAP2 PUSH1 0x20 ADD SWAP2 SWAP1 PUSH1 0x1 ADD SWAP1 PUSH2 0x2096 JUMP JUMPDEST JUMPDEST DUP1 DUP3 GT ISZERO PUSH2 0x20BD JUMPI PUSH1 0x0 DUP2 SSTORE PUSH1 0x1 ADD PUSH2 0x2191 JUMP JUMPDEST DUP1 DUP3 GT ISZERO PUSH2 0x20BD JUMPI PUSH1 0x0 PUSH2 0x21B9 DUP3 DUP3 PUSH2 0x21C2 JUMP JUMPDEST POP PUSH1 0x1 ADD PUSH2 0x21A5 JUMP JUMPDEST POP DUP1 SLOAD PUSH2 0x21CE SWAP1 PUSH2 0x2AF7 JUMP JUMPDEST PUSH1 0x0 DUP3 SSTORE DUP1 PUSH1 0x1F LT PUSH2 0x21DE JUMPI POP POP JUMP JUMPDEST PUSH1 0x1F ADD PUSH1 0x20 SWAP1 DIV SWAP1 PUSH1 0x0 MSTORE PUSH1 0x20 PUSH1 0x0 KECCAK256 SWAP1 DUP2 ADD SWAP1 PUSH2 0xFBE SWAP2 SWAP1 PUSH2 0x2190 JUMP JUMPDEST PUSH4 0x4E487B71 PUSH1 0xE0 SHL PUSH1 0x0 MSTORE PUSH1 0x41 PUSH1 0x4 MSTORE PUSH1 0x24 PUSH1 0x0 REVERT JUMPDEST PUSH1 0x40 MLOAD PUSH1 0x60 DUP2 ADD PUSH1 0x1 PUSH1 0x1 PUSH1 0x40 SHL SUB DUP2 GT DUP3 DUP3 LT OR ISZERO PUSH2 0x2234 JUMPI PUSH2 0x2234 PUSH2 0x21FC JUMP JUMPDEST PUSH1 0x40 MSTORE SWAP1 JUMP JUMPDEST PUSH1 0x40 MLOAD PUSH1 0xC0 DUP2 ADD PUSH1 0x1 PUSH1 0x1 PUSH1 0x40 SHL SUB DUP2 GT DUP3 DUP3 LT OR ISZERO PUSH2 0x2234 JUMPI PUSH2 0x2234 PUSH2 0x21FC JUMP JUMPDEST PUSH1 0x40 DUP1 MLOAD SWAP1 DUP2 ADD PUSH1 0x1 PUSH1 0x1 PUSH1 0x40 SHL SUB DUP2 GT DUP3 DUP3 LT OR ISZERO PUSH2 0x2234 JUMPI PUSH2 0x2234 PUSH2 0x21FC JUMP JUMPDEST PUSH1 0x40 MLOAD PUSH1 0x1F DUP3 ADD PUSH1 0x1F NOT AND DUP2 ADD PUSH1 0x1 PUSH1 0x1 PUSH1 0x40 SHL SUB DUP2 GT DUP3 DUP3 LT OR ISZERO PUSH2 0x22A6 JUMPI PUSH2 0x22A6 PUSH2 0x21FC JUMP JUMPDEST PUSH1 0x40 MSTORE SWAP2 SWAP1 POP JUMP JUMPDEST PUSH1 0x0 PUSH1 0x1 PUSH1 0x1 PUSH1 0x40 SHL SUB DUP3 GT ISZERO PUSH2 0x22C7 JUMPI PUSH2 0x22C7 PUSH2 0x21FC JUMP JUMPDEST POP PUSH1 0x1F ADD PUSH1 0x1F NOT AND PUSH1 0x20 ADD SWAP1 JUMP JUMPDEST PUSH1 0x0 DUP3 PUSH1 0x1F DUP4 ADD SLT PUSH2 0x22E6 JUMPI PUSH1 0x0 DUP1 REVERT JUMPDEST DUP2 CALLDATALOAD PUSH2 0x22F9 PUSH2 0x22F4 DUP3 PUSH2 0x22AE JUMP JUMPDEST PUSH2 0x227E JUMP JUMPDEST DUP2 DUP2 MSTORE DUP5 PUSH1 0x20 DUP4 DUP7 ADD ADD GT ISZERO PUSH2 0x230E JUMPI PUSH1 0x0 DUP1 REVERT JUMPDEST DUP2 PUSH1 0x20 DUP6 ADD PUSH1 0x20 DUP4 ADD CALLDATACOPY PUSH1 0x0 SWAP2 DUP2 ADD PUSH1 0x20 ADD SWAP2 SWAP1 SWAP2 MSTORE SWAP4 SWAP3 POP POP POP JUMP JUMPDEST PUSH1 0x0 DUP1 PUSH1 0x0 PUSH1 0x60 DUP5 DUP7 SUB SLT ISZERO PUSH2 0x2340 JUMPI PUSH1 0x0 DUP1 REVERT JUMPDEST DUP4 CALLDATALOAD SWAP3 POP PUSH1 0x20 DUP5 ADD CALLDATALOAD PUSH1 0x1 PUSH1 0x1 PUSH1 0x40 SHL SUB DUP1 DUP3 GT ISZERO PUSH2 0x235E JUMPI PUSH1 0x0 DUP1 REVERT JUMPDEST PUSH2 0x236A DUP8 DUP4 DUP9 ADD PUSH2 0x22D5 JUMP JUMPDEST SWAP4 POP PUSH1 0x40 DUP7 ADD CALLDATALOAD SWAP2 POP DUP1 DUP3 GT ISZERO PUSH2 0x2380 JUMPI PUSH1 0x0 DUP1 REVERT JUMPDEST POP PUSH2 0x238D DUP7 DUP3 DUP8 ADD PUSH2 0x22D5 JUMP JUMPDEST SWAP2 POP POP SWAP3 POP SWAP3 POP SWAP3 JUMP JUMPDEST PUSH1 0x0 DUP3 PUSH1 0x1F DUP4 ADD SLT PUSH2 0x23A8 JUMPI PUSH1 0x0 DUP1 REVERT JUMPDEST PUSH2 0x23B0 PUSH2 0x225C JUMP JUMPDEST DUP1 PUSH1 0x40 DUP5 ADD DUP6 DUP2 GT ISZERO PUSH2 0x23C2 JUMPI PUSH1 0x0 DUP1 REVERT JUMPDEST DUP5 JUMPDEST DUP2 DUP2 LT ISZERO PUSH2 0x23DC JUMPI DUP1 CALLDATALOAD DUP5 MSTORE PUSH1 0x20 SWAP4 DUP5 ADD SWAP4 ADD PUSH2 0x23C4 JUMP JUMPDEST POP SWAP1 SWAP6 SWAP5 POP POP POP POP POP JUMP JUMPDEST PUSH1 0x0 DUP1 PUSH1 0x0 DUP1 DUP5 DUP7 SUB PUSH2 0x160 DUP2 SLT ISZERO PUSH2 0x23FF JUMPI PUSH1 0x0 DUP1 REVERT JUMPDEST DUP6 CALLDATALOAD PUSH1 0x1 PUSH1 0x1 PUSH1 0x40 SHL SUB DUP2 GT ISZERO PUSH2 0x2415 JUMPI PUSH1 0x0 DUP1 REVERT JUMPDEST PUSH2 0x2421 DUP9 DUP3 DUP10 ADD PUSH2 0x22D5 JUMP JUMPDEST SWAP6 POP POP PUSH1 0x20 DUP7 DUP2 ADD CALLDATALOAD SWAP5 POP PUSH1 0x40 DUP1 DUP9 ADD CALLDATALOAD SWAP5 POP PUSH2 0x100 PUSH1 0x5F NOT DUP5 ADD SLT ISZERO PUSH2 0x2447 JUMPI PUSH1 0x0 DUP1 REVERT JUMPDEST PUSH2 0x244F PUSH2 0x2212 JUMP JUMPDEST SWAP3 POP PUSH2 0x245E DUP10 PUSH1 0x60 DUP11 ADD PUSH2 0x2397 JUMP JUMPDEST DUP4 MSTORE DUP9 PUSH1 0xBF DUP10 ADD SLT PUSH2 0x246F JUMPI PUSH1 0x0 DUP1 REVERT JUMPDEST PUSH2 0x2477 PUSH2 0x225C JUMP JUMPDEST DUP1 PUSH2 0x120 DUP11 ADD DUP12 DUP2 GT ISZERO PUSH2 0x248A JUMPI PUSH1 0x0 DUP1 REVERT JUMPDEST PUSH1 0xA0 DUP12 ADD JUMPDEST DUP2 DUP2 LT ISZERO PUSH2 0x24AE JUMPI PUSH2 0x24A1 DUP14 DUP3 PUSH2 0x2397 JUMP JUMPDEST DUP5 MSTORE SWAP3 DUP6 ADD SWAP3 DUP5 ADD PUSH2 0x248F JUMP JUMPDEST POP DUP2 DUP6 DUP8 ADD MSTORE PUSH2 0x24BE DUP13 DUP3 PUSH2 0x2397 JUMP JUMPDEST DUP5 DUP8 ADD MSTORE POP POP POP POP POP DUP1 SWAP2 POP POP SWAP3 SWAP6 SWAP2 SWAP5 POP SWAP3 POP JUMP JUMPDEST PUSH1 0x0 PUSH1 0x20 DUP3 DUP5 SUB SLT ISZERO PUSH2 0x24E6 JUMPI PUSH1 0x0 DUP1 REVERT JUMPDEST POP CALLDATALOAD SWAP2 SWAP1 POP JUMP JUMPDEST PUSH1 0x0 DUP1 PUSH1 0x40 DUP4 DUP6 SUB SLT ISZERO PUSH2 0x2500 JUMPI PUSH1 0x0 DUP1 REVERT JUMPDEST POP POP DUP1 CALLDATALOAD SWAP3 PUSH1 0x20 SWAP1 SWAP2 ADD CALLDATALOAD SWAP2 POP JUMP JUMPDEST PUSH1 0x0 DUP1 DUP4 PUSH1 0x1F DUP5 ADD SLT PUSH2 0x2521 JUMPI PUSH1 0x0 DUP1 REVERT JUMPDEST POP DUP2 CALLDATALOAD PUSH1 0x1 PUSH1 0x1 PUSH1 0x40 SHL SUB DUP2 GT ISZERO PUSH2 0x2538 JUMPI PUSH1 0x0 DUP1 REVERT JUMPDEST PUSH1 0x20 DUP4 ADD SWAP2 POP DUP4 PUSH1 0x20 DUP3 DUP6 ADD ADD GT ISZERO PUSH2 0x2550 JUMPI PUSH1 0x0 DUP1 REVERT JUMPDEST SWAP3 POP SWAP3 SWAP1 POP JUMP JUMPDEST PUSH1 0x0 DUP1 PUSH1 0x20 DUP4 DUP6 SUB SLT ISZERO PUSH2 0x256A JUMPI PUSH1 0x0 DUP1 REVERT JUMPDEST DUP3 CALLDATALOAD PUSH1 0x1 PUSH1 0x1 PUSH1 0x40 SHL SUB DUP2 GT ISZERO PUSH2 0x2580 JUMPI PUSH1 0x0 DUP1 REVERT JUMPDEST PUSH2 0x258C DUP6 DUP3 DUP7 ADD PUSH2 0x250F JUMP JUMPDEST SWAP1 SWAP7 SWAP1 SWAP6 POP SWAP4 POP POP POP POP JUMP JUMPDEST PUSH1 0x0 JUMPDEST DUP4 DUP2 LT ISZERO PUSH2 0x25B3 JUMPI DUP2 DUP2 ADD MLOAD DUP4 DUP3 ADD MSTORE PUSH1 0x20 ADD PUSH2 0x259B JUMP JUMPDEST DUP4 DUP2 GT ISZERO PUSH2 0x675 JUMPI POP POP PUSH1 0x0 SWAP2 ADD MSTORE JUMP JUMPDEST PUSH1 0x0 DUP2 MLOAD DUP1 DUP5 MSTORE PUSH2 0x25DC DUP2 PUSH1 0x20 DUP7 ADD PUSH1 0x20 DUP7 ADD PUSH2 0x2598 JUMP JUMPDEST PUSH1 0x1F ADD PUSH1 0x1F NOT AND SWAP3 SWAP1 SWAP3 ADD PUSH1 0x20 ADD SWAP3 SWAP2 POP POP JUMP JUMPDEST PUSH1 0x0 PUSH1 0x20 DUP1 DUP4 ADD DUP2 DUP5 MSTORE DUP1 DUP6 MLOAD DUP1 DUP4 MSTORE PUSH1 0x40 DUP7 ADD SWAP2 POP PUSH1 0x40 DUP2 PUSH1 0x5 SHL DUP8 ADD ADD SWAP3 POP DUP4 DUP8 ADD PUSH1 0x0 JUMPDEST DUP3 DUP2 LT ISZERO PUSH2 0x2645 JUMPI PUSH1 0x3F NOT DUP9 DUP7 SUB ADD DUP5 MSTORE PUSH2 0x2633 DUP6 DUP4 MLOAD PUSH2 0x25C4 JUMP JUMPDEST SWAP5 POP SWAP3 DUP6 ADD SWAP3 SWAP1 DUP6 ADD SWAP1 PUSH1 0x1 ADD PUSH2 0x2617 JUMP JUMPDEST POP SWAP3 SWAP8 SWAP7 POP POP POP POP POP POP POP JUMP JUMPDEST PUSH1 0x20 DUP2 MSTORE PUSH1 0x0 PUSH2 0x1DAE PUSH1 0x20 DUP4 ADD DUP5 PUSH2 0x25C4 JUMP JUMPDEST PUSH1 0x0 PUSH1 0x20 DUP3 DUP5 SUB SLT ISZERO PUSH2 0x2677 JUMPI PUSH1 0x0 DUP1 REVERT JUMPDEST DUP2 CALLDATALOAD PUSH1 0x1 PUSH1 0x1 PUSH1 0x40 SHL SUB DUP2 GT ISZERO PUSH2 0x268D JUMPI PUSH1 0x0 DUP1 REVERT JUMPDEST PUSH2 0xA24 DUP5 DUP3 DUP6 ADD PUSH2 0x22D5 JUMP JUMPDEST DUP3 ISZERO ISZERO DUP2 MSTORE PUSH1 0x40 PUSH1 0x20 DUP3 ADD MSTORE PUSH1 0x0 PUSH2 0x1120 PUSH1 0x40 DUP4 ADD DUP5 PUSH2 0x25C4 JUMP JUMPDEST DUP1 CALLDATALOAD PUSH1 0x2 DUP2 LT PUSH2 0x26C3 JUMPI PUSH1 0x0 DUP1 REVERT JUMPDEST SWAP2 SWAP1 POP JUMP JUMPDEST DUP1 CALLDATALOAD PUSH1 0x1 DUP2 LT PUSH2 0x26C3 JUMPI PUSH1 0x0 DUP1 REVERT JUMPDEST PUSH1 0x0 PUSH1 0x1 PUSH1 0x1 PUSH1 0x40 SHL SUB DUP1 DUP5 GT ISZERO PUSH2 0x26F1 JUMPI PUSH2 0x26F1 PUSH2 0x21FC JUMP JUMPDEST DUP4 PUSH1 0x5 SHL PUSH1 0x20 PUSH2 0x2702 DUP2 DUP4 ADD PUSH2 0x227E JUMP JUMPDEST DUP7 DUP2 MSTORE SWAP4 POP SWAP1 DUP5 ADD SWAP1 DUP1 DUP5 ADD DUP8 DUP4 GT ISZERO PUSH2 0x271B JUMPI PUSH1 0x0 DUP1 REVERT JUMPDEST DUP6 JUMPDEST DUP4 DUP2 LT ISZERO PUSH2 0x274F JUMPI DUP1 CALLDATALOAD DUP6 DUP2 GT ISZERO PUSH2 0x2735 JUMPI PUSH1 0x0 DUP1 DUP2 REVERT JUMPDEST PUSH2 0x2741 DUP11 DUP3 DUP11 ADD PUSH2 0x22D5 JUMP JUMPDEST DUP4 MSTORE POP SWAP1 DUP3 ADD SWAP1 DUP3 ADD PUSH2 0x271D JUMP JUMPDEST POP POP POP POP POP SWAP4 SWAP3 POP POP POP JUMP JUMPDEST PUSH1 0x0 DUP3 PUSH1 0x1F DUP4 ADD SLT PUSH2 0x276C JUMPI PUSH1 0x0 DUP1 REVERT JUMPDEST PUSH2 0x1DAE DUP4 DUP4 CALLDATALOAD PUSH1 0x20 DUP6 ADD PUSH2 0x26D7 JUMP JUMPDEST DUP1 CALLDATALOAD PUSH1 0x1 PUSH1 0x1 PUSH1 0x40 SHL SUB DUP2 AND DUP2 EQ PUSH2 0x26C3 JUMPI PUSH1 0x0 DUP1 REVERT JUMPDEST DUP1 CALLDATALOAD PUSH4 0xFFFFFFFF DUP2 AND DUP2 EQ PUSH2 0x26C3 JUMPI PUSH1 0x0 DUP1 REVERT JUMPDEST PUSH1 0x0 DUP1 PUSH1 0x0 DUP1 PUSH1 0x80 DUP6 DUP8 SUB SLT ISZERO PUSH2 0x27BC JUMPI PUSH1 0x0 DUP1 REVERT JUMPDEST DUP5 CALLDATALOAD PUSH1 0x1 PUSH1 0x1 PUSH1 0x40 SHL SUB DUP1 DUP3 GT ISZERO PUSH2 0x27D3 JUMPI PUSH1 0x0 DUP1 REVERT JUMPDEST SWAP1 DUP7 ADD SWAP1 PUSH1 0xC0 DUP3 DUP10 SUB SLT ISZERO PUSH2 0x27E7 JUMPI PUSH1 0x0 DUP1 REVERT JUMPDEST PUSH2 0x27EF PUSH2 0x223A JUMP JUMPDEST PUSH2 0x27F8 DUP4 PUSH2 0x26B4 JUMP JUMPDEST DUP2 MSTORE PUSH2 0x2806 PUSH1 0x20 DUP5 ADD PUSH2 0x26B4 JUMP JUMPDEST PUSH1 0x20 DUP3 ADD MSTORE PUSH2 0x2817 PUSH1 0x40 DUP5 ADD PUSH2 0x26C8 JUMP JUMPDEST PUSH1 0x40 DUP3 ADD MSTORE PUSH1 0x60 DUP4 ADD CALLDATALOAD DUP3 DUP2 GT ISZERO PUSH2 0x282E JUMPI PUSH1 0x0 DUP1 REVERT JUMPDEST PUSH2 0x283A DUP11 DUP3 DUP7 ADD PUSH2 0x22D5 JUMP JUMPDEST PUSH1 0x60 DUP4 ADD MSTORE POP PUSH1 0x80 DUP4 ADD CALLDATALOAD DUP3 DUP2 GT ISZERO PUSH2 0x2852 JUMPI PUSH1 0x0 DUP1 REVERT JUMPDEST PUSH2 0x285E DUP11 DUP3 DUP7 ADD PUSH2 0x22D5 JUMP JUMPDEST PUSH1 0x80 DUP4 ADD MSTORE POP PUSH1 0xA0 DUP4 ADD CALLDATALOAD DUP3 DUP2 GT ISZERO PUSH2 0x2876 JUMPI PUSH1 0x0 DUP1 REVERT JUMPDEST PUSH2 0x2882 DUP11 DUP3 DUP7 ADD PUSH2 0x275B JUMP JUMPDEST PUSH1 0xA0 DUP4 ADD MSTORE POP SWAP6 POP PUSH2 0x2899 SWAP2 POP POP PUSH1 0x20 DUP7 ADD PUSH2 0x277B JUMP JUMPDEST SWAP3 POP PUSH2 0x28A7 PUSH1 0x40 DUP7 ADD PUSH2 0x2792 JUMP JUMPDEST SWAP4 SWAP7 SWAP3 SWAP6 POP SWAP3 SWAP4 PUSH1 0x60 ADD CALLDATALOAD SWAP3 POP POP JUMP JUMPDEST PUSH1 0x1 PUSH1 0x1 PUSH1 0xA0 SHL SUB DUP2 AND DUP2 EQ PUSH2 0xFBE JUMPI PUSH1 0x0 DUP1 REVERT JUMPDEST PUSH1 0x0 PUSH1 0x20 DUP3 DUP5 SUB SLT ISZERO PUSH2 0x28DE JUMPI PUSH1 0x0 DUP1 REVERT JUMPDEST DUP2 CALLDATALOAD PUSH2 0x1DAE DUP2 PUSH2 0x28B7 JUMP JUMPDEST PUSH1 0x0 DUP1 PUSH1 0x0 DUP1 PUSH1 0x0 DUP1 PUSH1 0x60 DUP8 DUP10 SUB SLT ISZERO PUSH2 0x2902 JUMPI PUSH1 0x0 DUP1 REVERT JUMPDEST DUP7 CALLDATALOAD PUSH1 0x1 PUSH1 0x1 PUSH1 0x40 SHL SUB DUP1 DUP3 GT ISZERO PUSH2 0x2919 JUMPI PUSH1 0x0 DUP1 REVERT JUMPDEST PUSH2 0x2925 DUP11 DUP4 DUP12 ADD PUSH2 0x250F JUMP JUMPDEST SWAP1 SWAP9 POP SWAP7 POP PUSH1 0x20 DUP10 ADD CALLDATALOAD SWAP2 POP DUP1 DUP3 GT ISZERO PUSH2 0x293E JUMPI PUSH1 0x0 DUP1 REVERT JUMPDEST PUSH2 0x294A DUP11 DUP4 DUP12 ADD PUSH2 0x250F JUMP JUMPDEST SWAP1 SWAP7 POP SWAP5 POP PUSH1 0x40 DUP10 ADD CALLDATALOAD SWAP2 POP DUP1 DUP3 GT ISZERO PUSH2 0x2963 JUMPI PUSH1 0x0 DUP1 REVERT JUMPDEST DUP2 DUP10 ADD SWAP2 POP DUP10 PUSH1 0x1F DUP4 ADD SLT PUSH2 0x2977 JUMPI PUSH1 0x0 DUP1 REVERT JUMPDEST DUP2 CALLDATALOAD DUP2 DUP2 GT ISZERO PUSH2 0x2986 JUMPI PUSH1 0x0 DUP1 REVERT JUMPDEST DUP11 PUSH1 0x20 DUP3 PUSH1 0x5 SHL DUP6 ADD ADD GT ISZERO PUSH2 0x299B JUMPI PUSH1 0x0 DUP1 REVERT JUMPDEST PUSH1 0x20 DUP4 ADD SWAP5 POP DUP1 SWAP4 POP POP POP POP SWAP3 SWAP6 POP SWAP3 SWAP6 POP SWAP3 SWAP6 JUMP JUMPDEST DUP1 PUSH1 0x0 JUMPDEST PUSH1 0x2 DUP2 LT ISZERO PUSH2 0x675 JUMPI DUP2 MLOAD DUP5 MSTORE PUSH1 0x20 SWAP4 DUP5 ADD SWAP4 SWAP1 SWAP2 ADD SWAP1 PUSH1 0x1 ADD PUSH2 0x29B5 JUMP JUMPDEST PUSH2 0x140 DUP2 ADD PUSH2 0x29E3 DUP3 DUP8 PUSH2 0x29B1 JUMP JUMPDEST PUSH1 0x40 DUP1 DUP4 ADD DUP7 PUSH1 0x0 JUMPDEST PUSH1 0x2 DUP2 LT ISZERO PUSH2 0x2A13 JUMPI PUSH2 0x2A00 DUP4 DUP4 MLOAD PUSH2 0x29B1 JUMP JUMPDEST SWAP2 DUP4 ADD SWAP2 PUSH1 0x20 SWAP2 SWAP1 SWAP2 ADD SWAP1 PUSH1 0x1 ADD PUSH2 0x29EC JUMP JUMPDEST POP POP POP POP PUSH2 0x2A24 PUSH1 0xC0 DUP4 ADD DUP6 PUSH2 0x29B1 JUMP JUMPDEST PUSH2 0x2A32 PUSH2 0x100 DUP4 ADD DUP5 PUSH2 0x29B1 JUMP JUMPDEST SWAP6 SWAP5 POP POP POP POP POP JUMP JUMPDEST PUSH1 0x0 PUSH1 0x20 DUP3 DUP5 SUB SLT ISZERO PUSH2 0x2A4D JUMPI PUSH1 0x0 DUP1 REVERT JUMPDEST DUP2 MLOAD DUP1 ISZERO ISZERO DUP2 EQ PUSH2 0x1DAE JUMPI PUSH1 0x0 DUP1 REVERT JUMPDEST PUSH1 0x40 DUP2 MSTORE PUSH1 0x0 PUSH2 0x2A70 PUSH1 0x40 DUP4 ADD DUP6 PUSH2 0x25C4 JUMP JUMPDEST SWAP1 POP DUP3 PUSH1 0x20 DUP4 ADD MSTORE SWAP4 SWAP3 POP POP POP JUMP JUMPDEST PUSH1 0x40 DUP2 ADD DUP2 DUP4 PUSH1 0x0 JUMPDEST PUSH1 0x2 DUP2 LT ISZERO PUSH2 0x2AA7 JUMPI DUP2 MLOAD DUP4 MSTORE PUSH1 0x20 SWAP3 DUP4 ADD SWAP3 SWAP1 SWAP2 ADD SWAP1 PUSH1 0x1 ADD PUSH2 0x2A88 JUMP JUMPDEST POP POP POP SWAP3 SWAP2 POP POP JUMP JUMPDEST PUSH1 0x0 PUSH1 0x20 DUP3 DUP5 SUB SLT ISZERO PUSH2 0x2AC2 JUMPI PUSH1 0x0 DUP1 REVERT JUMPDEST POP MLOAD SWAP2 SWAP1 POP JUMP JUMPDEST PUSH4 0x4E487B71 PUSH1 0xE0 SHL PUSH1 0x0 MSTORE PUSH1 0x11 PUSH1 0x4 MSTORE PUSH1 0x24 PUSH1 0x0 REVERT JUMPDEST PUSH1 0x0 DUP3 NOT DUP3 GT ISZERO PUSH2 0x2AF2 JUMPI PUSH2 0x2AF2 PUSH2 0x2AC9 JUMP JUMPDEST POP ADD SWAP1 JUMP JUMPDEST PUSH1 0x1 DUP2 DUP2 SHR SWAP1 DUP3 AND DUP1 PUSH2 0x2B0B JUMPI PUSH1 0x7F DUP3 AND SWAP2 POP JUMPDEST PUSH1 0x20 DUP3 LT DUP2 EQ ISZERO PUSH2 0x2020 JUMPI PUSH4 0x4E487B71 PUSH1 0xE0 SHL PUSH1 0x0 MSTORE PUSH1 0x22 PUSH1 0x4 MSTORE PUSH1 0x24 PUSH1 0x0 REVERT JUMPDEST PUSH1 0x1 PUSH1 0x1 PUSH1 0x40 SHL SUB DUP5 AND DUP2 MSTORE PUSH1 0x0 PUSH1 0x20 PUSH1 0x60 DUP2 DUP5 ADD MSTORE PUSH1 0x0 DUP6 SLOAD DUP2 PUSH1 0x1 DUP3 DUP2 SHR SWAP2 POP DUP1 DUP4 AND DUP1 PUSH2 0x2B5D JUMPI PUSH1 0x7F DUP4 AND SWAP3 POP JUMPDEST DUP6 DUP4 LT DUP2 EQ ISZERO PUSH2 0x2B7B JUMPI PUSH4 0x4E487B71 PUSH1 0xE0 SHL DUP6 MSTORE PUSH1 0x22 PUSH1 0x4 MSTORE PUSH1 0x24 DUP6 REVERT JUMPDEST PUSH1 0x60 DUP9 ADD DUP4 SWAP1 MSTORE PUSH1 0x80 DUP9 ADD DUP2 DUP1 ISZERO PUSH2 0x2B9A JUMPI PUSH1 0x1 DUP2 EQ PUSH2 0x2BAB JUMPI PUSH2 0x2BD6 JUMP JUMPDEST PUSH1 0xFF NOT DUP7 AND DUP3 MSTORE DUP8 DUP3 ADD SWAP7 POP PUSH2 0x2BD6 JUMP JUMPDEST PUSH1 0x0 DUP13 DUP2 MSTORE PUSH1 0x20 SWAP1 KECCAK256 PUSH1 0x0 JUMPDEST DUP7 DUP2 LT ISZERO PUSH2 0x2BD0 JUMPI DUP2 SLOAD DUP5 DUP3 ADD MSTORE SWAP1 DUP6 ADD SWAP1 DUP10 ADD PUSH2 0x2BB7 JUMP JUMPDEST DUP4 ADD SWAP8 POP POP JUMPDEST POP POP POP PUSH4 0xFFFFFFFF DUP9 AND PUSH1 0x40 DUP9 ADD MSTORE POP SWAP2 SWAP4 POP PUSH2 0x1120 SWAP3 POP POP POP JUMP JUMPDEST PUSH1 0x0 PUSH1 0x20 DUP3 DUP5 SUB SLT ISZERO PUSH2 0x2C04 JUMPI PUSH1 0x0 DUP1 REVERT JUMPDEST DUP2 MLOAD PUSH2 0x1DAE DUP2 PUSH2 0x28B7 JUMP JUMPDEST PUSH4 0x4E487B71 PUSH1 0xE0 SHL PUSH1 0x0 MSTORE PUSH1 0x32 PUSH1 0x4 MSTORE PUSH1 0x24 PUSH1 0x0 REVERT JUMPDEST PUSH1 0x0 PUSH4 0xFFFFFFFF DUP3 AND DUP1 PUSH2 0x2C3B JUMPI PUSH2 0x2C3B PUSH2 0x2AC9 JUMP JUMPDEST PUSH1 0x0 NOT ADD SWAP3 SWAP2 POP POP JUMP JUMPDEST PUSH1 0x0 DUP3 DUP3 LT ISZERO PUSH2 0x2C57 JUMPI PUSH2 0x2C57 PUSH2 0x2AC9 JUMP JUMPDEST POP SUB SWAP1 JUMP JUMPDEST PUSH1 0x0 PUSH1 0x20 DUP3 DUP5 SUB SLT ISZERO PUSH2 0x2C6E JUMPI PUSH1 0x0 DUP1 REVERT JUMPDEST DUP2 MLOAD PUSH1 0x1 PUSH1 0x1 PUSH1 0x40 SHL SUB DUP2 GT ISZERO PUSH2 0x2C84 JUMPI PUSH1 0x0 DUP1 REVERT JUMPDEST DUP3 ADD PUSH1 0x1F DUP2 ADD DUP5 SGT PUSH2 0x2C95 JUMPI PUSH1 0x0 DUP1 REVERT JUMPDEST DUP1 MLOAD PUSH2 0x2CA3 PUSH2 0x22F4 DUP3 PUSH2 0x22AE JUMP JUMPDEST DUP2 DUP2 MSTORE DUP6 PUSH1 0x20 DUP4 DUP6 ADD ADD GT ISZERO PUSH2 0x2CB8 JUMPI PUSH1 0x0 DUP1 REVERT JUMPDEST PUSH2 0x2A32 DUP3 PUSH1 0x20 DUP4 ADD PUSH1 0x20 DUP7 ADD PUSH2 0x2598 JUMP JUMPDEST PUSH1 0x1 PUSH1 0x1 PUSH1 0x40 SHL SUB DUP6 AND DUP2 MSTORE PUSH1 0x80 PUSH1 0x20 DUP3 ADD MSTORE PUSH1 0x0 PUSH2 0x2CEB PUSH1 0x80 DUP4 ADD DUP7 PUSH2 0x25C4 JUMP JUMPDEST PUSH4 0xFFFFFFFF SWAP5 SWAP1 SWAP5 AND PUSH1 0x40 DUP4 ADD MSTORE POP PUSH1 0x60 ADD MSTORE SWAP3 SWAP2 POP POP JUMP JUMPDEST PUSH1 0x0 PUSH1 0x20 DUP3 DUP5 SUB SLT ISZERO PUSH2 0x2D16 JUMPI PUSH1 0x0 DUP1 REVERT JUMPDEST DUP2 MLOAD PUSH12 0xFFFFFFFFFFFFFFFFFFFFFFFF DUP2 AND DUP2 EQ PUSH2 0x1DAE JUMPI PUSH1 0x0 DUP1 REVERT JUMPDEST PUSH1 0x0 PUSH2 0x1DAE CALLDATASIZE DUP5 DUP5 PUSH2 0x26D7 JUMP JUMPDEST PUSH1 0x40 DUP2 MSTORE PUSH1 0x0 PUSH2 0x2D52 PUSH1 0x40 DUP4 ADD DUP6 PUSH2 0x25C4 JUMP JUMPDEST DUP3 DUP2 SUB PUSH1 0x20 DUP5 ADD MSTORE PUSH2 0x2A32 DUP2 DUP6 PUSH2 0x25C4 JUMP JUMPDEST PUSH1 0x1 DUP2 DUP2 JUMPDEST DUP1 DUP6 GT ISZERO PUSH2 0x2D9F JUMPI DUP2 PUSH1 0x0 NOT DIV DUP3 GT ISZERO PUSH2 0x2D85 JUMPI PUSH2 0x2D85 PUSH2 0x2AC9 JUMP JUMPDEST DUP1 DUP6 AND ISZERO PUSH2 0x2D92 JUMPI SWAP2 DUP2 MUL SWAP2 JUMPDEST SWAP4 DUP5 SHR SWAP4 SWAP1 DUP1 MUL SWAP1 PUSH2 0x2D69 JUMP JUMPDEST POP SWAP3 POP SWAP3 SWAP1 POP JUMP JUMPDEST PUSH1 0x0 DUP3 PUSH2 0x2DB6 JUMPI POP PUSH1 0x1 PUSH2 0xA28 JUMP JUMPDEST DUP2 PUSH2 0x2DC3 JUMPI POP PUSH1 0x0 PUSH2 0xA28 JUMP JUMPDEST DUP2 PUSH1 0x1 DUP2 EQ PUSH2 0x2DD9 JUMPI PUSH1 0x2 DUP2 EQ PUSH2 0x2DE3 JUMPI PUSH2 0x2DFF JUMP JUMPDEST PUSH1 0x1 SWAP2 POP POP PUSH2 0xA28 JUMP JUMPDEST PUSH1 0xFF DUP5 GT ISZERO PUSH2 0x2DF4 JUMPI PUSH2 0x2DF4 PUSH2 0x2AC9 JUMP JUMPDEST POP POP PUSH1 0x1 DUP3 SHL PUSH2 0xA28 JUMP JUMPDEST POP PUSH1 0x20 DUP4 LT PUSH2 0x133 DUP4 LT AND PUSH1 0x4E DUP5 LT PUSH1 0xB DUP5 LT AND OR ISZERO PUSH2 0x2E22 JUMPI POP DUP2 DUP2 EXP PUSH2 0xA28 JUMP JUMPDEST PUSH2 0x2E2C DUP4 DUP4 PUSH2 0x2D64 JUMP JUMPDEST DUP1 PUSH1 0x0 NOT DIV DUP3 GT ISZERO PUSH2 0x2E40 JUMPI PUSH2 0x2E40 PUSH2 0x2AC9 JUMP JUMPDEST MUL SWAP4 SWAP3 POP POP POP JUMP JUMPDEST PUSH1 0x0 PUSH2 0x1DAE PUSH4 0xFFFFFFFF DUP5 AND DUP4 PUSH2 0x2DA7 JUMP JUMPDEST PUSH1 0x0 PUSH4 0xFFFFFFFF DUP1 DUP4 AND DUP2 DUP6 AND DUP1 DUP4 SUB DUP3 GT ISZERO PUSH2 0x2E79 JUMPI PUSH2 0x2E79 PUSH2 0x2AC9 JUMP JUMPDEST ADD SWAP5 SWAP4 POP POP POP POP JUMP JUMPDEST PUSH4 0x4E487B71 PUSH1 0xE0 SHL PUSH1 0x0 MSTORE PUSH1 0x12 PUSH1 0x4 MSTORE PUSH1 0x24 PUSH1 0x0 REVERT JUMPDEST PUSH1 0x0 PUSH4 0xFFFFFFFF DUP1 DUP5 AND DUP1 PUSH2 0x2EAF JUMPI PUSH2 0x2EAF PUSH2 0x2E82 JUMP JUMPDEST SWAP3 AND SWAP2 SWAP1 SWAP2 MOD SWAP3 SWAP2 POP POP JUMP JUMPDEST PUSH1 0x0 PUSH4 0xFFFFFFFF DUP1 DUP5 AND DUP1 PUSH2 0x2ED2 JUMPI PUSH2 0x2ED2 PUSH2 0x2E82 JUMP JUMPDEST SWAP3 AND SWAP2 SWAP1 SWAP2 DIV SWAP3 SWAP2 POP POP JUMP JUMPDEST PUSH1 0x0 PUSH4 0xFFFFFFFF DUP1 DUP4 AND DUP2 DUP2 EQ ISZERO PUSH2 0x2EF8 JUMPI PUSH2 0x2EF8 PUSH2 0x2AC9 JUMP JUMPDEST PUSH1 0x1 ADD SWAP4 SWAP3 POP POP POP JUMP JUMPDEST PUSH1 0x0 PUSH4 0xFFFFFFFF DUP4 DUP2 AND SWAP1 DUP4 AND DUP2 DUP2 LT ISZERO PUSH2 0x2F1F JUMPI PUSH2 0x2F1F PUSH2 0x2AC9 JUMP JUMPDEST SUB SWAP4 SWAP3 POP POP POP JUMP JUMPDEST PUSH4 0x4E487B71 PUSH1 0xE0 SHL PUSH1 0x0 MSTORE PUSH1 0x21 PUSH1 0x4 MSTORE PUSH1 0x24 PUSH1 0x0 REVERT JUMPDEST PUSH1 0x0 PUSH1 0x0 NOT DUP3 EQ ISZERO PUSH2 0x2F51 JUMPI PUSH2 0x2F51 PUSH2 0x2AC9 JUMP JUMPDEST POP PUSH1 0x1 ADD SWAP1 JUMP JUMPDEST PUSH1 0x0 DUP3 PUSH2 0x2F67 JUMPI PUSH2 0x2F67 PUSH2 0x2E82 JUMP JUMPDEST POP MOD SWAP1 JUMP JUMPDEST PUSH1 0x0 DUP2 PUSH1 0x0 NOT DIV DUP4 GT DUP3 ISZERO ISZERO AND ISZERO PUSH2 0x2F86 JUMPI PUSH2 0x2F86 PUSH2 0x2AC9 JUMP JUMPDEST POP MUL SWAP1 JUMP JUMPDEST PUSH1 0x0 PUSH2 0x1DAE DUP4 DUP4 PUSH2 0x2DA7 JUMP INVALID LOG2 PUSH5 0x6970667358 0x22 SLT KECCAK256 JUMPDEST 0x5D 0x23 CALLDATACOPY SWAP1 PUSH18 0x45E1C4E566B6A4BD53AC5B13F740C8288D4B EXTCODESIZE PUSH18 0x9D730EB4BB0964736F6C6343000809003303 PUSH12 0x6384B5ECA791C62761152D0C PUSH26 0xBB0604C104A5FB6F4EB0703F3154BB3DB0F652222313E2845952 DUP14 SWAP3 SIGNEXTEND PUSH6 0x115C16C04F3E 0xFC DUP3 0xAA 0xED 0xC9 PUSH28 0xE59F3F377C0D3F000000000000000000000000000000000000000000 "},"methodIdentifiers":{"FIELD_SIZE()":"414a37ba","ROOT_HISTORY_SIZE()":"cd87a3b4","ZERO_VALUE()":"ec732959","acceptOwnership()":"79ba5097","checkUpkeep(bytes)":"6e04ff0d","clearMessages()":"df65850a","commitments(bytes32)":"839df945","currentRootIndex()":"90eeb02b","estimateCost((uint8,uint8,uint8,string,bytes,string[]),uint64,uint32,uint256)":"d4b39175","filledSubtrees(uint256)":"f178e47c","fulfillGasLimit()":"24b93e3e","generateRequest(string,bytes,string[])":"fe083012","getDONPublicKey()":"d328a91e","getLastRoot()":"ba70f757","getMessages()":"5ff6cbf3","handleOracleFulfillment(bytes32,bytes,bytes)":"0ca76175","hashLeftRight(bytes32,bytes32)":"38bf282e","hasher()":"ed33639f","insertIntoTree(bytes32)":"8d82496e","isKnownRoot(bytes32)":"6d9833e3","isNullifierUsed(bytes32)":"22dc7b4c","lastUpkeepTimeStamp()":"089ea02e","latestError()":"fffeb84e","latestRequestId()":"1aa46f59","latestResponse()":"bef3a2f0","levels()":"4ecf518b","nextIndex()":"fc7e9c6f","nullifiers(bytes32)":"2997e86b","owner()":"8da5cb5b","performUpkeep(bytes)":"4585e33b","postMessageWithProof(string,bytes32,bytes32,(uint256[2],uint256[2][2],uint256[2]))":"218fc350","requestCBOR()":"688ecfd1","responseCounter()":"381fc4b5","roots(uint256)":"c2b40ae4","subscriptionId()":"09c1ba2e","subscriptionManager()":"bf158fd2","transferOwnership(address)":"f2fde38b","updateInterval()":"fd2c80ae","upkeepCounter()":"a3d3c0d2","verifier()":"2b7ac3f3","zeros(uint256)":"e8295588"}}}}}