{"contracts/Verifier.sol":{"Verifier":{"abi":[{"inputs":[{"internalType":"uint256[2]","name":"a","type":"uint256[2]"},{"internalType":"uint256[2][2]","name":"b","type":"uint256[2][2]"},{"internalType":"uint256[2]","name":"c","type":"uint256[2]"},{"internalType":"uint256[2]","name":"input","type":"uint256[2]"}],"name":"verifyProof","outputs":[{"internalType":"bool","name":"r","type":"bool"}],"stateMutability":"view","type":"function"}],"evm":{"bytecode":{"linkReferences":{},"object":"608060405234801561001057600080fd5b50611192806100206000396000f3fe608060405234801561001057600080fd5b506004361061002b5760003560e01c8063f5c9d69e14610030575b600080fd5b61004361003e366004611005565b610057565b604051901515815260200160405180910390f35b6000610061610e2e565b60408051808201825287518152602080890151818301529083528151608081018352875151818401908152885183015160608084019190915290825283518085018552898401805151825251840151818501528284015284830191909152825180840184528751815287830151818401528484015282516002808252918101845260009390928301908036833701905050905060005b600281101561014657848160028110610112576101126110a5565b6020020151828281518110610129576101296110a5565b60209081029190910101528061013e816110d1565b9150506100f7565b50610151818361016f565b61016057600192505050610167565b6000925050505b949350505050565b60007f30644e72e131a029b85045b68181585d2833e84879b9709143e1f593f00000018161019b610366565b9050806080015151855160016101b191906110ec565b146101f85760405162461bcd60e51b81526020600482015260126024820152711d995c9a599a595c8b5898590b5a5b9c1d5d60721b60448201526064015b60405180910390fd5b604080518082019091526000808252602082018190525b86518110156102e9578387828151811061022b5761022b6110a5565b6020026020010151106102805760405162461bcd60e51b815260206004820152601f60248201527f76657269666965722d6774652d736e61726b2d7363616c61722d6669656c640060448201526064016101ef565b6102d5826102d0856080015184600161029991906110ec565b815181106102a9576102a96110a5565b60200260200101518a85815181106102c3576102c36110a5565b6020026020010151610779565b610815565b9150806102e1816110d1565b91505061020f565b50610312818360800151600081518110610305576103056110a5565b6020026020010151610815565b905061034861032486600001516108ad565b8660200151846000015185602001518587604001518b60400151896060015161094c565b6103585760019350505050610360565b600093505050505b92915050565b61036e610e7f565b6040805180820182527f235e824ccf89445b0aefb6a19a07c9091fd221c5956411acac805e176d40709c81527f157e0b85c6e80729978aa9ea73a4ee077998ebfd80bf2212e64294a51994ae416020808301919091529083528151608080820184527f0ebcf87d421c3fed10564fbe6394da951e2798fb4bf447bf85c4767fa697969a8285019081527f09ff83e5d68a4f61e1030ec43a311bf3ca526258dd1d7551f5c764e37df891b6606080850191909152908352845180860186527f165c6cb201a7871735a1074b0d7d02a841407bb9379e83f39161634c1e705c5781527f1ed540fad5668a1c64673df127475cd07946d458bf1c309c36bca8d05ceaa408818601528385015285840192909252835180820185527f198e9393920d483a7260bfb731fb5d25f1aa493335a9e71297e485b7aef312c28186019081527f1800deef121f1e76426a00665e5c4479674322d4f75edadd46debd5cd992f6ed828501528152845180860186527f090689d0585ff075ec9e99ad690c3395bc4b313370b38ef355acdadcd122975b81527f12c85ea5db8c6deb4aab71808dcb408fe3d1e7690c43d37b4ce6cc0166fa7daa818601528185015285850152835180820185527f123501bb66389215afdb4d0e7758d6e7a83aca47f75f55b86ca1c0c957e0840d8186019081527f1a2a663dbf3a3a2522ba33f75a4101d4d0ff83541007067314302a786f4b0afd828501528152845180860186527f29272f895e07cd14dbf57a6e21fdcf316f3aa86ac12e1960c571dc35b783533d81527f296c8b3d192c94f8ceea293e9d4798fe75ce3c4fc6fee0f002d14346b7dfb5bb818601528185015291850191909152825160038082529181019093529082015b60408051808201909152600080825260208201528152602001906001900390816105ea57505060808201908152604080518082019091527f2b2168286a60719db6779123917b4bc7485f9489cf7f7ddfecd45c8e4d5fa09681527f1ae39a5f4bbf921c779968679de9d0925043e45feb42c2ac19e0a6e359cefd9a60208201529051805160009061067d5761067d6110a5565b602002602001018190525060405180604001604052807f2fd4c0874e6e123d2efa02616e541991495843da07667186cbba451bb192cf2e81526020017f294dc40a37d9820e2537f13ca3717147632be4ce500e9f09d336a70214f0193781525081608001516001815181106106f4576106f46110a5565b602002602001018190525060405180604001604052807f0c4bea01e57c61715f6d1a1d0c33c42c23528896baabe33947cf4e64600b71bf81526020017f1a027b95f3037d083ac8d253684e2b24cacca79c0fe3ab7ab49104a5203c2198815250816080015160028151811061076b5761076b6110a5565b602002602001018190525090565b6040805180820190915260008082526020820152610795610ed0565b835181526020808501519082015260408101839052600060608360808460076107d05a03fa90508080156107c8576107ca565bfe5b508061080d5760405162461bcd60e51b81526020600482015260126024820152711c185a5c9a5b99cb5b5d5b0b59985a5b195960721b60448201526064016101ef565b505092915050565b6040805180820190915260008082526020820152610831610eee565b8351815260208085015181830152835160408301528301516060808301919091526000908360c08460066107d05a03fa90508080156107c857508061080d5760405162461bcd60e51b81526020600482015260126024820152711c185a5c9a5b99cb5859190b59985a5b195960721b60448201526064016101ef565b604080518082019091526000808252602082015281517f30644e72e131a029b85045b68181585d97816a916871ca8d3c208c16d87cfd47901580156108f457506020830151155b156109145750506040805180820190915260008082526020820152919050565b6040518060400160405280846000015181526020018285602001516109399190611104565b6109439084611126565b90529392505050565b60408051600480825260a08201909252600091829190816020015b604080518082019091526000808252602082015281526020019060019003908161096757505060408051600480825260a0820190925291925060009190602082015b6109b1610f0c565b8152602001906001900390816109a95790505090508a826000815181106109da576109da6110a5565b602002602001018190525088826001815181106109f9576109f96110a5565b60200260200101819052508682600281518110610a1857610a186110a5565b60200260200101819052508482600381518110610a3757610a376110a5565b60200260200101819052508981600081518110610a5657610a566110a5565b60200260200101819052508781600181518110610a7557610a756110a5565b60200260200101819052508581600281518110610a9457610a946110a5565b60200260200101819052508381600381518110610ab357610ab36110a5565b6020026020010181905250610ac88282610ad7565b9b9a5050505050505050505050565b60008151835114610b235760405162461bcd60e51b81526020600482015260166024820152751c185a5c9a5b99cb5b195b99dd1a1ccb59985a5b195960521b60448201526064016101ef565b82516000610b3282600661113d565b905060008167ffffffffffffffff811115610b4f57610b4f610f68565b604051908082528060200260200182016040528015610b78578160200160208202803683370190505b50905060005b83811015610db357868181518110610b9857610b986110a5565b60200260200101516000015182826006610bb2919061113d565b610bbd9060006110ec565b81518110610bcd57610bcd6110a5565b602002602001018181525050868181518110610beb57610beb6110a5565b60200260200101516020015182826006610c05919061113d565b610c109060016110ec565b81518110610c2057610c206110a5565b602002602001018181525050858181518110610c3e57610c3e6110a5565b6020908102919091010151515182610c5783600661113d565b610c629060026110ec565b81518110610c7257610c726110a5565b602002602001018181525050858181518110610c9057610c906110a5565b60209081029190910181015151015182610cab83600661113d565b610cb69060036110ec565b81518110610cc657610cc66110a5565b602002602001018181525050858181518110610ce457610ce46110a5565b602002602001015160200151600060028110610d0257610d026110a5565b602002015182610d1383600661113d565b610d1e9060046110ec565b81518110610d2e57610d2e6110a5565b602002602001018181525050858181518110610d4c57610d4c6110a5565b602002602001015160200151600160028110610d6a57610d6a6110a5565b602002015182610d7b83600661113d565b610d869060056110ec565b81518110610d9657610d966110a5565b602090810291909101015280610dab816110d1565b915050610b7e565b50610dbc610f2c565b6000602082602086026020860160086107d05a03fa90508080156107c8575080610e205760405162461bcd60e51b81526020600482015260156024820152741c185a5c9a5b99cb5bdc18dbd9194b59985a5b1959605a1b60448201526064016101ef565b505115159695505050505050565b6040805160a081019091526000606082018181526080830191909152815260208101610e58610f0c565b8152602001610e7a604051806040016040528060008152602001600081525090565b905290565b6040805160e08101909152600060a0820181815260c0830191909152815260208101610ea9610f0c565b8152602001610eb6610f0c565b8152602001610ec3610f0c565b8152602001606081525090565b60405180606001604052806003906020820280368337509192915050565b60405180608001604052806004906020820280368337509192915050565b6040518060400160405280610f1f610f4a565b8152602001610e7a610f4a565b60405180602001604052806001906020820280368337509192915050565b60405180604001604052806002906020820280368337509192915050565b634e487b7160e01b600052604160045260246000fd5b6040805190810167ffffffffffffffff81118282101715610faf57634e487b7160e01b600052604160045260246000fd5b60405290565b600082601f830112610fc657600080fd5b610fce610f7e565b806040840185811115610fe057600080fd5b845b81811015610ffa578035845260209384019301610fe2565b509095945050505050565b600080600080610140858703121561101c57600080fd5b6110268686610fb5565b9350604086605f87011261103957600080fd5b611041610f7e565b8060c088018981111561105357600080fd5b8389015b81811015611078576110698b82610fb5565b84526020909301928401611057565b508196506110868a82610fb5565b95505050505061109a866101008701610fb5565b905092959194509250565b634e487b7160e01b600052603260045260246000fd5b634e487b7160e01b600052601160045260246000fd5b60006000198214156110e5576110e56110bb565b5060010190565b600082198211156110ff576110ff6110bb565b500190565b60008261112157634e487b7160e01b600052601260045260246000fd5b500690565b600082821015611138576111386110bb565b500390565b6000816000190483118215151615611157576111576110bb565b50029056fea26469706673582212202e822ea14b8aaf35400e89717aba1e9f9848a225052494219f2225eb29467daf64736f6c63430008090033","opcodes":"PUSH1 0x80 PUSH1 0x40 MSTORE CALLVALUE DUP1 ISZERO PUSH2 0x10 JUMPI PUSH1 0x0 DUP1 REVERT JUMPDEST POP PUSH2 0x1192 DUP1 PUSH2 0x20 PUSH1 0x0 CODECOPY PUSH1 0x0 RETURN INVALID PUSH1 0x80 PUSH1 0x40 MSTORE CALLVALUE DUP1 ISZERO PUSH2 0x10 JUMPI PUSH1 0x0 DUP1 REVERT JUMPDEST POP PUSH1 0x4 CALLDATASIZE LT PUSH2 0x2B JUMPI PUSH1 0x0 CALLDATALOAD PUSH1 0xE0 SHR DUP1 PUSH4 0xF5C9D69E EQ PUSH2 0x30 JUMPI JUMPDEST PUSH1 0x0 DUP1 REVERT JUMPDEST PUSH2 0x43 PUSH2 0x3E CALLDATASIZE PUSH1 0x4 PUSH2 0x1005 JUMP JUMPDEST PUSH2 0x57 JUMP JUMPDEST PUSH1 0x40 MLOAD SWAP1 ISZERO ISZERO DUP2 MSTORE PUSH1 0x20 ADD PUSH1 0x40 MLOAD DUP1 SWAP2 SUB SWAP1 RETURN JUMPDEST PUSH1 0x0 PUSH2 0x61 PUSH2 0xE2E JUMP JUMPDEST PUSH1 0x40 DUP1 MLOAD DUP1 DUP3 ADD DUP3 MSTORE DUP8 MLOAD DUP2 MSTORE PUSH1 0x20 DUP1 DUP10 ADD MLOAD DUP2 DUP4 ADD MSTORE SWAP1 DUP4 MSTORE DUP2 MLOAD PUSH1 0x80 DUP2 ADD DUP4 MSTORE DUP8 MLOAD MLOAD DUP2 DUP5 ADD SWAP1 DUP2 MSTORE DUP9 MLOAD DUP4 ADD MLOAD PUSH1 0x60 DUP1 DUP5 ADD SWAP2 SWAP1 SWAP2 MSTORE SWAP1 DUP3 MSTORE DUP4 MLOAD DUP1 DUP6 ADD DUP6 MSTORE DUP10 DUP5 ADD DUP1 MLOAD MLOAD DUP3 MSTORE MLOAD DUP5 ADD MLOAD DUP2 DUP6 ADD MSTORE DUP3 DUP5 ADD MSTORE DUP5 DUP4 ADD SWAP2 SWAP1 SWAP2 MSTORE DUP3 MLOAD DUP1 DUP5 ADD DUP5 MSTORE DUP8 MLOAD DUP2 MSTORE DUP8 DUP4 ADD MLOAD DUP2 DUP5 ADD MSTORE DUP5 DUP5 ADD MSTORE DUP3 MLOAD PUSH1 0x2 DUP1 DUP3 MSTORE SWAP2 DUP2 ADD DUP5 MSTORE PUSH1 0x0 SWAP4 SWAP1 SWAP3 DUP4 ADD SWAP1 DUP1 CALLDATASIZE DUP4 CALLDATACOPY ADD SWAP1 POP POP SWAP1 POP PUSH1 0x0 JUMPDEST PUSH1 0x2 DUP2 LT ISZERO PUSH2 0x146 JUMPI DUP5 DUP2 PUSH1 0x2 DUP2 LT PUSH2 0x112 JUMPI PUSH2 0x112 PUSH2 0x10A5 JUMP JUMPDEST PUSH1 0x20 MUL ADD MLOAD DUP3 DUP3 DUP2 MLOAD DUP2 LT PUSH2 0x129 JUMPI PUSH2 0x129 PUSH2 0x10A5 JUMP JUMPDEST PUSH1 0x20 SWAP1 DUP2 MUL SWAP2 SWAP1 SWAP2 ADD ADD MSTORE DUP1 PUSH2 0x13E DUP2 PUSH2 0x10D1 JUMP JUMPDEST SWAP2 POP POP PUSH2 0xF7 JUMP JUMPDEST POP PUSH2 0x151 DUP2 DUP4 PUSH2 0x16F JUMP JUMPDEST PUSH2 0x160 JUMPI PUSH1 0x1 SWAP3 POP POP POP PUSH2 0x167 JUMP JUMPDEST PUSH1 0x0 SWAP3 POP POP POP JUMPDEST SWAP5 SWAP4 POP POP POP POP JUMP JUMPDEST PUSH1 0x0 PUSH32 0x30644E72E131A029B85045B68181585D2833E84879B9709143E1F593F0000001 DUP2 PUSH2 0x19B PUSH2 0x366 JUMP JUMPDEST SWAP1 POP DUP1 PUSH1 0x80 ADD MLOAD MLOAD DUP6 MLOAD PUSH1 0x1 PUSH2 0x1B1 SWAP2 SWAP1 PUSH2 0x10EC JUMP JUMPDEST EQ PUSH2 0x1F8 JUMPI PUSH1 0x40 MLOAD PUSH3 0x461BCD PUSH1 0xE5 SHL DUP2 MSTORE PUSH1 0x20 PUSH1 0x4 DUP3 ADD MSTORE PUSH1 0x12 PUSH1 0x24 DUP3 ADD MSTORE PUSH18 0x1D995C9A599A595C8B5898590B5A5B9C1D5D PUSH1 0x72 SHL PUSH1 0x44 DUP3 ADD MSTORE PUSH1 0x64 ADD JUMPDEST PUSH1 0x40 MLOAD DUP1 SWAP2 SUB SWAP1 REVERT JUMPDEST PUSH1 0x40 DUP1 MLOAD DUP1 DUP3 ADD SWAP1 SWAP2 MSTORE PUSH1 0x0 DUP1 DUP3 MSTORE PUSH1 0x20 DUP3 ADD DUP2 SWAP1 MSTORE JUMPDEST DUP7 MLOAD DUP2 LT ISZERO PUSH2 0x2E9 JUMPI DUP4 DUP8 DUP3 DUP2 MLOAD DUP2 LT PUSH2 0x22B JUMPI PUSH2 0x22B PUSH2 0x10A5 JUMP JUMPDEST PUSH1 0x20 MUL PUSH1 0x20 ADD ADD MLOAD LT PUSH2 0x280 JUMPI PUSH1 0x40 MLOAD PUSH3 0x461BCD PUSH1 0xE5 SHL DUP2 MSTORE PUSH1 0x20 PUSH1 0x4 DUP3 ADD MSTORE PUSH1 0x1F PUSH1 0x24 DUP3 ADD MSTORE PUSH32 0x76657269666965722D6774652D736E61726B2D7363616C61722D6669656C6400 PUSH1 0x44 DUP3 ADD MSTORE PUSH1 0x64 ADD PUSH2 0x1EF JUMP JUMPDEST PUSH2 0x2D5 DUP3 PUSH2 0x2D0 DUP6 PUSH1 0x80 ADD MLOAD DUP5 PUSH1 0x1 PUSH2 0x299 SWAP2 SWAP1 PUSH2 0x10EC JUMP JUMPDEST DUP2 MLOAD DUP2 LT PUSH2 0x2A9 JUMPI PUSH2 0x2A9 PUSH2 0x10A5 JUMP JUMPDEST PUSH1 0x20 MUL PUSH1 0x20 ADD ADD MLOAD DUP11 DUP6 DUP2 MLOAD DUP2 LT PUSH2 0x2C3 JUMPI PUSH2 0x2C3 PUSH2 0x10A5 JUMP JUMPDEST PUSH1 0x20 MUL PUSH1 0x20 ADD ADD MLOAD PUSH2 0x779 JUMP JUMPDEST PUSH2 0x815 JUMP JUMPDEST SWAP2 POP DUP1 PUSH2 0x2E1 DUP2 PUSH2 0x10D1 JUMP JUMPDEST SWAP2 POP POP PUSH2 0x20F JUMP JUMPDEST POP PUSH2 0x312 DUP2 DUP4 PUSH1 0x80 ADD MLOAD PUSH1 0x0 DUP2 MLOAD DUP2 LT PUSH2 0x305 JUMPI PUSH2 0x305 PUSH2 0x10A5 JUMP JUMPDEST PUSH1 0x20 MUL PUSH1 0x20 ADD ADD MLOAD PUSH2 0x815 JUMP JUMPDEST SWAP1 POP PUSH2 0x348 PUSH2 0x324 DUP7 PUSH1 0x0 ADD MLOAD PUSH2 0x8AD JUMP JUMPDEST DUP7 PUSH1 0x20 ADD MLOAD DUP5 PUSH1 0x0 ADD MLOAD DUP6 PUSH1 0x20 ADD MLOAD DUP6 DUP8 PUSH1 0x40 ADD MLOAD DUP12 PUSH1 0x40 ADD MLOAD DUP10 PUSH1 0x60 ADD MLOAD PUSH2 0x94C JUMP JUMPDEST PUSH2 0x358 JUMPI PUSH1 0x1 SWAP4 POP POP POP POP PUSH2 0x360 JUMP JUMPDEST PUSH1 0x0 SWAP4 POP POP POP POP JUMPDEST SWAP3 SWAP2 POP POP JUMP JUMPDEST PUSH2 0x36E PUSH2 0xE7F JUMP JUMPDEST PUSH1 0x40 DUP1 MLOAD DUP1 DUP3 ADD DUP3 MSTORE PUSH32 0x235E824CCF89445B0AEFB6A19A07C9091FD221C5956411ACAC805E176D40709C DUP2 MSTORE PUSH32 0x157E0B85C6E80729978AA9EA73A4EE077998EBFD80BF2212E64294A51994AE41 PUSH1 0x20 DUP1 DUP4 ADD SWAP2 SWAP1 SWAP2 MSTORE SWAP1 DUP4 MSTORE DUP2 MLOAD PUSH1 0x80 DUP1 DUP3 ADD DUP5 MSTORE PUSH32 0xEBCF87D421C3FED10564FBE6394DA951E2798FB4BF447BF85C4767FA697969A DUP3 DUP6 ADD SWAP1 DUP2 MSTORE PUSH32 0x9FF83E5D68A4F61E1030EC43A311BF3CA526258DD1D7551F5C764E37DF891B6 PUSH1 0x60 DUP1 DUP6 ADD SWAP2 SWAP1 SWAP2 MSTORE SWAP1 DUP4 MSTORE DUP5 MLOAD DUP1 DUP7 ADD DUP7 MSTORE PUSH32 0x165C6CB201A7871735A1074B0D7D02A841407BB9379E83F39161634C1E705C57 DUP2 MSTORE PUSH32 0x1ED540FAD5668A1C64673DF127475CD07946D458BF1C309C36BCA8D05CEAA408 DUP2 DUP7 ADD MSTORE DUP4 DUP6 ADD MSTORE DUP6 DUP5 ADD SWAP3 SWAP1 SWAP3 MSTORE DUP4 MLOAD DUP1 DUP3 ADD DUP6 MSTORE PUSH32 0x198E9393920D483A7260BFB731FB5D25F1AA493335A9E71297E485B7AEF312C2 DUP2 DUP7 ADD SWAP1 DUP2 MSTORE PUSH32 0x1800DEEF121F1E76426A00665E5C4479674322D4F75EDADD46DEBD5CD992F6ED DUP3 DUP6 ADD MSTORE DUP2 MSTORE DUP5 MLOAD DUP1 DUP7 ADD DUP7 MSTORE PUSH32 0x90689D0585FF075EC9E99AD690C3395BC4B313370B38EF355ACDADCD122975B DUP2 MSTORE PUSH32 0x12C85EA5DB8C6DEB4AAB71808DCB408FE3D1E7690C43D37B4CE6CC0166FA7DAA DUP2 DUP7 ADD MSTORE DUP2 DUP6 ADD MSTORE DUP6 DUP6 ADD MSTORE DUP4 MLOAD DUP1 DUP3 ADD DUP6 MSTORE PUSH32 0x123501BB66389215AFDB4D0E7758D6E7A83ACA47F75F55B86CA1C0C957E0840D DUP2 DUP7 ADD SWAP1 DUP2 MSTORE PUSH32 0x1A2A663DBF3A3A2522BA33F75A4101D4D0FF83541007067314302A786F4B0AFD DUP3 DUP6 ADD MSTORE DUP2 MSTORE DUP5 MLOAD DUP1 DUP7 ADD DUP7 MSTORE PUSH32 0x29272F895E07CD14DBF57A6E21FDCF316F3AA86AC12E1960C571DC35B783533D DUP2 MSTORE PUSH32 0x296C8B3D192C94F8CEEA293E9D4798FE75CE3C4FC6FEE0F002D14346B7DFB5BB DUP2 DUP7 ADD MSTORE DUP2 DUP6 ADD MSTORE SWAP2 DUP6 ADD SWAP2 SWAP1 SWAP2 MSTORE DUP3 MLOAD PUSH1 0x3 DUP1 DUP3 MSTORE SWAP2 DUP2 ADD SWAP1 SWAP4 MSTORE SWAP1 DUP3 ADD JUMPDEST PUSH1 0x40 DUP1 MLOAD DUP1 DUP3 ADD SWAP1 SWAP2 MSTORE PUSH1 0x0 DUP1 DUP3 MSTORE PUSH1 0x20 DUP3 ADD MSTORE DUP2 MSTORE PUSH1 0x20 ADD SWAP1 PUSH1 0x1 SWAP1 SUB SWAP1 DUP2 PUSH2 0x5EA JUMPI POP POP PUSH1 0x80 DUP3 ADD SWAP1 DUP2 MSTORE PUSH1 0x40 DUP1 MLOAD DUP1 DUP3 ADD SWAP1 SWAP2 MSTORE PUSH32 0x2B2168286A60719DB6779123917B4BC7485F9489CF7F7DDFECD45C8E4D5FA096 DUP2 MSTORE PUSH32 0x1AE39A5F4BBF921C779968679DE9D0925043E45FEB42C2AC19E0A6E359CEFD9A PUSH1 0x20 DUP3 ADD MSTORE SWAP1 MLOAD DUP1 MLOAD PUSH1 0x0 SWAP1 PUSH2 0x67D JUMPI PUSH2 0x67D PUSH2 0x10A5 JUMP JUMPDEST PUSH1 0x20 MUL PUSH1 0x20 ADD ADD DUP2 SWAP1 MSTORE POP PUSH1 0x40 MLOAD DUP1 PUSH1 0x40 ADD PUSH1 0x40 MSTORE DUP1 PUSH32 0x2FD4C0874E6E123D2EFA02616E541991495843DA07667186CBBA451BB192CF2E DUP2 MSTORE PUSH1 0x20 ADD PUSH32 0x294DC40A37D9820E2537F13CA3717147632BE4CE500E9F09D336A70214F01937 DUP2 MSTORE POP DUP2 PUSH1 0x80 ADD MLOAD PUSH1 0x1 DUP2 MLOAD DUP2 LT PUSH2 0x6F4 JUMPI PUSH2 0x6F4 PUSH2 0x10A5 JUMP JUMPDEST PUSH1 0x20 MUL PUSH1 0x20 ADD ADD DUP2 SWAP1 MSTORE POP PUSH1 0x40 MLOAD DUP1 PUSH1 0x40 ADD PUSH1 0x40 MSTORE DUP1 PUSH32 0xC4BEA01E57C61715F6D1A1D0C33C42C23528896BAABE33947CF4E64600B71BF DUP2 MSTORE PUSH1 0x20 ADD PUSH32 0x1A027B95F3037D083AC8D253684E2B24CACCA79C0FE3AB7AB49104A5203C2198 DUP2 MSTORE POP DUP2 PUSH1 0x80 ADD MLOAD PUSH1 0x2 DUP2 MLOAD DUP2 LT PUSH2 0x76B JUMPI PUSH2 0x76B PUSH2 0x10A5 JUMP JUMPDEST PUSH1 0x20 MUL PUSH1 0x20 ADD ADD DUP2 SWAP1 MSTORE POP SWAP1 JUMP JUMPDEST PUSH1 0x40 DUP1 MLOAD DUP1 DUP3 ADD SWAP1 SWAP2 MSTORE PUSH1 0x0 DUP1 DUP3 MSTORE PUSH1 0x20 DUP3 ADD MSTORE PUSH2 0x795 PUSH2 0xED0 JUMP JUMPDEST DUP4 MLOAD DUP2 MSTORE PUSH1 0x20 DUP1 DUP6 ADD MLOAD SWAP1 DUP3 ADD MSTORE PUSH1 0x40 DUP2 ADD DUP4 SWAP1 MSTORE PUSH1 0x0 PUSH1 0x60 DUP4 PUSH1 0x80 DUP5 PUSH1 0x7 PUSH2 0x7D0 GAS SUB STATICCALL SWAP1 POP DUP1 DUP1 ISZERO PUSH2 0x7C8 JUMPI PUSH2 0x7CA JUMP JUMPDEST INVALID JUMPDEST POP DUP1 PUSH2 0x80D JUMPI PUSH1 0x40 MLOAD PUSH3 0x461BCD PUSH1 0xE5 SHL DUP2 MSTORE PUSH1 0x20 PUSH1 0x4 DUP3 ADD MSTORE PUSH1 0x12 PUSH1 0x24 DUP3 ADD MSTORE PUSH18 0x1C185A5C9A5B99CB5B5D5B0B59985A5B1959 PUSH1 0x72 SHL PUSH1 0x44 DUP3 ADD MSTORE PUSH1 0x64 ADD PUSH2 0x1EF JUMP JUMPDEST POP POP SWAP3 SWAP2 POP POP JUMP JUMPDEST PUSH1 0x40 DUP1 MLOAD DUP1 DUP3 ADD SWAP1 SWAP2 MSTORE PUSH1 0x0 DUP1 DUP3 MSTORE PUSH1 0x20 DUP3 ADD MSTORE PUSH2 0x831 PUSH2 0xEEE JUMP JUMPDEST DUP4 MLOAD DUP2 MSTORE PUSH1 0x20 DUP1 DUP6 ADD MLOAD DUP2 DUP4 ADD MSTORE DUP4 MLOAD PUSH1 0x40 DUP4 ADD MSTORE DUP4 ADD MLOAD PUSH1 0x60 DUP1 DUP4 ADD SWAP2 SWAP1 SWAP2 MSTORE PUSH1 0x0 SWAP1 DUP4 PUSH1 0xC0 DUP5 PUSH1 0x6 PUSH2 0x7D0 GAS SUB STATICCALL SWAP1 POP DUP1 DUP1 ISZERO PUSH2 0x7C8 JUMPI POP DUP1 PUSH2 0x80D JUMPI PUSH1 0x40 MLOAD PUSH3 0x461BCD PUSH1 0xE5 SHL DUP2 MSTORE PUSH1 0x20 PUSH1 0x4 DUP3 ADD MSTORE PUSH1 0x12 PUSH1 0x24 DUP3 ADD MSTORE PUSH18 0x1C185A5C9A5B99CB5859190B59985A5B1959 PUSH1 0x72 SHL PUSH1 0x44 DUP3 ADD MSTORE PUSH1 0x64 ADD PUSH2 0x1EF JUMP JUMPDEST PUSH1 0x40 DUP1 MLOAD DUP1 DUP3 ADD SWAP1 SWAP2 MSTORE PUSH1 0x0 DUP1 DUP3 MSTORE PUSH1 0x20 DUP3 ADD MSTORE DUP2 MLOAD PUSH32 0x30644E72E131A029B85045B68181585D97816A916871CA8D3C208C16D87CFD47 SWAP1 ISZERO DUP1 ISZERO PUSH2 0x8F4 JUMPI POP PUSH1 0x20 DUP4 ADD MLOAD ISZERO JUMPDEST ISZERO PUSH2 0x914 JUMPI POP POP PUSH1 0x40 DUP1 MLOAD DUP1 DUP3 ADD SWAP1 SWAP2 MSTORE PUSH1 0x0 DUP1 DUP3 MSTORE PUSH1 0x20 DUP3 ADD MSTORE SWAP2 SWAP1 POP JUMP JUMPDEST PUSH1 0x40 MLOAD DUP1 PUSH1 0x40 ADD PUSH1 0x40 MSTORE DUP1 DUP5 PUSH1 0x0 ADD MLOAD DUP2 MSTORE PUSH1 0x20 ADD DUP3 DUP6 PUSH1 0x20 ADD MLOAD PUSH2 0x939 SWAP2 SWAP1 PUSH2 0x1104 JUMP JUMPDEST PUSH2 0x943 SWAP1 DUP5 PUSH2 0x1126 JUMP JUMPDEST SWAP1 MSTORE SWAP4 SWAP3 POP POP POP JUMP JUMPDEST PUSH1 0x40 DUP1 MLOAD PUSH1 0x4 DUP1 DUP3 MSTORE PUSH1 0xA0 DUP3 ADD SWAP1 SWAP3 MSTORE PUSH1 0x0 SWAP2 DUP3 SWAP2 SWAP1 DUP2 PUSH1 0x20 ADD JUMPDEST PUSH1 0x40 DUP1 MLOAD DUP1 DUP3 ADD SWAP1 SWAP2 MSTORE PUSH1 0x0 DUP1 DUP3 MSTORE PUSH1 0x20 DUP3 ADD MSTORE DUP2 MSTORE PUSH1 0x20 ADD SWAP1 PUSH1 0x1 SWAP1 SUB SWAP1 DUP2 PUSH2 0x967 JUMPI POP POP PUSH1 0x40 DUP1 MLOAD PUSH1 0x4 DUP1 DUP3 MSTORE PUSH1 0xA0 DUP3 ADD SWAP1 SWAP3 MSTORE SWAP2 SWAP3 POP PUSH1 0x0 SWAP2 SWAP1 PUSH1 0x20 DUP3 ADD JUMPDEST PUSH2 0x9B1 PUSH2 0xF0C JUMP JUMPDEST DUP2 MSTORE PUSH1 0x20 ADD SWAP1 PUSH1 0x1 SWAP1 SUB SWAP1 DUP2 PUSH2 0x9A9 JUMPI SWAP1 POP POP SWAP1 POP DUP11 DUP3 PUSH1 0x0 DUP2 MLOAD DUP2 LT PUSH2 0x9DA JUMPI PUSH2 0x9DA PUSH2 0x10A5 JUMP JUMPDEST PUSH1 0x20 MUL PUSH1 0x20 ADD ADD DUP2 SWAP1 MSTORE POP DUP9 DUP3 PUSH1 0x1 DUP2 MLOAD DUP2 LT PUSH2 0x9F9 JUMPI PUSH2 0x9F9 PUSH2 0x10A5 JUMP JUMPDEST PUSH1 0x20 MUL PUSH1 0x20 ADD ADD DUP2 SWAP1 MSTORE POP DUP7 DUP3 PUSH1 0x2 DUP2 MLOAD DUP2 LT PUSH2 0xA18 JUMPI PUSH2 0xA18 PUSH2 0x10A5 JUMP JUMPDEST PUSH1 0x20 MUL PUSH1 0x20 ADD ADD DUP2 SWAP1 MSTORE POP DUP5 DUP3 PUSH1 0x3 DUP2 MLOAD DUP2 LT PUSH2 0xA37 JUMPI PUSH2 0xA37 PUSH2 0x10A5 JUMP JUMPDEST PUSH1 0x20 MUL PUSH1 0x20 ADD ADD DUP2 SWAP1 MSTORE POP DUP10 DUP2 PUSH1 0x0 DUP2 MLOAD DUP2 LT PUSH2 0xA56 JUMPI PUSH2 0xA56 PUSH2 0x10A5 JUMP JUMPDEST PUSH1 0x20 MUL PUSH1 0x20 ADD ADD DUP2 SWAP1 MSTORE POP DUP8 DUP2 PUSH1 0x1 DUP2 MLOAD DUP2 LT PUSH2 0xA75 JUMPI PUSH2 0xA75 PUSH2 0x10A5 JUMP JUMPDEST PUSH1 0x20 MUL PUSH1 0x20 ADD ADD DUP2 SWAP1 MSTORE POP DUP6 DUP2 PUSH1 0x2 DUP2 MLOAD DUP2 LT PUSH2 0xA94 JUMPI PUSH2 0xA94 PUSH2 0x10A5 JUMP JUMPDEST PUSH1 0x20 MUL PUSH1 0x20 ADD ADD DUP2 SWAP1 MSTORE POP DUP4 DUP2 PUSH1 0x3 DUP2 MLOAD DUP2 LT PUSH2 0xAB3 JUMPI PUSH2 0xAB3 PUSH2 0x10A5 JUMP JUMPDEST PUSH1 0x20 MUL PUSH1 0x20 ADD ADD DUP2 SWAP1 MSTORE POP PUSH2 0xAC8 DUP3 DUP3 PUSH2 0xAD7 JUMP JUMPDEST SWAP12 SWAP11 POP POP POP POP POP POP POP POP POP POP POP JUMP JUMPDEST PUSH1 0x0 DUP2 MLOAD DUP4 MLOAD EQ PUSH2 0xB23 JUMPI PUSH1 0x40 MLOAD PUSH3 0x461BCD PUSH1 0xE5 SHL DUP2 MSTORE PUSH1 0x20 PUSH1 0x4 DUP3 ADD MSTORE PUSH1 0x16 PUSH1 0x24 DUP3 ADD MSTORE PUSH22 0x1C185A5C9A5B99CB5B195B99DD1A1CCB59985A5B1959 PUSH1 0x52 SHL PUSH1 0x44 DUP3 ADD MSTORE PUSH1 0x64 ADD PUSH2 0x1EF JUMP JUMPDEST DUP3 MLOAD PUSH1 0x0 PUSH2 0xB32 DUP3 PUSH1 0x6 PUSH2 0x113D JUMP JUMPDEST SWAP1 POP PUSH1 0x0 DUP2 PUSH8 0xFFFFFFFFFFFFFFFF DUP2 GT ISZERO PUSH2 0xB4F JUMPI PUSH2 0xB4F PUSH2 0xF68 JUMP JUMPDEST PUSH1 0x40 MLOAD SWAP1 DUP1 DUP3 MSTORE DUP1 PUSH1 0x20 MUL PUSH1 0x20 ADD DUP3 ADD PUSH1 0x40 MSTORE DUP1 ISZERO PUSH2 0xB78 JUMPI DUP2 PUSH1 0x20 ADD PUSH1 0x20 DUP3 MUL DUP1 CALLDATASIZE DUP4 CALLDATACOPY ADD SWAP1 POP JUMPDEST POP SWAP1 POP PUSH1 0x0 JUMPDEST DUP4 DUP2 LT ISZERO PUSH2 0xDB3 JUMPI DUP7 DUP2 DUP2 MLOAD DUP2 LT PUSH2 0xB98 JUMPI PUSH2 0xB98 PUSH2 0x10A5 JUMP JUMPDEST PUSH1 0x20 MUL PUSH1 0x20 ADD ADD MLOAD PUSH1 0x0 ADD MLOAD DUP3 DUP3 PUSH1 0x6 PUSH2 0xBB2 SWAP2 SWAP1 PUSH2 0x113D JUMP JUMPDEST PUSH2 0xBBD SWAP1 PUSH1 0x0 PUSH2 0x10EC JUMP JUMPDEST DUP2 MLOAD DUP2 LT PUSH2 0xBCD JUMPI PUSH2 0xBCD PUSH2 0x10A5 JUMP JUMPDEST PUSH1 0x20 MUL PUSH1 0x20 ADD ADD DUP2 DUP2 MSTORE POP POP DUP7 DUP2 DUP2 MLOAD DUP2 LT PUSH2 0xBEB JUMPI PUSH2 0xBEB PUSH2 0x10A5 JUMP JUMPDEST PUSH1 0x20 MUL PUSH1 0x20 ADD ADD MLOAD PUSH1 0x20 ADD MLOAD DUP3 DUP3 PUSH1 0x6 PUSH2 0xC05 SWAP2 SWAP1 PUSH2 0x113D JUMP JUMPDEST PUSH2 0xC10 SWAP1 PUSH1 0x1 PUSH2 0x10EC JUMP JUMPDEST DUP2 MLOAD DUP2 LT PUSH2 0xC20 JUMPI PUSH2 0xC20 PUSH2 0x10A5 JUMP JUMPDEST PUSH1 0x20 MUL PUSH1 0x20 ADD ADD DUP2 DUP2 MSTORE POP POP DUP6 DUP2 DUP2 MLOAD DUP2 LT PUSH2 0xC3E JUMPI PUSH2 0xC3E PUSH2 0x10A5 JUMP JUMPDEST PUSH1 0x20 SWAP1 DUP2 MUL SWAP2 SWAP1 SWAP2 ADD ADD MLOAD MLOAD MLOAD DUP3 PUSH2 0xC57 DUP4 PUSH1 0x6 PUSH2 0x113D JUMP JUMPDEST PUSH2 0xC62 SWAP1 PUSH1 0x2 PUSH2 0x10EC JUMP JUMPDEST DUP2 MLOAD DUP2 LT PUSH2 0xC72 JUMPI PUSH2 0xC72 PUSH2 0x10A5 JUMP JUMPDEST PUSH1 0x20 MUL PUSH1 0x20 ADD ADD DUP2 DUP2 MSTORE POP POP DUP6 DUP2 DUP2 MLOAD DUP2 LT PUSH2 0xC90 JUMPI PUSH2 0xC90 PUSH2 0x10A5 JUMP JUMPDEST PUSH1 0x20 SWAP1 DUP2 MUL SWAP2 SWAP1 SWAP2 ADD DUP2 ADD MLOAD MLOAD ADD MLOAD DUP3 PUSH2 0xCAB DUP4 PUSH1 0x6 PUSH2 0x113D JUMP JUMPDEST PUSH2 0xCB6 SWAP1 PUSH1 0x3 PUSH2 0x10EC JUMP JUMPDEST DUP2 MLOAD DUP2 LT PUSH2 0xCC6 JUMPI PUSH2 0xCC6 PUSH2 0x10A5 JUMP JUMPDEST PUSH1 0x20 MUL PUSH1 0x20 ADD ADD DUP2 DUP2 MSTORE POP POP DUP6 DUP2 DUP2 MLOAD DUP2 LT PUSH2 0xCE4 JUMPI PUSH2 0xCE4 PUSH2 0x10A5 JUMP JUMPDEST PUSH1 0x20 MUL PUSH1 0x20 ADD ADD MLOAD PUSH1 0x20 ADD MLOAD PUSH1 0x0 PUSH1 0x2 DUP2 LT PUSH2 0xD02 JUMPI PUSH2 0xD02 PUSH2 0x10A5 JUMP JUMPDEST PUSH1 0x20 MUL ADD MLOAD DUP3 PUSH2 0xD13 DUP4 PUSH1 0x6 PUSH2 0x113D JUMP JUMPDEST PUSH2 0xD1E SWAP1 PUSH1 0x4 PUSH2 0x10EC JUMP JUMPDEST DUP2 MLOAD DUP2 LT PUSH2 0xD2E JUMPI PUSH2 0xD2E PUSH2 0x10A5 JUMP JUMPDEST PUSH1 0x20 MUL PUSH1 0x20 ADD ADD DUP2 DUP2 MSTORE POP POP DUP6 DUP2 DUP2 MLOAD DUP2 LT PUSH2 0xD4C JUMPI PUSH2 0xD4C PUSH2 0x10A5 JUMP JUMPDEST PUSH1 0x20 MUL PUSH1 0x20 ADD ADD MLOAD PUSH1 0x20 ADD MLOAD PUSH1 0x1 PUSH1 0x2 DUP2 LT PUSH2 0xD6A JUMPI PUSH2 0xD6A PUSH2 0x10A5 JUMP JUMPDEST PUSH1 0x20 MUL ADD MLOAD DUP3 PUSH2 0xD7B DUP4 PUSH1 0x6 PUSH2 0x113D JUMP JUMPDEST PUSH2 0xD86 SWAP1 PUSH1 0x5 PUSH2 0x10EC JUMP JUMPDEST DUP2 MLOAD DUP2 LT PUSH2 0xD96 JUMPI PUSH2 0xD96 PUSH2 0x10A5 JUMP JUMPDEST PUSH1 0x20 SWAP1 DUP2 MUL SWAP2 SWAP1 SWAP2 ADD ADD MSTORE DUP1 PUSH2 0xDAB DUP2 PUSH2 0x10D1 JUMP JUMPDEST SWAP2 POP POP PUSH2 0xB7E JUMP JUMPDEST POP PUSH2 0xDBC PUSH2 0xF2C JUMP JUMPDEST PUSH1 0x0 PUSH1 0x20 DUP3 PUSH1 0x20 DUP7 MUL PUSH1 0x20 DUP7 ADD PUSH1 0x8 PUSH2 0x7D0 GAS SUB STATICCALL SWAP1 POP DUP1 DUP1 ISZERO PUSH2 0x7C8 JUMPI POP DUP1 PUSH2 0xE20 JUMPI PUSH1 0x40 MLOAD PUSH3 0x461BCD PUSH1 0xE5 SHL DUP2 MSTORE PUSH1 0x20 PUSH1 0x4 DUP3 ADD MSTORE PUSH1 0x15 PUSH1 0x24 DUP3 ADD MSTORE PUSH21 0x1C185A5C9A5B99CB5BDC18DBD9194B59985A5B1959 PUSH1 0x5A SHL PUSH1 0x44 DUP3 ADD MSTORE PUSH1 0x64 ADD PUSH2 0x1EF JUMP JUMPDEST POP MLOAD ISZERO ISZERO SWAP7 SWAP6 POP POP POP POP POP POP JUMP JUMPDEST PUSH1 0x40 DUP1 MLOAD PUSH1 0xA0 DUP2 ADD SWAP1 SWAP2 MSTORE PUSH1 0x0 PUSH1 0x60 DUP3 ADD DUP2 DUP2 MSTORE PUSH1 0x80 DUP4 ADD SWAP2 SWAP1 SWAP2 MSTORE DUP2 MSTORE PUSH1 0x20 DUP2 ADD PUSH2 0xE58 PUSH2 0xF0C JUMP JUMPDEST DUP2 MSTORE PUSH1 0x20 ADD PUSH2 0xE7A PUSH1 0x40 MLOAD DUP1 PUSH1 0x40 ADD PUSH1 0x40 MSTORE DUP1 PUSH1 0x0 DUP2 MSTORE PUSH1 0x20 ADD PUSH1 0x0 DUP2 MSTORE POP SWAP1 JUMP JUMPDEST SWAP1 MSTORE SWAP1 JUMP JUMPDEST PUSH1 0x40 DUP1 MLOAD PUSH1 0xE0 DUP2 ADD SWAP1 SWAP2 MSTORE PUSH1 0x0 PUSH1 0xA0 DUP3 ADD DUP2 DUP2 MSTORE PUSH1 0xC0 DUP4 ADD SWAP2 SWAP1 SWAP2 MSTORE DUP2 MSTORE PUSH1 0x20 DUP2 ADD PUSH2 0xEA9 PUSH2 0xF0C JUMP JUMPDEST DUP2 MSTORE PUSH1 0x20 ADD PUSH2 0xEB6 PUSH2 0xF0C JUMP JUMPDEST DUP2 MSTORE PUSH1 0x20 ADD PUSH2 0xEC3 PUSH2 0xF0C JUMP JUMPDEST DUP2 MSTORE PUSH1 0x20 ADD PUSH1 0x60 DUP2 MSTORE POP SWAP1 JUMP JUMPDEST PUSH1 0x40 MLOAD DUP1 PUSH1 0x60 ADD PUSH1 0x40 MSTORE DUP1 PUSH1 0x3 SWAP1 PUSH1 0x20 DUP3 MUL DUP1 CALLDATASIZE DUP4 CALLDATACOPY POP SWAP2 SWAP3 SWAP2 POP POP JUMP JUMPDEST PUSH1 0x40 MLOAD DUP1 PUSH1 0x80 ADD PUSH1 0x40 MSTORE DUP1 PUSH1 0x4 SWAP1 PUSH1 0x20 DUP3 MUL DUP1 CALLDATASIZE DUP4 CALLDATACOPY POP SWAP2 SWAP3 SWAP2 POP POP JUMP JUMPDEST PUSH1 0x40 MLOAD DUP1 PUSH1 0x40 ADD PUSH1 0x40 MSTORE DUP1 PUSH2 0xF1F PUSH2 0xF4A JUMP JUMPDEST DUP2 MSTORE PUSH1 0x20 ADD PUSH2 0xE7A PUSH2 0xF4A JUMP JUMPDEST PUSH1 0x40 MLOAD DUP1 PUSH1 0x20 ADD PUSH1 0x40 MSTORE DUP1 PUSH1 0x1 SWAP1 PUSH1 0x20 DUP3 MUL DUP1 CALLDATASIZE DUP4 CALLDATACOPY POP SWAP2 SWAP3 SWAP2 POP POP JUMP JUMPDEST PUSH1 0x40 MLOAD DUP1 PUSH1 0x40 ADD PUSH1 0x40 MSTORE DUP1 PUSH1 0x2 SWAP1 PUSH1 0x20 DUP3 MUL DUP1 CALLDATASIZE DUP4 CALLDATACOPY POP SWAP2 SWAP3 SWAP2 POP POP JUMP JUMPDEST PUSH4 0x4E487B71 PUSH1 0xE0 SHL PUSH1 0x0 MSTORE PUSH1 0x41 PUSH1 0x4 MSTORE PUSH1 0x24 PUSH1 0x0 REVERT JUMPDEST PUSH1 0x40 DUP1 MLOAD SWAP1 DUP2 ADD PUSH8 0xFFFFFFFFFFFFFFFF DUP2 GT DUP3 DUP3 LT OR ISZERO PUSH2 0xFAF JUMPI PUSH4 0x4E487B71 PUSH1 0xE0 SHL PUSH1 0x0 MSTORE PUSH1 0x41 PUSH1 0x4 MSTORE PUSH1 0x24 PUSH1 0x0 REVERT JUMPDEST PUSH1 0x40 MSTORE SWAP1 JUMP JUMPDEST PUSH1 0x0 DUP3 PUSH1 0x1F DUP4 ADD SLT PUSH2 0xFC6 JUMPI PUSH1 0x0 DUP1 REVERT JUMPDEST PUSH2 0xFCE PUSH2 0xF7E JUMP JUMPDEST DUP1 PUSH1 0x40 DUP5 ADD DUP6 DUP2 GT ISZERO PUSH2 0xFE0 JUMPI PUSH1 0x0 DUP1 REVERT JUMPDEST DUP5 JUMPDEST DUP2 DUP2 LT ISZERO PUSH2 0xFFA JUMPI DUP1 CALLDATALOAD DUP5 MSTORE PUSH1 0x20 SWAP4 DUP5 ADD SWAP4 ADD PUSH2 0xFE2 JUMP JUMPDEST POP SWAP1 SWAP6 SWAP5 POP POP POP POP POP JUMP JUMPDEST PUSH1 0x0 DUP1 PUSH1 0x0 DUP1 PUSH2 0x140 DUP6 DUP8 SUB SLT ISZERO PUSH2 0x101C JUMPI PUSH1 0x0 DUP1 REVERT JUMPDEST PUSH2 0x1026 DUP7 DUP7 PUSH2 0xFB5 JUMP JUMPDEST SWAP4 POP PUSH1 0x40 DUP7 PUSH1 0x5F DUP8 ADD SLT PUSH2 0x1039 JUMPI PUSH1 0x0 DUP1 REVERT JUMPDEST PUSH2 0x1041 PUSH2 0xF7E JUMP JUMPDEST DUP1 PUSH1 0xC0 DUP9 ADD DUP10 DUP2 GT ISZERO PUSH2 0x1053 JUMPI PUSH1 0x0 DUP1 REVERT JUMPDEST DUP4 DUP10 ADD JUMPDEST DUP2 DUP2 LT ISZERO PUSH2 0x1078 JUMPI PUSH2 0x1069 DUP12 DUP3 PUSH2 0xFB5 JUMP JUMPDEST DUP5 MSTORE PUSH1 0x20 SWAP1 SWAP4 ADD SWAP3 DUP5 ADD PUSH2 0x1057 JUMP JUMPDEST POP DUP2 SWAP7 POP PUSH2 0x1086 DUP11 DUP3 PUSH2 0xFB5 JUMP JUMPDEST SWAP6 POP POP POP POP POP PUSH2 0x109A DUP7 PUSH2 0x100 DUP8 ADD PUSH2 0xFB5 JUMP JUMPDEST SWAP1 POP SWAP3 SWAP6 SWAP2 SWAP5 POP SWAP3 POP JUMP JUMPDEST PUSH4 0x4E487B71 PUSH1 0xE0 SHL PUSH1 0x0 MSTORE PUSH1 0x32 PUSH1 0x4 MSTORE PUSH1 0x24 PUSH1 0x0 REVERT JUMPDEST PUSH4 0x4E487B71 PUSH1 0xE0 SHL PUSH1 0x0 MSTORE PUSH1 0x11 PUSH1 0x4 MSTORE PUSH1 0x24 PUSH1 0x0 REVERT JUMPDEST PUSH1 0x0 PUSH1 0x0 NOT DUP3 EQ ISZERO PUSH2 0x10E5 JUMPI PUSH2 0x10E5 PUSH2 0x10BB JUMP JUMPDEST POP PUSH1 0x1 ADD SWAP1 JUMP JUMPDEST PUSH1 0x0 DUP3 NOT DUP3 GT ISZERO PUSH2 0x10FF JUMPI PUSH2 0x10FF PUSH2 0x10BB JUMP JUMPDEST POP ADD SWAP1 JUMP JUMPDEST PUSH1 0x0 DUP3 PUSH2 0x1121 JUMPI PUSH4 0x4E487B71 PUSH1 0xE0 SHL PUSH1 0x0 MSTORE PUSH1 0x12 PUSH1 0x4 MSTORE PUSH1 0x24 PUSH1 0x0 REVERT JUMPDEST POP MOD SWAP1 JUMP JUMPDEST PUSH1 0x0 DUP3 DUP3 LT ISZERO PUSH2 0x1138 JUMPI PUSH2 0x1138 PUSH2 0x10BB JUMP JUMPDEST POP SUB SWAP1 JUMP JUMPDEST PUSH1 0x0 DUP2 PUSH1 0x0 NOT DIV DUP4 GT DUP3 ISZERO ISZERO AND ISZERO PUSH2 0x1157 JUMPI PUSH2 0x1157 PUSH2 0x10BB JUMP JUMPDEST POP MUL SWAP1 JUMP INVALID LOG2 PUSH5 0x6970667358 0x22 SLT KECCAK256 0x2E DUP3 0x2E LOG1 0x4B DUP11 0xAF CALLDATALOAD BLOCKHASH 0xE DUP10 PUSH18 0x7ABA1E9F9848A225052494219F2225EB2946 PUSH30 0xAF64736F6C63430008090033000000000000000000000000000000000000 "},"methodIdentifiers":{"verifyProof(uint256[2],uint256[2][2],uint256[2],uint256[2])":"f5c9d69e"}}}}}