{
  "_format": "hh-sol-artifact-1",
  "contractName": "FunctionsConsumer",
  "sourceName": "contracts/FunctionsConsumer.sol",
  "abi": [
    {
      "inputs": [
        {
          "internalType": "address",
          "name": "oracle",
          "type": "address"
        }
      ],
      "stateMutability": "nonpayable",
      "type": "constructor"
    },
    {
      "inputs": [],
      "name": "EmptyArgs",
      "type": "error"
    },
    {
      "inputs": [],
      "name": "EmptySecrets",
      "type": "error"
    },
    {
      "inputs": [],
      "name": "EmptySource",
      "type": "error"
    },
    {
      "inputs": [],
      "name": "NoInlineSecrets",
      "type": "error"
    },
    {
      "inputs": [],
      "name": "RequestIsAlreadyPending",
      "type": "error"
    },
    {
      "inputs": [],
      "name": "RequestIsNotPending",
      "type": "error"
    },
    {
      "inputs": [],
      "name": "SenderIsNotRegistry",
      "type": "error"
    },
    {
      "anonymous": false,
      "inputs": [
        {
          "indexed": true,
          "internalType": "bytes32",
          "name": "requestId",
          "type": "bytes32"
        },
        {
          "indexed": false,
          "internalType": "bytes",
          "name": "result",
          "type": "bytes"
        },
        {
          "indexed": false,
          "internalType": "bytes",
          "name": "err",
          "type": "bytes"
        }
      ],
      "name": "OCRResponse",
      "type": "event"
    },
    {
      "anonymous": false,
      "inputs": [
        {
          "indexed": true,
          "internalType": "address",
          "name": "from",
          "type": "address"
        },
        {
          "indexed": true,
          "internalType": "address",
          "name": "to",
          "type": "address"
        }
      ],
      "name": "OwnershipTransferRequested",
      "type": "event"
    },
    {
      "anonymous": false,
      "inputs": [
        {
          "indexed": true,
          "internalType": "address",
          "name": "from",
          "type": "address"
        },
        {
          "indexed": true,
          "internalType": "address",
          "name": "to",
          "type": "address"
        }
      ],
      "name": "OwnershipTransferred",
      "type": "event"
    },
    {
      "anonymous": false,
      "inputs": [
        {
          "indexed": true,
          "internalType": "bytes32",
          "name": "id",
          "type": "bytes32"
        }
      ],
      "name": "RequestFulfilled",
      "type": "event"
    },
    {
      "anonymous": false,
      "inputs": [
        {
          "indexed": true,
          "internalType": "bytes32",
          "name": "id",
          "type": "bytes32"
        }
      ],
      "name": "RequestSent",
      "type": "event"
    },
    {
      "inputs": [],
      "name": "acceptOwnership",
      "outputs": [],
      "stateMutability": "nonpayable",
      "type": "function"
    },
    {
      "inputs": [
        {
          "internalType": "address",
          "name": "oracleAddress",
          "type": "address"
        },
        {
          "internalType": "bytes32",
          "name": "requestId",
          "type": "bytes32"
        }
      ],
      "name": "addSimulatedRequestId",
      "outputs": [],
      "stateMutability": "nonpayable",
      "type": "function"
    },
    {
      "inputs": [
        {
          "components": [
            {
              "internalType": "enum Functions.Location",
              "name": "codeLocation",
              "type": "uint8"
            },
            {
              "internalType": "enum Functions.Location",
              "name": "secretsLocation",
              "type": "uint8"
            },
            {
              "internalType": "enum Functions.CodeLanguage",
              "name": "language",
              "type": "uint8"
            },
            {
              "internalType": "string",
              "name": "source",
              "type": "string"
            },
            {
              "internalType": "bytes",
              "name": "secrets",
              "type": "bytes"
            },
            {
              "internalType": "string[]",
              "name": "args",
              "type": "string[]"
            }
          ],
          "internalType": "struct Functions.Request",
          "name": "req",
          "type": "tuple"
        },
        {
          "internalType": "uint64",
          "name": "subscriptionId",
          "type": "uint64"
        },
        {
          "internalType": "uint32",
          "name": "gasLimit",
          "type": "uint32"
        },
        {
          "internalType": "uint256",
          "name": "gasPrice",
          "type": "uint256"
        }
      ],
      "name": "estimateCost",
      "outputs": [
        {
          "internalType": "uint96",
          "name": "",
          "type": "uint96"
        }
      ],
      "stateMutability": "view",
      "type": "function"
    },
    {
      "inputs": [
        {
          "internalType": "string",
          "name": "source",
          "type": "string"
        },
        {
          "internalType": "bytes",
          "name": "secrets",
          "type": "bytes"
        },
        {
          "internalType": "string[]",
          "name": "args",
          "type": "string[]"
        },
        {
          "internalType": "uint64",
          "name": "subscriptionId",
          "type": "uint64"
        },
        {
          "internalType": "uint32",
          "name": "gasLimit",
          "type": "uint32"
        }
      ],
      "name": "executeRequest",
      "outputs": [
        {
          "internalType": "bytes32",
          "name": "",
          "type": "bytes32"
        }
      ],
      "stateMutability": "nonpayable",
      "type": "function"
    },
    {
      "inputs": [],
      "name": "getDONPublicKey",
      "outputs": [
        {
          "internalType": "bytes",
          "name": "",
          "type": "bytes"
        }
      ],
      "stateMutability": "view",
      "type": "function"
    },
    {
      "inputs": [
        {
          "internalType": "bytes32",
          "name": "requestId",
          "type": "bytes32"
        },
        {
          "internalType": "bytes",
          "name": "response",
          "type": "bytes"
        },
        {
          "internalType": "bytes",
          "name": "err",
          "type": "bytes"
        }
      ],
      "name": "handleOracleFulfillment",
      "outputs": [],
      "stateMutability": "nonpayable",
      "type": "function"
    },
    {
      "inputs": [],
      "name": "latestError",
      "outputs": [
        {
          "internalType": "bytes",
          "name": "",
          "type": "bytes"
        }
      ],
      "stateMutability": "view",
      "type": "function"
    },
    {
      "inputs": [],
      "name": "latestRequestId",
      "outputs": [
        {
          "internalType": "bytes32",
          "name": "",
          "type": "bytes32"
        }
      ],
      "stateMutability": "view",
      "type": "function"
    },
    {
      "inputs": [],
      "name": "latestResponse",
      "outputs": [
        {
          "internalType": "bytes",
          "name": "",
          "type": "bytes"
        }
      ],
      "stateMutability": "view",
      "type": "function"
    },
    {
      "inputs": [],
      "name": "owner",
      "outputs": [
        {
          "internalType": "address",
          "name": "",
          "type": "address"
        }
      ],
      "stateMutability": "view",
      "type": "function"
    },
    {
      "inputs": [
        {
          "internalType": "address",
          "name": "to",
          "type": "address"
        }
      ],
      "name": "transferOwnership",
      "outputs": [],
      "stateMutability": "nonpayable",
      "type": "function"
    },
    {
      "inputs": [
        {
          "internalType": "address",
          "name": "oracle",
          "type": "address"
        }
      ],
      "name": "updateOracleAddress",
      "outputs": [],
      "stateMutability": "nonpayable",
      "type": "function"
    }
  ],
  "bytecode": "0x60806040523480156200001157600080fd5b5060405162001da438038062001da4833981016040819052620000349162000199565b600080546001600160a01b0319166001600160a01b038316178155339081906001600160a01b038216620000af5760405162461bcd60e51b815260206004820152601860248201527f43616e6e6f7420736574206f776e657220746f207a65726f000000000000000060448201526064015b60405180910390fd5b600280546001600160a01b0319166001600160a01b0384811691909117909155811615620000e257620000e281620000ec565b50505050620001cb565b6001600160a01b038116331415620001475760405162461bcd60e51b815260206004820152601760248201527f43616e6e6f74207472616e7366657220746f2073656c660000000000000000006044820152606401620000a6565b600380546001600160a01b0319166001600160a01b03838116918217909255600254604051919216907fed8889f560326eb138920d842192f0eb3dd22b4f139c87a2c57538e05bae127890600090a350565b600060208284031215620001ac57600080fd5b81516001600160a01b0381168114620001c457600080fd5b9392505050565b611bc980620001db6000396000f3fe608060405234801561001057600080fd5b50600436106100d45760003560e01c8063bef3a2f011610081578063f2fde38b1161005b578063f2fde38b146101a0578063f7023bb6146101b3578063fffeb84e146101c657600080fd5b8063bef3a2f014610153578063d328a91e14610168578063d4b391751461017057600080fd5b806330bda99d116100b257806330bda99d1461011d57806379ba5097146101305780638da5cb5b1461013857600080fd5b80630ca76175146100d95780631aa46f59146100ee578063277145891461010a575b600080fd5b6100ec6100e73660046114db565b6101ce565b005b6100f760045481565b6040519081526020015b60405180910390f35b6100f76101183660046115b6565b610274565b6100ec61012b366004611496565b610382565b6100ec610398565b6002546040516001600160a01b039091168152602001610101565b61015b610452565b604051610101919061180d565b61015b6104e0565b61018361017e3660046116a1565b61057e565b6040516bffffffffffffffffffffffff9091168152602001610101565b6100ec6101ae36600461145c565b610614565b6100ec6101c136600461145c565b610628565b61015b61064e565b60008381526001602052604090205483906001600160a01b03163314610220576040517fa0c5ec6300000000000000000000000000000000000000000000000000000000815260040160405180910390fd5b60008181526001602052604080822080546001600160a01b03191690555182917f85e1543bf2f84fe80c6badbce3648c8539ad1df4d2b3d822938ca0538be727e691a261026e84848461065b565b50505050565b600061027e6106c2565b6102b86040805160c08101909152806000815260200160008152602001600081526020016060815260200160608152602001606081525090565b6102ff6000808c8c8080601f0160208091040260200160405190810160405280939291908181526020018383808284376000920191909152508795949392505061071e9050565b86156103475761034788888080601f01602080910402602001604051908101604052809392919081815260200183838082843760009201919091525085939250506107b29050565b84156103615761036161035a8688611a75565b82906107f9565b600061036e828686610839565b60048190559b9a5050505050505050505050565b61038a6106c2565b61039482826109ab565b5050565b6003546001600160a01b031633146103f75760405162461bcd60e51b815260206004820152601660248201527f4d7573742062652070726f706f736564206f776e65720000000000000000000060448201526064015b60405180910390fd5b600280546001600160a01b0319808216339081179093556003805490911690556040516001600160a01b03909116919082907f8be0079c531659141344cd1fd0a4f28419497f9722a3daafe3b4186f6b6457e090600090a350565b6005805461045f90611aae565b80601f016020809104026020016040519081016040528092919081815260200182805461048b90611aae565b80156104d85780601f106104ad576101008083540402835291602001916104d8565b820191906000526020600020905b8154815290600101906020018083116104bb57829003601f168201915b505050505081565b60008054604080517fd328a91e00000000000000000000000000000000000000000000000000000000815290516060936001600160a01b039093169263d328a91e9260048082019391829003018186803b15801561053d57600080fd5b505afa158015610551573d6000803e3d6000fd5b505050506040513d6000823e601f3d908101601f191682016040526105799190810190611548565b905090565b600080546001600160a01b031663d227d2458561059a88610a2b565b86866040518563ffffffff1660e01b81526004016105bb949392919061187e565b60206040518083038186803b1580156105d357600080fd5b505afa1580156105e7573d6000803e3d6000fd5b505050506040513d601f19601f8201168201806040525081019061060b91906117b3565b95945050505050565b61061c6106c2565b61062581610cf7565b50565b6106306106c2565b600080546001600160a01b0319166001600160a01b03831617905550565b6006805461045f90611aae565b815161066e9060059060208501906111f4565b5080516106829060069060208401906111f4565b50827f7bab0ec163b5c132c72b8146ac4d6e067e82ed58f8b131150aa71c925891156283836040516106b5929190611820565b60405180910390a2505050565b6002546001600160a01b0316331461071c5760405162461bcd60e51b815260206004820152601660248201527f4f6e6c792063616c6c61626c65206279206f776e65720000000000000000000060448201526064016103ee565b565b8051610756576040517f22ce3edd00000000000000000000000000000000000000000000000000000000815260040160405180910390fd5b8383600181111561076957610769611b3c565b9081600181111561077c5761077c611b3c565b9052506040840182801561079257610792611b3c565b908180156107a2576107a2611b3c565b9052506060909301929092525050565b80516107ea576040517fe889636f00000000000000000000000000000000000000000000000000000000815260040160405180910390fd5b60016020830152608090910152565b8051610831576040517ffe936cb700000000000000000000000000000000000000000000000000000000815260040160405180910390fd5b60a090910152565b6000805481906001600160a01b03166328242b048561085788610a2b565b866040518463ffffffff1660e01b815260040161087693929190611845565b602060405180830381600087803b15801561089057600080fd5b505af11580156108a4573d6000803e3d6000fd5b505050506040513d601f19601f820116820180604052508101906108c891906114c2565b905060008054906101000a90046001600160a01b03166001600160a01b0316635ab1bd536040518163ffffffff1660e01b815260040160206040518083038186803b15801561091657600080fd5b505afa15801561092a573d6000803e3d6000fd5b505050506040513d601f19601f8201168201806040525081019061094e9190611479565b60008281526001602052604080822080546001600160a01b0319166001600160a01b039490941693909317909255905182917f1131472297a800fee664d1d89cfa8f7676ff07189ecc53f80bbb5f4969099db891a2949350505050565b60008181526001602052604090205481906001600160a01b0316156109fc576040517f8b457ad200000000000000000000000000000000000000000000000000000000815260040160405180910390fd5b50600090815260016020526040902080546001600160a01b0319166001600160a01b0392909216919091179055565b6060610a35611278565b8051610a4390610100610da2565b50610a83816040518060400160405280600c81526020017f636f64654c6f636174696f6e0000000000000000000000000000000000000000815250610e1c565b610aa28184600001516001811115610a9d57610a9d611b3c565b610e3a565b610ae1816040518060400160405280600881526020017f6c616e6775616765000000000000000000000000000000000000000000000000815250610e1c565b610afb8184604001516000811115610a9d57610a9d611b3c565b610b3a816040518060400160405280600681526020017f736f757263650000000000000000000000000000000000000000000000000000815250610e1c565b610b48818460600151610e1c565b60a08301515115610bee57610b92816040518060400160405280600481526020017f6172677300000000000000000000000000000000000000000000000000000000815250610e1c565b610b9b81610e73565b60005b8360a0015151811015610be457610bd2828560a001518381518110610bc557610bc5611b52565b6020026020010151610e1c565b80610bdc81611ae9565b915050610b9e565b50610bee81610e97565b60808301515115610cef57600083602001516001811115610c1157610c11611b3c565b1415610c49576040517fa80d31f700000000000000000000000000000000000000000000000000000000815260040160405180910390fd5b610c88816040518060400160405280600f81526020017f736563726574734c6f636174696f6e0000000000000000000000000000000000815250610e1c565b610ca28184602001516001811115610a9d57610a9d611b3c565b610ce1816040518060400160405280600781526020017f7365637265747300000000000000000000000000000000000000000000000000815250610e1c565b610cef818460800151610eb5565b515192915050565b6001600160a01b038116331415610d505760405162461bcd60e51b815260206004820152601760248201527f43616e6e6f74207472616e7366657220746f2073656c6600000000000000000060448201526064016103ee565b600380546001600160a01b0319166001600160a01b03838116918217909255600254604051919216907fed8889f560326eb138920d842192f0eb3dd22b4f139c87a2c57538e05bae127890600090a350565b604080518082019091526060815260006020820152610dc2602083611b04565b15610dea57610dd2602083611b04565b610ddd906020611a5e565b610de7908361193c565b91505b602080840183905260405180855260008152908184010181811015610e0e57600080fd5b604052508290505b92915050565b610e298260038351610ebe565b8151610e359082610fdf565b505050565b8151610e479060c2611007565b506103948282604051602001610e5f91815260200190565b604051602081830303815290604052610eb5565b610e7e816004611070565b600181602001818151610e91919061193c565b90525050565b610ea2816007611070565b600181602001818151610e919190611a5e565b610e2982600283515b60178167ffffffffffffffff1611610ee557825161026e9060e0600585901b168317611007565b60ff8167ffffffffffffffff1611610f27578251610f0e906018611fe0600586901b1617611007565b50825161026e9067ffffffffffffffff83166001611087565b61ffff8167ffffffffffffffff1611610f6a578251610f51906019611fe0600586901b1617611007565b50825161026e9067ffffffffffffffff83166002611087565b63ffffffff8167ffffffffffffffff1611610faf578251610f9690601a611fe0600586901b1617611007565b50825161026e9067ffffffffffffffff83166004611087565b8251610fc690601b611fe0600586901b1617611007565b50825161026e9067ffffffffffffffff83166008611087565b6040805180820190915260608152600060208201526110008383845161110c565b9392505050565b604080518082019091526060815260006020820152825151600061102c82600161193c565b90508460200151821061104d5761104d85611048836002611a3f565b6111dd565b8451602083820101858153508051821115611066578181525b5093949350505050565b8151610e3590601f611fe0600585901b1617611007565b60408051808201909152606081526000602082015283515160006110ab828561193c565b905085602001518111156110c8576110c886611048836002611a3f565b600060016110d886610100611997565b6110e29190611a5e565b90508651828101878319825116178152508051831115611100578281525b50959695505050505050565b604080518082019091526060815260006020820152825182111561112f57600080fd5b835151600061113e848361193c565b9050856020015181111561115b5761115b86611048836002611a3f565b855180518382016020019160009180851115611175578482525b505050602086015b602086106111b5578051825261119460208361193c565b91506111a160208261193c565b90506111ae602087611a5e565b955061117d565b51815160001960208890036101000a0190811690199190911617905250849150509392505050565b81516111e98383610da2565b5061026e8382610fdf565b82805461120090611aae565b90600052602060002090601f0160209004810192826112225760008555611268565b82601f1061123b57805160ff1916838001178555611268565b82800160010185558215611268579182015b8281111561126857825182559160200191906001019061124d565b506112749291506112ad565b5090565b60405180604001604052806112a0604051806040016040528060608152602001600081525090565b8152602001600081525090565b5b8082111561127457600081556001016112ae565b600067ffffffffffffffff808411156112dd576112dd611b68565b8360051b60206112ee8183016118e3565b86815293508084018583810189101561130657600080fd5b60009350835b8881101561134157813586811115611322578586fd5b61132e8b828b016113b7565b845250918301919083019060010161130c565b5050505050509392505050565b600082601f83011261135f57600080fd5b611000838335602085016112c2565b60008083601f84011261138057600080fd5b50813567ffffffffffffffff81111561139857600080fd5b6020830191508360208285010111156113b057600080fd5b9250929050565b600082601f8301126113c857600080fd5b81356113db6113d682611914565b6118e3565b8181528460208386010111156113f057600080fd5b816020850160208301376000918101602001919091529392505050565b80356001811061141c57600080fd5b919050565b80356002811061141c57600080fd5b803563ffffffff8116811461141c57600080fd5b803567ffffffffffffffff8116811461141c57600080fd5b60006020828403121561146e57600080fd5b813561100081611b7e565b60006020828403121561148b57600080fd5b815161100081611b7e565b600080604083850312156114a957600080fd5b82356114b481611b7e565b946020939093013593505050565b6000602082840312156114d457600080fd5b5051919050565b6000806000606084860312156114f057600080fd5b83359250602084013567ffffffffffffffff8082111561150f57600080fd5b61151b878388016113b7565b9350604086013591508082111561153157600080fd5b5061153e868287016113b7565b9150509250925092565b60006020828403121561155a57600080fd5b815167ffffffffffffffff81111561157157600080fd5b8201601f8101841361158257600080fd5b80516115906113d682611914565b8181528560208385010111156115a557600080fd5b61060b826020830160208601611a82565b60008060008060008060008060a0898b0312156115d257600080fd5b883567ffffffffffffffff808211156115ea57600080fd5b6115f68c838d0161136e565b909a50985060208b013591508082111561160f57600080fd5b61161b8c838d0161136e565b909850965060408b013591508082111561163457600080fd5b818b0191508b601f83011261164857600080fd5b81358181111561165757600080fd5b8c60208260051b850101111561166c57600080fd5b60208301965080955050505061168460608a01611444565b915061169260808a01611430565b90509295985092959890939650565b600080600080608085870312156116b757600080fd5b843567ffffffffffffffff808211156116cf57600080fd5b9086019060c082890312156116e357600080fd5b6116eb6118ba565b6116f483611421565b815261170260208401611421565b60208201526117136040840161140d565b604082015260608301358281111561172a57600080fd5b6117368a8286016113b7565b60608301525060808301358281111561174e57600080fd5b61175a8a8286016113b7565b60808301525060a08301358281111561177257600080fd5b61177e8a82860161134e565b60a083015250955061179591505060208601611444565b92506117a360408601611430565b9396929550929360600135925050565b6000602082840312156117c557600080fd5b81516bffffffffffffffffffffffff8116811461100057600080fd5b600081518084526117f9816020860160208601611a82565b601f01601f19169290920160200192915050565b60208152600061100060208301846117e1565b60408152600061183360408301856117e1565b828103602084015261060b81856117e1565b67ffffffffffffffff8416815260606020820152600061186860608301856117e1565b905063ffffffff83166040830152949350505050565b67ffffffffffffffff851681526080602082015260006118a160808301866117e1565b63ffffffff949094166040830152506060015292915050565b60405160c0810167ffffffffffffffff811182821017156118dd576118dd611b68565b60405290565b604051601f8201601f1916810167ffffffffffffffff8111828210171561190c5761190c611b68565b604052919050565b600067ffffffffffffffff82111561192e5761192e611b68565b50601f01601f191660200190565b6000821982111561194f5761194f611b26565b500190565b600181815b8085111561198f57816000190482111561197557611975611b26565b8085161561198257918102915b93841c9390800290611959565b509250929050565b600061100083836000826119ad57506001610e16565b816119ba57506000610e16565b81600181146119d057600281146119da576119f6565b6001915050610e16565b60ff8411156119eb576119eb611b26565b50506001821b610e16565b5060208310610133831016604e8410600b8410161715611a19575081810a610e16565b611a238383611954565b8060001904821115611a3757611a37611b26565b029392505050565b6000816000190483118215151615611a5957611a59611b26565b500290565b600082821015611a7057611a70611b26565b500390565b60006110003684846112c2565b60005b83811015611a9d578181015183820152602001611a85565b8381111561026e5750506000910152565b600181811c90821680611ac257607f821691505b60208210811415611ae357634e487b7160e01b600052602260045260246000fd5b50919050565b6000600019821415611afd57611afd611b26565b5060010190565b600082611b2157634e487b7160e01b600052601260045260246000fd5b500690565b634e487b7160e01b600052601160045260246000fd5b634e487b7160e01b600052602160045260246000fd5b634e487b7160e01b600052603260045260246000fd5b634e487b7160e01b600052604160045260246000fd5b6001600160a01b038116811461062557600080fdfea2646970667358221220ae4013f2da3d7a692fbed8b5170b42a7b4fd3c7ca6e0f339205ffac11e06ba3164736f6c63430008070033",
  "linkReferences": {},
  "deployedLinkReferences": {}
}