{
  "_format": "hh-sol-artifact-1",
  "contractName": "FunctionsConsumer",
  "sourceName": "contracts/FunctionsConsumer.sol",
  "abi": [
    {
      "inputs": [
        {
          "internalType": "address",
          "name": "oracle",
          "type": "address"
        }
      ],
      "stateMutability": "nonpayable",
      "type": "constructor"
    },
    {
      "inputs": [],
      "name": "EmptyArgs",
      "type": "error"
    },
    {
      "inputs": [],
      "name": "EmptySecrets",
      "type": "error"
    },
    {
      "inputs": [],
      "name": "EmptySource",
      "type": "error"
    },
    {
      "inputs": [],
      "name": "NoInlineSecrets",
      "type": "error"
    },
    {
      "inputs": [],
      "name": "RequestIsAlreadyPending",
      "type": "error"
    },
    {
      "inputs": [],
      "name": "RequestIsNotPending",
      "type": "error"
    },
    {
      "inputs": [],
      "name": "SenderIsNotRegistry",
      "type": "error"
    },
    {
      "anonymous": false,
      "inputs": [
        {
          "indexed": true,
          "internalType": "bytes32",
          "name": "requestId",
          "type": "bytes32"
        },
        {
          "indexed": false,
          "internalType": "bytes",
          "name": "result",
          "type": "bytes"
        },
        {
          "indexed": false,
          "internalType": "bytes",
          "name": "err",
          "type": "bytes"
        }
      ],
      "name": "OCRResponse",
      "type": "event"
    },
    {
      "anonymous": false,
      "inputs": [
        {
          "indexed": true,
          "internalType": "address",
          "name": "from",
          "type": "address"
        },
        {
          "indexed": true,
          "internalType": "address",
          "name": "to",
          "type": "address"
        }
      ],
      "name": "OwnershipTransferRequested",
      "type": "event"
    },
    {
      "anonymous": false,
      "inputs": [
        {
          "indexed": true,
          "internalType": "address",
          "name": "from",
          "type": "address"
        },
        {
          "indexed": true,
          "internalType": "address",
          "name": "to",
          "type": "address"
        }
      ],
      "name": "OwnershipTransferred",
      "type": "event"
    },
    {
      "anonymous": false,
      "inputs": [
        {
          "indexed": true,
          "internalType": "bytes32",
          "name": "id",
          "type": "bytes32"
        }
      ],
      "name": "RequestFulfilled",
      "type": "event"
    },
    {
      "anonymous": false,
      "inputs": [
        {
          "indexed": true,
          "internalType": "bytes32",
          "name": "id",
          "type": "bytes32"
        }
      ],
      "name": "RequestSent",
      "type": "event"
    },
    {
      "inputs": [],
      "name": "acceptOwnership",
      "outputs": [],
      "stateMutability": "nonpayable",
      "type": "function"
    },
    {
      "inputs": [
        {
          "internalType": "address",
          "name": "oracleAddress",
          "type": "address"
        },
        {
          "internalType": "bytes32",
          "name": "requestId",
          "type": "bytes32"
        }
      ],
      "name": "addSimulatedRequestId",
      "outputs": [],
      "stateMutability": "nonpayable",
      "type": "function"
    },
    {
      "inputs": [
        {
          "internalType": "bytes",
          "name": "byteCode",
          "type": "bytes"
        }
      ],
      "name": "bytesToString",
      "outputs": [
        {
          "internalType": "string",
          "name": "stringData",
          "type": "string"
        }
      ],
      "stateMutability": "pure",
      "type": "function"
    },
    {
      "inputs": [
        {
          "components": [
            {
              "internalType": "enum Functions.Location",
              "name": "codeLocation",
              "type": "uint8"
            },
            {
              "internalType": "enum Functions.Location",
              "name": "secretsLocation",
              "type": "uint8"
            },
            {
              "internalType": "enum Functions.CodeLanguage",
              "name": "language",
              "type": "uint8"
            },
            {
              "internalType": "string",
              "name": "source",
              "type": "string"
            },
            {
              "internalType": "bytes",
              "name": "secrets",
              "type": "bytes"
            },
            {
              "internalType": "string[]",
              "name": "args",
              "type": "string[]"
            }
          ],
          "internalType": "struct Functions.Request",
          "name": "req",
          "type": "tuple"
        },
        {
          "internalType": "uint64",
          "name": "subscriptionId",
          "type": "uint64"
        },
        {
          "internalType": "uint32",
          "name": "gasLimit",
          "type": "uint32"
        },
        {
          "internalType": "uint256",
          "name": "gasPrice",
          "type": "uint256"
        }
      ],
      "name": "estimateCost",
      "outputs": [
        {
          "internalType": "uint96",
          "name": "",
          "type": "uint96"
        }
      ],
      "stateMutability": "view",
      "type": "function"
    },
    {
      "inputs": [
        {
          "internalType": "string",
          "name": "source",
          "type": "string"
        },
        {
          "internalType": "bytes",
          "name": "secrets",
          "type": "bytes"
        },
        {
          "internalType": "string[]",
          "name": "args",
          "type": "string[]"
        },
        {
          "internalType": "uint64",
          "name": "subscriptionId",
          "type": "uint64"
        },
        {
          "internalType": "uint32",
          "name": "gasLimit",
          "type": "uint32"
        }
      ],
      "name": "executeRequest",
      "outputs": [
        {
          "internalType": "bytes32",
          "name": "",
          "type": "bytes32"
        }
      ],
      "stateMutability": "nonpayable",
      "type": "function"
    },
    {
      "inputs": [],
      "name": "getDONPublicKey",
      "outputs": [
        {
          "internalType": "bytes",
          "name": "",
          "type": "bytes"
        }
      ],
      "stateMutability": "view",
      "type": "function"
    },
    {
      "inputs": [
        {
          "internalType": "bytes32",
          "name": "requestId",
          "type": "bytes32"
        },
        {
          "internalType": "bytes",
          "name": "response",
          "type": "bytes"
        },
        {
          "internalType": "bytes",
          "name": "err",
          "type": "bytes"
        }
      ],
      "name": "handleOracleFulfillment",
      "outputs": [],
      "stateMutability": "nonpayable",
      "type": "function"
    },
    {
      "inputs": [],
      "name": "latestError",
      "outputs": [
        {
          "internalType": "bytes",
          "name": "",
          "type": "bytes"
        }
      ],
      "stateMutability": "view",
      "type": "function"
    },
    {
      "inputs": [],
      "name": "latestRequestId",
      "outputs": [
        {
          "internalType": "bytes32",
          "name": "",
          "type": "bytes32"
        }
      ],
      "stateMutability": "view",
      "type": "function"
    },
    {
      "inputs": [],
      "name": "latestResponse",
      "outputs": [
        {
          "internalType": "bytes",
          "name": "",
          "type": "bytes"
        }
      ],
      "stateMutability": "view",
      "type": "function"
    },
    {
      "inputs": [],
      "name": "owner",
      "outputs": [
        {
          "internalType": "address",
          "name": "",
          "type": "address"
        }
      ],
      "stateMutability": "view",
      "type": "function"
    },
    {
      "inputs": [
        {
          "internalType": "address",
          "name": "to",
          "type": "address"
        }
      ],
      "name": "transferOwnership",
      "outputs": [],
      "stateMutability": "nonpayable",
      "type": "function"
    },
    {
      "inputs": [
        {
          "internalType": "address",
          "name": "oracle",
          "type": "address"
        }
      ],
      "name": "updateOracleAddress",
      "outputs": [],
      "stateMutability": "nonpayable",
      "type": "function"
    }
  ],
  "bytecode": "0x60806040523480156200001157600080fd5b5060405162001f1a38038062001f1a833981016040819052620000349162000199565b600080546001600160a01b0319166001600160a01b038316178155339081906001600160a01b038216620000af5760405162461bcd60e51b815260206004820152601860248201527f43616e6e6f7420736574206f776e657220746f207a65726f000000000000000060448201526064015b60405180910390fd5b600280546001600160a01b0319166001600160a01b0384811691909117909155811615620000e257620000e281620000ec565b50505050620001cb565b6001600160a01b038116331415620001475760405162461bcd60e51b815260206004820152601760248201527f43616e6e6f74207472616e7366657220746f2073656c660000000000000000006044820152606401620000a6565b600380546001600160a01b0319166001600160a01b03838116918217909255600254604051919216907fed8889f560326eb138920d842192f0eb3dd22b4f139c87a2c57538e05bae127890600090a350565b600060208284031215620001ac57600080fd5b81516001600160a01b0381168114620001c457600080fd5b9392505050565b611d3f80620001db6000396000f3fe608060405234801561001057600080fd5b50600436106100df5760003560e01c80638da5cb5b1161008c578063d4b3917511610066578063d4b391751461018e578063f2fde38b146101be578063f7023bb6146101d1578063fffeb84e146101e457600080fd5b80638da5cb5b14610163578063bef3a2f01461017e578063d328a91e1461018657600080fd5b806330bda99d116100bd57806330bda99d1461012857806339614e4f1461013b57806379ba50971461015b57600080fd5b80630ca76175146100e45780631aa46f59146100f95780632771458914610115575b600080fd5b6100f76100f23660046115f8565b6101ec565b005b61010260045481565b6040519081526020015b60405180910390f35b610102610123366004611710565b610292565b6100f76101363660046115b3565b6103a0565b61014e610149366004611665565b6103b6565b60405161010c9190611967565b6100f76104a8565b6002546040516001600160a01b03909116815260200161010c565b61014e610562565b61014e6105f0565b6101a161019c3660046117fb565b61068e565b6040516bffffffffffffffffffffffff909116815260200161010c565b6100f76101cc366004611579565b610724565b6100f76101df366004611579565b610738565b61014e61075e565b60008381526001602052604090205483906001600160a01b0316331461023e576040517fa0c5ec6300000000000000000000000000000000000000000000000000000000815260040160405180910390fd5b60008181526001602052604080822080546001600160a01b03191690555182917f85e1543bf2f84fe80c6badbce3648c8539ad1df4d2b3d822938ca0538be727e691a261028c84848461076b565b50505050565b600061029c6107df565b6102d66040805160c08101909152806000815260200160008152602001600081526020016060815260200160608152602001606081525090565b61031d6000808c8c8080601f0160208091040260200160405190810160405280939291908181526020018383808284376000920191909152508795949392505061083b9050565b86156103655761036588888080601f01602080910402602001604051908101604052809392919081815260200183838082843760009201919091525085939250506108cf9050565b841561037f5761037f6103788688611be3565b8290610916565b600061038c828686610956565b60048190559b9a5050505050505050505050565b6103a86107df565b6103b28282610ac8565b5050565b8051606090600090816103ca602083611aae565b90508160006103da602083611c72565b11156103fc57816103ea81611c57565b92506103f99050602082611a96565b90505b8067ffffffffffffffff81111561041557610415611cde565b6040519080825280601f01601f19166020018201604052801561043f576020820181803683370190505b509450600060208601602088015b8483101561046c5780518252600192909201916020918201910161044d565b505050600060208461047e9190611c72565b111561049f576000610491846020611a96565b602086015190870152508285525b50505050919050565b6003546001600160a01b031633146105075760405162461bcd60e51b815260206004820152601660248201527f4d7573742062652070726f706f736564206f776e65720000000000000000000060448201526064015b60405180910390fd5b600280546001600160a01b0319808216339081179093556003805490911690556040516001600160a01b03909116919082907f8be0079c531659141344cd1fd0a4f28419497f9722a3daafe3b4186f6b6457e090600090a350565b6005805461056f90611c1c565b80601f016020809104026020016040519081016040528092919081815260200182805461059b90611c1c565b80156105e85780601f106105bd576101008083540402835291602001916105e8565b820191906000526020600020905b8154815290600101906020018083116105cb57829003601f168201915b505050505081565b60008054604080517fd328a91e00000000000000000000000000000000000000000000000000000000815290516060936001600160a01b039093169263d328a91e9260048082019391829003018186803b15801561064d57600080fd5b505afa158015610661573d6000803e3d6000fd5b505050506040513d6000823e601f3d908101601f1916820160405261068991908101906116a2565b905090565b600080546001600160a01b031663d227d245856106aa88610b48565b86866040518563ffffffff1660e01b81526004016106cb94939291906119d8565b60206040518083038186803b1580156106e357600080fd5b505afa1580156106f7573d6000803e3d6000fd5b505050506040513d601f19601f8201168201806040525081019061071b919061190d565b95945050505050565b61072c6107df565b61073581610e14565b50565b6107406107df565b600080546001600160a01b0319166001600160a01b03831617905550565b6006805461056f90611c1c565b815161077e906005906020850190611311565b508051610792906006906020840190611311565b50827f7bab0ec163b5c132c72b8146ac4d6e067e82ed58f8b131150aa71c925891156283836040516107c592919061197a565b60405180910390a260006107d8836103b6565b5050505050565b6002546001600160a01b031633146108395760405162461bcd60e51b815260206004820152601660248201527f4f6e6c792063616c6c61626c65206279206f776e65720000000000000000000060448201526064016104fe565b565b8051610873576040517f22ce3edd00000000000000000000000000000000000000000000000000000000815260040160405180910390fd5b8383600181111561088657610886611cb2565b9081600181111561089957610899611cb2565b905250604084018280156108af576108af611cb2565b908180156108bf576108bf611cb2565b9052506060909301929092525050565b8051610907576040517fe889636f00000000000000000000000000000000000000000000000000000000815260040160405180910390fd5b60016020830152608090910152565b805161094e576040517ffe936cb700000000000000000000000000000000000000000000000000000000815260040160405180910390fd5b60a090910152565b6000805481906001600160a01b03166328242b048561097488610b48565b866040518463ffffffff1660e01b81526004016109939392919061199f565b602060405180830381600087803b1580156109ad57600080fd5b505af11580156109c1573d6000803e3d6000fd5b505050506040513d601f19601f820116820180604052508101906109e591906115df565b905060008054906101000a90046001600160a01b03166001600160a01b0316635ab1bd536040518163ffffffff1660e01b815260040160206040518083038186803b158015610a3357600080fd5b505afa158015610a47573d6000803e3d6000fd5b505050506040513d601f19601f82011682018060405250810190610a6b9190611596565b60008281526001602052604080822080546001600160a01b0319166001600160a01b039490941693909317909255905182917f1131472297a800fee664d1d89cfa8f7676ff07189ecc53f80bbb5f4969099db891a2949350505050565b60008181526001602052604090205481906001600160a01b031615610b19576040517f8b457ad200000000000000000000000000000000000000000000000000000000815260040160405180910390fd5b50600090815260016020526040902080546001600160a01b0319166001600160a01b0392909216919091179055565b6060610b52611395565b8051610b6090610100610ebf565b50610ba0816040518060400160405280600c81526020017f636f64654c6f636174696f6e0000000000000000000000000000000000000000815250610f39565b610bbf8184600001516001811115610bba57610bba611cb2565b610f57565b610bfe816040518060400160405280600881526020017f6c616e6775616765000000000000000000000000000000000000000000000000815250610f39565b610c188184604001516000811115610bba57610bba611cb2565b610c57816040518060400160405280600681526020017f736f757263650000000000000000000000000000000000000000000000000000815250610f39565b610c65818460600151610f39565b60a08301515115610d0b57610caf816040518060400160405280600481526020017f6172677300000000000000000000000000000000000000000000000000000000815250610f39565b610cb881610f90565b60005b8360a0015151811015610d0157610cef828560a001518381518110610ce257610ce2611cc8565b6020026020010151610f39565b80610cf981611c57565b915050610cbb565b50610d0b81610fb4565b60808301515115610e0c57600083602001516001811115610d2e57610d2e611cb2565b1415610d66576040517fa80d31f700000000000000000000000000000000000000000000000000000000815260040160405180910390fd5b610da5816040518060400160405280600f81526020017f736563726574734c6f636174696f6e0000000000000000000000000000000000815250610f39565b610dbf8184602001516001811115610bba57610bba611cb2565b610dfe816040518060400160405280600781526020017f7365637265747300000000000000000000000000000000000000000000000000815250610f39565b610e0c818460800151610fd2565b515192915050565b6001600160a01b038116331415610e6d5760405162461bcd60e51b815260206004820152601760248201527f43616e6e6f74207472616e7366657220746f2073656c6600000000000000000060448201526064016104fe565b600380546001600160a01b0319166001600160a01b03838116918217909255600254604051919216907fed8889f560326eb138920d842192f0eb3dd22b4f139c87a2c57538e05bae127890600090a350565b604080518082019091526060815260006020820152610edf602083611c72565b15610f0757610eef602083611c72565b610efa906020611bcc565b610f049083611a96565b91505b602080840183905260405180855260008152908184010181811015610f2b57600080fd5b604052508290505b92915050565b610f468260038351610fdb565b8151610f5290826110fc565b505050565b8151610f649060c2611124565b506103b28282604051602001610f7c91815260200190565b604051602081830303815290604052610fd2565b610f9b81600461118d565b600181602001818151610fae9190611a96565b90525050565b610fbf81600761118d565b600181602001818151610fae9190611bcc565b610f4682600283515b60178167ffffffffffffffff161161100257825161028c9060e0600585901b168317611124565b60ff8167ffffffffffffffff161161104457825161102b906018611fe0600586901b1617611124565b50825161028c9067ffffffffffffffff831660016111a4565b61ffff8167ffffffffffffffff161161108757825161106e906019611fe0600586901b1617611124565b50825161028c9067ffffffffffffffff831660026111a4565b63ffffffff8167ffffffffffffffff16116110cc5782516110b390601a611fe0600586901b1617611124565b50825161028c9067ffffffffffffffff831660046111a4565b82516110e390601b611fe0600586901b1617611124565b50825161028c9067ffffffffffffffff831660086111a4565b60408051808201909152606081526000602082015261111d83838451611229565b9392505050565b6040805180820190915260608152600060208201528251516000611149826001611a96565b90508460200151821061116a5761116a85611165836002611bad565b6112fa565b8451602083820101858153508051821115611183578181525b5093949350505050565b8151610f5290601f611fe0600585901b1617611124565b60408051808201909152606081526000602082015283515160006111c88285611a96565b905085602001518111156111e5576111e586611165836002611bad565b600060016111f586610100611b05565b6111ff9190611bcc565b9050865182810187831982511617815250805183111561121d578281525b50959695505050505050565b604080518082019091526060815260006020820152825182111561124c57600080fd5b835151600061125b8483611a96565b905085602001518111156112785761127886611165836002611bad565b855180518382016020019160009180851115611292578482525b505050602086015b602086106112d257805182526112b1602083611a96565b91506112be602082611a96565b90506112cb602087611bcc565b955061129a565b51815160001960208890036101000a0190811690199190911617905250849150509392505050565b81516113068383610ebf565b5061028c83826110fc565b82805461131d90611c1c565b90600052602060002090601f01602090048101928261133f5760008555611385565b82601f1061135857805160ff1916838001178555611385565b82800160010185558215611385579182015b8281111561138557825182559160200191906001019061136a565b506113919291506113ca565b5090565b60405180604001604052806113bd604051806040016040528060608152602001600081525090565b8152602001600081525090565b5b8082111561139157600081556001016113cb565b600067ffffffffffffffff808411156113fa576113fa611cde565b8360051b602061140b818301611a3d565b86815293508084018583810189101561142357600080fd5b60009350835b8881101561145e5781358681111561143f578586fd5b61144b8b828b016114d4565b8452509183019190830190600101611429565b5050505050509392505050565b600082601f83011261147c57600080fd5b61111d838335602085016113df565b60008083601f84011261149d57600080fd5b50813567ffffffffffffffff8111156114b557600080fd5b6020830191508360208285010111156114cd57600080fd5b9250929050565b600082601f8301126114e557600080fd5b81356114f86114f382611a6e565b611a3d565b81815284602083860101111561150d57600080fd5b816020850160208301376000918101602001919091529392505050565b80356001811061153957600080fd5b919050565b80356002811061153957600080fd5b803563ffffffff8116811461153957600080fd5b803567ffffffffffffffff8116811461153957600080fd5b60006020828403121561158b57600080fd5b813561111d81611cf4565b6000602082840312156115a857600080fd5b815161111d81611cf4565b600080604083850312156115c657600080fd5b82356115d181611cf4565b946020939093013593505050565b6000602082840312156115f157600080fd5b5051919050565b60008060006060848603121561160d57600080fd5b83359250602084013567ffffffffffffffff8082111561162c57600080fd5b611638878388016114d4565b9350604086013591508082111561164e57600080fd5b5061165b868287016114d4565b9150509250925092565b60006020828403121561167757600080fd5b813567ffffffffffffffff81111561168e57600080fd5b61169a848285016114d4565b949350505050565b6000602082840312156116b457600080fd5b815167ffffffffffffffff8111156116cb57600080fd5b8201601f810184136116dc57600080fd5b80516116ea6114f382611a6e565b8181528560208385010111156116ff57600080fd5b61071b826020830160208601611bf0565b60008060008060008060008060a0898b03121561172c57600080fd5b883567ffffffffffffffff8082111561174457600080fd5b6117508c838d0161148b565b909a50985060208b013591508082111561176957600080fd5b6117758c838d0161148b565b909850965060408b013591508082111561178e57600080fd5b818b0191508b601f8301126117a257600080fd5b8135818111156117b157600080fd5b8c60208260051b85010111156117c657600080fd5b6020830196508095505050506117de60608a01611561565b91506117ec60808a0161154d565b90509295985092959890939650565b6000806000806080858703121561181157600080fd5b843567ffffffffffffffff8082111561182957600080fd5b9086019060c0828903121561183d57600080fd5b611845611a14565b61184e8361153e565b815261185c6020840161153e565b602082015261186d6040840161152a565b604082015260608301358281111561188457600080fd5b6118908a8286016114d4565b6060830152506080830135828111156118a857600080fd5b6118b48a8286016114d4565b60808301525060a0830135828111156118cc57600080fd5b6118d88a82860161146b565b60a08301525095506118ef91505060208601611561565b92506118fd6040860161154d565b9396929550929360600135925050565b60006020828403121561191f57600080fd5b81516bffffffffffffffffffffffff8116811461111d57600080fd5b60008151808452611953816020860160208601611bf0565b601f01601f19169290920160200192915050565b60208152600061111d602083018461193b565b60408152600061198d604083018561193b565b828103602084015261071b818561193b565b67ffffffffffffffff841681526060602082015260006119c2606083018561193b565b905063ffffffff83166040830152949350505050565b67ffffffffffffffff851681526080602082015260006119fb608083018661193b565b63ffffffff949094166040830152506060015292915050565b60405160c0810167ffffffffffffffff81118282101715611a3757611a37611cde565b60405290565b604051601f8201601f1916810167ffffffffffffffff81118282101715611a6657611a66611cde565b604052919050565b600067ffffffffffffffff821115611a8857611a88611cde565b50601f01601f191660200190565b60008219821115611aa957611aa9611c86565b500190565b600082611abd57611abd611c9c565b500490565b600181815b80851115611afd578160001904821115611ae357611ae3611c86565b80851615611af057918102915b93841c9390800290611ac7565b509250929050565b600061111d8383600082611b1b57506001610f33565b81611b2857506000610f33565b8160018114611b3e5760028114611b4857611b64565b6001915050610f33565b60ff841115611b5957611b59611c86565b50506001821b610f33565b5060208310610133831016604e8410600b8410161715611b87575081810a610f33565b611b918383611ac2565b8060001904821115611ba557611ba5611c86565b029392505050565b6000816000190483118215151615611bc757611bc7611c86565b500290565b600082821015611bde57611bde611c86565b500390565b600061111d3684846113df565b60005b83811015611c0b578181015183820152602001611bf3565b8381111561028c5750506000910152565b600181811c90821680611c3057607f821691505b60208210811415611c5157634e487b7160e01b600052602260045260246000fd5b50919050565b6000600019821415611c6b57611c6b611c86565b5060010190565b600082611c8157611c81611c9c565b500690565b634e487b7160e01b600052601160045260246000fd5b634e487b7160e01b600052601260045260246000fd5b634e487b7160e01b600052602160045260246000fd5b634e487b7160e01b600052603260045260246000fd5b634e487b7160e01b600052604160045260246000fd5b6001600160a01b038116811461073557600080fdfea264697066735822122016a72baadc8b67e18450ba3046d501383b4db9f9fc19260cf2a0a831d4104bdd64736f6c63430008070033",
  "linkReferences": {},
  "deployedLinkReferences": {}
}