{
  "_format": "hh-sol-artifact-1",
  "contractName": "VRFv2SubscriptionManager",
  "sourceName": "contracts/VRFv2SubscriptionManager.sol",
  "abi": [
    {
      "inputs": [
        {
          "internalType": "address",
          "name": "_vrfCoordinator",
          "type": "address"
        },
        {
          "internalType": "address",
          "name": "_link",
          "type": "address"
        },
        {
          "internalType": "bytes32",
          "name": "_keyHash",
          "type": "bytes32"
        },
        {
          "internalType": "uint16",
          "name": "_requestConfirmations",
          "type": "uint16"
        },
        {
          "internalType": "uint32",
          "name": "_gasLimit",
          "type": "uint32"
        },
        {
          "internalType": "uint32",
          "name": "_merkleTreeHeight",
          "type": "uint32"
        }
      ],
      "stateMutability": "nonpayable",
      "type": "constructor"
    },
    {
      "inputs": [
        {
          "internalType": "address",
          "name": "have",
          "type": "address"
        },
        {
          "internalType": "address",
          "name": "want",
          "type": "address"
        }
      ],
      "name": "OnlyCoordinatorCanFulfill",
      "type": "error"
    },
    {
      "inputs": [],
      "name": "COORDINATOR",
      "outputs": [
        {
          "internalType": "contract VRFCoordinatorV2Interface",
          "name": "",
          "type": "address"
        }
      ],
      "stateMutability": "view",
      "type": "function"
    },
    {
      "inputs": [],
      "name": "GAS_LIMIT",
      "outputs": [
        {
          "internalType": "uint32",
          "name": "",
          "type": "uint32"
        }
      ],
      "stateMutability": "view",
      "type": "function"
    },
    {
      "inputs": [],
      "name": "KEY_HASH",
      "outputs": [
        {
          "internalType": "bytes32",
          "name": "",
          "type": "bytes32"
        }
      ],
      "stateMutability": "view",
      "type": "function"
    },
    {
      "inputs": [],
      "name": "LINKTOKEN",
      "outputs": [
        {
          "internalType": "contract LinkTokenInterface",
          "name": "",
          "type": "address"
        }
      ],
      "stateMutability": "view",
      "type": "function"
    },
    {
      "inputs": [],
      "name": "NUM_WORDS",
      "outputs": [
        {
          "internalType": "uint32",
          "name": "",
          "type": "uint32"
        }
      ],
      "stateMutability": "view",
      "type": "function"
    },
    {
      "inputs": [],
      "name": "REQUEST_CONFIRMATIONS",
      "outputs": [
        {
          "internalType": "uint16",
          "name": "",
          "type": "uint16"
        }
      ],
      "stateMutability": "view",
      "type": "function"
    },
    {
      "inputs": [],
      "name": "SUBSCRIPTION_AMOUNT",
      "outputs": [
        {
          "internalType": "uint256",
          "name": "",
          "type": "uint256"
        }
      ],
      "stateMutability": "view",
      "type": "function"
    },
    {
      "inputs": [],
      "name": "getRandomWords",
      "outputs": [
        {
          "internalType": "uint256[]",
          "name": "",
          "type": "uint256[]"
        }
      ],
      "stateMutability": "view",
      "type": "function"
    },
    {
      "inputs": [],
      "name": "owner",
      "outputs": [
        {
          "internalType": "address",
          "name": "",
          "type": "address"
        }
      ],
      "stateMutability": "view",
      "type": "function"
    },
    {
      "inputs": [
        {
          "internalType": "uint256",
          "name": "requestId",
          "type": "uint256"
        },
        {
          "internalType": "uint256[]",
          "name": "randomWords",
          "type": "uint256[]"
        }
      ],
      "name": "rawFulfillRandomWords",
      "outputs": [],
      "stateMutability": "nonpayable",
      "type": "function"
    },
    {
      "inputs": [],
      "name": "requestRandomWords",
      "outputs": [],
      "stateMutability": "nonpayable",
      "type": "function"
    },
    {
      "inputs": [
        {
          "internalType": "uint256",
          "name": "",
          "type": "uint256"
        }
      ],
      "name": "s_randomWords",
      "outputs": [
        {
          "internalType": "uint256",
          "name": "",
          "type": "uint256"
        }
      ],
      "stateMutability": "view",
      "type": "function"
    },
    {
      "inputs": [],
      "name": "s_requestId",
      "outputs": [
        {
          "internalType": "uint256",
          "name": "",
          "type": "uint256"
        }
      ],
      "stateMutability": "view",
      "type": "function"
    },
    {
      "inputs": [],
      "name": "s_subscriptionId",
      "outputs": [
        {
          "internalType": "uint64",
          "name": "",
          "type": "uint64"
        }
      ],
      "stateMutability": "view",
      "type": "function"
    }
  ],
  "bytecode": "0x6101406040523480156200001257600080fd5b5060405162000f9338038062000f938339810160408190526200003591620000dc565b6001600160a01b038681166080819052600080546001600160a01b031990811690921790556001805490911691871691909117905560a084905261ffff831660c05263ffffffff821660e0526200008e81600262000271565b63ffffffff166101005250503361012052506200028c92505050565b80516001600160a01b0381168114620000c257600080fd5b919050565b805163ffffffff81168114620000c257600080fd5b60008060008060008060c08789031215620000f657600080fd5b6200010187620000aa565b95506200011160208801620000aa565b945060408701519350606087015161ffff811681146200013057600080fd5b92506200014060808801620000c7565b91506200015060a08801620000c7565b90509295509295509295565b634e487b7160e01b600052601160045260246000fd5b600181815b80851115620001b35781600019048211156200019757620001976200015c565b80851615620001a557918102915b93841c939080029062000177565b509250929050565b600082620001cc575060016200026b565b81620001db575060006200026b565b8160018114620001f45760028114620001ff576200021f565b60019150506200026b565b60ff8411156200021357620002136200015c565b50506001821b6200026b565b5060208310610133831016604e8410600b841016171562000244575081810a6200026b565b62000250838362000172565b80600019048211156200026757620002676200015c565b0290505b92915050565b60006200028563ffffffff841683620001bb565b9392505050565b60805160a05160c05160e0516101005161012051610c8e620003056000396000818161024b01526103a50152600081816101f7015261055d01526000818160f401526105350152600081816101bd015261050901526000818161017501526104cf0152600081816102c001526103020152610c8e6000f3fe608060405234801561001057600080fd5b50600436106100ea5760003560e01c80638ac000211161008c578063ce10b1fb11610066578063ce10b1fb1461027c578063e0c8628914610291578063e89e106a14610299578063f6eaffc8146102a257600080fd5b80638ac00021146102195780638da5cb5b14610246578063c5fb22571461026d57600080fd5b806351dc86a5116100c857806351dc86a51461017057806355380dfb146101a557806367f082b0146101b857806372cf6e34146101f257600080fd5b8063091d2788146100ef5780631fe543e3146101305780633b2bcbf114610145575b600080fd5b6101167f000000000000000000000000000000000000000000000000000000000000000081565b60405163ffffffff90911681526020015b60405180910390f35b61014361013e366004610984565b6102b5565b005b600054610158906001600160a01b031681565b6040516001600160a01b039091168152602001610127565b6101977f000000000000000000000000000000000000000000000000000000000000000081565b604051908152602001610127565b600154610158906001600160a01b031681565b6101df7f000000000000000000000000000000000000000000000000000000000000000081565b60405161ffff9091168152602001610127565b6101167f000000000000000000000000000000000000000000000000000000000000000081565b60045461022d9067ffffffffffffffff1681565b60405167ffffffffffffffff9091168152602001610127565b6101587f000000000000000000000000000000000000000000000000000000000000000081565b610197670de0b6b3a764000081565b610284610342565b6040516101279190610a26565b61014361039a565b61019760035481565b6101976102b0366004610a6a565b610880565b336001600160a01b037f000000000000000000000000000000000000000000000000000000000000000016146103345760405163073e64fd60e21b81523360048201526001600160a01b037f00000000000000000000000000000000000000000000000000000000000000001660248201526044015b60405180910390fd5b61033e82826108a1565b5050565b6060600280548060200260200160405190810160405280929190818152602001828054801561039057602002820191906000526020600020905b81548152602001906001019080831161037c575b5050505050905090565b336001600160a01b037f0000000000000000000000000000000000000000000000000000000000000000161461040b5760405162461bcd60e51b815260206004820152601660248201527527b7363c9031b0b63630b1363290313c9037bbb732b960511b604482015260640161032b565b600080546004805460405163523e3b4b60e11b815267ffffffffffffffff909116918101919091526001600160a01b039091169063a47c76969060240160006040518083038186803b15801561046057600080fd5b505afa158015610474573d6000803e3d6000fd5b505050506040513d6000823e601f3d908101601f1916820160405261049c9190810190610a9f565b5050509050670de0b6b3a7640000816001600160601b0316106105ef57600054600480546040516305d3b1d360e41b81527f00000000000000000000000000000000000000000000000000000000000000009281019290925267ffffffffffffffff16602482015261ffff7f000000000000000000000000000000000000000000000000000000000000000016604482015263ffffffff7f0000000000000000000000000000000000000000000000000000000000000000811660648301527f00000000000000000000000000000000000000000000000000000000000000001660848201526001600160a01b0390911690635d3b1d309060a401602060405180830381600087803b1580156105b157600080fd5b505af11580156105c5573d6000803e3d6000fd5b505050506040513d601f19601f820116820180604052508101906105e99190610b85565b60035550565b6001546000546040516370a0823160e01b81526001600160a01b039182166004820152670de0b6b3a76400009291909116906370a082319060240160206040518083038186803b15801561064257600080fd5b505afa158015610656573d6000803e3d6000fd5b505050506040513d601f19601f8201168201806040525081019061067a9190610b85565b10156107a8576001546000546040516370a0823160e01b81526001600160a01b039182166004820181905291909216916323b872dd91339184906370a082319060240160206040518083038186803b1580156106d557600080fd5b505afa1580156106e9573d6000803e3d6000fd5b505050506040513d601f19601f8201168201806040525081019061070d9190610b85565b61071f90670de0b6b3a7640000610b9e565b6040516001600160e01b031960e086901b1681526001600160a01b0393841660048201529290911660248301526044820152606401602060405180830381600087803b15801561076e57600080fd5b505af1158015610782573d6000803e3d6000fd5b505050506040513d601f19601f820116820180604052508101906107a69190610bc3565b505b6001546000546001600160a01b0391821691634000aea091166107dc6001600160601b038516670de0b6b3a7640000610b9e565b6004546040805167ffffffffffffffff9092166020830152016040516020818303038152906040526040518463ffffffff1660e01b815260040161082293929190610bec565b602060405180830381600087803b15801561083c57600080fd5b505af1158015610850573d6000803e3d6000fd5b505050506040513d601f19601f820116820180604052508101906108749190610bc3565b5061087d61039a565b50565b6002818154811061089057600080fd5b600091825260209091200154905081565b80516108b49060029060208401906108b9565b505050565b8280548282559060005260206000209081019282156108f4579160200282015b828111156108f45782518255916020019190600101906108d9565b50610900929150610904565b5090565b5b808211156109005760008155600101610905565b634e487b7160e01b600052604160045260246000fd5b604051601f8201601f1916810167ffffffffffffffff8111828210171561095857610958610919565b604052919050565b600067ffffffffffffffff82111561097a5761097a610919565b5060051b60200190565b6000806040838503121561099757600080fd5b8235915060208084013567ffffffffffffffff8111156109b657600080fd5b8401601f810186136109c757600080fd5b80356109da6109d582610960565b61092f565b81815260059190911b820183019083810190888311156109f957600080fd5b928401925b82841015610a17578335825292840192908401906109fe565b80955050505050509250929050565b6020808252825182820181905260009190848201906040850190845b81811015610a5e57835183529284019291840191600101610a42565b50909695505050505050565b600060208284031215610a7c57600080fd5b5035919050565b80516001600160a01b0381168114610a9a57600080fd5b919050565b60008060008060808587031215610ab557600080fd5b84516001600160601b0381168114610acc57600080fd5b8094505060208086015167ffffffffffffffff8082168214610aed57600080fd5b819550610afc60408901610a83565b94506060880151915080821115610b1257600080fd5b508601601f81018813610b2457600080fd5b8051610b326109d582610960565b81815260059190911b8201830190838101908a831115610b5157600080fd5b928401925b82841015610b7657610b6784610a83565b82529284019290840190610b56565b979a9699509497505050505050565b600060208284031215610b9757600080fd5b5051919050565b600082821015610bbe57634e487b7160e01b600052601160045260246000fd5b500390565b600060208284031215610bd557600080fd5b81518015158114610be557600080fd5b9392505050565b60018060a01b038416815260006020848184015260606040840152835180606085015260005b81811015610c2e57858101830151858201608001528201610c12565b81811115610c40576000608083870101525b50601f01601f1916929092016080019594505050505056fea2646970667358221220346934b3193ffa949aa68fd872562eae853e6636de8c3c9d1ccab150da97217164736f6c63430008090033",
  "linkReferences": {},
  "deployedLinkReferences": {}
}