{
  "_format": "hh-sol-artifact-1",
  "contractName": "AutomatedFunctionsConsumer",
  "sourceName": "contracts/AutomatedFunctionsConsumer.sol",
  "abi": [
    {
      "inputs": [
        {
          "internalType": "address",
          "name": "oracle",
          "type": "address"
        },
        {
          "internalType": "uint64",
          "name": "_subscriptionId",
          "type": "uint64"
        },
        {
          "internalType": "uint32",
          "name": "_fulfillGasLimit",
          "type": "uint32"
        },
        {
          "internalType": "uint256",
          "name": "_updateInterval",
          "type": "uint256"
        }
      ],
      "stateMutability": "nonpayable",
      "type": "constructor"
    },
    {
      "inputs": [],
      "name": "EmptyArgs",
      "type": "error"
    },
    {
      "inputs": [],
      "name": "EmptySecrets",
      "type": "error"
    },
    {
      "inputs": [],
      "name": "EmptySource",
      "type": "error"
    },
    {
      "inputs": [],
      "name": "NoInlineSecrets",
      "type": "error"
    },
    {
      "inputs": [],
      "name": "RequestIsAlreadyPending",
      "type": "error"
    },
    {
      "inputs": [],
      "name": "RequestIsNotPending",
      "type": "error"
    },
    {
      "inputs": [],
      "name": "SenderIsNotRegistry",
      "type": "error"
    },
    {
      "anonymous": false,
      "inputs": [
        {
          "indexed": true,
          "internalType": "bytes32",
          "name": "requestId",
          "type": "bytes32"
        },
        {
          "indexed": false,
          "internalType": "bytes",
          "name": "result",
          "type": "bytes"
        },
        {
          "indexed": false,
          "internalType": "bytes",
          "name": "err",
          "type": "bytes"
        }
      ],
      "name": "OCRResponse",
      "type": "event"
    },
    {
      "anonymous": false,
      "inputs": [
        {
          "indexed": true,
          "internalType": "address",
          "name": "from",
          "type": "address"
        },
        {
          "indexed": true,
          "internalType": "address",
          "name": "to",
          "type": "address"
        }
      ],
      "name": "OwnershipTransferRequested",
      "type": "event"
    },
    {
      "anonymous": false,
      "inputs": [
        {
          "indexed": true,
          "internalType": "address",
          "name": "from",
          "type": "address"
        },
        {
          "indexed": true,
          "internalType": "address",
          "name": "to",
          "type": "address"
        }
      ],
      "name": "OwnershipTransferred",
      "type": "event"
    },
    {
      "anonymous": false,
      "inputs": [
        {
          "indexed": true,
          "internalType": "bytes32",
          "name": "id",
          "type": "bytes32"
        }
      ],
      "name": "RequestFulfilled",
      "type": "event"
    },
    {
      "anonymous": false,
      "inputs": [
        {
          "indexed": true,
          "internalType": "bytes32",
          "name": "id",
          "type": "bytes32"
        }
      ],
      "name": "RequestSent",
      "type": "event"
    },
    {
      "inputs": [],
      "name": "acceptOwnership",
      "outputs": [],
      "stateMutability": "nonpayable",
      "type": "function"
    },
    {
      "inputs": [
        {
          "internalType": "bytes",
          "name": "",
          "type": "bytes"
        }
      ],
      "name": "checkUpkeep",
      "outputs": [
        {
          "internalType": "bool",
          "name": "upkeepNeeded",
          "type": "bool"
        },
        {
          "internalType": "bytes",
          "name": "",
          "type": "bytes"
        }
      ],
      "stateMutability": "view",
      "type": "function"
    },
    {
      "inputs": [
        {
          "components": [
            {
              "internalType": "enum Functions.Location",
              "name": "codeLocation",
              "type": "uint8"
            },
            {
              "internalType": "enum Functions.Location",
              "name": "secretsLocation",
              "type": "uint8"
            },
            {
              "internalType": "enum Functions.CodeLanguage",
              "name": "language",
              "type": "uint8"
            },
            {
              "internalType": "string",
              "name": "source",
              "type": "string"
            },
            {
              "internalType": "bytes",
              "name": "secrets",
              "type": "bytes"
            },
            {
              "internalType": "string[]",
              "name": "args",
              "type": "string[]"
            }
          ],
          "internalType": "struct Functions.Request",
          "name": "req",
          "type": "tuple"
        },
        {
          "internalType": "uint64",
          "name": "subscriptionId",
          "type": "uint64"
        },
        {
          "internalType": "uint32",
          "name": "gasLimit",
          "type": "uint32"
        },
        {
          "internalType": "uint256",
          "name": "gasPrice",
          "type": "uint256"
        }
      ],
      "name": "estimateCost",
      "outputs": [
        {
          "internalType": "uint96",
          "name": "",
          "type": "uint96"
        }
      ],
      "stateMutability": "view",
      "type": "function"
    },
    {
      "inputs": [],
      "name": "fulfillGasLimit",
      "outputs": [
        {
          "internalType": "uint32",
          "name": "",
          "type": "uint32"
        }
      ],
      "stateMutability": "view",
      "type": "function"
    },
    {
      "inputs": [
        {
          "internalType": "string",
          "name": "source",
          "type": "string"
        },
        {
          "internalType": "bytes",
          "name": "secrets",
          "type": "bytes"
        },
        {
          "internalType": "string[]",
          "name": "args",
          "type": "string[]"
        }
      ],
      "name": "generateRequest",
      "outputs": [
        {
          "internalType": "bytes",
          "name": "",
          "type": "bytes"
        }
      ],
      "stateMutability": "pure",
      "type": "function"
    },
    {
      "inputs": [],
      "name": "getDONPublicKey",
      "outputs": [
        {
          "internalType": "bytes",
          "name": "",
          "type": "bytes"
        }
      ],
      "stateMutability": "view",
      "type": "function"
    },
    {
      "inputs": [
        {
          "internalType": "bytes32",
          "name": "requestId",
          "type": "bytes32"
        },
        {
          "internalType": "bytes",
          "name": "response",
          "type": "bytes"
        },
        {
          "internalType": "bytes",
          "name": "err",
          "type": "bytes"
        }
      ],
      "name": "handleOracleFulfillment",
      "outputs": [],
      "stateMutability": "nonpayable",
      "type": "function"
    },
    {
      "inputs": [],
      "name": "lastUpkeepTimeStamp",
      "outputs": [
        {
          "internalType": "uint256",
          "name": "",
          "type": "uint256"
        }
      ],
      "stateMutability": "view",
      "type": "function"
    },
    {
      "inputs": [],
      "name": "latestError",
      "outputs": [
        {
          "internalType": "bytes",
          "name": "",
          "type": "bytes"
        }
      ],
      "stateMutability": "view",
      "type": "function"
    },
    {
      "inputs": [],
      "name": "latestRequestId",
      "outputs": [
        {
          "internalType": "bytes32",
          "name": "",
          "type": "bytes32"
        }
      ],
      "stateMutability": "view",
      "type": "function"
    },
    {
      "inputs": [],
      "name": "latestResponse",
      "outputs": [
        {
          "internalType": "bytes",
          "name": "",
          "type": "bytes"
        }
      ],
      "stateMutability": "view",
      "type": "function"
    },
    {
      "inputs": [],
      "name": "owner",
      "outputs": [
        {
          "internalType": "address",
          "name": "",
          "type": "address"
        }
      ],
      "stateMutability": "view",
      "type": "function"
    },
    {
      "inputs": [
        {
          "internalType": "bytes",
          "name": "",
          "type": "bytes"
        }
      ],
      "name": "performUpkeep",
      "outputs": [],
      "stateMutability": "nonpayable",
      "type": "function"
    },
    {
      "inputs": [],
      "name": "requestCBOR",
      "outputs": [
        {
          "internalType": "bytes",
          "name": "",
          "type": "bytes"
        }
      ],
      "stateMutability": "view",
      "type": "function"
    },
    {
      "inputs": [],
      "name": "responseCounter",
      "outputs": [
        {
          "internalType": "uint256",
          "name": "",
          "type": "uint256"
        }
      ],
      "stateMutability": "view",
      "type": "function"
    },
    {
      "inputs": [
        {
          "internalType": "uint64",
          "name": "_subscriptionId",
          "type": "uint64"
        },
        {
          "internalType": "uint32",
          "name": "_fulfillGasLimit",
          "type": "uint32"
        },
        {
          "internalType": "uint256",
          "name": "_updateInterval",
          "type": "uint256"
        },
        {
          "internalType": "bytes",
          "name": "newRequestCBOR",
          "type": "bytes"
        }
      ],
      "name": "setRequest",
      "outputs": [],
      "stateMutability": "nonpayable",
      "type": "function"
    },
    {
      "inputs": [],
      "name": "subscriptionId",
      "outputs": [
        {
          "internalType": "uint64",
          "name": "",
          "type": "uint64"
        }
      ],
      "stateMutability": "view",
      "type": "function"
    },
    {
      "inputs": [
        {
          "internalType": "address",
          "name": "to",
          "type": "address"
        }
      ],
      "name": "transferOwnership",
      "outputs": [],
      "stateMutability": "nonpayable",
      "type": "function"
    },
    {
      "inputs": [],
      "name": "updateInterval",
      "outputs": [
        {
          "internalType": "uint256",
          "name": "",
          "type": "uint256"
        }
      ],
      "stateMutability": "view",
      "type": "function"
    },
    {
      "inputs": [
        {
          "internalType": "address",
          "name": "oracle",
          "type": "address"
        }
      ],
      "name": "updateOracleAddress",
      "outputs": [],
      "stateMutability": "nonpayable",
      "type": "function"
    },
    {
      "inputs": [],
      "name": "upkeepCounter",
      "outputs": [
        {
          "internalType": "uint256",
          "name": "",
          "type": "uint256"
        }
      ],
      "stateMutability": "view",
      "type": "function"
    }
  ],
  "bytecode": "0x60806040523480156200001157600080fd5b50604051620021e4380380620021e48339810160408190526200003491620001d5565b600080546001600160a01b0319166001600160a01b038616178155339081906001600160a01b038216620000af5760405162461bcd60e51b815260206004820152601860248201527f43616e6e6f7420736574206f776e657220746f207a65726f000000000000000060448201526064015b60405180910390fd5b600280546001600160a01b0319166001600160a01b0384811691909117909155811615620000e257620000e28162000128565b5050506009556008805463ffffffff90921668010000000000000000026001600160601b03199092166001600160401b03909316929092171790555042600a556200024d565b6001600160a01b038116331415620001835760405162461bcd60e51b815260206004820152601760248201527f43616e6e6f74207472616e7366657220746f2073656c660000000000000000006044820152606401620000a6565b600380546001600160a01b0319166001600160a01b03838116918217909255600254604051919216907fed8889f560326eb138920d842192f0eb3dd22b4f139c87a2c57538e05bae127890600090a350565b60008060008060808587031215620001ec57600080fd5b84516001600160a01b03811681146200020457600080fd5b60208601519094506001600160401b03811681146200022257600080fd5b604086015190935063ffffffff811681146200023d57600080fd5b6060959095015193969295505050565b611f87806200025d6000396000f3fe608060405234801561001057600080fd5b50600436106101775760003560e01c80638da5cb5b116100d8578063eb197c771161008c578063fd2c80ae11610066578063fd2c80ae1461030b578063fe08301214610314578063fffeb84e1461032757600080fd5b8063eb197c77146102d2578063f2fde38b146102e5578063f7023bb6146102f857600080fd5b8063bef3a2f0116100bd578063bef3a2f014610292578063d328a91e1461029a578063d4b39175146102a257600080fd5b80638da5cb5b1461026e578063a3d3c0d21461028957600080fd5b8063381fc4b51161012f578063688ecfd111610114578063688ecfd1146102305780636e04ff0d1461024557806379ba50971461026657600080fd5b8063381fc4b5146102145780634585e33b1461021d57600080fd5b80630ca76175116101605780630ca76175146101c55780631aa46f59146101da57806324b93e3e146101e357600080fd5b8063089ea02e1461017c57806309c1ba2e14610198575b600080fd5b610185600a5481565b6040519081526020015b60405180910390f35b6008546101ac9067ffffffffffffffff1681565b60405167ffffffffffffffff909116815260200161018f565b6101d86101d3366004611723565b61032f565b005b61018560055481565b6008546101ff9068010000000000000000900463ffffffff1681565b60405163ffffffff909116815260200161018f565b610185600c5481565b6101d861022b366004611790565b6103d5565b6102386105fb565b60405161018f9190611b3d565b6102586102533660046117d2565b610689565b60405161018f929190611b22565b6101d86106a6565b6002546040516001600160a01b03909116815260200161018f565b610185600b5481565b61023861075b565b610238610768565b6102b56102b0366004611947565b610806565b6040516bffffffffffffffffffffffff909116815260200161018f565b6101d86102e0366004611a59565b61089e565b6101d86102f33660046116d0565b6108f5565b6101d86103063660046116d0565b610909565b61018560095481565b61023861032236600461187e565b61092f565b610238610a29565b60008381526001602052604090205483906001600160a01b03163314610381576040517fa0c5ec6300000000000000000000000000000000000000000000000000000000815260040160405180910390fd5b60008181526001602052604080822080546001600160a01b03191690555182917f85e1543bf2f84fe80c6badbce3648c8539ad1df4d2b3d822938ca0538be727e691a26103cf848484610a36565b50505050565b60006103ef60405180602001604052806000815250610689565b509050806104445760405162461bcd60e51b815260206004820152601560248201527f54696d6520696e74657276616c206e6f74206d6574000000000000000000000060448201526064015b60405180910390fd5b42600a55600b54610456906001611cfa565b600b55600080546008546040517f28242b040000000000000000000000000000000000000000000000000000000081526001600160a01b03909216916328242b04916104c69167ffffffffffffffff8216916004916801000000000000000090910463ffffffff16908201611bb1565b602060405180830381600087803b1580156104e057600080fd5b505af11580156104f4573d6000803e3d6000fd5b505050506040513d601f19601f82011682018060405250810190610518919061170a565b905060008054906101000a90046001600160a01b03166001600160a01b0316635ab1bd536040518163ffffffff1660e01b815260040160206040518083038186803b15801561056657600080fd5b505afa15801561057a573d6000803e3d6000fd5b505050506040513d601f19601f8201168201806040525081019061059e91906116ed565b60008281526001602052604080822080546001600160a01b0319166001600160a01b039490941693909317909255905182917f1131472297a800fee664d1d89cfa8f7676ff07189ecc53f80bbb5f4969099db891a2600555505050565b6004805461060890611e6c565b80601f016020809104026020016040519081016040528092919081815260200182805461063490611e6c565b80156106815780601f1061065657610100808354040283529160200191610681565b820191906000526020600020905b81548152906001019060200180831161066457829003601f168201915b505050505081565b60006060600954600a544261069e9190611e1c565b119150915091565b6003546001600160a01b031633146107005760405162461bcd60e51b815260206004820152601660248201527f4d7573742062652070726f706f736564206f776e657200000000000000000000604482015260640161043b565b600280546001600160a01b0319808216339081179093556003805490911690556040516001600160a01b03909116919082907f8be0079c531659141344cd1fd0a4f28419497f9722a3daafe3b4186f6b6457e090600090a350565b6006805461060890611e6c565b60008054604080517fd328a91e00000000000000000000000000000000000000000000000000000000815290516060936001600160a01b039093169263d328a91e9260048082019391829003018186803b1580156107c557600080fd5b505afa1580156107d9573d6000803e3d6000fd5b505050506040513d6000823e601f3d908101601f191682016040526108019190810190611807565b905090565b600080546001600160a01b031663d227d2458561082288610ab0565b86866040518563ffffffff1660e01b81526004016108439493929190611b75565b60206040518083038186803b15801561085b57600080fd5b505afa15801561086f573d6000803e3d6000fd5b505050506040513d601f19601f820116820180604052508101906108939190611ac8565b90505b949350505050565b6108a6610d7c565b60098390556008805463ffffffff861668010000000000000000026bffffffffffffffffffffffff1990911667ffffffffffffffff8816171790556108ed600483836113f4565b505050505050565b6108fd610d7c565b61090681610dd8565b50565b610911610d7c565b600080546001600160a01b0319166001600160a01b03831617905550565b606061096b6040805160c08101909152806000815260200160008152602001600081526020016060815260200160608152602001606081525090565b6109b26000808a8a8080601f01602080910402602001604051908101604052809392919081815260200183838082843760009201919091525087959493925050610e839050565b84156109fa576109fa86868080601f0160208091040260200160405190810160405280939291908181526020018383808284376000920191909152508593925050610f179050565b8215610a1457610a14610a0d8486611e33565b8290610f5e565b610a1d81610ab0565b98975050505050505050565b6007805461060890611e6c565b8151610a49906006906020850190611478565b508051610a5d906007906020840190611478565b50600c54610a6c906001611cfa565b600c5560405183907f7bab0ec163b5c132c72b8146ac4d6e067e82ed58f8b131150aa71c925891156290610aa39085908590611b50565b60405180910390a2505050565b6060610aba6114ec565b8051610ac890610100610f9e565b50610b08816040518060400160405280600c81526020017f636f64654c6f636174696f6e0000000000000000000000000000000000000000815250611018565b610b278184600001516001811115610b2257610b22611efa565b611036565b610b66816040518060400160405280600881526020017f6c616e6775616765000000000000000000000000000000000000000000000000815250611018565b610b808184604001516000811115610b2257610b22611efa565b610bbf816040518060400160405280600681526020017f736f757263650000000000000000000000000000000000000000000000000000815250611018565b610bcd818460600151611018565b60a08301515115610c7357610c17816040518060400160405280600481526020017f6172677300000000000000000000000000000000000000000000000000000000815250611018565b610c2081611073565b60005b8360a0015151811015610c6957610c57828560a001518381518110610c4a57610c4a611f10565b6020026020010151611018565b80610c6181611ea7565b915050610c23565b50610c7381611097565b60808301515115610d7457600083602001516001811115610c9657610c96611efa565b1415610cce576040517fa80d31f700000000000000000000000000000000000000000000000000000000815260040160405180910390fd5b610d0d816040518060400160405280600f81526020017f736563726574734c6f636174696f6e0000000000000000000000000000000000815250611018565b610d278184602001516001811115610b2257610b22611efa565b610d66816040518060400160405280600781526020017f7365637265747300000000000000000000000000000000000000000000000000815250611018565b610d748184608001516110b5565b515192915050565b6002546001600160a01b03163314610dd65760405162461bcd60e51b815260206004820152601660248201527f4f6e6c792063616c6c61626c65206279206f776e657200000000000000000000604482015260640161043b565b565b6001600160a01b038116331415610e315760405162461bcd60e51b815260206004820152601760248201527f43616e6e6f74207472616e7366657220746f2073656c66000000000000000000604482015260640161043b565b600380546001600160a01b0319166001600160a01b03838116918217909255600254604051919216907fed8889f560326eb138920d842192f0eb3dd22b4f139c87a2c57538e05bae127890600090a350565b8051610ebb576040517f22ce3edd00000000000000000000000000000000000000000000000000000000815260040160405180910390fd5b83836001811115610ece57610ece611efa565b90816001811115610ee157610ee1611efa565b90525060408401828015610ef757610ef7611efa565b90818015610f0757610f07611efa565b9052506060909301929092525050565b8051610f4f576040517fe889636f00000000000000000000000000000000000000000000000000000000815260040160405180910390fd5b60016020830152608090910152565b8051610f96576040517ffe936cb700000000000000000000000000000000000000000000000000000000815260040160405180910390fd5b60a090910152565b604080518082019091526060815260006020820152610fbe602083611ec2565b15610fe657610fce602083611ec2565b610fd9906020611e1c565b610fe39083611cfa565b91505b60208084018390526040518085526000815290818401018181101561100a57600080fd5b604052508290505b92915050565b61102582600383516110be565b815161103190826111df565b505050565b81516110439060c2611207565b5061106f828260405160200161105b91815260200190565b6040516020818303038152906040526110b5565b5050565b61107e816004611270565b6001816020018181516110919190611cfa565b90525050565b6110a2816007611270565b6001816020018181516110919190611e1c565b61102582600283515b60178167ffffffffffffffff16116110e55782516103cf9060e0600585901b168317611207565b60ff8167ffffffffffffffff161161112757825161110e906018611fe0600586901b1617611207565b5082516103cf9067ffffffffffffffff83166001611287565b61ffff8167ffffffffffffffff161161116a578251611151906019611fe0600586901b1617611207565b5082516103cf9067ffffffffffffffff83166002611287565b63ffffffff8167ffffffffffffffff16116111af57825161119690601a611fe0600586901b1617611207565b5082516103cf9067ffffffffffffffff83166004611287565b82516111c690601b611fe0600586901b1617611207565b5082516103cf9067ffffffffffffffff83166008611287565b6040805180820190915260608152600060208201526112008383845161130c565b9392505050565b604080518082019091526060815260006020820152825151600061122c826001611cfa565b90508460200151821061124d5761124d85611248836002611dfd565b6113dd565b8451602083820101858153508051821115611266578181525b5093949350505050565b815161103190601f611fe0600585901b1617611207565b60408051808201909152606081526000602082015283515160006112ab8285611cfa565b905085602001518111156112c8576112c886611248836002611dfd565b600060016112d886610100611d55565b6112e29190611e1c565b90508651828101878319825116178152508051831115611300578281525b50959695505050505050565b604080518082019091526060815260006020820152825182111561132f57600080fd5b835151600061133e8483611cfa565b9050856020015181111561135b5761135b86611248836002611dfd565b855180518382016020019160009180851115611375578482525b505050602086015b602086106113b55780518252611394602083611cfa565b91506113a1602082611cfa565b90506113ae602087611e1c565b955061137d565b51815160001960208890036101000a0190811690199190911617905250849150509392505050565b81516113e98383610f9e565b506103cf83826111df565b82805461140090611e6c565b90600052602060002090601f0160209004810192826114225760008555611468565b82601f1061143b5782800160ff19823516178555611468565b82800160010185558215611468579182015b8281111561146857823582559160200191906001019061144d565b50611474929150611521565b5090565b82805461148490611e6c565b90600052602060002090601f0160209004810192826114a65760008555611468565b82601f106114bf57805160ff1916838001178555611468565b82800160010185558215611468579182015b828111156114685782518255916020019190600101906114d1565b6040518060400160405280611514604051806040016040528060608152602001600081525090565b8152602001600081525090565b5b808211156114745760008155600101611522565b600067ffffffffffffffff8084111561155157611551611f26565b8360051b6020611562818301611ca1565b86815293508084018583810189101561157a57600080fd5b60009350835b888110156115b557813586811115611596578586fd5b6115a28b828b0161162b565b8452509183019190830190600101611580565b5050505050509392505050565b600082601f8301126115d357600080fd5b61120083833560208501611536565b60008083601f8401126115f457600080fd5b50813567ffffffffffffffff81111561160c57600080fd5b60208301915083602082850101111561162457600080fd5b9250929050565b600082601f83011261163c57600080fd5b813561164f61164a82611cd2565b611ca1565b81815284602083860101111561166457600080fd5b816020850160208301376000918101602001919091529392505050565b80356001811061169057600080fd5b919050565b80356002811061169057600080fd5b803563ffffffff8116811461169057600080fd5b803567ffffffffffffffff8116811461169057600080fd5b6000602082840312156116e257600080fd5b813561120081611f3c565b6000602082840312156116ff57600080fd5b815161120081611f3c565b60006020828403121561171c57600080fd5b5051919050565b60008060006060848603121561173857600080fd5b83359250602084013567ffffffffffffffff8082111561175757600080fd5b6117638783880161162b565b9350604086013591508082111561177957600080fd5b506117868682870161162b565b9150509250925092565b600080602083850312156117a357600080fd5b823567ffffffffffffffff8111156117ba57600080fd5b6117c6858286016115e2565b90969095509350505050565b6000602082840312156117e457600080fd5b813567ffffffffffffffff8111156117fb57600080fd5b6108968482850161162b565b60006020828403121561181957600080fd5b815167ffffffffffffffff81111561183057600080fd5b8201601f8101841361184157600080fd5b805161184f61164a82611cd2565b81815285602083850101111561186457600080fd5b611875826020830160208601611e40565b95945050505050565b6000806000806000806060878903121561189757600080fd5b863567ffffffffffffffff808211156118af57600080fd5b6118bb8a838b016115e2565b909850965060208901359150808211156118d457600080fd5b6118e08a838b016115e2565b909650945060408901359150808211156118f957600080fd5b818901915089601f83011261190d57600080fd5b81358181111561191c57600080fd5b8a60208260051b850101111561193157600080fd5b6020830194508093505050509295509295509295565b6000806000806080858703121561195d57600080fd5b843567ffffffffffffffff8082111561197557600080fd5b9086019060c0828903121561198957600080fd5b611991611c78565b61199a83611695565b81526119a860208401611695565b60208201526119b960408401611681565b60408201526060830135828111156119d057600080fd5b6119dc8a82860161162b565b6060830152506080830135828111156119f457600080fd5b611a008a82860161162b565b60808301525060a083013582811115611a1857600080fd5b611a248a8286016115c2565b60a0830152509550611a3b915050602086016116b8565b9250611a49604086016116a4565b9396929550929360600135925050565b600080600080600060808688031215611a7157600080fd5b611a7a866116b8565b9450611a88602087016116a4565b935060408601359250606086013567ffffffffffffffff811115611aab57600080fd5b611ab7888289016115e2565b969995985093965092949392505050565b600060208284031215611ada57600080fd5b81516bffffffffffffffffffffffff8116811461120057600080fd5b60008151808452611b0e816020860160208601611e40565b601f01601f19169290920160200192915050565b82151581526040602082015260006108966040830184611af6565b6020815260006112006020830184611af6565b604081526000611b636040830185611af6565b82810360208401526118758185611af6565b67ffffffffffffffff85168152608060208201526000611b986080830186611af6565b63ffffffff949094166040830152506060015292915050565b67ffffffffffffffff84168152600060206060818401526000855481600182811c915080831680611be357607f831692505b858310811415611c0157634e487b7160e01b85526022600452602485fd5b6060880183905260808801818015611c205760018114611c3157611c5c565b60ff19861682528782019650611c5c565b60008c81526020902060005b86811015611c5657815484820152908501908901611c3d565b83019750505b50505063ffffffff881660408801525091935061089692505050565b60405160c0810167ffffffffffffffff81118282101715611c9b57611c9b611f26565b60405290565b604051601f8201601f1916810167ffffffffffffffff81118282101715611cca57611cca611f26565b604052919050565b600067ffffffffffffffff821115611cec57611cec611f26565b50601f01601f191660200190565b60008219821115611d0d57611d0d611ee4565b500190565b600181815b80851115611d4d578160001904821115611d3357611d33611ee4565b80851615611d4057918102915b93841c9390800290611d17565b509250929050565b60006112008383600082611d6b57506001611012565b81611d7857506000611012565b8160018114611d8e5760028114611d9857611db4565b6001915050611012565b60ff841115611da957611da9611ee4565b50506001821b611012565b5060208310610133831016604e8410600b8410161715611dd7575081810a611012565b611de18383611d12565b8060001904821115611df557611df5611ee4565b029392505050565b6000816000190483118215151615611e1757611e17611ee4565b500290565b600082821015611e2e57611e2e611ee4565b500390565b6000611200368484611536565b60005b83811015611e5b578181015183820152602001611e43565b838111156103cf5750506000910152565b600181811c90821680611e8057607f821691505b60208210811415611ea157634e487b7160e01b600052602260045260246000fd5b50919050565b6000600019821415611ebb57611ebb611ee4565b5060010190565b600082611edf57634e487b7160e01b600052601260045260246000fd5b500690565b634e487b7160e01b600052601160045260246000fd5b634e487b7160e01b600052602160045260246000fd5b634e487b7160e01b600052603260045260246000fd5b634e487b7160e01b600052604160045260246000fd5b6001600160a01b038116811461090657600080fdfea264697066735822122015e502a19663ce41a0a5fa0ea587a182fe12ebad23d6b94e4b499509db57780164736f6c63430008070033",
  "linkReferences": {},
  "deployedLinkReferences": {}
}