{
  "_format": "hh-sol-artifact-1",
  "contractName": "FunctionsOracle",
  "sourceName": "contracts/dev/functions/FunctionsOracle.sol",
  "abi": [
    {
      "inputs": [],
      "name": "AlreadySet",
      "type": "error"
    },
    {
      "inputs": [],
      "name": "CannotSelfTransfer",
      "type": "error"
    },
    {
      "inputs": [],
      "name": "EmptyBillingRegistry",
      "type": "error"
    },
    {
      "inputs": [],
      "name": "EmptyPublicKey",
      "type": "error"
    },
    {
      "inputs": [],
      "name": "EmptyRequestData",
      "type": "error"
    },
    {
      "inputs": [],
      "name": "EmptySendersList",
      "type": "error"
    },
    {
      "inputs": [],
      "name": "InconsistentReportData",
      "type": "error"
    },
    {
      "inputs": [],
      "name": "InvalidRequestID",
      "type": "error"
    },
    {
      "inputs": [],
      "name": "NotAllowedToSetSenders",
      "type": "error"
    },
    {
      "inputs": [],
      "name": "NotProposedOwner",
      "type": "error"
    },
    {
      "inputs": [],
      "name": "OnlyCallableByOwner",
      "type": "error"
    },
    {
      "inputs": [],
      "name": "OwnerMustBeSet",
      "type": "error"
    },
    {
      "inputs": [],
      "name": "ReportInvalid",
      "type": "error"
    },
    {
      "inputs": [],
      "name": "UnauthorizedPublicKeyChange",
      "type": "error"
    },
    {
      "inputs": [],
      "name": "UnauthorizedSender",
      "type": "error"
    },
    {
      "anonymous": false,
      "inputs": [
        {
          "indexed": false,
          "internalType": "address",
          "name": "account",
          "type": "address"
        }
      ],
      "name": "AuthorizedSendersActive",
      "type": "event"
    },
    {
      "anonymous": false,
      "inputs": [
        {
          "indexed": false,
          "internalType": "address[]",
          "name": "senders",
          "type": "address[]"
        },
        {
          "indexed": false,
          "internalType": "address",
          "name": "changedBy",
          "type": "address"
        }
      ],
      "name": "AuthorizedSendersChanged",
      "type": "event"
    },
    {
      "anonymous": false,
      "inputs": [
        {
          "indexed": false,
          "internalType": "address",
          "name": "account",
          "type": "address"
        }
      ],
      "name": "AuthorizedSendersDeactive",
      "type": "event"
    },
    {
      "anonymous": false,
      "inputs": [
        {
          "indexed": false,
          "internalType": "uint32",
          "name": "previousConfigBlockNumber",
          "type": "uint32"
        },
        {
          "indexed": false,
          "internalType": "bytes32",
          "name": "configDigest",
          "type": "bytes32"
        },
        {
          "indexed": false,
          "internalType": "uint64",
          "name": "configCount",
          "type": "uint64"
        },
        {
          "indexed": false,
          "internalType": "address[]",
          "name": "signers",
          "type": "address[]"
        },
        {
          "indexed": false,
          "internalType": "address[]",
          "name": "transmitters",
          "type": "address[]"
        },
        {
          "indexed": false,
          "internalType": "uint8",
          "name": "f",
          "type": "uint8"
        },
        {
          "indexed": false,
          "internalType": "bytes",
          "name": "onchainConfig",
          "type": "bytes"
        },
        {
          "indexed": false,
          "internalType": "uint64",
          "name": "offchainConfigVersion",
          "type": "uint64"
        },
        {
          "indexed": false,
          "internalType": "bytes",
          "name": "offchainConfig",
          "type": "bytes"
        }
      ],
      "name": "ConfigSet",
      "type": "event"
    },
    {
      "anonymous": false,
      "inputs": [
        {
          "indexed": false,
          "internalType": "uint8",
          "name": "version",
          "type": "uint8"
        }
      ],
      "name": "Initialized",
      "type": "event"
    },
    {
      "anonymous": false,
      "inputs": [
        {
          "indexed": true,
          "internalType": "bytes32",
          "name": "requestId",
          "type": "bytes32"
        },
        {
          "indexed": false,
          "internalType": "address",
          "name": "requestingContract",
          "type": "address"
        },
        {
          "indexed": false,
          "internalType": "address",
          "name": "requestInitiator",
          "type": "address"
        },
        {
          "indexed": false,
          "internalType": "uint64",
          "name": "subscriptionId",
          "type": "uint64"
        },
        {
          "indexed": false,
          "internalType": "address",
          "name": "subscriptionOwner",
          "type": "address"
        },
        {
          "indexed": false,
          "internalType": "bytes",
          "name": "data",
          "type": "bytes"
        }
      ],
      "name": "OracleRequest",
      "type": "event"
    },
    {
      "anonymous": false,
      "inputs": [
        {
          "indexed": true,
          "internalType": "bytes32",
          "name": "requestId",
          "type": "bytes32"
        }
      ],
      "name": "OracleResponse",
      "type": "event"
    },
    {
      "anonymous": false,
      "inputs": [
        {
          "indexed": true,
          "internalType": "address",
          "name": "from",
          "type": "address"
        },
        {
          "indexed": true,
          "internalType": "address",
          "name": "to",
          "type": "address"
        }
      ],
      "name": "OwnershipTransferRequested",
      "type": "event"
    },
    {
      "anonymous": false,
      "inputs": [
        {
          "indexed": true,
          "internalType": "address",
          "name": "from",
          "type": "address"
        },
        {
          "indexed": true,
          "internalType": "address",
          "name": "to",
          "type": "address"
        }
      ],
      "name": "OwnershipTransferred",
      "type": "event"
    },
    {
      "anonymous": false,
      "inputs": [
        {
          "indexed": false,
          "internalType": "bytes32",
          "name": "configDigest",
          "type": "bytes32"
        },
        {
          "indexed": false,
          "internalType": "uint32",
          "name": "epoch",
          "type": "uint32"
        }
      ],
      "name": "Transmitted",
      "type": "event"
    },
    {
      "anonymous": false,
      "inputs": [
        {
          "indexed": true,
          "internalType": "bytes32",
          "name": "requestId",
          "type": "bytes32"
        },
        {
          "indexed": false,
          "internalType": "string",
          "name": "reason",
          "type": "string"
        }
      ],
      "name": "UserCallbackError",
      "type": "event"
    },
    {
      "anonymous": false,
      "inputs": [
        {
          "indexed": true,
          "internalType": "bytes32",
          "name": "requestId",
          "type": "bytes32"
        },
        {
          "indexed": false,
          "internalType": "bytes",
          "name": "lowLevelData",
          "type": "bytes"
        }
      ],
      "name": "UserCallbackRawError",
      "type": "event"
    },
    {
      "inputs": [],
      "name": "acceptOwnership",
      "outputs": [],
      "stateMutability": "nonpayable",
      "type": "function"
    },
    {
      "inputs": [],
      "name": "activateAuthorizedReceiver",
      "outputs": [],
      "stateMutability": "nonpayable",
      "type": "function"
    },
    {
      "inputs": [
        {
          "internalType": "address[]",
          "name": "senders",
          "type": "address[]"
        }
      ],
      "name": "addAuthorizedSenders",
      "outputs": [],
      "stateMutability": "nonpayable",
      "type": "function"
    },
    {
      "inputs": [],
      "name": "authorizedReceiverActive",
      "outputs": [
        {
          "internalType": "bool",
          "name": "",
          "type": "bool"
        }
      ],
      "stateMutability": "view",
      "type": "function"
    },
    {
      "inputs": [],
      "name": "deactivateAuthorizedReceiver",
      "outputs": [],
      "stateMutability": "nonpayable",
      "type": "function"
    },
    {
      "inputs": [
        {
          "internalType": "address",
          "name": "node",
          "type": "address"
        }
      ],
      "name": "deleteNodePublicKey",
      "outputs": [],
      "stateMutability": "nonpayable",
      "type": "function"
    },
    {
      "inputs": [
        {
          "internalType": "uint64",
          "name": "subscriptionId",
          "type": "uint64"
        },
        {
          "internalType": "bytes",
          "name": "data",
          "type": "bytes"
        },
        {
          "internalType": "uint32",
          "name": "gasLimit",
          "type": "uint32"
        },
        {
          "internalType": "uint256",
          "name": "gasPrice",
          "type": "uint256"
        }
      ],
      "name": "estimateCost",
      "outputs": [
        {
          "internalType": "uint96",
          "name": "",
          "type": "uint96"
        }
      ],
      "stateMutability": "view",
      "type": "function"
    },
    {
      "inputs": [],
      "name": "getAllNodePublicKeys",
      "outputs": [
        {
          "internalType": "address[]",
          "name": "",
          "type": "address[]"
        },
        {
          "internalType": "bytes[]",
          "name": "",
          "type": "bytes[]"
        }
      ],
      "stateMutability": "view",
      "type": "function"
    },
    {
      "inputs": [],
      "name": "getAuthorizedSenders",
      "outputs": [
        {
          "internalType": "address[]",
          "name": "",
          "type": "address[]"
        }
      ],
      "stateMutability": "view",
      "type": "function"
    },
    {
      "inputs": [],
      "name": "getDONPublicKey",
      "outputs": [
        {
          "internalType": "bytes",
          "name": "",
          "type": "bytes"
        }
      ],
      "stateMutability": "view",
      "type": "function"
    },
    {
      "inputs": [],
      "name": "getRegistry",
      "outputs": [
        {
          "internalType": "address",
          "name": "",
          "type": "address"
        }
      ],
      "stateMutability": "view",
      "type": "function"
    },
    {
      "inputs": [
        {
          "internalType": "bytes",
          "name": "",
          "type": "bytes"
        },
        {
          "components": [
            {
              "internalType": "uint64",
              "name": "subscriptionId",
              "type": "uint64"
            },
            {
              "internalType": "address",
              "name": "client",
              "type": "address"
            },
            {
              "internalType": "uint32",
              "name": "gasLimit",
              "type": "uint32"
            },
            {
              "internalType": "uint256",
              "name": "gasPrice",
              "type": "uint256"
            }
          ],
          "internalType": "struct FunctionsBillingRegistryInterface.RequestBilling",
          "name": "",
          "type": "tuple"
        }
      ],
      "name": "getRequiredFee",
      "outputs": [
        {
          "internalType": "uint96",
          "name": "",
          "type": "uint96"
        }
      ],
      "stateMutability": "pure",
      "type": "function"
    },
    {
      "inputs": [],
      "name": "initialize",
      "outputs": [],
      "stateMutability": "nonpayable",
      "type": "function"
    },
    {
      "inputs": [
        {
          "internalType": "address",
          "name": "sender",
          "type": "address"
        }
      ],
      "name": "isAuthorizedSender",
      "outputs": [
        {
          "internalType": "bool",
          "name": "",
          "type": "bool"
        }
      ],
      "stateMutability": "view",
      "type": "function"
    },
    {
      "inputs": [],
      "name": "latestConfigDetails",
      "outputs": [
        {
          "internalType": "uint32",
          "name": "configCount",
          "type": "uint32"
        },
        {
          "internalType": "uint32",
          "name": "blockNumber",
          "type": "uint32"
        },
        {
          "internalType": "bytes32",
          "name": "configDigest",
          "type": "bytes32"
        }
      ],
      "stateMutability": "view",
      "type": "function"
    },
    {
      "inputs": [],
      "name": "latestConfigDigestAndEpoch",
      "outputs": [
        {
          "internalType": "bool",
          "name": "scanLogs",
          "type": "bool"
        },
        {
          "internalType": "bytes32",
          "name": "configDigest",
          "type": "bytes32"
        },
        {
          "internalType": "uint32",
          "name": "epoch",
          "type": "uint32"
        }
      ],
      "stateMutability": "view",
      "type": "function"
    },
    {
      "inputs": [],
      "name": "owner",
      "outputs": [
        {
          "internalType": "address",
          "name": "",
          "type": "address"
        }
      ],
      "stateMutability": "view",
      "type": "function"
    },
    {
      "inputs": [
        {
          "internalType": "address[]",
          "name": "senders",
          "type": "address[]"
        }
      ],
      "name": "removeAuthorizedSenders",
      "outputs": [],
      "stateMutability": "nonpayable",
      "type": "function"
    },
    {
      "inputs": [
        {
          "internalType": "uint64",
          "name": "subscriptionId",
          "type": "uint64"
        },
        {
          "internalType": "bytes",
          "name": "data",
          "type": "bytes"
        },
        {
          "internalType": "uint32",
          "name": "gasLimit",
          "type": "uint32"
        }
      ],
      "name": "sendRequest",
      "outputs": [
        {
          "internalType": "bytes32",
          "name": "",
          "type": "bytes32"
        }
      ],
      "stateMutability": "nonpayable",
      "type": "function"
    },
    {
      "inputs": [
        {
          "internalType": "address[]",
          "name": "_signers",
          "type": "address[]"
        },
        {
          "internalType": "address[]",
          "name": "_transmitters",
          "type": "address[]"
        },
        {
          "internalType": "uint8",
          "name": "_f",
          "type": "uint8"
        },
        {
          "internalType": "bytes",
          "name": "_onchainConfig",
          "type": "bytes"
        },
        {
          "internalType": "uint64",
          "name": "_offchainConfigVersion",
          "type": "uint64"
        },
        {
          "internalType": "bytes",
          "name": "_offchainConfig",
          "type": "bytes"
        }
      ],
      "name": "setConfig",
      "outputs": [],
      "stateMutability": "nonpayable",
      "type": "function"
    },
    {
      "inputs": [
        {
          "internalType": "bytes",
          "name": "donPublicKey",
          "type": "bytes"
        }
      ],
      "name": "setDONPublicKey",
      "outputs": [],
      "stateMutability": "nonpayable",
      "type": "function"
    },
    {
      "inputs": [
        {
          "internalType": "address",
          "name": "node",
          "type": "address"
        },
        {
          "internalType": "bytes",
          "name": "publicKey",
          "type": "bytes"
        }
      ],
      "name": "setNodePublicKey",
      "outputs": [],
      "stateMutability": "nonpayable",
      "type": "function"
    },
    {
      "inputs": [
        {
          "internalType": "address",
          "name": "registryAddress",
          "type": "address"
        }
      ],
      "name": "setRegistry",
      "outputs": [],
      "stateMutability": "nonpayable",
      "type": "function"
    },
    {
      "inputs": [
        {
          "internalType": "address",
          "name": "to",
          "type": "address"
        }
      ],
      "name": "transferOwnership",
      "outputs": [],
      "stateMutability": "nonpayable",
      "type": "function"
    },
    {
      "inputs": [
        {
          "internalType": "bytes32[3]",
          "name": "reportContext",
          "type": "bytes32[3]"
        },
        {
          "internalType": "bytes",
          "name": "report",
          "type": "bytes"
        },
        {
          "internalType": "bytes32[]",
          "name": "rs",
          "type": "bytes32[]"
        },
        {
          "internalType": "bytes32[]",
          "name": "ss",
          "type": "bytes32[]"
        },
        {
          "internalType": "bytes32",
          "name": "rawVs",
          "type": "bytes32"
        }
      ],
      "name": "transmit",
      "outputs": [],
      "stateMutability": "nonpayable",
      "type": "function"
    },
    {
      "inputs": [],
      "name": "transmitters",
      "outputs": [
        {
          "internalType": "address[]",
          "name": "",
          "type": "address[]"
        }
      ],
      "stateMutability": "view",
      "type": "function"
    },
    {
      "inputs": [],
      "name": "typeAndVersion",
      "outputs": [
        {
          "internalType": "string",
          "name": "",
          "type": "string"
        }
      ],
      "stateMutability": "pure",
      "type": "function"
    }
  ],
  "bytecode": "0x608060405234801561001057600080fd5b5061379a806100206000396000f3fe608060405234801561001057600080fd5b50600436106101a95760003560e01c80638129fc1c116100f9578063b1dc65a411610097578063e3d0e71211610071578063e3d0e712146103c2578063f1e14a21146103d5578063f2fde38b146103ec578063fa00763a146103ff57600080fd5b8063b1dc65a41461037c578063d227d2451461038f578063d328a91e146103ba57600080fd5b80638da5cb5b116100d35780638da5cb5b1461032a57806391bb64eb14610341578063a91ee0dc14610349578063afcb95d71461035c57600080fd5b80638129fc1c146102ea57806381411834146102f257806381ff7048146102fa57600080fd5b80634b4fa0c1116101665780635ab1bd53116101405780635ab1bd531461029757806379ba5097146102bc5780637f15e166146102c457806380756031146102d757600080fd5b80634b4fa0c1146102575780634dcef4041461026e578063533989871461028157600080fd5b806303e1bf23146101ae578063110254c8146101c3578063181f5a77146101cb5780632408afaa1461020e57806326ceabac1461022357806328242b0414610236575b600080fd5b6101c16101bc3660046128f6565b610412565b005b6101c1610630565b604080518082019091526015815274046756e6374696f6e734f7261636c6520302e302e3605c1b60208201525b6040516102059190612984565b60405180910390f35b6102166106c8565b60405161020591906129db565b6101c1610231366004612a03565b61072a565b610249610244366004612a91565b6107a4565b604051908152602001610205565b60085460ff165b6040519015158152602001610205565b6101c161027c3660046128f6565b61097d565b610289610a82565b604051610205929190612af5565b600d546001600160a01b03165b6040516001600160a01b039091168152602001610205565b6101c1610c5c565b6101c16102d2366004612b67565b610cee565b6101c16102e5366004612b9c565b610d25565b6101c1610db4565b610216610ed5565b6004546002546040805163ffffffff80851682526401000000009094049093166020840152820152606001610205565b6000546201000090046001600160a01b03166102a4565b6101c1610f35565b6101c1610357366004612a03565b610fc3565b604080516001815260006020820181905291810191909152606001610205565b6101c161038a366004612bf0565b611014565b6103a261039d366004612ca6565b6115fc565b6040516001600160601b039091168152602001610205565b6101f861178b565b6101c16103d0366004612e6f565b611814565b6103a26103e3366004612f3b565b60009392505050565b6101c16103fa366004612a03565b611f38565b61025e61040d366004612a03565b611f49565b6000546201000090046001600160a01b031633146104435760405163ad77f06160e01b815260040160405180910390fd5b80610461576040516375158c3b60e01b815260040160405180910390fd5b60005b818110156105f05760006104a084848481811061048357610483612ff7565b90506020020160208101906104989190612a03565b600990611f74565b905080156105dd5760005b600b548110156105db578484848181106104c7576104c7612ff7565b90506020020160208101906104dc9190612a03565b6001600160a01b0316600b82815481106104f8576104f8612ff7565b6000918252602090912001546001600160a01b031614156105c957600b80546000919061052790600190613023565b8154811061053757610537612ff7565b600091825260209091200154600b80546001600160a01b03909216925082918690811061056657610566612ff7565b9060005260206000200160006101000a8154816001600160a01b0302191690836001600160a01b03160217905550600b8054806105a5576105a561303a565b600082815260209020810160001990810180546001600160a01b0319169055019055505b806105d381613050565b9150506104ab565b505b50806105e881613050565b915050610464565b507ff263cfb3e4298332e776194610cf9fdc09ccb3ada8b9aa39764d882e11fbf0a08282336040516106249392919061306b565b60405180910390a15050565b6000546201000090046001600160a01b031633146106615760405163ad77f06160e01b815260040160405180910390fd5b60085460ff16156106855760405163a741a04560e01b815260040160405180910390fd5b6008805460ff191660011790556040513381527fae51766a982895b0c444fc99fc1a560762b464d709e6c78376c85617f7eeb5ce906020015b60405180910390a1565b6060600b80548060200260200160405190810160405280929190818152602001828054801561072057602002820191906000526020600020905b81546001600160a01b03168152600190910190602001808311610702575b5050505050905090565b6000546201000090046001600160a01b03166001600160a01b0316336001600160a01b031614806107635750336001600160a01b038216145b6107805760405163ed6dd19b60e01b815260040160405180910390fd5b6001600160a01b0381166000908152600e602052604081206107a1916127b9565b50565b600d546000906001600160a01b03166107d057604051632717f8c960e21b815260040160405180910390fd5b6107d8611f90565b826107f5576040516203073f60e61b815260040160405180910390fd5b600d54604080516080810182526001600160401b038816815233602082015263ffffffff8516818301523a6060820152905163a9d03c0560e01b81526000926001600160a01b03169163a9d03c05916108559189918991906004016130f7565b602060405180830381600087803b15801561086f57600080fd5b505af1158015610883573d6000803e3d6000fd5b505050506040513d601f19601f820116820180604052508101906108a79190613151565b600d5460405163b2a489ff60e01b81526001600160401b038916600482015291925082917fa1ec73989d79578cd6f67d4f593ac3e0a4d1020e5c0164db52108d7ff785406c91339132918b916001600160a01b039091169063b2a489ff9060240160206040518083038186803b15801561092057600080fd5b505afa158015610934573d6000803e3d6000fd5b505050506040513d601f19601f82011682018060405250810190610958919061316a565b8a8a60405161096c96959493929190613187565b60405180910390a295945050505050565b6000546201000090046001600160a01b031633146109ae5760405163ad77f06160e01b815260040160405180910390fd5b806109cc576040516375158c3b60e01b815260040160405180910390fd5b60005b818110156105f0576000610a0b8484848181106109ee576109ee612ff7565b9050602002016020810190610a039190612a03565b600990611fb8565b90508015610a6f57600b848484818110610a2757610a27612ff7565b9050602002016020810190610a3c9190612a03565b81546001810183556000928352602090922090910180546001600160a01b0319166001600160a01b039092169190911790555b5080610a7a81613050565b9150506109cf565b6060806000306001600160a01b031663814118346040518163ffffffff1660e01b815260040160006040518083038186803b158015610ac057600080fd5b505afa158015610ad4573d6000803e3d6000fd5b505050506040513d6000823e601f3d908101601f19168201604052610afc91908101906131d7565b9050600081516001600160401b03811115610b1957610b19612d12565b604051908082528060200260200182016040528015610b4c57816020015b6060815260200190600190039081610b375790505b50905060005b8251811015610c5257600e6000848381518110610b7157610b71612ff7565b60200260200101516001600160a01b03166001600160a01b031681526020019081526020016000208054610ba490613270565b80601f0160208091040260200160405190810160405280929190818152602001828054610bd090613270565b8015610c1d5780601f10610bf257610100808354040283529160200191610c1d565b820191906000526020600020905b815481529060010190602001808311610c0057829003601f168201915b5050505050828281518110610c3457610c34612ff7565b60200260200101819052508080610c4a90613050565b915050610b52565b5090939092509050565b6001546001600160a01b03163314610c8757604051630f22ca5f60e01b815260040160405180910390fd5b60008054336201000081810262010000600160b01b03198416178455600180546001600160a01b03191690556040516001600160a01b03919093041692909183917f8be0079c531659141344cd1fd0a4f28419497f9722a3daafe3b4186f6b6457e091a350565b610cf6611fcd565b80610d1457604051634f42be3d60e01b815260040160405180910390fd5b610d20600c83836127f3565b505050565b6000546201000090046001600160a01b03166001600160a01b0316336001600160a01b03161480610d6e5750610d5a33611ffe565b8015610d6e5750336001600160a01b038416145b610d8b5760405163ed6dd19b60e01b815260040160405180910390fd5b6001600160a01b0383166000908152600e60205260409020610dae9083836127f3565b50505050565b600054610100900460ff1615808015610dd45750600054600160ff909116105b80610dee5750303b158015610dee575060005460ff166001145b610e565760405162461bcd60e51b815260206004820152602e60248201527f496e697469616c697a61626c653a20636f6e747261637420697320616c72656160448201526d191e481a5b9a5d1a585b1a5e995960921b60648201526084015b60405180910390fd5b6000805460ff191660011790558015610e79576000805461ff0019166101001790555b610e8360016120dd565b610e8d600161212d565b80156107a1576000805461ff0019169055604051600181527f7f26b83ff96e1f2b6a682f133852f6798a09c465da95921460cefb38474024989060200160405180910390a150565b60606007805480602002602001604051908101604052809291908181526020018280548015610720576020028201919060005260206000209081546001600160a01b03168152600190910190602001808311610702575050505050905090565b6000546201000090046001600160a01b03163314610f665760405163ad77f06160e01b815260040160405180910390fd5b60085460ff16610f895760405163a741a04560e01b815260040160405180910390fd5b6008805460ff191690556040513381527fea3828816a323b8d7ff49d755efd105e7719166d6c76fad97a28eee5eccc3d9a906020016106be565b610fcb611fcd565b6001600160a01b038116610ff257604051632717f8c960e21b815260040160405180910390fd5b600d80546001600160a01b0319166001600160a01b0392909216919091179055565b60005a604080516020601f8b018190048102820181019092528981529192508a3591818c01359161106a91849163ffffffff851691908e908e908190840183828082843760009201919091525061216792505050565b6110875760405163017c6c6560e31b815260040160405180910390fd5b6040805183815262ffffff600884901c1660208201527fb04e63db38c49950639fa09d29872f21f5d49d614f3a969d8adf3d4b52e41a62910160405180910390a16040805160608101825260025480825260035460ff8082166020850152610100909104169282019290925290831461113a5760405162461bcd60e51b81526020600482015260156024820152740c6dedcccd2ce88d2cecae6e840dad2e6dac2e8c6d605b1b6044820152606401610e4d565b6111488b8b8b8b8b8b612170565b600154600090600160a01b900460ff16156111925760028260200151836040015161117391906132ab565b61117d91906132e6565b6111889060016132ab565b60ff1690506111a8565b60208201516111a29060016132ab565b60ff1690505b8881146111f75760405162461bcd60e51b815260206004820152601a60248201527f77726f6e67206e756d626572206f66207369676e6174757265730000000000006044820152606401610e4d565b8887146112465760405162461bcd60e51b815260206004820152601e60248201527f7369676e617475726573206f7574206f6620726567697374726174696f6e00006044820152606401610e4d565b3360009081526005602090815260408083208151808301909252805460ff8082168452929391929184019161010090910416600281111561128957611289613308565b600281111561129a5761129a613308565b90525090506002816020015160028111156112b7576112b7613308565b1480156112f157506007816000015160ff16815481106112d9576112d9612ff7565b6000918252602090912001546001600160a01b031633145b61133d5760405162461bcd60e51b815260206004820152601860248201527f756e617574686f72697a6564207472616e736d697474657200000000000000006044820152606401610e4d565b505050505061134a612877565b6000808a8a60405161135d92919061331e565b604051908190038120611374918e9060200161332e565b60408051601f198184030181528282528051602091820120838301909252600080845290830152915060005b898110156115de5760006001848984602081106113bf576113bf612ff7565b6113cc91901a601b6132ab565b8e8e868181106113de576113de612ff7565b905060200201358d8d878181106113f7576113f7612ff7565b9050602002013560405160008152602001604052604051611434949392919093845260ff9290921660208401526040830152606082015260800190565b6020604051602081039080840390855afa158015611456573d6000803e3d6000fd5b505060408051601f198101516001600160a01b03811660009081526005602090815290849020838501909452835460ff808216855292965092945084019161010090041660028111156114ab576114ab613308565b60028111156114bc576114bc613308565b90525092506001836020015160028111156114d9576114d9613308565b146115265760405162461bcd60e51b815260206004820152601e60248201527f61646472657373206e6f7420617574686f72697a656420746f207369676e00006044820152606401610e4d565b8251600090879060ff16601f811061154057611540612ff7565b60200201516001600160a01b0316146115925760405162461bcd60e51b81526020600482015260146024820152736e6f6e2d756e69717565207369676e617475726560601b6044820152606401610e4d565b8086846000015160ff16601f81106115ac576115ac612ff7565b6001600160a01b0390921660209290920201526115ca6001866132ab565b945050806115d790613050565b90506113a0565b5050506115ef833383858e8e61220d565b5050505050505050505050565b600d546000906001600160a01b031661162857604051632717f8c960e21b815260040160405180910390fd5b604080516080810182526001600160401b038816815233602082015263ffffffff85168183015260608101849052600d54915163f1e14a2160e01b8152909160009182916001600160a01b03169063f1e14a219061168e908b908b9088906004016130f7565b60206040518083038186803b1580156116a657600080fd5b505afa1580156116ba573d6000803e3d6000fd5b505050506040513d601f19601f820116820180604052508101906116de919061334a565b600d5460405163a1a6d04160e01b815263ffffffff89166004820152602481018890526001600160601b038086166044830152831660648201529192506001600160a01b03169063a1a6d0419060840160206040518083038186803b15801561174657600080fd5b505afa15801561175a573d6000803e3d6000fd5b505050506040513d601f19601f8201168201806040525081019061177e919061334a565b9998505050505050505050565b6060600c805461179a90613270565b80601f01602080910402602001604051908101604052809291908181526020018280546117c690613270565b80156107205780601f106117e857610100808354040283529160200191610720565b820191906000526020600020905b8154815290600101906020018083116117f657509395945050505050565b855185518560ff16601f8311156118605760405162461bcd60e51b815260206004820152601060248201526f746f6f206d616e79207369676e65727360801b6044820152606401610e4d565b600081116118a55760405162461bcd60e51b815260206004820152601260248201527166206d75737420626520706f73697469766560701b6044820152606401610e4d565b8183146119005760405162461bcd60e51b8152602060048201526024808201527f6f7261636c6520616464726573736573206f7574206f662072656769737472616044820152633a34b7b760e11b6064820152608401610e4d565b61190b816003613373565b83116119595760405162461bcd60e51b815260206004820152601860248201527f6661756c74792d6f7261636c65206620746f6f206869676800000000000000006044820152606401610e4d565b611961611fcd565b6040805160c0810182528a8152602081018a905260ff891691810191909152606081018790526001600160401b038616608082015260a081018590525b60065415611ab0576006546000906119b890600190613023565b90506000600682815481106119cf576119cf612ff7565b6000918252602082200154600780546001600160a01b03909216935090849081106119fc576119fc612ff7565b60009182526020808320909101546001600160a01b03858116845260059092526040808420805461ffff1990811690915592909116808452922080549091169055600680549192509080611a5257611a5261303a565b600082815260209020810160001990810180546001600160a01b03191690550190556007805480611a8557611a8561303a565b600082815260209020810160001990810180546001600160a01b03191690550190555061199e915050565b60005b815151811015611ded5760006005600084600001518481518110611ad957611ad9612ff7565b6020908102919091018101516001600160a01b0316825281019190915260400160002054610100900460ff166002811115611b1657611b16613308565b14611b635760405162461bcd60e51b815260206004820152601760248201527f7265706561746564207369676e657220616464726573730000000000000000006044820152606401610e4d565b6040805180820190915260ff82168152600160208201528251805160059160009185908110611b9457611b94612ff7565b6020908102919091018101516001600160a01b03168252818101929092526040016000208251815460ff90911660ff19821681178355928401519192839161ffff191617610100836002811115611bed57611bed613308565b021790555060009150611bfd9050565b6005600084602001518481518110611c1757611c17612ff7565b6020908102919091018101516001600160a01b0316825281019190915260400160002054610100900460ff166002811115611c5457611c54613308565b14611ca15760405162461bcd60e51b815260206004820152601c60248201527f7265706561746564207472616e736d69747465722061646472657373000000006044820152606401610e4d565b6040805180820190915260ff821681526020810160028152506005600084602001518481518110611cd457611cd4612ff7565b6020908102919091018101516001600160a01b03168252818101929092526040016000208251815460ff90911660ff19821681178355928401519192839161ffff191617610100836002811115611d2d57611d2d613308565b021790555050825180516006925083908110611d4b57611d4b612ff7565b602090810291909101810151825460018101845560009384529282902090920180546001600160a01b0319166001600160a01b039093169290921790915582015180516007919083908110611da257611da2612ff7565b60209081029190910181015182546001810184556000938452919092200180546001600160a01b0319166001600160a01b03909216919091179055611de681613050565b9050611ab3565b5060408101516003805460ff191660ff9092169190911790556004805467ffffffff0000000019811664010000000063ffffffff438116820292831785559083048116936001939092600092611e4a928692908216911617613392565b92506101000a81548163ffffffff021916908363ffffffff160217905550611ea94630600460009054906101000a900463ffffffff1663ffffffff16856000015186602001518760400151886060015189608001518a60a001516124f1565b6002819055825180516003805460ff9092166101000261ff001990921691909117905560045460208501516040808701516060880151608089015160a08a015193517f1591690b8638f5fb2dbec82ac741805ac5da8b45dc5263f4875b0496fdce4e0598611f2b988b98919763ffffffff9092169690959194919391926133ba565b60405180910390a16115ef565b611f40611fcd565b6107a18161254c565b6000611f5760085460ff1690565b611f6357506001919050565b611f6e6009836125ce565b92915050565b6000611f89836001600160a01b0384166125f0565b9392505050565b611f9932611f49565b611fb657604051630101292160e31b815260040160405180910390fd5b565b6000611f89836001600160a01b0384166126e3565b6000546201000090046001600160a01b03163314611fb6576040516315ae3a6f60e11b815260040160405180910390fd5b600080306001600160a01b031663814118346040518163ffffffff1660e01b815260040160006040518083038186803b15801561203a57600080fd5b505afa15801561204e573d6000803e3d6000fd5b505050506040513d6000823e601f3d908101601f1916820160405261207691908101906131d7565b905060005b81518110156120d357836001600160a01b03168282815181106120a0576120a0612ff7565b60200260200101516001600160a01b031614156120c1575060019392505050565b806120cb81613050565b91505061207b565b5060009392505050565b600054610100900460ff166121045760405162461bcd60e51b8152600401610e4d9061344f565b61210f336000612732565b60018054911515600160a01b0260ff60a01b19909216919091179055565b600054610100900460ff166121545760405162461bcd60e51b8152600401610e4d9061344f565b6008805460ff1916911515919091179055565b60019392505050565b600061217d826020613373565b612188856020613373565b6121948861014461349a565b61219e919061349a565b6121a8919061349a565b6121b390600061349a565b90503681146122045760405162461bcd60e51b815260206004820152601860248201527f63616c6c64617461206c656e677468206d69736d6174636800000000000000006044820152606401610e4d565b50505050505050565b600d546001600160a01b031661223657604051632717f8c960e21b815260040160405180910390fd5b6060808061224684860186613531565b82519295509093509150158061225e57508151835114155b8061226b57508051835114155b156122895760405163017c6c6560e31b815260040160405180910390fd5b600083515a612298908c613023565b6122a2919061360d565b905060005b84518110156115ef57600d5485516001600160a01b0390911690630739e4f1908790849081106122d9576122d9612ff7565b60200260200101518684815181106122f3576122f3612ff7565b602002602001015186858151811061230d5761230d612ff7565b60200260200101518e8d8f895a6040518963ffffffff1660e01b815260040161233d989796959493929190613621565b602060405180830381600087803b15801561235757600080fd5b505af1925050508015612387575060408051601f3d908101601f19168201909252612384918101906136b9565b60015b612412573d8080156123b5576040519150601f19603f3d011682016040523d82523d6000602084013e6123ba565b606091505b508582815181106123cd576123cd612ff7565b60200260200101517fe0b838ffe6ee22a0d3acf19a85db6a41b34a1ab739e2d6c759a2e42d95bdccb2826040516124049190612984565b60405180910390a2506124db565b80156124635785828151811061242a5761242a612ff7565b60200260200101517f9e9bc7616d42c2835d05ae617e508454e63b30b934be8aa932ebc125e0e58a6460405160405180910390a26124d9565b85828151811061247557612475612ff7565b60200260200101517fb2931868c372fe17a25643458add467d60ec5c51125a99b7309f41f5bcd2da6c6040516124d0906020808252601190820152706572726f7220696e2063616c6c6261636b60781b604082015260600190565b60405180910390a25b505b806124e581613050565b9150506122a7565b5050565b6000808a8a8a8a8a8a8a8a8a604051602001612515999897969594939291906136db565b60408051601f1981840301815291905280516020909101206001600160f01b0316600160f01b179150509998505050505050505050565b6001600160a01b0381163314156125765760405163282010c360e01b815260040160405180910390fd5b600180546001600160a01b0319166001600160a01b038381169182179092556000805460405192936201000090910416917fed8889f560326eb138920d842192f0eb3dd22b4f139c87a2c57538e05bae12789190a350565b6001600160a01b03811660009081526001830160205260408120541515611f89565b600081815260018301602052604081205480156126d9576000612614600183613023565b855490915060009061262890600190613023565b905081811461268d57600086600001828154811061264857612648612ff7565b906000526020600020015490508087600001848154811061266b5761266b612ff7565b6000918252602080832090910192909255918252600188019052604090208390555b855486908061269e5761269e61303a565b600190038181906000526020600020016000905590558560010160008681526020019081526020016000206000905560019350505050611f6e565b6000915050611f6e565b600081815260018301602052604081205461272a57508154600181810184556000848152602080822090930184905584548482528286019093526040902091909155611f6e565b506000611f6e565b600054610100900460ff166127595760405162461bcd60e51b8152600401610e4d9061344f565b6001600160a01b03821661278057604051635b5a8afd60e11b815260040160405180910390fd5b600080546001600160a01b03808516620100000262010000600160b01b0319909216919091179091558116156124ed576124ed8161254c565b5080546127c590613270565b6000825580601f106127d5575050565b601f0160209004906000526020600020908101906107a19190612896565b8280546127ff90613270565b90600052602060002090601f0160209004810192826128215760008555612867565b82601f1061283a5782800160ff19823516178555612867565b82800160010185558215612867579182015b8281111561286757823582559160200191906001019061284c565b50612873929150612896565b5090565b604051806103e00160405280601f906020820280368337509192915050565b5b808211156128735760008155600101612897565b60008083601f8401126128bd57600080fd5b5081356001600160401b038111156128d457600080fd5b6020830191508360208260051b85010111156128ef57600080fd5b9250929050565b6000806020838503121561290957600080fd5b82356001600160401b0381111561291f57600080fd5b61292b858286016128ab565b90969095509350505050565b6000815180845260005b8181101561295d57602081850181015186830182015201612941565b8181111561296f576000602083870101525b50601f01601f19169290920160200192915050565b602081526000611f896020830184612937565b600081518084526020808501945080840160005b838110156129d05781516001600160a01b0316875295820195908201906001016129ab565b509495945050505050565b602081526000611f896020830184612997565b6001600160a01b03811681146107a157600080fd5b600060208284031215612a1557600080fd5b8135611f89816129ee565b80356001600160401b0381168114612a3757600080fd5b919050565b60008083601f840112612a4e57600080fd5b5081356001600160401b03811115612a6557600080fd5b6020830191508360208285010111156128ef57600080fd5b803563ffffffff81168114612a3757600080fd5b60008060008060608587031215612aa757600080fd5b612ab085612a20565b935060208501356001600160401b03811115612acb57600080fd5b612ad787828801612a3c565b9094509250612aea905060408601612a7d565b905092959194509250565b604081526000612b086040830185612997565b6020838203818501528185518084528284019150828160051b85010183880160005b83811015612b5857601f19878403018552612b46838351612937565b94860194925090850190600101612b2a565b50909998505050505050505050565b60008060208385031215612b7a57600080fd5b82356001600160401b03811115612b9057600080fd5b61292b85828601612a3c565b600080600060408486031215612bb157600080fd5b8335612bbc816129ee565b925060208401356001600160401b03811115612bd757600080fd5b612be386828701612a3c565b9497909650939450505050565b60008060008060008060008060e0898b031215612c0c57600080fd5b606089018a811115612c1d57600080fd5b899850356001600160401b0380821115612c3657600080fd5b612c428c838d01612a3c565b909950975060808b0135915080821115612c5b57600080fd5b612c678c838d016128ab565b909750955060a08b0135915080821115612c8057600080fd5b50612c8d8b828c016128ab565b999c989b50969995989497949560c00135949350505050565b600080600080600060808688031215612cbe57600080fd5b612cc786612a20565b945060208601356001600160401b03811115612ce257600080fd5b612cee88828901612a3c565b9095509350612d01905060408701612a7d565b949793965091946060013592915050565b634e487b7160e01b600052604160045260246000fd5b604051601f8201601f191681016001600160401b0381118282101715612d5057612d50612d12565b604052919050565b60006001600160401b03821115612d7157612d71612d12565b5060051b60200190565b600082601f830112612d8c57600080fd5b81356020612da1612d9c83612d58565b612d28565b82815260059290921b84018101918181019086841115612dc057600080fd5b8286015b84811015612de4578035612dd7816129ee565b8352918301918301612dc4565b509695505050505050565b803560ff81168114612a3757600080fd5b600082601f830112612e1157600080fd5b81356001600160401b03811115612e2a57612e2a612d12565b612e3d601f8201601f1916602001612d28565b818152846020838601011115612e5257600080fd5b816020850160208301376000918101602001919091529392505050565b60008060008060008060c08789031215612e8857600080fd5b86356001600160401b0380821115612e9f57600080fd5b612eab8a838b01612d7b565b97506020890135915080821115612ec157600080fd5b612ecd8a838b01612d7b565b9650612edb60408a01612def565b95506060890135915080821115612ef157600080fd5b612efd8a838b01612e00565b9450612f0b60808a01612a20565b935060a0890135915080821115612f2157600080fd5b50612f2e89828a01612e00565b9150509295509295509295565b600080600083850360a0811215612f5157600080fd5b84356001600160401b0380821115612f6857600080fd5b612f7488838901612a3c565b90965094508491506080601f1984011215612f8e57600080fd5b60405192506080830191508282108183111715612fad57612fad612d12565b50604052612fbd60208601612a20565b81526040850135612fcd816129ee565b6020820152612fde60608601612a7d565b6040820152608094909401356060850152509093909250565b634e487b7160e01b600052603260045260246000fd5b634e487b7160e01b600052601160045260246000fd5b6000828210156130355761303561300d565b500390565b634e487b7160e01b600052603160045260246000fd5b60006000198214156130645761306461300d565b5060010190565b6040808252810183905260008460608301825b868110156130ae578235613091816129ee565b6001600160a01b031682526020928301929091019060010161307e565b506001600160a01b03949094166020939093019290925250909392505050565b81835281816020850137506000828201602090810191909152601f909101601f19169091010190565b60a08152600061310b60a0830185876130ce565b90506001600160401b03835116602083015260018060a01b03602084015116604083015263ffffffff604084015116606083015260608301516080830152949350505050565b60006020828403121561316357600080fd5b5051919050565b60006020828403121561317c57600080fd5b8151611f89816129ee565b6001600160a01b03878116825286811660208301526001600160401b03861660408301528416606082015260a0608082018190526000906131cb90830184866130ce565b98975050505050505050565b600060208083850312156131ea57600080fd5b82516001600160401b0381111561320057600080fd5b8301601f8101851361321157600080fd5b805161321f612d9c82612d58565b81815260059190911b8201830190838101908783111561323e57600080fd5b928401925b82841015613265578351613256816129ee565b82529284019290840190613243565b979650505050505050565b600181811c9082168061328457607f821691505b602082108114156132a557634e487b7160e01b600052602260045260246000fd5b50919050565b600060ff821660ff84168060ff038211156132c8576132c861300d565b019392505050565b634e487b7160e01b600052601260045260246000fd5b600060ff8316806132f9576132f96132d0565b8060ff84160491505092915050565b634e487b7160e01b600052602160045260246000fd5b8183823760009101908152919050565b8281526060826020830137600060809190910190815292915050565b60006020828403121561335c57600080fd5b81516001600160601b0381168114611f8957600080fd5b600081600019048311821515161561338d5761338d61300d565b500290565b600063ffffffff8083168185168083038211156133b1576133b161300d565b01949350505050565b600061012063ffffffff808d1684528b6020850152808b166040850152508060608401526133ea8184018a612997565b905082810360808401526133fe8189612997565b905060ff871660a084015282810360c084015261341b8187612937565b90506001600160401b03851660e084015282810361010084015261343f8185612937565b9c9b505050505050505050505050565b6020808252602b908201527f496e697469616c697a61626c653a20636f6e7472616374206973206e6f74206960408201526a6e697469616c697a696e6760a81b606082015260800190565b600082198211156134ad576134ad61300d565b500190565b600082601f8301126134c357600080fd5b813560206134d3612d9c83612d58565b82815260059290921b840181019181810190868411156134f257600080fd5b8286015b84811015612de45780356001600160401b038111156135155760008081fd5b6135238986838b0101612e00565b8452509183019183016134f6565b60008060006060848603121561354657600080fd5b83356001600160401b038082111561355d57600080fd5b818601915086601f83011261357157600080fd5b81356020613581612d9c83612d58565b82815260059290921b8401810191818101908a8411156135a057600080fd5b948201945b838610156135be578535825294820194908201906135a5565b975050870135925050808211156135d457600080fd5b6135e0878388016134b2565b935060408601359150808211156135f657600080fd5b50613603868287016134b2565b9150509250925092565b60008261361c5761361c6132d0565b500490565b60006104c08a83526020818185015261363c8285018c612937565b91508382036040850152613650828b612937565b6001600160a01b038a811660608701529093509150608084018860005b601f81101561368c57815185168352918301919083019060010161366d565b50505050506136a161046083018660ff169052565b6104808201939093526104a001529695505050505050565b6000602082840312156136cb57600080fd5b81518015158114611f8957600080fd5b8981526001600160a01b03891660208201526001600160401b038881166040830152610120606083018190526000916137168483018b612997565b9150838203608085015261372a828a612997565b915060ff881660a085015283820360c08501526137478288612937565b90861660e0850152838103610100850152905061343f818561293756fea264697066735822122075df8d35620aacb73c06b9a8380f8b2fb070439000cc0a5b3be93bd8f0a593bc64736f6c63430008090033",
  "linkReferences": {},
  "deployedLinkReferences": {}
}