{
  "_format": "hh-sol-artifact-1",
  "contractName": "FunctionsOracle",
  "sourceName": "contracts/dev/functions/FunctionsOracle.sol",
  "abi": [
    {
      "inputs": [],
      "name": "AlreadySet",
      "type": "error"
    },
    {
      "inputs": [],
      "name": "CannotSelfTransfer",
      "type": "error"
    },
    {
      "inputs": [],
      "name": "EmptyBillingRegistry",
      "type": "error"
    },
    {
      "inputs": [],
      "name": "EmptyPublicKey",
      "type": "error"
    },
    {
      "inputs": [],
      "name": "EmptyRequestData",
      "type": "error"
    },
    {
      "inputs": [],
      "name": "EmptySendersList",
      "type": "error"
    },
    {
      "inputs": [],
      "name": "InconsistentReportData",
      "type": "error"
    },
    {
      "inputs": [],
      "name": "NotAllowedToSetSenders",
      "type": "error"
    },
    {
      "inputs": [],
      "name": "NotProposedOwner",
      "type": "error"
    },
    {
      "inputs": [],
      "name": "OnlyCallableByOwner",
      "type": "error"
    },
    {
      "inputs": [],
      "name": "OwnerMustBeSet",
      "type": "error"
    },
    {
      "inputs": [],
      "name": "ReportInvalid",
      "type": "error"
    },
    {
      "inputs": [],
      "name": "UnauthorizedPublicKeyChange",
      "type": "error"
    },
    {
      "inputs": [],
      "name": "UnauthorizedSender",
      "type": "error"
    },
    {
      "anonymous": false,
      "inputs": [
        {
          "indexed": false,
          "internalType": "address",
          "name": "account",
          "type": "address"
        }
      ],
      "name": "AuthorizedSendersActive",
      "type": "event"
    },
    {
      "anonymous": false,
      "inputs": [
        {
          "indexed": false,
          "internalType": "address[]",
          "name": "senders",
          "type": "address[]"
        },
        {
          "indexed": false,
          "internalType": "address",
          "name": "changedBy",
          "type": "address"
        }
      ],
      "name": "AuthorizedSendersChanged",
      "type": "event"
    },
    {
      "anonymous": false,
      "inputs": [
        {
          "indexed": false,
          "internalType": "address",
          "name": "account",
          "type": "address"
        }
      ],
      "name": "AuthorizedSendersDeactive",
      "type": "event"
    },
    {
      "anonymous": false,
      "inputs": [
        {
          "indexed": false,
          "internalType": "uint32",
          "name": "previousConfigBlockNumber",
          "type": "uint32"
        },
        {
          "indexed": false,
          "internalType": "bytes32",
          "name": "configDigest",
          "type": "bytes32"
        },
        {
          "indexed": false,
          "internalType": "uint64",
          "name": "configCount",
          "type": "uint64"
        },
        {
          "indexed": false,
          "internalType": "address[]",
          "name": "signers",
          "type": "address[]"
        },
        {
          "indexed": false,
          "internalType": "address[]",
          "name": "transmitters",
          "type": "address[]"
        },
        {
          "indexed": false,
          "internalType": "uint8",
          "name": "f",
          "type": "uint8"
        },
        {
          "indexed": false,
          "internalType": "bytes",
          "name": "onchainConfig",
          "type": "bytes"
        },
        {
          "indexed": false,
          "internalType": "uint64",
          "name": "offchainConfigVersion",
          "type": "uint64"
        },
        {
          "indexed": false,
          "internalType": "bytes",
          "name": "offchainConfig",
          "type": "bytes"
        }
      ],
      "name": "ConfigSet",
      "type": "event"
    },
    {
      "anonymous": false,
      "inputs": [
        {
          "indexed": false,
          "internalType": "uint8",
          "name": "version",
          "type": "uint8"
        }
      ],
      "name": "Initialized",
      "type": "event"
    },
    {
      "anonymous": false,
      "inputs": [
        {
          "indexed": true,
          "internalType": "bytes32",
          "name": "requestId",
          "type": "bytes32"
        }
      ],
      "name": "InvalidRequestID",
      "type": "event"
    },
    {
      "anonymous": false,
      "inputs": [
        {
          "indexed": true,
          "internalType": "bytes32",
          "name": "requestId",
          "type": "bytes32"
        },
        {
          "indexed": false,
          "internalType": "address",
          "name": "requestingContract",
          "type": "address"
        },
        {
          "indexed": false,
          "internalType": "address",
          "name": "requestInitiator",
          "type": "address"
        },
        {
          "indexed": false,
          "internalType": "uint64",
          "name": "subscriptionId",
          "type": "uint64"
        },
        {
          "indexed": false,
          "internalType": "address",
          "name": "subscriptionOwner",
          "type": "address"
        },
        {
          "indexed": false,
          "internalType": "bytes",
          "name": "data",
          "type": "bytes"
        }
      ],
      "name": "OracleRequest",
      "type": "event"
    },
    {
      "anonymous": false,
      "inputs": [
        {
          "indexed": true,
          "internalType": "bytes32",
          "name": "requestId",
          "type": "bytes32"
        }
      ],
      "name": "OracleResponse",
      "type": "event"
    },
    {
      "anonymous": false,
      "inputs": [
        {
          "indexed": true,
          "internalType": "address",
          "name": "from",
          "type": "address"
        },
        {
          "indexed": true,
          "internalType": "address",
          "name": "to",
          "type": "address"
        }
      ],
      "name": "OwnershipTransferRequested",
      "type": "event"
    },
    {
      "anonymous": false,
      "inputs": [
        {
          "indexed": true,
          "internalType": "address",
          "name": "from",
          "type": "address"
        },
        {
          "indexed": true,
          "internalType": "address",
          "name": "to",
          "type": "address"
        }
      ],
      "name": "OwnershipTransferred",
      "type": "event"
    },
    {
      "anonymous": false,
      "inputs": [
        {
          "indexed": false,
          "internalType": "bytes32",
          "name": "configDigest",
          "type": "bytes32"
        },
        {
          "indexed": false,
          "internalType": "uint32",
          "name": "epoch",
          "type": "uint32"
        }
      ],
      "name": "Transmitted",
      "type": "event"
    },
    {
      "anonymous": false,
      "inputs": [
        {
          "indexed": true,
          "internalType": "bytes32",
          "name": "requestId",
          "type": "bytes32"
        },
        {
          "indexed": false,
          "internalType": "string",
          "name": "reason",
          "type": "string"
        }
      ],
      "name": "UserCallbackError",
      "type": "event"
    },
    {
      "anonymous": false,
      "inputs": [
        {
          "indexed": true,
          "internalType": "bytes32",
          "name": "requestId",
          "type": "bytes32"
        },
        {
          "indexed": false,
          "internalType": "bytes",
          "name": "lowLevelData",
          "type": "bytes"
        }
      ],
      "name": "UserCallbackRawError",
      "type": "event"
    },
    {
      "inputs": [],
      "name": "acceptOwnership",
      "outputs": [],
      "stateMutability": "nonpayable",
      "type": "function"
    },
    {
      "inputs": [],
      "name": "activateAuthorizedReceiver",
      "outputs": [],
      "stateMutability": "nonpayable",
      "type": "function"
    },
    {
      "inputs": [
        {
          "internalType": "address[]",
          "name": "senders",
          "type": "address[]"
        }
      ],
      "name": "addAuthorizedSenders",
      "outputs": [],
      "stateMutability": "nonpayable",
      "type": "function"
    },
    {
      "inputs": [],
      "name": "authorizedReceiverActive",
      "outputs": [
        {
          "internalType": "bool",
          "name": "",
          "type": "bool"
        }
      ],
      "stateMutability": "view",
      "type": "function"
    },
    {
      "inputs": [],
      "name": "deactivateAuthorizedReceiver",
      "outputs": [],
      "stateMutability": "nonpayable",
      "type": "function"
    },
    {
      "inputs": [
        {
          "internalType": "address",
          "name": "node",
          "type": "address"
        }
      ],
      "name": "deleteNodePublicKey",
      "outputs": [],
      "stateMutability": "nonpayable",
      "type": "function"
    },
    {
      "inputs": [
        {
          "internalType": "uint64",
          "name": "subscriptionId",
          "type": "uint64"
        },
        {
          "internalType": "bytes",
          "name": "data",
          "type": "bytes"
        },
        {
          "internalType": "uint32",
          "name": "gasLimit",
          "type": "uint32"
        },
        {
          "internalType": "uint256",
          "name": "gasPrice",
          "type": "uint256"
        }
      ],
      "name": "estimateCost",
      "outputs": [
        {
          "internalType": "uint96",
          "name": "",
          "type": "uint96"
        }
      ],
      "stateMutability": "view",
      "type": "function"
    },
    {
      "inputs": [],
      "name": "getAllNodePublicKeys",
      "outputs": [
        {
          "internalType": "address[]",
          "name": "",
          "type": "address[]"
        },
        {
          "internalType": "bytes[]",
          "name": "",
          "type": "bytes[]"
        }
      ],
      "stateMutability": "view",
      "type": "function"
    },
    {
      "inputs": [],
      "name": "getAuthorizedSenders",
      "outputs": [
        {
          "internalType": "address[]",
          "name": "",
          "type": "address[]"
        }
      ],
      "stateMutability": "view",
      "type": "function"
    },
    {
      "inputs": [],
      "name": "getDONPublicKey",
      "outputs": [
        {
          "internalType": "bytes",
          "name": "",
          "type": "bytes"
        }
      ],
      "stateMutability": "view",
      "type": "function"
    },
    {
      "inputs": [],
      "name": "getRegistry",
      "outputs": [
        {
          "internalType": "address",
          "name": "",
          "type": "address"
        }
      ],
      "stateMutability": "view",
      "type": "function"
    },
    {
      "inputs": [
        {
          "internalType": "bytes",
          "name": "",
          "type": "bytes"
        },
        {
          "components": [
            {
              "internalType": "uint64",
              "name": "subscriptionId",
              "type": "uint64"
            },
            {
              "internalType": "address",
              "name": "client",
              "type": "address"
            },
            {
              "internalType": "uint32",
              "name": "gasLimit",
              "type": "uint32"
            },
            {
              "internalType": "uint256",
              "name": "gasPrice",
              "type": "uint256"
            }
          ],
          "internalType": "struct FunctionsBillingRegistryInterface.RequestBilling",
          "name": "",
          "type": "tuple"
        }
      ],
      "name": "getRequiredFee",
      "outputs": [
        {
          "internalType": "uint96",
          "name": "",
          "type": "uint96"
        }
      ],
      "stateMutability": "pure",
      "type": "function"
    },
    {
      "inputs": [],
      "name": "initialize",
      "outputs": [],
      "stateMutability": "nonpayable",
      "type": "function"
    },
    {
      "inputs": [
        {
          "internalType": "address",
          "name": "sender",
          "type": "address"
        }
      ],
      "name": "isAuthorizedSender",
      "outputs": [
        {
          "internalType": "bool",
          "name": "",
          "type": "bool"
        }
      ],
      "stateMutability": "view",
      "type": "function"
    },
    {
      "inputs": [],
      "name": "latestConfigDetails",
      "outputs": [
        {
          "internalType": "uint32",
          "name": "configCount",
          "type": "uint32"
        },
        {
          "internalType": "uint32",
          "name": "blockNumber",
          "type": "uint32"
        },
        {
          "internalType": "bytes32",
          "name": "configDigest",
          "type": "bytes32"
        }
      ],
      "stateMutability": "view",
      "type": "function"
    },
    {
      "inputs": [],
      "name": "latestConfigDigestAndEpoch",
      "outputs": [
        {
          "internalType": "bool",
          "name": "scanLogs",
          "type": "bool"
        },
        {
          "internalType": "bytes32",
          "name": "configDigest",
          "type": "bytes32"
        },
        {
          "internalType": "uint32",
          "name": "epoch",
          "type": "uint32"
        }
      ],
      "stateMutability": "view",
      "type": "function"
    },
    {
      "inputs": [],
      "name": "owner",
      "outputs": [
        {
          "internalType": "address",
          "name": "",
          "type": "address"
        }
      ],
      "stateMutability": "view",
      "type": "function"
    },
    {
      "inputs": [
        {
          "internalType": "address[]",
          "name": "senders",
          "type": "address[]"
        }
      ],
      "name": "removeAuthorizedSenders",
      "outputs": [],
      "stateMutability": "nonpayable",
      "type": "function"
    },
    {
      "inputs": [
        {
          "internalType": "uint64",
          "name": "subscriptionId",
          "type": "uint64"
        },
        {
          "internalType": "bytes",
          "name": "data",
          "type": "bytes"
        },
        {
          "internalType": "uint32",
          "name": "gasLimit",
          "type": "uint32"
        }
      ],
      "name": "sendRequest",
      "outputs": [
        {
          "internalType": "bytes32",
          "name": "",
          "type": "bytes32"
        }
      ],
      "stateMutability": "nonpayable",
      "type": "function"
    },
    {
      "inputs": [
        {
          "internalType": "address[]",
          "name": "_signers",
          "type": "address[]"
        },
        {
          "internalType": "address[]",
          "name": "_transmitters",
          "type": "address[]"
        },
        {
          "internalType": "uint8",
          "name": "_f",
          "type": "uint8"
        },
        {
          "internalType": "bytes",
          "name": "_onchainConfig",
          "type": "bytes"
        },
        {
          "internalType": "uint64",
          "name": "_offchainConfigVersion",
          "type": "uint64"
        },
        {
          "internalType": "bytes",
          "name": "_offchainConfig",
          "type": "bytes"
        }
      ],
      "name": "setConfig",
      "outputs": [],
      "stateMutability": "nonpayable",
      "type": "function"
    },
    {
      "inputs": [
        {
          "internalType": "bytes",
          "name": "donPublicKey",
          "type": "bytes"
        }
      ],
      "name": "setDONPublicKey",
      "outputs": [],
      "stateMutability": "nonpayable",
      "type": "function"
    },
    {
      "inputs": [
        {
          "internalType": "address",
          "name": "node",
          "type": "address"
        },
        {
          "internalType": "bytes",
          "name": "publicKey",
          "type": "bytes"
        }
      ],
      "name": "setNodePublicKey",
      "outputs": [],
      "stateMutability": "nonpayable",
      "type": "function"
    },
    {
      "inputs": [
        {
          "internalType": "address",
          "name": "registryAddress",
          "type": "address"
        }
      ],
      "name": "setRegistry",
      "outputs": [],
      "stateMutability": "nonpayable",
      "type": "function"
    },
    {
      "inputs": [
        {
          "internalType": "address",
          "name": "to",
          "type": "address"
        }
      ],
      "name": "transferOwnership",
      "outputs": [],
      "stateMutability": "nonpayable",
      "type": "function"
    },
    {
      "inputs": [
        {
          "internalType": "bytes32[3]",
          "name": "reportContext",
          "type": "bytes32[3]"
        },
        {
          "internalType": "bytes",
          "name": "report",
          "type": "bytes"
        },
        {
          "internalType": "bytes32[]",
          "name": "rs",
          "type": "bytes32[]"
        },
        {
          "internalType": "bytes32[]",
          "name": "ss",
          "type": "bytes32[]"
        },
        {
          "internalType": "bytes32",
          "name": "rawVs",
          "type": "bytes32"
        }
      ],
      "name": "transmit",
      "outputs": [],
      "stateMutability": "nonpayable",
      "type": "function"
    },
    {
      "inputs": [],
      "name": "transmitters",
      "outputs": [
        {
          "internalType": "address[]",
          "name": "",
          "type": "address[]"
        }
      ],
      "stateMutability": "view",
      "type": "function"
    },
    {
      "inputs": [],
      "name": "typeAndVersion",
      "outputs": [
        {
          "internalType": "string",
          "name": "",
          "type": "string"
        }
      ],
      "stateMutability": "pure",
      "type": "function"
    }
  ],
  "bytecode": "0x608060405234801561001057600080fd5b5061395c806100206000396000f3fe608060405234801561001057600080fd5b50600436106101b95760003560e01c80638129fc1c116100f9578063b1dc65a411610097578063e3d0e71211610071578063e3d0e712146103df578063f1e14a21146103f2578063f2fde38b14610409578063fa00763a1461041c57600080fd5b8063b1dc65a414610394578063d227d245146103a7578063d328a91e146103d757600080fd5b80638da5cb5b116100d35780638da5cb5b1461034257806391bb64eb14610359578063a91ee0dc14610361578063afcb95d71461037457600080fd5b80638129fc1c14610302578063814118341461030a57806381ff70481461031257600080fd5b80634b4fa0c1116101665780635ab1bd53116101405780635ab1bd53146102af57806379ba5097146102d45780637f15e166146102dc57806380756031146102ef57600080fd5b80634b4fa0c11461026f5780634dcef40414610286578063533989871461029957600080fd5b80632408afaa116101975780632408afaa1461022657806326ceabac1461023b57806328242b041461024e57600080fd5b806303e1bf23146101be578063110254c8146101d3578063181f5a77146101db575b600080fd5b6101d16101cc366004612d59565b61042f565b005b6101d161050e565b60408051808201909152601581527f46756e6374696f6e734f7261636c6520302e302e30000000000000000000000060208201525b60405161021d91906135e0565b60405180910390f35b61022e6105a6565b60405161021d9190613468565b6101d1610249366004612cca565b6105b7565b61026161025c3660046131d1565b610631565b60405190815260200161021d565b60085460ff165b604051901515815260200161021d565b6101d1610294366004612d59565b610857565b6102a16108f6565b60405161021d92919061347b565b600c546001600160a01b03165b6040516001600160a01b03909116815260200161021d565b6101d1610ad1565b6101d16102ea3660046130bd565b610b89565b6101d16102fd366004612d04565b610bd9565b6101d1610c68565b61022e610d98565b6004546002546040805163ffffffff8085168252640100000000909404909316602084015282015260600161021d565b6000546201000090046001600160a01b03166102bc565b6101d1610dfa565b6101d161036f366004612cca565b610e88565b60408051600181526000602082018190529181019190915260600161021d565b6101d16103a2366004612f09565b610ed9565b6103ba6103b5366004613236565b6114d2565b6040516bffffffffffffffffffffffff909116815260200161021d565b610210611699565b6101d16103ed366004612e3c565b611722565b6103ba6104003660046130f3565b60009392505050565b6101d1610417366004612cca565b611e78565b61027661042a366004612cca565b611e89565b6000546201000090046001600160a01b031633146104605760405163ad77f06160e01b815260040160405180910390fd5b8061047e576040516375158c3b60e01b815260040160405180910390fd5b60005b818110156104ce576104bb83838381811061049e5761049e6138e5565b90506020020160208101906104b39190612cca565b600990611eb4565b50806104c681613872565b915050610481565b507ff263cfb3e4298332e776194610cf9fdc09ccb3ada8b9aa39764d882e11fbf0a082823360405161050293929190613408565b60405180910390a15050565b6000546201000090046001600160a01b0316331461053f5760405163ad77f06160e01b815260040160405180910390fd5b60085460ff16156105635760405163a741a04560e01b815260040160405180910390fd5b6008805460ff191660011790556040513381527fae51766a982895b0c444fc99fc1a560762b464d709e6c78376c85617f7eeb5ce906020015b60405180910390a1565b60606105b26009611ed0565b905090565b6000546201000090046001600160a01b03166001600160a01b0316336001600160a01b031614806105f05750336001600160a01b038216145b61060d5760405163ed6dd19b60e01b815260040160405180910390fd5b6001600160a01b0381166000908152600d6020526040812061062e9161298b565b50565b600c546000906001600160a01b031661065d57604051632717f8c960e21b815260040160405180910390fd5b610665611edd565b8261069b576040517ec1cfc000000000000000000000000000000000000000000000000000000000815260040160405180910390fd5b600c546040805160808101825267ffffffffffffffff8816815233602082015263ffffffff8516818301523a606082015290517fa9d03c050000000000000000000000000000000000000000000000000000000081526000926001600160a01b03169163a9d03c0591610715918991899190600401613584565b602060405180830381600087803b15801561072f57600080fd5b505af1158015610743573d6000803e3d6000fd5b505050506040513d601f19601f8201168201806040525081019061076791906130a4565b600c546040517fb2a489ff00000000000000000000000000000000000000000000000000000000815267ffffffffffffffff8916600482015291925082917fa1ec73989d79578cd6f67d4f593ac3e0a4d1020e5c0164db52108d7ff785406c91339132918b916001600160a01b039091169063b2a489ff9060240160206040518083038186803b1580156107fa57600080fd5b505afa15801561080e573d6000803e3d6000fd5b505050506040513d601f19601f820116820180604052508101906108329190612ce7565b8a8a604051610846969594939291906133b7565b60405180910390a295945050505050565b6000546201000090046001600160a01b031633146108885760405163ad77f06160e01b815260040160405180910390fd5b806108a6576040516375158c3b60e01b815260040160405180910390fd5b60005b818110156104ce576108e38383838181106108c6576108c66138e5565b90506020020160208101906108db9190612cca565b600990611f1e565b50806108ee81613872565b9150506108a9565b6060806000306001600160a01b031663814118346040518163ffffffff1660e01b815260040160006040518083038186803b15801561093457600080fd5b505afa158015610948573d6000803e3d6000fd5b505050506040513d6000823e601f3d908101601f191682016040526109709190810190612d9b565b90506000815167ffffffffffffffff81111561098e5761098e6138fb565b6040519080825280602002602001820160405280156109c157816020015b60608152602001906001900390816109ac5790505b50905060005b8251811015610ac757600d60008483815181106109e6576109e66138e5565b60200260200101516001600160a01b03166001600160a01b031681526020019081526020016000208054610a1990613837565b80601f0160208091040260200160405190810160405280929190818152602001828054610a4590613837565b8015610a925780601f10610a6757610100808354040283529160200191610a92565b820191906000526020600020905b815481529060010190602001808311610a7557829003601f168201915b5050505050828281518110610aa957610aa96138e5565b60200260200101819052508080610abf90613872565b9150506109c7565b5090939092509050565b6001546001600160a01b03163314610b15576040517f0f22ca5f00000000000000000000000000000000000000000000000000000000815260040160405180910390fd5b60008054336201000081810275ffffffffffffffffffffffffffffffffffffffff0000198416178455600180546001600160a01b03191690556040516001600160a01b03919093041692909183917f8be0079c531659141344cd1fd0a4f28419497f9722a3daafe3b4186f6b6457e091a350565b610b91611f33565b80610bc8576040517f4f42be3d00000000000000000000000000000000000000000000000000000000815260040160405180910390fd5b610bd4600b83836129c5565b505050565b6000546201000090046001600160a01b03166001600160a01b0316336001600160a01b03161480610c225750610c0e33611f7d565b8015610c225750336001600160a01b038416145b610c3f5760405163ed6dd19b60e01b815260040160405180910390fd5b6001600160a01b0383166000908152600d60205260409020610c629083836129c5565b50505050565b600054610100900460ff1615808015610c885750600054600160ff909116105b80610ca25750303b158015610ca2575060005460ff166001145b610d195760405162461bcd60e51b815260206004820152602e60248201527f496e697469616c697a61626c653a20636f6e747261637420697320616c72656160448201527f647920696e697469616c697a656400000000000000000000000000000000000060648201526084015b60405180910390fd5b6000805460ff191660011790558015610d3c576000805461ff0019166101001790555b610d46600161205c565b610d50600161210b565b801561062e576000805461ff0019169055604051600181527f7f26b83ff96e1f2b6a682f133852f6798a09c465da95921460cefb38474024989060200160405180910390a150565b60606007805480602002602001604051908101604052809291908181526020018280548015610df057602002820191906000526020600020905b81546001600160a01b03168152600190910190602001808311610dd2575b5050505050905090565b6000546201000090046001600160a01b03163314610e2b5760405163ad77f06160e01b815260040160405180910390fd5b60085460ff16610e4e5760405163a741a04560e01b815260040160405180910390fd5b6008805460ff191690556040513381527fea3828816a323b8d7ff49d755efd105e7719166d6c76fad97a28eee5eccc3d9a9060200161059c565b610e90611f33565b6001600160a01b038116610eb757604051632717f8c960e21b815260040160405180910390fd5b600c80546001600160a01b0319166001600160a01b0392909216919091179055565b60005a604080516020601f8b018190048102820181019092528981529192508a3591818c013591610f2f91849163ffffffff851691908e908e908190840183828082843760009201919091525061218992505050565b610f4c5760405163017c6c6560e31b815260040160405180910390fd5b6040805183815262ffffff600884901c1660208201527fb04e63db38c49950639fa09d29872f21f5d49d614f3a969d8adf3d4b52e41a62910160405180910390a16040805160608101825260025480825260035460ff808216602085015261010090910416928201929092529083146110075760405162461bcd60e51b815260206004820152601560248201527f636f6e666967446967657374206d69736d6174636800000000000000000000006044820152606401610d10565b6110158b8b8b8b8b8b612192565b600154600090600160a01b900460ff161561105f5760028260200151836040015161104091906137a6565b61104a91906137df565b6110559060016137a6565b60ff169050611075565b602082015161106f9060016137a6565b60ff1690505b8881146110c45760405162461bcd60e51b815260206004820152601a60248201527f77726f6e67206e756d626572206f66207369676e6174757265730000000000006044820152606401610d10565b8887146111135760405162461bcd60e51b815260206004820152601e60248201527f7369676e617475726573206f7574206f6620726567697374726174696f6e00006044820152606401610d10565b3360009081526005602090815260408083208151808301909252805460ff80821684529293919291840191610100909104166002811115611156576111566138b9565b6002811115611167576111676138b9565b9052509050600281602001516002811115611184576111846138b9565b1480156111be57506007816000015160ff16815481106111a6576111a66138e5565b6000918252602090912001546001600160a01b031633145b61120a5760405162461bcd60e51b815260206004820152601860248201527f756e617574686f72697a6564207472616e736d697474657200000000000000006044820152606401610d10565b5050505050611217612a49565b6000808a8a60405161122a9291906133a7565b604051908190038120611241918e9060200161338b565b60408051601f198184030181528282528051602091820120838301909252600080845290830152915060005b898110156114b457600060018489846020811061128c5761128c6138e5565b61129991901a601b6137a6565b8e8e868181106112ab576112ab6138e5565b905060200201358d8d878181106112c4576112c46138e5565b9050602002013560405160008152602001604052604051611301949392919093845260ff9290921660208401526040830152606082015260800190565b6020604051602081039080840390855afa158015611323573d6000803e3d6000fd5b505060408051601f198101516001600160a01b03811660009081526005602090815290849020838501909452835460ff80821685529296509294508401916101009004166002811115611378576113786138b9565b6002811115611389576113896138b9565b90525092506001836020015160028111156113a6576113a66138b9565b146113f35760405162461bcd60e51b815260206004820152601e60248201527f61646472657373206e6f7420617574686f72697a656420746f207369676e00006044820152606401610d10565b8251600090879060ff16601f811061140d5761140d6138e5565b60200201516001600160a01b0316146114685760405162461bcd60e51b815260206004820152601460248201527f6e6f6e2d756e69717565207369676e61747572650000000000000000000000006044820152606401610d10565b8086846000015160ff16601f8110611482576114826138e5565b6001600160a01b0390921660209290920201526114a06001866137a6565b945050806114ad90613872565b905061126d565b5050506114c5833383858e8e61222f565b5050505050505050505050565b600c546000906001600160a01b03166114fe57604051632717f8c960e21b815260040160405180910390fd5b6040805160808101825267ffffffffffffffff8816815233602082015263ffffffff85168183015260608101849052600c5491517ff1e14a21000000000000000000000000000000000000000000000000000000008152909160009182916001600160a01b03169063f1e14a219061157e908b908b908890600401613584565b60206040518083038186803b15801561159657600080fd5b505afa1580156115aa573d6000803e3d6000fd5b505050506040513d601f19601f820116820180604052508101906115ce91906132a3565b600c546040517fa1a6d04100000000000000000000000000000000000000000000000000000000815263ffffffff89166004820152602481018890526bffffffffffffffffffffffff8086166044830152831660648201529192506001600160a01b03169063a1a6d0419060840160206040518083038186803b15801561165457600080fd5b505afa158015611668573d6000803e3d6000fd5b505050506040513d601f19601f8201168201806040525081019061168c91906132a3565b9998505050505050505050565b6060600b80546116a890613837565b80601f01602080910402602001604051908101604052809291908181526020018280546116d490613837565b8015610df05780601f106116f657610100808354040283529160200191610df0565b820191906000526020600020905b81548152906001019060200180831161170457509395945050505050565b855185518560ff16601f83111561177b5760405162461bcd60e51b815260206004820152601060248201527f746f6f206d616e79207369676e657273000000000000000000000000000000006044820152606401610d10565b600081116117cb5760405162461bcd60e51b815260206004820152601260248201527f66206d75737420626520706f73697469766500000000000000000000000000006044820152606401610d10565b81831461183f5760405162461bcd60e51b8152602060048201526024808201527f6f7261636c6520616464726573736573206f7574206f6620726567697374726160448201527f74696f6e000000000000000000000000000000000000000000000000000000006064820152608401610d10565b61184a816003613801565b83116118985760405162461bcd60e51b815260206004820152601860248201527f6661756c74792d6f7261636c65206620746f6f206869676800000000000000006044820152606401610d10565b6118a0611f33565b6040805160c0810182528a8152602081018a905260ff8916918101919091526060810187905267ffffffffffffffff8616608082015260a081018590525b600654156119f0576006546000906118f890600190613820565b905060006006828154811061190f5761190f6138e5565b6000918252602082200154600780546001600160a01b039092169350908490811061193c5761193c6138e5565b60009182526020808320909101546001600160a01b03858116845260059092526040808420805461ffff1990811690915592909116808452922080549091169055600680549192509080611992576119926138cf565b600082815260209020810160001990810180546001600160a01b031916905501905560078054806119c5576119c56138cf565b600082815260209020810160001990810180546001600160a01b0319169055019055506118de915050565b60005b815151811015611d2d5760006005600084600001518481518110611a1957611a196138e5565b6020908102919091018101516001600160a01b0316825281019190915260400160002054610100900460ff166002811115611a5657611a566138b9565b14611aa35760405162461bcd60e51b815260206004820152601760248201527f7265706561746564207369676e657220616464726573730000000000000000006044820152606401610d10565b6040805180820190915260ff82168152600160208201528251805160059160009185908110611ad457611ad46138e5565b6020908102919091018101516001600160a01b03168252818101929092526040016000208251815460ff90911660ff19821681178355928401519192839161ffff191617610100836002811115611b2d57611b2d6138b9565b021790555060009150611b3d9050565b6005600084602001518481518110611b5757611b576138e5565b6020908102919091018101516001600160a01b0316825281019190915260400160002054610100900460ff166002811115611b9457611b946138b9565b14611be15760405162461bcd60e51b815260206004820152601c60248201527f7265706561746564207472616e736d69747465722061646472657373000000006044820152606401610d10565b6040805180820190915260ff821681526020810160028152506005600084602001518481518110611c1457611c146138e5565b6020908102919091018101516001600160a01b03168252818101929092526040016000208251815460ff90911660ff19821681178355928401519192839161ffff191617610100836002811115611c6d57611c6d6138b9565b021790555050825180516006925083908110611c8b57611c8b6138e5565b602090810291909101810151825460018101845560009384529282902090920180546001600160a01b0319166001600160a01b039093169290921790915582015180516007919083908110611ce257611ce26138e5565b60209081029190910181015182546001810184556000938452919092200180546001600160a01b0319166001600160a01b03909216919091179055611d2681613872565b90506119f3565b5060408101516003805460ff191660ff9092169190911790556004805467ffffffff0000000019811664010000000063ffffffff438116820292831785559083048116936001939092600092611d8a92869290821691161761377e565b92506101000a81548163ffffffff021916908363ffffffff160217905550611de94630600460009054906101000a900463ffffffff1663ffffffff16856000015186602001518760400151886060015189608001518a60a001516125b2565b6002819055825180516003805460ff9092166101000261ff001990921691909117905560045460208501516040808701516060880151608089015160a08a015193517f1591690b8638f5fb2dbec82ac741805ac5da8b45dc5263f4875b0496fdce4e0598611e6b988b98919763ffffffff90921696909591949193919261368b565b60405180910390a16114c5565b611e80611f33565b61062e8161263f565b6000611e9760085460ff1690565b611ea357506001919050565b611eae6009836126da565b92915050565b6000611ec9836001600160a01b0384166126fc565b9392505050565b60606000611ec9836127ef565b611ee632611e89565b611f1c576040517f0809490800000000000000000000000000000000000000000000000000000000815260040160405180910390fd5b565b6000611ec9836001600160a01b03841661284b565b6000546201000090046001600160a01b03163314611f1c576040517f2b5c74de00000000000000000000000000000000000000000000000000000000815260040160405180910390fd5b600080306001600160a01b031663814118346040518163ffffffff1660e01b815260040160006040518083038186803b158015611fb957600080fd5b505afa158015611fcd573d6000803e3d6000fd5b505050506040513d6000823e601f3d908101601f19168201604052611ff59190810190612d9b565b905060005b815181101561205257836001600160a01b031682828151811061201f5761201f6138e5565b60200260200101516001600160a01b03161415612040575060019392505050565b8061204a81613872565b915050611ffa565b5060009392505050565b600054610100900460ff166120c75760405162461bcd60e51b815260206004820152602b60248201527f496e697469616c697a61626c653a20636f6e7472616374206973206e6f74206960448201526a6e697469616c697a696e6760a81b6064820152608401610d10565b6120d233600061289a565b60018054911515600160a01b027fffffffffffffffffffffff00ffffffffffffffffffffffffffffffffffffffff909216919091179055565b600054610100900460ff166121765760405162461bcd60e51b815260206004820152602b60248201527f496e697469616c697a61626c653a20636f6e7472616374206973206e6f74206960448201526a6e697469616c697a696e6760a81b6064820152608401610d10565b6008805460ff1916911515919091179055565b60019392505050565b600061219f826020613801565b6121aa856020613801565b6121b688610144613766565b6121c09190613766565b6121ca9190613766565b6121d5906000613766565b90503681146122265760405162461bcd60e51b815260206004820152601860248201527f63616c6c64617461206c656e677468206d69736d6174636800000000000000006044820152606401610d10565b50505050505050565b600c546001600160a01b031661225857604051632717f8c960e21b815260040160405180910390fd5b6060808061226884860186612fc0565b82519295509093509150158061228057508151835114155b8061228d57508051835114155b156122ab5760405163017c6c6560e31b815260040160405180910390fd5b600083515a6122ba908c613820565b6122c491906137cb565b905060005b84518110156114c557600c5485516001600160a01b0390911690630739e4f1908790849081106122fb576122fb6138e5565b6020026020010151868481518110612315576123156138e5565b602002602001015186858151811061232f5761232f6138e5565b60200260200101518e8d8f895a6040518963ffffffff1660e01b815260040161235f9897969594939291906134ed565b602060405180830381600087803b15801561237957600080fd5b505af19250505080156123a9575060408051601f3d908101601f191682019092526123a6918101906131b0565b60015b612434573d8080156123d7576040519150601f19603f3d011682016040523d82523d6000602084013e6123dc565b606091505b508582815181106123ef576123ef6138e5565b60200260200101517fe0b838ffe6ee22a0d3acf19a85db6a41b34a1ab739e2d6c759a2e42d95bdccb28260405161242691906135e0565b60405180910390a25061259c565b6000816002811115612448576124486138b9565b141561249957858281518110612460576124606138e5565b60200260200101517f9e9bc7616d42c2835d05ae617e508454e63b30b934be8aa932ebc125e0e58a6460405160405180910390a261259a565b60018160028111156124ad576124ad6138b9565b1415612539578582815181106124c5576124c56138e5565b60200260200101517fb2931868c372fe17a25643458add467d60ec5c51125a99b7309f41f5bcd2da6c60405161252c9060208082526011908201527f6572726f7220696e2063616c6c6261636b000000000000000000000000000000604082015260600190565b60405180910390a261259a565b600281600281111561254d5761254d6138b9565b141561259a57858281518110612565576125656138e5565b60200260200101517fa1c120e327c9ad8b075793878c88d59b8934b97ae37117faa3bb21616237f7be60405160405180910390a25b505b806125a681613872565b9150506122c9565b5050565b6000808a8a8a8a8a8a8a8a8a6040516020016125d6999897969594939291906135f3565b60408051601f1981840301815291905280516020909101207dffffffffffffffffffffffffffffffffffffffffffffffffffffffffffff167e01000000000000000000000000000000000000000000000000000000000000179150509998505050505050505050565b6001600160a01b038116331415612682576040517f282010c300000000000000000000000000000000000000000000000000000000815260040160405180910390fd5b600180546001600160a01b0319166001600160a01b038381169182179092556000805460405192936201000090910416917fed8889f560326eb138920d842192f0eb3dd22b4f139c87a2c57538e05bae12789190a350565b6001600160a01b03811660009081526001830160205260408120541515611ec9565b600081815260018301602052604081205480156127e5576000612720600183613820565b855490915060009061273490600190613820565b9050818114612799576000866000018281548110612754576127546138e5565b9060005260206000200154905080876000018481548110612777576127776138e5565b6000918252602080832090910192909255918252600188019052604090208390555b85548690806127aa576127aa6138cf565b600190038181906000526020600020016000905590558560010160008681526020019081526020016000206000905560019350505050611eae565b6000915050611eae565b60608160000180548060200260200160405190810160405280929190818152602001828054801561283f57602002820191906000526020600020905b81548152602001906001019080831161282b575b50505050509050919050565b600081815260018301602052604081205461289257508154600181810184556000848152602080822090930184905584548482528286019093526040902091909155611eae565b506000611eae565b600054610100900460ff166129055760405162461bcd60e51b815260206004820152602b60248201527f496e697469616c697a61626c653a20636f6e7472616374206973206e6f74206960448201526a6e697469616c697a696e6760a81b6064820152608401610d10565b6001600160a01b038216612945576040517fb6b515fa00000000000000000000000000000000000000000000000000000000815260040160405180910390fd5b600080546001600160a01b03808516620100000275ffffffffffffffffffffffffffffffffffffffff000019909216919091179091558116156125ae576125ae8161263f565b50805461299790613837565b6000825580601f106129a7575050565b601f01602090049060005260206000209081019061062e9190612a68565b8280546129d190613837565b90600052602060002090601f0160209004810192826129f35760008555612a39565b82601f10612a0c5782800160ff19823516178555612a39565b82800160010185558215612a39579182015b82811115612a39578235825591602001919060010190612a1e565b50612a45929150612a68565b5090565b604051806103e00160405280601f906020820280368337509192915050565b5b80821115612a455760008155600101612a69565b60008083601f840112612a8f57600080fd5b50813567ffffffffffffffff811115612aa757600080fd5b6020830191508360208260051b8501011115612ac257600080fd5b9250929050565b600082601f830112612ada57600080fd5b81356020612aef612aea83613742565b613711565b80838252828201915082860187848660051b8901011115612b0f57600080fd5b60005b85811015612b37578135612b2581613911565b84529284019290840190600101612b12565b5090979650505050505050565b600082601f830112612b5557600080fd5b81356020612b65612aea83613742565b80838252828201915082860187848660051b8901011115612b8557600080fd5b6000805b86811015612bc857823567ffffffffffffffff811115612ba7578283fd5b612bb58b88838d0101612c18565b8652509385019391850191600101612b89565b509198975050505050505050565b60008083601f840112612be857600080fd5b50813567ffffffffffffffff811115612c0057600080fd5b602083019150836020828501011115612ac257600080fd5b600082601f830112612c2957600080fd5b813567ffffffffffffffff811115612c4357612c436138fb565b612c56601f8201601f1916602001613711565b818152846020838601011115612c6b57600080fd5b816020850160208301376000918101602001919091529392505050565b803563ffffffff81168114612c9c57600080fd5b919050565b803567ffffffffffffffff81168114612c9c57600080fd5b803560ff81168114612c9c57600080fd5b600060208284031215612cdc57600080fd5b8135611ec981613911565b600060208284031215612cf957600080fd5b8151611ec981613911565b600080600060408486031215612d1957600080fd5b8335612d2481613911565b9250602084013567ffffffffffffffff811115612d4057600080fd5b612d4c86828701612bd6565b9497909650939450505050565b60008060208385031215612d6c57600080fd5b823567ffffffffffffffff811115612d8357600080fd5b612d8f85828601612a7d565b90969095509350505050565b60006020808385031215612dae57600080fd5b825167ffffffffffffffff811115612dc557600080fd5b8301601f81018513612dd657600080fd5b8051612de4612aea82613742565b80828252848201915084840188868560051b8701011115612e0457600080fd5b600094505b83851015612e30578051612e1c81613911565b835260019490940193918501918501612e09565b50979650505050505050565b60008060008060008060c08789031215612e5557600080fd5b863567ffffffffffffffff80821115612e6d57600080fd5b612e798a838b01612ac9565b97506020890135915080821115612e8f57600080fd5b612e9b8a838b01612ac9565b9650612ea960408a01612cb9565b95506060890135915080821115612ebf57600080fd5b612ecb8a838b01612c18565b9450612ed960808a01612ca1565b935060a0890135915080821115612eef57600080fd5b50612efc89828a01612c18565b9150509295509295509295565b60008060008060008060008060e0898b031215612f2557600080fd5b606089018a811115612f3657600080fd5b8998503567ffffffffffffffff80821115612f5057600080fd5b612f5c8c838d01612bd6565b909950975060808b0135915080821115612f7557600080fd5b612f818c838d01612a7d565b909750955060a08b0135915080821115612f9a57600080fd5b50612fa78b828c01612a7d565b999c989b50969995989497949560c00135949350505050565b600080600060608486031215612fd557600080fd5b833567ffffffffffffffff80821115612fed57600080fd5b818601915086601f83011261300157600080fd5b81356020613011612aea83613742565b8083825282820191508286018b848660051b890101111561303157600080fd5b600096505b84871015613054578035835260019690960195918301918301613036565b509750508701359250508082111561306b57600080fd5b61307787838801612b44565b9350604086013591508082111561308d57600080fd5b5061309a86828701612b44565b9150509250925092565b6000602082840312156130b657600080fd5b5051919050565b600080602083850312156130d057600080fd5b823567ffffffffffffffff8111156130e757600080fd5b612d8f85828601612bd6565b600080600083850360a081121561310957600080fd5b843567ffffffffffffffff8082111561312157600080fd5b61312d88838901612bd6565b90965094508491506080601f198401121561314757600080fd5b60405192506080830191508282108183111715613166576131666138fb565b5060405261317660208601612ca1565b8152604085013561318681613911565b602082015261319760608601612c88565b6040820152608094909401356060850152509093909250565b6000602082840312156131c257600080fd5b815160038110611ec957600080fd5b600080600080606085870312156131e757600080fd5b6131f085612ca1565b9350602085013567ffffffffffffffff81111561320c57600080fd5b61321887828801612bd6565b909450925061322b905060408601612c88565b905092959194509250565b60008060008060006080868803121561324e57600080fd5b61325786612ca1565b9450602086013567ffffffffffffffff81111561327357600080fd5b61327f88828901612bd6565b9095509350613292905060408701612c88565b949793965091946060013592915050565b6000602082840312156132b557600080fd5b81516bffffffffffffffffffffffff81168114611ec957600080fd5b600081518084526020808501945080840160005b8381101561330a5781516001600160a01b0316875295820195908201906001016132e5565b509495945050505050565b81835281816020850137506000828201602090810191909152601f909101601f19169091010190565b6000815180845260005b8181101561336457602081850181015186830182015201613348565b81811115613376576000602083870101525b50601f01601f19169290920160200192915050565b8281526060826020830137600060809190910190815292915050565b8183823760009101908152919050565b60006001600160a01b038089168352808816602084015267ffffffffffffffff8716604084015280861660608401525060a060808301526133fc60a083018486613315565b98975050505050505050565b6040808252810183905260008460608301825b8681101561344b57823561342e81613911565b6001600160a01b031682526020928301929091019060010161341b565b5080925050506001600160a01b0383166020830152949350505050565b602081526000611ec960208301846132d1565b60408152600061348e60408301856132d1565b6020838203818501528185518084528284019150828160051b85010183880160005b838110156134de57601f198784030185526134cc83835161333e565b948601949250908501906001016134b0565b50909998505050505050505050565b60006104c08a8352602081818501526135088285018c61333e565b9150838203604085015261351c828b61333e565b92506001600160a01b0391508189166060850152608084018860005b601f811015613557578151851683529183019190830190600101613538565b505050505061356c61046083018660ff169052565b6104808201939093526104a001529695505050505050565b60a08152600061359860a083018587613315565b905067ffffffffffffffff83511660208301526001600160a01b03602084015116604083015263ffffffff604084015116606083015260608301516080830152949350505050565b602081526000611ec9602083018461333e565b60006101208b83526001600160a01b038b16602084015267ffffffffffffffff808b16604085015281606085015261362d8285018b6132d1565b91508382036080850152613641828a6132d1565b915060ff881660a085015283820360c085015261365e828861333e565b90861660e0850152838103610100850152905061367b818561333e565b9c9b505050505050505050505050565b600061012063ffffffff808d1684528b6020850152808b166040850152508060608401526136bb8184018a6132d1565b905082810360808401526136cf81896132d1565b905060ff871660a084015282810360c08401526136ec818761333e565b905067ffffffffffffffff851660e084015282810361010084015261367b818561333e565b604051601f8201601f1916810167ffffffffffffffff8111828210171561373a5761373a6138fb565b604052919050565b600067ffffffffffffffff82111561375c5761375c6138fb565b5060051b60200190565b600082198211156137795761377961388d565b500190565b600063ffffffff80831681851680830382111561379d5761379d61388d565b01949350505050565b600060ff821660ff84168060ff038211156137c3576137c361388d565b019392505050565b6000826137da576137da6138a3565b500490565b600060ff8316806137f2576137f26138a3565b8060ff84160491505092915050565b600081600019048311821515161561381b5761381b61388d565b500290565b6000828210156138325761383261388d565b500390565b600181811c9082168061384b57607f821691505b6020821081141561386c57634e487b7160e01b600052602260045260246000fd5b50919050565b60006000198214156138865761388661388d565b5060010190565b634e487b7160e01b600052601160045260246000fd5b634e487b7160e01b600052601260045260246000fd5b634e487b7160e01b600052602160045260246000fd5b634e487b7160e01b600052603160045260246000fd5b634e487b7160e01b600052603260045260246000fd5b634e487b7160e01b600052604160045260246000fd5b6001600160a01b038116811461062e57600080fdfea26469706673582212208ef5208763fa6c1ebf102d0dc82e9ff382f91efb6e52c2fd896582e354c8f75164736f6c63430008070033",
  "linkReferences": {},
  "deployedLinkReferences": {}
}