{
  "_format": "hh-sol-artifact-1",
  "contractName": "Emoji",
  "sourceName": "contracts/Emoji.sol",
  "abi": [
    {
      "inputs": [],
      "stateMutability": "nonpayable",
      "type": "constructor"
    },
    {
      "anonymous": false,
      "inputs": [
        {
          "indexed": true,
          "internalType": "address",
          "name": "owner",
          "type": "address"
        },
        {
          "indexed": true,
          "internalType": "address",
          "name": "approved",
          "type": "address"
        },
        {
          "indexed": true,
          "internalType": "uint256",
          "name": "tokenId",
          "type": "uint256"
        }
      ],
      "name": "Approval",
      "type": "event"
    },
    {
      "anonymous": false,
      "inputs": [
        {
          "indexed": true,
          "internalType": "address",
          "name": "owner",
          "type": "address"
        },
        {
          "indexed": true,
          "internalType": "address",
          "name": "operator",
          "type": "address"
        },
        {
          "indexed": false,
          "internalType": "bool",
          "name": "approved",
          "type": "bool"
        }
      ],
      "name": "ApprovalForAll",
      "type": "event"
    },
    {
      "anonymous": false,
      "inputs": [
        {
          "indexed": false,
          "internalType": "address",
          "name": "to",
          "type": "address"
        },
        {
          "indexed": false,
          "internalType": "uint256",
          "name": "tokenId",
          "type": "uint256"
        }
      ],
      "name": "Mint",
      "type": "event"
    },
    {
      "anonymous": false,
      "inputs": [
        {
          "indexed": true,
          "internalType": "address",
          "name": "from",
          "type": "address"
        },
        {
          "indexed": true,
          "internalType": "address",
          "name": "to",
          "type": "address"
        },
        {
          "indexed": true,
          "internalType": "uint256",
          "name": "tokenId",
          "type": "uint256"
        }
      ],
      "name": "Transfer",
      "type": "event"
    },
    {
      "inputs": [
        {
          "internalType": "address",
          "name": "to",
          "type": "address"
        },
        {
          "internalType": "uint256",
          "name": "tokenId",
          "type": "uint256"
        }
      ],
      "name": "approve",
      "outputs": [],
      "stateMutability": "nonpayable",
      "type": "function"
    },
    {
      "inputs": [
        {
          "internalType": "address",
          "name": "owner",
          "type": "address"
        }
      ],
      "name": "balanceOf",
      "outputs": [
        {
          "internalType": "uint256",
          "name": "",
          "type": "uint256"
        }
      ],
      "stateMutability": "view",
      "type": "function"
    },
    {
      "inputs": [
        {
          "internalType": "address",
          "name": "",
          "type": "address"
        }
      ],
      "name": "balances",
      "outputs": [
        {
          "internalType": "uint256",
          "name": "",
          "type": "uint256"
        }
      ],
      "stateMutability": "view",
      "type": "function"
    },
    {
      "inputs": [
        {
          "internalType": "uint256",
          "name": "tokenId",
          "type": "uint256"
        }
      ],
      "name": "getApproved",
      "outputs": [
        {
          "internalType": "address",
          "name": "",
          "type": "address"
        }
      ],
      "stateMutability": "view",
      "type": "function"
    },
    {
      "inputs": [],
      "name": "getTokenIdCounter",
      "outputs": [
        {
          "internalType": "uint256",
          "name": "",
          "type": "uint256"
        }
      ],
      "stateMutability": "view",
      "type": "function"
    },
    {
      "inputs": [
        {
          "internalType": "address",
          "name": "owner",
          "type": "address"
        },
        {
          "internalType": "address",
          "name": "operator",
          "type": "address"
        }
      ],
      "name": "isApprovedForAll",
      "outputs": [
        {
          "internalType": "bool",
          "name": "",
          "type": "bool"
        }
      ],
      "stateMutability": "view",
      "type": "function"
    },
    {
      "inputs": [
        {
          "internalType": "address",
          "name": "to",
          "type": "address"
        },
        {
          "internalType": "string",
          "name": "uri",
          "type": "string"
        }
      ],
      "name": "mint",
      "outputs": [],
      "stateMutability": "nonpayable",
      "type": "function"
    },
    {
      "inputs": [],
      "name": "name",
      "outputs": [
        {
          "internalType": "string",
          "name": "",
          "type": "string"
        }
      ],
      "stateMutability": "view",
      "type": "function"
    },
    {
      "inputs": [
        {
          "internalType": "uint256",
          "name": "tokenId",
          "type": "uint256"
        }
      ],
      "name": "ownerOf",
      "outputs": [
        {
          "internalType": "address",
          "name": "",
          "type": "address"
        }
      ],
      "stateMutability": "view",
      "type": "function"
    },
    {
      "inputs": [
        {
          "internalType": "address",
          "name": "from",
          "type": "address"
        },
        {
          "internalType": "address",
          "name": "to",
          "type": "address"
        },
        {
          "internalType": "uint256",
          "name": "tokenId",
          "type": "uint256"
        }
      ],
      "name": "safeTransferFrom",
      "outputs": [],
      "stateMutability": "nonpayable",
      "type": "function"
    },
    {
      "inputs": [
        {
          "internalType": "address",
          "name": "from",
          "type": "address"
        },
        {
          "internalType": "address",
          "name": "to",
          "type": "address"
        },
        {
          "internalType": "uint256",
          "name": "tokenId",
          "type": "uint256"
        },
        {
          "internalType": "bytes",
          "name": "data",
          "type": "bytes"
        }
      ],
      "name": "safeTransferFrom",
      "outputs": [],
      "stateMutability": "nonpayable",
      "type": "function"
    },
    {
      "inputs": [
        {
          "internalType": "address",
          "name": "operator",
          "type": "address"
        },
        {
          "internalType": "bool",
          "name": "approved",
          "type": "bool"
        }
      ],
      "name": "setApprovalForAll",
      "outputs": [],
      "stateMutability": "nonpayable",
      "type": "function"
    },
    {
      "inputs": [
        {
          "internalType": "bytes4",
          "name": "interfaceId",
          "type": "bytes4"
        }
      ],
      "name": "supportsInterface",
      "outputs": [
        {
          "internalType": "bool",
          "name": "",
          "type": "bool"
        }
      ],
      "stateMutability": "view",
      "type": "function"
    },
    {
      "inputs": [],
      "name": "symbol",
      "outputs": [
        {
          "internalType": "string",
          "name": "",
          "type": "string"
        }
      ],
      "stateMutability": "view",
      "type": "function"
    },
    {
      "inputs": [],
      "name": "tokenIdCounter",
      "outputs": [
        {
          "internalType": "uint256",
          "name": "",
          "type": "uint256"
        }
      ],
      "stateMutability": "view",
      "type": "function"
    },
    {
      "inputs": [
        {
          "internalType": "uint256",
          "name": "",
          "type": "uint256"
        }
      ],
      "name": "tokenIdToURI",
      "outputs": [
        {
          "internalType": "string",
          "name": "",
          "type": "string"
        }
      ],
      "stateMutability": "view",
      "type": "function"
    },
    {
      "inputs": [
        {
          "internalType": "uint256",
          "name": "tokenId",
          "type": "uint256"
        }
      ],
      "name": "tokenURI",
      "outputs": [
        {
          "internalType": "string",
          "name": "",
          "type": "string"
        }
      ],
      "stateMutability": "view",
      "type": "function"
    },
    {
      "inputs": [
        {
          "internalType": "address",
          "name": "from",
          "type": "address"
        },
        {
          "internalType": "address",
          "name": "to",
          "type": "address"
        },
        {
          "internalType": "uint256",
          "name": "tokenId",
          "type": "uint256"
        }
      ],
      "name": "transferFrom",
      "outputs": [],
      "stateMutability": "nonpayable",
      "type": "function"
    }
  ],
  "bytecode": "0x60806040523480156200001157600080fd5b506040805180820182526005815264456d6f6a6960d81b602080830191825283518085019094526003845262456d6f60e81b9084015281519192916200005a916000916200007e565b508051620000709060019060208401906200007e565b505060006006555062000161565b8280546200008c9062000124565b90600052602060002090601f016020900481019282620000b05760008555620000fb565b82601f10620000cb57805160ff1916838001178555620000fb565b82800160010185558215620000fb579182015b82811115620000fb578251825591602001919060010190620000de565b50620001099291506200010d565b5090565b5b808211156200010957600081556001016200010e565b600181811c908216806200013957607f821691505b602082108114156200015b57634e487b7160e01b600052602260045260246000fd5b50919050565b61147280620001716000396000f3fe608060405234801561001057600080fd5b50600436106101165760003560e01c806370a08231116100a2578063b88d4fde11610071578063b88d4fde14610249578063c87b56dd1461025c578063d0def5211461026f578063dbfd4b9814610282578063e985e9c51461028a57600080fd5b806370a082311461021257806395d89b411461022557806398bdf6f51461022d578063a22cb4651461023657600080fd5b8063095ea7b3116100e9578063095ea7b31461019657806323b872dd146101ab57806327e235e3146101be57806342842e0e146101ec5780636352211e146101ff57600080fd5b806301ffc9a71461011b5780630221e7851461014357806306fdde0314610163578063081812fc1461016b575b600080fd5b61012e610129366004610f87565b6102c6565b60405190151581526020015b60405180910390f35b610156610151366004610fab565b610318565b60405161013a9190611011565b6101566103b2565b61017e610179366004610fab565b610444565b6040516001600160a01b03909116815260200161013a565b6101a96101a4366004611040565b61046b565b005b6101a96101b936600461106a565b610586565b6101de6101cc3660046110a6565b60086020526000908152604090205481565b60405190815260200161013a565b6101a96101fa36600461106a565b6105b7565b61017e61020d366004610fab565b6105d2565b6101de6102203660046110a6565b610632565b6101566106b8565b6101de60065481565b6101a96102443660046110c1565b6106c7565b6101a9610257366004611189565b6106d6565b61015661026a366004610fab565b61070e565b6101a961027d366004611205565b6107b0565b6006546101de565b61012e610298366004611267565b6001600160a01b03918216600090815260056020908152604080832093909416825291909152205460ff1690565b60006001600160e01b031982166380ac58cd60e01b14806102f757506001600160e01b03198216635b5e139f60e01b145b8061031257506301ffc9a760e01b6001600160e01b03198316145b92915050565b600760205260009081526040902080546103319061129a565b80601f016020809104026020016040519081016040528092919081815260200182805461035d9061129a565b80156103aa5780601f1061037f576101008083540402835291602001916103aa565b820191906000526020600020905b81548152906001019060200180831161038d57829003601f168201915b505050505081565b6060600080546103c19061129a565b80601f01602080910402602001604051908101604052809291908181526020018280546103ed9061129a565b801561043a5780601f1061040f5761010080835404028352916020019161043a565b820191906000526020600020905b81548152906001019060200180831161041d57829003601f168201915b5050505050905090565b600061044f8261083e565b506000908152600460205260409020546001600160a01b031690565b6000610476826105d2565b9050806001600160a01b0316836001600160a01b031614156104e95760405162461bcd60e51b815260206004820152602160248201527f4552433732313a20617070726f76616c20746f2063757272656e74206f776e656044820152603960f91b60648201526084015b60405180910390fd5b336001600160a01b038216148061050557506105058133610298565b6105775760405162461bcd60e51b815260206004820152603d60248201527f4552433732313a20617070726f76652063616c6c6572206973206e6f7420746f60448201527f6b656e206f776e6572206f7220617070726f76656420666f7220616c6c00000060648201526084016104e0565b61058183836108a0565b505050565b610590338261090e565b6105ac5760405162461bcd60e51b81526004016104e0906112d5565b61058183838361098d565b610581838383604051806020016040528060008152506106d6565b6000818152600260205260408120546001600160a01b0316806103125760405162461bcd60e51b8152602060048201526018602482015277115490cdcc8c4e881a5b9d985b1a59081d1bdad95b88125160421b60448201526064016104e0565b60006001600160a01b03821661069c5760405162461bcd60e51b815260206004820152602960248201527f4552433732313a2061646472657373207a65726f206973206e6f7420612076616044820152683634b21037bbb732b960b91b60648201526084016104e0565b506001600160a01b031660009081526003602052604090205490565b6060600180546103c19061129a565b6106d2338383610af1565b5050565b6106e0338361090e565b6106fc5760405162461bcd60e51b81526004016104e0906112d5565b61070884848484610bc0565b50505050565b600081815260076020526040902080546060919061072b9061129a565b80601f01602080910402602001604051908101604052809291908181526020018280546107579061129a565b80156107a45780601f10610779576101008083540402835291602001916107a4565b820191906000526020600020905b81548152906001019060200180831161078757829003601f168201915b50505050509050919050565b600654600090815260076020908152604090912082516107d292840190610ed8565b506107df82600654610bf3565b600654604080516001600160a01b038516815260208101929092527f0f6798a560793a54c3bcfe86a93cde1e73087d944c0ea20544137d4121396885910160405180910390a16006805490600061083583611322565b91905055505050565b6000818152600260205260409020546001600160a01b031661089d5760405162461bcd60e51b8152602060048201526018602482015277115490cdcc8c4e881a5b9d985b1a59081d1bdad95b88125160421b60448201526064016104e0565b50565b600081815260046020526040902080546001600160a01b0319166001600160a01b03841690811790915581906108d5826105d2565b6001600160a01b03167f8c5be1e5ebec7d5bd14f71427d1e84f3dd0314c0f7b2291e5b200ac8c7c3b92560405160405180910390a45050565b60008061091a836105d2565b9050806001600160a01b0316846001600160a01b0316148061096157506001600160a01b0380821660009081526005602090815260408083209388168352929052205460ff165b806109855750836001600160a01b031661097a84610444565b6001600160a01b0316145b949350505050565b826001600160a01b03166109a0826105d2565b6001600160a01b0316146109c65760405162461bcd60e51b81526004016104e09061134b565b6001600160a01b038216610a285760405162461bcd60e51b8152602060048201526024808201527f4552433732313a207472616e7366657220746f20746865207a65726f206164646044820152637265737360e01b60648201526084016104e0565b826001600160a01b0316610a3b826105d2565b6001600160a01b031614610a615760405162461bcd60e51b81526004016104e09061134b565b600081815260046020908152604080832080546001600160a01b03199081169091556001600160a01b0387811680865260038552838620805460001901905590871680865283862080546001019055868652600290945282852080549092168417909155905184937fddf252ad1be2c89b69c2b068fc378daa952ba7f163c4a11628f55a4df523b3ef91a4505050565b816001600160a01b0316836001600160a01b03161415610b535760405162461bcd60e51b815260206004820152601960248201527f4552433732313a20617070726f766520746f2063616c6c65720000000000000060448201526064016104e0565b6001600160a01b03838116600081815260056020908152604080832094871680845294825291829020805460ff191686151590811790915591519182527f17307eab39ab6107e8899845ad3d59bd9653f200f220920489ca2b5937696c31910160405180910390a3505050565b610bcb84848461098d565b610bd784848484610c0d565b6107085760405162461bcd60e51b81526004016104e090611390565b6106d2828260405180602001604052806000815250610d1a565b60006001600160a01b0384163b15610d0f57604051630a85bd0160e11b81526001600160a01b0385169063150b7a0290610c519033908990889088906004016113e2565b602060405180830381600087803b158015610c6b57600080fd5b505af1925050508015610c9b575060408051601f3d908101601f19168201909252610c989181019061141f565b60015b610cf5573d808015610cc9576040519150601f19603f3d011682016040523d82523d6000602084013e610cce565b606091505b508051610ced5760405162461bcd60e51b81526004016104e090611390565b805181602001fd5b6001600160e01b031916630a85bd0160e11b149050610985565b506001949350505050565b610d248383610d4d565b610d316000848484610c0d565b6105815760405162461bcd60e51b81526004016104e090611390565b6001600160a01b038216610da35760405162461bcd60e51b815260206004820181905260248201527f4552433732313a206d696e7420746f20746865207a65726f206164647265737360448201526064016104e0565b6000818152600260205260409020546001600160a01b031615610e085760405162461bcd60e51b815260206004820152601c60248201527f4552433732313a20746f6b656e20616c7265616479206d696e7465640000000060448201526064016104e0565b6000818152600260205260409020546001600160a01b031615610e6d5760405162461bcd60e51b815260206004820152601c60248201527f4552433732313a20746f6b656e20616c7265616479206d696e7465640000000060448201526064016104e0565b6001600160a01b038216600081815260036020908152604080832080546001019055848352600290915280822080546001600160a01b0319168417905551839291907fddf252ad1be2c89b69c2b068fc378daa952ba7f163c4a11628f55a4df523b3ef908290a45050565b828054610ee49061129a565b90600052602060002090601f016020900481019282610f065760008555610f4c565b82601f10610f1f57805160ff1916838001178555610f4c565b82800160010185558215610f4c579182015b82811115610f4c578251825591602001919060010190610f31565b50610f58929150610f5c565b5090565b5b80821115610f585760008155600101610f5d565b6001600160e01b03198116811461089d57600080fd5b600060208284031215610f9957600080fd5b8135610fa481610f71565b9392505050565b600060208284031215610fbd57600080fd5b5035919050565b6000815180845260005b81811015610fea57602081850181015186830182015201610fce565b81811115610ffc576000602083870101525b50601f01601f19169290920160200192915050565b602081526000610fa46020830184610fc4565b80356001600160a01b038116811461103b57600080fd5b919050565b6000806040838503121561105357600080fd5b61105c83611024565b946020939093013593505050565b60008060006060848603121561107f57600080fd5b61108884611024565b925061109660208501611024565b9150604084013590509250925092565b6000602082840312156110b857600080fd5b610fa482611024565b600080604083850312156110d457600080fd5b6110dd83611024565b9150602083013580151581146110f257600080fd5b809150509250929050565b634e487b7160e01b600052604160045260246000fd5b600067ffffffffffffffff8084111561112e5761112e6110fd565b604051601f8501601f19908116603f01168101908282118183101715611156576111566110fd565b8160405280935085815286868601111561116f57600080fd5b858560208301376000602087830101525050509392505050565b6000806000806080858703121561119f57600080fd5b6111a885611024565b93506111b660208601611024565b925060408501359150606085013567ffffffffffffffff8111156111d957600080fd5b8501601f810187136111ea57600080fd5b6111f987823560208401611113565b91505092959194509250565b6000806040838503121561121857600080fd5b61122183611024565b9150602083013567ffffffffffffffff81111561123d57600080fd5b8301601f8101851361124e57600080fd5b61125d85823560208401611113565b9150509250929050565b6000806040838503121561127a57600080fd5b61128383611024565b915061129160208401611024565b90509250929050565b600181811c908216806112ae57607f821691505b602082108114156112cf57634e487b7160e01b600052602260045260246000fd5b50919050565b6020808252602d908201527f4552433732313a2063616c6c6572206973206e6f7420746f6b656e206f776e6560408201526c1c881bdc88185c1c1c9bdd9959609a1b606082015260800190565b600060001982141561134457634e487b7160e01b600052601160045260246000fd5b5060010190565b60208082526025908201527f4552433732313a207472616e736665722066726f6d20696e636f72726563742060408201526437bbb732b960d91b606082015260800190565b60208082526032908201527f4552433732313a207472616e7366657220746f206e6f6e20455243373231526560408201527131b2b4bb32b91034b6b83632b6b2b73a32b960711b606082015260800190565b6001600160a01b038581168252841660208201526040810183905260806060820181905260009061141590830184610fc4565b9695505050505050565b60006020828403121561143157600080fd5b8151610fa481610f7156fea264697066735822122044693903a20af21d3042240ed1ffca8ed23461aa2a054a922aa5571a3f7586d164736f6c63430008090033",
  "linkReferences": {},
  "deployedLinkReferences": {}
}