{
  "_format": "hh-sol-artifact-1",
  "contractName": "Sentiment",
  "sourceName": "contracts/Sentiment.sol",
  "abi": [
    {
      "inputs": [
        {
          "internalType": "address",
          "name": "oracle",
          "type": "address"
        },
        {
          "internalType": "contract IVerifier",
          "name": "_verifier",
          "type": "address"
        },
        {
          "internalType": "uint32",
          "name": "_merkleTreeHeight",
          "type": "uint32"
        },
        {
          "internalType": "address",
          "name": "_hasher",
          "type": "address"
        },
        {
          "internalType": "uint64",
          "name": "_subscriptionId",
          "type": "uint64"
        },
        {
          "internalType": "uint32",
          "name": "_fulfillGasLimit",
          "type": "uint32"
        }
      ],
      "stateMutability": "nonpayable",
      "type": "constructor"
    },
    {
      "inputs": [],
      "name": "EmptyArgs",
      "type": "error"
    },
    {
      "inputs": [],
      "name": "EmptySecrets",
      "type": "error"
    },
    {
      "inputs": [],
      "name": "EmptySource",
      "type": "error"
    },
    {
      "inputs": [
        {
          "internalType": "string",
          "name": "message",
          "type": "string"
        }
      ],
      "name": "MerkleTree__IsFull",
      "type": "error"
    },
    {
      "inputs": [
        {
          "internalType": "string",
          "name": "message",
          "type": "string"
        }
      ],
      "name": "MerkleTree__TreeLevelsOutOfRange",
      "type": "error"
    },
    {
      "inputs": [],
      "name": "RequestIsAlreadyPending",
      "type": "error"
    },
    {
      "inputs": [],
      "name": "RequestIsNotPending",
      "type": "error"
    },
    {
      "inputs": [],
      "name": "SenderIsNotRegistry",
      "type": "error"
    },
    {
      "inputs": [
        {
          "internalType": "string",
          "name": "message",
          "type": "string"
        }
      ],
      "name": "Sentiment__CommitmentAlreadyUsed",
      "type": "error"
    },
    {
      "inputs": [
        {
          "internalType": "string",
          "name": "message",
          "type": "string"
        }
      ],
      "name": "Sentiment__InvalidProof",
      "type": "error"
    },
    {
      "inputs": [
        {
          "internalType": "string",
          "name": "message",
          "type": "string"
        }
      ],
      "name": "Sentiment__NotSelected",
      "type": "error"
    },
    {
      "inputs": [
        {
          "internalType": "string",
          "name": "message",
          "type": "string"
        }
      ],
      "name": "Sentiment__NullifierAlreadyUsed",
      "type": "error"
    },
    {
      "inputs": [
        {
          "internalType": "string",
          "name": "message",
          "type": "string"
        }
      ],
      "name": "Sentiment__RootNotKnown",
      "type": "error"
    },
    {
      "inputs": [
        {
          "internalType": "string",
          "name": "message",
          "type": "string"
        }
      ],
      "name": "Sentiment__TimeInterval",
      "type": "error"
    },
    {
      "anonymous": false,
      "inputs": [
        {
          "indexed": false,
          "internalType": "bytes32",
          "name": "commitment",
          "type": "bytes32"
        },
        {
          "indexed": false,
          "internalType": "uint32",
          "name": "insertedIndex",
          "type": "uint32"
        }
      ],
      "name": "Inserted",
      "type": "event"
    },
    {
      "anonymous": false,
      "inputs": [
        {
          "indexed": true,
          "internalType": "bytes32",
          "name": "requestId",
          "type": "bytes32"
        },
        {
          "indexed": false,
          "internalType": "bytes",
          "name": "result",
          "type": "bytes"
        },
        {
          "indexed": false,
          "internalType": "bytes",
          "name": "err",
          "type": "bytes"
        }
      ],
      "name": "OCRResponse",
      "type": "event"
    },
    {
      "anonymous": false,
      "inputs": [
        {
          "indexed": true,
          "internalType": "address",
          "name": "from",
          "type": "address"
        },
        {
          "indexed": true,
          "internalType": "address",
          "name": "to",
          "type": "address"
        }
      ],
      "name": "OwnershipTransferRequested",
      "type": "event"
    },
    {
      "anonymous": false,
      "inputs": [
        {
          "indexed": true,
          "internalType": "address",
          "name": "from",
          "type": "address"
        },
        {
          "indexed": true,
          "internalType": "address",
          "name": "to",
          "type": "address"
        }
      ],
      "name": "OwnershipTransferred",
      "type": "event"
    },
    {
      "anonymous": false,
      "inputs": [
        {
          "indexed": true,
          "internalType": "bytes32",
          "name": "id",
          "type": "bytes32"
        }
      ],
      "name": "RequestFulfilled",
      "type": "event"
    },
    {
      "anonymous": false,
      "inputs": [
        {
          "indexed": true,
          "internalType": "bytes32",
          "name": "id",
          "type": "bytes32"
        }
      ],
      "name": "RequestSent",
      "type": "event"
    },
    {
      "anonymous": false,
      "inputs": [
        {
          "indexed": false,
          "internalType": "string",
          "name": "message",
          "type": "string"
        },
        {
          "indexed": false,
          "internalType": "bytes32",
          "name": "nullifierHash",
          "type": "bytes32"
        }
      ],
      "name": "messagePosted",
      "type": "event"
    },
    {
      "anonymous": false,
      "inputs": [],
      "name": "messagesCleared",
      "type": "event"
    },
    {
      "inputs": [],
      "name": "FIELD_SIZE",
      "outputs": [
        {
          "internalType": "uint256",
          "name": "",
          "type": "uint256"
        }
      ],
      "stateMutability": "view",
      "type": "function"
    },
    {
      "inputs": [],
      "name": "ROOT_HISTORY_SIZE",
      "outputs": [
        {
          "internalType": "uint32",
          "name": "",
          "type": "uint32"
        }
      ],
      "stateMutability": "view",
      "type": "function"
    },
    {
      "inputs": [],
      "name": "ZERO_VALUE",
      "outputs": [
        {
          "internalType": "uint256",
          "name": "",
          "type": "uint256"
        }
      ],
      "stateMutability": "view",
      "type": "function"
    },
    {
      "inputs": [],
      "name": "acceptOwnership",
      "outputs": [],
      "stateMutability": "nonpayable",
      "type": "function"
    },
    {
      "inputs": [
        {
          "internalType": "string",
          "name": "_name",
          "type": "string"
        }
      ],
      "name": "addName",
      "outputs": [],
      "stateMutability": "nonpayable",
      "type": "function"
    },
    {
      "inputs": [
        {
          "internalType": "address",
          "name": "user",
          "type": "address"
        },
        {
          "internalType": "string",
          "name": "name",
          "type": "string"
        }
      ],
      "name": "checkIfSelected",
      "outputs": [
        {
          "internalType": "bool",
          "name": "",
          "type": "bool"
        }
      ],
      "stateMutability": "view",
      "type": "function"
    },
    {
      "inputs": [
        {
          "internalType": "bytes",
          "name": "",
          "type": "bytes"
        }
      ],
      "name": "checkUpkeep",
      "outputs": [
        {
          "internalType": "bool",
          "name": "upkeepNeeded",
          "type": "bool"
        },
        {
          "internalType": "bytes",
          "name": "",
          "type": "bytes"
        }
      ],
      "stateMutability": "view",
      "type": "function"
    },
    {
      "inputs": [
        {
          "internalType": "bytes32",
          "name": "",
          "type": "bytes32"
        }
      ],
      "name": "commitments",
      "outputs": [
        {
          "internalType": "bool",
          "name": "",
          "type": "bool"
        }
      ],
      "stateMutability": "view",
      "type": "function"
    },
    {
      "inputs": [],
      "name": "currentRootIndex",
      "outputs": [
        {
          "internalType": "uint32",
          "name": "",
          "type": "uint32"
        }
      ],
      "stateMutability": "view",
      "type": "function"
    },
    {
      "inputs": [
        {
          "components": [
            {
              "internalType": "enum Functions.Location",
              "name": "codeLocation",
              "type": "uint8"
            },
            {
              "internalType": "enum Functions.Location",
              "name": "secretsLocation",
              "type": "uint8"
            },
            {
              "internalType": "enum Functions.CodeLanguage",
              "name": "language",
              "type": "uint8"
            },
            {
              "internalType": "string",
              "name": "source",
              "type": "string"
            },
            {
              "internalType": "bytes",
              "name": "secrets",
              "type": "bytes"
            },
            {
              "internalType": "string[]",
              "name": "args",
              "type": "string[]"
            }
          ],
          "internalType": "struct Functions.Request",
          "name": "req",
          "type": "tuple"
        },
        {
          "internalType": "uint64",
          "name": "subscriptionId",
          "type": "uint64"
        },
        {
          "internalType": "uint32",
          "name": "gasLimit",
          "type": "uint32"
        },
        {
          "internalType": "uint256",
          "name": "gasPrice",
          "type": "uint256"
        }
      ],
      "name": "estimateCost",
      "outputs": [
        {
          "internalType": "uint96",
          "name": "",
          "type": "uint96"
        }
      ],
      "stateMutability": "view",
      "type": "function"
    },
    {
      "inputs": [
        {
          "internalType": "uint256",
          "name": "",
          "type": "uint256"
        }
      ],
      "name": "filledSubtrees",
      "outputs": [
        {
          "internalType": "bytes32",
          "name": "",
          "type": "bytes32"
        }
      ],
      "stateMutability": "view",
      "type": "function"
    },
    {
      "inputs": [],
      "name": "fulfillGasLimit",
      "outputs": [
        {
          "internalType": "uint32",
          "name": "",
          "type": "uint32"
        }
      ],
      "stateMutability": "view",
      "type": "function"
    },
    {
      "inputs": [
        {
          "internalType": "string",
          "name": "source",
          "type": "string"
        },
        {
          "internalType": "bytes",
          "name": "secrets",
          "type": "bytes"
        },
        {
          "internalType": "string[]",
          "name": "args",
          "type": "string[]"
        }
      ],
      "name": "generateRequest",
      "outputs": [
        {
          "internalType": "bytes",
          "name": "",
          "type": "bytes"
        }
      ],
      "stateMutability": "pure",
      "type": "function"
    },
    {
      "inputs": [],
      "name": "getDONPublicKey",
      "outputs": [
        {
          "internalType": "bytes",
          "name": "",
          "type": "bytes"
        }
      ],
      "stateMutability": "view",
      "type": "function"
    },
    {
      "inputs": [],
      "name": "getLastRoot",
      "outputs": [
        {
          "internalType": "bytes32",
          "name": "",
          "type": "bytes32"
        }
      ],
      "stateMutability": "view",
      "type": "function"
    },
    {
      "inputs": [
        {
          "internalType": "string",
          "name": "_name",
          "type": "string"
        }
      ],
      "name": "getMessageCount",
      "outputs": [
        {
          "internalType": "uint256",
          "name": "",
          "type": "uint256"
        }
      ],
      "stateMutability": "view",
      "type": "function"
    },
    {
      "inputs": [
        {
          "internalType": "string",
          "name": "name",
          "type": "string"
        }
      ],
      "name": "getMessages",
      "outputs": [
        {
          "internalType": "string[]",
          "name": "",
          "type": "string[]"
        }
      ],
      "stateMutability": "view",
      "type": "function"
    },
    {
      "inputs": [],
      "name": "getNames",
      "outputs": [
        {
          "internalType": "string[]",
          "name": "",
          "type": "string[]"
        }
      ],
      "stateMutability": "view",
      "type": "function"
    },
    {
      "inputs": [
        {
          "internalType": "string",
          "name": "name",
          "type": "string"
        }
      ],
      "name": "getSelectedAddresses",
      "outputs": [
        {
          "internalType": "address[]",
          "name": "",
          "type": "address[]"
        }
      ],
      "stateMutability": "view",
      "type": "function"
    },
    {
      "inputs": [
        {
          "internalType": "bytes32",
          "name": "requestId",
          "type": "bytes32"
        },
        {
          "internalType": "bytes",
          "name": "response",
          "type": "bytes"
        },
        {
          "internalType": "bytes",
          "name": "err",
          "type": "bytes"
        }
      ],
      "name": "handleOracleFulfillment",
      "outputs": [],
      "stateMutability": "nonpayable",
      "type": "function"
    },
    {
      "inputs": [
        {
          "internalType": "bytes32",
          "name": "_left",
          "type": "bytes32"
        },
        {
          "internalType": "bytes32",
          "name": "_right",
          "type": "bytes32"
        }
      ],
      "name": "hashLeftRight",
      "outputs": [
        {
          "internalType": "bytes32",
          "name": "",
          "type": "bytes32"
        }
      ],
      "stateMutability": "view",
      "type": "function"
    },
    {
      "inputs": [],
      "name": "hasher",
      "outputs": [
        {
          "internalType": "contract IHasher",
          "name": "",
          "type": "address"
        }
      ],
      "stateMutability": "view",
      "type": "function"
    },
    {
      "inputs": [
        {
          "internalType": "bytes32",
          "name": "_commitment",
          "type": "bytes32"
        },
        {
          "internalType": "string",
          "name": "_name",
          "type": "string"
        }
      ],
      "name": "insertIntoTree",
      "outputs": [],
      "stateMutability": "nonpayable",
      "type": "function"
    },
    {
      "inputs": [
        {
          "internalType": "bytes32",
          "name": "_root",
          "type": "bytes32"
        }
      ],
      "name": "isKnownRoot",
      "outputs": [
        {
          "internalType": "bool",
          "name": "",
          "type": "bool"
        }
      ],
      "stateMutability": "view",
      "type": "function"
    },
    {
      "inputs": [
        {
          "internalType": "bytes32",
          "name": "_nullifier",
          "type": "bytes32"
        }
      ],
      "name": "isNullifierUsed",
      "outputs": [
        {
          "internalType": "bool",
          "name": "",
          "type": "bool"
        }
      ],
      "stateMutability": "view",
      "type": "function"
    },
    {
      "inputs": [
        {
          "internalType": "address",
          "name": "",
          "type": "address"
        },
        {
          "internalType": "string",
          "name": "",
          "type": "string"
        }
      ],
      "name": "isSelected",
      "outputs": [
        {
          "internalType": "bool",
          "name": "",
          "type": "bool"
        }
      ],
      "stateMutability": "view",
      "type": "function"
    },
    {
      "inputs": [],
      "name": "lastUpkeepTimeStamp",
      "outputs": [
        {
          "internalType": "uint256",
          "name": "",
          "type": "uint256"
        }
      ],
      "stateMutability": "view",
      "type": "function"
    },
    {
      "inputs": [],
      "name": "latestError",
      "outputs": [
        {
          "internalType": "bytes",
          "name": "",
          "type": "bytes"
        }
      ],
      "stateMutability": "view",
      "type": "function"
    },
    {
      "inputs": [],
      "name": "latestRequestId",
      "outputs": [
        {
          "internalType": "bytes32",
          "name": "",
          "type": "bytes32"
        }
      ],
      "stateMutability": "view",
      "type": "function"
    },
    {
      "inputs": [],
      "name": "latestResponse",
      "outputs": [
        {
          "internalType": "bytes",
          "name": "",
          "type": "bytes"
        }
      ],
      "stateMutability": "view",
      "type": "function"
    },
    {
      "inputs": [],
      "name": "levels",
      "outputs": [
        {
          "internalType": "uint32",
          "name": "",
          "type": "uint32"
        }
      ],
      "stateMutability": "view",
      "type": "function"
    },
    {
      "inputs": [
        {
          "internalType": "string",
          "name": "",
          "type": "string"
        }
      ],
      "name": "messageCount",
      "outputs": [
        {
          "internalType": "uint256",
          "name": "",
          "type": "uint256"
        }
      ],
      "stateMutability": "view",
      "type": "function"
    },
    {
      "inputs": [
        {
          "internalType": "string",
          "name": "",
          "type": "string"
        },
        {
          "internalType": "uint256",
          "name": "",
          "type": "uint256"
        }
      ],
      "name": "messages",
      "outputs": [
        {
          "internalType": "string",
          "name": "",
          "type": "string"
        }
      ],
      "stateMutability": "view",
      "type": "function"
    },
    {
      "inputs": [
        {
          "internalType": "string",
          "name": "",
          "type": "string"
        }
      ],
      "name": "nameExists",
      "outputs": [
        {
          "internalType": "bool",
          "name": "",
          "type": "bool"
        }
      ],
      "stateMutability": "view",
      "type": "function"
    },
    {
      "inputs": [
        {
          "internalType": "uint256",
          "name": "",
          "type": "uint256"
        }
      ],
      "name": "names",
      "outputs": [
        {
          "internalType": "string",
          "name": "",
          "type": "string"
        }
      ],
      "stateMutability": "view",
      "type": "function"
    },
    {
      "inputs": [],
      "name": "nextIndex",
      "outputs": [
        {
          "internalType": "uint32",
          "name": "",
          "type": "uint32"
        }
      ],
      "stateMutability": "view",
      "type": "function"
    },
    {
      "inputs": [
        {
          "internalType": "bytes32",
          "name": "",
          "type": "bytes32"
        }
      ],
      "name": "nullifiers",
      "outputs": [
        {
          "internalType": "bool",
          "name": "",
          "type": "bool"
        }
      ],
      "stateMutability": "view",
      "type": "function"
    },
    {
      "inputs": [],
      "name": "owner",
      "outputs": [
        {
          "internalType": "address",
          "name": "",
          "type": "address"
        }
      ],
      "stateMutability": "view",
      "type": "function"
    },
    {
      "inputs": [
        {
          "internalType": "bytes",
          "name": "",
          "type": "bytes"
        }
      ],
      "name": "performUpkeep",
      "outputs": [],
      "stateMutability": "nonpayable",
      "type": "function"
    },
    {
      "inputs": [
        {
          "internalType": "string",
          "name": "name",
          "type": "string"
        },
        {
          "internalType": "string",
          "name": "_message",
          "type": "string"
        },
        {
          "internalType": "bytes32",
          "name": "_nullifierHash",
          "type": "bytes32"
        },
        {
          "internalType": "bytes32",
          "name": "_root",
          "type": "bytes32"
        },
        {
          "components": [
            {
              "internalType": "uint256[2]",
              "name": "a",
              "type": "uint256[2]"
            },
            {
              "internalType": "uint256[2][2]",
              "name": "b",
              "type": "uint256[2][2]"
            },
            {
              "internalType": "uint256[2]",
              "name": "c",
              "type": "uint256[2]"
            }
          ],
          "internalType": "struct Proof",
          "name": "_proof",
          "type": "tuple"
        }
      ],
      "name": "postMessageWithProof",
      "outputs": [],
      "stateMutability": "nonpayable",
      "type": "function"
    },
    {
      "inputs": [],
      "name": "requestCBOR",
      "outputs": [
        {
          "internalType": "bytes",
          "name": "",
          "type": "bytes"
        }
      ],
      "stateMutability": "view",
      "type": "function"
    },
    {
      "inputs": [],
      "name": "responseCounter",
      "outputs": [
        {
          "internalType": "uint256",
          "name": "",
          "type": "uint256"
        }
      ],
      "stateMutability": "view",
      "type": "function"
    },
    {
      "inputs": [
        {
          "internalType": "uint256",
          "name": "",
          "type": "uint256"
        }
      ],
      "name": "roots",
      "outputs": [
        {
          "internalType": "bytes32",
          "name": "",
          "type": "bytes32"
        }
      ],
      "stateMutability": "view",
      "type": "function"
    },
    {
      "inputs": [
        {
          "internalType": "string",
          "name": "",
          "type": "string"
        },
        {
          "internalType": "uint256",
          "name": "",
          "type": "uint256"
        }
      ],
      "name": "selectedAddressesForName",
      "outputs": [
        {
          "internalType": "address",
          "name": "",
          "type": "address"
        }
      ],
      "stateMutability": "view",
      "type": "function"
    },
    {
      "inputs": [],
      "name": "subscriptionId",
      "outputs": [
        {
          "internalType": "uint64",
          "name": "",
          "type": "uint64"
        }
      ],
      "stateMutability": "view",
      "type": "function"
    },
    {
      "inputs": [
        {
          "internalType": "address",
          "name": "to",
          "type": "address"
        }
      ],
      "name": "transferOwnership",
      "outputs": [],
      "stateMutability": "nonpayable",
      "type": "function"
    },
    {
      "inputs": [],
      "name": "updateInterval",
      "outputs": [
        {
          "internalType": "uint256",
          "name": "",
          "type": "uint256"
        }
      ],
      "stateMutability": "view",
      "type": "function"
    },
    {
      "inputs": [],
      "name": "upkeepCounter",
      "outputs": [
        {
          "internalType": "uint256",
          "name": "",
          "type": "uint256"
        }
      ],
      "stateMutability": "view",
      "type": "function"
    },
    {
      "inputs": [],
      "name": "verifier",
      "outputs": [
        {
          "internalType": "contract IVerifier",
          "name": "",
          "type": "address"
        }
      ],
      "stateMutability": "view",
      "type": "function"
    },
    {
      "inputs": [
        {
          "internalType": "uint256",
          "name": "",
          "type": "uint256"
        }
      ],
      "name": "zeros",
      "outputs": [
        {
          "internalType": "bytes32",
          "name": "",
          "type": "bytes32"
        }
      ],
      "stateMutability": "view",
      "type": "function"
    }
  ],
  "bytecode": "0x60a0604052600780546001600160401b03191690553480156200002157600080fd5b5060405162003bca38038062003bca8339810160408190526200004491620006ff565b600080546001600160a01b0319166001600160a01b03881617815584908490339081906001600160a01b038216620000c35760405162461bcd60e51b815260206004820152601860248201527f43616e6e6f7420736574206f776e657220746f207a65726f000000000000000060448201526064015b60405180910390fd5b600280546001600160a01b0319166001600160a01b0384811691909117909155811615620000f657620000f6816200032c565b505050602063ffffffff831611156200016257604051632d5d403760e01b815260206004820152602660248201527f54726565206c6576656c732073686f756c64206265206265747765656e20302060448201526530b73210199960d11b6064820152608401620000ba565b600480546001600160a01b0319166001600160a01b03831617905563ffffffff82166080526006805460018181019092557f2fe54c60d3acabf3343a35b6eba15db4821b340f76e741e2249685ed4899af6c60008051602062003baa83398151915290910181905560058054808401825560009190915260008051602062003b8a83398151915201819055905b8363ffffffff168163ffffffff1610156200026757620002108280620003d9565b60068054600181810190925560008051602062003baa8339815191520182905560058054918201815560005260008051602062003b8a833981519152018190559150806200025e8162000795565b915050620001ef565b50620002748180620003d9565b60085550506001606c55506040805160008082526020820190925290620002ac565b6060815260200190600190039081620002965790505b508051620002c391607d9160209091019062000566565b50607580546001600160a01b039096166001600160a01b031990961695909517909455606e805463ffffffff90951668010000000000000000026001600160601b03199095166001600160401b039092169190911793909317909255505042606f555062000852565b6001600160a01b038116331415620003875760405162461bcd60e51b815260206004820152601760248201527f43616e6e6f74207472616e7366657220746f2073656c660000000000000000006044820152606401620000ba565b600380546001600160a01b0319166001600160a01b03838116918217909255600254604051919216907fed8889f560326eb138920d842192f0eb3dd22b4f139c87a2c57538e05bae127890600090a350565b60007f30644e72e131a029b85045b68181585d2833e84879b9709143e1f593f000000183106200044c5760405162461bcd60e51b815260206004820181905260248201527f5f6c6566742073686f756c6420626520696e7369646520746865206669656c646044820152606401620000ba565b7f30644e72e131a029b85045b68181585d2833e84879b9709143e1f593f00000018210620004c75760405162461bcd60e51b815260206004820152602160248201527f5f72696768742073686f756c6420626520696e7369646520746865206669656c6044820152601960fa1b6064820152608401620000ba565b6040805180820182528481526020810184905260048054925163014cf2b360e51b815291926001600160a01b03169163299e5660916200050a91859101620007c8565b60206040518083038186803b1580156200052357600080fd5b505afa15801562000538573d6000803e3d6000fd5b505050506040513d601f19601f820116820180604052508101906200055e9190620007fb565b949350505050565b828054828255906000526020600020908101928215620005b8579160200282015b82811115620005b85782518051620005a7918491602090910190620005ca565b509160200191906001019062000587565b50620005c692915062000655565b5090565b828054620005d89062000815565b90600052602060002090601f016020900481019282620005fc576000855562000647565b82601f106200061757805160ff191683800117855562000647565b8280016001018555821562000647579182015b82811115620006475782518255916020019190600101906200062a565b50620005c692915062000676565b80821115620005c65760006200066c82826200068d565b5060010162000655565b5b80821115620005c6576000815560010162000677565b5080546200069b9062000815565b6000825580601f10620006ac575050565b601f016020900490600052602060002090810190620006cc919062000676565b50565b6001600160a01b0381168114620006cc57600080fd5b805163ffffffff81168114620006fa57600080fd5b919050565b60008060008060008060c087890312156200071957600080fd5b86516200072681620006cf565b60208801519096506200073981620006cf565b94506200074960408801620006e5565b935060608701516200075b81620006cf565b60808801519093506001600160401b03811681146200077957600080fd5b91506200078960a08801620006e5565b90509295509295509295565b600063ffffffff80831681811415620007be57634e487b7160e01b600052601160045260246000fd5b6001019392505050565b60408101818360005b6002811015620007f2578151835260209283019290910190600101620007d1565b50505092915050565b6000602082840312156200080e57600080fd5b5051919050565b600181811c908216806200082a57607f821691505b602082108114156200084c57634e487b7160e01b600052602260045260246000fd5b50919050565b60805161330e6200087c600039600081816104d90152818161185f015261193f015261330e6000f3fe608060405234801561001057600080fd5b50600436106102d65760003560e01c80638da5cb5b11610182578063d328a91e116100e9578063f08b9cab116100a2578063fc7e9c6f1161007c578063fc7e9c6f14610756578063fd2c80ae1461076e578063fe08301214610778578063fffeb84e1461078b57600080fd5b8063f08b9cab146106f1578063f178e47c14610730578063f2fde38b1461074357600080fd5b8063d328a91e14610659578063d4b3917514610661578063df9084eb14610691578063e8295588146106a4578063ec732959146106b7578063ed33639f146106de57600080fd5b8063bf7549a71161013b578063bf7549a7146105d5578063c2b40ae4146105e8578063c8c586ae146105fb578063cc637afe1461060e578063cd838f0f1461063c578063cd87a3b41461065157600080fd5b80638da5cb5b1461058857806390eeb02b14610599578063a3d3c0d2146105a9578063b1a95e3f146105b2578063ba70f757146105c5578063bef3a2f0146105cd57600080fd5b806338bf282e1161024157806351f77e70116101fa5780636d9833e3116101d45780636d9833e3146105295780636e04ff0d1461053c57806379ba50971461055d578063839df9451461056557600080fd5b806351f77e70146104fb57806359360b551461050e578063688ecfd11461052157600080fd5b806338bf282e146104545780633eee99ad14610467578063414a37ba1461047a5780634585e33b146104a15780634622ab03146104b45780634ecf518b146104d457600080fd5b806322dc7b4c1161029357806322dc7b4c1461037357806324b93e3e146103a65780632997e86b146103d25780632b7ac3f3146103f55780632c63221514610420578063381fc4b51461044b57600080fd5b8063089ea02e146102db57806309c1ba2e146102f75780630ca761751461032257806311456b471461033757806312527f3b1461034a5780631aa46f591461036a575b600080fd5b6102e4606f5481565b6040519081526020015b60405180910390f35b606e5461030a906001600160401b031681565b6040516001600160401b0390911681526020016102ee565b6103356103303660046124dd565b610793565b005b610335610345366004612549565b610820565b61035d6103583660046125c5565b610899565b6040516102ee9190612606565b6102e460725481565b610396610381366004612653565b60009081526076602052604090205460ff1690565b60405190151581526020016102ee565b606e546103bd90600160401b900463ffffffff1681565b60405163ffffffff90911681526020016102ee565b6103966103e0366004612653565b60766020526000908152604090205460ff1681565b607554610408906001600160a01b031681565b6040516001600160a01b0390911681526020016102ee565b6102e461042e366004612549565b805160208183018101805160798252928201919093012091525481565b6102e460715481565b6102e461046236600461266c565b610917565b61033561047536600461268e565b610a9f565b6102e47f30644e72e131a029b85045b68181585d2833e84879b9709143e1f593f000000181565b6103356104af3660046125c5565b610c82565b6104c76104c2366004612653565b610da2565b6040516102ee9190612731565b6103bd7f000000000000000000000000000000000000000000000000000000000000000081565b6102e46105093660046125c5565b610e4e565b61033561051c366004612794565b610e79565b6104c76110d8565b610396610537366004612653565b6110e5565b61054f61054a366004612549565b611163565b6040516102ee9291906128a8565b610335611181565b610396610573366004612653565b60776020526000908152604090205460ff1681565b6002546001600160a01b0316610408565b6007546103bd9063ffffffff1681565b6102e460705481565b6104086105c03660046128c3565b61122f565b6102e4611276565b6104c761129c565b6103966105e3366004612923565b6112a9565b6102e46105f6366004612653565b6112ed565b6104c76106093660046128c3565b611304565b61039661061c366004612549565b8051602081830181018051607a8252928201919093012091525460ff1681565b61064461134b565b6040516102ee919061295c565b6103bd606481565b6104c7611424565b61067461066f366004612aab565b6114a9565b6040516bffffffffffffffffffffffff90911681526020016102ee565b61064461069f3660046125c5565b61153f565b6102e46106b2366004612653565b611639565b6102e47f2fe54c60d3acabf3343a35b6eba15db4821b340f76e741e2249685ed4899af6c81565b600454610408906001600160a01b031681565b6103966106ff366004612bbc565b607b602090815260009283526040909220815180830184018051928152908401929093019190912091525460ff1681565b6102e461073e366004612653565b61165a565b610335610751366004612c09565b61166a565b6007546103bd90640100000000900463ffffffff1681565b6102e462093a8081565b6104c7610786366004612c24565b61167e565b6104c7611778565b60008381526001602052604090205483906001600160a01b031633146107cc5760405163a0c5ec6360e01b815260040160405180910390fd5b60008181526001602052604080822080546001600160a01b03191690555182917f85e1543bf2f84fe80c6badbce3648c8539ad1df4d2b3d822938ca0538be727e691a261081a848484611785565b50505050565b607d80546001810182556000919091528151610863917fa913c8ac5320dae1c4a00ff23343947ed0fdf88d251e9bd2a5519d3d6162d22201906020840190612315565b506001607a826040516108769190612cec565b908152604051908190036020019020805491151560ff1990921691909117905550565b6060607c83836040516108ad929190612d08565b908152604080519182900360209081018320805480830285018301909352828452919083018282801561090957602002820191906000526020600020905b81546001600160a01b031681526001909101906020018083116108eb575b505050505090505b92915050565b60007f30644e72e131a029b85045b68181585d2833e84879b9709143e1f593f0000001831061098d5760405162461bcd60e51b815260206004820181905260248201527f5f6c6566742073686f756c6420626520696e7369646520746865206669656c6460448201526064015b60405180910390fd5b7f30644e72e131a029b85045b68181585d2833e84879b9709143e1f593f00000018210610a065760405162461bcd60e51b815260206004820152602160248201527f5f72696768742073686f756c6420626520696e7369646520746865206669656c6044820152601960fa1b6064820152608401610984565b6040805180820182528481526020810184905260048054925163014cf2b360e51b815291926001600160a01b03169163299e566091610a4791859101612d18565b60206040518083038186803b158015610a5f57600080fd5b505afa158015610a73573d6000803e3d6000fd5b505050506040513d601f19601f82011682018060405250810190610a979190612d49565b949350505050565b610aa76117ec565b3382828080601f01602080910402602001604051908101604052809392919081815260200183838082843760009201829052506001600160a01b0386168152607b602052604090819020905160019450909250610b0691508490612cec565b9081526040805160209281900383018120805460ff1916941515949094179093556001600160a01b0385166000908152607b909252902090610b49908390612cec565b9081526040519081900360200190205460ff16610ba05760405163032b1a7760e41b81526020600482015260146024820152731059191c995cdcc81b9bdd081cd95b1958dd195960621b6044820152606401610984565b60008581526077602052604090205460ff1615610c005760405163323377d160e01b815260206004820152601760248201527f436f6d6d69746d656e7420616c726561647920757365640000000000000000006044820152606401610984565b6000610c0b86611846565b60008781526077602052604090819020805460ff19166001179055519091507fb78452bc487dc90d6a0a567cf87858dae69e144c5f299a43ed6964629c219e2a90610c68908890849091825263ffffffff16602082015260400190565b60405180910390a1505050610c7d6001606c55565b505050565b6000610c9c60405180602001604052806000815250611163565b50905080610ce557604051630db8da5960e21b8152602060048201526015602482015274151a5b59481a5b9d195c9d985b081b9bdd081b595d605a1b6044820152606401610984565b42606f55607054610cf7906001612d78565b60705560008054606e54604051630a090ac160e21b81526001600160a01b03909216916328242b0491610d49916001600160401b03821691606d91600160401b90910463ffffffff1690600401612dc5565b602060405180830381600087803b158015610d6357600080fd5b505af1158015610d77573d6000803e3d6000fd5b505050506040513d601f19601f82011682018060405250810190610d9b9190612d49565b5050505050565b607d8181548110610db257600080fd5b906000526020600020016000915090508054610dcd90612d90565b80601f0160208091040260200160405190810160405280929190818152602001828054610df990612d90565b8015610e465780601f10610e1b57610100808354040283529160200191610e46565b820191906000526020600020905b815481529060010190602001808311610e2957829003601f168201915b505050505081565b600060798383604051610e62929190612d08565b908152602001604051809103902054905092915050565b610e816117ec565b60008381526076602052604090205460ff1615610eda57604051633c564aa760e01b8152602060048201526016602482015275139d5b1b1a599a595c88185b1c9958591e481d5cd95960521b6044820152606401610984565b610ee3826110e5565b610f2157604051632d3b008160e21b815260206004820152600e60248201526d2937b7ba103737ba1035b737bbb760911b6044820152606401610984565b6040805180820182528381526020808201869052607554845191850151858501519451637ae4eb4f60e11b815293946001600160a01b039092169363f5c9d69e93610f73939092918790600401612eae565b602060405180830381600087803b158015610f8d57600080fd5b505af1158015610fa1573d6000803e3d6000fd5b505050506040513d601f19601f82011682018060405250810190610fc59190612f0c565b6110025760405163179f55d760e01b815260206004820152600d60248201526c24b73b30b634b210383937b7b360991b6044820152606401610984565b60008481526076602052604090819020805460ff191660011790555160789061102c908890612cec565b908152604051602091819003820190208054600181018255600091825290829020875161106193919092019190880190612315565b506079866040516110729190612cec565b908152604051908190036020019020805490600061108f83612f2e565b91905055507f06b6c80bb5c4b26d73a7cf3586c1b2f17bd79f8f7fd3c3e14f9cd7092657412085856040516110c5929190612f49565b60405180910390a150610d9b6001606c55565b606d8054610dcd90612d90565b6000816110f457506000919050565b60075463ffffffff165b60088163ffffffff166064811061111757611117612f6b565b01548314156111295750600192915050565b63ffffffff8116611138575060645b8061114281612f81565b60075490925063ffffffff8084169116141590506110fe5750600092915050565b6000606062093a80606f54426111799190612fa1565b119150915091565b6003546001600160a01b031633146111d45760405162461bcd60e51b815260206004820152601660248201527526bab9ba10313290383937b837b9b2b21037bbb732b960511b6044820152606401610984565b600280546001600160a01b0319808216339081179093556003805490911690556040516001600160a01b03909116919082907f8be0079c531659141344cd1fd0a4f28419497f9722a3daafe3b4186f6b6457e090600090a350565b8151602081840181018051607c82529282019185019190912091905280548290811061125a57600080fd5b6000918252602090912001546001600160a01b03169150829050565b60075460009060089063ffffffff166064811061129557611295612f6b565b0154905090565b60738054610dcd90612d90565b6001600160a01b0383166000908152607b602052604080822090516112d19085908590612d08565b9081526040519081900360200190205460ff1690509392505050565b600881606481106112fd57600080fd5b0154905081565b8151602081840181018051607882529282019185019190912091905280548290811061132f57600080fd5b90600052602060002001600091509150508054610dcd90612d90565b6060607d805480602002602001604051908101604052809291908181526020016000905b8282101561141b57838290600052602060002001805461138e90612d90565b80601f01602080910402602001604051908101604052809291908181526020018280546113ba90612d90565b80156114075780601f106113dc57610100808354040283529160200191611407565b820191906000526020600020905b8154815290600101906020018083116113ea57829003601f168201915b50505050508152602001906001019061136f565b50505050905090565b6000805460408051636994548f60e11b815290516060936001600160a01b039093169263d328a91e9260048082019391829003018186803b15801561146857600080fd5b505afa15801561147c573d6000803e3d6000fd5b505050506040513d6000823e601f3d908101601f191682016040526114a49190810190612fb8565b905090565b600080546001600160a01b031663d227d245856114c588611aa8565b86866040518563ffffffff1660e01b81526004016114e69493929190613025565b60206040518083038186803b1580156114fe57600080fd5b505afa158015611512573d6000803e3d6000fd5b505050506040513d601f19601f820116820180604052508101906115369190613060565b95945050505050565b606060788383604051611553929190612d08565b9081526020016040518091039020805480602002602001604051908101604052809291908181526020016000905b8282101561162d5783829060005260206000200180546115a090612d90565b80601f01602080910402602001604051908101604052809291908181526020018280546115cc90612d90565b80156116195780601f106115ee57610100808354040283529160200191611619565b820191906000526020600020905b8154815290600101906020018083116115fc57829003601f168201915b505050505081526020019060010190611581565b50505050905092915050565b6006818154811061164957600080fd5b600091825260209091200154905081565b6005818154811061164957600080fd5b611672611cc4565b61167b81611d19565b50565b60606116ba6040805160c08101909152806000815260200160008152602001600081526020016060815260200160608152602001606081525090565b6117016000808a8a8080601f01602080910402602001604051908101604052809392919081815260200183838082843760009201919091525087959493925050611dc49050565b84156117495761174986868080601f0160208091040260200160405190810160405280939291908181526020018383808284376000920191909152508593925050611e3f9050565b82156117635761176361175c848661308e565b8290611e6d565b61176c81611aa8565b98975050505050505050565b60748054610dcd90612d90565b8151611798906073906020850190612315565b5080516117ac906074906020840190612315565b50827f7bab0ec163b5c132c72b8146ac4d6e067e82ed58f8b131150aa71c925891156283836040516117df92919061309b565b60405180910390a2505050565b6002606c54141561183f5760405162461bcd60e51b815260206004820152601f60248201527f5265656e7472616e637947756172643a207265656e7472616e742063616c6c006044820152606401610984565b6002606c55565b600754600090640100000000900463ffffffff166118857f000000000000000000000000000000000000000000000000000000000000000060026131a4565b8163ffffffff16106118f25760405163d7e8473f60e01b815260206004820152602f60248201527f4d65726b6c6520747265652069732066756c6c2e204e6f206d6f7265206c656160448201526e199cc818d85b881899481859191959608a1b6064820152608401610984565b6001600760048282829054906101000a900463ffffffff1661191491906131b6565b92506101000a81548163ffffffff021916908363ffffffff160217905550600083905060008060005b7f000000000000000000000000000000000000000000000000000000000000000063ffffffff168163ffffffff161015611a2f5761197c6002866131f4565b63ffffffff166119da5783925060068163ffffffff16815481106119a2576119a2612f6b565b906000526020600020015491508360058263ffffffff16815481106119c9576119c9612f6b565b600091825260209091200155611a04565b60058163ffffffff16815481106119f3576119f3612f6b565b906000526020600020015492508391505b611a0e8383610917565b9350611a1b600286613217565b945080611a278161323a565b91505061193d565b50600754606490611a479063ffffffff1660016131b6565b611a5191906131f4565b6007805463ffffffff191663ffffffff929092169182179055839060089060648110611a7f57611a7f612f6b565b0155600754611a9e90600190640100000000900463ffffffff1661325e565b9695505050505050565b6060611ac7604051806040016040528060608152602001600081525090565b611ad381610100611e94565b5060408051808201909152600c81526b31b7b232a637b1b0ba34b7b760a11b6020820152611b02908290611ef9565b8251611b20906001811115611b1957611b19613283565b8290611f10565b6040805180820190915260088152676c616e677561676560c01b6020820152611b4a908290611ef9565b6040830151611b61908015611b1957611b19613283565b604080518082019091526006815265736f7572636560d01b6020820152611b89908290611ef9565b6060830151611b99908290611ef9565b60a08301515115611c2f576040805180820190915260048152636172677360e01b6020820152611bca908290611ef9565b611bd381611f39565b60005b8360a0015151811015611c2557611c138460a001518281518110611bfc57611bfc612f6b565b602002602001015183611ef990919063ffffffff16565b80611c1d81612f2e565b915050611bd6565b50611c2f81611f44565b60808301515115611cbd5760408051808201909152600f81526e39b2b1b932ba39a637b1b0ba34b7b760891b6020820152611c6b908290611ef9565b611c8483602001516001811115611b1957611b19613283565b6040805180820190915260078152667365637265747360c81b6020820152611cad908290611ef9565b6080830151611cbd908290611f4f565b5192915050565b6002546001600160a01b03163314611d175760405162461bcd60e51b815260206004820152601660248201527527b7363c9031b0b63630b1363290313c9037bbb732b960511b6044820152606401610984565b565b6001600160a01b038116331415611d725760405162461bcd60e51b815260206004820152601760248201527f43616e6e6f74207472616e7366657220746f2073656c660000000000000000006044820152606401610984565b600380546001600160a01b0319166001600160a01b03838116918217909255600254604051919216907fed8889f560326eb138920d842192f0eb3dd22b4f139c87a2c57538e05bae127890600090a350565b8051611de3576040516322ce3edd60e01b815260040160405180910390fd5b83836001811115611df657611df6613283565b90816001811115611e0957611e09613283565b90525060408401828015611e1f57611e1f613283565b90818015611e2f57611e2f613283565b9052506060909301929092525050565b8051611e5e5760405163e889636f60e01b815260040160405180910390fd5b60016020830152608090910152565b8051611e8c5760405163fe936cb760e01b815260040160405180910390fd5b60a090910152565b604080518082019091526060815260006020820152611eb4602083613299565b15611edc57611ec4602083613299565b611ecf906020612fa1565b611ed99083612d78565b91505b506020828101829052604080518085526000815290920101905290565b611f068260038351611f58565b610c7d828261205f565b6001600160401b03811115611f2d57611f29828261208d565b5050565b611f2982600083611f58565b61167b8160046120c4565b61167b8160076120c4565b611f0682600283515b6017816001600160401b031611611f7c5761081a8360e0600585901b1683176120d5565b60ff816001600160401b031611611fb857611fa2836018611fe0600586901b16176120d5565b5061081a836001600160401b03831660016120fa565b61ffff816001600160401b031611611ff557611fdf836019611fe0600586901b16176120d5565b5061081a836001600160401b03831660026120fa565b63ffffffff816001600160401b0316116120345761201e83601a611fe0600586901b16176120d5565b5061081a836001600160401b03831660046120fa565b61204983601b611fe0600586901b16176120d5565b5061081a836001600160401b03831660086120fa565b60408051808201909152606081526000602082015261208683846000015151848551612120565b9392505050565b6120988260c26120d5565b50611f2982826040516020016120b091815260200190565b604051602081830303815290604052611f4f565b610c7d82601f611fe0600585901b16175b604080518082019091526060815260006020820152612086838460000151518461220a565b604080518082019091526060815260006020820152610a97848560000151518585612266565b604080518082019091526060815260006020820152825182111561214357600080fd5b60208501516121528386612d78565b11156121855761218585612175876020015187866121709190612d78565b6122e7565b6121809060026132ad565b6122fe565b6000808651805187602083010193508088870111156121a45787860182525b505050602084015b602084106121e457805182526121c3602083612d78565b91506121d0602082612d78565b90506121dd602085612fa1565b93506121ac565b51815160001960208690036101000a019081169019919091161790525083949350505050565b6040805180820190915260608152600060208201528360200151831061223f5761223f848560200151600261218091906132ad565b83518051602085830101848153508085141561225c576001810182525b5093949350505050565b604080518082019091526060815260006020820152602085015161228a8584612d78565b111561229e5761229e856121758685612d78565b600060016122ae846101006132cc565b6122b89190612fa1565b90508551838682010185831982511617815250805184870111156122dc5783860181525b509495945050505050565b6000818311156122f8575081610911565b50919050565b815161230a8383611e94565b5061081a838261205f565b82805461232190612d90565b90600052602060002090601f0160209004810192826123435760008555612389565b82601f1061235c57805160ff1916838001178555612389565b82800160010185558215612389579182015b8281111561238957825182559160200191906001019061236e565b50612395929150612399565b5090565b5b80821115612395576000815560010161239a565b634e487b7160e01b600052604160045260246000fd5b604051606081016001600160401b03811182821017156123e6576123e66123ae565b60405290565b60405160c081016001600160401b03811182821017156123e6576123e66123ae565b604080519081016001600160401b03811182821017156123e6576123e66123ae565b604051601f8201601f191681016001600160401b0381118282101715612458576124586123ae565b604052919050565b60006001600160401b03821115612479576124796123ae565b50601f01601f191660200190565b600082601f83011261249857600080fd5b81356124ab6124a682612460565b612430565b8181528460208386010111156124c057600080fd5b816020850160208301376000918101602001919091529392505050565b6000806000606084860312156124f257600080fd5b8335925060208401356001600160401b038082111561251057600080fd5b61251c87838801612487565b9350604086013591508082111561253257600080fd5b5061253f86828701612487565b9150509250925092565b60006020828403121561255b57600080fd5b81356001600160401b0381111561257157600080fd5b610a9784828501612487565b60008083601f84011261258f57600080fd5b5081356001600160401b038111156125a657600080fd5b6020830191508360208285010111156125be57600080fd5b9250929050565b600080602083850312156125d857600080fd5b82356001600160401b038111156125ee57600080fd5b6125fa8582860161257d565b90969095509350505050565b6020808252825182820181905260009190848201906040850190845b818110156126475783516001600160a01b031683529284019291840191600101612622565b50909695505050505050565b60006020828403121561266557600080fd5b5035919050565b6000806040838503121561267f57600080fd5b50508035926020909101359150565b6000806000604084860312156126a357600080fd5b8335925060208401356001600160401b038111156126c057600080fd5b6126cc8682870161257d565b9497909650939450505050565b60005b838110156126f45781810151838201526020016126dc565b8381111561081a5750506000910152565b6000815180845261271d8160208601602086016126d9565b601f01601f19169290920160200192915050565b6020815260006120866020830184612705565b600082601f83011261275557600080fd5b61275d61240e565b80604084018581111561276f57600080fd5b845b81811015612789578035845260209384019301612771565b509095945050505050565b60008060008060008587036101808112156127ae57600080fd5b86356001600160401b03808211156127c557600080fd5b6127d18a838b01612487565b97506020915081890135818111156127e857600080fd5b6127f48b828c01612487565b97505050604088810135955060608901359450610100607f198401121561281a57600080fd5b6128226123c4565b92506128318a60808b01612744565b83528960df8a011261284257600080fd5b61284a61240e565b806101408b018c81111561285d57600080fd5b60c08c015b81811015612881576128748e82612744565b8452928501928401612862565b5081858701526128918d82612744565b848701525050505050809150509295509295909350565b8215158152604060208201526000610a976040830184612705565b600080604083850312156128d657600080fd5b82356001600160401b038111156128ec57600080fd5b6128f885828601612487565b95602094909401359450505050565b80356001600160a01b038116811461291e57600080fd5b919050565b60008060006040848603121561293857600080fd5b61294184612907565b925060208401356001600160401b038111156126c057600080fd5b6000602080830181845280855180835260408601915060408160051b870101925083870160005b828110156129b157603f1988860301845261299f858351612705565b94509285019290850190600101612983565b5092979650505050505050565b80356002811061291e57600080fd5b80356001811061291e57600080fd5b60006001600160401b03808411156129f6576129f66123ae565b8360051b6020612a07818301612430565b86815293509084019080840187831115612a2057600080fd5b855b83811015612a5457803585811115612a3a5760008081fd5b612a468a828a01612487565b835250908201908201612a22565b50505050509392505050565b600082601f830112612a7157600080fd5b612086838335602085016129dc565b80356001600160401b038116811461291e57600080fd5b803563ffffffff8116811461291e57600080fd5b60008060008060808587031215612ac157600080fd5b84356001600160401b0380821115612ad857600080fd5b9086019060c08289031215612aec57600080fd5b612af46123ec565b612afd836129be565b8152612b0b602084016129be565b6020820152612b1c604084016129cd565b6040820152606083013582811115612b3357600080fd5b612b3f8a828601612487565b606083015250608083013582811115612b5757600080fd5b612b638a828601612487565b60808301525060a083013582811115612b7b57600080fd5b612b878a828601612a60565b60a0830152509550612b9e91505060208601612a80565b9250612bac60408601612a97565b9396929550929360600135925050565b60008060408385031215612bcf57600080fd5b612bd883612907565b915060208301356001600160401b03811115612bf357600080fd5b612bff85828601612487565b9150509250929050565b600060208284031215612c1b57600080fd5b61208682612907565b60008060008060008060608789031215612c3d57600080fd5b86356001600160401b0380821115612c5457600080fd5b612c608a838b0161257d565b90985096506020890135915080821115612c7957600080fd5b612c858a838b0161257d565b90965094506040890135915080821115612c9e57600080fd5b818901915089601f830112612cb257600080fd5b813581811115612cc157600080fd5b8a60208260051b8501011115612cd657600080fd5b6020830194508093505050509295509295509295565b60008251612cfe8184602087016126d9565b9190910192915050565b8183823760009101908152919050565b60408101818360005b6002811015612d40578151835260209283019290910190600101612d21565b50505092915050565b600060208284031215612d5b57600080fd5b5051919050565b634e487b7160e01b600052601160045260246000fd5b60008219821115612d8b57612d8b612d62565b500190565b600181811c90821680612da457607f821691505b602082108114156122f857634e487b7160e01b600052602260045260246000fd5b6001600160401b0384168152600060206060818401526000855481600182811c915080831680612df657607f831692505b858310811415612e1457634e487b7160e01b85526022600452602485fd5b6060880183905260808801818015612e335760018114612e4457612e6f565b60ff19861682528782019650612e6f565b60008c81526020902060005b86811015612e6957815484820152908501908901612e50565b83019750505b50505063ffffffff8816604088015250919350610a9792505050565b8060005b600281101561081a578151845260209384019390910190600101612e8f565b6101408101612ebd8287612e8b565b60408083018660005b6002811015612eed57612eda838351612e8b565b9183019160209190910190600101612ec6565b50505050612efe60c0830185612e8b565b611536610100830184612e8b565b600060208284031215612f1e57600080fd5b8151801515811461208657600080fd5b6000600019821415612f4257612f42612d62565b5060010190565b604081526000612f5c6040830185612705565b90508260208301529392505050565b634e487b7160e01b600052603260045260246000fd5b600063ffffffff821680612f9757612f97612d62565b6000190192915050565b600082821015612fb357612fb3612d62565b500390565b600060208284031215612fca57600080fd5b81516001600160401b03811115612fe057600080fd5b8201601f81018413612ff157600080fd5b8051612fff6124a682612460565b81815285602083850101111561301457600080fd5b6115368260208301602086016126d9565b6001600160401b03851681526080602082015260006130476080830186612705565b63ffffffff949094166040830152506060015292915050565b60006020828403121561307257600080fd5b81516bffffffffffffffffffffffff8116811461208657600080fd5b60006120863684846129dc565b6040815260006130ae6040830185612705565b82810360208401526115368185612705565b600181815b808511156130fb5781600019048211156130e1576130e1612d62565b808516156130ee57918102915b93841c93908002906130c5565b509250929050565b60008261311257506001610911565b8161311f57506000610911565b8160018114613135576002811461313f5761315b565b6001915050610911565b60ff84111561315057613150612d62565b50506001821b610911565b5060208310610133831016604e8410600b841016171561317e575081810a610911565b61318883836130c0565b806000190482111561319c5761319c612d62565b029392505050565b600061208663ffffffff841683613103565b600063ffffffff8083168185168083038211156131d5576131d5612d62565b01949350505050565b634e487b7160e01b600052601260045260246000fd5b600063ffffffff8084168061320b5761320b6131de565b92169190910692915050565b600063ffffffff8084168061322e5761322e6131de565b92169190910492915050565b600063ffffffff8083168181141561325457613254612d62565b6001019392505050565b600063ffffffff8381169083168181101561327b5761327b612d62565b039392505050565b634e487b7160e01b600052602160045260246000fd5b6000826132a8576132a86131de565b500690565b60008160001904831182151516156132c7576132c7612d62565b500290565b6000612086838361310356fea26469706673582212208b8fc0bf38423e6c7bac5fabee4d13de9760e0c36935b4e168fbb42b16fc176d64736f6c63430008090033036b6384b5eca791c62761152d0c79bb0604c104a5fb6f4eb0703f3154bb3db0f652222313e28459528d920b65115c16c04f3efc82aaedc97be59f3f377c0d3f",
  "linkReferences": {},
  "deployedLinkReferences": {}
}