{
  "_format": "hh-sol-artifact-1",
  "contractName": "Sentiment",
  "sourceName": "contracts/Sentiment.sol",
  "abi": [
    {
      "inputs": [
        {
          "internalType": "address",
          "name": "oracle",
          "type": "address"
        },
        {
          "internalType": "contract IVerifier",
          "name": "_verifier",
          "type": "address"
        },
        {
          "internalType": "uint32",
          "name": "_merkleTreeHeight",
          "type": "uint32"
        },
        {
          "internalType": "address",
          "name": "_hasher",
          "type": "address"
        },
        {
          "internalType": "address",
          "name": "_emojiAddress",
          "type": "address"
        }
      ],
      "stateMutability": "nonpayable",
      "type": "constructor"
    },
    {
      "inputs": [],
      "name": "EmptyArgs",
      "type": "error"
    },
    {
      "inputs": [],
      "name": "EmptySecrets",
      "type": "error"
    },
    {
      "inputs": [],
      "name": "EmptySource",
      "type": "error"
    },
    {
      "inputs": [
        {
          "internalType": "string",
          "name": "message",
          "type": "string"
        }
      ],
      "name": "MerkleTree__IsFull",
      "type": "error"
    },
    {
      "inputs": [
        {
          "internalType": "string",
          "name": "message",
          "type": "string"
        }
      ],
      "name": "MerkleTree__TreeLevelsOutOfRange",
      "type": "error"
    },
    {
      "inputs": [],
      "name": "RequestIsAlreadyPending",
      "type": "error"
    },
    {
      "inputs": [],
      "name": "RequestIsNotPending",
      "type": "error"
    },
    {
      "inputs": [],
      "name": "SenderIsNotRegistry",
      "type": "error"
    },
    {
      "inputs": [
        {
          "internalType": "string",
          "name": "message",
          "type": "string"
        }
      ],
      "name": "Sentiment__CommitmentAlreadyUsed",
      "type": "error"
    },
    {
      "inputs": [
        {
          "internalType": "string",
          "name": "message",
          "type": "string"
        }
      ],
      "name": "Sentiment__InvalidProof",
      "type": "error"
    },
    {
      "inputs": [
        {
          "internalType": "string",
          "name": "message",
          "type": "string"
        }
      ],
      "name": "Sentiment__NullifierAlreadyUsed",
      "type": "error"
    },
    {
      "inputs": [
        {
          "internalType": "string",
          "name": "message",
          "type": "string"
        }
      ],
      "name": "Sentiment__ResetNotNeeded",
      "type": "error"
    },
    {
      "inputs": [
        {
          "internalType": "string",
          "name": "message",
          "type": "string"
        }
      ],
      "name": "Sentiment__RootNotKnown",
      "type": "error"
    },
    {
      "anonymous": false,
      "inputs": [
        {
          "indexed": false,
          "internalType": "bytes32",
          "name": "commitment",
          "type": "bytes32"
        },
        {
          "indexed": false,
          "internalType": "uint32",
          "name": "insertedIndex",
          "type": "uint32"
        }
      ],
      "name": "Inserted",
      "type": "event"
    },
    {
      "anonymous": false,
      "inputs": [
        {
          "indexed": false,
          "internalType": "string",
          "name": "message",
          "type": "string"
        },
        {
          "indexed": false,
          "internalType": "bytes32",
          "name": "nullifierHash",
          "type": "bytes32"
        }
      ],
      "name": "MessagePosted",
      "type": "event"
    },
    {
      "anonymous": false,
      "inputs": [
        {
          "indexed": true,
          "internalType": "bytes32",
          "name": "requestId",
          "type": "bytes32"
        },
        {
          "indexed": false,
          "internalType": "bytes",
          "name": "result",
          "type": "bytes"
        },
        {
          "indexed": false,
          "internalType": "bytes",
          "name": "err",
          "type": "bytes"
        }
      ],
      "name": "OCRResponse",
      "type": "event"
    },
    {
      "anonymous": false,
      "inputs": [
        {
          "indexed": true,
          "internalType": "address",
          "name": "from",
          "type": "address"
        },
        {
          "indexed": true,
          "internalType": "address",
          "name": "to",
          "type": "address"
        }
      ],
      "name": "OwnershipTransferRequested",
      "type": "event"
    },
    {
      "anonymous": false,
      "inputs": [
        {
          "indexed": true,
          "internalType": "address",
          "name": "from",
          "type": "address"
        },
        {
          "indexed": true,
          "internalType": "address",
          "name": "to",
          "type": "address"
        }
      ],
      "name": "OwnershipTransferred",
      "type": "event"
    },
    {
      "anonymous": false,
      "inputs": [
        {
          "indexed": true,
          "internalType": "bytes32",
          "name": "id",
          "type": "bytes32"
        }
      ],
      "name": "RequestFulfilled",
      "type": "event"
    },
    {
      "anonymous": false,
      "inputs": [
        {
          "indexed": true,
          "internalType": "bytes32",
          "name": "id",
          "type": "bytes32"
        }
      ],
      "name": "RequestSent",
      "type": "event"
    },
    {
      "anonymous": false,
      "inputs": [
        {
          "indexed": false,
          "internalType": "string",
          "name": "sentimentText",
          "type": "string"
        },
        {
          "indexed": false,
          "internalType": "string",
          "name": "emojiString",
          "type": "string"
        },
        {
          "indexed": false,
          "internalType": "string",
          "name": "name",
          "type": "string"
        }
      ],
      "name": "StateUpdated",
      "type": "event"
    },
    {
      "anonymous": false,
      "inputs": [
        {
          "indexed": false,
          "internalType": "uint256",
          "name": "time",
          "type": "uint256"
        }
      ],
      "name": "TreeCleared",
      "type": "event"
    },
    {
      "inputs": [],
      "name": "FIELD_SIZE",
      "outputs": [
        {
          "internalType": "uint256",
          "name": "",
          "type": "uint256"
        }
      ],
      "stateMutability": "view",
      "type": "function"
    },
    {
      "inputs": [],
      "name": "ROOT_HISTORY_SIZE",
      "outputs": [
        {
          "internalType": "uint32",
          "name": "",
          "type": "uint32"
        }
      ],
      "stateMutability": "view",
      "type": "function"
    },
    {
      "inputs": [],
      "name": "UPDATE_INTERVAL",
      "outputs": [
        {
          "internalType": "uint256",
          "name": "",
          "type": "uint256"
        }
      ],
      "stateMutability": "view",
      "type": "function"
    },
    {
      "inputs": [],
      "name": "ZERO_VALUE",
      "outputs": [
        {
          "internalType": "uint256",
          "name": "",
          "type": "uint256"
        }
      ],
      "stateMutability": "view",
      "type": "function"
    },
    {
      "inputs": [],
      "name": "acceptOwnership",
      "outputs": [],
      "stateMutability": "nonpayable",
      "type": "function"
    },
    {
      "inputs": [
        {
          "internalType": "string",
          "name": "uri",
          "type": "string"
        }
      ],
      "name": "addEmoji",
      "outputs": [],
      "stateMutability": "nonpayable",
      "type": "function"
    },
    {
      "inputs": [
        {
          "internalType": "string",
          "name": "_name",
          "type": "string"
        }
      ],
      "name": "addName",
      "outputs": [],
      "stateMutability": "nonpayable",
      "type": "function"
    },
    {
      "inputs": [
        {
          "internalType": "bytes",
          "name": "",
          "type": "bytes"
        }
      ],
      "name": "checkUpkeep",
      "outputs": [
        {
          "internalType": "bool",
          "name": "upkeepNeeded",
          "type": "bool"
        },
        {
          "internalType": "bytes",
          "name": "performData",
          "type": "bytes"
        }
      ],
      "stateMutability": "view",
      "type": "function"
    },
    {
      "inputs": [
        {
          "internalType": "bytes32",
          "name": "",
          "type": "bytes32"
        }
      ],
      "name": "commitments",
      "outputs": [
        {
          "internalType": "bool",
          "name": "",
          "type": "bool"
        }
      ],
      "stateMutability": "view",
      "type": "function"
    },
    {
      "inputs": [],
      "name": "counter",
      "outputs": [
        {
          "internalType": "uint256",
          "name": "",
          "type": "uint256"
        }
      ],
      "stateMutability": "view",
      "type": "function"
    },
    {
      "inputs": [],
      "name": "currentRootIndex",
      "outputs": [
        {
          "internalType": "uint32",
          "name": "",
          "type": "uint32"
        }
      ],
      "stateMutability": "view",
      "type": "function"
    },
    {
      "inputs": [],
      "name": "emojiAddress",
      "outputs": [
        {
          "internalType": "address",
          "name": "",
          "type": "address"
        }
      ],
      "stateMutability": "view",
      "type": "function"
    },
    {
      "inputs": [
        {
          "internalType": "string",
          "name": "",
          "type": "string"
        }
      ],
      "name": "emojiStringToTokenId",
      "outputs": [
        {
          "internalType": "uint256",
          "name": "",
          "type": "uint256"
        }
      ],
      "stateMutability": "view",
      "type": "function"
    },
    {
      "inputs": [
        {
          "components": [
            {
              "internalType": "enum Functions.Location",
              "name": "codeLocation",
              "type": "uint8"
            },
            {
              "internalType": "enum Functions.Location",
              "name": "secretsLocation",
              "type": "uint8"
            },
            {
              "internalType": "enum Functions.CodeLanguage",
              "name": "language",
              "type": "uint8"
            },
            {
              "internalType": "string",
              "name": "source",
              "type": "string"
            },
            {
              "internalType": "bytes",
              "name": "secrets",
              "type": "bytes"
            },
            {
              "internalType": "string[]",
              "name": "args",
              "type": "string[]"
            }
          ],
          "internalType": "struct Functions.Request",
          "name": "req",
          "type": "tuple"
        },
        {
          "internalType": "uint64",
          "name": "subscriptionId",
          "type": "uint64"
        },
        {
          "internalType": "uint32",
          "name": "gasLimit",
          "type": "uint32"
        },
        {
          "internalType": "uint256",
          "name": "gasPrice",
          "type": "uint256"
        }
      ],
      "name": "estimateCost",
      "outputs": [
        {
          "internalType": "uint96",
          "name": "",
          "type": "uint96"
        }
      ],
      "stateMutability": "view",
      "type": "function"
    },
    {
      "inputs": [
        {
          "internalType": "string",
          "name": "source",
          "type": "string"
        },
        {
          "internalType": "bytes",
          "name": "secrets",
          "type": "bytes"
        },
        {
          "internalType": "string[]",
          "name": "args",
          "type": "string[]"
        },
        {
          "internalType": "uint64",
          "name": "subscriptionId",
          "type": "uint64"
        },
        {
          "internalType": "uint32",
          "name": "gasLimit",
          "type": "uint32"
        }
      ],
      "name": "executeRequest",
      "outputs": [
        {
          "internalType": "bytes32",
          "name": "",
          "type": "bytes32"
        }
      ],
      "stateMutability": "nonpayable",
      "type": "function"
    },
    {
      "inputs": [
        {
          "internalType": "uint256",
          "name": "",
          "type": "uint256"
        }
      ],
      "name": "filledSubtrees",
      "outputs": [
        {
          "internalType": "bytes32",
          "name": "",
          "type": "bytes32"
        }
      ],
      "stateMutability": "view",
      "type": "function"
    },
    {
      "inputs": [],
      "name": "getDONPublicKey",
      "outputs": [
        {
          "internalType": "bytes",
          "name": "",
          "type": "bytes"
        }
      ],
      "stateMutability": "view",
      "type": "function"
    },
    {
      "inputs": [
        {
          "internalType": "string",
          "name": "name",
          "type": "string"
        }
      ],
      "name": "getEmojiURI",
      "outputs": [
        {
          "internalType": "string",
          "name": "",
          "type": "string"
        }
      ],
      "stateMutability": "view",
      "type": "function"
    },
    {
      "inputs": [],
      "name": "getLastRoot",
      "outputs": [
        {
          "internalType": "bytes32",
          "name": "",
          "type": "bytes32"
        }
      ],
      "stateMutability": "view",
      "type": "function"
    },
    {
      "inputs": [
        {
          "internalType": "string",
          "name": "_name",
          "type": "string"
        }
      ],
      "name": "getSentimentText",
      "outputs": [
        {
          "internalType": "string",
          "name": "",
          "type": "string"
        }
      ],
      "stateMutability": "view",
      "type": "function"
    },
    {
      "inputs": [
        {
          "internalType": "bytes32",
          "name": "requestId",
          "type": "bytes32"
        },
        {
          "internalType": "bytes",
          "name": "response",
          "type": "bytes"
        },
        {
          "internalType": "bytes",
          "name": "err",
          "type": "bytes"
        }
      ],
      "name": "handleOracleFulfillment",
      "outputs": [],
      "stateMutability": "nonpayable",
      "type": "function"
    },
    {
      "inputs": [
        {
          "internalType": "bytes32",
          "name": "_left",
          "type": "bytes32"
        },
        {
          "internalType": "bytes32",
          "name": "_right",
          "type": "bytes32"
        }
      ],
      "name": "hashLeftRight",
      "outputs": [
        {
          "internalType": "bytes32",
          "name": "",
          "type": "bytes32"
        }
      ],
      "stateMutability": "view",
      "type": "function"
    },
    {
      "inputs": [],
      "name": "hasher",
      "outputs": [
        {
          "internalType": "contract IHasher",
          "name": "",
          "type": "address"
        }
      ],
      "stateMutability": "view",
      "type": "function"
    },
    {
      "inputs": [
        {
          "internalType": "bytes32",
          "name": "_commitment",
          "type": "bytes32"
        },
        {
          "internalType": "string",
          "name": "_name",
          "type": "string"
        }
      ],
      "name": "insertIntoTree",
      "outputs": [],
      "stateMutability": "nonpayable",
      "type": "function"
    },
    {
      "inputs": [
        {
          "internalType": "bytes32",
          "name": "_root",
          "type": "bytes32"
        }
      ],
      "name": "isKnownRoot",
      "outputs": [
        {
          "internalType": "bool",
          "name": "",
          "type": "bool"
        }
      ],
      "stateMutability": "view",
      "type": "function"
    },
    {
      "inputs": [
        {
          "internalType": "bytes32",
          "name": "_nullifier",
          "type": "bytes32"
        }
      ],
      "name": "isNullifierUsed",
      "outputs": [
        {
          "internalType": "bool",
          "name": "",
          "type": "bool"
        }
      ],
      "stateMutability": "view",
      "type": "function"
    },
    {
      "inputs": [],
      "name": "isResetNeeded",
      "outputs": [
        {
          "internalType": "bool",
          "name": "",
          "type": "bool"
        }
      ],
      "stateMutability": "view",
      "type": "function"
    },
    {
      "inputs": [],
      "name": "lastUpkeepTimeStamp",
      "outputs": [
        {
          "internalType": "uint256",
          "name": "",
          "type": "uint256"
        }
      ],
      "stateMutability": "view",
      "type": "function"
    },
    {
      "inputs": [],
      "name": "latestError",
      "outputs": [
        {
          "internalType": "bytes",
          "name": "",
          "type": "bytes"
        }
      ],
      "stateMutability": "view",
      "type": "function"
    },
    {
      "inputs": [],
      "name": "latestRequestId",
      "outputs": [
        {
          "internalType": "bytes32",
          "name": "",
          "type": "bytes32"
        }
      ],
      "stateMutability": "view",
      "type": "function"
    },
    {
      "inputs": [],
      "name": "latestResponse",
      "outputs": [
        {
          "internalType": "bytes",
          "name": "",
          "type": "bytes"
        }
      ],
      "stateMutability": "view",
      "type": "function"
    },
    {
      "inputs": [],
      "name": "levels",
      "outputs": [
        {
          "internalType": "uint32",
          "name": "",
          "type": "uint32"
        }
      ],
      "stateMutability": "view",
      "type": "function"
    },
    {
      "inputs": [
        {
          "internalType": "string",
          "name": "",
          "type": "string"
        }
      ],
      "name": "nameExists",
      "outputs": [
        {
          "internalType": "bool",
          "name": "",
          "type": "bool"
        }
      ],
      "stateMutability": "view",
      "type": "function"
    },
    {
      "inputs": [
        {
          "internalType": "string",
          "name": "",
          "type": "string"
        }
      ],
      "name": "nameToEmojiString",
      "outputs": [
        {
          "internalType": "string",
          "name": "",
          "type": "string"
        }
      ],
      "stateMutability": "view",
      "type": "function"
    },
    {
      "inputs": [
        {
          "internalType": "string",
          "name": "",
          "type": "string"
        }
      ],
      "name": "nameToSentimentText",
      "outputs": [
        {
          "internalType": "string",
          "name": "",
          "type": "string"
        }
      ],
      "stateMutability": "view",
      "type": "function"
    },
    {
      "inputs": [],
      "name": "nextIndex",
      "outputs": [
        {
          "internalType": "uint32",
          "name": "",
          "type": "uint32"
        }
      ],
      "stateMutability": "view",
      "type": "function"
    },
    {
      "inputs": [
        {
          "internalType": "bytes32",
          "name": "",
          "type": "bytes32"
        }
      ],
      "name": "nullifiers",
      "outputs": [
        {
          "internalType": "bool",
          "name": "",
          "type": "bool"
        }
      ],
      "stateMutability": "view",
      "type": "function"
    },
    {
      "inputs": [
        {
          "internalType": "address",
          "name": "",
          "type": "address"
        },
        {
          "internalType": "address",
          "name": "",
          "type": "address"
        },
        {
          "internalType": "uint256",
          "name": "",
          "type": "uint256"
        },
        {
          "internalType": "bytes",
          "name": "",
          "type": "bytes"
        }
      ],
      "name": "onERC721Received",
      "outputs": [
        {
          "internalType": "bytes4",
          "name": "",
          "type": "bytes4"
        }
      ],
      "stateMutability": "nonpayable",
      "type": "function"
    },
    {
      "inputs": [],
      "name": "owner",
      "outputs": [
        {
          "internalType": "address",
          "name": "",
          "type": "address"
        }
      ],
      "stateMutability": "view",
      "type": "function"
    },
    {
      "inputs": [
        {
          "internalType": "bytes",
          "name": "",
          "type": "bytes"
        }
      ],
      "name": "performUpkeep",
      "outputs": [],
      "stateMutability": "nonpayable",
      "type": "function"
    },
    {
      "inputs": [
        {
          "internalType": "string",
          "name": "name",
          "type": "string"
        },
        {
          "internalType": "string",
          "name": "_message",
          "type": "string"
        },
        {
          "internalType": "bytes32",
          "name": "_nullifierHash",
          "type": "bytes32"
        },
        {
          "internalType": "bytes32",
          "name": "_root",
          "type": "bytes32"
        },
        {
          "components": [
            {
              "internalType": "uint256[2]",
              "name": "a",
              "type": "uint256[2]"
            },
            {
              "internalType": "uint256[2][2]",
              "name": "b",
              "type": "uint256[2][2]"
            },
            {
              "internalType": "uint256[2]",
              "name": "c",
              "type": "uint256[2]"
            }
          ],
          "internalType": "struct Proof",
          "name": "_proof",
          "type": "tuple"
        }
      ],
      "name": "postMessageWithProof",
      "outputs": [],
      "stateMutability": "nonpayable",
      "type": "function"
    },
    {
      "inputs": [],
      "name": "resetNeeded",
      "outputs": [
        {
          "internalType": "bool",
          "name": "",
          "type": "bool"
        }
      ],
      "stateMutability": "view",
      "type": "function"
    },
    {
      "inputs": [],
      "name": "responseBefore",
      "outputs": [
        {
          "internalType": "bytes",
          "name": "",
          "type": "bytes"
        }
      ],
      "stateMutability": "view",
      "type": "function"
    },
    {
      "inputs": [
        {
          "internalType": "uint256",
          "name": "",
          "type": "uint256"
        }
      ],
      "name": "roots",
      "outputs": [
        {
          "internalType": "bytes32",
          "name": "",
          "type": "bytes32"
        }
      ],
      "stateMutability": "view",
      "type": "function"
    },
    {
      "inputs": [
        {
          "internalType": "bytes",
          "name": "_response",
          "type": "bytes"
        },
        {
          "internalType": "string",
          "name": "delimeter",
          "type": "string"
        }
      ],
      "name": "splitString",
      "outputs": [
        {
          "internalType": "string",
          "name": "",
          "type": "string"
        },
        {
          "internalType": "string",
          "name": "",
          "type": "string"
        },
        {
          "internalType": "string",
          "name": "",
          "type": "string"
        }
      ],
      "stateMutability": "pure",
      "type": "function"
    },
    {
      "inputs": [
        {
          "internalType": "address",
          "name": "to",
          "type": "address"
        }
      ],
      "name": "transferOwnership",
      "outputs": [],
      "stateMutability": "nonpayable",
      "type": "function"
    },
    {
      "inputs": [],
      "name": "updateState",
      "outputs": [],
      "stateMutability": "nonpayable",
      "type": "function"
    },
    {
      "inputs": [],
      "name": "verifier",
      "outputs": [
        {
          "internalType": "contract IVerifier",
          "name": "",
          "type": "address"
        }
      ],
      "stateMutability": "view",
      "type": "function"
    },
    {
      "inputs": [
        {
          "internalType": "uint256",
          "name": "",
          "type": "uint256"
        }
      ],
      "name": "zeros",
      "outputs": [
        {
          "internalType": "bytes32",
          "name": "",
          "type": "bytes32"
        }
      ],
      "stateMutability": "view",
      "type": "function"
    }
  ],
  "bytecode": "0x60c0604052600780546001600160401b03191690553480156200002157600080fd5b506040516200411b3803806200411b833981016040819052620000449162000513565b600080546001600160a01b0319166001600160a01b03871617815583908390339081906001600160a01b038216620000c35760405162461bcd60e51b815260206004820152601860248201527f43616e6e6f7420736574206f776e657220746f207a65726f000000000000000060448201526064015b60405180910390fd5b600280546001600160a01b0319166001600160a01b0384811691909117909155811615620000f657620000f681620002c0565b505050602063ffffffff831611156200016257604051632d5d403760e01b815260206004820152602660248201527f54726565206c6576656c732073686f756c64206265206265747765656e20302060448201526530b73210199960d11b6064820152608401620000ba565b606c805460ff19169055600480546001600160a01b0319166001600160a01b03831617905563ffffffff82166080526006805460018181019092557f2fe54c60d3acabf3343a35b6eba15db4821b340f76e741e2249685ed4899af6c600080516020620040fb833981519152909101819055600580548084018255600091909152600080516020620040db83398151915201819055905b8363ffffffff168163ffffffff16101562000271576200021a82806200036d565b600680546001818101909255600080516020620040fb83398151915201829055600580549182018155600052600080516020620040db8339815191520181905591508062000268816200059b565b915050620001f9565b506200027e81806200036d565b60086000015550506001606d5550607180546001600160a01b0319166001600160a01b03958616179055600060785590921660a052505042607955506200061b565b6001600160a01b0381163314156200031b5760405162461bcd60e51b815260206004820152601760248201527f43616e6e6f74207472616e7366657220746f2073656c660000000000000000006044820152606401620000ba565b600380546001600160a01b0319166001600160a01b03838116918217909255600254604051919216907fed8889f560326eb138920d842192f0eb3dd22b4f139c87a2c57538e05bae127890600090a350565b60007f30644e72e131a029b85045b68181585d2833e84879b9709143e1f593f00000018310620003e05760405162461bcd60e51b815260206004820181905260248201527f5f6c6566742073686f756c6420626520696e7369646520746865206669656c646044820152606401620000ba565b7f30644e72e131a029b85045b68181585d2833e84879b9709143e1f593f000000182106200045b5760405162461bcd60e51b815260206004820152602160248201527f5f72696768742073686f756c6420626520696e7369646520746865206669656c6044820152601960fa1b6064820152608401620000ba565b6040805180820182528481526020810184905260048054925163014cf2b360e51b815291926001600160a01b03169163299e5660916200049e91859101620005ce565b60206040518083038186803b158015620004b757600080fd5b505afa158015620004cc573d6000803e3d6000fd5b505050506040513d601f19601f82011682018060405250810190620004f2919062000601565b949350505050565b6001600160a01b03811681146200051057600080fd5b50565b600080600080600060a086880312156200052c57600080fd5b85516200053981620004fa565b60208701519095506200054c81620004fa565b604087015190945063ffffffff811681146200056757600080fd5b60608701519093506200057a81620004fa565b60808701519092506200058d81620004fa565b809150509295509295909350565b600063ffffffff80831681811415620005c457634e487b7160e01b600052601160045260246000fd5b6001019392505050565b60408101818360005b6002811015620005f8578151835260209283019290910190600101620005d7565b50505092915050565b6000602082840312156200061457600080fd5b5051919050565b60805160a051613a706200066b600039600081816103090152818161081f01528181610a5c0152610d4c0152600081816104ff01528181611df101528181611ede01526121380152613a706000f3fe608060405234801561001057600080fd5b50600436106102bb5760003560e01c80636e04ff0d11610182578063cd87a3b4116100e9578063e8295588116100a2578063f178e47c1161007c578063f178e47c14610700578063f2fde38b14610713578063fc7e9c6f14610726578063fffeb84e1461073e57600080fd5b8063e8295588146106b3578063ec732959146106c6578063ed33639f146106ed57600080fd5b8063cd87a3b414610640578063d328a91e14610648578063d4b3917514610650578063d7b6edec14610680578063dfc0cc0514610693578063e31349ce146106a657600080fd5b806390eeb02b1161013b57806390eeb02b146105d4578063af49d2da146105e4578063ba70f757146105ef578063bef3a2f0146105f7578063c2b40ae4146105ff578063cc637afe1461061257600080fd5b80636e04ff0d1461056557806379ba5097146105865780637d596a811461058e578063839df9451461059657806389ac4147146105b95780638da5cb5b146105c357600080fd5b80632fc62eaf11610226578063414a37ba116101df578063414a37ba146104c05780634585e33b146104e75780634ecf518b146104fa57806359360b551461053657806361bc221a146105495780636d9833e31461055257600080fd5b80632fc62eaf1461041a57806332b2820c146104455780633514c1601461046557806338bf282e146104875780633a20b4e91461049a5780633eee99ad146104ad57600080fd5b80631aa46f59116102785780631aa46f591461038d5780631d8557d71461039657806322dc7b4c1461039e57806327714589146103d15780632997e86b146103e45780632b7ac3f31461040757600080fd5b8063089ea02e146102c05780630ca76175146102dc57806311456b47146102f1578063129116ef14610304578063150b7a0214610343578063163c93351461037a575b600080fd5b6102c960795481565b6040519081526020015b60405180910390f35b6102ef6102ea366004612be9565b610746565b005b6102ef6102ff366004612c55565b6107d3565b61032b7f000000000000000000000000000000000000000000000000000000000000000081565b6040516001600160a01b0390911681526020016102d3565b610361610351366004612c9e565b630a85bd0160e11b949350505050565b6040516001600160e01b031990911681526020016102d3565b6102ef610388366004612c55565b610808565b6102c9606e5481565b6102ef61088b565b6103c16103ac366004612d09565b60009081526072602052604090205460ff1690565b60405190151581526020016102d3565b6102c96103df366004612d93565b610b67565b6103c16103f2366004612d09565b60726020526000908152604090205460ff1681565b60715461032b906001600160a01b031681565b6102c9610428366004612c55565b805160208183018101805160778252928201919093012091525481565b610458610453366004612e7d565b610c75565b6040516102d39190612f16565b610478610473366004612f29565b610e4b565b6040516102d393929190612f8c565b6102c9610495366004612fc5565b610ff6565b6104586104a8366004612c55565b61117b565b6102ef6104bb366004612fe7565b611220565b6102c97f30644e72e131a029b85045b68181585d2833e84879b9709143e1f593f000000181565b6102ef6104f5366004612e7d565b61137f565b6105217f000000000000000000000000000000000000000000000000000000000000000081565b60405163ffffffff90911681526020016102d3565b6102ef610544366004613082565b611425565b6102c960785481565b6103c1610560366004612d09565b61164d565b610578610573366004612e7d565b6116cb565b6040516102d3929190613196565b6102ef611714565b6104586117c2565b6103c16105a4366004612d09565b60736020526000908152604090205460ff1681565b6102c962093a8081565b6002546001600160a01b031661032b565b6007546105219063ffffffff1681565b606c5460ff166103c1565b6102c96117cf565b6104586117f5565b6102c961060d366004612d09565b611802565b6103c1610620366004612c55565b805160208183018101805160748252928201919093012091525460ff1681565b610521606481565b610458611819565b61066361065e366004613273565b61189e565b6040516bffffffffffffffffffffffff90911681526020016102d3565b61045861068e366004612c55565b611934565b6104586106a1366004612e7d565b611958565b606c546103c19060ff1681565b6102c96106c1366004612d09565b611a0b565b6102c97f2fe54c60d3acabf3343a35b6eba15db4821b340f76e741e2249685ed4899af6c81565b60045461032b906001600160a01b031681565b6102c961070e366004612d09565b611a2c565b6102ef610721366004613384565b611a3c565b60075461052190640100000000900463ffffffff1681565b610458611a50565b60008381526001602052604090205483906001600160a01b0316331461077f5760405163a0c5ec6360e01b815260040160405180910390fd5b60008181526001602052604080822080546001600160a01b03191690555182917f85e1543bf2f84fe80c6badbce3648c8539ad1df4d2b3d822938ca0538be727e691a26107cd848484611a5d565b50505050565b60016074826040516107e591906133a1565b908152604051908190036020019020805491151560ff1990921691909117905550565b60405163d0def52160e01b81526001600160a01b037f0000000000000000000000000000000000000000000000000000000000000000169063d0def5219061085690309085906004016133bd565b600060405180830381600087803b15801561087057600080fd5b505af1158015610884573d6000803e3d6000fd5b5050505050565b60708054610898906133e1565b1590506108e05760405162461bcd60e51b8152602060048201526011602482015270233ab63334b63636b2b73a1032b93937b960791b60448201526064015b60405180910390fd5b6000606f80546108ef906133e1565b9050116109355760405162461bcd60e51b81526020600482015260146024820152734d7573742068617665206120726573706f6e736560601b60448201526064016108d7565b60008060006109e7606f805461094a906133e1565b80601f0160208091040260200160405190810160405280929190818152602001828054610976906133e1565b80156109c35780601f10610998576101008083540402835291602001916109c3565b820191906000526020600020905b8154815290600101906020018083116109a657829003601f168201915b5050505050604051806040016040528060018152602001600b60fa1b815250610e4b565b925092509250826075826040516109fe91906133a1565b90815260200160405180910390209080519060200190610a1f92919061294e565b5081607682604051610a3191906133a1565b90815260200160405180910390209080519060200190610a5292919061294e565b50600060785490507f00000000000000000000000000000000000000000000000000000000000000006001600160a01b031663dbfd4b986040518163ffffffff1660e01b815260040160206040518083038186803b158015610ab357600080fd5b505afa158015610ac7573d6000803e3d6000fd5b505050506040513d601f19601f82011682018060405250810190610aeb9190613416565b811015610b265780607784604051610b0391906133a1565b9081526040519081900360200190205580610b1d81613445565b60788190559150505b7fafa0c737e4e73fe7fdffeddcaef6341a14203894766da748e74287e94a32187a848484604051610b5993929190612f8c565b60405180910390a150505050565b6000610b71611ae5565b610bab6040805160c08101909152806000815260200160008152602001600081526020016060815260200160608152602001606081525090565b610bf26000808c8c8080601f01602080910402602001604051908101604052809392919081815260200183838082843760009201919091525087959493925050611b3a9050565b8615610c3a57610c3a88888080601f0160208091040260200160405190810160405280939291908181526020018383808284376000920191909152508593925050611bb59050565b8415610c5457610c54610c4d8688613460565b8290611be3565b6000610c61828686611c0a565b606e8190559b9a5050505050505050505050565b606082828080601f0160208091040260200160405190810160405280939291908181526020018383808284376000920191909152505060405160749250610cbe915083906133a1565b9081526040519081900360200190205460ff16610ced5760405162461bcd60e51b81526004016108d79061346d565b6040805160008152602081019182905251812090607690610d11908790879061349a565b9081526020016040518091039020604051602001610d2f91906134aa565b6040516020818303038152906040528051906020012014610e31577f00000000000000000000000000000000000000000000000000000000000000006001600160a01b031663c87b56dd607760768787604051610d8d92919061349a565b908152604051908190036020018120610da5916134aa565b908152604051908190036020018120546001600160e01b031960e084901b168252610dd69160040190815260200190565b60006040518083038186803b158015610dee57600080fd5b505afa158015610e02573d6000803e3d6000fd5b505050506040513d6000823e601f3d908101601f19168201604052610e2a9190810190613576565b9150610e44565b6040518060200160405280600081525091505b5092915050565b60408051600380825260808201909252606091829182919060009082816020015b6060815260200190600190039081610e6c5750506040805160208101909152600080825291925090805b84811015610f935760008a8381518110610eb257610eb26135be565b016020908101516040516001600160f81b031990911691810191909152602101604051602081830303815290604052905089604051602001610ef491906133a1565b6040516020818303038152906040528051906020012081805190602001201415610f5b5783858381518110610f2b57610f2b6135be565b60200260200101819052508180610f4190613445565b925050604051806020016040528060008152509350610f80565b8381604051602001610f6e9291906135d4565b60405160208183030381529060405293505b82610f8a81613445565b93505050610e96565b83600081518110610fa657610fa66135be565b602002602001015184600181518110610fc157610fc16135be565b602002602001015185600281518110610fdc57610fdc6135be565b602002602001015197509750975050505050509250925092565b60007f30644e72e131a029b85045b68181585d2833e84879b9709143e1f593f000000183106110675760405162461bcd60e51b815260206004820181905260248201527f5f6c6566742073686f756c6420626520696e7369646520746865206669656c6460448201526064016108d7565b7f30644e72e131a029b85045b68181585d2833e84879b9709143e1f593f000000182106110e05760405162461bcd60e51b815260206004820152602160248201527f5f72696768742073686f756c6420626520696e7369646520746865206669656c6044820152601960fa1b60648201526084016108d7565b6040805180820182528481526020810184905260048054925163014cf2b360e51b815291926001600160a01b03169163299e56609161112191859101613603565b60206040518083038186803b15801561113957600080fd5b505afa15801561114d573d6000803e3d6000fd5b505050506040513d601f19601f820116820180604052508101906111719190613416565b9150505b92915050565b80516020818301810180516075825292820191909301209152805461119f906133e1565b80601f01602080910402602001604051908101604052809291908181526020018280546111cb906133e1565b80156112185780601f106111ed57610100808354040283529160200191611218565b820191906000526020600020905b8154815290600101906020018083116111fb57829003601f168201915b505050505081565b611228611d7e565b81818080601f016020809104026020016040519081016040528093929190818152602001838380828437600092019190915250506040516074925061126f915083906133a1565b9081526040519081900360200190205460ff1661129e5760405162461bcd60e51b81526004016108d79061346d565b60008481526073602052604090205460ff16156112fe5760405163323377d160e01b815260206004820152601760248201527f436f6d6d69746d656e7420616c7265616479207573656400000000000000000060448201526064016108d7565b600061130985611dd8565b60008681526073602052604090819020805460ff19166001179055519091507fb78452bc487dc90d6a0a567cf87858dae69e144c5f299a43ed6964629c219e2a90611366908790849091825263ffffffff16602082015260400190565b60405180910390a1505061137a6001606d55565b505050565b606c5460ff161580156113a1575062093a806079544261139f9190613634565b105b156113e25760405163549a164f60e11b815260206004820152601060248201526f14995cd95d081b9bdd081b995959195960821b60448201526064016108d7565b426079556113ee612047565b6040514281527f638d0998b62dddc203db633372b87ac8b5cb5404842cc56fbbec87a4280085159060200160405180910390a15050565b61142d611d7e565b8460748160405161143e91906133a1565b9081526040519081900360200190205460ff1661146d5760405162461bcd60e51b81526004016108d79061346d565b60008481526072602052604090205460ff16156114c657604051633c564aa760e01b8152602060048201526016602482015275139d5b1b1a599a595c88185b1c9958591e481d5cd95960521b60448201526064016108d7565b6114cf8361164d565b61150d57604051632d3b008160e21b815260206004820152600e60248201526d2937b7ba103737ba1035b737bbb760911b60448201526064016108d7565b6040805180820182528481526020808201879052607154855191860151868501519451637ae4eb4f60e11b815293946001600160a01b039092169363f5c9d69e9361155f93909291879060040161366e565b602060405180830381600087803b15801561157957600080fd5b505af115801561158d573d6000803e3d6000fd5b505050506040513d601f19601f820116820180604052508101906115b191906136cc565b6115ee5760405163179f55d760e01b815260206004820152600d60248201526c24b73b30b634b210383937b7b360991b60448201526064016108d7565b60008581526072602052604090819020805460ff19166001179055517f8e2c684c78bee254585736b8c67696a4c4ca8b7bd1f2b3b51f283e649937c72a9061163990889088906136ee565b60405180910390a150506108846001606d55565b60008161165c57506000919050565b60075463ffffffff165b60088163ffffffff166064811061167f5761167f6135be565b01548314156116915750600192915050565b63ffffffff81166116a0575060645b806116aa81613710565b60075490925063ffffffff8084169116141590506116665750600092915050565b60795460009060609062093a80906116e39042613634565b1015806116f25750606c5460ff165b156116fc57600191505b506040805160208101909152600081525b9250929050565b6003546001600160a01b031633146117675760405162461bcd60e51b815260206004820152601660248201527526bab9ba10313290383937b837b9b2b21037bbb732b960511b60448201526064016108d7565b600280546001600160a01b0319808216339081179093556003805490911690556040516001600160a01b03909116919082907f8be0079c531659141344cd1fd0a4f28419497f9722a3daafe3b4186f6b6457e090600090a350565b607a805461119f906133e1565b60075460009060089063ffffffff16606481106117ee576117ee6135be565b0154905090565b606f805461119f906133e1565b6008816064811061181257600080fd5b0154905081565b6000805460408051636994548f60e11b815290516060936001600160a01b039093169263d328a91e9260048082019391829003018186803b15801561185d57600080fd5b505afa158015611871573d6000803e3d6000fd5b505050506040513d6000823e601f3d908101601f191682016040526118999190810190613576565b905090565b600080546001600160a01b031663d227d245856118ba88612205565b86866040518563ffffffff1660e01b81526004016118db9493929190613730565b60206040518083038186803b1580156118f357600080fd5b505afa158015611907573d6000803e3d6000fd5b505050506040513d601f19601f8201168201806040525081019061192b919061376b565b95945050505050565b80516020818301810180516076825292820191909301209152805461119f906133e1565b60606075838360405161196c92919061349a565b90815260200160405180910390208054611985906133e1565b80601f01602080910402602001604051908101604052809291908181526020018280546119b1906133e1565b80156119fe5780601f106119d3576101008083540402835291602001916119fe565b820191906000526020600020905b8154815290600101906020018083116119e157829003601f168201915b5050505050905092915050565b60068181548110611a1b57600080fd5b600091825260209091200154905081565b60058181548110611a1b57600080fd5b611a44611ae5565b611a4d81612421565b50565b6070805461119f906133e1565b606f607a908054611a6d906133e1565b611a789291906129d2565b50606e8390558151611a9190606f90602085019061294e565b508051611aa590607090602084019061294e565b50827f7bab0ec163b5c132c72b8146ac4d6e067e82ed58f8b131150aa71c92589115628383604051611ad8929190613799565b60405180910390a2505050565b6002546001600160a01b03163314611b385760405162461bcd60e51b815260206004820152601660248201527527b7363c9031b0b63630b1363290313c9037bbb732b960511b60448201526064016108d7565b565b8051611b59576040516322ce3edd60e01b815260040160405180910390fd5b83836001811115611b6c57611b6c6137be565b90816001811115611b7f57611b7f6137be565b90525060408401828015611b9557611b956137be565b90818015611ba557611ba56137be565b9052506060909301929092525050565b8051611bd45760405163e889636f60e01b815260040160405180910390fd5b60016020830152608090910152565b8051611c025760405163fe936cb760e01b815260040160405180910390fd5b60a090910152565b6000805481906001600160a01b03166328242b0485611c2888612205565b866040518463ffffffff1660e01b8152600401611c47939291906137d4565b602060405180830381600087803b158015611c6157600080fd5b505af1158015611c75573d6000803e3d6000fd5b505050506040513d601f19601f82011682018060405250810190611c999190613416565b905060008054906101000a90046001600160a01b03166001600160a01b0316635ab1bd536040518163ffffffff1660e01b815260040160206040518083038186803b158015611ce757600080fd5b505afa158015611cfb573d6000803e3d6000fd5b505050506040513d601f19601f82011682018060405250810190611d1f919061380c565b60008281526001602052604080822080546001600160a01b0319166001600160a01b039490941693909317909255905182917f1131472297a800fee664d1d89cfa8f7676ff07189ecc53f80bbb5f4969099db891a290505b9392505050565b6002606d541415611dd15760405162461bcd60e51b815260206004820152601f60248201527f5265656e7472616e637947756172643a207265656e7472616e742063616c6c0060448201526064016108d7565b6002606d55565b600754600090640100000000900463ffffffff16611e177f0000000000000000000000000000000000000000000000000000000000000000600261390d565b8163ffffffff1610611e9157606c805460ff1916600117905560405163d7e8473f60e01b815260206004820152602f60248201527f4d65726b6c6520747265652069732066756c6c2e204e6f206d6f7265206c656160448201526e199cc818d85b881899481859191959608a1b60648201526084016108d7565b6001600760048282829054906101000a900463ffffffff16611eb3919061391f565b92506101000a81548163ffffffff021916908363ffffffff160217905550600083905060008060005b7f000000000000000000000000000000000000000000000000000000000000000063ffffffff168163ffffffff161015611fce57611f1b600286613954565b63ffffffff16611f795783925060068163ffffffff1681548110611f4157611f416135be565b906000526020600020015491508360058263ffffffff1681548110611f6857611f686135be565b600091825260209091200155611fa3565b60058163ffffffff1681548110611f9257611f926135be565b906000526020600020015492508391505b611fad8383610ff6565b9350611fba600286613977565b945080611fc68161399a565b915050611edc565b50600754606490611fe69063ffffffff16600161391f565b611ff09190613954565b6007805463ffffffff191663ffffffff92909216918217905583906008906064811061201e5761201e6135be565b015560075461203d90600190640100000000900463ffffffff166139be565b9695505050505050565b61205360056000612a4d565b61205f60066000612a4d565b604080516000815260208101918290525161207c91600591612a6b565b50604080516000815260208101918290525161209a91600691612a6b565b506007805467ffffffffffffffff191690556006805460018181019092557f2fe54c60d3acabf3343a35b6eba15db4821b340f76e741e2249685ed4899af6c7ff652222313e28459528d920b65115c16c04f3efc82aaedc97be59f3f377c0d3f9091018190556005805480840182556000919091527f036b6384b5eca791c62761152d0c79bb0604c104a5fb6f4eb0703f3154bb3db001819055905b7f000000000000000000000000000000000000000000000000000000000000000063ffffffff168163ffffffff1610156121ea576121748283610ff6565b6006805460018181019092557ff652222313e28459528d920b65115c16c04f3efc82aaedc97be59f3f377c0d3f018290556005805491820181556000527f036b6384b5eca791c62761152d0c79bb0604c104a5fb6f4eb0703f3154bb3db0018190559150806121e28161399a565b915050612136565b506121f58182610ff6565b60085550606c805460ff19169055565b6060612224604051806040016040528060608152602001600081525090565b612230816101006124cc565b5060408051808201909152600c81526b31b7b232a637b1b0ba34b7b760a11b602082015261225f908290612531565b825161227d906001811115612276576122766137be565b8290612548565b6040805180820190915260088152676c616e677561676560c01b60208201526122a7908290612531565b60408301516122be908015612276576122766137be565b604080518082019091526006815265736f7572636560d01b60208201526122e6908290612531565b60608301516122f6908290612531565b60a0830151511561238c576040805180820190915260048152636172677360e01b6020820152612327908290612531565b61233081612571565b60005b8360a0015151811015612382576123708460a001518281518110612359576123596135be565b60200260200101518361253190919063ffffffff16565b8061237a81613445565b915050612333565b5061238c8161257c565b6080830151511561241a5760408051808201909152600f81526e39b2b1b932ba39a637b1b0ba34b7b760891b60208201526123c8908290612531565b6123e183602001516001811115612276576122766137be565b6040805180820190915260078152667365637265747360c81b602082015261240a908290612531565b608083015161241a908290612587565b5192915050565b6001600160a01b03811633141561247a5760405162461bcd60e51b815260206004820152601760248201527f43616e6e6f74207472616e7366657220746f2073656c6600000000000000000060448201526064016108d7565b600380546001600160a01b0319166001600160a01b03838116918217909255600254604051919216907fed8889f560326eb138920d842192f0eb3dd22b4f139c87a2c57538e05bae127890600090a350565b6040805180820190915260608152600060208201526124ec6020836139e3565b15612514576124fc6020836139e3565b612507906020613634565b61251190836139f7565b91505b506020828101829052604080518085526000815290920101905290565b61253e8260038351612590565b61137a8282612697565b6001600160401b038111156125655761256182826126be565b5050565b61256182600083612590565b611a4d8160046126f5565b611a4d8160076126f5565b61253e82600283515b6017816001600160401b0316116125b4576107cd8360e0600585901b168317612706565b60ff816001600160401b0316116125f0576125da836018611fe0600586901b1617612706565b506107cd836001600160401b038316600161272b565b61ffff816001600160401b03161161262d57612617836019611fe0600586901b1617612706565b506107cd836001600160401b038316600261272b565b63ffffffff816001600160401b03161161266c5761265683601a611fe0600586901b1617612706565b506107cd836001600160401b038316600461272b565b61268183601b611fe0600586901b1617612706565b506107cd836001600160401b038316600861272b565b604080518082019091526060815260006020820152611d7783846000015151848551612759565b6126c98260c2612706565b5061256182826040516020016126e191815260200190565b604051602081830303815290604052612587565b61137a82601f611fe0600585901b16175b604080518082019091526060815260006020820152611d778384600001515184612843565b60408051808201909152606081526000602082015261275184856000015151858561289f565b949350505050565b604080518082019091526060815260006020820152825182111561277c57600080fd5b602085015161278b83866139f7565b11156127be576127be856127ae876020015187866127a991906139f7565b612920565b6127b9906002613a0f565b612937565b6000808651805187602083010193508088870111156127dd5787860182525b505050602084015b6020841061281d57805182526127fc6020836139f7565b91506128096020826139f7565b9050612816602085613634565b93506127e5565b51815160001960208690036101000a019081169019919091161790525083949350505050565b604080518082019091526060815260006020820152836020015183106128785761287884856020015160026127b99190613a0f565b835180516020858301018481535080851415612895576001810182525b5093949350505050565b60408051808201909152606081526000602082015260208501516128c385846139f7565b11156128d7576128d7856127ae86856139f7565b600060016128e784610100613a2e565b6128f19190613634565b90508551838682010185831982511617815250805184870111156129155783860181525b509495945050505050565b600081831115612931575081611175565b50919050565b815161294383836124cc565b506107cd8382612697565b82805461295a906133e1565b90600052602060002090601f01602090048101928261297c57600085556129c2565b82601f1061299557805160ff19168380011785556129c2565b828001600101855582156129c2579182015b828111156129c25782518255916020019190600101906129a7565b506129ce929150612aa5565b5090565b8280546129de906133e1565b90600052602060002090601f016020900481019282612a0057600085556129c2565b82601f10612a1157805485556129c2565b828001600101855582156129c257600052602060002091601f016020900482015b828111156129c2578254825591600101919060010190612a32565b5080546000825590600052602060002090810190611a4d9190612aa5565b8280548282559060005260206000209081019282156129c257916020028201828111156129c25782518255916020019190600101906129a7565b5b808211156129ce5760008155600101612aa6565b634e487b7160e01b600052604160045260246000fd5b604051606081016001600160401b0381118282101715612af257612af2612aba565b60405290565b60405160c081016001600160401b0381118282101715612af257612af2612aba565b604080519081016001600160401b0381118282101715612af257612af2612aba565b604051601f8201601f191681016001600160401b0381118282101715612b6457612b64612aba565b604052919050565b60006001600160401b03821115612b8557612b85612aba565b50601f01601f191660200190565b600082601f830112612ba457600080fd5b8135612bb7612bb282612b6c565b612b3c565b818152846020838601011115612bcc57600080fd5b816020850160208301376000918101602001919091529392505050565b600080600060608486031215612bfe57600080fd5b8335925060208401356001600160401b0380821115612c1c57600080fd5b612c2887838801612b93565b93506040860135915080821115612c3e57600080fd5b50612c4b86828701612b93565b9150509250925092565b600060208284031215612c6757600080fd5b81356001600160401b03811115612c7d57600080fd5b61117184828501612b93565b6001600160a01b0381168114611a4d57600080fd5b60008060008060808587031215612cb457600080fd5b8435612cbf81612c89565b93506020850135612ccf81612c89565b92506040850135915060608501356001600160401b03811115612cf157600080fd5b612cfd87828801612b93565b91505092959194509250565b600060208284031215612d1b57600080fd5b5035919050565b60008083601f840112612d3457600080fd5b5081356001600160401b03811115612d4b57600080fd5b60208301915083602082850101111561170d57600080fd5b80356001600160401b0381168114612d7a57600080fd5b919050565b803563ffffffff81168114612d7a57600080fd5b60008060008060008060008060a0898b031215612daf57600080fd5b88356001600160401b0380821115612dc657600080fd5b612dd28c838d01612d22565b909a50985060208b0135915080821115612deb57600080fd5b612df78c838d01612d22565b909850965060408b0135915080821115612e1057600080fd5b818b0191508b601f830112612e2457600080fd5b813581811115612e3357600080fd5b8c60208260051b8501011115612e4857600080fd5b602083019650809550505050612e6060608a01612d63565b9150612e6e60808a01612d7f565b90509295985092959890939650565b60008060208385031215612e9057600080fd5b82356001600160401b03811115612ea657600080fd5b612eb285828601612d22565b90969095509350505050565b60005b83811015612ed9578181015183820152602001612ec1565b838111156107cd5750506000910152565b60008151808452612f02816020860160208601612ebe565b601f01601f19169290920160200192915050565b602081526000611d776020830184612eea565b60008060408385031215612f3c57600080fd5b82356001600160401b0380821115612f5357600080fd5b612f5f86838701612b93565b93506020850135915080821115612f7557600080fd5b50612f8285828601612b93565b9150509250929050565b606081526000612f9f6060830186612eea565b8281036020840152612fb18186612eea565b9050828103604084015261203d8185612eea565b60008060408385031215612fd857600080fd5b50508035926020909101359150565b600080600060408486031215612ffc57600080fd5b8335925060208401356001600160401b0381111561301957600080fd5b61302586828701612d22565b9497909650939450505050565b600082601f83011261304357600080fd5b61304b612b1a565b80604084018581111561305d57600080fd5b845b8181101561307757803584526020938401930161305f565b509095945050505050565b600080600080600085870361018081121561309c57600080fd5b86356001600160401b03808211156130b357600080fd5b6130bf8a838b01612b93565b97506020915081890135818111156130d657600080fd5b6130e28b828c01612b93565b97505050604088810135955060608901359450610100607f198401121561310857600080fd5b613110612ad0565b925061311f8a60808b01613032565b83528960df8a011261313057600080fd5b613138612b1a565b806101408b018c81111561314b57600080fd5b60c08c015b8181101561316f576131628e82613032565b8452928501928401613150565b50818587015261317f8d82613032565b848701525050505050809150509295509295909350565b82151581526040602082015260006127516040830184612eea565b803560028110612d7a57600080fd5b803560018110612d7a57600080fd5b60006001600160401b03808411156131e9576131e9612aba565b8360051b60206131fa818301612b3c565b8681529350908401908084018783111561321357600080fd5b855b838110156132475780358581111561322d5760008081fd5b6132398a828a01612b93565b835250908201908201613215565b50505050509392505050565b600082601f83011261326457600080fd5b611d77838335602085016131cf565b6000806000806080858703121561328957600080fd5b84356001600160401b03808211156132a057600080fd5b9086019060c082890312156132b457600080fd5b6132bc612af8565b6132c5836131b1565b81526132d3602084016131b1565b60208201526132e4604084016131c0565b60408201526060830135828111156132fb57600080fd5b6133078a828601612b93565b60608301525060808301358281111561331f57600080fd5b61332b8a828601612b93565b60808301525060a08301358281111561334357600080fd5b61334f8a828601613253565b60a083015250955061336691505060208601612d63565b925061337460408601612d7f565b9396929550929360600135925050565b60006020828403121561339657600080fd5b8135611d7781612c89565b600082516133b3818460208701612ebe565b9190910192915050565b6001600160a01b038316815260406020820181905260009061275190830184612eea565b600181811c908216806133f557607f821691505b6020821081141561293157634e487b7160e01b600052602260045260246000fd5b60006020828403121561342857600080fd5b5051919050565b634e487b7160e01b600052601160045260246000fd5b60006000198214156134595761345961342f565b5060010190565b6000611d773684846131cf565b60208082526013908201527213985b5948191bd95cc81b9bdd08195e1a5cdd606a1b604082015260600190565b8183823760009101908152919050565b600080835481600182811c9150808316806134c657607f831692505b60208084108214156134e657634e487b7160e01b86526022600452602486fd5b8180156134fa576001811461350b57613538565b60ff19861689528489019650613538565b60008a81526020902060005b868110156135305781548b820152908501908301613517565b505084890196505b509498975050505050505050565b6000613554612bb284612b6c565b905082815283838301111561356857600080fd5b611d77836020830184612ebe565b60006020828403121561358857600080fd5b81516001600160401b0381111561359e57600080fd5b8201601f810184136135af57600080fd5b61117184825160208401613546565b634e487b7160e01b600052603260045260246000fd5b600083516135e6818460208801612ebe565b8351908301906135fa818360208801612ebe565b01949350505050565b60408101818360005b600281101561362b57815183526020928301929091019060010161360c565b50505092915050565b6000828210156136465761364661342f565b500390565b8060005b60028110156107cd57815184526020938401939091019060010161364f565b610140810161367d828761364b565b60408083018660005b60028110156136ad5761369a83835161364b565b9183019160209190910190600101613686565b505050506136be60c083018561364b565b61192b61010083018461364b565b6000602082840312156136de57600080fd5b81518015158114611d7757600080fd5b6040815260006137016040830185612eea565b90508260208301529392505050565b600063ffffffff8216806137265761372661342f565b6000190192915050565b6001600160401b03851681526080602082015260006137526080830186612eea565b63ffffffff949094166040830152506060015292915050565b60006020828403121561377d57600080fd5b81516bffffffffffffffffffffffff81168114611d7757600080fd5b6040815260006137ac6040830185612eea565b828103602084015261192b8185612eea565b634e487b7160e01b600052602160045260246000fd5b6001600160401b03841681526060602082015260006137f66060830185612eea565b905063ffffffff83166040830152949350505050565b60006020828403121561381e57600080fd5b8151611d7781612c89565b600181815b8085111561386457816000190482111561384a5761384a61342f565b8085161561385757918102915b93841c939080029061382e565b509250929050565b60008261387b57506001611175565b8161388857506000611175565b816001811461389e57600281146138a8576138c4565b6001915050611175565b60ff8411156138b9576138b961342f565b50506001821b611175565b5060208310610133831016604e8410600b84101617156138e7575081810a611175565b6138f18383613829565b80600019048211156139055761390561342f565b029392505050565b6000611d7763ffffffff84168361386c565b600063ffffffff8083168185168083038211156135fa576135fa61342f565b634e487b7160e01b600052601260045260246000fd5b600063ffffffff8084168061396b5761396b61393e565b92169190910692915050565b600063ffffffff8084168061398e5761398e61393e565b92169190910492915050565b600063ffffffff808316818114156139b4576139b461342f565b6001019392505050565b600063ffffffff838116908316818110156139db576139db61342f565b039392505050565b6000826139f2576139f261393e565b500690565b60008219821115613a0a57613a0a61342f565b500190565b6000816000190483118215151615613a2957613a2961342f565b500290565b6000611d77838361386c56fea26469706673582212201b367029657a2f43fc027dbc8bb98815125e11d49b2fe7cdfe1490511a686ab764736f6c63430008090033036b6384b5eca791c62761152d0c79bb0604c104a5fb6f4eb0703f3154bb3db0f652222313e28459528d920b65115c16c04f3efc82aaedc97be59f3f377c0d3f",
  "linkReferences": {},
  "deployedLinkReferences": {}
}