{
  "_format": "hh-sol-artifact-1",
  "contractName": "Sentiment",
  "sourceName": "contracts/Sentiment.sol",
  "abi": [
    {
      "inputs": [
        {
          "internalType": "address",
          "name": "oracle",
          "type": "address"
        },
        {
          "internalType": "contract IVerifier",
          "name": "_verifier",
          "type": "address"
        },
        {
          "internalType": "uint32",
          "name": "_merkleTreeHeight",
          "type": "uint32"
        },
        {
          "internalType": "address",
          "name": "_hasher",
          "type": "address"
        },
        {
          "internalType": "address",
          "name": "_emojiAddress",
          "type": "address"
        }
      ],
      "stateMutability": "nonpayable",
      "type": "constructor"
    },
    {
      "inputs": [],
      "name": "EmptyArgs",
      "type": "error"
    },
    {
      "inputs": [],
      "name": "EmptySecrets",
      "type": "error"
    },
    {
      "inputs": [],
      "name": "EmptySource",
      "type": "error"
    },
    {
      "inputs": [
        {
          "internalType": "string",
          "name": "message",
          "type": "string"
        }
      ],
      "name": "MerkleTree__IsFull",
      "type": "error"
    },
    {
      "inputs": [
        {
          "internalType": "string",
          "name": "message",
          "type": "string"
        }
      ],
      "name": "MerkleTree__TreeLevelsOutOfRange",
      "type": "error"
    },
    {
      "inputs": [],
      "name": "RequestIsAlreadyPending",
      "type": "error"
    },
    {
      "inputs": [],
      "name": "RequestIsNotPending",
      "type": "error"
    },
    {
      "inputs": [],
      "name": "SenderIsNotRegistry",
      "type": "error"
    },
    {
      "inputs": [
        {
          "internalType": "string",
          "name": "message",
          "type": "string"
        }
      ],
      "name": "Sentiment__CommitmentAlreadyUsed",
      "type": "error"
    },
    {
      "inputs": [
        {
          "internalType": "string",
          "name": "message",
          "type": "string"
        }
      ],
      "name": "Sentiment__InvalidProof",
      "type": "error"
    },
    {
      "inputs": [
        {
          "internalType": "string",
          "name": "message",
          "type": "string"
        }
      ],
      "name": "Sentiment__NullifierAlreadyUsed",
      "type": "error"
    },
    {
      "inputs": [
        {
          "internalType": "string",
          "name": "message",
          "type": "string"
        }
      ],
      "name": "Sentiment__ResetNotNeeded",
      "type": "error"
    },
    {
      "inputs": [
        {
          "internalType": "string",
          "name": "message",
          "type": "string"
        }
      ],
      "name": "Sentiment__RootNotKnown",
      "type": "error"
    },
    {
      "anonymous": false,
      "inputs": [
        {
          "indexed": false,
          "internalType": "bytes32",
          "name": "commitment",
          "type": "bytes32"
        },
        {
          "indexed": false,
          "internalType": "uint32",
          "name": "insertedIndex",
          "type": "uint32"
        }
      ],
      "name": "Inserted",
      "type": "event"
    },
    {
      "anonymous": false,
      "inputs": [
        {
          "indexed": false,
          "internalType": "string",
          "name": "message",
          "type": "string"
        },
        {
          "indexed": false,
          "internalType": "bytes32",
          "name": "nullifierHash",
          "type": "bytes32"
        }
      ],
      "name": "MessagePosted",
      "type": "event"
    },
    {
      "anonymous": false,
      "inputs": [
        {
          "indexed": true,
          "internalType": "bytes32",
          "name": "requestId",
          "type": "bytes32"
        },
        {
          "indexed": false,
          "internalType": "bytes",
          "name": "result",
          "type": "bytes"
        },
        {
          "indexed": false,
          "internalType": "bytes",
          "name": "err",
          "type": "bytes"
        }
      ],
      "name": "OCRResponse",
      "type": "event"
    },
    {
      "anonymous": false,
      "inputs": [
        {
          "indexed": true,
          "internalType": "address",
          "name": "from",
          "type": "address"
        },
        {
          "indexed": true,
          "internalType": "address",
          "name": "to",
          "type": "address"
        }
      ],
      "name": "OwnershipTransferRequested",
      "type": "event"
    },
    {
      "anonymous": false,
      "inputs": [
        {
          "indexed": true,
          "internalType": "address",
          "name": "from",
          "type": "address"
        },
        {
          "indexed": true,
          "internalType": "address",
          "name": "to",
          "type": "address"
        }
      ],
      "name": "OwnershipTransferred",
      "type": "event"
    },
    {
      "anonymous": false,
      "inputs": [
        {
          "indexed": true,
          "internalType": "bytes32",
          "name": "id",
          "type": "bytes32"
        }
      ],
      "name": "RequestFulfilled",
      "type": "event"
    },
    {
      "anonymous": false,
      "inputs": [
        {
          "indexed": true,
          "internalType": "bytes32",
          "name": "id",
          "type": "bytes32"
        }
      ],
      "name": "RequestSent",
      "type": "event"
    },
    {
      "anonymous": false,
      "inputs": [
        {
          "indexed": false,
          "internalType": "string",
          "name": "sentimentText",
          "type": "string"
        },
        {
          "indexed": false,
          "internalType": "string",
          "name": "emojiString",
          "type": "string"
        },
        {
          "indexed": false,
          "internalType": "string",
          "name": "name",
          "type": "string"
        }
      ],
      "name": "ResponseUpdated",
      "type": "event"
    },
    {
      "anonymous": false,
      "inputs": [
        {
          "indexed": false,
          "internalType": "uint256",
          "name": "time",
          "type": "uint256"
        }
      ],
      "name": "TreeCleared",
      "type": "event"
    },
    {
      "inputs": [],
      "name": "FIELD_SIZE",
      "outputs": [
        {
          "internalType": "uint256",
          "name": "",
          "type": "uint256"
        }
      ],
      "stateMutability": "view",
      "type": "function"
    },
    {
      "inputs": [],
      "name": "ROOT_HISTORY_SIZE",
      "outputs": [
        {
          "internalType": "uint32",
          "name": "",
          "type": "uint32"
        }
      ],
      "stateMutability": "view",
      "type": "function"
    },
    {
      "inputs": [],
      "name": "UPDATE_INTERVAL",
      "outputs": [
        {
          "internalType": "uint256",
          "name": "",
          "type": "uint256"
        }
      ],
      "stateMutability": "view",
      "type": "function"
    },
    {
      "inputs": [],
      "name": "ZERO_VALUE",
      "outputs": [
        {
          "internalType": "uint256",
          "name": "",
          "type": "uint256"
        }
      ],
      "stateMutability": "view",
      "type": "function"
    },
    {
      "inputs": [],
      "name": "acceptOwnership",
      "outputs": [],
      "stateMutability": "nonpayable",
      "type": "function"
    },
    {
      "inputs": [
        {
          "internalType": "string",
          "name": "uri",
          "type": "string"
        }
      ],
      "name": "addEmoji",
      "outputs": [],
      "stateMutability": "nonpayable",
      "type": "function"
    },
    {
      "inputs": [
        {
          "internalType": "string",
          "name": "_name",
          "type": "string"
        }
      ],
      "name": "addName",
      "outputs": [],
      "stateMutability": "nonpayable",
      "type": "function"
    },
    {
      "inputs": [
        {
          "internalType": "bytes",
          "name": "",
          "type": "bytes"
        }
      ],
      "name": "checkUpkeep",
      "outputs": [
        {
          "internalType": "bool",
          "name": "upkeepNeeded",
          "type": "bool"
        },
        {
          "internalType": "bytes",
          "name": "performData",
          "type": "bytes"
        }
      ],
      "stateMutability": "view",
      "type": "function"
    },
    {
      "inputs": [
        {
          "internalType": "bytes32",
          "name": "",
          "type": "bytes32"
        }
      ],
      "name": "commitments",
      "outputs": [
        {
          "internalType": "bool",
          "name": "",
          "type": "bool"
        }
      ],
      "stateMutability": "view",
      "type": "function"
    },
    {
      "inputs": [],
      "name": "counter",
      "outputs": [
        {
          "internalType": "uint256",
          "name": "",
          "type": "uint256"
        }
      ],
      "stateMutability": "view",
      "type": "function"
    },
    {
      "inputs": [],
      "name": "currentRootIndex",
      "outputs": [
        {
          "internalType": "uint32",
          "name": "",
          "type": "uint32"
        }
      ],
      "stateMutability": "view",
      "type": "function"
    },
    {
      "inputs": [],
      "name": "emojiAddress",
      "outputs": [
        {
          "internalType": "address",
          "name": "",
          "type": "address"
        }
      ],
      "stateMutability": "view",
      "type": "function"
    },
    {
      "inputs": [
        {
          "internalType": "string",
          "name": "",
          "type": "string"
        }
      ],
      "name": "emojiStringToTokenId",
      "outputs": [
        {
          "internalType": "uint256",
          "name": "",
          "type": "uint256"
        }
      ],
      "stateMutability": "view",
      "type": "function"
    },
    {
      "inputs": [
        {
          "components": [
            {
              "internalType": "enum Functions.Location",
              "name": "codeLocation",
              "type": "uint8"
            },
            {
              "internalType": "enum Functions.Location",
              "name": "secretsLocation",
              "type": "uint8"
            },
            {
              "internalType": "enum Functions.CodeLanguage",
              "name": "language",
              "type": "uint8"
            },
            {
              "internalType": "string",
              "name": "source",
              "type": "string"
            },
            {
              "internalType": "bytes",
              "name": "secrets",
              "type": "bytes"
            },
            {
              "internalType": "string[]",
              "name": "args",
              "type": "string[]"
            }
          ],
          "internalType": "struct Functions.Request",
          "name": "req",
          "type": "tuple"
        },
        {
          "internalType": "uint64",
          "name": "subscriptionId",
          "type": "uint64"
        },
        {
          "internalType": "uint32",
          "name": "gasLimit",
          "type": "uint32"
        },
        {
          "internalType": "uint256",
          "name": "gasPrice",
          "type": "uint256"
        }
      ],
      "name": "estimateCost",
      "outputs": [
        {
          "internalType": "uint96",
          "name": "",
          "type": "uint96"
        }
      ],
      "stateMutability": "view",
      "type": "function"
    },
    {
      "inputs": [
        {
          "internalType": "string",
          "name": "source",
          "type": "string"
        },
        {
          "internalType": "bytes",
          "name": "secrets",
          "type": "bytes"
        },
        {
          "internalType": "string[]",
          "name": "args",
          "type": "string[]"
        },
        {
          "internalType": "uint64",
          "name": "subscriptionId",
          "type": "uint64"
        },
        {
          "internalType": "uint32",
          "name": "gasLimit",
          "type": "uint32"
        }
      ],
      "name": "executeRequest",
      "outputs": [
        {
          "internalType": "bytes32",
          "name": "",
          "type": "bytes32"
        }
      ],
      "stateMutability": "nonpayable",
      "type": "function"
    },
    {
      "inputs": [
        {
          "internalType": "uint256",
          "name": "",
          "type": "uint256"
        }
      ],
      "name": "filledSubtrees",
      "outputs": [
        {
          "internalType": "bytes32",
          "name": "",
          "type": "bytes32"
        }
      ],
      "stateMutability": "view",
      "type": "function"
    },
    {
      "inputs": [],
      "name": "getDONPublicKey",
      "outputs": [
        {
          "internalType": "bytes",
          "name": "",
          "type": "bytes"
        }
      ],
      "stateMutability": "view",
      "type": "function"
    },
    {
      "inputs": [
        {
          "internalType": "string",
          "name": "name",
          "type": "string"
        }
      ],
      "name": "getEmojiURI",
      "outputs": [
        {
          "internalType": "string",
          "name": "",
          "type": "string"
        }
      ],
      "stateMutability": "nonpayable",
      "type": "function"
    },
    {
      "inputs": [],
      "name": "getLastRoot",
      "outputs": [
        {
          "internalType": "bytes32",
          "name": "",
          "type": "bytes32"
        }
      ],
      "stateMutability": "view",
      "type": "function"
    },
    {
      "inputs": [
        {
          "internalType": "string",
          "name": "_name",
          "type": "string"
        }
      ],
      "name": "getSentimentText",
      "outputs": [
        {
          "internalType": "string",
          "name": "",
          "type": "string"
        }
      ],
      "stateMutability": "view",
      "type": "function"
    },
    {
      "inputs": [
        {
          "internalType": "bytes32",
          "name": "requestId",
          "type": "bytes32"
        },
        {
          "internalType": "bytes",
          "name": "response",
          "type": "bytes"
        },
        {
          "internalType": "bytes",
          "name": "err",
          "type": "bytes"
        }
      ],
      "name": "handleOracleFulfillment",
      "outputs": [],
      "stateMutability": "nonpayable",
      "type": "function"
    },
    {
      "inputs": [
        {
          "internalType": "bytes32",
          "name": "_left",
          "type": "bytes32"
        },
        {
          "internalType": "bytes32",
          "name": "_right",
          "type": "bytes32"
        }
      ],
      "name": "hashLeftRight",
      "outputs": [
        {
          "internalType": "bytes32",
          "name": "",
          "type": "bytes32"
        }
      ],
      "stateMutability": "view",
      "type": "function"
    },
    {
      "inputs": [],
      "name": "hasher",
      "outputs": [
        {
          "internalType": "contract IHasher",
          "name": "",
          "type": "address"
        }
      ],
      "stateMutability": "view",
      "type": "function"
    },
    {
      "inputs": [
        {
          "internalType": "bytes32",
          "name": "_commitment",
          "type": "bytes32"
        },
        {
          "internalType": "string",
          "name": "_name",
          "type": "string"
        }
      ],
      "name": "insertIntoTree",
      "outputs": [],
      "stateMutability": "nonpayable",
      "type": "function"
    },
    {
      "inputs": [
        {
          "internalType": "bytes32",
          "name": "_root",
          "type": "bytes32"
        }
      ],
      "name": "isKnownRoot",
      "outputs": [
        {
          "internalType": "bool",
          "name": "",
          "type": "bool"
        }
      ],
      "stateMutability": "view",
      "type": "function"
    },
    {
      "inputs": [
        {
          "internalType": "bytes32",
          "name": "_nullifier",
          "type": "bytes32"
        }
      ],
      "name": "isNullifierUsed",
      "outputs": [
        {
          "internalType": "bool",
          "name": "",
          "type": "bool"
        }
      ],
      "stateMutability": "view",
      "type": "function"
    },
    {
      "inputs": [],
      "name": "isResetNeeded",
      "outputs": [
        {
          "internalType": "bool",
          "name": "",
          "type": "bool"
        }
      ],
      "stateMutability": "view",
      "type": "function"
    },
    {
      "inputs": [],
      "name": "lastUpkeepTimeStamp",
      "outputs": [
        {
          "internalType": "uint256",
          "name": "",
          "type": "uint256"
        }
      ],
      "stateMutability": "view",
      "type": "function"
    },
    {
      "inputs": [],
      "name": "latestError",
      "outputs": [
        {
          "internalType": "bytes",
          "name": "",
          "type": "bytes"
        }
      ],
      "stateMutability": "view",
      "type": "function"
    },
    {
      "inputs": [],
      "name": "latestRequestId",
      "outputs": [
        {
          "internalType": "bytes32",
          "name": "",
          "type": "bytes32"
        }
      ],
      "stateMutability": "view",
      "type": "function"
    },
    {
      "inputs": [],
      "name": "latestResponse",
      "outputs": [
        {
          "internalType": "bytes",
          "name": "",
          "type": "bytes"
        }
      ],
      "stateMutability": "view",
      "type": "function"
    },
    {
      "inputs": [],
      "name": "levels",
      "outputs": [
        {
          "internalType": "uint32",
          "name": "",
          "type": "uint32"
        }
      ],
      "stateMutability": "view",
      "type": "function"
    },
    {
      "inputs": [
        {
          "internalType": "string",
          "name": "",
          "type": "string"
        }
      ],
      "name": "nameExists",
      "outputs": [
        {
          "internalType": "bool",
          "name": "",
          "type": "bool"
        }
      ],
      "stateMutability": "view",
      "type": "function"
    },
    {
      "inputs": [
        {
          "internalType": "string",
          "name": "",
          "type": "string"
        }
      ],
      "name": "nameToEmojiString",
      "outputs": [
        {
          "internalType": "string",
          "name": "",
          "type": "string"
        }
      ],
      "stateMutability": "view",
      "type": "function"
    },
    {
      "inputs": [
        {
          "internalType": "string",
          "name": "",
          "type": "string"
        }
      ],
      "name": "nameToSentimentText",
      "outputs": [
        {
          "internalType": "string",
          "name": "",
          "type": "string"
        }
      ],
      "stateMutability": "view",
      "type": "function"
    },
    {
      "inputs": [],
      "name": "nextIndex",
      "outputs": [
        {
          "internalType": "uint32",
          "name": "",
          "type": "uint32"
        }
      ],
      "stateMutability": "view",
      "type": "function"
    },
    {
      "inputs": [
        {
          "internalType": "bytes32",
          "name": "",
          "type": "bytes32"
        }
      ],
      "name": "nullifiers",
      "outputs": [
        {
          "internalType": "bool",
          "name": "",
          "type": "bool"
        }
      ],
      "stateMutability": "view",
      "type": "function"
    },
    {
      "inputs": [
        {
          "internalType": "address",
          "name": "",
          "type": "address"
        },
        {
          "internalType": "address",
          "name": "",
          "type": "address"
        },
        {
          "internalType": "uint256",
          "name": "",
          "type": "uint256"
        },
        {
          "internalType": "bytes",
          "name": "",
          "type": "bytes"
        }
      ],
      "name": "onERC721Received",
      "outputs": [
        {
          "internalType": "bytes4",
          "name": "",
          "type": "bytes4"
        }
      ],
      "stateMutability": "nonpayable",
      "type": "function"
    },
    {
      "inputs": [],
      "name": "owner",
      "outputs": [
        {
          "internalType": "address",
          "name": "",
          "type": "address"
        }
      ],
      "stateMutability": "view",
      "type": "function"
    },
    {
      "inputs": [
        {
          "internalType": "bytes",
          "name": "",
          "type": "bytes"
        }
      ],
      "name": "performUpkeep",
      "outputs": [],
      "stateMutability": "nonpayable",
      "type": "function"
    },
    {
      "inputs": [
        {
          "internalType": "string",
          "name": "name",
          "type": "string"
        },
        {
          "internalType": "string",
          "name": "_message",
          "type": "string"
        },
        {
          "internalType": "bytes32",
          "name": "_nullifierHash",
          "type": "bytes32"
        },
        {
          "internalType": "bytes32",
          "name": "_root",
          "type": "bytes32"
        },
        {
          "components": [
            {
              "internalType": "uint256[2]",
              "name": "a",
              "type": "uint256[2]"
            },
            {
              "internalType": "uint256[2][2]",
              "name": "b",
              "type": "uint256[2][2]"
            },
            {
              "internalType": "uint256[2]",
              "name": "c",
              "type": "uint256[2]"
            }
          ],
          "internalType": "struct Proof",
          "name": "_proof",
          "type": "tuple"
        }
      ],
      "name": "postMessageWithProof",
      "outputs": [],
      "stateMutability": "nonpayable",
      "type": "function"
    },
    {
      "inputs": [],
      "name": "resetNeeded",
      "outputs": [
        {
          "internalType": "bool",
          "name": "",
          "type": "bool"
        }
      ],
      "stateMutability": "view",
      "type": "function"
    },
    {
      "inputs": [
        {
          "internalType": "uint256",
          "name": "",
          "type": "uint256"
        }
      ],
      "name": "roots",
      "outputs": [
        {
          "internalType": "bytes32",
          "name": "",
          "type": "bytes32"
        }
      ],
      "stateMutability": "view",
      "type": "function"
    },
    {
      "inputs": [
        {
          "internalType": "address",
          "name": "to",
          "type": "address"
        }
      ],
      "name": "transferOwnership",
      "outputs": [],
      "stateMutability": "nonpayable",
      "type": "function"
    },
    {
      "inputs": [],
      "name": "updateLatestResponse",
      "outputs": [],
      "stateMutability": "nonpayable",
      "type": "function"
    },
    {
      "inputs": [],
      "name": "verifier",
      "outputs": [
        {
          "internalType": "contract IVerifier",
          "name": "",
          "type": "address"
        }
      ],
      "stateMutability": "view",
      "type": "function"
    },
    {
      "inputs": [
        {
          "internalType": "uint256",
          "name": "",
          "type": "uint256"
        }
      ],
      "name": "zeros",
      "outputs": [
        {
          "internalType": "bytes32",
          "name": "",
          "type": "bytes32"
        }
      ],
      "stateMutability": "view",
      "type": "function"
    }
  ],
  "bytecode": "0x60c0604052600780546001600160401b03191690553480156200002157600080fd5b5060405162003d5d38038062003d5d833981016040819052620000449162000513565b600080546001600160a01b0319166001600160a01b03871617815583908390339081906001600160a01b038216620000c35760405162461bcd60e51b815260206004820152601860248201527f43616e6e6f7420736574206f776e657220746f207a65726f000000000000000060448201526064015b60405180910390fd5b600280546001600160a01b0319166001600160a01b0384811691909117909155811615620000f657620000f681620002c0565b505050602063ffffffff831611156200016257604051632d5d403760e01b815260206004820152602660248201527f54726565206c6576656c732073686f756c64206265206265747765656e20302060448201526530b73210199960d11b6064820152608401620000ba565b606c805460ff19169055600480546001600160a01b0319166001600160a01b03831617905563ffffffff82166080526006805460018181019092557f2fe54c60d3acabf3343a35b6eba15db4821b340f76e741e2249685ed4899af6c60008051602062003d3d83398151915290910181905560058054808401825560009190915260008051602062003d1d83398151915201819055905b8363ffffffff168163ffffffff16101562000271576200021a82806200036d565b60068054600181810190925560008051602062003d3d8339815191520182905560058054918201815560005260008051602062003d1d8339815191520181905591508062000268816200059b565b915050620001f9565b506200027e81806200036d565b60086000015550506001606d5550607180546001600160a01b0319166001600160a01b03958616179055600060785590921660a052505042607955506200061b565b6001600160a01b0381163314156200031b5760405162461bcd60e51b815260206004820152601760248201527f43616e6e6f74207472616e7366657220746f2073656c660000000000000000006044820152606401620000ba565b600380546001600160a01b0319166001600160a01b03838116918217909255600254604051919216907fed8889f560326eb138920d842192f0eb3dd22b4f139c87a2c57538e05bae127890600090a350565b60007f30644e72e131a029b85045b68181585d2833e84879b9709143e1f593f00000018310620003e05760405162461bcd60e51b815260206004820181905260248201527f5f6c6566742073686f756c6420626520696e7369646520746865206669656c646044820152606401620000ba565b7f30644e72e131a029b85045b68181585d2833e84879b9709143e1f593f000000182106200045b5760405162461bcd60e51b815260206004820152602160248201527f5f72696768742073686f756c6420626520696e7369646520746865206669656c6044820152601960fa1b6064820152608401620000ba565b6040805180820182528481526020810184905260048054925163014cf2b360e51b815291926001600160a01b03169163299e5660916200049e91859101620005ce565b60206040518083038186803b158015620004b757600080fd5b505afa158015620004cc573d6000803e3d6000fd5b505050506040513d601f19601f82011682018060405250810190620004f2919062000601565b949350505050565b6001600160a01b03811681146200051057600080fd5b50565b600080600080600060a086880312156200052c57600080fd5b85516200053981620004fa565b60208701519095506200054c81620004fa565b604087015190945063ffffffff811681146200056757600080fd5b60608701519093506200057a81620004fa565b60808701519092506200058d81620004fa565b809150509295509295909350565b600063ffffffff80831681811415620005c457634e487b7160e01b600052601160045260246000fd5b6001019392505050565b60408101818360005b6002811015620005f8578151835260209283019290910190600101620005d7565b50505092915050565b6000602082840312156200061457600080fd5b5051919050565b60805160a0516136b26200066b600039600081816102e3015281816107cf015281816109b401526112e20152600081816104af01528181611a9b01528181611b880152611de201526136b26000f3fe608060405234801561001057600080fd5b50600436106102955760003560e01c80636f466aeb11610167578063d328a91e116100ce578063ec73295911610087578063ec73295914610676578063ed33639f1461069d578063f178e47c146106b0578063f2fde38b146106c3578063fc7e9c6f146106d6578063fffeb84e146106ee57600080fd5b8063d328a91e146105f8578063d4b3917514610600578063d7b6edec14610630578063dfc0cc0514610643578063e31349ce14610656578063e82955881461066357600080fd5b8063af49d2da11610120578063af49d2da14610594578063ba70f7571461059f578063bef3a2f0146105a7578063c2b40ae4146105af578063cc637afe146105c2578063cd87a3b4146105f057600080fd5b80636f466aeb1461053657806379ba50971461053e578063839df9451461054657806389ac4147146105695780638da5cb5b1461057357806390eeb02b1461058457600080fd5b80632fc62eaf1161020b5780634585e33b116101c45780634585e33b146104975780634ecf518b146104aa57806359360b55146104e657806361bc221a146104f95780636d9833e3146105025780636e04ff0d1461051557600080fd5b80632fc62eaf146103ec57806332b2820c1461041757806338bf282e146104375780633a20b4e91461044a5780633eee99ad1461045d578063414a37ba1461047057600080fd5b8063163c93351161025d578063163c9335146103545780631aa46f591461036757806322dc7b4c1461037057806327714589146103a35780632997e86b146103b65780632b7ac3f3146103d957600080fd5b8063089ea02e1461029a5780630ca76175146102b657806311456b47146102cb578063129116ef146102de578063150b7a021461031d575b600080fd5b6102a360795481565b6040519081526020015b60405180910390f35b6102c96102c4366004612810565b6106f6565b005b6102c96102d936600461287c565b610783565b6103057f000000000000000000000000000000000000000000000000000000000000000081565b6040516001600160a01b0390911681526020016102ad565b61033b61032b3660046128c5565b630a85bd0160e11b949350505050565b6040516001600160e01b031990911681526020016102ad565b6102c961036236600461287c565b6107b8565b6102a3606e5481565b61039361037e366004612930565b60009081526072602052604090205460ff1690565b60405190151581526020016102ad565b6102a36103b13660046129ba565b61083b565b6103936103c4366004612930565b60726020526000908152604090205460ff1681565b607154610305906001600160a01b031681565b6102a36103fa36600461287c565b805160208183018101805160778252928201919093012091525481565b61042a610425366004612aa4565b610949565b6040516102ad9190612b3d565b6102a3610445366004612b50565b610a9a565b61042a61045836600461287c565b610c20565b6102c961046b366004612b72565b610cc5565b6102a37f30644e72e131a029b85045b68181585d2833e84879b9709143e1f593f000000181565b6102c96104a5366004612aa4565b610e15565b6104d17f000000000000000000000000000000000000000000000000000000000000000081565b60405163ffffffff90911681526020016102ad565b6102c96104f4366004612c0d565b610ebb565b6102a360785481565b610393610510366004612930565b6110d4565b610528610523366004612aa4565b611152565b6040516102ad929190612d21565b6102c961119b565b6102c96113ee565b610393610554366004612930565b60736020526000908152604090205460ff1681565b6102a362093a8081565b6002546001600160a01b0316610305565b6007546104d19063ffffffff1681565b606c5460ff16610393565b6102a361149c565b61042a6114c2565b6102a36105bd366004612930565b6114cf565b6103936105d036600461287c565b805160208183018101805160748252928201919093012091525460ff1681565b6104d1606481565b61042a6114e6565b61061361060e366004612dfe565b61156b565b6040516bffffffffffffffffffffffff90911681526020016102ad565b61042a61063e36600461287c565b611601565b61042a610651366004612aa4565b611625565b606c546103939060ff1681565b6102a3610671366004612930565b6116d8565b6102a37f2fe54c60d3acabf3343a35b6eba15db4821b340f76e741e2249685ed4899af6c81565b600454610305906001600160a01b031681565b6102a36106be366004612930565b6116f9565b6102c96106d1366004612f0f565b611709565b6007546104d190640100000000900463ffffffff1681565b61042a61171d565b60008381526001602052604090205483906001600160a01b0316331461072f5760405163a0c5ec6360e01b815260040160405180910390fd5b60008181526001602052604080822080546001600160a01b03191690555182917f85e1543bf2f84fe80c6badbce3648c8539ad1df4d2b3d822938ca0538be727e691a261077d84848461172a565b50505050565b60016074826040516107959190612f2c565b908152604051908190036020019020805491151560ff1990921691909117905550565b60405163d0def52160e01b81526001600160a01b037f0000000000000000000000000000000000000000000000000000000000000000169063d0def521906108069030908590600401612f48565b600060405180830381600087803b15801561082057600080fd5b505af1158015610834573d6000803e3d6000fd5b5050505050565b6000610845611791565b61087f6040805160c08101909152806000815260200160008152602001600081526020016060815260200160608152602001606081525090565b6108c66000808c8c8080601f016020809104026020016040519081016040528093929190818152602001838380828437600092019190915250879594939250506117e49050565b861561090e5761090e88888080601f016020809104026020016040519081016040528093929190818152602001838380828437600092019190915250859392505061185f9050565b8415610928576109286109218688612f6c565b829061188d565b60006109358286866118b4565b606e8190559b9a5050505050505050505050565b606082828080601f016020809104026020016040519081016040528093929190818152602001838380828437600092019190915250506040516074925061099291508390612f2c565b9081526040519081900360200190205460ff166109b2576109b281610783565b7f00000000000000000000000000000000000000000000000000000000000000006001600160a01b031663c87b56dd6077607687876040516109f5929190612f79565b908152604051908190036020018120610a0d91612fbe565b908152604051908190036020018120546001600160e01b031960e084901b168252610a3e9160040190815260200190565b60006040518083038186803b158015610a5657600080fd5b505afa158015610a6a573d6000803e3d6000fd5b505050506040513d6000823e601f3d908101601f19168201604052610a9291908101906130aa565b949350505050565b60007f30644e72e131a029b85045b68181585d2833e84879b9709143e1f593f00000018310610b105760405162461bcd60e51b815260206004820181905260248201527f5f6c6566742073686f756c6420626520696e7369646520746865206669656c6460448201526064015b60405180910390fd5b7f30644e72e131a029b85045b68181585d2833e84879b9709143e1f593f00000018210610b895760405162461bcd60e51b815260206004820152602160248201527f5f72696768742073686f756c6420626520696e7369646520746865206669656c6044820152601960fa1b6064820152608401610b07565b6040805180820182528481526020810184905260048054925163014cf2b360e51b815291926001600160a01b03169163299e566091610bca918591016130de565b60206040518083038186803b158015610be257600080fd5b505afa158015610bf6573d6000803e3d6000fd5b505050506040513d601f19601f82011682018060405250810190610a92919061310f565b92915050565b805160208183018101805160758252928201919093012091528054610c4490612f89565b80601f0160208091040260200160405190810160405280929190818152602001828054610c7090612f89565b8015610cbd5780601f10610c9257610100808354040283529160200191610cbd565b820191906000526020600020905b815481529060010190602001808311610ca057829003601f168201915b505050505081565b610ccd611a28565b81818080601f0160208091040260200160405190810160405280939291908181526020018383808284376000920191909152505060405160749250610d1491508390612f2c565b9081526040519081900360200190205460ff16610d3457610d3481610783565b60008481526073602052604090205460ff1615610d945760405163323377d160e01b815260206004820152601760248201527f436f6d6d69746d656e7420616c726561647920757365640000000000000000006044820152606401610b07565b6000610d9f85611a82565b60008681526073602052604090819020805460ff19166001179055519091507fb78452bc487dc90d6a0a567cf87858dae69e144c5f299a43ed6964629c219e2a90610dfc908790849091825263ffffffff16602082015260400190565b60405180910390a15050610e106001606d55565b505050565b606c5460ff16158015610e37575062093a8060795442610e35919061313e565b105b15610e785760405163549a164f60e11b815260206004820152601060248201526f14995cd95d081b9bdd081b995959195960821b6044820152606401610b07565b42607955610e84611cf1565b6040514281527f638d0998b62dddc203db633372b87ac8b5cb5404842cc56fbbec87a4280085159060200160405180910390a15050565b610ec3611a28565b84607481604051610ed49190612f2c565b9081526040519081900360200190205460ff16610ef457610ef481610783565b60008481526072602052604090205460ff1615610f4d57604051633c564aa760e01b8152602060048201526016602482015275139d5b1b1a599a595c88185b1c9958591e481d5cd95960521b6044820152606401610b07565b610f56836110d4565b610f9457604051632d3b008160e21b815260206004820152600e60248201526d2937b7ba103737ba1035b737bbb760911b6044820152606401610b07565b6040805180820182528481526020808201879052607154855191860151868501519451637ae4eb4f60e11b815293946001600160a01b039092169363f5c9d69e93610fe6939092918790600401613178565b602060405180830381600087803b15801561100057600080fd5b505af1158015611014573d6000803e3d6000fd5b505050506040513d601f19601f8201168201806040525081019061103891906131d6565b6110755760405163179f55d760e01b815260206004820152600d60248201526c24b73b30b634b210383937b7b360991b6044820152606401610b07565b60008581526072602052604090819020805460ff19166001179055517f8e2c684c78bee254585736b8c67696a4c4ca8b7bd1f2b3b51f283e649937c72a906110c090889088906131f8565b60405180910390a150506108346001606d55565b6000816110e357506000919050565b60075463ffffffff165b60088163ffffffff16606481106111065761110661321a565b01548314156111185750600192915050565b63ffffffff8116611127575060645b8061113181613230565b60075490925063ffffffff8084169116141590506110ed5750600092915050565b60795460009060609062093a809061116a904261313e565b1015806111795750606c5460ff165b1561118357600191505b506040805160208101909152600081525b9250929050565b607080546111a890612f89565b15905080156111c557506000606f80546111c190612f89565b9050115b156113ec576000806000606f80546111dc90612f89565b80601f016020809104026020016040519081016040528092919081815260200182805461120890612f89565b80156112555780601f1061122a57610100808354040283529160200191611255565b820191906000526020600020905b81548152906001019060200180831161123857829003601f168201915b505050505080602001905181019061126d9190613250565b925092509250826075826040516112849190612f2c565b908152602001604051809103902090805190602001906112a59291906125f0565b50816076826040516112b79190612f2c565b908152602001604051809103902090805190602001906112d89291906125f0565b50600060785490507f00000000000000000000000000000000000000000000000000000000000000006001600160a01b031663dbfd4b986040518163ffffffff1660e01b815260040160206040518083038186803b15801561133957600080fd5b505afa15801561134d573d6000803e3d6000fd5b505050506040513d601f19601f82011682018060405250810190611371919061310f565b8110156113ac57806077846040516113899190612f2c565b90815260405190819003602001902055806113a3816132cd565b60788190559150505b7f4dc56e29fb21166648be9231b6dc7b1f6aff7ba20d68e5f42a285457d9fd86408484846040516113df939291906132e8565b60405180910390a1505050505b565b6003546001600160a01b031633146114415760405162461bcd60e51b815260206004820152601660248201527526bab9ba10313290383937b837b9b2b21037bbb732b960511b6044820152606401610b07565b600280546001600160a01b0319808216339081179093556003805490911690556040516001600160a01b03909116919082907f8be0079c531659141344cd1fd0a4f28419497f9722a3daafe3b4186f6b6457e090600090a350565b60075460009060089063ffffffff16606481106114bb576114bb61321a565b0154905090565b606f8054610c4490612f89565b600881606481106114df57600080fd5b0154905081565b6000805460408051636994548f60e11b815290516060936001600160a01b039093169263d328a91e9260048082019391829003018186803b15801561152a57600080fd5b505afa15801561153e573d6000803e3d6000fd5b505050506040513d6000823e601f3d908101601f191682016040526115669190810190613321565b905090565b600080546001600160a01b031663d227d2458561158788611eaf565b86866040518563ffffffff1660e01b81526004016115a89493929190613369565b60206040518083038186803b1580156115c057600080fd5b505afa1580156115d4573d6000803e3d6000fd5b505050506040513d601f19601f820116820180604052508101906115f891906133a4565b95945050505050565b805160208183018101805160768252928201919093012091528054610c4490612f89565b606060758383604051611639929190612f79565b9081526020016040518091039020805461165290612f89565b80601f016020809104026020016040519081016040528092919081815260200182805461167e90612f89565b80156116cb5780601f106116a0576101008083540402835291602001916116cb565b820191906000526020600020905b8154815290600101906020018083116116ae57829003601f168201915b5050505050905092915050565b600681815481106116e857600080fd5b600091825260209091200154905081565b600581815481106116e857600080fd5b611711611791565b61171a816120cb565b50565b60708054610c4490612f89565b815161173d90606f9060208501906125f0565b5080516117519060709060208401906125f0565b50827f7bab0ec163b5c132c72b8146ac4d6e067e82ed58f8b131150aa71c925891156283836040516117849291906133d2565b60405180910390a2505050565b6002546001600160a01b031633146113ec5760405162461bcd60e51b815260206004820152601660248201527527b7363c9031b0b63630b1363290313c9037bbb732b960511b6044820152606401610b07565b8051611803576040516322ce3edd60e01b815260040160405180910390fd5b83836001811115611816576118166133f7565b90816001811115611829576118296133f7565b9052506040840182801561183f5761183f6133f7565b9081801561184f5761184f6133f7565b9052506060909301929092525050565b805161187e5760405163e889636f60e01b815260040160405180910390fd5b60016020830152608090910152565b80516118ac5760405163fe936cb760e01b815260040160405180910390fd5b60a090910152565b6000805481906001600160a01b03166328242b04856118d288611eaf565b866040518463ffffffff1660e01b81526004016118f19392919061340d565b602060405180830381600087803b15801561190b57600080fd5b505af115801561191f573d6000803e3d6000fd5b505050506040513d601f19601f82011682018060405250810190611943919061310f565b905060008054906101000a90046001600160a01b03166001600160a01b0316635ab1bd536040518163ffffffff1660e01b815260040160206040518083038186803b15801561199157600080fd5b505afa1580156119a5573d6000803e3d6000fd5b505050506040513d601f19601f820116820180604052508101906119c99190613445565b60008281526001602052604080822080546001600160a01b0319166001600160a01b039490941693909317909255905182917f1131472297a800fee664d1d89cfa8f7676ff07189ecc53f80bbb5f4969099db891a290505b9392505050565b6002606d541415611a7b5760405162461bcd60e51b815260206004820152601f60248201527f5265656e7472616e637947756172643a207265656e7472616e742063616c6c006044820152606401610b07565b6002606d55565b600754600090640100000000900463ffffffff16611ac17f00000000000000000000000000000000000000000000000000000000000000006002613546565b8163ffffffff1610611b3b57606c805460ff1916600117905560405163d7e8473f60e01b815260206004820152602f60248201527f4d65726b6c6520747265652069732066756c6c2e204e6f206d6f7265206c656160448201526e199cc818d85b881899481859191959608a1b6064820152608401610b07565b6001600760048282829054906101000a900463ffffffff16611b5d9190613558565b92506101000a81548163ffffffff021916908363ffffffff160217905550600083905060008060005b7f000000000000000000000000000000000000000000000000000000000000000063ffffffff168163ffffffff161015611c7857611bc5600286613596565b63ffffffff16611c235783925060068163ffffffff1681548110611beb57611beb61321a565b906000526020600020015491508360058263ffffffff1681548110611c1257611c1261321a565b600091825260209091200155611c4d565b60058163ffffffff1681548110611c3c57611c3c61321a565b906000526020600020015492508391505b611c578383610a9a565b9350611c646002866135b9565b945080611c70816135dc565b915050611b86565b50600754606490611c909063ffffffff166001613558565b611c9a9190613596565b6007805463ffffffff191663ffffffff929092169182179055839060089060648110611cc857611cc861321a565b0155600754611ce790600190640100000000900463ffffffff16613600565b9695505050505050565b611cfd60056000612674565b611d0960066000612674565b6040805160008152602081019182905251611d2691600591612692565b506040805160008152602081019182905251611d4491600691612692565b506007805467ffffffffffffffff191690556006805460018181019092557f2fe54c60d3acabf3343a35b6eba15db4821b340f76e741e2249685ed4899af6c7ff652222313e28459528d920b65115c16c04f3efc82aaedc97be59f3f377c0d3f9091018190556005805480840182556000919091527f036b6384b5eca791c62761152d0c79bb0604c104a5fb6f4eb0703f3154bb3db001819055905b7f000000000000000000000000000000000000000000000000000000000000000063ffffffff168163ffffffff161015611e9457611e1e8283610a9a565b6006805460018181019092557ff652222313e28459528d920b65115c16c04f3efc82aaedc97be59f3f377c0d3f018290556005805491820181556000527f036b6384b5eca791c62761152d0c79bb0604c104a5fb6f4eb0703f3154bb3db001819055915080611e8c816135dc565b915050611de0565b50611e9f8182610a9a565b60085550606c805460ff19169055565b6060611ece604051806040016040528060608152602001600081525090565b611eda81610100612176565b5060408051808201909152600c81526b31b7b232a637b1b0ba34b7b760a11b6020820152611f099082906121db565b8251611f27906001811115611f2057611f206133f7565b82906121f2565b6040805180820190915260088152676c616e677561676560c01b6020820152611f519082906121db565b6040830151611f68908015611f2057611f206133f7565b604080518082019091526006815265736f7572636560d01b6020820152611f909082906121db565b6060830151611fa09082906121db565b60a08301515115612036576040805180820190915260048152636172677360e01b6020820152611fd19082906121db565b611fda8161221b565b60005b8360a001515181101561202c5761201a8460a0015182815181106120035761200361321a565b6020026020010151836121db90919063ffffffff16565b80612024816132cd565b915050611fdd565b5061203681612226565b608083015151156120c45760408051808201909152600f81526e39b2b1b932ba39a637b1b0ba34b7b760891b60208201526120729082906121db565b61208b83602001516001811115611f2057611f206133f7565b6040805180820190915260078152667365637265747360c81b60208201526120b49082906121db565b60808301516120c4908290612231565b5192915050565b6001600160a01b0381163314156121245760405162461bcd60e51b815260206004820152601760248201527f43616e6e6f74207472616e7366657220746f2073656c660000000000000000006044820152606401610b07565b600380546001600160a01b0319166001600160a01b03838116918217909255600254604051919216907fed8889f560326eb138920d842192f0eb3dd22b4f139c87a2c57538e05bae127890600090a350565b604080518082019091526060815260006020820152612196602083613625565b156121be576121a6602083613625565b6121b190602061313e565b6121bb9083613639565b91505b506020828101829052604080518085526000815290920101905290565b6121e8826003835161223a565b610e108282612341565b6001600160401b0381111561220f5761220b8282612368565b5050565b61220b8260008361223a565b61171a81600461239f565b61171a81600761239f565b6121e882600283515b6017816001600160401b03161161225e5761077d8360e0600585901b1683176123b0565b60ff816001600160401b03161161229a57612284836018611fe0600586901b16176123b0565b5061077d836001600160401b03831660016123d5565b61ffff816001600160401b0316116122d7576122c1836019611fe0600586901b16176123b0565b5061077d836001600160401b03831660026123d5565b63ffffffff816001600160401b0316116123165761230083601a611fe0600586901b16176123b0565b5061077d836001600160401b03831660046123d5565b61232b83601b611fe0600586901b16176123b0565b5061077d836001600160401b03831660086123d5565b604080518082019091526060815260006020820152611a21838460000151518485516123fb565b6123738260c26123b0565b5061220b828260405160200161238b91815260200190565b604051602081830303815290604052612231565b610e1082601f611fe0600585901b16175b604080518082019091526060815260006020820152611a2183846000015151846124e5565b604080518082019091526060815260006020820152610a92848560000151518585612541565b604080518082019091526060815260006020820152825182111561241e57600080fd5b602085015161242d8386613639565b111561246057612460856124508760200151878661244b9190613639565b6125c2565b61245b906002613651565b6125d9565b60008086518051876020830101935080888701111561247f5787860182525b505050602084015b602084106124bf578051825261249e602083613639565b91506124ab602082613639565b90506124b860208561313e565b9350612487565b51815160001960208690036101000a019081169019919091161790525083949350505050565b6040805180820190915260608152600060208201528360200151831061251a5761251a848560200151600261245b9190613651565b835180516020858301018481535080851415612537576001810182525b5093949350505050565b60408051808201909152606081526000602082015260208501516125658584613639565b111561257957612579856124508685613639565b6000600161258984610100613670565b612593919061313e565b90508551838682010185831982511617815250805184870111156125b75783860181525b509495945050505050565b6000818311156125d3575081610c1a565b50919050565b81516125e58383612176565b5061077d8382612341565b8280546125fc90612f89565b90600052602060002090601f01602090048101928261261e5760008555612664565b82601f1061263757805160ff1916838001178555612664565b82800160010185558215612664579182015b82811115612664578251825591602001919060010190612649565b506126709291506126cc565b5090565b508054600082559060005260206000209081019061171a91906126cc565b8280548282559060005260206000209081019282156126645791602002820182811115612664578251825591602001919060010190612649565b5b8082111561267057600081556001016126cd565b634e487b7160e01b600052604160045260246000fd5b604051606081016001600160401b0381118282101715612719576127196126e1565b60405290565b60405160c081016001600160401b0381118282101715612719576127196126e1565b604080519081016001600160401b0381118282101715612719576127196126e1565b604051601f8201601f191681016001600160401b038111828210171561278b5761278b6126e1565b604052919050565b60006001600160401b038211156127ac576127ac6126e1565b50601f01601f191660200190565b600082601f8301126127cb57600080fd5b81356127de6127d982612793565b612763565b8181528460208386010111156127f357600080fd5b816020850160208301376000918101602001919091529392505050565b60008060006060848603121561282557600080fd5b8335925060208401356001600160401b038082111561284357600080fd5b61284f878388016127ba565b9350604086013591508082111561286557600080fd5b50612872868287016127ba565b9150509250925092565b60006020828403121561288e57600080fd5b81356001600160401b038111156128a457600080fd5b610a92848285016127ba565b6001600160a01b038116811461171a57600080fd5b600080600080608085870312156128db57600080fd5b84356128e6816128b0565b935060208501356128f6816128b0565b92506040850135915060608501356001600160401b0381111561291857600080fd5b612924878288016127ba565b91505092959194509250565b60006020828403121561294257600080fd5b5035919050565b60008083601f84011261295b57600080fd5b5081356001600160401b0381111561297257600080fd5b60208301915083602082850101111561119457600080fd5b80356001600160401b03811681146129a157600080fd5b919050565b803563ffffffff811681146129a157600080fd5b60008060008060008060008060a0898b0312156129d657600080fd5b88356001600160401b03808211156129ed57600080fd5b6129f98c838d01612949565b909a50985060208b0135915080821115612a1257600080fd5b612a1e8c838d01612949565b909850965060408b0135915080821115612a3757600080fd5b818b0191508b601f830112612a4b57600080fd5b813581811115612a5a57600080fd5b8c60208260051b8501011115612a6f57600080fd5b602083019650809550505050612a8760608a0161298a565b9150612a9560808a016129a6565b90509295985092959890939650565b60008060208385031215612ab757600080fd5b82356001600160401b03811115612acd57600080fd5b612ad985828601612949565b90969095509350505050565b60005b83811015612b00578181015183820152602001612ae8565b8381111561077d5750506000910152565b60008151808452612b29816020860160208601612ae5565b601f01601f19169290920160200192915050565b602081526000611a216020830184612b11565b60008060408385031215612b6357600080fd5b50508035926020909101359150565b600080600060408486031215612b8757600080fd5b8335925060208401356001600160401b03811115612ba457600080fd5b612bb086828701612949565b9497909650939450505050565b600082601f830112612bce57600080fd5b612bd6612741565b806040840185811115612be857600080fd5b845b81811015612c02578035845260209384019301612bea565b509095945050505050565b6000806000806000858703610180811215612c2757600080fd5b86356001600160401b0380821115612c3e57600080fd5b612c4a8a838b016127ba565b9750602091508189013581811115612c6157600080fd5b612c6d8b828c016127ba565b97505050604088810135955060608901359450610100607f1984011215612c9357600080fd5b612c9b6126f7565b9250612caa8a60808b01612bbd565b83528960df8a0112612cbb57600080fd5b612cc3612741565b806101408b018c811115612cd657600080fd5b60c08c015b81811015612cfa57612ced8e82612bbd565b8452928501928401612cdb565b508185870152612d0a8d82612bbd565b848701525050505050809150509295509295909350565b8215158152604060208201526000610a926040830184612b11565b8035600281106129a157600080fd5b8035600181106129a157600080fd5b60006001600160401b0380841115612d7457612d746126e1565b8360051b6020612d85818301612763565b86815293509084019080840187831115612d9e57600080fd5b855b83811015612dd257803585811115612db85760008081fd5b612dc48a828a016127ba565b835250908201908201612da0565b50505050509392505050565b600082601f830112612def57600080fd5b611a2183833560208501612d5a565b60008060008060808587031215612e1457600080fd5b84356001600160401b0380821115612e2b57600080fd5b9086019060c08289031215612e3f57600080fd5b612e4761271f565b612e5083612d3c565b8152612e5e60208401612d3c565b6020820152612e6f60408401612d4b565b6040820152606083013582811115612e8657600080fd5b612e928a8286016127ba565b606083015250608083013582811115612eaa57600080fd5b612eb68a8286016127ba565b60808301525060a083013582811115612ece57600080fd5b612eda8a828601612dde565b60a0830152509550612ef19150506020860161298a565b9250612eff604086016129a6565b9396929550929360600135925050565b600060208284031215612f2157600080fd5b8135611a21816128b0565b60008251612f3e818460208701612ae5565b9190910192915050565b6001600160a01b0383168152604060208201819052600090610a9290830184612b11565b6000611a21368484612d5a565b8183823760009101908152919050565b600181811c90821680612f9d57607f821691505b602082108114156125d357634e487b7160e01b600052602260045260246000fd5b600080835481600182811c915080831680612fda57607f831692505b6020808410821415612ffa57634e487b7160e01b86526022600452602486fd5b81801561300e576001811461301f5761304c565b60ff1986168952848901965061304c565b60008a81526020902060005b868110156130445781548b82015290850190830161302b565b505084890196505b509498975050505050505050565b60006130686127d984612793565b905082815283838301111561307c57600080fd5b611a21836020830184612ae5565b600082601f83011261309b57600080fd5b611a218383516020850161305a565b6000602082840312156130bc57600080fd5b81516001600160401b038111156130d257600080fd5b610a928482850161308a565b60408101818360005b60028110156131065781518352602092830192909101906001016130e7565b50505092915050565b60006020828403121561312157600080fd5b5051919050565b634e487b7160e01b600052601160045260246000fd5b60008282101561315057613150613128565b500390565b8060005b600281101561077d578151845260209384019390910190600101613159565b61014081016131878287613155565b60408083018660005b60028110156131b7576131a4838351613155565b9183019160209190910190600101613190565b505050506131c860c0830185613155565b6115f8610100830184613155565b6000602082840312156131e857600080fd5b81518015158114611a2157600080fd5b60408152600061320b6040830185612b11565b90508260208301529392505050565b634e487b7160e01b600052603260045260246000fd5b600063ffffffff82168061324657613246613128565b6000190192915050565b60008060006060848603121561326557600080fd5b83516001600160401b038082111561327c57600080fd5b6132888783880161308a565b9450602086015191508082111561329e57600080fd5b6132aa8783880161308a565b935060408601519150808211156132c057600080fd5b506128728682870161308a565b60006000198214156132e1576132e1613128565b5060010190565b6060815260006132fb6060830186612b11565b828103602084015261330d8186612b11565b90508281036040840152611ce78185612b11565b60006020828403121561333357600080fd5b81516001600160401b0381111561334957600080fd5b8201601f8101841361335a57600080fd5b610a928482516020840161305a565b6001600160401b038516815260806020820152600061338b6080830186612b11565b63ffffffff949094166040830152506060015292915050565b6000602082840312156133b657600080fd5b81516bffffffffffffffffffffffff81168114611a2157600080fd5b6040815260006133e56040830185612b11565b82810360208401526115f88185612b11565b634e487b7160e01b600052602160045260246000fd5b6001600160401b038416815260606020820152600061342f6060830185612b11565b905063ffffffff83166040830152949350505050565b60006020828403121561345757600080fd5b8151611a21816128b0565b600181815b8085111561349d57816000190482111561348357613483613128565b8085161561349057918102915b93841c9390800290613467565b509250929050565b6000826134b457506001610c1a565b816134c157506000610c1a565b81600181146134d757600281146134e1576134fd565b6001915050610c1a565b60ff8411156134f2576134f2613128565b50506001821b610c1a565b5060208310610133831016604e8410600b8410161715613520575081810a610c1a565b61352a8383613462565b806000190482111561353e5761353e613128565b029392505050565b6000611a2163ffffffff8416836134a5565b600063ffffffff80831681851680830382111561357757613577613128565b01949350505050565b634e487b7160e01b600052601260045260246000fd5b600063ffffffff808416806135ad576135ad613580565b92169190910692915050565b600063ffffffff808416806135d0576135d0613580565b92169190910492915050565b600063ffffffff808316818114156135f6576135f6613128565b6001019392505050565b600063ffffffff8381169083168181101561361d5761361d613128565b039392505050565b60008261363457613634613580565b500690565b6000821982111561364c5761364c613128565b500190565b600081600019048311821515161561366b5761366b613128565b500290565b6000611a2183836134a556fea26469706673582212209ec9373e986644f0d79adec5d632916a458def3c85a1210a9eed58e3a64e688964736f6c63430008090033036b6384b5eca791c62761152d0c79bb0604c104a5fb6f4eb0703f3154bb3db0f652222313e28459528d920b65115c16c04f3efc82aaedc97be59f3f377c0d3f",
  "linkReferences": {},
  "deployedLinkReferences": {}
}