{
  "_format": "hh-sol-artifact-1",
  "contractName": "Sentiment",
  "sourceName": "contracts/Sentiment.sol",
  "abi": [
    {
      "inputs": [
        {
          "internalType": "address",
          "name": "oracle",
          "type": "address"
        },
        {
          "internalType": "contract IVerifier",
          "name": "_verifier",
          "type": "address"
        },
        {
          "internalType": "uint32",
          "name": "_merkleTreeHeight",
          "type": "uint32"
        },
        {
          "internalType": "address",
          "name": "_hasher",
          "type": "address"
        },
        {
          "internalType": "uint64",
          "name": "_subscriptionId",
          "type": "uint64"
        },
        {
          "internalType": "uint32",
          "name": "_fulfillGasLimit",
          "type": "uint32"
        },
        {
          "internalType": "address",
          "name": "_emojiAddress",
          "type": "address"
        }
      ],
      "stateMutability": "nonpayable",
      "type": "constructor"
    },
    {
      "inputs": [],
      "name": "EmptyArgs",
      "type": "error"
    },
    {
      "inputs": [],
      "name": "EmptySecrets",
      "type": "error"
    },
    {
      "inputs": [],
      "name": "EmptySource",
      "type": "error"
    },
    {
      "inputs": [
        {
          "internalType": "string",
          "name": "message",
          "type": "string"
        }
      ],
      "name": "MerkleTree__IsFull",
      "type": "error"
    },
    {
      "inputs": [
        {
          "internalType": "string",
          "name": "message",
          "type": "string"
        }
      ],
      "name": "MerkleTree__TreeLevelsOutOfRange",
      "type": "error"
    },
    {
      "inputs": [],
      "name": "RequestIsAlreadyPending",
      "type": "error"
    },
    {
      "inputs": [],
      "name": "RequestIsNotPending",
      "type": "error"
    },
    {
      "inputs": [],
      "name": "SenderIsNotRegistry",
      "type": "error"
    },
    {
      "inputs": [
        {
          "internalType": "string",
          "name": "message",
          "type": "string"
        }
      ],
      "name": "Sentiment__CommitmentAlreadyUsed",
      "type": "error"
    },
    {
      "inputs": [
        {
          "internalType": "string",
          "name": "message",
          "type": "string"
        }
      ],
      "name": "Sentiment__InvalidProof",
      "type": "error"
    },
    {
      "inputs": [
        {
          "internalType": "string",
          "name": "message",
          "type": "string"
        }
      ],
      "name": "Sentiment__NullifierAlreadyUsed",
      "type": "error"
    },
    {
      "inputs": [
        {
          "internalType": "string",
          "name": "message",
          "type": "string"
        }
      ],
      "name": "Sentiment__ResetNotNeeded",
      "type": "error"
    },
    {
      "inputs": [
        {
          "internalType": "string",
          "name": "message",
          "type": "string"
        }
      ],
      "name": "Sentiment__RootNotKnown",
      "type": "error"
    },
    {
      "anonymous": false,
      "inputs": [
        {
          "indexed": false,
          "internalType": "bytes32",
          "name": "commitment",
          "type": "bytes32"
        },
        {
          "indexed": false,
          "internalType": "uint32",
          "name": "insertedIndex",
          "type": "uint32"
        }
      ],
      "name": "Inserted",
      "type": "event"
    },
    {
      "anonymous": false,
      "inputs": [
        {
          "indexed": false,
          "internalType": "string",
          "name": "message",
          "type": "string"
        },
        {
          "indexed": false,
          "internalType": "bytes32",
          "name": "nullifierHash",
          "type": "bytes32"
        }
      ],
      "name": "MessagePosted",
      "type": "event"
    },
    {
      "anonymous": false,
      "inputs": [
        {
          "indexed": false,
          "internalType": "string",
          "name": "name",
          "type": "string"
        }
      ],
      "name": "NameAdded",
      "type": "event"
    },
    {
      "anonymous": false,
      "inputs": [
        {
          "indexed": true,
          "internalType": "bytes32",
          "name": "requestId",
          "type": "bytes32"
        },
        {
          "indexed": false,
          "internalType": "bytes",
          "name": "result",
          "type": "bytes"
        },
        {
          "indexed": false,
          "internalType": "bytes",
          "name": "err",
          "type": "bytes"
        }
      ],
      "name": "OCRResponse",
      "type": "event"
    },
    {
      "anonymous": false,
      "inputs": [
        {
          "indexed": true,
          "internalType": "address",
          "name": "from",
          "type": "address"
        },
        {
          "indexed": true,
          "internalType": "address",
          "name": "to",
          "type": "address"
        }
      ],
      "name": "OwnershipTransferRequested",
      "type": "event"
    },
    {
      "anonymous": false,
      "inputs": [
        {
          "indexed": true,
          "internalType": "address",
          "name": "from",
          "type": "address"
        },
        {
          "indexed": true,
          "internalType": "address",
          "name": "to",
          "type": "address"
        }
      ],
      "name": "OwnershipTransferred",
      "type": "event"
    },
    {
      "anonymous": false,
      "inputs": [
        {
          "indexed": true,
          "internalType": "bytes32",
          "name": "id",
          "type": "bytes32"
        }
      ],
      "name": "RequestFulfilled",
      "type": "event"
    },
    {
      "anonymous": false,
      "inputs": [
        {
          "indexed": true,
          "internalType": "bytes32",
          "name": "id",
          "type": "bytes32"
        }
      ],
      "name": "RequestSent",
      "type": "event"
    },
    {
      "anonymous": false,
      "inputs": [
        {
          "indexed": false,
          "internalType": "uint256",
          "name": "time",
          "type": "uint256"
        }
      ],
      "name": "TreeCleared",
      "type": "event"
    },
    {
      "inputs": [],
      "name": "FIELD_SIZE",
      "outputs": [
        {
          "internalType": "uint256",
          "name": "",
          "type": "uint256"
        }
      ],
      "stateMutability": "view",
      "type": "function"
    },
    {
      "inputs": [],
      "name": "ROOT_HISTORY_SIZE",
      "outputs": [
        {
          "internalType": "uint32",
          "name": "",
          "type": "uint32"
        }
      ],
      "stateMutability": "view",
      "type": "function"
    },
    {
      "inputs": [],
      "name": "UPDATE_INTERVAL",
      "outputs": [
        {
          "internalType": "uint256",
          "name": "",
          "type": "uint256"
        }
      ],
      "stateMutability": "view",
      "type": "function"
    },
    {
      "inputs": [],
      "name": "ZERO_VALUE",
      "outputs": [
        {
          "internalType": "uint256",
          "name": "",
          "type": "uint256"
        }
      ],
      "stateMutability": "view",
      "type": "function"
    },
    {
      "inputs": [],
      "name": "acceptOwnership",
      "outputs": [],
      "stateMutability": "nonpayable",
      "type": "function"
    },
    {
      "inputs": [
        {
          "internalType": "string",
          "name": "uri",
          "type": "string"
        }
      ],
      "name": "addEmoji",
      "outputs": [],
      "stateMutability": "nonpayable",
      "type": "function"
    },
    {
      "inputs": [
        {
          "internalType": "string",
          "name": "_name",
          "type": "string"
        }
      ],
      "name": "addName",
      "outputs": [],
      "stateMutability": "nonpayable",
      "type": "function"
    },
    {
      "inputs": [
        {
          "internalType": "bytes",
          "name": "",
          "type": "bytes"
        }
      ],
      "name": "checkUpkeep",
      "outputs": [
        {
          "internalType": "bool",
          "name": "upkeepNeeded",
          "type": "bool"
        },
        {
          "internalType": "bytes",
          "name": "performData",
          "type": "bytes"
        }
      ],
      "stateMutability": "view",
      "type": "function"
    },
    {
      "inputs": [
        {
          "internalType": "bytes32",
          "name": "",
          "type": "bytes32"
        }
      ],
      "name": "commitments",
      "outputs": [
        {
          "internalType": "bool",
          "name": "",
          "type": "bool"
        }
      ],
      "stateMutability": "view",
      "type": "function"
    },
    {
      "inputs": [],
      "name": "counter",
      "outputs": [
        {
          "internalType": "uint256",
          "name": "",
          "type": "uint256"
        }
      ],
      "stateMutability": "view",
      "type": "function"
    },
    {
      "inputs": [],
      "name": "currentRootIndex",
      "outputs": [
        {
          "internalType": "uint32",
          "name": "",
          "type": "uint32"
        }
      ],
      "stateMutability": "view",
      "type": "function"
    },
    {
      "inputs": [],
      "name": "emojiAddress",
      "outputs": [
        {
          "internalType": "address",
          "name": "",
          "type": "address"
        }
      ],
      "stateMutability": "view",
      "type": "function"
    },
    {
      "inputs": [
        {
          "internalType": "string",
          "name": "",
          "type": "string"
        }
      ],
      "name": "emojiStringToTokenId",
      "outputs": [
        {
          "internalType": "uint256",
          "name": "",
          "type": "uint256"
        }
      ],
      "stateMutability": "view",
      "type": "function"
    },
    {
      "inputs": [
        {
          "components": [
            {
              "internalType": "enum Functions.Location",
              "name": "codeLocation",
              "type": "uint8"
            },
            {
              "internalType": "enum Functions.Location",
              "name": "secretsLocation",
              "type": "uint8"
            },
            {
              "internalType": "enum Functions.CodeLanguage",
              "name": "language",
              "type": "uint8"
            },
            {
              "internalType": "string",
              "name": "source",
              "type": "string"
            },
            {
              "internalType": "bytes",
              "name": "secrets",
              "type": "bytes"
            },
            {
              "internalType": "string[]",
              "name": "args",
              "type": "string[]"
            }
          ],
          "internalType": "struct Functions.Request",
          "name": "req",
          "type": "tuple"
        },
        {
          "internalType": "uint64",
          "name": "subscriptionId",
          "type": "uint64"
        },
        {
          "internalType": "uint32",
          "name": "gasLimit",
          "type": "uint32"
        },
        {
          "internalType": "uint256",
          "name": "gasPrice",
          "type": "uint256"
        }
      ],
      "name": "estimateCost",
      "outputs": [
        {
          "internalType": "uint96",
          "name": "",
          "type": "uint96"
        }
      ],
      "stateMutability": "view",
      "type": "function"
    },
    {
      "inputs": [
        {
          "internalType": "string",
          "name": "source",
          "type": "string"
        },
        {
          "internalType": "bytes",
          "name": "secrets",
          "type": "bytes"
        },
        {
          "internalType": "string[]",
          "name": "args",
          "type": "string[]"
        },
        {
          "internalType": "uint64",
          "name": "subscriptionId",
          "type": "uint64"
        },
        {
          "internalType": "uint32",
          "name": "gasLimit",
          "type": "uint32"
        }
      ],
      "name": "executeRequest",
      "outputs": [
        {
          "internalType": "bytes32",
          "name": "",
          "type": "bytes32"
        }
      ],
      "stateMutability": "nonpayable",
      "type": "function"
    },
    {
      "inputs": [
        {
          "internalType": "uint256",
          "name": "",
          "type": "uint256"
        }
      ],
      "name": "filledSubtrees",
      "outputs": [
        {
          "internalType": "bytes32",
          "name": "",
          "type": "bytes32"
        }
      ],
      "stateMutability": "view",
      "type": "function"
    },
    {
      "inputs": [],
      "name": "getDONPublicKey",
      "outputs": [
        {
          "internalType": "bytes",
          "name": "",
          "type": "bytes"
        }
      ],
      "stateMutability": "view",
      "type": "function"
    },
    {
      "inputs": [
        {
          "internalType": "string",
          "name": "name",
          "type": "string"
        }
      ],
      "name": "getEmojiURI",
      "outputs": [
        {
          "internalType": "string",
          "name": "",
          "type": "string"
        }
      ],
      "stateMutability": "nonpayable",
      "type": "function"
    },
    {
      "inputs": [],
      "name": "getLastRoot",
      "outputs": [
        {
          "internalType": "bytes32",
          "name": "",
          "type": "bytes32"
        }
      ],
      "stateMutability": "view",
      "type": "function"
    },
    {
      "inputs": [
        {
          "internalType": "string",
          "name": "_name",
          "type": "string"
        }
      ],
      "name": "getSentimentText",
      "outputs": [
        {
          "internalType": "string",
          "name": "",
          "type": "string"
        }
      ],
      "stateMutability": "view",
      "type": "function"
    },
    {
      "inputs": [
        {
          "internalType": "bytes32",
          "name": "requestId",
          "type": "bytes32"
        },
        {
          "internalType": "bytes",
          "name": "response",
          "type": "bytes"
        },
        {
          "internalType": "bytes",
          "name": "err",
          "type": "bytes"
        }
      ],
      "name": "handleOracleFulfillment",
      "outputs": [],
      "stateMutability": "nonpayable",
      "type": "function"
    },
    {
      "inputs": [
        {
          "internalType": "bytes32",
          "name": "_left",
          "type": "bytes32"
        },
        {
          "internalType": "bytes32",
          "name": "_right",
          "type": "bytes32"
        }
      ],
      "name": "hashLeftRight",
      "outputs": [
        {
          "internalType": "bytes32",
          "name": "",
          "type": "bytes32"
        }
      ],
      "stateMutability": "view",
      "type": "function"
    },
    {
      "inputs": [],
      "name": "hasher",
      "outputs": [
        {
          "internalType": "contract IHasher",
          "name": "",
          "type": "address"
        }
      ],
      "stateMutability": "view",
      "type": "function"
    },
    {
      "inputs": [
        {
          "internalType": "bytes32",
          "name": "_commitment",
          "type": "bytes32"
        },
        {
          "internalType": "string",
          "name": "_name",
          "type": "string"
        }
      ],
      "name": "insertIntoTree",
      "outputs": [],
      "stateMutability": "nonpayable",
      "type": "function"
    },
    {
      "inputs": [
        {
          "internalType": "bytes32",
          "name": "_root",
          "type": "bytes32"
        }
      ],
      "name": "isKnownRoot",
      "outputs": [
        {
          "internalType": "bool",
          "name": "",
          "type": "bool"
        }
      ],
      "stateMutability": "view",
      "type": "function"
    },
    {
      "inputs": [
        {
          "internalType": "bytes32",
          "name": "_nullifier",
          "type": "bytes32"
        }
      ],
      "name": "isNullifierUsed",
      "outputs": [
        {
          "internalType": "bool",
          "name": "",
          "type": "bool"
        }
      ],
      "stateMutability": "view",
      "type": "function"
    },
    {
      "inputs": [],
      "name": "isResetNeeded",
      "outputs": [
        {
          "internalType": "bool",
          "name": "",
          "type": "bool"
        }
      ],
      "stateMutability": "view",
      "type": "function"
    },
    {
      "inputs": [],
      "name": "lastUpkeepTimeStamp",
      "outputs": [
        {
          "internalType": "uint256",
          "name": "",
          "type": "uint256"
        }
      ],
      "stateMutability": "view",
      "type": "function"
    },
    {
      "inputs": [],
      "name": "latestError",
      "outputs": [
        {
          "internalType": "bytes",
          "name": "",
          "type": "bytes"
        }
      ],
      "stateMutability": "view",
      "type": "function"
    },
    {
      "inputs": [],
      "name": "latestRequestId",
      "outputs": [
        {
          "internalType": "bytes32",
          "name": "",
          "type": "bytes32"
        }
      ],
      "stateMutability": "view",
      "type": "function"
    },
    {
      "inputs": [],
      "name": "latestResponse",
      "outputs": [
        {
          "internalType": "bytes",
          "name": "",
          "type": "bytes"
        }
      ],
      "stateMutability": "view",
      "type": "function"
    },
    {
      "inputs": [],
      "name": "levels",
      "outputs": [
        {
          "internalType": "uint32",
          "name": "",
          "type": "uint32"
        }
      ],
      "stateMutability": "view",
      "type": "function"
    },
    {
      "inputs": [
        {
          "internalType": "string",
          "name": "",
          "type": "string"
        }
      ],
      "name": "nameExists",
      "outputs": [
        {
          "internalType": "bool",
          "name": "",
          "type": "bool"
        }
      ],
      "stateMutability": "view",
      "type": "function"
    },
    {
      "inputs": [
        {
          "internalType": "string",
          "name": "",
          "type": "string"
        }
      ],
      "name": "nameToEmojiString",
      "outputs": [
        {
          "internalType": "string",
          "name": "",
          "type": "string"
        }
      ],
      "stateMutability": "view",
      "type": "function"
    },
    {
      "inputs": [
        {
          "internalType": "string",
          "name": "",
          "type": "string"
        }
      ],
      "name": "nameToSentimentText",
      "outputs": [
        {
          "internalType": "string",
          "name": "",
          "type": "string"
        }
      ],
      "stateMutability": "view",
      "type": "function"
    },
    {
      "inputs": [],
      "name": "nextIndex",
      "outputs": [
        {
          "internalType": "uint32",
          "name": "",
          "type": "uint32"
        }
      ],
      "stateMutability": "view",
      "type": "function"
    },
    {
      "inputs": [
        {
          "internalType": "bytes32",
          "name": "",
          "type": "bytes32"
        }
      ],
      "name": "nullifiers",
      "outputs": [
        {
          "internalType": "bool",
          "name": "",
          "type": "bool"
        }
      ],
      "stateMutability": "view",
      "type": "function"
    },
    {
      "inputs": [
        {
          "internalType": "address",
          "name": "",
          "type": "address"
        },
        {
          "internalType": "address",
          "name": "",
          "type": "address"
        },
        {
          "internalType": "uint256",
          "name": "",
          "type": "uint256"
        },
        {
          "internalType": "bytes",
          "name": "",
          "type": "bytes"
        }
      ],
      "name": "onERC721Received",
      "outputs": [
        {
          "internalType": "bytes4",
          "name": "",
          "type": "bytes4"
        }
      ],
      "stateMutability": "nonpayable",
      "type": "function"
    },
    {
      "inputs": [],
      "name": "owner",
      "outputs": [
        {
          "internalType": "address",
          "name": "",
          "type": "address"
        }
      ],
      "stateMutability": "view",
      "type": "function"
    },
    {
      "inputs": [
        {
          "internalType": "bytes",
          "name": "",
          "type": "bytes"
        }
      ],
      "name": "performUpkeep",
      "outputs": [],
      "stateMutability": "nonpayable",
      "type": "function"
    },
    {
      "inputs": [
        {
          "internalType": "string",
          "name": "name",
          "type": "string"
        },
        {
          "internalType": "string",
          "name": "_message",
          "type": "string"
        },
        {
          "internalType": "bytes32",
          "name": "_nullifierHash",
          "type": "bytes32"
        },
        {
          "internalType": "bytes32",
          "name": "_root",
          "type": "bytes32"
        },
        {
          "components": [
            {
              "internalType": "uint256[2]",
              "name": "a",
              "type": "uint256[2]"
            },
            {
              "internalType": "uint256[2][2]",
              "name": "b",
              "type": "uint256[2][2]"
            },
            {
              "internalType": "uint256[2]",
              "name": "c",
              "type": "uint256[2]"
            }
          ],
          "internalType": "struct Proof",
          "name": "_proof",
          "type": "tuple"
        }
      ],
      "name": "postMessageWithProof",
      "outputs": [],
      "stateMutability": "nonpayable",
      "type": "function"
    },
    {
      "inputs": [],
      "name": "resetNeeded",
      "outputs": [
        {
          "internalType": "bool",
          "name": "",
          "type": "bool"
        }
      ],
      "stateMutability": "view",
      "type": "function"
    },
    {
      "inputs": [
        {
          "internalType": "uint256",
          "name": "",
          "type": "uint256"
        }
      ],
      "name": "roots",
      "outputs": [
        {
          "internalType": "bytes32",
          "name": "",
          "type": "bytes32"
        }
      ],
      "stateMutability": "view",
      "type": "function"
    },
    {
      "inputs": [
        {
          "internalType": "address",
          "name": "to",
          "type": "address"
        }
      ],
      "name": "transferOwnership",
      "outputs": [],
      "stateMutability": "nonpayable",
      "type": "function"
    },
    {
      "inputs": [],
      "name": "verifier",
      "outputs": [
        {
          "internalType": "contract IVerifier",
          "name": "",
          "type": "address"
        }
      ],
      "stateMutability": "view",
      "type": "function"
    },
    {
      "inputs": [
        {
          "internalType": "uint256",
          "name": "",
          "type": "uint256"
        }
      ],
      "name": "zeros",
      "outputs": [
        {
          "internalType": "bytes32",
          "name": "",
          "type": "bytes32"
        }
      ],
      "stateMutability": "view",
      "type": "function"
    }
  ],
  "bytecode": "0x60c0604052600780546001600160401b03191690553480156200002157600080fd5b5060405162003caa38038062003caa833981016040819052620000449162000530565b600080546001600160a01b0319166001600160a01b03891617815585908590339081906001600160a01b038216620000c35760405162461bcd60e51b815260206004820152601860248201527f43616e6e6f7420736574206f776e657220746f207a65726f000000000000000060448201526064015b60405180910390fd5b600280546001600160a01b0319166001600160a01b0384811691909117909155811615620000f657620000f681620002c3565b505050602063ffffffff831611156200016257604051632d5d403760e01b815260206004820152602660248201527f54726565206c6576656c732073686f756c64206265206265747765656e20302060448201526530b73210199960d11b6064820152608401620000ba565b606c805460ff19169055600480546001600160a01b0319166001600160a01b03831617905563ffffffff82166080526006805460018181019092557f2fe54c60d3acabf3343a35b6eba15db4821b340f76e741e2249685ed4899af6c60008051602062003c8a83398151915290910181905560058054808401825560009190915260008051602062003c6a83398151915201819055905b8363ffffffff168163ffffffff16101562000271576200021a828062000370565b60068054600181810190925560008051602062003c8a8339815191520182905560058054918201815560005260008051602062003c6a833981519152018190559150806200026881620005de565b915050620001f9565b506200027e818062000370565b60086000015550506001606d5550607180546001600160a01b0319166001600160a01b0397881617905560006078554260795590941660a052506200065e9350505050565b6001600160a01b0381163314156200031e5760405162461bcd60e51b815260206004820152601760248201527f43616e6e6f74207472616e7366657220746f2073656c660000000000000000006044820152606401620000ba565b600380546001600160a01b0319166001600160a01b03838116918217909255600254604051919216907fed8889f560326eb138920d842192f0eb3dd22b4f139c87a2c57538e05bae127890600090a350565b60007f30644e72e131a029b85045b68181585d2833e84879b9709143e1f593f00000018310620003e35760405162461bcd60e51b815260206004820181905260248201527f5f6c6566742073686f756c6420626520696e7369646520746865206669656c646044820152606401620000ba565b7f30644e72e131a029b85045b68181585d2833e84879b9709143e1f593f000000182106200045e5760405162461bcd60e51b815260206004820152602160248201527f5f72696768742073686f756c6420626520696e7369646520746865206669656c6044820152601960fa1b6064820152608401620000ba565b6040805180820182528481526020810184905260048054925163014cf2b360e51b815291926001600160a01b03169163299e566091620004a19185910162000611565b60206040518083038186803b158015620004ba57600080fd5b505afa158015620004cf573d6000803e3d6000fd5b505050506040513d601f19601f82011682018060405250810190620004f5919062000644565b949350505050565b6001600160a01b03811681146200051357600080fd5b50565b805163ffffffff811681146200052b57600080fd5b919050565b600080600080600080600060e0888a0312156200054c57600080fd5b87516200055981620004fd565b60208901519097506200056c81620004fd565b95506200057c6040890162000516565b945060608801516200058e81620004fd565b60808901519094506001600160401b0381168114620005ac57600080fd5b9250620005bc60a0890162000516565b915060c0880151620005ce81620004fd565b8091505092959891949750929550565b600063ffffffff808316818114156200060757634e487b7160e01b600052601160045260246000fd5b6001019392505050565b60408101818360005b60028110156200063b5781518352602092830192909101906001016200061a565b50505092915050565b6000602082840312156200065757600080fd5b5051919050565b60805160a0516135bc620006ae600039600081816102d8015281816107f2015281816109d701526115ff0152600081816104a4015281816119de01528181611acb0152611d2501526135bc6000f3fe608060405234801561001057600080fd5b506004361061028a5760003560e01c806379ba50971161015c578063d328a91e116100ce578063ec73295911610087578063ec73295914610663578063ed33639f1461068a578063f178e47c1461069d578063f2fde38b146106b0578063fc7e9c6f146106c3578063fffeb84e146106db57600080fd5b8063d328a91e146105e5578063d4b39175146105ed578063d7b6edec1461061d578063dfc0cc0514610630578063e31349ce14610643578063e82955881461065057600080fd5b8063af49d2da11610120578063af49d2da14610581578063ba70f7571461058c578063bef3a2f014610594578063c2b40ae41461059c578063cc637afe146105af578063cd87a3b4146105dd57600080fd5b806379ba50971461052b578063839df9451461053357806389ac4147146105565780638da5cb5b1461056057806390eeb02b1461057157600080fd5b80632fc62eaf116102005780634585e33b116101b95780634585e33b1461048c5780634ecf518b1461049f57806359360b55146104db57806361bc221a146104ee5780636d9833e3146104f75780636e04ff0d1461050a57600080fd5b80632fc62eaf146103e157806332b2820c1461040c57806338bf282e1461042c5780633a20b4e91461043f5780633eee99ad14610452578063414a37ba1461046557600080fd5b8063163c933511610252578063163c9335146103495780631aa46f591461035c57806322dc7b4c1461036557806327714589146103985780632997e86b146103ab5780632b7ac3f3146103ce57600080fd5b8063089ea02e1461028f5780630ca76175146102ab57806311456b47146102c0578063129116ef146102d3578063150b7a0214610312575b600080fd5b61029860795481565b6040519081526020015b60405180910390f35b6102be6102b9366004612753565b6106e3565b005b6102be6102ce3660046127bf565b610770565b6102fa7f000000000000000000000000000000000000000000000000000000000000000081565b6040516001600160a01b0390911681526020016102a2565b610330610320366004612808565b630a85bd0160e11b949350505050565b6040516001600160e01b031990911681526020016102a2565b6102be6103573660046127bf565b6107db565b610298606e5481565b610388610373366004612873565b60009081526072602052604090205460ff1690565b60405190151581526020016102a2565b6102986103a63660046128fd565b61085e565b6103886103b9366004612873565b60726020526000908152604090205460ff1681565b6071546102fa906001600160a01b031681565b6102986103ef3660046127bf565b805160208183018101805160778252928201919093012091525481565b61041f61041a3660046129e7565b61096c565b6040516102a29190612a80565b61029861043a366004612a93565b610abd565b61041f61044d3660046127bf565b610c43565b6102be610460366004612ab5565b610ce8565b6102987f30644e72e131a029b85045b68181585d2833e84879b9709143e1f593f000000181565b6102be61049a3660046129e7565b610e38565b6104c67f000000000000000000000000000000000000000000000000000000000000000081565b60405163ffffffff90911681526020016102a2565b6102be6104e9366004612b50565b610ede565b61029860785481565b610388610505366004612873565b6110f7565b61051d6105183660046129e7565b611175565b6040516102a2929190612c64565b6102be6111be565b610388610541366004612873565b60736020526000908152604090205460ff1681565b61029862093a8081565b6002546001600160a01b03166102fa565b6007546104c69063ffffffff1681565b606c5460ff16610388565b61029861126c565b61041f611292565b6102986105aa366004612873565b61129f565b6103886105bd3660046127bf565b805160208183018101805160748252928201919093012091525460ff1681565b6104c6606481565b61041f6112b6565b6106006105fb366004612d41565b61133b565b6040516bffffffffffffffffffffffff90911681526020016102a2565b61041f61062b3660046127bf565b6113d1565b61041f61063e3660046129e7565b6113f5565b606c546103889060ff1681565b61029861065e366004612873565b6114a8565b6102987f2fe54c60d3acabf3343a35b6eba15db4821b340f76e741e2249685ed4899af6c81565b6004546102fa906001600160a01b031681565b6102986106ab366004612873565b6114c9565b6102be6106be366004612e52565b6114d9565b6007546104c690640100000000900463ffffffff1681565b61041f6114ed565b60008381526001602052604090205483906001600160a01b0316331461071c5760405163a0c5ec6360e01b815260040160405180910390fd5b60008181526001602052604080822080546001600160a01b03191690555182917f85e1543bf2f84fe80c6badbce3648c8539ad1df4d2b3d822938ca0538be727e691a261076a8484846114fa565b50505050565b60016074826040516107829190612e6f565b908152604051908190036020018120805492151560ff19909316929092179091557f2578d3cc27afea711c20a10a0f61285911c3e03afcd6f2fa7f871ab9affa3512906107d0908390612a80565b60405180910390a150565b60405163d0def52160e01b81526001600160a01b037f0000000000000000000000000000000000000000000000000000000000000000169063d0def521906108299030908590600401612e8b565b600060405180830381600087803b15801561084357600080fd5b505af1158015610857573d6000803e3d6000fd5b5050505050565b60006108686116d2565b6108a26040805160c08101909152806000815260200160008152602001600081526020016060815260200160608152602001606081525090565b6108e96000808c8c8080601f016020809104026020016040519081016040528093929190818152602001838380828437600092019190915250879594939250506117279050565b86156109315761093188888080601f01602080910402602001604051908101604052809392919081815260200183838082843760009201919091525085939250506117a29050565b841561094b5761094b6109448688612eaf565b82906117d0565b60006109588286866117f7565b606e8190559b9a5050505050505050505050565b606082828080601f01602080910402602001604051908101604052809392919081815260200183838082843760009201919091525050604051607492506109b591508390612e6f565b9081526040519081900360200190205460ff166109d5576109d581610770565b7f00000000000000000000000000000000000000000000000000000000000000006001600160a01b031663c87b56dd607760768787604051610a18929190612ebc565b908152604051908190036020018120610a3091612f01565b908152604051908190036020018120546001600160e01b031960e084901b168252610a619160040190815260200190565b60006040518083038186803b158015610a7957600080fd5b505afa158015610a8d573d6000803e3d6000fd5b505050506040513d6000823e601f3d908101601f19168201604052610ab59190810190612fed565b949350505050565b60007f30644e72e131a029b85045b68181585d2833e84879b9709143e1f593f00000018310610b335760405162461bcd60e51b815260206004820181905260248201527f5f6c6566742073686f756c6420626520696e7369646520746865206669656c6460448201526064015b60405180910390fd5b7f30644e72e131a029b85045b68181585d2833e84879b9709143e1f593f00000018210610bac5760405162461bcd60e51b815260206004820152602160248201527f5f72696768742073686f756c6420626520696e7369646520746865206669656c6044820152601960fa1b6064820152608401610b2a565b6040805180820182528481526020810184905260048054925163014cf2b360e51b815291926001600160a01b03169163299e566091610bed91859101613021565b60206040518083038186803b158015610c0557600080fd5b505afa158015610c19573d6000803e3d6000fd5b505050506040513d601f19601f82011682018060405250810190610ab59190613052565b92915050565b805160208183018101805160758252928201919093012091528054610c6790612ecc565b80601f0160208091040260200160405190810160405280929190818152602001828054610c9390612ecc565b8015610ce05780601f10610cb557610100808354040283529160200191610ce0565b820191906000526020600020905b815481529060010190602001808311610cc357829003601f168201915b505050505081565b610cf061196b565b81818080601f0160208091040260200160405190810160405280939291908181526020018383808284376000920191909152505060405160749250610d3791508390612e6f565b9081526040519081900360200190205460ff16610d5757610d5781610770565b60008481526073602052604090205460ff1615610db75760405163323377d160e01b815260206004820152601760248201527f436f6d6d69746d656e7420616c726561647920757365640000000000000000006044820152606401610b2a565b6000610dc2856119c5565b60008681526073602052604090819020805460ff19166001179055519091507fb78452bc487dc90d6a0a567cf87858dae69e144c5f299a43ed6964629c219e2a90610e1f908790849091825263ffffffff16602082015260400190565b60405180910390a15050610e336001606d55565b505050565b606c5460ff16158015610e5a575062093a8060795442610e589190613081565b105b15610e9b5760405163549a164f60e11b815260206004820152601060248201526f14995cd95d081b9bdd081b995959195960821b6044820152606401610b2a565b42607955610ea7611c34565b6040514281527f638d0998b62dddc203db633372b87ac8b5cb5404842cc56fbbec87a4280085159060200160405180910390a15050565b610ee661196b565b84607481604051610ef79190612e6f565b9081526040519081900360200190205460ff16610f1757610f1781610770565b60008481526072602052604090205460ff1615610f7057604051633c564aa760e01b8152602060048201526016602482015275139d5b1b1a599a595c88185b1c9958591e481d5cd95960521b6044820152606401610b2a565b610f79836110f7565b610fb757604051632d3b008160e21b815260206004820152600e60248201526d2937b7ba103737ba1035b737bbb760911b6044820152606401610b2a565b6040805180820182528481526020808201879052607154855191860151868501519451637ae4eb4f60e11b815293946001600160a01b039092169363f5c9d69e936110099390929187906004016130bb565b602060405180830381600087803b15801561102357600080fd5b505af1158015611037573d6000803e3d6000fd5b505050506040513d601f19601f8201168201806040525081019061105b9190613119565b6110985760405163179f55d760e01b815260206004820152600d60248201526c24b73b30b634b210383937b7b360991b6044820152606401610b2a565b60008581526072602052604090819020805460ff19166001179055517f8e2c684c78bee254585736b8c67696a4c4ca8b7bd1f2b3b51f283e649937c72a906110e3908890889061313b565b60405180910390a150506108576001606d55565b60008161110657506000919050565b60075463ffffffff165b60088163ffffffff16606481106111295761112961315d565b015483141561113b5750600192915050565b63ffffffff811661114a575060645b8061115481613173565b60075490925063ffffffff8084169116141590506111105750600092915050565b60795460009060609062093a809061118d9042613081565b10158061119c5750606c5460ff165b156111a657600191505b506040805160208101909152600081525b9250929050565b6003546001600160a01b031633146112115760405162461bcd60e51b815260206004820152601660248201527526bab9ba10313290383937b837b9b2b21037bbb732b960511b6044820152606401610b2a565b600280546001600160a01b0319808216339081179093556003805490911690556040516001600160a01b03909116919082907f8be0079c531659141344cd1fd0a4f28419497f9722a3daafe3b4186f6b6457e090600090a350565b60075460009060089063ffffffff166064811061128b5761128b61315d565b0154905090565b606f8054610c6790612ecc565b600881606481106112af57600080fd5b0154905081565b6000805460408051636994548f60e11b815290516060936001600160a01b039093169263d328a91e9260048082019391829003018186803b1580156112fa57600080fd5b505afa15801561130e573d6000803e3d6000fd5b505050506040513d6000823e601f3d908101601f191682016040526113369190810190613193565b905090565b600080546001600160a01b031663d227d2458561135788611df2565b86866040518563ffffffff1660e01b815260040161137894939291906131db565b60206040518083038186803b15801561139057600080fd5b505afa1580156113a4573d6000803e3d6000fd5b505050506040513d601f19601f820116820180604052508101906113c89190613216565b95945050505050565b805160208183018101805160768252928201919093012091528054610c6790612ecc565b606060758383604051611409929190612ebc565b9081526020016040518091039020805461142290612ecc565b80601f016020809104026020016040519081016040528092919081815260200182805461144e90612ecc565b801561149b5780601f106114705761010080835404028352916020019161149b565b820191906000526020600020905b81548152906001019060200180831161147e57829003601f168201915b5050505050905092915050565b600681815481106114b857600080fd5b600091825260209091200154905081565b600581815481106114b857600080fd5b6114e16116d2565b6114ea8161200e565b50565b60708054610c6790612ecc565b815161150d90606f906020850190612533565b508051611521906070906020840190612533565b50827f7bab0ec163b5c132c72b8146ac4d6e067e82ed58f8b131150aa71c92589115628383604051611554929190613244565b60405180910390a2805115801561156c575060008251115b15610e335760008060008480602001905181019061158a9190613269565b925092509250826075826040516115a19190612e6f565b908152602001604051809103902090805190602001906115c2929190612533565b50816076826040516115d49190612e6f565b908152602001604051809103902090805190602001906115f5929190612533565b50600060785490507f00000000000000000000000000000000000000000000000000000000000000006001600160a01b031663dbfd4b986040518163ffffffff1660e01b815260040160206040518083038186803b15801561165657600080fd5b505afa15801561166a573d6000803e3d6000fd5b505050506040513d601f19601f8201168201806040525081019061168e9190613052565b8110156116c957806077846040516116a69190612e6f565b90815260405190819003602001902055806116c0816132e6565b60788190559150505b50505050505050565b6002546001600160a01b031633146117255760405162461bcd60e51b815260206004820152601660248201527527b7363c9031b0b63630b1363290313c9037bbb732b960511b6044820152606401610b2a565b565b8051611746576040516322ce3edd60e01b815260040160405180910390fd5b8383600181111561175957611759613301565b9081600181111561176c5761176c613301565b9052506040840182801561178257611782613301565b9081801561179257611792613301565b9052506060909301929092525050565b80516117c15760405163e889636f60e01b815260040160405180910390fd5b60016020830152608090910152565b80516117ef5760405163fe936cb760e01b815260040160405180910390fd5b60a090910152565b6000805481906001600160a01b03166328242b048561181588611df2565b866040518463ffffffff1660e01b815260040161183493929190613317565b602060405180830381600087803b15801561184e57600080fd5b505af1158015611862573d6000803e3d6000fd5b505050506040513d601f19601f820116820180604052508101906118869190613052565b905060008054906101000a90046001600160a01b03166001600160a01b0316635ab1bd536040518163ffffffff1660e01b815260040160206040518083038186803b1580156118d457600080fd5b505afa1580156118e8573d6000803e3d6000fd5b505050506040513d601f19601f8201168201806040525081019061190c919061334f565b60008281526001602052604080822080546001600160a01b0319166001600160a01b039490941693909317909255905182917f1131472297a800fee664d1d89cfa8f7676ff07189ecc53f80bbb5f4969099db891a290505b9392505050565b6002606d5414156119be5760405162461bcd60e51b815260206004820152601f60248201527f5265656e7472616e637947756172643a207265656e7472616e742063616c6c006044820152606401610b2a565b6002606d55565b600754600090640100000000900463ffffffff16611a047f00000000000000000000000000000000000000000000000000000000000000006002613450565b8163ffffffff1610611a7e57606c805460ff1916600117905560405163d7e8473f60e01b815260206004820152602f60248201527f4d65726b6c6520747265652069732066756c6c2e204e6f206d6f7265206c656160448201526e199cc818d85b881899481859191959608a1b6064820152608401610b2a565b6001600760048282829054906101000a900463ffffffff16611aa09190613462565b92506101000a81548163ffffffff021916908363ffffffff160217905550600083905060008060005b7f000000000000000000000000000000000000000000000000000000000000000063ffffffff168163ffffffff161015611bbb57611b086002866134a0565b63ffffffff16611b665783925060068163ffffffff1681548110611b2e57611b2e61315d565b906000526020600020015491508360058263ffffffff1681548110611b5557611b5561315d565b600091825260209091200155611b90565b60058163ffffffff1681548110611b7f57611b7f61315d565b906000526020600020015492508391505b611b9a8383610abd565b9350611ba76002866134c3565b945080611bb3816134e6565b915050611ac9565b50600754606490611bd39063ffffffff166001613462565b611bdd91906134a0565b6007805463ffffffff191663ffffffff929092169182179055839060089060648110611c0b57611c0b61315d565b0155600754611c2a90600190640100000000900463ffffffff1661350a565b9695505050505050565b611c40600560006125b7565b611c4c600660006125b7565b6040805160008152602081019182905251611c69916005916125d5565b506040805160008152602081019182905251611c87916006916125d5565b506007805467ffffffffffffffff191690556006805460018181019092557f2fe54c60d3acabf3343a35b6eba15db4821b340f76e741e2249685ed4899af6c7ff652222313e28459528d920b65115c16c04f3efc82aaedc97be59f3f377c0d3f9091018190556005805480840182556000919091527f036b6384b5eca791c62761152d0c79bb0604c104a5fb6f4eb0703f3154bb3db001819055905b7f000000000000000000000000000000000000000000000000000000000000000063ffffffff168163ffffffff161015611dd757611d618283610abd565b6006805460018181019092557ff652222313e28459528d920b65115c16c04f3efc82aaedc97be59f3f377c0d3f018290556005805491820181556000527f036b6384b5eca791c62761152d0c79bb0604c104a5fb6f4eb0703f3154bb3db001819055915080611dcf816134e6565b915050611d23565b50611de28182610abd565b60085550606c805460ff19169055565b6060611e11604051806040016040528060608152602001600081525090565b611e1d816101006120b9565b5060408051808201909152600c81526b31b7b232a637b1b0ba34b7b760a11b6020820152611e4c90829061211e565b8251611e6a906001811115611e6357611e63613301565b8290612135565b6040805180820190915260088152676c616e677561676560c01b6020820152611e9490829061211e565b6040830151611eab908015611e6357611e63613301565b604080518082019091526006815265736f7572636560d01b6020820152611ed390829061211e565b6060830151611ee390829061211e565b60a08301515115611f79576040805180820190915260048152636172677360e01b6020820152611f1490829061211e565b611f1d8161215e565b60005b8360a0015151811015611f6f57611f5d8460a001518281518110611f4657611f4661315d565b60200260200101518361211e90919063ffffffff16565b80611f67816132e6565b915050611f20565b50611f7981612169565b608083015151156120075760408051808201909152600f81526e39b2b1b932ba39a637b1b0ba34b7b760891b6020820152611fb590829061211e565b611fce83602001516001811115611e6357611e63613301565b6040805180820190915260078152667365637265747360c81b6020820152611ff790829061211e565b6080830151612007908290612174565b5192915050565b6001600160a01b0381163314156120675760405162461bcd60e51b815260206004820152601760248201527f43616e6e6f74207472616e7366657220746f2073656c660000000000000000006044820152606401610b2a565b600380546001600160a01b0319166001600160a01b03838116918217909255600254604051919216907fed8889f560326eb138920d842192f0eb3dd22b4f139c87a2c57538e05bae127890600090a350565b6040805180820190915260608152600060208201526120d960208361352f565b15612101576120e960208361352f565b6120f4906020613081565b6120fe9083613543565b91505b506020828101829052604080518085526000815290920101905290565b61212b826003835161217d565b610e338282612284565b6001600160401b038111156121525761214e82826122ab565b5050565b61214e8260008361217d565b6114ea8160046122e2565b6114ea8160076122e2565b61212b82600283515b6017816001600160401b0316116121a15761076a8360e0600585901b1683176122f3565b60ff816001600160401b0316116121dd576121c7836018611fe0600586901b16176122f3565b5061076a836001600160401b0383166001612318565b61ffff816001600160401b03161161221a57612204836019611fe0600586901b16176122f3565b5061076a836001600160401b0383166002612318565b63ffffffff816001600160401b0316116122595761224383601a611fe0600586901b16176122f3565b5061076a836001600160401b0383166004612318565b61226e83601b611fe0600586901b16176122f3565b5061076a836001600160401b0383166008612318565b6040805180820190915260608152600060208201526119648384600001515184855161233e565b6122b68260c26122f3565b5061214e82826040516020016122ce91815260200190565b604051602081830303815290604052612174565b610e3382601f611fe0600585901b16175b6040805180820190915260608152600060208201526119648384600001515184612428565b604080518082019091526060815260006020820152610ab5848560000151518585612484565b604080518082019091526060815260006020820152825182111561236157600080fd5b60208501516123708386613543565b11156123a3576123a3856123938760200151878661238e9190613543565b612505565b61239e90600261355b565b61251c565b6000808651805187602083010193508088870111156123c25787860182525b505050602084015b6020841061240257805182526123e1602083613543565b91506123ee602082613543565b90506123fb602085613081565b93506123ca565b51815160001960208690036101000a019081169019919091161790525083949350505050565b6040805180820190915260608152600060208201528360200151831061245d5761245d848560200151600261239e919061355b565b83518051602085830101848153508085141561247a576001810182525b5093949350505050565b60408051808201909152606081526000602082015260208501516124a88584613543565b11156124bc576124bc856123938685613543565b600060016124cc8461010061357a565b6124d69190613081565b90508551838682010185831982511617815250805184870111156124fa5783860181525b509495945050505050565b600081831115612516575081610c3d565b50919050565b815161252883836120b9565b5061076a8382612284565b82805461253f90612ecc565b90600052602060002090601f01602090048101928261256157600085556125a7565b82601f1061257a57805160ff19168380011785556125a7565b828001600101855582156125a7579182015b828111156125a757825182559160200191906001019061258c565b506125b392915061260f565b5090565b50805460008255906000526020600020908101906114ea919061260f565b8280548282559060005260206000209081019282156125a757916020028201828111156125a757825182559160200191906001019061258c565b5b808211156125b35760008155600101612610565b634e487b7160e01b600052604160045260246000fd5b604051606081016001600160401b038111828210171561265c5761265c612624565b60405290565b60405160c081016001600160401b038111828210171561265c5761265c612624565b604080519081016001600160401b038111828210171561265c5761265c612624565b604051601f8201601f191681016001600160401b03811182821017156126ce576126ce612624565b604052919050565b60006001600160401b038211156126ef576126ef612624565b50601f01601f191660200190565b600082601f83011261270e57600080fd5b813561272161271c826126d6565b6126a6565b81815284602083860101111561273657600080fd5b816020850160208301376000918101602001919091529392505050565b60008060006060848603121561276857600080fd5b8335925060208401356001600160401b038082111561278657600080fd5b612792878388016126fd565b935060408601359150808211156127a857600080fd5b506127b5868287016126fd565b9150509250925092565b6000602082840312156127d157600080fd5b81356001600160401b038111156127e757600080fd5b610ab5848285016126fd565b6001600160a01b03811681146114ea57600080fd5b6000806000806080858703121561281e57600080fd5b8435612829816127f3565b93506020850135612839816127f3565b92506040850135915060608501356001600160401b0381111561285b57600080fd5b612867878288016126fd565b91505092959194509250565b60006020828403121561288557600080fd5b5035919050565b60008083601f84011261289e57600080fd5b5081356001600160401b038111156128b557600080fd5b6020830191508360208285010111156111b757600080fd5b80356001600160401b03811681146128e457600080fd5b919050565b803563ffffffff811681146128e457600080fd5b60008060008060008060008060a0898b03121561291957600080fd5b88356001600160401b038082111561293057600080fd5b61293c8c838d0161288c565b909a50985060208b013591508082111561295557600080fd5b6129618c838d0161288c565b909850965060408b013591508082111561297a57600080fd5b818b0191508b601f83011261298e57600080fd5b81358181111561299d57600080fd5b8c60208260051b85010111156129b257600080fd5b6020830196508095505050506129ca60608a016128cd565b91506129d860808a016128e9565b90509295985092959890939650565b600080602083850312156129fa57600080fd5b82356001600160401b03811115612a1057600080fd5b612a1c8582860161288c565b90969095509350505050565b60005b83811015612a43578181015183820152602001612a2b565b8381111561076a5750506000910152565b60008151808452612a6c816020860160208601612a28565b601f01601f19169290920160200192915050565b6020815260006119646020830184612a54565b60008060408385031215612aa657600080fd5b50508035926020909101359150565b600080600060408486031215612aca57600080fd5b8335925060208401356001600160401b03811115612ae757600080fd5b612af38682870161288c565b9497909650939450505050565b600082601f830112612b1157600080fd5b612b19612684565b806040840185811115612b2b57600080fd5b845b81811015612b45578035845260209384019301612b2d565b509095945050505050565b6000806000806000858703610180811215612b6a57600080fd5b86356001600160401b0380821115612b8157600080fd5b612b8d8a838b016126fd565b9750602091508189013581811115612ba457600080fd5b612bb08b828c016126fd565b97505050604088810135955060608901359450610100607f1984011215612bd657600080fd5b612bde61263a565b9250612bed8a60808b01612b00565b83528960df8a0112612bfe57600080fd5b612c06612684565b806101408b018c811115612c1957600080fd5b60c08c015b81811015612c3d57612c308e82612b00565b8452928501928401612c1e565b508185870152612c4d8d82612b00565b848701525050505050809150509295509295909350565b8215158152604060208201526000610ab56040830184612a54565b8035600281106128e457600080fd5b8035600181106128e457600080fd5b60006001600160401b0380841115612cb757612cb7612624565b8360051b6020612cc88183016126a6565b86815293509084019080840187831115612ce157600080fd5b855b83811015612d1557803585811115612cfb5760008081fd5b612d078a828a016126fd565b835250908201908201612ce3565b50505050509392505050565b600082601f830112612d3257600080fd5b61196483833560208501612c9d565b60008060008060808587031215612d5757600080fd5b84356001600160401b0380821115612d6e57600080fd5b9086019060c08289031215612d8257600080fd5b612d8a612662565b612d9383612c7f565b8152612da160208401612c7f565b6020820152612db260408401612c8e565b6040820152606083013582811115612dc957600080fd5b612dd58a8286016126fd565b606083015250608083013582811115612ded57600080fd5b612df98a8286016126fd565b60808301525060a083013582811115612e1157600080fd5b612e1d8a828601612d21565b60a0830152509550612e34915050602086016128cd565b9250612e42604086016128e9565b9396929550929360600135925050565b600060208284031215612e6457600080fd5b8135611964816127f3565b60008251612e81818460208701612a28565b9190910192915050565b6001600160a01b0383168152604060208201819052600090610ab590830184612a54565b6000611964368484612c9d565b8183823760009101908152919050565b600181811c90821680612ee057607f821691505b6020821081141561251657634e487b7160e01b600052602260045260246000fd5b600080835481600182811c915080831680612f1d57607f831692505b6020808410821415612f3d57634e487b7160e01b86526022600452602486fd5b818015612f515760018114612f6257612f8f565b60ff19861689528489019650612f8f565b60008a81526020902060005b86811015612f875781548b820152908501908301612f6e565b505084890196505b509498975050505050505050565b6000612fab61271c846126d6565b9050828152838383011115612fbf57600080fd5b611964836020830184612a28565b600082601f830112612fde57600080fd5b61196483835160208501612f9d565b600060208284031215612fff57600080fd5b81516001600160401b0381111561301557600080fd5b610ab584828501612fcd565b60408101818360005b600281101561304957815183526020928301929091019060010161302a565b50505092915050565b60006020828403121561306457600080fd5b5051919050565b634e487b7160e01b600052601160045260246000fd5b6000828210156130935761309361306b565b500390565b8060005b600281101561076a57815184526020938401939091019060010161309c565b61014081016130ca8287613098565b60408083018660005b60028110156130fa576130e7838351613098565b91830191602091909101906001016130d3565b5050505061310b60c0830185613098565b6113c8610100830184613098565b60006020828403121561312b57600080fd5b8151801515811461196457600080fd5b60408152600061314e6040830185612a54565b90508260208301529392505050565b634e487b7160e01b600052603260045260246000fd5b600063ffffffff8216806131895761318961306b565b6000190192915050565b6000602082840312156131a557600080fd5b81516001600160401b038111156131bb57600080fd5b8201601f810184136131cc57600080fd5b610ab584825160208401612f9d565b6001600160401b03851681526080602082015260006131fd6080830186612a54565b63ffffffff949094166040830152506060015292915050565b60006020828403121561322857600080fd5b81516bffffffffffffffffffffffff8116811461196457600080fd5b6040815260006132576040830185612a54565b82810360208401526113c88185612a54565b60008060006060848603121561327e57600080fd5b83516001600160401b038082111561329557600080fd5b6132a187838801612fcd565b945060208601519150808211156132b757600080fd5b6132c387838801612fcd565b935060408601519150808211156132d957600080fd5b506127b586828701612fcd565b60006000198214156132fa576132fa61306b565b5060010190565b634e487b7160e01b600052602160045260246000fd5b6001600160401b03841681526060602082015260006133396060830185612a54565b905063ffffffff83166040830152949350505050565b60006020828403121561336157600080fd5b8151611964816127f3565b600181815b808511156133a757816000190482111561338d5761338d61306b565b8085161561339a57918102915b93841c9390800290613371565b509250929050565b6000826133be57506001610c3d565b816133cb57506000610c3d565b81600181146133e157600281146133eb57613407565b6001915050610c3d565b60ff8411156133fc576133fc61306b565b50506001821b610c3d565b5060208310610133831016604e8410600b841016171561342a575081810a610c3d565b613434838361336c565b80600019048211156134485761344861306b565b029392505050565b600061196463ffffffff8416836133af565b600063ffffffff8083168185168083038211156134815761348161306b565b01949350505050565b634e487b7160e01b600052601260045260246000fd5b600063ffffffff808416806134b7576134b761348a565b92169190910692915050565b600063ffffffff808416806134da576134da61348a565b92169190910492915050565b600063ffffffff808316818114156135005761350061306b565b6001019392505050565b600063ffffffff838116908316818110156135275761352761306b565b039392505050565b60008261353e5761353e61348a565b500690565b600082198211156135565761355661306b565b500190565b60008160001904831182151516156135755761357561306b565b500290565b600061196483836133af56fea26469706673582212209cf281d669a48f3a411f91e4d7d3a6540f9fdbd4f4ab01973fd8b1770a2d30f764736f6c63430008090033036b6384b5eca791c62761152d0c79bb0604c104a5fb6f4eb0703f3154bb3db0f652222313e28459528d920b65115c16c04f3efc82aaedc97be59f3f377c0d3f",
  "linkReferences": {},
  "deployedLinkReferences": {}
}