{
  "_format": "hh-sol-artifact-1",
  "contractName": "FunctionsBillingRegistry",
  "sourceName": "contracts/dev/functions/FunctionsBillingRegistry.sol",
  "abi": [
    {
      "inputs": [
        {
          "internalType": "uint256",
          "name": "internalBalance",
          "type": "uint256"
        },
        {
          "internalType": "uint256",
          "name": "externalBalance",
          "type": "uint256"
        }
      ],
      "name": "BalanceInvariantViolated",
      "type": "error"
    },
    {
      "inputs": [],
      "name": "CannotSelfTransfer",
      "type": "error"
    },
    {
      "inputs": [],
      "name": "EmptySendersList",
      "type": "error"
    },
    {
      "inputs": [
        {
          "internalType": "uint32",
          "name": "have",
          "type": "uint32"
        },
        {
          "internalType": "uint32",
          "name": "want",
          "type": "uint32"
        }
      ],
      "name": "GasLimitTooBig",
      "type": "error"
    },
    {
      "inputs": [],
      "name": "InsufficientBalance",
      "type": "error"
    },
    {
      "inputs": [],
      "name": "InvalidCalldata",
      "type": "error"
    },
    {
      "inputs": [
        {
          "internalType": "uint64",
          "name": "subscriptionId",
          "type": "uint64"
        },
        {
          "internalType": "address",
          "name": "consumer",
          "type": "address"
        }
      ],
      "name": "InvalidConsumer",
      "type": "error"
    },
    {
      "inputs": [
        {
          "internalType": "int256",
          "name": "linkWei",
          "type": "int256"
        }
      ],
      "name": "InvalidLinkWeiPrice",
      "type": "error"
    },
    {
      "inputs": [],
      "name": "InvalidSubscription",
      "type": "error"
    },
    {
      "inputs": [
        {
          "internalType": "address",
          "name": "proposedOwner",
          "type": "address"
        }
      ],
      "name": "MustBeRequestedOwner",
      "type": "error"
    },
    {
      "inputs": [
        {
          "internalType": "address",
          "name": "owner",
          "type": "address"
        }
      ],
      "name": "MustBeSubOwner",
      "type": "error"
    },
    {
      "inputs": [],
      "name": "NotAllowedToSetSenders",
      "type": "error"
    },
    {
      "inputs": [],
      "name": "NotProposedOwner",
      "type": "error"
    },
    {
      "inputs": [],
      "name": "OnlyCallableByOwner",
      "type": "error"
    },
    {
      "inputs": [],
      "name": "OnlyCallableFromLink",
      "type": "error"
    },
    {
      "inputs": [],
      "name": "OwnerMustBeSet",
      "type": "error"
    },
    {
      "inputs": [],
      "name": "PaymentTooLarge",
      "type": "error"
    },
    {
      "inputs": [],
      "name": "PendingRequestExists",
      "type": "error"
    },
    {
      "inputs": [],
      "name": "Reentrant",
      "type": "error"
    },
    {
      "inputs": [],
      "name": "TooManyConsumers",
      "type": "error"
    },
    {
      "inputs": [],
      "name": "UnauthorizedSender",
      "type": "error"
    },
    {
      "anonymous": false,
      "inputs": [
        {
          "indexed": false,
          "internalType": "address[]",
          "name": "senders",
          "type": "address[]"
        },
        {
          "indexed": false,
          "internalType": "address",
          "name": "changedBy",
          "type": "address"
        }
      ],
      "name": "AuthorizedSendersChanged",
      "type": "event"
    },
    {
      "anonymous": false,
      "inputs": [
        {
          "indexed": true,
          "internalType": "bytes32",
          "name": "requestId",
          "type": "bytes32"
        },
        {
          "indexed": false,
          "internalType": "uint64",
          "name": "subscriptionId",
          "type": "uint64"
        },
        {
          "indexed": false,
          "internalType": "uint96",
          "name": "signerPayment",
          "type": "uint96"
        },
        {
          "indexed": false,
          "internalType": "uint96",
          "name": "transmitterPayment",
          "type": "uint96"
        },
        {
          "indexed": false,
          "internalType": "uint96",
          "name": "totalCost",
          "type": "uint96"
        },
        {
          "indexed": false,
          "internalType": "bool",
          "name": "success",
          "type": "bool"
        }
      ],
      "name": "BillingEnd",
      "type": "event"
    },
    {
      "anonymous": false,
      "inputs": [
        {
          "indexed": true,
          "internalType": "bytes32",
          "name": "requestId",
          "type": "bytes32"
        },
        {
          "components": [
            {
              "internalType": "uint64",
              "name": "subscriptionId",
              "type": "uint64"
            },
            {
              "internalType": "address",
              "name": "client",
              "type": "address"
            },
            {
              "internalType": "uint32",
              "name": "gasLimit",
              "type": "uint32"
            },
            {
              "internalType": "uint256",
              "name": "gasPrice",
              "type": "uint256"
            },
            {
              "internalType": "address",
              "name": "don",
              "type": "address"
            },
            {
              "internalType": "uint96",
              "name": "donFee",
              "type": "uint96"
            },
            {
              "internalType": "uint96",
              "name": "registryFee",
              "type": "uint96"
            },
            {
              "internalType": "uint96",
              "name": "estimatedCost",
              "type": "uint96"
            },
            {
              "internalType": "uint256",
              "name": "timestamp",
              "type": "uint256"
            }
          ],
          "indexed": false,
          "internalType": "struct FunctionsBillingRegistry.Commitment",
          "name": "commitment",
          "type": "tuple"
        }
      ],
      "name": "BillingStart",
      "type": "event"
    },
    {
      "anonymous": false,
      "inputs": [
        {
          "indexed": false,
          "internalType": "uint32",
          "name": "maxGasLimit",
          "type": "uint32"
        },
        {
          "indexed": false,
          "internalType": "uint32",
          "name": "stalenessSeconds",
          "type": "uint32"
        },
        {
          "indexed": false,
          "internalType": "uint256",
          "name": "gasAfterPaymentCalculation",
          "type": "uint256"
        },
        {
          "indexed": false,
          "internalType": "int256",
          "name": "fallbackWeiPerUnitLink",
          "type": "int256"
        },
        {
          "indexed": false,
          "internalType": "uint32",
          "name": "gasOverhead",
          "type": "uint32"
        }
      ],
      "name": "ConfigSet",
      "type": "event"
    },
    {
      "anonymous": false,
      "inputs": [
        {
          "indexed": false,
          "internalType": "address",
          "name": "to",
          "type": "address"
        },
        {
          "indexed": false,
          "internalType": "uint256",
          "name": "amount",
          "type": "uint256"
        }
      ],
      "name": "FundsRecovered",
      "type": "event"
    },
    {
      "anonymous": false,
      "inputs": [
        {
          "indexed": false,
          "internalType": "uint8",
          "name": "version",
          "type": "uint8"
        }
      ],
      "name": "Initialized",
      "type": "event"
    },
    {
      "anonymous": false,
      "inputs": [
        {
          "indexed": true,
          "internalType": "address",
          "name": "from",
          "type": "address"
        },
        {
          "indexed": true,
          "internalType": "address",
          "name": "to",
          "type": "address"
        }
      ],
      "name": "OwnershipTransferRequested",
      "type": "event"
    },
    {
      "anonymous": false,
      "inputs": [
        {
          "indexed": true,
          "internalType": "address",
          "name": "from",
          "type": "address"
        },
        {
          "indexed": true,
          "internalType": "address",
          "name": "to",
          "type": "address"
        }
      ],
      "name": "OwnershipTransferred",
      "type": "event"
    },
    {
      "anonymous": false,
      "inputs": [
        {
          "indexed": false,
          "internalType": "address",
          "name": "account",
          "type": "address"
        }
      ],
      "name": "Paused",
      "type": "event"
    },
    {
      "anonymous": false,
      "inputs": [
        {
          "indexed": true,
          "internalType": "bytes32",
          "name": "requestId",
          "type": "bytes32"
        }
      ],
      "name": "RequestTimedOut",
      "type": "event"
    },
    {
      "anonymous": false,
      "inputs": [
        {
          "indexed": true,
          "internalType": "uint64",
          "name": "subscriptionId",
          "type": "uint64"
        },
        {
          "indexed": false,
          "internalType": "address",
          "name": "to",
          "type": "address"
        },
        {
          "indexed": false,
          "internalType": "uint256",
          "name": "amount",
          "type": "uint256"
        }
      ],
      "name": "SubscriptionCanceled",
      "type": "event"
    },
    {
      "anonymous": false,
      "inputs": [
        {
          "indexed": true,
          "internalType": "uint64",
          "name": "subscriptionId",
          "type": "uint64"
        },
        {
          "indexed": false,
          "internalType": "address",
          "name": "consumer",
          "type": "address"
        }
      ],
      "name": "SubscriptionConsumerAdded",
      "type": "event"
    },
    {
      "anonymous": false,
      "inputs": [
        {
          "indexed": true,
          "internalType": "uint64",
          "name": "subscriptionId",
          "type": "uint64"
        },
        {
          "indexed": false,
          "internalType": "address",
          "name": "consumer",
          "type": "address"
        }
      ],
      "name": "SubscriptionConsumerRemoved",
      "type": "event"
    },
    {
      "anonymous": false,
      "inputs": [
        {
          "indexed": true,
          "internalType": "uint64",
          "name": "subscriptionId",
          "type": "uint64"
        },
        {
          "indexed": false,
          "internalType": "address",
          "name": "owner",
          "type": "address"
        }
      ],
      "name": "SubscriptionCreated",
      "type": "event"
    },
    {
      "anonymous": false,
      "inputs": [
        {
          "indexed": true,
          "internalType": "uint64",
          "name": "subscriptionId",
          "type": "uint64"
        },
        {
          "indexed": false,
          "internalType": "uint256",
          "name": "oldBalance",
          "type": "uint256"
        },
        {
          "indexed": false,
          "internalType": "uint256",
          "name": "newBalance",
          "type": "uint256"
        }
      ],
      "name": "SubscriptionFunded",
      "type": "event"
    },
    {
      "anonymous": false,
      "inputs": [
        {
          "indexed": true,
          "internalType": "uint64",
          "name": "subscriptionId",
          "type": "uint64"
        },
        {
          "indexed": false,
          "internalType": "address",
          "name": "from",
          "type": "address"
        },
        {
          "indexed": false,
          "internalType": "address",
          "name": "to",
          "type": "address"
        }
      ],
      "name": "SubscriptionOwnerTransferRequested",
      "type": "event"
    },
    {
      "anonymous": false,
      "inputs": [
        {
          "indexed": true,
          "internalType": "uint64",
          "name": "subscriptionId",
          "type": "uint64"
        },
        {
          "indexed": false,
          "internalType": "address",
          "name": "from",
          "type": "address"
        },
        {
          "indexed": false,
          "internalType": "address",
          "name": "to",
          "type": "address"
        }
      ],
      "name": "SubscriptionOwnerTransferred",
      "type": "event"
    },
    {
      "anonymous": false,
      "inputs": [
        {
          "indexed": false,
          "internalType": "address",
          "name": "account",
          "type": "address"
        }
      ],
      "name": "Unpaused",
      "type": "event"
    },
    {
      "inputs": [],
      "name": "MAX_CONSUMERS",
      "outputs": [
        {
          "internalType": "uint16",
          "name": "",
          "type": "uint16"
        }
      ],
      "stateMutability": "view",
      "type": "function"
    },
    {
      "inputs": [],
      "name": "acceptOwnership",
      "outputs": [],
      "stateMutability": "nonpayable",
      "type": "function"
    },
    {
      "inputs": [
        {
          "internalType": "uint64",
          "name": "subscriptionId",
          "type": "uint64"
        }
      ],
      "name": "acceptSubscriptionOwnerTransfer",
      "outputs": [],
      "stateMutability": "nonpayable",
      "type": "function"
    },
    {
      "inputs": [
        {
          "internalType": "uint64",
          "name": "subscriptionId",
          "type": "uint64"
        },
        {
          "internalType": "address",
          "name": "consumer",
          "type": "address"
        }
      ],
      "name": "addConsumer",
      "outputs": [],
      "stateMutability": "nonpayable",
      "type": "function"
    },
    {
      "inputs": [
        {
          "internalType": "uint64",
          "name": "subscriptionId",
          "type": "uint64"
        },
        {
          "internalType": "address",
          "name": "to",
          "type": "address"
        }
      ],
      "name": "cancelSubscription",
      "outputs": [],
      "stateMutability": "nonpayable",
      "type": "function"
    },
    {
      "inputs": [],
      "name": "createSubscription",
      "outputs": [
        {
          "internalType": "uint64",
          "name": "",
          "type": "uint64"
        }
      ],
      "stateMutability": "nonpayable",
      "type": "function"
    },
    {
      "inputs": [
        {
          "internalType": "uint32",
          "name": "gasLimit",
          "type": "uint32"
        },
        {
          "internalType": "uint256",
          "name": "gasPrice",
          "type": "uint256"
        },
        {
          "internalType": "uint96",
          "name": "donFee",
          "type": "uint96"
        },
        {
          "internalType": "uint96",
          "name": "registryFee",
          "type": "uint96"
        }
      ],
      "name": "estimateCost",
      "outputs": [
        {
          "internalType": "uint96",
          "name": "",
          "type": "uint96"
        }
      ],
      "stateMutability": "view",
      "type": "function"
    },
    {
      "inputs": [
        {
          "internalType": "bytes32",
          "name": "requestId",
          "type": "bytes32"
        },
        {
          "internalType": "bytes",
          "name": "response",
          "type": "bytes"
        },
        {
          "internalType": "bytes",
          "name": "err",
          "type": "bytes"
        },
        {
          "internalType": "address",
          "name": "transmitter",
          "type": "address"
        },
        {
          "internalType": "address[31]",
          "name": "signers",
          "type": "address[31]"
        },
        {
          "internalType": "uint8",
          "name": "signerCount",
          "type": "uint8"
        },
        {
          "internalType": "uint256",
          "name": "reportValidationGas",
          "type": "uint256"
        },
        {
          "internalType": "uint256",
          "name": "initialGas",
          "type": "uint256"
        }
      ],
      "name": "fulfillAndBill",
      "outputs": [
        {
          "internalType": "enum FunctionsBillingRegistryInterface.FulfillResult",
          "name": "",
          "type": "uint8"
        }
      ],
      "stateMutability": "nonpayable",
      "type": "function"
    },
    {
      "inputs": [],
      "name": "getAuthorizedSenders",
      "outputs": [
        {
          "internalType": "address[]",
          "name": "",
          "type": "address[]"
        }
      ],
      "stateMutability": "view",
      "type": "function"
    },
    {
      "inputs": [],
      "name": "getConfig",
      "outputs": [
        {
          "internalType": "uint32",
          "name": "maxGasLimit",
          "type": "uint32"
        },
        {
          "internalType": "uint32",
          "name": "stalenessSeconds",
          "type": "uint32"
        },
        {
          "internalType": "uint256",
          "name": "gasAfterPaymentCalculation",
          "type": "uint256"
        },
        {
          "internalType": "int256",
          "name": "fallbackWeiPerUnitLink",
          "type": "int256"
        },
        {
          "internalType": "uint32",
          "name": "gasOverhead",
          "type": "uint32"
        },
        {
          "internalType": "address",
          "name": "linkAddress",
          "type": "address"
        },
        {
          "internalType": "address",
          "name": "linkPriceFeed",
          "type": "address"
        }
      ],
      "stateMutability": "view",
      "type": "function"
    },
    {
      "inputs": [],
      "name": "getCurrentsubscriptionId",
      "outputs": [
        {
          "internalType": "uint64",
          "name": "",
          "type": "uint64"
        }
      ],
      "stateMutability": "view",
      "type": "function"
    },
    {
      "inputs": [],
      "name": "getRequestConfig",
      "outputs": [
        {
          "internalType": "uint32",
          "name": "",
          "type": "uint32"
        },
        {
          "internalType": "address[]",
          "name": "",
          "type": "address[]"
        }
      ],
      "stateMutability": "view",
      "type": "function"
    },
    {
      "inputs": [
        {
          "internalType": "bytes",
          "name": "",
          "type": "bytes"
        },
        {
          "components": [
            {
              "internalType": "uint64",
              "name": "subscriptionId",
              "type": "uint64"
            },
            {
              "internalType": "address",
              "name": "client",
              "type": "address"
            },
            {
              "internalType": "uint32",
              "name": "gasLimit",
              "type": "uint32"
            },
            {
              "internalType": "uint256",
              "name": "gasPrice",
              "type": "uint256"
            }
          ],
          "internalType": "struct FunctionsBillingRegistryInterface.RequestBilling",
          "name": "",
          "type": "tuple"
        }
      ],
      "name": "getRequiredFee",
      "outputs": [
        {
          "internalType": "uint96",
          "name": "",
          "type": "uint96"
        }
      ],
      "stateMutability": "pure",
      "type": "function"
    },
    {
      "inputs": [
        {
          "internalType": "uint64",
          "name": "subscriptionId",
          "type": "uint64"
        }
      ],
      "name": "getSubscription",
      "outputs": [
        {
          "internalType": "uint96",
          "name": "balance",
          "type": "uint96"
        },
        {
          "internalType": "address",
          "name": "owner",
          "type": "address"
        },
        {
          "internalType": "address[]",
          "name": "consumers",
          "type": "address[]"
        }
      ],
      "stateMutability": "view",
      "type": "function"
    },
    {
      "inputs": [
        {
          "internalType": "uint64",
          "name": "subscriptionId",
          "type": "uint64"
        }
      ],
      "name": "getSubscriptionOwner",
      "outputs": [
        {
          "internalType": "address",
          "name": "owner",
          "type": "address"
        }
      ],
      "stateMutability": "view",
      "type": "function"
    },
    {
      "inputs": [],
      "name": "getTotalBalance",
      "outputs": [
        {
          "internalType": "uint256",
          "name": "",
          "type": "uint256"
        }
      ],
      "stateMutability": "view",
      "type": "function"
    },
    {
      "inputs": [
        {
          "internalType": "address",
          "name": "link",
          "type": "address"
        },
        {
          "internalType": "address",
          "name": "linkEthFeed",
          "type": "address"
        },
        {
          "internalType": "address",
          "name": "oracle",
          "type": "address"
        }
      ],
      "name": "initialize",
      "outputs": [],
      "stateMutability": "nonpayable",
      "type": "function"
    },
    {
      "inputs": [
        {
          "internalType": "address",
          "name": "sender",
          "type": "address"
        }
      ],
      "name": "isAuthorizedSender",
      "outputs": [
        {
          "internalType": "bool",
          "name": "",
          "type": "bool"
        }
      ],
      "stateMutability": "view",
      "type": "function"
    },
    {
      "inputs": [
        {
          "internalType": "address",
          "name": "",
          "type": "address"
        },
        {
          "internalType": "uint256",
          "name": "amount",
          "type": "uint256"
        },
        {
          "internalType": "bytes",
          "name": "data",
          "type": "bytes"
        }
      ],
      "name": "onTokenTransfer",
      "outputs": [],
      "stateMutability": "nonpayable",
      "type": "function"
    },
    {
      "inputs": [
        {
          "internalType": "address",
          "name": "recipient",
          "type": "address"
        },
        {
          "internalType": "uint96",
          "name": "amount",
          "type": "uint96"
        }
      ],
      "name": "oracleWithdraw",
      "outputs": [],
      "stateMutability": "nonpayable",
      "type": "function"
    },
    {
      "inputs": [],
      "name": "owner",
      "outputs": [
        {
          "internalType": "address",
          "name": "",
          "type": "address"
        }
      ],
      "stateMutability": "view",
      "type": "function"
    },
    {
      "inputs": [
        {
          "internalType": "uint64",
          "name": "subscriptionId",
          "type": "uint64"
        }
      ],
      "name": "ownerCancelSubscription",
      "outputs": [],
      "stateMutability": "nonpayable",
      "type": "function"
    },
    {
      "inputs": [],
      "name": "pause",
      "outputs": [],
      "stateMutability": "nonpayable",
      "type": "function"
    },
    {
      "inputs": [],
      "name": "paused",
      "outputs": [
        {
          "internalType": "bool",
          "name": "",
          "type": "bool"
        }
      ],
      "stateMutability": "view",
      "type": "function"
    },
    {
      "inputs": [
        {
          "internalType": "uint64",
          "name": "subscriptionId",
          "type": "uint64"
        }
      ],
      "name": "pendingRequestExists",
      "outputs": [
        {
          "internalType": "bool",
          "name": "",
          "type": "bool"
        }
      ],
      "stateMutability": "view",
      "type": "function"
    },
    {
      "inputs": [
        {
          "internalType": "address",
          "name": "to",
          "type": "address"
        }
      ],
      "name": "recoverFunds",
      "outputs": [],
      "stateMutability": "nonpayable",
      "type": "function"
    },
    {
      "inputs": [
        {
          "internalType": "uint64",
          "name": "subscriptionId",
          "type": "uint64"
        },
        {
          "internalType": "address",
          "name": "consumer",
          "type": "address"
        }
      ],
      "name": "removeConsumer",
      "outputs": [],
      "stateMutability": "nonpayable",
      "type": "function"
    },
    {
      "inputs": [
        {
          "internalType": "uint64",
          "name": "subscriptionId",
          "type": "uint64"
        },
        {
          "internalType": "address",
          "name": "newOwner",
          "type": "address"
        }
      ],
      "name": "requestSubscriptionOwnerTransfer",
      "outputs": [],
      "stateMutability": "nonpayable",
      "type": "function"
    },
    {
      "inputs": [
        {
          "internalType": "address[]",
          "name": "senders",
          "type": "address[]"
        }
      ],
      "name": "setAuthorizedSenders",
      "outputs": [],
      "stateMutability": "nonpayable",
      "type": "function"
    },
    {
      "inputs": [
        {
          "internalType": "uint32",
          "name": "maxGasLimit",
          "type": "uint32"
        },
        {
          "internalType": "uint32",
          "name": "stalenessSeconds",
          "type": "uint32"
        },
        {
          "internalType": "uint256",
          "name": "gasAfterPaymentCalculation",
          "type": "uint256"
        },
        {
          "internalType": "int256",
          "name": "fallbackWeiPerUnitLink",
          "type": "int256"
        },
        {
          "internalType": "uint32",
          "name": "gasOverhead",
          "type": "uint32"
        },
        {
          "internalType": "uint32",
          "name": "requestTimeoutSeconds",
          "type": "uint32"
        }
      ],
      "name": "setConfig",
      "outputs": [],
      "stateMutability": "nonpayable",
      "type": "function"
    },
    {
      "inputs": [
        {
          "internalType": "bytes",
          "name": "data",
          "type": "bytes"
        },
        {
          "components": [
            {
              "internalType": "uint64",
              "name": "subscriptionId",
              "type": "uint64"
            },
            {
              "internalType": "address",
              "name": "client",
              "type": "address"
            },
            {
              "internalType": "uint32",
              "name": "gasLimit",
              "type": "uint32"
            },
            {
              "internalType": "uint256",
              "name": "gasPrice",
              "type": "uint256"
            }
          ],
          "internalType": "struct FunctionsBillingRegistryInterface.RequestBilling",
          "name": "billing",
          "type": "tuple"
        }
      ],
      "name": "startBilling",
      "outputs": [
        {
          "internalType": "bytes32",
          "name": "",
          "type": "bytes32"
        }
      ],
      "stateMutability": "nonpayable",
      "type": "function"
    },
    {
      "inputs": [
        {
          "internalType": "bytes32[]",
          "name": "requestIdsToTimeout",
          "type": "bytes32[]"
        }
      ],
      "name": "timeoutRequests",
      "outputs": [],
      "stateMutability": "nonpayable",
      "type": "function"
    },
    {
      "inputs": [
        {
          "internalType": "address",
          "name": "to",
          "type": "address"
        }
      ],
      "name": "transferOwnership",
      "outputs": [],
      "stateMutability": "nonpayable",
      "type": "function"
    },
    {
      "inputs": [],
      "name": "unpause",
      "outputs": [],
      "stateMutability": "nonpayable",
      "type": "function"
    }
  ],
  "bytecode": "0x608060405234801561001057600080fd5b506147b2806100206000396000f3fe608060405234801561001057600080fd5b50600436106102255760003560e01c80638da5cb5b1161012a578063c0c53b8b116100bd578063e82ad7d41161008c578063f1e14a2111610071578063f1e14a211461052e578063f2fde38b1461054c578063fa00763a1461055f57600080fd5b8063e82ad7d414610508578063ee56997b1461051b57600080fd5b8063c0c53b8b14610467578063c3f909d41461047a578063d7ae1d30146104e2578063e72f6e30146104f557600080fd5b8063a47c7696116100f9578063a47c76961461040c578063a4c0ed361461042e578063a9d03c0514610441578063b2a489ff1461045457600080fd5b80638da5cb5b1461039b5780639f87fad7146103c6578063a1a6d041146103d9578063a21a23e41461040457600080fd5b80633f4ba83a116101bd578063665871ec1161018c57806379ba50971161017157806379ba50971461037857806382359740146103805780638456cb591461039357600080fd5b8063665871ec146103525780637341c10c1461036557600080fd5b80633f4ba83a146103055780635c975abb1461030d57806364d51a2a1461032457806366316d8d1461033f57600080fd5b806312b58349116101f957806312b58349146102915780632408afaa146102b857806327923e41146102cd57806333652e3e146102e057600080fd5b80620122911461022a57806302bcc5b61461024957806304c357cb1461025e5780630739e4f114610271575b600080fd5b610232610572565b604051610240929190614559565b60405180910390f35b61025c610257366004614229565b610591565b005b61025c61026c366004614244565b6105e7565b61028461027f366004613f50565b61073b565b604051610240919061446b565b606f546801000000000000000090046001600160601b03165b604051908152602001610240565b6102c0610c8c565b60405161024091906143af565b61025c6102db3660046141c3565b610cee565b606f546001600160401b03165b6040516001600160401b039091168152602001610240565b61025c610dfb565b60345460ff165b6040519015158152602001610240565b61032c606481565b60405161ffff9091168152602001610240565b61025c61034d366004613eb6565b610e0d565b61025c610360366004613eed565b610fda565b61025c610373366004614244565b61120d565b61025c6113e1565b61025c61038e366004614229565b611499565b61025c61173f565b6000546201000090046001600160a01b03165b6040516001600160a01b039091168152602001610240565b61025c6103d4366004614244565b61174f565b6103ec6103e7366004614172565b611a83565b6040516001600160601b039091168152602001610240565b6102ed611b70565b61041f61041a366004614229565b611e47565b60405161024093929190614580565b61025c61043c366004613e5d565b611f31565b6102aa61044f366004614079565b61211d565b6103ae610462366004614229565b6127b3565b61025c610475366004613e1a565b612817565b607354607454607254607554606954606a546040805163ffffffff80891682526501000000000090980488166020820152908101959095526060850193909352931660808301526001600160a01b0392831660a08301529190911660c082015260e001610240565b61025c6104f0366004614244565b612982565b61025c610503366004613dff565b612a76565b610314610516366004614229565b612c4e565b61025c610529366004613eed565b612e47565b6103ec61053c3660046140d7565b6702c68af0bb1400009392505050565b61025c61055a366004613dff565b612fad565b61031461056d366004613dff565b612fc1565b60735460009060609063ffffffff16610589610c8c565b915091509091565b610599612fd4565b6001600160401b0381166000908152606d60205260409020546001600160a01b0316806105d957604051630fb532db60e11b815260040160405180910390fd5b6105e3828261301e565b5050565b6001600160401b0382166000908152606d602052604090205482906001600160a01b03168061062957604051630fb532db60e11b815260040160405180910390fd5b336001600160a01b0382161461066257604051636c51fda960e11b81526001600160a01b03821660048201526024015b60405180910390fd5b607354640100000000900460ff161561068e5760405163769dd35360e11b815260040160405180910390fd5b610696613338565b6001600160401b0384166000908152606d60205260409020600101546001600160a01b03848116911614610735576001600160401b0384166000818152606d602090815260409182902060010180546001600160a01b0319166001600160a01b0388169081179091558251338152918201527f69436ea6df009049404f564eff6622cd00522b0bd6a89efd9e52a355c4a879be91015b60405180910390a25b50505050565b600061074561338b565b607354640100000000900460ff16156107715760405163769dd35360e11b815260040160405180910390fd5b610779613338565b60008b81526071602090815260409182902082516101208101845281546001600160401b03811682526801000000000000000081046001600160a01b0390811694830194909452600160e01b900463ffffffff169381019390935260018101546060840152600281015491821660808401819052600160a01b9092046001600160601b0390811660a0850152600382015480821660c0860152600160601b90041660e084015260040154610100830152610837576002915050610c7e565b60008c81526071602052604080822082815560018101839055600281018390556003810180546001600160c01b0319169055600401829055517f0ca7617500000000000000000000000000000000000000000000000000000000906108a8908f908f908f908f908f906024016143c2565b60408051601f19818403018152918152602080830180517bffffffffffffffffffffffffffffffffffffffffffffffffffffffff167fffffffff00000000000000000000000000000000000000000000000000000000909516949094179093526073805464ff0000000019166401000000001790558401519184015190925060009161093d9163ffffffff90911690846133b1565b6073805464ff000000001916905560745460a085015160c086015192935060009261096f92899290918c908c3a6133fd565b60408082015186516001600160401b03166000908152606e60205291909120549192506001600160601b03908116911610156109be57604051631e9acf1760e31b815260040160405180910390fd5b60408082015185516001600160401b03166000908152606e6020529182208054919290916109f69084906001600160601b031661468f565b92506101000a8154816001600160601b0302191690836001600160601b0316021790555060005b8860ff16811015610abd578151607060008c84601f8110610a4057610a4061473b565b60200201516001600160a01b03166001600160a01b0316815260200190815260200160002060008282829054906101000a90046001600160601b0316610a8691906145fd565b92506101000a8154816001600160601b0302191690836001600160601b031602179055508080610ab5906146b7565b915050610a1d565b508360c0015160706000610ae06000546001600160a01b03620100009091041690565b6001600160a01b03168152602081019190915260400160009081208054909190610b149084906001600160601b03166145fd565b82546101009290920a6001600160601b038181021990931691831602179091556020838101516001600160a01b038e166000908152607090925260408220805491945092610b64918591166145fd565b82546101009290920a6001600160601b0381810219909316918316021790915560e086015186516001600160401b03166000908152606e60205260409020805491935091600c91610bbe918591600160601b90041661468f565b92506101000a8154816001600160601b0302191690836001600160601b031602179055508e7fc8dc973332de19a5f71b6026983110e9c2e04b0c98b87eb771ccb78607fd114f856000015183600001518460200151856040015187604051610c609594939291906001600160401b039590951685526001600160601b039384166020860152918316604085015290911660608301521515608082015260a00190565b60405180910390a281610c74576001610c77565b60005b9450505050505b9a9950505050505050505050565b60606068805480602002602001604051908101604052809291908181526020018280548015610ce457602002820191906000526020600020905b81546001600160a01b03168152600190910190602001808311610cc6575b5050505050905090565b610cf6612fd4565b60008313610d1a576040516321ea67b360e11b815260048101849052602401610659565b6040805160c08101825263ffffffff888116808352600060208085019190915289831684860181905260608086018b9052888516608080880182905295891660a09788018190526073805468ffffffffffffffffff1916871765010000000000860217905560748d90556075805467ffffffffffffffff1916831764010000000090920291909117905560728b9055875194855292840191909152948201899052938101879052908101929092527f24d3d934adfef9b9029d6ffa463c07d0139ed47d26ee23506f85ece2879d2bd4910160405180910390a1505050505050565b610e03612fd4565b610e0b613541565b565b607354640100000000900460ff1615610e395760405163769dd35360e11b815260040160405180910390fd5b610e41613338565b6001600160601b038116610e6a5750336000908152607060205260409020546001600160601b03165b336000908152607060205260409020546001600160601b0380831691161015610ea657604051631e9acf1760e31b815260040160405180910390fd5b3360009081526070602052604081208054839290610ece9084906001600160601b031661468f565b92506101000a8154816001600160601b0302191690836001600160601b0316021790555080606f60088282829054906101000a90046001600160601b0316610f16919061468f565b82546101009290920a6001600160601b0381810219909316918316021790915560695460405163a9059cbb60e01b81526001600160a01b03868116600483015292851660248201529116915063a9059cbb90604401602060405180830381600087803b158015610f8557600080fd5b505af1158015610f99573d6000803e3d6000fd5b505050506040513d601f19601f82011682018060405250810190610fbd9190613f2e565b6105e357604051631e9acf1760e31b815260040160405180910390fd5b610fe2613338565b60005b818110156112085760008383838181106110015761100161473b565b60209081029290920135600081815260718452604080822081516101208101835281546001600160401b0381168083526801000000000000000082046001600160a01b03908116848b0152600160e01b90920463ffffffff16838601526001840154606084015260028401548083166080850152600160a01b90046001600160601b0390811660a0850152600385015480821660c0860152600160601b90041660e0840152600490930154610100830152918452606d90965291205491945016331490506111095780516001600160401b03166000908152606d602052604090819020549051636c51fda960e11b81526001600160a01b039091166004820152602401610659565b607554610100820151429161112d9164010000000090910463ffffffff16906145ba565b11156111f35760e081015181516001600160401b03166000908152606e602052604090208054600c90611171908490600160601b90046001600160601b031661468f565b82546001600160601b039182166101009390930a92830291909202199091161790555060008281526071602052604080822082815560018101839055600281018390556003810180546001600160c01b03191690556004018290555183917ff1ca1e9147be737b04a2b018a79405f687a97de8dd8a2559bbe62357343af41491a25b50508080611200906146b7565b915050610fe5565b505050565b6001600160401b0382166000908152606d602052604090205482906001600160a01b03168061124f57604051630fb532db60e11b815260040160405180910390fd5b336001600160a01b0382161461128357604051636c51fda960e11b81526001600160a01b0382166004820152602401610659565b607354640100000000900460ff16156112af5760405163769dd35360e11b815260040160405180910390fd5b6112b7613338565b6001600160401b0384166000908152606d60205260409020600201546064141561130d576040517f05a48e0f00000000000000000000000000000000000000000000000000000000815260040160405180910390fd5b6001600160a01b0383166000908152606c602090815260408083206001600160401b038089168552925290912054161561134657610735565b6001600160a01b0383166000818152606c602090815260408083206001600160401b038916808552908352818420805467ffffffffffffffff19166001908117909155606d84528285206002018054918201815585529383902090930180546001600160a01b031916851790555192835290917f43dc749a04ac8fb825cbd514f7c0e13f13bc6f2ee66043b76629d51776cff8e0910161072c565b6001546001600160a01b03163314611425576040517f0f22ca5f00000000000000000000000000000000000000000000000000000000815260040160405180910390fd5b60008054336201000081810275ffffffffffffffffffffffffffffffffffffffff0000198416178455600180546001600160a01b03191690556040516001600160a01b03919093041692909183917f8be0079c531659141344cd1fd0a4f28419497f9722a3daafe3b4186f6b6457e091a350565b607354640100000000900460ff16156114c55760405163769dd35360e11b815260040160405180910390fd5b6114cd613338565b606b60009054906101000a90046001600160a01b03166001600160a01b0316634b4fa0c16040518163ffffffff1660e01b815260040160206040518083038186803b15801561151b57600080fd5b505afa15801561152f573d6000803e3d6000fd5b505050506040513d601f19601f820116820180604052508101906115539190613f2e565b80156115d75750606b54604051637d003b1d60e11b81523360048201526001600160a01b039091169063fa00763a9060240160206040518083038186803b15801561159d57600080fd5b505afa1580156115b1573d6000803e3d6000fd5b505050506040513d601f19601f820116820180604052508101906115d59190613f2e565b155b156115f557604051630101292160e31b815260040160405180910390fd5b6001600160401b0381166000908152606d60205260409020546001600160a01b031661163457604051630fb532db60e11b815260040160405180910390fd5b6001600160401b0381166000908152606d60205260409020600101546001600160a01b031633146116ba576001600160401b0381166000908152606d6020526040908190206001015490517fd084e9750000000000000000000000000000000000000000000000000000000081526001600160a01b039091166004820152602401610659565b6001600160401b0381166000818152606d60209081526040918290208054336001600160a01b0319808316821784556001909301805490931690925583516001600160a01b03909116808252928101919091529092917f6f1dc65165ffffedfd8e507b4a0f1fcfdada045ed11f6c26ba27cedfe87802f0910160405180910390a25050565b611747612fd4565b610e0b613593565b6001600160401b0382166000908152606d602052604090205482906001600160a01b03168061179157604051630fb532db60e11b815260040160405180910390fd5b336001600160a01b038216146117c557604051636c51fda960e11b81526001600160a01b0382166004820152602401610659565b607354640100000000900460ff16156117f15760405163769dd35360e11b815260040160405180910390fd5b6117f9613338565b6001600160a01b0383166000908152606c602090815260408083206001600160401b0380891685529252909120541661185f57604051637800cff360e11b81526001600160401b03851660048201526001600160a01b0384166024820152604401610659565b6001600160401b0384166000908152606d60209081526040808320600201805482518185028101850190935280835291929091908301828280156118cc57602002820191906000526020600020905b81546001600160a01b031681526001909101906020018083116118ae575b505050505090506000600182516118e39190614678565b905060005b8251811015611a0a57856001600160a01b031683828151811061190d5761190d61473b565b60200260200101516001600160a01b031614156119f85760008383815181106119385761193861473b565b6020026020010151905080606d60008a6001600160401b03166001600160401b03168152602001908152602001600020600201838154811061197c5761197c61473b565b600091825260208083209190910180546001600160a01b0319166001600160a01b0394909416939093179092556001600160401b038a168152606d909152604090206002018054806119d0576119d0614725565b600082815260209020810160001990810180546001600160a01b031916905501905550611a0a565b80611a02816146b7565b9150506118e8565b506001600160a01b0385166000818152606c602090815260408083206001600160401b038b1680855290835292819020805467ffffffffffffffff191690555192835290917f182bff9831466789164ca77075fffd84916d35a8180ba73c27e45634549b445b91015b60405180910390a2505050505050565b600080611a8e6135d0565b905060008113611ab4576040516321ea67b360e11b815260048101829052602401610659565b60745460755460009163ffffffff808a1692611ad19291166145ba565b611adb91906145ba565b905060008282611af389670de0b6b3a7640000614659565b611afd9190614659565b611b07919061461f565b90506000611b216001600160601b038088169089166145ba565b9050611b39816b033b2e3c9fd0803ce8000000614678565b821115611b595760405163e80fa38160e01b815260040160405180910390fd5b611b6381836145ba565b9998505050505050505050565b607354600090640100000000900460ff1615611b9f5760405163769dd35360e11b815260040160405180910390fd5b611ba7613338565b606b60009054906101000a90046001600160a01b03166001600160a01b0316634b4fa0c16040518163ffffffff1660e01b815260040160206040518083038186803b158015611bf557600080fd5b505afa158015611c09573d6000803e3d6000fd5b505050506040513d601f19601f82011682018060405250810190611c2d9190613f2e565b8015611cb15750606b54604051637d003b1d60e11b81523360048201526001600160a01b039091169063fa00763a9060240160206040518083038186803b158015611c7757600080fd5b505afa158015611c8b573d6000803e3d6000fd5b505050506040513d601f19601f82011682018060405250810190611caf9190613f2e565b155b15611ccf57604051630101292160e31b815260040160405180910390fd5b606f80546001600160401b0316906000611ce8836146d2565b82546101009290920a6001600160401b03818102199093169183160217909155606f54169050600080604051908082528060200260200182016040528015611d3a578160200160208202803683370190505b50604080518082018252600080825260208083018281526001600160401b038816808452606e83528584209451855492516001600160601b03908116600160601b026001600160c01b0319909416911617919091179093558351606081018552338152808201838152818601878152948452606d835294909220825181546001600160a01b039182166001600160a01b0319918216178355955160018301805491909216961695909517909455915180519495509093611e009260028501920190613ba6565b50506040513381526001600160401b03841691507f464722b4166576d3dcbba877b999bc35cf911f4eaf434b7eba68fa113951d0bf9060200160405180910390a250905090565b6001600160401b0381166000908152606d602052604081205481906060906001600160a01b0316611e8b57604051630fb532db60e11b815260040160405180910390fd5b6001600160401b0384166000908152606e6020908152604080832054606d8352928190208054600290910180548351818602810186019094528084526001600160601b03909516946001600160a01b03909216939092918391830182828015611f1d57602002820191906000526020600020905b81546001600160a01b03168152600190910190602001808311611eff575b505050505090509250925092509193909250565b607354640100000000900460ff1615611f5d5760405163769dd35360e11b815260040160405180910390fd5b611f65613338565b6069546001600160a01b03163314611fa9576040517f44b0e3c300000000000000000000000000000000000000000000000000000000815260040160405180910390fd5b60208114611fe3576040517f8129bbcd00000000000000000000000000000000000000000000000000000000815260040160405180910390fd5b6000611ff182840184614229565b6001600160401b0381166000908152606d60205260409020549091506001600160a01b031661203357604051630fb532db60e11b815260040160405180910390fd5b6001600160401b0381166000908152606e6020526040812080546001600160601b03169186919061206483856145fd565b92506101000a8154816001600160601b0302191690836001600160601b0316021790555084606f60088282829054906101000a90046001600160601b03166120ac91906145fd565b92506101000a8154816001600160601b0302191690836001600160601b03160217905550816001600160401b03167fd39ec07f4e209f627a4c427971473820dc129761ba28de8906bd56f57101d4f882878461210891906145ba565b60408051928352602083019190915201611a73565b600061212761338b565b607354640100000000900460ff16156121535760405163769dd35360e11b815260040160405180910390fd5b61215b613338565b6000606d8161216d6020860186614229565b6001600160401b031681526020810191909152604001600020546001600160a01b031614156121af57604051630fb532db60e11b815260040160405180910390fd5b6000606c816121c46040860160208701613dff565b6001600160a01b031681526020808201929092526040016000908120916121ed90860186614229565b6001600160401b039081168252602082019290925260400160002054169050806122615761221e6020840184614229565b61222e6040850160208601613dff565b604051637800cff360e11b81526001600160401b0390921660048301526001600160a01b03166024820152604401610659565b60735463ffffffff1661227a6060850160408601614157565b63ffffffff1611156122db576122966060840160408501614157565b6073546040517ff5d7e01e00000000000000000000000000000000000000000000000000000000815263ffffffff928316600482015291166024820152604401610659565b6040517ff1e14a21000000000000000000000000000000000000000000000000000000008152600090339063f1e14a219061231e908990899089906004016143fb565b60206040518083038186803b15801561233657600080fd5b505afa15801561234a573d6000803e3d6000fd5b505050506040513d601f19601f8201168201806040525081019061236e91906142c7565b90506000612386878761053c36899003890189614122565b905060006123a961239d6060880160408901614157565b87606001358585611a83565b90506000606e816123bd60208a018a614229565b6001600160401b03168152602080820192909252604001600090812054600160601b90046001600160601b031691606e91906123fb908b018b614229565b6001600160401b0316815260208101919091526040016000205461242891906001600160601b031661468f565b9050816001600160601b0316816001600160601b0316101561245d57604051631e9acf1760e31b815260040160405180910390fd5b600061246a8660016145d2565b905060006124e43361248260408c0160208d01613dff565b61248f60208d018d614229565b85604080516001600160a01b0395861660208083019190915294909516858201526001600160401b03928316606086015291166080808501919091528151808503909101815260a09093019052815191012090565b6040805161012081019091529091506000908061250460208d018d614229565b6001600160401b031681526020018b60200160208101906125259190613dff565b6001600160a01b0316815260200161254360608d0160408e01614157565b63ffffffff90811682526060808e0135602080850191909152336040808601919091526001600160601b03808e16848701528c81166080808801919091528c821660a0808901919091524260c09889015260008b8152607186528481208a5181548c890151978d0151909a16600160e01b027bffffffffffffffffffffffffffffffffffffffffffffffffffffffff6001600160a01b0398891668010000000000000000027fffffffff00000000000000000000000000000000000000000000000000000000909c166001600160401b03909316929092179a909a171698909817885595890151600188015590880151908801518216600160a01b0292169190911760028501559385015160038401805460e08801518716600160601b026001600160c01b03199091169290961691909117949094179093556101008401516004909201919091559192508691606e9161269f908e018e614229565b6001600160401b0316815260208101919091526040016000208054600c906126d8908490600160601b90046001600160601b03166145fd565b92506101000a8154816001600160601b0302191690836001600160601b03160217905550817f99f7f4e65b4b9fbabd4e357c47ed3099b36e57ecd3a43e84662f34c207d0ebe48260405161272c9190614493565b60405180910390a282606c600061274960408e0160208f01613dff565b6001600160a01b03168152602080820192909252604001600090812091612772908e018e614229565b6001600160401b0390811682526020820192909252604001600020805467ffffffffffffffff191692909116919091179055509a9950505050505050505050565b6001600160401b0381166000908152606d60205260408120546001600160a01b03166127f257604051630fb532db60e11b815260040160405180910390fd5b506001600160401b03166000908152606d60205260409020546001600160a01b031690565b600054610100900460ff16158080156128375750600054600160ff909116105b806128515750303b158015612851575060005460ff166001145b6128c35760405162461bcd60e51b815260206004820152602e60248201527f496e697469616c697a61626c653a20636f6e747261637420697320616c72656160448201527f647920696e697469616c697a65640000000000000000000000000000000000006064820152608401610659565b6000805460ff1916600117905580156128e6576000805461ff0019166101001790555b6128ee6136b6565b6128f9336000613729565b606980546001600160a01b038087166001600160a01b031992831617909255606a8054868416908316179055606b8054928516929091169190911790558015610735576000805461ff0019169055604051600181527f7f26b83ff96e1f2b6a682f133852f6798a09c465da95921460cefb3847402498906020015b60405180910390a150505050565b6001600160401b0382166000908152606d602052604090205482906001600160a01b0316806129c457604051630fb532db60e11b815260040160405180910390fd5b336001600160a01b038216146129f857604051636c51fda960e11b81526001600160a01b0382166004820152602401610659565b607354640100000000900460ff1615612a245760405163769dd35360e11b815260040160405180910390fd5b612a2c613338565b612a3584612c4e565b15612a6c576040517fb42f66e800000000000000000000000000000000000000000000000000000000815260040160405180910390fd5b610735848461301e565b612a7e612fd4565b6069546040517f70a082310000000000000000000000000000000000000000000000000000000081523060048201526000916001600160a01b0316906370a082319060240160206040518083038186803b158015612adb57600080fd5b505afa158015612aef573d6000803e3d6000fd5b505050506040513d601f19601f82011682018060405250810190612b13919061413e565b606f549091506801000000000000000090046001600160601b031681811115612b72576040517fa99da3020000000000000000000000000000000000000000000000000000000081526004810182905260248101839052604401610659565b81811015611208576000612b868284614678565b60695460405163a9059cbb60e01b81526001600160a01b0387811660048301526024820184905292935091169063a9059cbb90604401602060405180830381600087803b158015612bd657600080fd5b505af1158015612bea573d6000803e3d6000fd5b505050506040513d601f19601f82011682018060405250810190612c0e9190613f2e565b50604080516001600160a01b0386168152602081018390527f59bfc682b673f8cbf945f1e454df9334834abf7dfe7f92237ca29ecb9b4366009101612974565b6001600160401b0381166000908152606d6020908152604080832060020180548251818502810185019093528083528493830182828015612cb857602002820191906000526020600020905b81546001600160a01b03168152600190910190602001808311612c9a575b505050505090506000612cc9610c8c565b905060005b8251811015612e3c5760005b8251811015612e29576000612de6848381518110612cfa57612cfa61473b565b6020026020010151868581518110612d1457612d1461473b565b602002602001015189606c60008a8981518110612d3357612d3361473b565b60200260200101516001600160a01b03166001600160a01b0316815260200190815260200160002060008c6001600160401b03166001600160401b0316815260200190815260200160002060009054906101000a90046001600160401b0316604080516001600160a01b0395861660208083019190915294909516858201526001600160401b03928316606086015291166080808501919091528151808503909101815260a09093019052815191012090565b6000818152607160205260409020600201549091506001600160a01b031615612e16575060019695505050505050565b5080612e21816146b7565b915050612cda565b5080612e34816146b7565b915050612cce565b506000949350505050565b612e4f61381a565b612e85576040517fad77f06100000000000000000000000000000000000000000000000000000000815260040160405180910390fd5b80612ebc576040517f75158c3b00000000000000000000000000000000000000000000000000000000815260040160405180910390fd5b60005b606854811015612f0f57612efc60688281548110612edf57612edf61473b565b6000918252602090912001546066906001600160a01b031661382a565b5080612f07816146b7565b915050612ebf565b5060005b81811015612f6057612f4d838383818110612f3057612f3061473b565b9050602002016020810190612f459190613dff565b606690613846565b5080612f58816146b7565b915050612f13565b50612f6d60688383613c07565b507ff263cfb3e4298332e776194610cf9fdc09ccb3ada8b9aa39764d882e11fbf0a0828233604051612fa193929190614351565b60405180910390a15050565b612fb5612fd4565b612fbe8161385b565b50565b6000612fce6066836138f6565b92915050565b6000546201000090046001600160a01b03163314610e0b576040517f2b5c74de00000000000000000000000000000000000000000000000000000000815260040160405180910390fd5b607354640100000000900460ff161561304a5760405163769dd35360e11b815260040160405180910390fd5b6001600160401b0382166000908152606d60209081526040808320815160608101835281546001600160a01b039081168252600183015416818501526002820180548451818702810187018652818152929593948601938301828280156130da57602002820191906000526020600020905b81546001600160a01b031681526001909101906020018083116130bc575b505050919092525050506001600160401b0384166000908152606e60205260408120549192506001600160601b03909116905b82604001515181101561318e57606c6000846040015183815181106131345761313461473b565b6020908102919091018101516001600160a01b0316825281810192909252604090810160009081206001600160401b03891682529092529020805467ffffffffffffffff1916905580613186816146b7565b91505061310d565b506001600160401b0384166000908152606d6020526040812080546001600160a01b031990811682556001820180549091169055906131d06002830182613c5a565b50506001600160401b0384166000908152606e6020526040902080546001600160c01b0319169055606f80548291906008906132229084906801000000000000000090046001600160601b031661468f565b82546101009290920a6001600160601b0381810219909316918316021790915560695460405163a9059cbb60e01b81526001600160a01b03878116600483015292851660248201529116915063a9059cbb90604401602060405180830381600087803b15801561329157600080fd5b505af11580156132a5573d6000803e3d6000fd5b505050506040513d601f19601f820116820180604052508101906132c99190613f2e565b6132e657604051631e9acf1760e31b815260040160405180910390fd5b604080516001600160a01b03851681526001600160601b03831660208201526001600160401b038616917fe8ed5b475a5b5987aa9165e8731bb78043f39eee32ec5a1169a89e27fcd49815910161072c565b60345460ff1615610e0b5760405162461bcd60e51b815260206004820152601060248201527f5061757361626c653a20706175736564000000000000000000000000000000006044820152606401610659565b61339433612fc1565b610e0b57604051630101292160e31b815260040160405180910390fd5b60005a6113888110156133c357600080fd5b6113888103905084604082048203116133db57600080fd5b50823b6133e757600080fd5b60008083516020850160008789f1949350505050565b60408051606081018252600080825260208201819052918101829052906134226135d0565b905060008113613448576040516321ea67b360e11b815260048101829052602401610659565b6000815a8b6134578c896145ba565b61346191906145ba565b61346b9190614678565b61347d86670de0b6b3a7640000614659565b6134879190614659565b613491919061461f565b905060006134ab6001600160601b03808916908b166145ba565b90506134c3816b033b2e3c9fd0803ce8000000614678565b8211156134e35760405163e80fa38160e01b815260040160405180910390fd5b60006134f260ff8a168b614633565b905082600061350961350485846145ba565b613918565b604080516060810182526001600160601b03958616815293851660208501529316928201929092529c9b505050505050505050505050565b61354961399b565b6034805460ff191690557f5db9ee0a495bf2e6ff9c91a7834c1ba4fdd244a5e8aa4e537bd38aeae4b073aa335b6040516001600160a01b03909116815260200160405180910390a1565b61359b613338565b6034805460ff191660011790557f62e78cea01bee320cd4e420270b5ea74000d11b0c9f74754ebdbfc544b05a2586135763390565b607354606a54604080517ffeaf968c000000000000000000000000000000000000000000000000000000008152905160009365010000000000900463ffffffff169283151592859283926001600160a01b03169163feaf968c9160048083019260a0929190829003018186803b15801561364957600080fd5b505afa15801561365d573d6000803e3d6000fd5b505050506040513d601f19601f820116820180604052508101906136819190614277565b509350509250508280156136a3575061369a8142614678565b8463ffffffff16105b156136ae5760725491505b509392505050565b600054610100900460ff166137215760405162461bcd60e51b815260206004820152602b60248201527f496e697469616c697a61626c653a20636f6e7472616374206973206e6f74206960448201526a6e697469616c697a696e6760a81b6064820152608401610659565b610e0b6139ed565b600054610100900460ff166137945760405162461bcd60e51b815260206004820152602b60248201527f496e697469616c697a61626c653a20636f6e7472616374206973206e6f74206960448201526a6e697469616c697a696e6760a81b6064820152608401610659565b6001600160a01b0382166137d4576040517fb6b515fa00000000000000000000000000000000000000000000000000000000815260040160405180910390fd5b600080546001600160a01b03808516620100000275ffffffffffffffffffffffffffffffffffffffff000019909216919091179091558116156105e3576105e38161385b565b6000613824612fd4565b50600190565b600061383f836001600160a01b038416613a64565b9392505050565b600061383f836001600160a01b038416613b57565b6001600160a01b03811633141561389e576040517f282010c300000000000000000000000000000000000000000000000000000000815260040160405180910390fd5b600180546001600160a01b0319166001600160a01b038381169182179092556000805460405192936201000090910416917fed8889f560326eb138920d842192f0eb3dd22b4f139c87a2c57538e05bae12789190a350565b6001600160a01b0381166000908152600183016020526040812054151561383f565b60006001600160601b038211156139975760405162461bcd60e51b815260206004820152602660248201527f53616665436173743a2076616c756520646f65736e27742066697420696e203960448201527f36206269747300000000000000000000000000000000000000000000000000006064820152608401610659565b5090565b60345460ff16610e0b5760405162461bcd60e51b815260206004820152601460248201527f5061757361626c653a206e6f74207061757365640000000000000000000000006044820152606401610659565b600054610100900460ff16613a585760405162461bcd60e51b815260206004820152602b60248201527f496e697469616c697a61626c653a20636f6e7472616374206973206e6f74206960448201526a6e697469616c697a696e6760a81b6064820152608401610659565b6034805460ff19169055565b60008181526001830160205260408120548015613b4d576000613a88600183614678565b8554909150600090613a9c90600190614678565b9050818114613b01576000866000018281548110613abc57613abc61473b565b9060005260206000200154905080876000018481548110613adf57613adf61473b565b6000918252602080832090910192909255918252600188019052604090208390555b8554869080613b1257613b12614725565b600190038181906000526020600020016000905590558560010160008681526020019081526020016000206000905560019350505050612fce565b6000915050612fce565b6000818152600183016020526040812054613b9e57508154600181810184556000848152602080822090930184905584548482528286019093526040902091909155612fce565b506000612fce565b828054828255906000526020600020908101928215613bfb579160200282015b82811115613bfb57825182546001600160a01b0319166001600160a01b03909116178255602090920191600190910190613bc6565b50613997929150613c74565b828054828255906000526020600020908101928215613bfb579160200282015b82811115613bfb5781546001600160a01b0319166001600160a01b03843516178255602090920191600190910190613c27565b5080546000825590600052602060002090810190612fbe91905b5b808211156139975760008155600101613c75565b80356001600160a01b0381168114613ca057600080fd5b919050565b60008083601f840112613cb757600080fd5b5081356001600160401b03811115613cce57600080fd5b6020830191508360208260051b8501011115613ce957600080fd5b9250929050565b60008083601f840112613d0257600080fd5b5081356001600160401b03811115613d1957600080fd5b602083019150836020828501011115613ce957600080fd5b600060808284031215613d4357600080fd5b604051608081018181106001600160401b0382111715613d6557613d65614751565b604052905080613d7483613dbd565b8152613d8260208401613c89565b6020820152613d9360408401613da9565b6040820152606083013560608201525092915050565b803563ffffffff81168114613ca057600080fd5b80356001600160401b0381168114613ca057600080fd5b803560ff81168114613ca057600080fd5b805169ffffffffffffffffffff81168114613ca057600080fd5b600060208284031215613e1157600080fd5b61383f82613c89565b600080600060608486031215613e2f57600080fd5b613e3884613c89565b9250613e4660208501613c89565b9150613e5460408501613c89565b90509250925092565b60008060008060608587031215613e7357600080fd5b613e7c85613c89565b93506020850135925060408501356001600160401b03811115613e9e57600080fd5b613eaa87828801613cf0565b95989497509550505050565b60008060408385031215613ec957600080fd5b613ed283613c89565b91506020830135613ee281614767565b809150509250929050565b60008060208385031215613f0057600080fd5b82356001600160401b03811115613f1657600080fd5b613f2285828601613ca5565b90969095509350505050565b600060208284031215613f4057600080fd5b8151801515811461383f57600080fd5b6000806000806000806000806000806104c08b8d031215613f7057600080fd5b8a35995060208b01356001600160401b0380821115613f8e57600080fd5b613f9a8e838f01613cf0565b909b50995060408d0135915080821115613fb357600080fd5b613fbf8e838f01613cf0565b9099509750879150613fd360608e01613c89565b96508d609f8e0112613fe457600080fd5b60405191506103e08201828110828211171561400257614002614751565b604052508060808d016104608e018f81111561401d57600080fd5b60005b601f8110156140475761403283613c89565b84526020938401939290920191600101614020565b5083975061405481613dd4565b9650505050506104808b013591506104a08b013590509295989b9194979a5092959850565b600080600083850360a081121561408f57600080fd5b84356001600160401b038111156140a557600080fd5b6140b187828801613cf0565b9095509350506080601f19820112156140c957600080fd5b506020840190509250925092565b600080600060a084860312156140ec57600080fd5b83356001600160401b0381111561410257600080fd5b61410e86828701613cf0565b9094509250613e5490508560208601613d31565b60006080828403121561413457600080fd5b61383f8383613d31565b60006020828403121561415057600080fd5b5051919050565b60006020828403121561416957600080fd5b61383f82613da9565b6000806000806080858703121561418857600080fd5b61419185613da9565b93506020850135925060408501356141a881614767565b915060608501356141b881614767565b939692955090935050565b60008060008060008060c087890312156141dc57600080fd5b6141e587613da9565b95506141f360208801613da9565b9450604087013593506060870135925061420f60808801613da9565b915061421d60a08801613da9565b90509295509295509295565b60006020828403121561423b57600080fd5b61383f82613dbd565b6000806040838503121561425757600080fd5b61426083613dbd565b915061426e60208401613c89565b90509250929050565b600080600080600060a0868803121561428f57600080fd5b61429886613de5565b94506020860151935060408601519250606086015191506142bb60808701613de5565b90509295509295909350565b6000602082840312156142d957600080fd5b815161383f81614767565b600081518084526020808501945080840160005b8381101561431d5781516001600160a01b0316875295820195908201906001016142f8565b509495945050505050565b81835281816020850137506000828201602090810191909152601f909101601f19169091010190565b6040808252810183905260008460608301825b86811015614392576001600160a01b0361437d84613c89565b16825260209283019290910190600101614364565b5080925050506001600160a01b0383166020830152949350505050565b60208152600061383f60208301846142e4565b8581526060602082015260006143dc606083018688614328565b82810360408401526143ef818587614328565b98975050505050505050565b60a08152600061440f60a083018587614328565b90506001600160401b0361442284613dbd565b1660208301526001600160a01b0361443c60208501613c89565b16604083015263ffffffff61445360408501613da9565b16606083015260608301356080830152949350505050565b602081016003831061448d57634e487b7160e01b600052602160045260246000fd5b91905290565b6000610120820190506001600160401b0383511682526001600160a01b03602084015116602083015260408301516144d3604084018263ffffffff169052565b506060830151606083015260808301516144f860808401826001600160a01b03169052565b5060a083015161451360a08401826001600160601b03169052565b5060c083015161452e60c08401826001600160601b03169052565b5060e083015161454960e08401826001600160601b03169052565b5061010092830151919092015290565b63ffffffff8316815260406020820152600061457860408301846142e4565b949350505050565b6001600160601b03841681526001600160a01b03831660208201526060604082015260006145b160608301846142e4565b95945050505050565b600082198211156145cd576145cd6146f9565b500190565b60006001600160401b038083168185168083038211156145f4576145f46146f9565b01949350505050565b60006001600160601b038083168185168083038211156145f4576145f46146f9565b60008261462e5761462e61470f565b500490565b60006001600160601b038084168061464d5761464d61470f565b92169190910492915050565b6000816000190483118215151615614673576146736146f9565b500290565b60008282101561468a5761468a6146f9565b500390565b60006001600160601b03838116908316818110156146af576146af6146f9565b039392505050565b60006000198214156146cb576146cb6146f9565b5060010190565b60006001600160401b03808316818114156146ef576146ef6146f9565b6001019392505050565b634e487b7160e01b600052601160045260246000fd5b634e487b7160e01b600052601260045260246000fd5b634e487b7160e01b600052603160045260246000fd5b634e487b7160e01b600052603260045260246000fd5b634e487b7160e01b600052604160045260246000fd5b6001600160601b0381168114612fbe57600080fdfea26469706673582212207dcf0cf86db655aef4168457df5799f4ecbb9830b9c548d9e39ddf161333fdcd64736f6c63430008070033",
  "linkReferences": {},
  "deployedLinkReferences": {}
}