{
  "_format": "hh-sol-artifact-1",
  "contractName": "Verifier",
  "sourceName": "contracts/Verifier.sol",
  "abi": [
    {
      "inputs": [
        {
          "internalType": "uint256[2]",
          "name": "a",
          "type": "uint256[2]"
        },
        {
          "internalType": "uint256[2][2]",
          "name": "b",
          "type": "uint256[2][2]"
        },
        {
          "internalType": "uint256[2]",
          "name": "c",
          "type": "uint256[2]"
        },
        {
          "internalType": "uint256[2]",
          "name": "input",
          "type": "uint256[2]"
        }
      ],
      "name": "verifyProof",
      "outputs": [
        {
          "internalType": "bool",
          "name": "r",
          "type": "bool"
        }
      ],
      "stateMutability": "view",
      "type": "function"
    }
  ],
  "bytecode": "0x608060405234801561001057600080fd5b50611191806100206000396000f3fe608060405234801561001057600080fd5b506004361061002b5760003560e01c8063f5c9d69e14610030575b600080fd5b61004361003e366004611004565b610057565b604051901515815260200160405180910390f35b6000610061610e2d565b60408051808201825287518152602080890151818301529083528151608081018352875151818401908152885183015160608084019190915290825283518085018552898401805151825251840151818501528284015284830191909152825180840184528751815287830151818401528484015282516002808252918101845260009390928301908036833701905050905060005b600281101561014657848160028110610112576101126110a4565b6020020151828281518110610129576101296110a4565b60209081029190910101528061013e816110d0565b9150506100f7565b50610151818361016f565b61016057600192505050610167565b6000925050505b949350505050565b60007f30644e72e131a029b85045b68181585d2833e84879b9709143e1f593f00000018161019b610366565b9050806080015151855160016101b191906110eb565b146101f85760405162461bcd60e51b81526020600482015260126024820152711d995c9a599a595c8b5898590b5a5b9c1d5d60721b60448201526064015b60405180910390fd5b604080518082019091526000808252602082018190525b86518110156102e9578387828151811061022b5761022b6110a4565b6020026020010151106102805760405162461bcd60e51b815260206004820152601f60248201527f76657269666965722d6774652d736e61726b2d7363616c61722d6669656c640060448201526064016101ef565b6102d5826102d0856080015184600161029991906110eb565b815181106102a9576102a96110a4565b60200260200101518a85815181106102c3576102c36110a4565b6020026020010151610778565b610814565b9150806102e1816110d0565b91505061020f565b50610312818360800151600081518110610305576103056110a4565b6020026020010151610814565b905061034861032486600001516108ac565b8660200151846000015185602001518587604001518b60400151896060015161094b565b6103585760019350505050610360565b600093505050505b92915050565b61036e610e7e565b6040805180820182527f08dd4b1d0ef1a6b3d9958b0df4a60a36d7b62c4ec050686ed3b0130a07cac2db81527f0aa732e29b4f34ac9ee4d3b4c1cf8a787ee5c489e95f7e44e3861bce8995c07c6020808301919091529083528151608080820184527f0a086123f21bf66dc09ca7bc784d6f6969969da2d045bce4e59016aa3f510fca8285019081527e491a7d8ee51dc1c807b1cca012f297b735954aa15ad15c29923f90e2481bb8606080850191909152908352845180860186527f1a404a15bd039ad42455ed063ee77365b03e5ef18828e62caefcd06301261e5d81527f252a9dcbbd0aeeb1c6c6d484ecfeca747ad76828d05b83aa8fcc16b44080acba818601528385015285840192909252835180820185527f198e9393920d483a7260bfb731fb5d25f1aa493335a9e71297e485b7aef312c28186019081527f1800deef121f1e76426a00665e5c4479674322d4f75edadd46debd5cd992f6ed828501528152845180860186527f090689d0585ff075ec9e99ad690c3395bc4b313370b38ef355acdadcd122975b81527f12c85ea5db8c6deb4aab71808dcb408fe3d1e7690c43d37b4ce6cc0166fa7daa818601528185015285850152835180820185527f0c1b217b1423c0139071ee4a4230fd44e748a4b8384f6dec6fe3a633abdcfe718186019081527f1124b538d401c0340e5467b450b6dda8cdc524b0119776b01982950f8bf5b0c1828501528152845180860186527f0825ab5c7105077d8943345eab662d697b6b829ff1a7fcd42a7ae10e9472417781527f0cb90fa049690389dcd8a63bf25632700647f36f297b6637f74b29d62d47e3ac818601528185015291850191909152825160038082529181019093529082015b60408051808201909152600080825260208201528152602001906001900390816105e957505060808201908152604080518082019091527f14a23c42d63b2db2bdf70a28bd3d8f07b7e33140b12a83cef97bb4cf90c41b0281527f030dc7c8854f9ff9d8a22dda599e9b250e2db177500b3d483114e4331733d9db60208201529051805160009061067c5761067c6110a4565b602002602001018190525060405180604001604052807f29f137f94c4f676eb6f07fa4e8c9fdbb3f13ded4ee358453ff8ffb6b5c78159d81526020017f227546533f851a40a82a9a010317694a0065fde1230db81f711a396d15aa65dc81525081608001516001815181106106f3576106f36110a4565b602002602001018190525060405180604001604052807f2f60d9cc7208ccca1ac30f190414c890128d487e0390355ddcadd77eba19703681526020017f177ded9ce610039b071abfc9314ec61956d17dd5397765122f45f21b204e3e4c815250816080015160028151811061076a5761076a6110a4565b602002602001018190525090565b6040805180820190915260008082526020820152610794610ecf565b835181526020808501519082015260408101839052600060608360808460076107d05a03fa90508080156107c7576107c9565bfe5b508061080c5760405162461bcd60e51b81526020600482015260126024820152711c185a5c9a5b99cb5b5d5b0b59985a5b195960721b60448201526064016101ef565b505092915050565b6040805180820190915260008082526020820152610830610eed565b8351815260208085015181830152835160408301528301516060808301919091526000908360c08460066107d05a03fa90508080156107c757508061080c5760405162461bcd60e51b81526020600482015260126024820152711c185a5c9a5b99cb5859190b59985a5b195960721b60448201526064016101ef565b604080518082019091526000808252602082015281517f30644e72e131a029b85045b68181585d97816a916871ca8d3c208c16d87cfd47901580156108f357506020830151155b156109135750506040805180820190915260008082526020820152919050565b6040518060400160405280846000015181526020018285602001516109389190611103565b6109429084611125565b90529392505050565b60408051600480825260a08201909252600091829190816020015b604080518082019091526000808252602082015281526020019060019003908161096657505060408051600480825260a0820190925291925060009190602082015b6109b0610f0b565b8152602001906001900390816109a85790505090508a826000815181106109d9576109d96110a4565b602002602001018190525088826001815181106109f8576109f86110a4565b60200260200101819052508682600281518110610a1757610a176110a4565b60200260200101819052508482600381518110610a3657610a366110a4565b60200260200101819052508981600081518110610a5557610a556110a4565b60200260200101819052508781600181518110610a7457610a746110a4565b60200260200101819052508581600281518110610a9357610a936110a4565b60200260200101819052508381600381518110610ab257610ab26110a4565b6020026020010181905250610ac78282610ad6565b9b9a5050505050505050505050565b60008151835114610b225760405162461bcd60e51b81526020600482015260166024820152751c185a5c9a5b99cb5b195b99dd1a1ccb59985a5b195960521b60448201526064016101ef565b82516000610b3182600661113c565b905060008167ffffffffffffffff811115610b4e57610b4e610f67565b604051908082528060200260200182016040528015610b77578160200160208202803683370190505b50905060005b83811015610db257868181518110610b9757610b976110a4565b60200260200101516000015182826006610bb1919061113c565b610bbc9060006110eb565b81518110610bcc57610bcc6110a4565b602002602001018181525050868181518110610bea57610bea6110a4565b60200260200101516020015182826006610c04919061113c565b610c0f9060016110eb565b81518110610c1f57610c1f6110a4565b602002602001018181525050858181518110610c3d57610c3d6110a4565b6020908102919091010151515182610c5683600661113c565b610c619060026110eb565b81518110610c7157610c716110a4565b602002602001018181525050858181518110610c8f57610c8f6110a4565b60209081029190910181015151015182610caa83600661113c565b610cb59060036110eb565b81518110610cc557610cc56110a4565b602002602001018181525050858181518110610ce357610ce36110a4565b602002602001015160200151600060028110610d0157610d016110a4565b602002015182610d1283600661113c565b610d1d9060046110eb565b81518110610d2d57610d2d6110a4565b602002602001018181525050858181518110610d4b57610d4b6110a4565b602002602001015160200151600160028110610d6957610d696110a4565b602002015182610d7a83600661113c565b610d859060056110eb565b81518110610d9557610d956110a4565b602090810291909101015280610daa816110d0565b915050610b7d565b50610dbb610f2b565b6000602082602086026020860160086107d05a03fa90508080156107c7575080610e1f5760405162461bcd60e51b81526020600482015260156024820152741c185a5c9a5b99cb5bdc18dbd9194b59985a5b1959605a1b60448201526064016101ef565b505115159695505050505050565b6040805160a081019091526000606082018181526080830191909152815260208101610e57610f0b565b8152602001610e79604051806040016040528060008152602001600081525090565b905290565b6040805160e08101909152600060a0820181815260c0830191909152815260208101610ea8610f0b565b8152602001610eb5610f0b565b8152602001610ec2610f0b565b8152602001606081525090565b60405180606001604052806003906020820280368337509192915050565b60405180608001604052806004906020820280368337509192915050565b6040518060400160405280610f1e610f49565b8152602001610e79610f49565b60405180602001604052806001906020820280368337509192915050565b60405180604001604052806002906020820280368337509192915050565b634e487b7160e01b600052604160045260246000fd5b6040805190810167ffffffffffffffff81118282101715610fae57634e487b7160e01b600052604160045260246000fd5b60405290565b600082601f830112610fc557600080fd5b610fcd610f7d565b806040840185811115610fdf57600080fd5b845b81811015610ff9578035845260209384019301610fe1565b509095945050505050565b600080600080610140858703121561101b57600080fd5b6110258686610fb4565b9350604086605f87011261103857600080fd5b611040610f7d565b8060c088018981111561105257600080fd5b8389015b81811015611077576110688b82610fb4565b84526020909301928401611056565b508196506110858a82610fb4565b955050505050611099866101008701610fb4565b905092959194509250565b634e487b7160e01b600052603260045260246000fd5b634e487b7160e01b600052601160045260246000fd5b60006000198214156110e4576110e46110ba565b5060010190565b600082198211156110fe576110fe6110ba565b500190565b60008261112057634e487b7160e01b600052601260045260246000fd5b500690565b600082821015611137576111376110ba565b500390565b6000816000190483118215151615611156576111566110ba565b50029056fea26469706673582212201f0801cd7cff74e81ac959ab05bedaa0671ce43ce3c6adec62a5375b5596398464736f6c63430008090033",
  "linkReferences": {},
  "deployedLinkReferences": {}
}